:1010000008FC0320011100005B270200BD02040060
:101010005B2702005B2702005B2702000000000044
:101020000000000000000000000000005B2702003C
:101030005B270200000000005B2702005B27020024
:1010400059110000C11100005B2702005B2702005C
:101050005B2702005B270200012C02005B270200D5
:10106000451200005B2702005B27020039120000D6
:101070005B270200CD1100005B2702005B27020006
:101080005B270200D92C02005B2702005B270200CD
:10109000AD1100005B2702005B2702005B27020006
:1010A0005B2702005B2702005B2702005B27020030
:1010B0005B2702005B270200000000000000000028
:1010C0005B2702005B2702005B2702005B27020010
:1010D0005B2702005B2702005B2702005112000021
:1010E0005B2702005B2702005B2702000000000074
:1010F000000000005B270200000000005B270200E8
:1011000021F02EFB0E480F490022814201D004C07D
:10111000FBE70D480D490E4A814202D008CA08C0BB
:10112000FAE70C484FF47001026842EA01020260DB
:10113000BFF34F8FBFF36F8F1FF080FB00DE000007
:10114000D821002060A8002008000020D421002021
:10115000D060040088ED00E0B0B502AF3AF0B6FB15
:10116000104C206828B1002020600F48203021F06A
:10117000F3FF606850B10C4D0020606005F1200065
:1011800021F0EAFF05F1180021F0E6FFA06838B170
:101190000020A06004481830BDE8B04021F0DCBF5A
:1011A000B0BD00BF1C0100403094002080B56F46E8
:1011B0000248BDE8804021F0CFBF00BF0C86002070
:1011C00080B56F46BDE880403BF012BFF0B503AF7D
:1011D0004DF804BD154E0020306022F099FE144DEC
:1011E0000446286DF0B94FF0FF302865E86D78B1FE
:1011F000296E88420CD0D6F808140170D5E9170181
:101200000130E865884204BF05F1540021F078FF01
:10121000286D0130286520465DF804BBBDE8F0402C
:1012200022F0ACBE034821F001FA00BF00D100401B
:1012300030940020DC45040080B56F46BDE8804056
:101240003CF072BD80B56F46BDE880403BF0C4BE47
:10125000F0B503AF4DF8048D84B0344C206858B11C
:10126000334D0120C4F8080205F1200021F074FF7D
:1012700005F1280021F070FFE06D38B14FF4000057
:10128000C4F808022A48283021F066FFA06A38B165
:101290004FF48060C4F808022548283021F05CFF34
:1012A000A06D28B10020A0652148203021F054FF16
:1012B000206EB8B300202066D4F86C631C48C4F8D4
:1012C0006C63BFF35F8F50E8041F314340E80412A2
:1012D000002AF8D10020BFF35F8F8DF80C000720A3
:1012E0000DF10408029001200190404617F0F4FC33
:1012F000012817D101F01F040D4626FA04F0C0079B
:1013000004D028461CF0DEFE21F026FF84F01000F9
:1013100026FA00F0C007E8D028461CF0F9FE21F0BC
:101320001BFFE2E704B026F0ABBB00BF0071024038
:1013300030940020D0B502AF0446083017F0C1FC4D
:10134000012808D1D4E900021144B1FBF0F202FBFC
:1013500010110120D0BD0020D0BDD4D4F0B503AF12
:101360004DF8048D064690F83000884650B10328A9
:1013700073D1354615F82C0FB0B1032875D1746AB6
:1013800020681BE0D6E90010B2687261C6E903105C
:10139000887910F07F00B06162D00020354605F8F2
:1013A0002C0F45F8101C00E0F1698879344610F0E4
:1013B0007F0044F8200F4ED0C6E909411CF082FEA0
:1013C000D8E9001221F0E6FE2B480269BFF35F8FD7
:1013D000B16A24680968082CD1F8103536D24FF06C
:1013E000010C0CFA04F10024114208BF02240B4244
:1013F00008BF01244CB1022C1DBF0120287001241C
:10140000032404BF2C7003201BE0316ABFF35F8FFD
:1014100001F01F010CFA01F1C94350E8042F0A4002
:1014200040E80423002BF8D106F10C03BFF35F8FD3
:101430000124B1690DCB86F82C40006821F0AEFD87
:10144000022086F830405DF8048BF0BD0B481C216B
:101450000B4A20F0F9FF0B4803E0064821F05DF944
:10146000094821F029FA21F035FA014821F055F90F
:10147000701F0400401F0400309400204146040007
:10148000C43604001400000016000000B0B502AF1E
:1014900026F06BFAC0B2102805D1D5E901018842C7
:1014A00001D026F00EBB0220B0BDB0B502AF26F0D1
:1014B0005CFAC0B2102805D1D5E90101884201D0FB
:1014C00026F0FFBA0220B0BDB0B502AF26F04DFA4B
:1014D000C0B2102808D1284621461EF0C3F9C0B278
:1014E000102818BF0220B0BD0220B0BDB0B502AFB9
:1014F00026F03BFAC0B2102805D120462946BDE8A7
:10150000B0401FF087B90220B0BDB0B502AF26F0E1
:101510002CFAC0B2102805D120462946BDE8B040BB
:101520001FF0A4B80220B0BDB0B502AF0546044616
:1015300055F80C0F30B128461EF07EFA00B1B0BD50
:101540000020286021680020012904D1D4E901216C
:1015500060601046B0BDB0BDF0B503AF2DE9F00737
:10156000804691F8300091460D4650B1032879D15C
:10157000AA461AF82C0FB0B103287BD16C6A2068F8
:101580001BE0D5E90010AA686A61C5E903108879F3
:1015900010F07F00A86168D00020AA460AF82C0F3E
:1015A0004AF8101C00E0E96988792C4610F07F00A9
:1015B00044F8200F54D0C5E909411CF0A9FDD9E930
:1015C000001221F0E7FD2F4ED6F81090BFF35F8F89
:1015D000A86A216800681CF087FD48B3206800F005
:1015E0001F0080F0100029FA00F0C00731D0286AEF
:1015F0000121BFF35F8F00F01F0080F0100001FA9F
:1016000000F0C04356E8041F014046E80412002AD7
:10161000F8D105F10C04BFF35F8F0120AA6985F8AA
:101620002C0019CC0168009402A821F069FC06E0A6
:1016300001208AF8000040F20110ADF80800DDE951
:101640000201C8E90001012085F83000BDE80F075C
:10165000F0BD032002218AF8000088F80010F3E7AB
:10166000094803E0064821F058F8084821F024F919
:1016700021F030F9014821F050F800BF701F04003C
:10168000501F0400309400201400000015000000DA
:10169000DCB504AF044668461EF016F826F0C5FA1D
:1016A00004D19DF801006070012002E001986060A3
:1016B00000202070DCBDF0B503AF4DF804BD04463A
:1016C00000254FF0FF36022E15D020461CF04AFEB2
:1016D000C00713D1013601F07F00C6EBC60202F04D
:1016E0000F029040054348B20028ECD4022E09D1E5
:1016F000C8B2032806D940F2015006E0C8B2000281
:10170000013000E02804C10703D000F47F4001301D
:1017100002E04FF6FF71884326F081B9F0B503AFC0
:101720002DE9C00704460620CDE90010684600F008
:101730006FF8C0F30725C1B2022901D101203DE0B5
:10174000C0074FD0684600F063F8C0F30726C1B267
:10175000022902D10120354630E0C00742D0684658
:1017600000F056F8C0F30728C1B2022902D10120C7
:10177000454623E0C00735D0684600F049F8C0F37D
:101780000729C1B2022902D101204D4616E0C00747
:1017900028D0684600F03CF8C0F3072AC1B20229FD
:1017A00002D10120554609E0C0071BD0684600F071
:1017B0002FF826F0D7FA07D101201546012125542C
:1017C0002170BDE80C07F0BDC0070BD0657000218B
:1017D0000620154684F805A084F8049084F8038058
:1017E000A670ECE701200E25E8E7416871B180B5ED
:1017F0006F4626F070FD1DF0A5F8C1B21529BDE8B1
:10180000804004BF00F47F401630704715207047B9
:10181000416869B180B56F4626F05DFD1CF0A2FD00
:10182000C0074FF0010018BF0220BDE8804000E073
:10183000002040EA01207047416879B180B56F46C9
:1018400026F049FDFFF737FFC107BDE8804008D00B
:101850004FF4702101EA0020022106E0002000215F
:1018600003E04FF6FF718843012108437047416848
:1018700071B180B56F4626F02EFD23F013FAC00734
:10188000BDE8804012BF012001F001010020704737
:10189000002002217047416899B1F0B503AF4DF8BF
:1018A000048D82B026F017FD0321CDE900016846C2
:1018B000FFF7AEFF0546C0B2022804D1A8B2040A61
:1018C00011E000207047E8071CBF019E002E09D0E0
:1018D000DDF8008040461CF045FD0C46C00702D1F3
:1018E000012E05D10E24E0B20002023026F030B9FC
:1018F00040461CF037FDC00701D00C46F3E7E0B2CC
:10190000090641EA004005F47F4108440130EDE753
:10191000DCB504AF0446486870B101384860096816
:10192000A7F10F001DF02CF917F80F1C17F80E0C7B
:101930001B2904D11C2109E01B202070DCBD17F8F5
:10194000092CA27157F80D2CC4F802206070217088
:10195000DCBDDFB506AF0446486880B10138486099
:10196000096868461DF0DBFE26F05FF90BD19DF893
:101970000100002102222072C4E90021DFBD002005
:10198000C4E90000DFBDDDE9020100220123C4E952
:101990000201C4E90032DFBDF0B503AF4DF804BD6C
:1019A00082B00C46014600208AB28DF80600ADF8E0
:1019B000040001A9032809D0D3090A5409D0D2B2DE
:1019C00042F080020A5401301A46F3E7032501AAC7
:1019D00006E0094B01A9032200F0DDF802460D469E
:1019E00026F0BBF901D9022004E025F02AFF701986
:1019F0006060102025F013BFC43A0400F0B503AFB7
:101A00002DE9F80FE8460D460646404613219B4651
:101A100091463EF02AFAD7F808A0002013281BD0E0
:101A2000F1094FEAD91241EA4561ED0942EA4B62F8
:101A300045EA496541EA020345EADB14234308F815
:101A400000600CD046F0800308F800304FEADB1B42
:101A500001300E469146E1E713246A4606E00D4B3D
:101A60006946132200F097F802460C46DAE9015065
:101A7000401B844201D9022008E011462846224634
:101A80003EF0E7F92819CAF80400102005B026F046
:101A900005BA00BFF43A0400F0B503AF4DF804BD39
:101AA000D1E901320024062C08D01D19954207D037
:101AB000065D013405F8016B4D60F4E7102000E08D
:101AC000022025F0ACBF824221BF0B18111A184624
:101AD000704780B56F4626F070FA824221BF0B181E
:101AE000111A1846704780B56F4626F066FAD4D4AE
:101AF000F0B503AF4DF804BD84B004460020ADF846
:101B00000C00CDE9010001A90A280DD0D5090A541D
:101B100045EA436555EAD31609D042F080020A54DB
:101B2000DB0901302A46EFE70A2501AA06E00A4B45
:101B300001A90A2200F02FF802460D4626F00DF901
:101B400001D9022004E025F07CFE701960601020AD
:101B500004B025F064BF00BFE43A0400D0E90123DB
:101B60009A4204BF02207047B0B502AF0C78154608
:101B700005F8014B9D4245600BD04C785470941C85
:101B80009C42446005D089789170D11C416010203E
:101B9000B0BD0220B0BDD0B502AF044690423FBFF9
:101BA000621C08461146D0BD0020214620F003FCEF
:101BB000F0B503AF2DE9000FAFB08246D0F8300189
:101BC0008B46029000280A9140F0E4869AF838018A
:101BD0000AF59E72CDE9062ADFE810F067017B0D59
:101BE0007B0D06002D0017000AF5A27005909AF8EB
:101BF0004401DFE810F00600AB006E0D4200AD01BD
:101C000031000AF59E70006856E19AF850010AF515
:101C1000A874002800F0D580032840F08F809AF83F
:101C20004C010AF5A67558B3032800F0F380DFF8DD
:101C30001C0E20F072FD9AF848010AF5A474DFE842
:101C400010F005008100480D0800A500DAF84001F9
:101C500049E1DAE9530189E09AF866010AF5B378B7
:101C6000DFE810F005007800370D24001100D146A0
:101C7000DAF848A1D9E95301C9E1DAE9520150E1A2
:101C8000DAF84401B1E09AF898010AF5CC79DFE876
:101C900010F008006900200DDF052D0039003A041E
:101CA000DF054C46D146DAF880A1EEE10AF5BD70B9
:101CB00008909AF87A01DFE810F0050051000C0D49
:101CC0000B001407D146DAF868A1CDF8248049E268
:101CD0009AF88D01CDF824800AF28D18F0B103280E
:101CE00001F01D80DFF8680D20F017FD9AF8D4018F
:101CF0000AF5EA74D0B1032800F01183DFF8540D1F
:101D000020F00BFD9AF8A9110AF5CE7099B10329BC
:101D100000F0AD83DFF8400D20F0FFFC9AF88F0152
:101D2000DAE95F69DAF8884100F0E2BFDAE9705673
:101D3000DAF8D001E2E2DAF8A41195E3DFF81C0D3D
:101D400020F0EBFCDFF8180D20F0E7FCDFF8140DB5
:101D500020F0E3FCDFF8100D20F0DFFCDFF80C0DC5
:101D600020F0DBFCDFF8080D20F0D7FC26F08AF825
:101D7000C0B2052801D1032011E000218AF85401E6
:101D8000DAF844018AF85511CAF85001DBF800105E
:101D90000AF5A67001F0B2FE002878D00420207069
:101DA0000698DBF8001000681DF006FA002871D1D3
:101DB00000200AF5A8748AF85001DAF83401CAF84C
:101DC0003C01DAF83C01CAF8400190F8C41001293E
:101DD00004BF90F8C510012965D100212C308AF884
:101DE0004C110AF5A675CAF844010168D1F82C25F2
:101DF000D20736D0CD4B1A6812B949F275321A6043
:101E0000C0225A6149F275321A600022C1F82C25AD
:101E1000CAF8480125F01FFDDFF8580C203021F0EA
:101E2000B9F9DAF848010068D0F80014D0F80021B8
:101E300001F400731A4309D149052ED54FF480618E
:101E4000C0F800140121C0F808158165B749086879
:101E500010B949F2753008600020486149F27530C8
:101E60000860012000218AF84C01DAF8400180F86E
:101E7000C410DAF8400100F16805406EC60096B162
:101E8000F5E80201CA6900219047083EF7E7DAF851
:101E900044012AE0042000F07BBD0320207028705C
:101EA000052000F075BD0120207000208AF8440153
:101EB000DAF83401CAF83C010AF5A2710591CAF8B2
:101EC000400190F8C410E9B10120DFF8A81B8AF89E
:101ED000440100208AF848014431DAF834010AF557
:101EE000A474CAE94F10CAF8440190F8C41000293C
:101EF000D9D000F1310200F130012C300AF5A6737F
:101F000007C333E7002100F1D4028AF8601100F121
:101F1000310300F130012C300AF5A474CAF85421C1
:101F20000BC425F0AFFFC0B2052808D19AF86001B4
:101F3000D8B1032829D0DFF8400B20F0EEFB0021B8
:101F40008AF85001DAF840018AF85111CAF84C01B8
:101F5000DBF800100AF5A47001F0D0FD002800F0B5
:101F600007870420059900F011BDDAF8540100221A
:101F70000168CAF85811C1F800224FF40002DAF8DB
:101F80005811C1F80423CAF85C0125F064FCDFF89D
:101F9000E40A283021F0FEF8DAF85C010068D0F895
:101FA0005C01002800F0C283DAF858010021D14614
:101FB00009F5B378C0F85C11DAF85821D2F880043A
:101FC000D2F88434D2F88844C0B2D2F88C54DBB250
:101FD0002D0664F3174545EA03231844D2F89034DC
:101FE000D2F89444D2F89854D2F89C248AF8661116
:101FF000D9B2E3B21206DAF840A141EA0321EBB20A
:10200000C9E952A042EA03421144C9F85011C0F391
:10201000411289F86421020AC9E9550189F862214F
:10202000020CA9F85E11090CA9F85C21C2B2D20910
:10203000A9F8601100F01F01CDF8248089F865210E
:10204000042928BF042189F8631109F5AE7140B253
:10205000B0F1FF3F6CDD0DF190080A2208F10A0093
:102060003DF0F7FE1BA898E87C0001467CC109F50D
:10207000C271C9F880A190E87C0000207CC109F5FC
:10208000CC74DDF8248089F8980109F5C27009F54F
:10209000C7710A22C9F870A13DF0DBFEB9F88801CA
:1020A000C9F87401BAF8D810C9F878110021C9F834
:1020B0007C11DAF8D020824206D20AF1D400C9E9B4
:1020C0006701CA46A146C3E3DAF8CC10DFF8AC39A1
:1020D00023F020F8D9F87821002A00F08F85012319
:1020E000CA4689F8B43109F5D47307C30020A14664
:1020F00000210128CAF89C1102D1DAE9685605E0EE
:102100000AF5D4701DF040FD05460E46002D6ED038
:102110009AF8B44100208AF8B401DAF89C01012849
:1021200040F0D080DAF8A001D5E000BF00EC064016
:1021300024A818C9021D18C2098811801BA938C813
:102140000A4638C20088108009F5B670C9F868A13F
:102150001CC91CC000220988018009F5BD7089F8DE
:102160007A210890B9F87401C9F86CA11090B9F8F7
:1021700072010F90DAE933C2B9F870E19AF8C90038
:1021800099F8788199F8763199F877B1B8F1020F1A
:102190000390BAF8D800049099F879010E90CDF820
:1021A00034C0CDE90BE225D0B8F1000F32D1BBF13C
:1021B000000F00F0D181BBF1010F00F0A981BBF14C
:1021C000020F27D1002B40F082840F9BDAF82C10ED
:1021D00003F00F005BB2B3F1FF3F40F34E830828DA
:1021E00080F01A8501EB800000F244404CE3DAF8FD
:1021F0007C61CEE0BBF1000F0CD1DAF84890B9F168
:10220000000F07D09AF84C00834204BF0F980728AC
:1022100000F03882DAF864000AF168040DF14C0924
:102220004FEAC00ABAF1000F00F05184D4E900105F
:102230001D46C66A0E988DF855001098ADF85000EE
:102240000F988DF85230634600924A468DF85480BC
:102250008DF853B0ADF84E00ADF84CE024A8B0476F
:10226000249840B9AAF1080A0834DDF834C02B4696
:10227000DDE90BE2D6E7DDE925C9BCF1000F00F08E
:1022800026841099049C08468C4238BF2046039A45
:10229000002A18BF0846122C28BF0846484528BF08
:1022A000484640F21381DDF828B0002C00F0C284CB
:1022B000B0FBF4F1DDF81CA001FB1401B1FA81F1CF
:1022C0004A090BE10AF5D4701DF05EFC0122CAF840
:1022D000A411CAE96720B0FA80F0002140098AF809
:1022E000D5418AF8D6010AF5EA74DAF870018AF85D
:1022F000D411D430CAE97056CAF8D001CAE96E5672
:102300000021CAF8C8010068C0F828110121C16481
:10231000DE49C0F80413DAF8C801CAF8CC0125F088
:102320009AFADFF85007283020F034FFDAF8CC01B1
:102330000068D0F8281151B1DAF8C8110022DAE9A2
:102340006E300968009024A820F0DAFD0BE0D0F888
:10235000001121B9D0F85C01002800F00E8340F292
:102360000110ADF89000DDE9241001222270C9B2FD
:1023700019B1022940F0708201E3DAE95E12161801
:10238000CAF87C61814204D8DAF87401864240F0D0
:10239000B080DAF87031D3F8D020964200F2288469
:1023A000D3F8CC009AF88C110F90CAE95A0600298C
:1023B000BAF88801BAF884219AF88AB19AF88BE1C0
:1023C0000E90BAF8860110909AF88D01CDF824800D
:1023D000CDE90C01CDF82C9054D0586E03F168056E
:1023E0004FEAC009B9F1000F00F02682F5E80201BA
:1023F00090468DF897E033468C6AF2460C998DF83A
:1024000099100D998DF898100E99ADF894101099B7
:102410008DF896B0ADF89210ADF8902024A90F9ADF
:10242000A047A9F10809C1B2D64642460229D9D02F
:10243000C00740F00182DDF81CA0DAF8700100F15D
:10244000D40190F8C720002A56D090F8C900002285
:102450008AF8A8010AF5CE708AF8A921CAF8A41151
:10246000DDE9098BDDF82C900022C0E900121CF098
:1024700017F8012000218AF8A901DAF8700180F824
:10248000C710E9E1BEF1000F00F0DC801098BEF14A
:10249000010FC4B273D0BEF1020F9ED1BBF1010F88
:1024A00000F0F680BBF1030F08BF002A40F0C481A2
:1024B0001099D86A090707BF0121416504F0870117
:1024C00001F5807118BFC0F81815B4E7DDF81CA03D
:1024D0000022DDF828B0002C00F0978301230021B2
:1024E0008AF8B431CAE96432CAE9661CCAE96804E8
:1024F000C5E3DAF89C01FBE5DDE9098B0020DDF896
:102500002C90CAE967100AF5CE701BF0C9FFA3E151
:10251000DAF850000F99884240F2D9820A2B00F075
:102520009F81002B7FF476AEDFF8543502206146A0
:1025300025F072FC00220223ADF89020DFF844253C
:10254000009224AA21F03CFEDDE90C2C012A3FF682
:1025500098AEDFF83435B2E1002B00F0B980062BDD
:1025600000F0A280082B40F0B282002A00F06E83B7
:102570009AF8C8000438B0FA80F0400978E1186D84
:10258000A04240F25981BBF10B0F40F0558103EBA3
:10259000440000F1540AD0B29AF80110814240F28E
:1025A0004B810DF1900BD3E90D0190469946002621
:1025B00000258AF80020CDE9110111A9584620F024
:1025C000C5FE2498012840F0A1802699B9B325F0D2
:1025D00008FA25D0042816D00528EED113A820F03B
:1025E000E9FEC0072BD1E8B2A042E6D19AF800205C
:1025F000F0B2101AB0FA80F04209D9F82C001BF0A2
:10260000D7FD109DD9E713A820F0D4FEC00716D13E
:1026100013A80D4620F0CEFEC00710D10E46CCE721
:1026200013A820F0CBFF80B248B913A820F0C2FE57
:10263000C00704D113A820F0BDFEC007BDD0DFF84D
:102640004C0484E1ABF10100082800F2F580DFE8DA
:1026500010F00900F3008D00F3007200F300F300A6
:10266000F3009C00012A40F0E780002025F083FD64
:10267000002D3FF4E0AEF4E802010A6A0021904721
:10268000083DF5E7DAF844C0FBE500BF010480002F
:10269000002A40F0D180109800071EBFD86A04F0CD
:1026A0008701C0F81815C6E64FF0FF3000EB1E207A
:1026B000052800F20881DFE810F00600B301880168
:1026C0000A020A02AD010AF1A80C4FF01209D8E57E
:1026D000DFF8BC33022061469AF8C5409AF8C6601C
:1026E00025F09AFB62000223D2B23243ADF890206B
:1026F000DFF8A023009224AA21F062FDDDE90C2C72
:10270000012A3FF6BEADDFF89033D8E0D9F8640077
:1027100009F16804C500002D3FF48DAEF4E8020114
:1027200042464B6A10999847083DF4E70320059903
:102730008AF860012AE1501E80B27F287CD240F2E4
:10274000013003F16804A3F8C700586E83F8C9206C
:10275000C500002D3FF46FAEF4E802021E4693F868
:10276000C910526990473346083DF2E7012A63D108
:10277000012025F000FD002D3FF45DAEF4E80201DC
:102780000A6A01219047083DF5E7002A00F0A3807E
:10279000012A51D10420D3F8509083F8C80003F1E6
:1027A000540AD3E90D010DF1440BCDE9110113AE2B
:1027B0001C464FF00008002524A8594620F0C6FD0D
:1027C0002498012840F0CB80269999B325F009F987
:1027D00023D0042815D00528EED125F0F3FCC0073E
:1027E00028D1E8B2814540F22C821AF810005FFA35
:1027F00088F2801AB0FA80F04209E06A1BF0D8FC37
:10280000DAE725F0DFFCC00714D130460D4620F092
:10281000D1FDC0070ED18846CEE7304620F0CEFE6F
:1028200080B238B925F0CEFCC00703D125F0CAFC30
:10283000C007C1D099488AE0DDF81CA00020DDE97E
:10284000098BDDF82C90DAF87011D431CAE96710E1
:102850000AF5CE701BF036FE012089F8000085E2F3
:10286000002A00F0F6810F990AF1540010F81100C7
:102870008CF800004FF0010903E5082880F0D381AF
:1028800001EB800000F58460854B614604680220FE
:1028900025F0C2FA4FF0FF32022312FA84F2B2FAA4
:1028A00082F25209ADF890207E4A009224AA21F0CB
:1028B00087FCDDE90C2C012A3FF6E3AC7A4B0020C3
:1028C00002211FF078FD4FEA1E200F2840F0FF8004
:1028D000DAE90FC9D5E493F8C80002283FF4ABAD9C
:1028E00003200DF1900883F8C8001C46D3E90D01C0
:1028F000CDE9110111AE13AD4046314620F026FD61
:102900002498012840F090802699F9B125F069F8C3
:102910000DD0042810D00528EED1284620F04AFD1D
:10292000C00713D1E06A00221BF042FCE4E728460E
:1029300020F044FE80B248B9284620F03BFDC00795
:1029400004D1284620F036FDC007D5D05748009066
:10295000A7F11D0256482B21564B1FF0B6FE20460C
:102960006834406EC500002D3FF465ADF4E8020107
:102970008A6901219047083DF5E703202070042073
:10298000059989F8000088F80000052008700320E8
:102990008AF83801DAE90001084318BF01200C90D9
:1029A00040F0B7829AF82800DFE810F0070093069D
:1029B00093060C004B027F028F02DAF80800CAF877
:1029C0000C00E6E1DAF82C40E7E15FFA8EF103292A
:1029D00000F28C8004205446DFE801F00275347266
:1029E000002A00F03D81012A8CF8000000F03B81B4
:1029F0000320022A8CF8010040F239810920032AC1
:102A00008CF8020000F037814FF004098CF8039035
:102A1000FFF737BC0AF1BA0C4FF00A09FFF731BCD7
:102A2000DAE90DC9FFF72DBC20466834406EC500B9
:102A3000002D3FF400ADF4E802018A6900219047BF
:102A4000083DF5E70AF108040C203CE0D835040005
:102A50002439040034390400E4380400F020040070
:102A6000E020040040210400002104003021040083
:102A70007021040030940020F43804005021040038
:102A8000D01F0400E01F0400F01F040060200400B9
:102A9000901F0400A01F0400B01F04004020040089
:102AA00010200400202004003020040050200400E6
:102AB0008054040044350400C0200400D0200400E9
:102AC0000AF1100414205AF80010206810BBDDF839
:102AD0001CA00020DDE9098BDAF86C11D431CAE9B9
:102AE0005F100AF5BE701BF0EDFC3CE1DAF8640003
:102AF0000AF16804C500002DE9D0F4E802010F9A3C
:102B00000E6B7146B047DDE90BE2083DDDF834C0DD
:102B10000028F0D0012A40F2A08000EB010A0DF15C
:102B2000900803224FF0020900248CF801201CB108
:102B3000002583460C9B32E0504555D083460C9BC4
:102B40001BF9011BCCB2B1F1FF3F27DC427804F046
:102B50001F01E02C02F03F0212D38678F02C06F021
:102B60003F0646EA821210D3C47801F0070100F153
:102B7000040B04F03F0444EA821242EA814508E073
:102B800042EA811400F1020B08E042EA013500F14B
:102B9000030B0020B0EB154F1CD12C46002509F18A
:102BA00002069E424AD25FF8F00031460090484645
:102BB000624622F0B9FA5FF8FC20022300924246F6
:102BC000ADF8904021F0FCFADDF834C058462C46B0
:102BD000B146ACE705F57F00372161F39F254FF43F
:102BE000584141EA9024DAE78CF80090FFF749BB9E
:102BF000DFF8303E002031461FF0DDFBDFF8280E05
:102C00003721DFF8282E1FF027F8DFF81C0E3721B8
:102C1000DFF8482E1FF020F8DFF8140E1C21DFF833
:102C2000142E1FF011FCDFF8080E1C21DFF8082E0F
:102C30001FF00AFCDFF8280E1FF065FDDFF8180E04
:102C4000A3E0DFF8DC2D49461FF004FCDFF8F02D8F
:102C500001E0DFF8E82D24F071FDDFF8F80D94E0D5
:102C6000DFF8EC2DF7E7DFF8E42D24F00DFEDFF8B8
:102C7000D42D24F091FFDFF8D02D24F084FF0AF545
:102C8000C87800200129CAF8A80102D1DAE96B69E5
:102C900004E04046FEF748FC06468946002E60D018
:102CA0009AF8B44100208AF8B401DAF8A8010128A2
:102CB00002D1DAF8AC0107E04046FEF735FC01220C
:102CC000CAF8B011CAE96A200021B0FA80F08AF887
:102CD0008D114009DAF86C110AF28D188AF88E41CC
:102CE00001F1D404CAE95F698AF88F01CAF8884102
:102CF0008AF88C0100202568002132464B46C5F831
:102D000028019AF88C018000C0B2C5F80002206842
:102D100020F044F9E348C5F80403CAF88441DBF81D
:102D20000040D4E9001089688847DFF8F00CD4E946
:102D30000012283020F02EFADAF884010068D0F86A
:102D4000281129B10120DAF8A8118AF88D0196E737
:102D5000D0F8001111B9D0F85C0168B1012088F8F1
:102D60000000DDF8248008990120087088F8000030
:102D7000DAF84001FFF7A5B80899032088F80000A9
:102D8000DDF8248008700599FDE51FF095FD1FF022
:102D9000A1FDDFF8D44CCAF82C40C3480068C00538
:102DA00040F0AB852068002840F0AA8525F055FA50
:102DB000207B012804D104F1D80020F0A1F9217B67
:102DC000D4E90102904201D1C9070FD0002121733B
:102DD000411C00EB4000B1F1100218BF0A466260CE
:102DE00004EB800010F80E5F042D07D124F033FDB2
:102DF00004F1D00020F091F9042504E0411C1BA847
:102E00000B223DF026F824F031FE042D7ED05446EE
:102E10000B2204F8105F1BA9601C3DF01AF821F08A
:102E200055FCC0B2032805D1DFF8F00B443021F087
:102E30003FFAAEE700208AF83400DAF80C00CAE95D
:102E40000B04DBF800200AF12C0124A81BF04CFB3A
:102E50002498072854D006289BD05446DDE9251233
:102E600044F81C0FDFF80C0CC4E901121FF018FD28
:102E7000204616F0C5FA1FF0E1FD2068032804BFC4
:102E80009AF8200001287FF484AFDFF8900B4430DB
:102E900021F00EFA24A824F0FBFDDDE924129DF8B0
:102EA0009800CAE90C128AF83800DBF800100AF121
:102EB000300020F0CDF938BB0020DAF80C108AF889
:102EC00034000AF11000CAE90B10DBF800200AF107
:102ED0002C0124A81BF008FB2498072812D00628F0
:102EE0003FF457AFDDE9251224AB07C3DFF8880BA9
:102EF0001FF0D6FC24A816F083FA1FF09FFD48E7C8
:102F0000042004E0062002E0052000E003208AF807
:102F10002800DAE92A01084318BF01200B9040F08D
:102F200018819AF8B90098B1032826D19AF8290196
:102F30000AF22914A8B103281BD19AF820010AF536
:102F4000907588B1032869D0DFF8300B1FF0E5FBDE
:102F5000DAF8B4009AF8BA10CAF8B0008AF8B810D3
:102F600014E0DAF8240118E0DAE92F02DAF8C410E4
:102F700022E0DFF80C0B1FF0D0FBDBF800100AF1A9
:102F8000C80020F065F940BBDAF8B0000021CAF8AB
:102F900024018AF829110AF2291400210AF59472F1
:102FA0008AF828110AF5907500688AF82011012125
:102FB000CAE92F02CAF8C4100029CAE93202CAF8C5
:102FC000D01000F066830189CAF8D4100068006848
:102FD000BFF35F8FCAE9360001E00420B7E0DAE909
:102FE0003323DFF8A01A0091012122F09DF8DAF8CE
:102FF000D420002A00F047830AF1E00307C30AF156
:10300000E0001CF0C1FD78B30022CAF8F4108AF881
:103010001C21DAF8C8200432CAE93B20DBF8002082
:103020000AF1EC0124A8FEF797FA9DF89000022817
:1030300000F08A80C00704D0DAF8C81024F0EBFD55
:1030400018E02599DAF8DC00DAF8D4200844CAF848
:10305000DC00914201D301286FD1DAF8C8000021C9
:103060000068BFF35F8F0160DAE936010029B6D04E
:10307000E0B102220123CAE92F208AF829314FF456
:1030800000428AF820310023CAF8C41024A820F096
:10309000C1F8DDE924129DF89800CAE932128AF8D5
:1030A000D0006AE70104800004ED00E001209AF8F6
:1030B00028418AF820018AF8290121F045FA9AF876
:1030C000B810C0B288427FF45FAFB9480068C0054D
:1030D00040F01384DFF8B009DFF8B01915F09CFD5B
:1030E0000646007C0D46012804D106F1080124A8FB
:1030F0001CF0F8F9F06FE8B1317C002940F0B9809C
:10310000D6E9021206EBC2039861501C821E1C75A0
:1031100018BF0246F260914204BF01203074D6E924
:103120000001013041F10001C6E9000106F124006F
:1031300021F0B4F824F046FD26E7DAF8C810096853
:10314000BFF35F8F08605AE70320207028708AF869
:10315000B900DAF8D8210299002A40F049849AF897
:10316000F4010D9290B1032817D19AF810020AF5D4
:10317000FC7888B3032840F080809AF80C0298B35A
:10318000032840F08280DAF80442BBE20AF5EE72CE
:103190000AF5F47307CA07C39EE29AF898030AF582
:1031A00066720E92D8B103286BD19AF89403F0B1ED
:1031B000032840F06E809AF848020AF538730AF541
:1031C00012790F93DFE810F00500690085022700EF
:1031D0001800DAE98658F3E2D8F8000083E2DAE969
:1031E0008058DAF80842B8E2DAF8FC0181E2DAE95C
:1031F0008358DAF81442B7E20AF5257010909AF86D
:103200009402DFE810F0F20052006602050024008C
:10321000DAF8C00207E19AF8DC020AF5377B88B1D8
:1032200003283ED19AF8D8020AF53676C8B10328A9
:103230003FD19AF8D4020AF53575A8B103287FF476
:1032400083AE9CE0DAE99386DAF8545235E024F054
:103250006EFF00F02282DAF89862C8460AF52779F4
:103260001FE1DAF86C5239E0DAE99C40DAF87812BA
:1032700053E0DFF81C081FF0DDF8DFF840081FF00E
:103280004CFADFF830081FF048FADFF82C081FF07E
:1032900044FADFF81C081FF040FADFF810081FF0AE
:1032A0003CFADFF804081FF038FADFF8F4071FF0E3
:1032B00034FADFF8F0071FF030FACAE99686CAF848
:1032C0006052002D76D00020CAF86C528AF8D802DD
:1032D000DAF85802CAE999060AF53676202D0AD29C
:1032E000DFF8E4071FF0DCFA28461FF0CBFA1FF0E6
:1032F000A5FB012435E1DAE999012A46DFF8C03758
:103300000468202021F006FF0022CAE99C408AF8C8
:10331000D4220AF53575CAF878121F29CAE99F40E8
:10332000CAF8841240F2B5812089CAF88802206860
:103330000168BFF35F8FCAE9A311DAE9A023DFF8C0
:10334000440700900846202121F0EEFEDAF888229A
:10335000002A00F098810AF5257307C30AF5257045
:103360001CF012FC002800F0E5800022CAF8A81228
:103370008AF8D022DAF87C220432CAE9A8200A9816
:103380000AF52871026824A8FEF7E6F89DF8900077
:10339000022804D10320022430702870E3E0C00723
:1033A00000F0B480DAF87C1224F035FCCBE000BFEA
:1033B00004ED00E00120DAF820528AF8DC0213ACB8
:1033C0000AF50A71202224F0D8FA0AF51470214671
:1033D0002022CAF84C523CF03CFDDDF828B0002019
:1033E0008AF894020AF5257010900AF51D740AF502
:1033F0001471DAF84C5220222046CAF870523CF080
:1034000028FD95F8EC00C0B3012021468AF89C0203
:103410000AF29D202022CAF898523CF01AFD05F1CC
:10342000E000CAF8C002DBF800101BF0C5FE00B3D4
:1034300024F07DFE00F03181A648DAF89842006859
:10344000C00540F05A822068002840F0598224F0DC
:10345000A7FB002800F0E68024F0FDF904F1380015
:103460001FF05BFE01208AF89C0224F0FFFA032083
:1034700046E0C846DAF8705200E0C846FF200AF578
:103480001D718AF874020AF29D20202205F140067F
:10349000CAF898623CF0DDFC00200AF527798AF82A
:1034A0009C0224A80AF29D25041D2022294624F00E
:1034B00064FA8848CDF8B4B024960068C00540F09E
:1034C0001C823068002840F01B820DF16C0B0A9BB7
:1034D0004FF0FF30311D30605846224601F0C4F8ED
:1034E00024F0DEFB9DF86C0070B101200BF10101AE
:1034F00089F80000284624F0BDFA0420DDF828B041
:1035000010990870042041E0C146A3E02599DAF83B
:103510009002DAF888220844CAF89002914202D355
:10352000202840F0A980DAF87C0200210068BFF36F
:103530005F8F0160DAE9A31000283FF4FEAE02229B
:10354000002900F0928001242C702690DFF8740589
:10355000CDE924211FF0A4F924A821F023F91FF0BC
:103560006DFA01213170022C0BD0ECB9DAE9971217
:10357000DFF85835FEF7B1FA06460D46CAE99765F9
:103580009FE603208BF80000DDF828B08AF8480297
:103590009AF81003DFE800F003859D431000DAE994
:1035A000B801CAE9BA0124E101208BF80000DDF876
:1035B00028B089F80000F3E19AF890030AF56474E2
:1035C00000284DD0032870D19AF88C030AF5637651
:1035D00000284ED003286CD19AF849030AF24935E5
:1035E000DFE810F005006B007700A501C101DAE902
:1035F000CE02212ADAF84413CAF8401361D289882E
:10360000202A00F0528100295FD0B2FBF1F303FBC6
:103610001123B3FA83F35B098AF848334AE1DAF8F5
:103620001443EAE0A5680AF29D21202204EB45102C
:103630000D303CF00EFC002D18BF01356068A56010
:10364000A84204BF0120207304F130001FF058FD90
:1036500024F00CFA0120DAF824828AF89402B1E00E
:10366000DAE9C506DAF81C53FFE0012100242970CD
:1036700077E7DAF8345308E1DAF87C120968BFF327
:103680005F8F08606AE6E8483721DFF808241EF0FB
:10369000E3FADFF80404FFF778BBDFF80004FFF774
:1036A00074BBDFF840041FF038F8DFF834041FF073
:1036B00034F8DFF828041FF030F8DFF814041FF0A6
:1036C0002CF8DFF81004FFF760BBDFF80C041FF0E4
:1036D0001AF8FEDE04ED00E00021CAF8F8018AF8CD
:1036E00010120AF5FC78002104308AF80C12CAF88E
:1036F000FC01817911F07F0478D00121CAE98004AE
:103700008AF8081220461AF003FDDBF80010D1E910
:1037100000121FF03FFDDAF80002214600681AF09F
:10372000E3FC9AF808120122484018BF03228AF8E5
:1037300010228AF80C2256D10AF5F47500208AF876
:1037400098030AF5FC7223CD0AF5FE74CAF8084204
:1037500082E823010AF566700E900020CAE98358BA
:103760008AF89403CAF81442BE480068C00540F0C5
:10377000C480286C002840F0C3804FF0FF302864DC
:1037800095F84C00012804BF05F1D8001FF0B8FCE3
:10379000286C002685F84C60013028642846C5E96D
:1037A000116620F01FFE0AF538708AF81063CAE926
:1037B000B8540AF512798AF84862CAE986580F9017
:1037C000CAE988580AF50A762021202530463CF0BF
:1037D000CDFA0020CAE993868AF8DC020AF5377B25
:1037E000CAF8545269E503200D9AFEE0C248FFF77B
:1037F000CCBA00F14004CAF814439A480068C005E6
:103800007BD1206800287BD124F027FD207B012874
:1038100004D104F198001FF073FC217BD4E901026C
:10382000904201D1C90757D02168421C4FF00008CF
:1038300004EB401001310AF53C76131F84F80C802C
:1038400018BF1346C4E9001300F10D0130462022D1
:1038500020253CF0BFF9DAF8EC020AF564748AF826
:103860009083CAE9C506CAF81C53CAE9C806CAF853
:10387000285325B30020CAF834538AF88C03DAF8A9
:103880002003CAE9CB060AF56376202D1DD1DAE9BB
:10389000CB1000220AF2493509688AF84923202210
:1038A000CAE9CE02CAE9D011898800228AF84823E1
:1038B0002022E9B1CAE9D302CAF8541329E0012051
:1038C0008AF89003DAF8E80293E787481EF0E8FFE9
:1038D00028461EF0D7FF5AE023F0BDFF04F1900008
:1038E0001FF01BFC20680D9A01302060032074E05B
:1038F0004D4837217F4A1EF0AFF95C48FFF745BAC3
:103900005B481EF0CDFF21F01FFC1FF097F81EF062
:10391000E1FF0AF553701CF08FF8B0B10022CAF82D
:1039200060138AF88823DAF84023CAE9D620DBF846
:1039300000100AF55670FDF711FDC0B20228E8D05C
:103940000D9A03281BD1032042E09AF8480301286E
:103950002DD100200121DAF840238AF87C03CAE93E
:10396000D321CAF85403DBF800100AF55370FDF7B1
:10397000F5FCC0B202281AD00D9A032827D00120E6
:1039800028705B481EF08CFF012020F0FDFE1FF028
:1039900055F801208AF890038AF88C038AF81003FE
:1039A0008AF898038AF89403DAF8E80194E6DAE9E9
:1039B000C91201204D4B8AF88C038AF84903202054
:1039C000FEF781F806460D46CAE9C96551E70420AD
:1039D0000321287031700420217003218AF810031C
:1039E00004208AF898138AF8941302998AF8F4014B
:1039F000002918BF01219AF89C03002818BF012054
:103A00002AB10C9A104008400B99084002D12FB0FF
:103A100023F07EBF0AF598700BF050FF3094002021
:103A20007020040080210400083504006021040097
:103A300041460400F4360400E4360400002004008B
:103A4000C01F0400A0200400B02004009020040047
:103A50008020040023000000240000002021040036
:103A60001021040004ED00E0D08E0020370000009B
:103A7000500000004100000040000000C42104008C
:103A800084360400D4210400E08B0020E84A0400BE
:103A9000084B0400E42104001F000000390000006E
:103AA00088330400A4360400942F040098330400E3
:103AB0007833040068330400B0390400F4210400B2
:103AC00094360400480000004C000000A42F0400BD
:103AD000242204002100000004220400B436040063
:103AE000B42F0400A83304004B000000C42F0400CE
:103AF000490000001422040013000000F0B503AFD9
:103B00002DE9800F8046407A0D46DFE810F0050071
:103B10001F01280149002B0098F80810D8F804006C
:103B2000C8F80000DFE801F003DD4C5B470002212C
:103B300080F8C8100021D8F8000080F8C410D8F828
:103B4000000080F8C510D8F8000080F8C91023F0F4
:103B5000E2FD002D00F0D280F4E8020109698847F7
:103B6000083DF6E798F81000C00740F0F280D8F85A
:103B70000C0000680021C0F80015012088F8100032
:103B8000D8F8000080F8C81023F0C5FD002D00F023
:103B9000D680F4E80201CA6800219047083DF5E7A5
:103BA000464616F8180FDFE800F003D7DA42730034
:103BB000D8F80C001AE02C300021C8E90301D8E73E
:103BC000002180F8C41023F0A6FD002D00F0B7807E
:103BD000F4E80201CA6900219047083DF5E7002199
:103BE000464606F8181F2C3046F80C0CC8F8100092
:103BF00049F275320168404640F8141F03235B49BF
:103C00000A60C1F814310A600B6803B90A60C02366
:103C10004B610A600122D8F81410C1F800254FF456
:103C20008002D8F81410C1F80423C8F81C005048CA
:103C3000D5E9001220301FF0ADFAD8F81C0000685A
:103C4000D0F80004000501D403202FE0D8F81400B8
:103C50004FF40061C0F800144448016811B949F2FA
:103C600075310160002149F27532416102600260E4
:103C7000C0F81411802102603E480160D8F8140099
:103C80003D49C0F80413D8F810000530C8F81C00EE
:103C90003748D5E9001218301FF07CFA3748016820
:103CA000890707D40068C00709D0042030700120BC
:103CB000032146E0D8F814000121C0F804150120C2
:103CC000022188F81800D8F8000080F8C81023F006
:103CD00022FDA5B3F4E80201CA6801219047083D1E
:103CE000F7E7012180F8C41023F015FD3DB3F4E897
:103CF0000201CA6901219047083DF7E7D8F80000A2
:103D00004FF00009002500F1540B016D0BEB410A47
:103D1000D34514D08BF80090D8F8000000F1680467
:103D2000406EC6003EB1F4E8020100224B6A29460B
:103D30009847083EF6E701350BF1020BE8E7002053
:103D4000012188F80910BDE8080FF0BD06481EF0F3
:103D5000E4FC03481EF0E1FC02481EF0DEFCFEDE3F
:103D6000F8350400E8350400801F040000EC06402C
:103D70003094002004E100E00100400138040040DC
:103D800080B56F46002080BD80B56F46002080BDA5
:103D900080B56F4680BDD4D4B0B502AF0446407C38
:103DA0000D46DFE800F003212C395300D4E9001060
:103DB0000B28E268A2601AD292880A2807D1002351
:103DC00023746AB92E4837212E4A1DF045FF9AB157
:103DD000B0FBF2F303FB1203B3FA83F35B09237422
:103DE000C4E90510E2610BE022481EF096FC22486F
:103DF0001EF062FD1EF06EFD20481EF084FCFEDE0B
:103E000004F114001BF018FEA8B10022A16284F88E
:103E10005020A268C4E9082004F120002946FDF7DB
:103E20009DFAC0B20228EBD0032807BF032103206C
:103E3000012101201BE0207C0121012816D1002056
:103E4000A26884F84400C4E90521E06104F114008B
:103E50002946FDF783FAC0B2032802D103200421CA
:103E600005E0022818BF0120012100E00220617452
:103E7000B0BD00BF24220400210000000422040081
:103E80000835040014220400F0B503AF2DE9000F3B
:103E900097B093F814900DF11C0A06901546D3E9DB
:103EA00002049846DE7C0322039050464B4600965F
:103EB000059100F0F5F80DF12C0B5146584600F035
:103EC0001BF99DF8300059460290032200960DA878
:103ED0004B4600F045F9200A04948DF84D400190BE
:103EE0008DF84E0022200D9C8DF84C004148129018
:103EF00012A9204600F092F904F1F00098F812B0EF
:103F0000B8F810901FF034F8012863D003200DF1A9
:103F10003C0A8DF84400D4F8EC000F9041F080008A
:103F20000AF104018DF842002046BE688DF843B0C6
:103F3000ADF840901FF0AEFAD6B104F1F2001FF0D8
:103F400017F801284DD003208DF84FB08DF85000A0
:103F50008346D4F8EC00ADF84C908DF84E101290DA
:103F600012A8011D20461FF095FADDE9129401E028
:103F70004FF0040B099840301FF036FB019805F113
:103F8000200668772220E8764FF48070A5F81900A3
:103F90001948C5F815000298049A2875D8E9000157
:103FA000039B2A77C5E90032C5E90260134A0598E8
:103FB0002961294600F058F8069DC5E90394284672
:103FC00085F814B09AE80E000EC0AE6117B0BDE8D7
:103FD000000FF0BD0D48A7F11D02009018210C48FC
:103FE00005E00748A7F11D02009019210548064B7E
:103FF0001EF06BFB10010001092110014422040096
:10400000DC220400C022040024350400B022040095
:104010009822040080B56F4680BD80B56F4680BD94
:1040200080B56F460021016080BD80B56F460020DD
:1040300080BD80B56F46002080BD80B56F460020F2
:1040400080BD80B56F46022080BD80B56F4680BDC3
:1040500080B56F4680BD80B56F4680BD80B56F4628
:1040600080BD80B56F4680BDD0B502AFD0F894302A
:10407000082B3FBF00EBC304C4E92612591CC0F84B
:10408000941038BFD0BD05481EF00AFC08201EF071
:10409000F9FB1EF0D3FC1EF01DFC00BF2500000044
:1040A000F0B503AF4DF804BD82B0D1F8D8600C462E
:1040B00091F8871005460020012917D1B96807F843
:1040C000142CA7F1160207F8121C0B2107F8133C59
:1040D000062307F8110C07F8150C204607F8166C94
:1040E0001FF08CF9A069411F0120FFE72E7313C553
:1040F00002B023F05ABCD4D4D0B502AF0A684AB19A
:10410000D1E9013251698B4221D21169CC5C013471
:10411000CC5400E08A68D2F8D81008293FBF0023A9
:104120004371017102603FBF481CC2F8D80002EB26
:104130004100A0F8DC3038BFD0BD08481EF0B0FB0D
:1041400008201EF09FFB1EF079FC1EF0C3FB024A04
:1041500018461EF07FF900BF7822040026000000F8
:10416000F0B503AF4DF8048D82B00E6880464C79EF
:104170000D79601C4871D6F8D810A9423CD906EBDD
:10418000450090F8DD10013180F8DD106CB9306821
:10419000012835D170687169884236D2D6F810C0CE
:1041A0001CF8001001310CF80010B069012107F86B
:1041B000142CA7F117020430D7F808C007F8133CF5
:1041C0000723C6E90210002007F8110C042107F8A4
:1041D000150C304607F812CC07F8164C07F8175C98
:1041E0001FF00CF988F8054088F80450C8F8006002
:1041F00002B05DF8048BF0BD054A28461EF02AF98E
:1042000004481EF059FB1EF065FB034A1EF022F91C
:104210008822040029000000D846040080B56F46BB
:104220000A4621210723BDE880401FF0E7B8D4D417
:10423000F0B503AF4DF8048D82B04668144696423F
:104240000FD3D0F80080054609480A460090214661
:10425000404623461FF0B4FF301B08EB0401C5E9BC
:1042600000100020A64238BF012023F071BC00BF1F
:104270002C4A040080B56F460121D0E84F2F4AB97F
:10428000C0E8421F002AF8D10121BFF35F8F00F878
:10429000011F80BD02487921024A23F022FC00BFA1
:1042A0009C4A0400D84A0400D0B502AF044624302A
:1042B0000122D0E84F3F5BB9C0E8432F002BF8D173
:1042C00020462422BFF35F8F3BF0C3FD2046D0BDC4
:1042D00002487921024A23F004FC00BF9C4A0400F2
:1042E000D84A0400D0B502AF044600F58070012220
:1042F000D0E84F3F63B9C0E8432F002BF8D12046E8
:104300004FF48072BFF35F8F3BF0A3FD2046D0BD1A
:1043100002487921024A23F0E4FB00BF9C4A0400D2
:10432000D84A0400F0B503AF4DF804BDADF5836D78
:104330000546009068464FF40272041D23F079FF91
:104340001149284614F068FC0646007C0D460128F9
:1043500004D106F1080183A81BF0A5F883A8314613
:10436000224600F025F89DF81204022801BF2868B3
:10437000013028600DF5836D04BF5DF804BBF0BD0E
:1043800002481EF057F800BFE84A0400084B04003A
:1043900080B56F46034921F00FF9007C0A68013AA5
:1043A0000A6080BDA823040080B56F46082080BD48
:1043B000F0B503AF2DE90007814641F28C000E589D
:1043C000A6B3087C0D4630B1114648464FF4027240
:1043D0003AF0CAFE2DE0D5F80C804FF40370B2F825
:1043E00006A2114640F2062208FB005404F1140014
:1043F0003AF0BAFE08F10100C4F81C62B0F10801FD
:10440000A4F81AA218BF0146A868E960884204BF50
:1044100001202874D5E90001013041F10001C5E90E
:10442000000141F2740028441FF010FF022089F8B7
:10443000060223F0CBBBD4D4D0B502AF054921F09E
:10444000BBF808300C461AF0C1FF21680139216021
:10445000D0BD00BF88230400F0B503AF4DF804BD04
:104460000446006878BB23F09BFB012805D104F5C6
:104470008C701EF045FE207B00E00020D4E9011581
:104480008D4206D1C00704D1002104260420002556
:104490000AE004F110068D4206EB011091BFC1F154
:1044A0001001691A0025042613F0AEFC3046294697
:1044B00013F0AAFC00202073C4E9010023F0D6FA0F
:1044C0005DF804BBF0BD04481EF0EAF920F03CFEA4
:1044D0001EF0B4FA1EF0FEF950000000F0B503AF74
:1044E0004DF8048D8046086868BB4FF0FF300D46DC
:1044F0000860087B38B192E85A0008F104005AC0FD
:10450000002101201AE0D5F808C092E8590005EB17
:104510000C11103159C10CF10100B0F1100118BF9C
:1045200001466868A960884204BF0120287305F528
:1045300088701EF0E5FD2868411C00202960C8F83D
:10454000000023F09DBA04481EF0AAF920F0FCFDFB
:104550001EF074FA1EF0BEF950000000F0B503AF73
:104560004DF8048D8046086880BB4FF0FF3012F88C
:10457000016B08600D46087C48B1102E1AD008F176
:10458000010011463F223BF064FC002019E0EC687A
:1045900011463F2205EB8410067619303BF059FC9A
:1045A000601C811E18BF0146A868E960884204BFEC
:1045B0000120287405F198001EF0A2FD286810263D
:1045C0000130286088F8006023F05ABA04481EF0D1
:1045D00067F920F0B9FD1EF031FA1EF07BF900BF3B
:1045E00050000000F0B503AF4DF8048D8046086818
:1045F00070BB0D464FF0FF3101CA2960297B39B1EC
:10460000D0B192E8580008F1040158C100211AE025
:10461000A96805EB0113186103F1140092E8580032
:1046200058C0481CB0F1100118BF01466868A96065
:10463000884204BF0120287305F588701EF060FDD4
:104640002868411C00202960C8F8000023F018BA2F
:1046500004481EF025F920F077FD1EF0EFF91EF05A
:1046600039F900BF50000000F0B503AF4DF8048DDC
:104670008046087A16460D4670B133B11868D0E905
:10468000001205F194001EF048FD08F101003146CA
:1046900023F0F0F9012016E06C683146202205EB8A
:1046A000441009303BF0D5FB601C011F18BF0146C8
:1046B00028686960884204BF0120287205F18C00D7
:1046C0001EF01EFD002088F8000023F0D9B9F0B5D7
:1046D00003AF2DE9000B8146087AB0B155685DB390
:1046E000D2F8008002F108063BB11868D0E9003228
:1046F00001F5AA7019461EF010FD96E80E0009F1AA
:1047000008000EC0C9F800801BE0D1F804C092E890
:1047100071400CEB8C0301EB83030C3383E8714095
:104720000CF10100B0F1100218BF024608684A609F
:10473000904204BF0120087201F5A6701EF0E0FC53
:104740000025C9F8045023F0C4B9D4D4F0B503AFA0
:104750004DF8048D0E46014610C980461546E0000E
:1047600048B10A460838083153689D42F8D11268AA
:104770009642F5D118E0012C04D140461FF066FDA9
:10478000D8F8004031682846884744B160B1C26813
:104790000846904705481EF08FF81EF09BF801224E
:1047A000C8F80810C8E9002023F06AB91800000012
:1047B000B0B502AF0A46054623F0F3FA0C4690F86E
:1047C0005C1304290DD141F20131A0F85C1305F509
:1047D0007670054920F084FD103023F08DFA23F027
:1047E000F1F923F043F9B0BD7C2A0400F0B503AF22
:1047F0002DE9FC0B8146087E90460C4650B10328FB
:1048000040F09880A07D68B1032840F09680D4E9FC
:10481000011211E02168002208680979A27521754A
:10482000206101E0217D2069234603F8151FD0E9AE
:104830000012A3F111000EC0434B684621F00EFE9A
:10484000E06801990078814268D900994FF45E725E
:1048500010FB0216D8E9001206F54A701EF05DFC46
:10486000D6F8200100285CD14FF0FF30C6F82001B7
:1048700096F82C01012806D106F50E701EF040FCBA
:1048800096F82C1100E00021D6E94902904201D1AE
:10489000C90717D0002186F82C11411CB1F1100274
:1048A00018BF0A4606EB0011C6F82421D1F83001E2
:1048B00040B101F5987103AA01F1040C9CE82A00AB
:1048C0002AC206E0D8E9001206F50C701EF025FC9D
:1048D0000020D6F820110131C6F8201148B103AAF2
:1048E00009F1080192E8680068C1C9F804000020D5
:1048F00004E096F85C130029F7D001200299C9F86A
:1049000000000A6801320A60012110B1C9F80010E4
:1049100003212176A17506B023F0DBB80B4A1DF008
:1049200099FD0B481DF0BCFF20F00EFC1EF086F830
:104930001DF0D0FF03481DF0F0FE01481DF0EDFE14
:10494000CC290400C8230400DC290400EC2904005D
:1049500050000000F0B503AF2DE9800F8146087DBF
:1049600090460C4668B1032840F08480A3461BF8AB
:10497000120F90B1032840F08080D4E901010A7839
:1049800014E02168A34608680A7900210BF8121F79
:104990000BF8022C4BF8060C01E0227CE068214663
:1049A00001F8112F41F80D0C41F8091C23F0FDF915
:1049B0000546D0F88002002853D14FF0FF308A46D8
:1049C000C5F8800295F89002012806D105F54870D7
:1049D0001EF096FB95F8901200E00021D5E9A202A6
:1049E000904201D1C9070FD0002185F89012411CD7
:1049F00005EB80108A1E18BF0A46C5F8882290F879
:104A00009862F1B2102907D1D8E9001205F5467075
:104A10001EF083FB102607E000F5267109F1010066
:104A200001313F223BF015FAD5F88002F1B289F846
:104A300000600130C5F88002DAF800000138CAF8D9
:104A40000000012010294FF0010108BF03218BF85D
:104A5000001002BF102089F800000320207523F009
:104A60003FB909481DF01CFF20F06EFB1DF0E6FF6A
:104A70001DF030FF03481DF050FE01481DF04DFEB3
:104A80000C2B0400E823040050000000F0B503AF35
:104A90002DE9000F97B0804690F84400894668B130
:104AA000032840F09D8098F8410008F11405D0B12A
:104AB000032801953ED04C481DF02FFED8F8000089
:104AC00008F1040C08F11405D0F800B02946027969
:104AD0009CE8590059C1002088F8410088F840201E
:104AE000C8F83CB003E098F84020D8F83CB00195F5
:104AF00028460DF1080A90E87800514678C1DBE9B4
:104B000000011FF09BFCB0F85843102208680138E0
:104B1000086006AE5146B01C3BF09BF90BF57E7069
:104B2000C8F8240008F12A0031461222A8F82840CB
:104B30003BF08FF94446002154F828EF6268616029
:104B4000002A3FD008F130030DF1400C0CF10C05A8
:104B500093E8430043C5D8F82460CDF85890CDE9D8
:104B600011E23068109690BB0DF12C0A4FF0FF3027
:104B70000CF10402311D306050464B46FFF7A7FD93
:104B800023F08EF80C9E56B1D8E90B0113F095F97D
:104B90009AE82F002FC4032488F8414009E0D8E99F
:104BA0000B0113F08AF90198012488F8414013F0B1
:104BB000DFFB88F84440002E18BF0126304617B0AE
:104BC00023F06CB90B481DF077FE1DF083FE0848FA
:104BD0001DF066FE20F0B8FA1DF030FF1DF07AFEE1
:104BE00002481DF09AFD00BF1C2B0400F8230400AE
:104BF000500000003900000080B56F461FF01EFC19
:104C0000B0F858030A68013A0A6080BDF0B503AFF6
:104C10004DF8048D054691F8320190460C4620B1BE
:104C200003281DD01A481DF078FD04F138002146F4
:104C300023F0F6FA01202246A4F8300184F86A0035
:104C4000A06F02C842F8700F04F5987051600021FF
:104C500082F8BE1032F8081CA2F8BC10C2E903208A
:104C600004F17C0628464246314606F04FF9287882
:104C7000232801D1032007E0304613F033FC94F8D9
:104C80006A0022F025FD012084F8320122F0F8BEEE
:104C900018240400DFB506AF0A4B23F020FB01A85F
:104CA00013F0ABFF0299E0B2814281BF019A0399F0
:104CB0004FF4B07310FB032084BF04B0D0BD024A90
:104CC0001DF0C8FB2824040038240400F0B503AF0D
:104CD0004DF8048D0E464968403A044690B2814230
:104CE00017D930681D46FFF7D5FF8846B0F8501138
:104CF000AAB28A4210D900F02FFD0A4906F1080035
:104D000020F0EEFA303022F0F7FF22F05BFF0520B2
:104D100003E01220207003E02120207022F00FFE1B
:104D200022F0AEBEFC250400F0B503AF2DE9000F64
:104D30008BB004460220ADF80A0001208DF808006F
:104D40001E462C4888468DF80920039007A822F0BB
:104D500057FC079DEDB3DDE9089BFB20D7F808A0C1
:104D6000CDE904B00020069004A803A909F01CFEB8
:104D7000C0B202281CD104A802A909F015FEC0B2D5
:104D8000022815D1DDE90530191A02290ED3049A3B
:104D900019490091811C019120F0C6F9CDE9070164
:104DA00007A831460222FFF743FAB8B1042004E015
:104DB000C0074FF0040018BF0D2001212070617062
:104DC000284649460BB0BDE8000FBDE8F04022F090
:104DD00055BC162020700BB022F09ABD01985146A8
:104DE0000A9007A880E8200A07AB2046424604F054
:104DF000AFFAF0E706000500A42E0400F0B503AFFB
:104E00002DE9000FBBB0D7F808800DF1980BDFF843
:104E1000F0681C460D924246CDE90B109AB15846F7
:104E2000194612F0D7FF2799002900F02F84289AFD
:104E3000BDF89A008242C0F02E843346FCF743FE50
:104E400003460A46EAE70B9808300A9014A80D9E1C
:104E500010300990B8F1000F00F035845846214613
:104E6000424612F0B7FF27999DF89840002900F0BC
:104E70002D84289ABDF89A30DFF88C0800905846A7
:104E80009DF8995013F090FF2898DDE926A9DDF8E8
:104E9000A4800E90A01F10284CD8DFE810F011005D
:104EA000C400A700A700A700A700A700A700A700AD
:104EB000A700A700A7009A00B100F1003201550039
:104EC000B9F1040F3CD3DFF8440822F085FC29989F
:104ED000B0BB2698DFF8443804880B9822F0ACFC6D
:104EE000DDE926104FF4B072504301F5A672002898
:104EF00000F0A7811146A0F5B0700B8802F5B072E2
:104F00009C42F4D1A1F5A6700521457301731830B8
:104F100000F036FC0A98DFF8081820F0E1F930308C
:104F200023F048F822F0BCFE28980D9E22F044FDA4
:104F30002120E8E2012C59D1B9F1020F80F03F8124
:104F400001208DF83C00E4E2B9F1040FC0F0E182E9
:104F5000DFF8B80722F040FC2998002840F0D982F9
:104F60002698DFF8C437B0F8029006880B9822F034
:104F700063FCDDE926014FF4B0725143002900F0D3
:104F80007B81027B032A06D1B0F85421B24204BFD0
:104F90000288012A04D000F5B070A1F5B071EDE7E8
:104FA0000D9B42889BB29342F5D1B0F85A11494407
:104FB000CA0340F1C58200F0CFFB0A98DFF86C17F6
:104FC00020F08EF9303022F0F5FF22F069FE052046
:104FD000BCE2F868324622F0E0FE38B10A6890F888
:104FE0006E03013A0A60002800F0F180DFF8143700
:104FF00022F03EFE9DF89800212840F0888290E241
:10500000B9F1020FC0F0F080DFF8000722F01EFCBB
:10501000022313F0C9FE2998002840F0E5802120E2
:105020008DF83C007DE2B9F1040FC0F0DD80DFF8BF
:10503000DC0622F0D1FB2998002840F0D580269884
:10504000DFF8D03646880B9822F0F6FBDDE92640E3
:105050004FF4B07100FB01F5002D00F00D81DFF879
:10506000B81604F10C0019F051FC20B1B4F84C0151
:10507000864200F0F68004F5B074A5F5B075EBE754
:10508000B9F10A0FC0F04582DFF8800622F0DEFB9E
:105090000A2313F089FE2998002840F03A822698C6
:1050A00001890691C188079141880891B0F804A050
:1050B00004880A98DFF8881620F012F98946611EE4
:1050C000FE2900F2CB806109234650F8212004F02C
:1050D0001F010024CDF814A022FA01F1C90700F045
:1050E000D080CDE903303246F86822F062FE002815
:1050F00000F05A8190F8742322F05AFC21A8212153
:1051000054E1B9F10A0FC0F00482DFF8000622F082
:105110009DFB0A2313F048FE2698B0F80890B9F1D9
:105120000C0F00F0F6812999002940F0F2810188E6
:1051300007918188B0F806A0408806900B980891E6
:10514000D0E900125846DFF8E83513F056FDDDE9E6
:1051500026C04FF4B0710024484361460346002B3B
:1051600046D00C7B0022012C05D14C7BA54204BF0C
:105170000C88012C05D001F5B071A3F5B07314466D
:10518000EDE70D9E4C88B6B2A6420D9EF3D1B9F163
:10519000000F00F0DD810420A1F80E9008730A983A
:1051A000DFF8901520F09CF828300C461DF0A8FF81
:1051B0002068ADF83E900130206011203AE0DFF821
:1051C0004C0522F043FB022313F0EEFDA9E1B9F1F7
:1051D000080F09D3DFF8340522F038FB082313F059
:1051E000E3FD299800284ED00120ADF83C0090E165
:1051F0000CF10C0190B10A78012A04BF31F80C2C93
:10520000012A04D0A0F5B07001F5B071F2E731F8D1
:105210000A2CB3B2934208BF0C70F3E70A98DFF888
:105220001C1520F05DF8283022F0C4FE22F038FD75
:105230000D9E142028998DF83C000A6801320A60FE
:1052400063E128982A46DFF8DC3422F0B5FBF868E1
:10525000314600900FA8FFF767FD56E102200024B9
:10526000F8E000204FF48031C4E901102080207361
:10527000C4E95300C4E9550028980D9E22F09CFB18
:105280004FE10220E6E026984FF000090999D74B3C
:105290000668446843F60850C1E90099320CC1E938
:1052A00002990021E2FB03019A4643F609520023CA
:1052B000ADF878403AF030FEB2B2CDE9160143F6CF
:1052C00008500021E2FB0A0143F6095200233AF09C
:1052D00023FEC74B220CCDE9140143F608500021F0
:1052E00022F012FACDE91C0114AC204620F04CF853
:1052F000B8B10BF10800214630223AF0AAFD072090
:105300000D9E8DF89800F8688DF8D2903346D0E95C
:105310000012ADF8D060CDF800B021A804F052FB27
:10532000FFE002208DF8D950ADF8DA0013208DF897
:10533000D800B048379021A822F062F9DDF88490B7
:10534000B9F1000F00F01D8122980DF1E00A0890DC
:10535000FB20239ECDE9386000203A9037A95046C3
:1053600009F022FBC4B2022C40F0DD8036A9504681
:1053700009F01AFBC4B2022C40F0D580E449504633
:1053800009F032FBC4B2022C40F0CD803A98F968A3
:10539000CDE9236008980D9ECDE9219021AB5846B8
:1053A000324603F0D5FF25E626A822218DF8841089
:1053B0001C218DF898100178042021294AD1D107A9
:1053C00048D00B98DF4B22F037FADDE926204FF466
:1053D000B07100FB01FA029211465046A0B10A8852
:1053E000012A0CD14B88B2B2934208D1B1F85421B2
:1053F000089B9A4203D10A7B002A40F0458101F5BF
:10540000B071A0F5B070E9E7029CCDF804904FF0C0
:10541000000904F5AE76BAF1000F12D0CA4904F1C2
:105420000C0019F073FA18B13078002800F0B88039
:1054300004F5B074AAF5B07A06F5B07609F1010961
:10544000E9E704200D9E0024DDF8049028990A68FD
:1054500001320A60ADF8E8000A20ADF8DA00152044
:10546000D9F800108DF8D800B94801313790584666
:10547000C9F80010CDE938448DF8D95022F0C0F8B1
:10548000DDF89890B9F1000F3CD0DDE927A6FB20AC
:105490002394CDE9216021AC37A9204609F084FA94
:1054A000C0B202281ED136A9204609F07DFAC0B24A
:1054B000022817D1DDE92230191A0A2910D3219ABE
:1054C00000F10A04A349009121461FF02DFECDE909
:1054D000260138A958460A22FEF7AAFE002853D012
:1054E000042004E0C0074FF0040018BF0D20012184
:1054F0008DF83C008DF83D104846514622F0BEF82C
:105500000D9E02E016208DF83C009DF83C0001281D
:1055100007D17C4B22F0ACFB9DF89840212C40F049
:10552000DC800E9C96E4089901208DF8990048468D
:1055300022F0A4F8E0074FF0040018BF0D2021E08E
:10554000A0F85A1110301DF0DBFD21200D9E71E6F0
:105550000798A1F854010698A1F858010898A1F8F5
:10556000560103200873A1F85AA10A9872491FF046
:10557000B7FE283022F01EFD22F092FB0D9E212066
:1055800058E616200D9EC2E7CDE928645B46CDE9BA
:10559000269A0FA80D9EF968324603F0D9FEB4E7AB
:1055A0004FF4B070029909FB001ADAF818000028CD
:1055B00040F09C804FF0FF300D9ECAF818009AF81A
:1055C0002400012806D10AF598701DF099FD9AF87B
:1055D000240000E00020DAE907148C420CD1C00757
:1055E0000AD1042000210290002411E000C4090027
:1055F00000204E00060005000AF128028C4202EB52
:10560000011091BFC1F11001611A0024042202921D
:1056100012F07DFC0298214612F079FC00208AF8F5
:105620002400CAE90700DAF818000130CAF81800A7
:105630000AF59C7008F00DFF0898AAF8540109F1CA
:105640004000AAF84C010120AAF800000698AAF828
:105650005A010398AAF84E010598AAF8580107982C
:10566000AAF856010220AAF802608AF80D508AF8BA
:105670000C00289822F0A0F9049820301DF040FD7D
:10568000019922F095F94CE70A20DFE60C999DF884
:10569000980048701CE0F8689DF89920009026ACAE
:1056A000184B0D992046FFF73FFB9DF89850212D90
:1056B00001D1052008E00C9E611C1322701C3AF0F9
:1056C000C8FB357006E021200C9902E00C994C7063
:1056D000012008703BB022F01BB90C9D0BF10101B9
:1056E0001322681C3AF0B5FB2C70F3E717481DF045
:1056F000D7F81FF029FD1DF0A1F91DF0EBF800BF50
:1057000088250400982504009C25040058420400C4
:105710002A2504003C25040058250400182504000F
:105720002C25040028250400782404008824040083
:10573000D8240400F8240400E82404000825040008
:10574000C8240400782504004C2504005000000003
:105750000E000500A42E0400D0B502AF0749044690
:105760000C3019F0D3F838B10620207304F118007A
:10577000BDE8D04000F004B8D0BD00BF5025040003
:1057800080B56F468AB001460020069001A806AA9F
:10579000FEF7A4FE019801281CBF0AB080BDDDE918
:1057A00002010AB0BDE8804012F087BBF0B503AF3C
:1057B0002DE9000794B002AD88468146482122F0C9
:1057C00098FAD8F80C404826314B2946482C38BF67
:1057D0002646304648221FF09DFC0546D8F80800B2
:1057E0008A4621461AF01CF98E424BD803462948B6
:1057F00000901A462846514633461EF0E1FC022C22
:1058000009D22C481DF04CF830461DF03BF81DF035
:1058100015F90A2017E09DF80800451EECB20E2C81
:1058200010D21D48711E30F8140081421BD109F1BD
:10583000010002A948223AF00CFBC9F84C6089F833
:10584000005008E0072089F80500032089F80400CB
:105850000E2089F80000D8E9000121F00FFF14B0F4
:10586000BDE80007F0BD0D481DF01AF80C480D4DBD
:10587000A8470D48A8470D480D4922F009FB002014
:10588000A847C4E70C4B0A46002031461CF093FDA4
:105890004C2704006C270400643B04005D000000FA
:1058A0000A000000252802005201000020580400D0
:1058B000E85704005E0000005C270400F0B503AF69
:1058C0002DE9000F95B01C788046212C15D0444856
:1058D0001D4616468A4693F801B01CF0E1FF414888
:1058E0001CF0A0FF28461FF0EFFA032C18BF4FF062
:1058F000080B1DF0A3F8192C05D1212088F8000011
:1059000015B022F005B8B6F858430FA821F078FE7C
:105910000F98002844D0A7F143000094C51C0FA99C
:105920000C2222F02DF8A7F152002946C61C0C22A9
:1059300021F0FFFF12AD31460C2222F021F802A81F
:105940002946042200F06AF89DF80800DDE90354B6
:105950009DF818902128059E23D13046494600F035
:1059600049F8C9B380F800B051461F48CDE9025448
:10597000049630F81900053080B2059002AB009A09
:10598000404603F0E5FC98F800002128B5D0174800
:105990001CF086FF40461FF089FA1DF04FF8AFE774
:1059A00016209DF80B1088F80310BDF809109DF81B
:1059B0001B20A8F80110BDF81910ADF804108DF8DF
:1059C000062088F81090C8E90154C8F80C60A8F8BF
:1059D000111088F8132091E7054A21F0AFFE00BFAF
:1059E0005600000047010000643B04005B0000001B
:1059F0008C270400E0B502AF024606480090C8B20A
:105A00000549FB2331F81000053081B205201FF055
:105A10008BFB8CBDBC270400643B0400F0B503AFD6
:105A20004DF8048D82B08C689046184B0E460546A2
:105A300002202146FB221FF06DFB154B5FFA88F216
:105A400033F8122002230132ADF80420114A0092EB
:105A500001AA1EF0B5FB0620A7F1120227F8120CCE
:105A600002210D4802230090A01C1EF0A9FB08F1A2
:105A70000100207196E80E00281D0EC0212028701C
:105A800085F8108002B05DF8048BF0BDCC270400CF
:105A9000643B0400DC270400EC27040091F8673322
:105AA00001F51472012B12BF91F8561202F58C7297
:105AB0000121A0B1D0B502AF9388B0F815411268AA
:105AC0006340D0F8114162401A4390F817315940B1
:105AD000C90718BF0020002A18BF0020D0BD002031
:105AE0007047D4D4F0B503AF4DF8048DADF5587DB3
:105AF000044610BA039018BA02908846B86800BAF3
:105B00000190F86800BA0090386900BA0790786987
:105B100000BA0690B86900BA0590F86900BA049016
:105B2000786A0C90386A0B9004A80A90684609902D
:105B30001F4871901F4870901F486F901F486E90CB
:105B40000DAE6EA9304619F0E9FE6EAD4146202239
:105B500021F016FF30462946202218F055FE00207D
:105B6000CDE9D600CDE9D400D4AD3046294619F0B0
:105B700015FF6EAE2946304619F0D0FE09AD20461D
:105B800032460023294600F01BF8D0A829463246A9
:105B9000012300F015F8D0AB22F092F8C4E90432EA
:105BA000C4E906100DF5587D5DF8048BF0BD00BF0B
:105BB0005A6083BE60370BDBAAF5A5386C888391E9
:105BC000F0B503AF2DE9F007DFF890900E46804660
:105BD00015461046694601228DF800304FF0010A43
:105BE000C8471F4928460422C84731686C462046EA
:105BF00021F0E6FE284621461022C84771686C460F
:105C0000204621F0DDFE284621461022C847B16813
:105C10006C4622F011FB284621460722C847F1684E
:105C20006C4622F009FB284621460722C8476946F0
:105C300028460222ADF800A0C84700206C46CDE9F6
:105C400002002146CDE90000284619F0A7FE404693
:105C5000214621F0B5FEBDE80F07F0BD09E80100BF
:105C600054250400F0B503AF4DF804BDADF5487DF3
:105C7000044610BA699018BA6890B86800BA67907C
:105C8000F86800BA669001AD66A9284619F046FE8C
:105C900039692846114E2022B047796928462022CA
:105CA000B047B86901228DF8980166A92846B04727
:105CB00066AE29464FF4C27222F0FEF862A8314661
:105CC00013F052FD62AB21F0FBFFC4E90032C4E9DE
:105CD00002100DF5487D5DF804BBF0BD09E8010038
:105CE000B0B502AFADF5487D00BA699008BA6890CA
:105CF00010BA679018BA669001AC66A9204619F0F0
:105D00000DFEB9682046104D2022A847F9682046AC
:105D10002022A84721F0FFFD66A92046A84766ADCE
:105D200021464FF4C27222F04EF962A8294613F0C0
:105D30001BFD6598054900BAB0FBF1F202FB1100AA
:105D40000DF5487DB0BD00BF09E8010040420F00DD
:105D5000F0B503AF2DE9FF07DFF8949000260D465C
:105D60008046EA46CDE90266CDE900660F2E1ED8D0
:105D7000D5F80041402C07D32846002119F016FF22
:105D8000D5F80041412C2AD23046514610224B46CC
:105D9000FBF7A3FE02460B4605EB8400C4F140016D
:105DA0001EF0DAF92044C5F800010E44DEE704A82D
:105DB0009AE81E001EC004AB21F01AFE1FBFA8E81F
:105DC0000F0008B0BDE80007F0BD08481CF068FDF2
:105DD00004A820F091FA1CF031FE1CF07BFD054B6D
:105DE0002046402140221CF0E6FA00BF700000006F
:105DF000BC54040008360400F0B503AF4DF8048D20
:105E0000ADF5487D01AD80461E461446284619F082
:105E100085FD20BA699030BA6890B8681022274E84
:105E200000BA6790F86800BA669066A92846B0473D
:105E300021F071FD66A92846B047386A102200BAE1
:105E40006990786A00BA6890B86A00BA6790F86A90
:105E500000BA669066A92846B047386B0322ADF8B1
:105E60009801000C8DF89A0166A92846B04766ACE7
:105E7000796B22F0E1F9284621460722B04766AC4B
:105E8000B96B22F0D9F9284621460722B04766AC03
:105E900029464FF4C27222F0CCF962A8214613F0D1
:105EA00063FC62AB21F00CFFC8E90032C8E90210C4
:105EB0000DF5487D5DF8048BF0BD00BF09E80100D9
:105EC000F0B503AF4DF8048D94B022F0CBF90BAED2
:105ED000304600F077FA9DF82C0021281CD1A7F15C
:105EE0004600311D851C21F09EFC02A82946861C17
:105EF00021F018FC10AD314621F095FC22F0EDF8B0
:105F0000207821280BD007481CF0CAFC20461EF040
:105F1000CDFF1CF093FD02E040F60320208014B07A
:105F200021F0AEBD68000000F0B503AF2DE9000F11
:105F3000CDB0FE68D7F80880CDE91D2056F870AFC7
:105F4000D8F84400C346CDF8AB00C1465BF8410F1A
:105F5000D6F808E02A90D8F83D001293169172689E
:105F6000F568D6F810C07369B169F469CDF8CB0053
:105F700059F83A0F2192CDF870E01B95CDF868C022
:105F8000199320911F94329032A88DE81204544640
:105F90000DF1F80ACDE9032E624605952AA9CDE94F
:105FA0000610A6F130015046FFF79CFD22A89AE8A2
:105FB0002E002EC0429811904398109044980F9054
:105FC00045980E90306A1890706A179008F14E004C
:105FD000D6E90AA520F0A5FC20F07F40CDE90A0B08
:105FE000209800901F98CDE90104219803901C98F7
:105FF000CDE908A5049005461B98CDF854B005904E
:106000008346189806901798CDF84C90CDF83090AC
:106010001494079026A822A91A9A199B914698468B
:10602000FFF7EAFE1D98102804D126A8169913F050
:1060300050FB30B11E990F20087040F60330888065
:1060400090E0D6E90C40D7F808A01D90B06B1890EE
:106050000AF14800F66B20F064FC20F07F400A90C3
:1060600013980B9015980C90209804901F981899ED
:10607000CDE905041D98CDE90816CDE9005BCDE911
:10608000029807902AA822A9149A219BFFF7B4FE30
:10609000DDE92C01DDE92A23CDE900013EAC2046F3
:1060A00000F036FA9DF8F850212D48D10DF1C809BD
:1060B000211D09F1030521F0B6FB2EAE294621F082
:1060C00031FB129C0DF1F80832464046214609F09A
:1060D000CBF89DF8F850212D3CD19AF838000223D6
:1060E0009AF84A100DF1F8089AF85020022801F0A9
:1060F000030008BF012302F0030180F0010081F0DA
:10610000010108430F990091B0FA80F00E994009FF
:10611000CDE901132146DDE910320390404609F034
:10612000DBF89DF82161022E1FD198E86E004846E9
:106130006EC01E9E99E83E00301D3EC008E0611C06
:1061400032AC21F006FC1E9E214621F0AEFE3571D8
:106150000F2006E01E9E08F1010121F0A6FE0F208F
:10616000357130704DB021F0D3BB32AC3EA929223D
:1061700021F003FCBDF826012146ADF830012922AB
:10618000DDF822014B903EAD21F0FAFB5046294646
:10619000292239F05EFE4B981E99CAF82A00BDF8F4
:1061A0003001AAF82E000A208AF829600870D9E781
:1061B000102B40F09B80F0B503AF2DE9000F9DB090
:1061C00009908846F868137800F16006D2F801005B
:1061D000D2F80540D2F8095043EA002C39692B0265
:1061E00043EA1463240244EA1060D47BB2F80D2021
:1061F000C6E900C042EA0442120242EA1562C6E958
:10620000023218A8FFF7A4FD06F1300A189806F12B
:106210001003F66B1A9A08F07F041999DDF86CB038
:10622000069283E80708A4F14002079131460890DE
:106230009AE820065046CDF8148039F0D1FC80460B
:1062400028464946224639F0CBFCC4F1400281463B
:1062500050463146D7F80CA039F0E5FD0AF120018F
:1062600003910699402CCDE901BA009138BF49EA63
:1062700000082A48002C08BFA84660F35F08CDF844
:1062800010800AA8DDE90732FFF7ECFCDDE90C011C
:10629000DDE90A23CDE9000118AC204600F06AF8D8
:1062A0009DF86050212D27D10FA8211DC61C10225A
:1062B000D7F8088021F03DFB14AD314621F0B3FA48
:1062C00018AC41462A46204608F0CEFF9DF86050A3
:1062D000212D18D1099C5146B02204F1080039F053
:1062E00095FC059860600620207013E00F21017076
:1062F00040F6032181807047611C0FAC21F029FB1F
:10630000099E214601E0099E611C21F0CEFD0F206F
:10631000357130701DB021F0FBBA00BFC0FFFF7FA8
:10632000F0B503AF4DF8048D8EB0054608A8884639
:1063300021F066F90898C0B1A7F1370008A9C61C7A
:106340000C2221F0F6FAA7F146003146C41C0C22BB
:1063500021F013FB0BAE21460C2221F0EAFA28466D
:1063600031464246FFF75AFB01E0162028700EB076
:1063700021F086BBF0B503AF2DE9000F89B00446CC
:1063800004A8022199469046FFF7CAFF9DF81050D5
:10639000212D10D121F002FAFA6810230792BA6871
:1063A0000692074ACDE90489009204AA1DF008FF6D
:1063B00021F0ABFD01E021F0D3F9257021F05ABAAC
:1063C0001C280400F0B503AF2DE9000F89B0044686
:1063D00004A8032199469046FFF7A2FF9DF81050AC
:1063E000212D10D121F0DAF9FA6810230792BA684A
:1063F0000692074ACDE90489009204AA1DF0E0FE46
:1064000021F083FD01E021F0ABF9257021F032BAD3
:106410002C280400F0B503AF2DE9000F99B003AEAE
:10642000044620220D4621F084FA05F120010BAD2F
:10643000202221F0A5FA304612F0A7FC284612F0DF
:10644000A4FC14A80B21FFF76BFF9DF850A0BAF134
:10645000210F39D19DF86080DDF85C90BDF86100B6
:106460009DF86310DDE915B2ADF84C00A4F81100F9
:1064700048468DF84E10E17441460292FFF7BAFA91
:106480001F4B05460E462020294632461EF042FE8E
:106490001C4A2023009203AA1DF092FE1A484021B4
:1064A000009020202A4633461EF03EFE174A202345
:1064B00000920BAA1DF084FE029884F81080C4F8A4
:1064C00004B0C4E9020915E09DF85300E070BDF87E
:1064D00051009DF86310DDE91556A4F80100BDF8E0
:1064E0006100179A9DF86030ADF84C008DF84E10A1
:1064F00021F013FD84F800A019B021F009BA00BF03
:106500003C2804004C2804005C2804006C2804008B
:10651000F0B503AF2DE9000F89B0044604A80C21A3
:106520009B469246FFF7FCFE9DF81080B8F1210FC4
:1065300031D19DF82060DDF81C90BDF821009DF858
:106540002310059A0292069AADF80C00A4F81100E7
:1065500048468DF80E10E17431460192FFF74AFA71
:106560000246F868194B0D4607901146B8682A464E
:1065700006901020CDE904AB1EF0CCFD144A102388
:10658000009204AA1DF01CFE029860600198267417
:10659000C4E9020915E09DF81300E070BDF8110090
:1065A0009DF82310DDE90556A4F80100BDF821008F
:1065B000079A9DF82030ADF80C008DF80E1021F0F0
:1065C000ACFC84F8008021F055B900BF7C280400A1
:1065D0008C280400F0B503AF2DE9FE0F044602A895
:1065E00088460721FFF79CFE9DF80850212D1ED1FB
:1065F0009DF81860DDF81490BDF819009DF81B1087
:10660000ADF80400A4F8110048468DF80610E174B6
:106610003146DDE903ABFFF7EDF9154A102321F010
:106620000BFC2674C4E901ABC4F80C901CE09DF887
:106630000B00E070BDF809009DF81B10DDE9036256
:10664000A4F80100BDF81900DDF814C09DF8183059
:10665000ADF804008DF806102374C4E90162C4F893
:106660000CC0A4F81100E174257007B021F050B9F6
:106670009C280400F0B503AF2DE9FF07044603A8EA
:106680000D460821FFF74CFE9DF80C00212834D15F
:106690009DF81C80069EBDF81D00ADF80400414623
:1066A0009DF81F008DF806003046DDE9049AFFF7DB
:1066B000A1F9002942D00246A8790B46002818BF4C
:1066C0000120107007211F48009001201EF02CFDB2
:1066D0001D4A062300922A461DF072FD212084F8EF
:1066E00010802070BDF80400A4F811009DF8060089
:1066F000C4E9019AE660E0741DE09DF80F10E170B6
:10670000BDF80D109DF81F20DDE90463A4F8011009
:10671000BDF81D10DDF818C09DF81C50ADF808102C
:106720008DF80A202574C4E90163C4F80CC0A4F8EC
:106730001110E274207008B021F048BA034A20F02A
:10674000FDFF00BFBC280400CC280400AC280400D6
:10675000F0B503AF4DF8048D92B00DF104080D466D
:1067600006461146404644221C4638F0FDFCB868F7
:106770002946009030464246234600F005F812B004
:106780005DF8048BF0BDD4D4F0B503AF2DE9000F54
:10679000ADF6642D179001F1D00018930DF58D69B9
:1067A0001690EEA891F8C86000F160040DF54278EB
:1067B00001F1780593468A46022E199152D11AAEFC
:1067C0005146C822304639F021FA15209DF868104C
:1067D0008AF804000E208AF800000C299BF80000BB
:1067E00000F2CC83DFE811F00D00ED015901390111
:1067F000D9001B01A402CA035E03B303CA039E03AC
:10680000B100052804BF9BF80C10002901F013808B
:10681000DDF864A0DFE810F00600AC03AC03AC03C5
:106820006608B7039BF80100DDF860B0002801F0AE
:1068300071810DF50C645946204608F03DFE9DF827
:10684000E958032D41F09F870DF5E76C94E86E0041
:1068500060466EC0614678A891E87C0004307CC038
:1068600001F090BB78A8514621F09EFB15209DF8C1
:10687000E0118AF8040012208AF800000F299BF822
:10688000000000F27386DFE811F0100056049F0349
:1068900053058D05710619047504D40471066A0642
:1068A000EE057106710687032604052804BF9BF8D0
:1068B0000C200A2A40F05A86DBF80800002802F073
:1068C0005D82DDF864A00C22DBF804100DF50C6885
:1068D0009AF81901032808BF0822DDF860B0DBF838
:1068E000383093F8700393F8713302448AF81A2110
:1068F0000C7813B101218AF8181158B19AF81C01CB
:106900009AF81D1140F003008AF81C0141F00301C0
:106910008AF81D111AA8594608F01EFE9DF891002C
:10692000022807D0600741F1B3839DF89000022848
:1069300001F0AE830DF5E76421F098FB21F0BBFC7C
:1069400041F09282012401F055BB052804BF9BF859
:106950000C20082A40F00283DBF80820DDF864A050
:10696000002A02F00982DBF804000478022C81F08E
:10697000E780062A42F2F28150F8011F0DF50C68FB
:10698000CAF811118188DDF860B021F0DEFA00F05C
:10699000A68721F0ECF900F0A2BF052804BF9BF800
:1069A0000C10022900F02E870DF5B96101F1900459
:1069B00001EB8001DDF864A0DFE810F09407DA0253
:1069C000DA0206009407E5020DF5B9680AF118012C
:1069D000902221F0FEFA711C0DF50C66112220F0B8
:1069E000A8FF0025DBF80400C4E90005C4E904059C
:1069F0009DF8C008C4E90255C007C4E9065501F076
:106A00008C85DDF860B0721CB8680021CDE900B853
:106A10001023029078A8FFF7CBFB00F06ABF05288F
:106A200004BF9BF80C20022A40F09882DDF864A095
:106A30000DF50C68B0220AF1080121F0CAFADBE971
:106A40000123DDF860B0B8681B99CDE900B8029069
:106A500078A8FFF7ADFB00F04EBF0FF20A01DDF89A
:106A600064A0DFE810F03F070600E50885023F0755
:106A7000C6089DF86900002801F03A8206F1180066
:106A800016991022CDE9001078A8DDF860B0B11C8D
:106A90005B46FFF749FA00F02CBF052804BF9BF8BE
:106AA0000C20032A40F05A82DDF864A0C2A87022AC
:106AB0000AF1080139F0AAF80AF198010DF5D2603F
:106AC0002022D5E90049D5E9026539F0C2F921F063
:106AD0009EF841F07480DBF804000DF50C68224646
