:1010000008FC032001110000CFDD0300D1490600D8
:10101000CFDD0300CFDD0300CFDD030000000000C3
:10102000000000000000000000000000CFDD030011
:10103000CFDD030000000000CFDD0300CFDD0300A3
:1010400059110000C1110000CFDD0300CFDD030006
:10105000CFDD0300CFDD0300CDE203004512000029
:1010600091120000CFDD0300CFDD03003912000034
:10107000CFDD0300CD110000CFDD0300CFDD030085
:10108000CFDD0300A5E30300CFDD0300CFDD0300C8
:10109000AD110000CFDD0300CFDD0300CFDD030085
:1010A000CFDD0300CFDD0300CFDD0300CFDD030084
:1010B000CFDD0300CFDD03000000000000000000D2
:1010C000CFDD0300CFDD0300CFDD0300CFDD030064
:1010D000CFDD0300CFDD0300CFDD03009D12000054
:1010E000CFDD0300CFDD0300CFDD030000000000F3
:1010F00000000000CFDD030000000000CFDD030092
:101100003CF068FE0E480F490022814201D004C025
:10111000FBE70D480D490E4A814202D008CA08C0BB
:10112000FAE70C484FF47001026842EA01020260DB
:10113000BFF34F8FBFF36F8F39F09CFE00DE0000CE
:1011400080220020B01E0120080000207C22002008
:101150005001070088ED00E0B0B502AF5DF0B8FACD
:10116000104C206828B1002020600F481C303DF052
:10117000CBFB606850B10C4D0020606005F11C0095
:101180003DF0C2FB05F134003DF0BEFBA06838B174
:101190000020A06004483430BDE8B0403DF0B4BB4E
:1011A000B0BD00BF1C0100405009012080B56F4652
:1011B0000248BDE880403DF0A7BB00BF08F5002015
:1011C00080B56F46BDE880405EF014BEF0B503AF59
:1011D0004DF804BD154E002030603EF0DDFA144D90
:1011E0000446A869F0B94FF0FF30A861686A78B189
:1011F000A96A88420CD0D6F808140170D5E9090113
:1012000001306862884204BF05F11C003DF050FBCC
:10121000A8690130A86120465DF804BBBDE8F04034
:101220003EF0F0BA03483CF055FC00BF00D100404E
:10123000CC09012018C0060080B56F46BDE880408B
:101240005FF074BCD0B502AF0F4C206930B11020F4
:10125000C4F808020D482C303DF056FB606830B1F0
:101260000220C4F8080209482C303DF04DFB2068EC
:1012700040B10120C4F8080204482C30BDE8D04039
:101280003DF042BBD0BD00BF0071004050090120BD
:1012900080B56F46BDE880405EF0A0BDF0B503AFFD
:1012A0004DF8048D84B0344C206858B1334D012082
:1012B000C4F8080205F11C003DF026FB05F12400EE
:1012C0003DF022FBE06D38B14FF40000C4F8080295
:1012D0002A4824303DF018FBA06A38B14FF48060F2
:1012E000C4F80802254824303DF00EFBA06D28B15B
:1012F0000020A06521481C303DF006FB206EB8B3ED
:1013000000202066D4F86C631C48C4F86C63BFF3FB
:101310005F8F50E8051F314340E80512002AF8D1DD
:101320000020BFF35F8F8DF80C0007200DF104083B
:10133000029001200190404633F0DBFA012817D1DA
:1013400001F01F040D4626FA04F0C00704D0284619
:101350002CF0AEFA3DF0D8FA84F0100026FA00F036
:10136000C007E8D028462CF0F7FA3DF0CDFAE2E7C6
:1013700004B047F089BA00BF007102405009012053
:10138000F0B503AF2DE90007ADF5846D044690F884
:1013900014040D4620B1032817D01F483CF041FC2F
:1013A000E846214640464FF4847262F0F3FED4F8DA
:1013B000101442AE4246304626F0DAF804F5847046
:1013C00031464FF4427262F0E5FE04F58478A7F1ED
:1013D00024002A4641461BF0E5FA57F8246CB51C58
:1013E00001D103200FE0404657E908A905F0BEF9F6
:1013F000701C07D0A7F1240047E9096A47F81C9C34
:1014000006F0D4F9012084F81404B5FA85F04009F7
:101410000DF5846D47F03ABE9C6F0600F0B503AF42
:101420002DE9000F95B0D0E90149834608468A4668
:10143000A4EB090545F02CFF854201D200200BE208
:101440005046DBF8005045F023FFDFF81C142A4615
:10145000009100EB09014846234643F095FC9AF8B9
:101460000020FF2A1FD19AF80420FF2A3ED148F01D
:1014700003FCBAF8080001280AA814BF1B211D218B
:1014800043F0BEFCC0B2022840F0DD81BAF80A1079
:101490000AA843F0D5FCC0B2022840F0D481DAE9B2
:1014A00003120AA84EE1B2F10A044FF0000398BFFC
:1014B0001C46002C35D0012C48D148F0DDFB0AA891
:1014C000522143F09DFCC0B2022840F0BC81BAF822
:1014D0000C100AA843F0B4FCC0B2022840F0B3815B
:1014E000DAE901120AA844F0C9FD35E0CDE90301AB
:1014F00000200590DFE812F00900C5005E00A200A0
:101500003200EF001B01C200290103A8032143F0B0
:1015100077FCC0B2022840F09681BAF8061003A802
:101520008BE10AAC0A2A0BC400F29981DFE812F0C1
:101530000B00150132013501690147017301970163
:101540009701970112010AA8102108E148F094FBC5
:101550000AA81E2143F054FCC0B274E103A809217B
:1015600043F04EFCC0B2022840F06D81DAF814401E
:1015700003A8214643F044FCC0B2022840F0638136
:101580000AF10802139447F05AFD0AA8294645F0CB
:1015900019FD9DF82800FF2840F0548147F0A8FC71
:1015A000C0B2022840F04F8148F077F9C0B202285B
:1015B000EBD048E103A8052143F022FCC0B2022889
:1015C00040F041819AF8144003A8214643F018FCEA
:1015D000C0B2022840F037810AF108028DF8244099
:1015E0000DF1400807CA06AB07C30AA804300290F1
:1015F00003AC0AA806A945F03BFDBDF82800002869
:1016000040F02081029AA446BDF82A10404678CACC
:1016100078C0644612780270604643F011FCC0B294
:10162000022840F01081404643F0BAFB47F0C9F869
:1016300044F024FDC0B20228DBD004E103A801215C
:1016400043F0DEFBC0B2022840F0FD809AF805109E
:1016500003A843F0D5FBC0B2022840F0F480BAF8EA
:10166000081003A843F0ECFBC0B2022840F0EB8066
:101670009AF8061003A843F067FBE0E003A80D21E9
:1016800057E003A8072143F0BBFBC0B2022840F09B
:10169000DA800AF108020DF1280847F0D0FC404634
:1016A000294645F0E7F99DF82800FF2840F0CA8058
:1016B000BDF82A103046BDF82C4043F0C1FBC0B243
:1016C000022840F0C0803046214643F0B9FBC0B24A
:1016D0000228E4D0B7E003A8112143F091FBC0B287
:1016E000022840F0B080DAF8144003A8214643F005
:1016F00087FBC0B2022840F0A6800AF108021394CA
:1017000047F09DFC0AA8294645F05CFC9DF828009E
:10171000FF2840F0978047F0EBFBC0B2022840F072
:10172000928048F0BAF8C0B20228EBD08BE003A850
:101730000B2143F065FBC0B2022840F08480DAE957
:10174000021203A844F09AFC79E003A8132143F0A5
:1017500057FB74E00AA80C215FE00AA8082143F0B7
:101760004FFBC0B202286ED1BAF812100AA843F09B
:1017700067FBC0B2022866D1BAF814100AA843F079
:101780005FFBC0B202285ED10AF101010AA845F050
:101790009BF954E00AA80A2135E00AA8122143F077
:1017A0002FFBC0B202284ED1BAF802100AA843F0AB
:1017B00047FBC0B2022846D1DAE9011271E60AA855
:1017C000062143F01DFBC0B202283CD1BAF802103A
:1017D0000AA843F035FBC0B2022834D1BAF804108D
:1017E0000AA843F02DFBC0B202282CD1BAF806108B
:1017F0000AA843F025FBC0B2022824D1DAE902127C
:101800004FE60AA8022143F0FBFAC0B202281AD11F
:10181000BAF8021010E00AA8042143F0F1FAC0B2AD
:10182000022810D1BAF802100AA843F009FBC0B28E
:10183000022808D1BAF804100AA843F001FBC0B28C
:10184000022800D10220022806D1504645F020FD92
:101850004844CBF80800022015B046F0D1BF034839
:101860000F21034A3BF053FCA8DE060094E7060074
:10187000B4E70600F0B503AF4DF804BD84B00446EC
:10188000D0E901300D46191A04290CD32268061D2F
:10189000084946F097FDCDE9020102A82946042235
:1018A0002CF024F808B1002001E00220A66046F0E8
:1018B00092BF00BF0C71060080B56F460021017316
:1018C00001490131016080BD5009012080B56F469A
:1018D00045F2C812815010440021C17380BDD4D498
:1018E000E0B502AFDFF880C0044600254CF6E0709A
:1018F00040F2011285422FD02B18654405F11806DD
:1019000056E8001F21B946E800210029F8D103E07C
:10191000BFF32F8F1D46EDE71448686205F12800DC
:101920002146FFF7D3FF204629463CF077FC0025EF
:10193000BFF35F8F54E8000F44E800510029F9D14C
:10194000BFF35F8F30B1C669C5614576416A88478C
:101950003046F7E720BFEBE705487A1E00902B21C1
:101960000448054B3CF005F9E8220020DD70020038
:101970002C7F0600F1DF060044990600F0B503AFA6
:101980002DE9000B94B00446F8680DF13C0847F0CF
:10199000BDFA9DF83C00FF2803D040F603202080CC
:1019A0001DE0A7F14E0008F10401851C46F002FD80
:1019B00002A82946861C46F0A6FB0BAD314646F030
:1019C000F9FC47F088FF2078FF2808D047F0EDFBAE
:1019D00004483CF023FA47F019FA3CF087FB14B0B6
:1019E00046F048BFA1000000F0B503AF2DE9000F9D
:1019F000CDB0FE68D7F80880CDE91D2056F870AF4D
:101A0000D8F84400C346CDF8AB00C1465BF8410F9F
:101A1000D6F808E02A90D8F83D0012931691726823
:101A2000F568D6F810C07369B169F469CDF8CB00D8
:101A300059F83A0F2192CDF870E01B95CDF868C0A7
:101A4000199320911F94329032A88DE812045446C5
:101A50000DF1F80ACDE9032E624605952AA9CDE9D4
:101A60000610A6F13001504627F014FE22A89AE88D
:101A70002E002EC0429811904398109044980F90D9
:101A800045980E90306A1890706A179008F14E00D1
:101A9000D6E90AA546F059F820F07F40CDE90A0BB7
:101AA000209800901F98CDE90104219803901C987C
:101AB000CDE908A5049005461B98CDF854B00590D3
:101AC0008346189806901798CDF84C90CDF8309032
:101AD0001494079026A822A91A9A199B9146984611
:101AE00027F0FEFC1D98102804D126A816992DF089
:101AF000ECFB30B11E99FF20087040F6033088805F
:101B00005EE0D6E90C40D7F808A01D90B06B1890A5
:101B10000AF14800F66B46F018F820F07F400A9072
:101B200013980B9015980C90209804901F98189972
:101B3000CDE905041D98CDE90816CDE9005BCDE996
:101B4000029807902AA822A9149A219B27F0C8FC82
:101B5000DDE92C01DDE92A23CDE900013EAC204678
:101B600006F0B0F89DF8F850FF2D0AD0611C32AC99
:101B700046F018FC1E9E214646F01BFE3571FF20E4
:101B80001DE00DF1C809211D09F1030546F012FC05
:101B90002EAE294646F0B7FA129C0DF1F8083246EF
:101BA000404621462BF0A3FF9DF8F850FF2D0AD0A8
:101BB0001E9E08F1010146F0FCFDFF2035713070DA
:101BC0004DB046F03EBD9AF8380002239AF84A100C
:101BD0000DF1F8089AF85020022801F0030008BF20
:101BE000012302F0030180F0010081F001010843AC
:101BF0000F990091B0FA80F00E994009CDE90113D8
:101C00002146DDE91032039040462BF0A3FF9DF8FA
:101C10002161022E09D198E86E0048466EC01E9ED2
:101C200099E83E00301D3EC0A9E732AC3EA929220A
:101C300046F04FFDBDF826012146ADF830012922BE
:101C4000DDF822014B903EAD46F076FD5046294628
:101C500047F0A1FF4B981E99CAF82A00BDF8300141
:101C6000AAF82E000A208AF829600870A8E7D4D4C0
:101C7000102B7DD1F0B503AF2DE9000F9DB0099079
:101C80008846F868137800F16006D2F80100D2F8AF
:101C90000540D2F8095043EA002C39692B0243EA87
:101CA0001463240244EA1060D47BB2F80D20C6E924
:101CB00000C042EA0442120242EA1562C6E9023258
:101CC00018A803F081F806F1300A189806F11003FD
:101CD000F66B1A9A08F07F041999DDF86CB0069239
:101CE00083E80708A4F140020791314608909AE87A
:101CF0002006504662F004FBCDF81480804628464A
:101D00004946224662F0FCFAC4F140028146504640
:101D10003146D7F80CA062F02EFC0AF120010391A5
:101D20000699402CCDE901BA009138BF49EA000874
:101D30002948002C08BFA84647F01CFF0AA8DDE987
:101D4000073227F031FCDDE90C01DDE90A23CDE99A
:101D5000000118AC204605F0F1FE9DF86050FF2D03
:101D60000CD0611C0FAC46F01DFB099E21461FE004
:101D7000FF21017040F6032181807047DDF8149047
:101D80000FA8C61C211D1022D7F8088046F0A7FC1A
:101D900014AD314646F00EFB18AC41462A462046AB
:101DA0002BF0A5FE9DF86050FF2D09D0099E611C07
:101DB00046F0FFFCFF20357130701DB046F041BC8D
:101DC000099C5146B02204F1080062F0E3F90620B4
:101DD000C4F804902070F0E7C0FFFF7FF0B503AFB8
:101DE0002DE9000B94B00446F8680DF13C0847F06B
:101DF0008DF89DF83C00FF2803D040F6032020809A
:101E00001DE0A7F14E0008F10401851C46F0D2FA4E
:101E100002A82946861C46F076F90BAD314646F0FD
:101E2000C9FA47F058FD2078FF2808D047F0BDF9DF
:101E300004483BF0F3FF46F0E9FF3CF057F914B0DB
:101E400046F018BDA0000000F0B503AF2DE9000F6B
:101E50009FB08246880701D411206BE0D56B934672
:101E600005F108030FCB47F0D2F811BF8DE80F0042
:101E70000020CDE90200CDE9000016AE69463046EB
:101E800005F050FF9DF85840FF2C3DD111A8311DA1
:101E900000F10308102247F066F80AAE414646F00A
:101EA00032F90DF158095946324647F0F0FE9DF8D7
:101EB0005840FF2C2FD12868C10740D06968000A1C
:101EC0000A0E8DF83E200A0A40EA0160ADF83C2077
:101ED0000E9016AE0EA9304605F06EFF9DF85840E4
:101EE000FF2C11D1311D404646F0C7FC1BAE4146C8
:101EF00046F009F905A8594632462BF0F8FD9DF841
:101F00001440FF2CA8D00CE011AD711C46F045FB2D
:101F100005A8294602E005A809F10101013046F0B3
:101F2000DBFB05A90AF10500013146F0D5FBFF20D6
:101F30008AF804408AF800001FB046F082BB0524EE
:101F4000EFE7F0B503AF2DE9000F8BB0044602A810
:101F50000E460021924605F0C7FD9DF80800FF28B7
:101F60001DD09DF80B10E170BDF809109DF81B20E5
:101F7000DDE903C5A4F80110BDF81910059E9DF810
:101F80001830ADF81C108DF81E202374C4E901C56B
:101F9000E660A4F81110E274207046F0FBB99DF8D9
:101FA00018B0059DBDF81900ADF8040059469DF81C
:101FB0001B008DF806002846DDE9038925F01EFA8E
:101FC00002460B4606F1480011461A4645F076FED9
:101FD000C0B202281CD1BDF804005146ADF829005A
:101FE0009DF806008DF828B00995CDE907898DF890
:101FF0002B0002AD07AA28462BF079FD9DF808605A
:10200000FF2E10D0601C691C46F066FB2670C4E7EA
:1020100005204946207040460BB0BDE8000FBDE8E2
:10202000F04045F021BEFF20B6E7D4D4F0B503AFB1
:102030002DE9000F9FB00D46B968069314460B902A
:102040001AA802F0C1FE1A9804F170061C9A05F055
:102050007F0504F1900B1B991D9B0FC60892A5F1FB
:1020600040020A909BE8400E50460991594607935A
:1020700062F046F98046304649462A4662F040F909
:10208000C5F1400281465046594662F074FA04F1A7
:102090002001402DCDE90241079901910899009155
:1020A00038BF49EA00082448002D08BFB04647F071
:1020B00061FD0CA8DDE9093227F076FADDE90E01B1
:1020C000DDE90C23CDE900011AAC204605F036FD10
:1020D0009DF86850FF2D0BD0611C11AC46F062F9E1
:1020E0000B9E21461322701C62F020F935701FE010
:1020F000DDF82C8011A8C51C211D46F05BF916AE39
:10210000294646F000F81AAC0699324620462BF0D4
:10211000EEFC9DF86850FF2D07D008F10100611C0E
:1021200046F0DAFA88F8005002E0FF2088F8000054
:102130001FB046F086BA00BFC0FFFF7FF0B503AF07
:102140002DE9000FB5B016461D46CDE91210B04678
:10215000D6F83D000DF1A00C55F8702FCDF8A30076
:1021600058F83A0F289056F8410FD5F808906B6848
:10217000D5F80CA0D5F810E0D5F814B0AC69E96931
:102180002C90D6F8030014921593CDF86C90CDF8EE
:1021900068A0CDF864E0CDF860B017941691CDF842
:1021A000B3002CA88DE800460DF18009CDE9051C8F
:1021B000A5F1300107904846CDE903B427F06AFA4B
:1021C0001CA899E81E0005F1300B1EC02498119040
:1021D0002598109026980F9027980E90F01D9BE858
:1021E000100AD5F83CA045F0B0FC20F07F40CDE9C6
:1021F0000A08DDE91A10CDE908BA0C96CDE900010C
:10220000199802901898039017980490169805A9A9
:1022100081E8110228A81CA9DDE9142327F060F940
:10222000DDE928230DF18009DDE92A01CDE900016E
:10223000484605F047FD9DF88060FF2E0ED02CAC7F
:1022400009F1010146F0AEF8139D21461322681DE5
:1022500062F06CF8FF202E71287051E0DDF84C80A0
:102260002CA8C61C09F1040145F04DFF31AC3146E4
:1022700046F09CF80DF180091299224647F007FDBF
:102280009DF88040FF2C0BD008F1050009F10101F9
:1022900046F022FAFF2088F8044088F800002FE07A
:1022A00005F1200B464608F11804ED6A9BE8000D85
:1022B00009F107001CA946F0E0FA0B20494606F890
:1022C000010B172246F00BFA199804F12C01206239
:1022D000189860621798A0621698E56381E8010D6E
:1022E00011982060109860600F98A0600E98E060D0
:1022F00014982061159860611B98A0611A98E0619C
:1023000035B046F09EB9D4D4F0B503AF2DE9000F37
:102310008BB004460220ADF80A0001208DF80800B9
:102320001E462C4888468DF80920039007A845F0E2
:1023300051FC079DEDB3DDE9089BFB20D7F808A011
:10234000CDE904B00020069004A803A9FFF792FA93
:10235000C0B202281CD104A802A9FFF78BFAC0B2B0
:10236000022815D1DDE90530191A02290ED3049A85
:1023700019490091811C019142F006FDCDE9070148
:1023800007A8314602222BF0B1FAB0B1042004E0D4
:10239000C0074FF0040018BF0D20012120706170AC
:1023A000284649460BB0BDE8000FBDE8F04045F0B7
:1023B0005BBC1620207045F0EDBF019851460A9095
:1023C00007A880E8200A07AB2046424626F048FCD2
:1023D000F1E700BF060005000C710600DCB504AF94
:1023E00010CBB83100943DF0F9FFDCBD91F86733B4
:1023F00001F51472012B12BF91F8561202F58C727E
:102400000121A0B1D0B502AF9388B0F81541126890
:102410006340D0F8114162401A4390F81731594097
:10242000C90718BF0020002A18BF0020D0BD002017
:102430007047D4D4F0B503AF2DE9000794B002ADD6
:1024400088468146482146F03CFBD8F80C40482697
:10245000334B2946482C38BF26463046482243F0A5
:1024600039FE0546D8F808008A46214628F09AFF2A
:102470008E4251D803462B4800901A4628465146B2
:10248000334645F050FC022C09D22D483BF0C6FCE7
:1024900030463BF0B5FC3BF029FE0A2019E09DF8E0
:1024A0000800441EE5B20E2D12D22046A6F1010A04
:1024B00025F028FB80B282451BD109F1010002A959
:1024C000482261F033FFC9F84C6089F8004008E009
:1024D000072089F80500032089F80400FF2089F807
:1024E0000000D8E9000145F0BFFB14B0BDE80007CB
:1024F000F0BD0D483BF092FC0C480D4CA0470D4838
:10250000A0470D480D4950F8250051F8251039F025
:10251000D1FB0020A047BEE70A4B0A4646F0F9FF70
:102520005C7206007C72060096000000110000003C
:10253000DBDD0300C0010000DCEC0600A4EC0600BB
:10254000970000006C720600F0B503AF2DE9000F94
:1025500095B01C788046FF2C15D045481D46164680
:102560008A4693F801B03BF059FC42483BF035FCF9
:10257000284643F0DDFB032C18BF4FF0080B3BF05F
:10258000B5FD192C05D1FF2088F8000015B046F0E4
:1025900058B8B6F858430FA845F01CFB0F98002810
:1025A00047D0A7F143000094C51C0FA90C2246F0A8
:1025B000C3F8A7F152002946C61C0C2246F08FF83A
:1025C00012AD31460C2246F0B7F802A82946042283
:1025D00024F026FF9DF80800DDE903549DF81860FB
:1025E000FF28DDF8149025D14846314624F006FF37
:1025F000D9B380F800B0304624F0F8FECDE904905D
:102600004046CDE9025402AD009A51462B4626F0D1
:1026100027FB98F80000FF28B5D098E85E00284610
:102620005EC015483BF0FAFB46F097FC3BF05EFDC0
:10263000ACE716209DF80B1088F80310BDF80910C0
:102640009DF81B20A8F80110BDF81910ADF8041072
:102650008DF8062088F81060C8E90154C8F80C907D
:10266000A8F8111088F813208EE7044A45F0E0FC22
:102670008F000000AC010000940000009C72060076
:10268000F0B503AF2DE9000F95B00DF12C08CDE9A1
:10269000012008F1080000240E22039461F046FE98
:1026A000A7F12A061C4D06F10109A7F1230A0DF135
:1026B0000C0B18E0D1F80920B1F80D10A9F804109E
:1026C000294607F82A0C3046C9F8002038F0BFFB2D
:1026D00040B150465946324626F07CFC17F8230C90
:1026E000FF2807D107340E2C1EBF08EB0401087A1F
:1026F000FF28DFD103A9029C45F04DFD0199002080
:1027000084F827000868D1F803102062C4F8231069
:1027100015B0BDE8000FF0BD00730600F0B503AFC3
:102720004DF8048D92B00DF104080D460646114691
:10273000404644221C4661F073FEB868294600906A
:1027400030464246234600F005F812B05DF8048B8F
:10275000F0BDD4D4F0B503AF2DE9000FADF29C6D00
:102760000D46014605F1D0001690DCAE95F8C84044
:1027700006F1600B05F1780A99469046022CCDE9E6
:1027800018155DD11AAE2946C82246F085FC1520E1
:102790009DF8681028710E2028700C2998F8000008
:1027A00000F23483DCAA02F17004DFE811F00D00BE
:1027B000AA0163014B01F2003101FC012F039702D2
:1027C000E7022F03CC02CD00FF2804BF98F80C10BD
:1027D000002900F00D87411E0329C0F0D98200288E
:1027E00040F0108398F80100002801F03F800DF5BB
:1027F0009F68494640462BF0A2FA9DF82165FF2EBE
:1028000001F03D87DCAC0DF59F61292245F061FFA9
:10281000DDF82205214688902922BDF82605ADF86D
:10282000240205F1D00061F081FD8898C5F8FA0016
:10283000BDF8240285F8F960A5F8FE0000F023BF7A
:10284000CDF85C900DF50C792946C822484661F018
:10285000A1FC15209DF830122871122028700F2934
:1028600098F8000000F28B851AAA02F16003DFE8F5
:1028700011F01000A103F6027104A40486056F0391
:10288000BF03FC0386057F05080586058605D9027A
:102890007A03FF2804BF98F80C200A2A40F06F85BD
:1028A000D8F80800002802F0478295F819010C2298
:1028B000D8F8041005F1D006032808BF0822DDF877
:1028C0005CB0DBF8383093F8700393F8713302444E
:1028D00085F81A210C7813B1012185F818110DF52E
:1028E0009F6858B195F81C0195F81D1140F0030040
:1028F00085F81C0141F0030185F81D111AA85946FD
:102900002BF06FFADDF860A09DF89100022807D047
:10291000600741F15E829DF89000022801F0598223
:10292000DCAC31465A462046FFF70BFB9DF870633E
:10293000FF2E01F0A58108F10500611C45F0CCFED9
:102940008DF8FC6401F05BBAFF2804BF98F80C20F6
:10295000082A40F01A82D8F80820002A02F0EA81FA
:10296000D8F804000478DCAE022C80F09A870DF5CC
:102970009F68062A42F2D08150F8011FC5F8111154
:10298000818846F022FE01D046F0C8FB0D2002F0FF
:102990006BB8FF2804BF98F80C10022900F01286CB
:1029A000042800F23682DFE810F07B06F301F30121
:1029B00005007B0605F118010DF59F650DF59F607B
:1029C000902200F19004284661F0E4FB0DF55C7A5A
:1029D000711C112246F000FA0026D8F80400C4E960
:1029E0000006C4E904069DF87003C4E90266C00746
:1029F000C4E9066601F01584B8680AF10102CDE960
:102A00000095002102908CA81023FFF731F9C3E153
:102A1000FF2804BF98F80C20022A40F0B6810DF57B
:102A20009F6405F10801B02246F056FED8E9012363
:102A3000A046B8681B99CDE9009402908CA8FFF7D6
:102A400017F9ABE1042800F27987DFE810F02906D6
:102A500005005107A10129069DF86900002801F031
:102A6000118106F1180016991022CDE90010B11C51
:102A700000F0D9BEFF2804BF98F80C20032A40F0CC
:102A80008481CDF85C9005F108014CA8702261F0BA
:102A900081FB9AE8400A05F198012022DAF80CA09F
:102AA000C6A861F043FC46F026F940F02887D8F824
:102AB00004000DF59F6532464B46D0F8091015917C
:102AC000D0F805101491D0F80110139101781291EB
:102AD000C17B11911799B0F80D0010902846CDE9EF
:102AE00000BAFEF74BFF9DF8F884B8F1FF0F01F034
:102AF000DD818CA8691C45F038FD8DF8348200F02A
:102B000002BFFF2804BF98F80C200B2A40F03D813B
:102B1000D8E901120DF54678404644F083FFD9F814
:102B20002C10BEAC45F037FBD9F830104CAE40222B
:102B3000CA4645F0D4FD0DF59F692146424633460D
:102B4000484644F0A1FE9DF8F804C00700F0DE8678
:102B50009DF8FB0409F106018DF806021222BDF86A
:102B6000F9049DF8FC449DF8FD64ADF804027CA8CE
:102B700061F0DCFB09F1180079A90DF59F650CC81F
:102B80000CC1007808704CA9284605F023F89DF880
:102B9000F804FF2801F0D7810A204FF003088DF8D0
:102BA000710301F0FBB9FF2804BF98F80C20032A39
:102BB00040F0EB8005F10801DCA846F084F846F00F
:102BC0009AF840F0AC86D8F804001B9DCDF85C90D4
:102BD000D0F801100278DBE90E9842EA0122CBF826
:102BE00020201592D0F80930D0F805201C0211954C
:102BF00005F07F0544EA1264120242EA1161CBF843
:102C00002840CBF82410C5F140021491C17BB0F8E4
:102C10000D00139440EA01404146000240EA136A65
:102C20004846CBF82CA0DBE90C6461F0A4FC1290C0
:102C3000304621462A4661F063FBA5F14002044676
:102C40004846414661F05CFB1299402D38BF44EA8A
:102C50000100E649002D08BF3046DCAA61F35F00A1
:102C6000139B02F12001CDE9003ACDE90212049054
:102C7000BEA8DDE9143226F097FCDBE900ACDDE903
:102C8000BE648CEA0401DBE90289DDE9C03589EA2A
:102C9000050008438AEA060288EA03011143084353
:102CA00041F00280DBE904230DF59F64DBE90601B6
:102CB000CDE90001204604F067FF9DF8F864FF2E7F
:102CC00001F0B183611C4CAC45F06CFB8CA8214633
:102CD00045F04BFC8DF8346200F015BEFF2804BFB0
:102CE00098F80C20032A50D105F10801DCA845F022
:102CF000EAFF46F000F840F01A86D8F8040004F124
:102D0000100545F0A3FD0EC5B968E061204602F04C
:102D10005BF8D4E90201D4E900230DF59F64CDE905
:102D2000000149462046FEF729FE9DF8F864FF2E73
:102D300001F044818CA8611C45F017FC8DF83462C9
:102D4000FF2001F076BAFF2804BF98F80C20072A6C
:102D50001BD145F0D0FF40F0128695F8F900DCAEAB
:102D6000022808D0D8F804000AF1680445F06EFD86
:102D70000EC4CAF874000C2000F006BEFF2804BF81
:102D800098F80C200C2A00F04785421E032A36D200
:102D90008CA81AA946F098FE0DF59F68DCAE9DF848
:102DA0003002FF2800F07F840DF50C7A0DF59F604E
:102DB000C822514661F0EEF99DF8F8040E2800F0A3
:102DC0007D84199D0D2840F09C84C84695F8F990A3
:102DD000B9F1020F00F0958495F81A0100F0030094
:102DE000012802BF95F8200100F00300012800F03F
:102DF000BE8495F8F8E04FF0020900F0E5BC002829
:102E000000F03A84042804D100F04ABCFF2840F0C6
:102E1000298498F80C00042800F0C4830D28B7D04A
:102E200000F03EBCFF2804BF98F80C20072A40F0B1
:102E3000A68245F060FF40F03686DDF85CB095F87C
:102E4000F900022808D0D8F804000AF1680445F017
:102E5000FDFC0EC4CAF874000F2000F026BEFF2847
:102E600004BF98F80C200B2A40F08982BEAE09F10D
:102E7000040120229A4645F032FC05F1240B0DF5A1
:102E8000467940224846594661F050FAD8E9011285
:102E90004CAC204644F0C6FD0DF55C783146224628
:102EA0004B46404644F0F0FC9DF87003C00700F02C
:102EB000FF859DF8730308F106018DF8AA00122220
:102EC000BDF87103ADF8A800BDF874431AAE06F161
:102ED000450061F02BFA06F1570008F118010922AC
:102EE00061F024FA06F120004CA945F0EFFB3046D2
:102EF000594645F0EBFB50465021ADF8AB4061F030
:102F0000F2F895F80801811E38BF0221DDF85CB0A7
:102F1000C9B2022901F0EC80DDF860A0032941F07C
:102F20000B810F200DF55C788DF8700346F04DF89D
:102F3000D6AE46F00FF89DF85843FF2C41F0608361
:102F400008F107001AA945F00EFD092001F0BBBBEE
:102F500098F80C10FF2808BF022900F0EA83FF2828
:102F600000F0118249E2FF2804BF98F80C20082ADB
:102F700040F00582D8F80820002A01F0DF86D8F852
:102F80000400DDF85CB00478022C80F0D0850DF5EB
:102F90009F68062A41F2C28650F8011FC5F8111138
:102FA0008188DDF860A046F010FB00F0DA8246F080
:102FB000B5F8D6E2FF2840F0E08298F80C100A2914
:102FC00000F07E85012940F0DE81D8E90112DCA8FD
:102FD00044F084FE9DF87003022840F082860A20A7
:102FE000DDE917BA0DF59F6801F058B9C0FFFF7F02
:102FF000FF2804BF98F80C20022A40F0C08105F198
:103000000801DCA8602261F0C5F89AE8500605F1D5
:1030100088011AA846F003FD45F06DFE40F0598581
:10302000D8F804000DF598788D992246159133460D
:103030000168149141681391816812911799C068D1
:1030400011904046CDE9009AFEF7C8FE9DF830B1D8
:10305000BBF1FF0F01F022800DF59F6246F0B2FD3B
:1030600045F03AFB8DF8FCB4F6E1FF2804BF98F870
:103070000C20032A40F0838105F10801DCA845F00B
:1030800022FE45F038FE40F02D858D985D46DBF838
:1030900030A0DBF8341000F07F04DBF838B0A4F186
:1030A0004002D5F83C901491139058464946D8F800
:1030B0000460CDF854A061F023F91499804650467D
:1030C000224661F01DF9C4F1400282465846494645
:1030D00061F051FAF368D6F800907268D6F808B03B
:1030E000DCA9039120310291402C1493CDE900B367
:1030F00038BF4AEA00081598002C08BF8046DB4814
:1031000046F038FD90461AA84A46434626F04CFA47
:10311000D5E902E3DDE91A42D5E900C1DDE91C6029
:103120005140584084EA0C02084386EA0E011143DC
:10313000084340F0E18514981399C5E90898C5F84B
:1031400028B01329E862199D41F0AD800DF59F600C
:10315000DCAB8CE0FF2804BF98F80C20022A40F07A
:103160000E8105F108011AA8B0221C4661F012F880
:1031700045F0C1FD40F07483D8F8040045F066FBCB
:1031800084E80E00B968E06004F1100001F01CFE54
:10319000D4E90601D4E90423CDE90001DCAC45F013
:1031A000E8F99DF87063FF2E40F06286E01D1AA9D1
:1031B00045F0D9FB042000F06BBEFF2804BF98F84F
:1031C0000C20032A40F0DB800DF1680B05F10801AB
:1031D000B0221C46584660F0DDFF45F08CFD40F003
:1031E0003F83D8F804000BF120028168D0F80CA0CE
:1031F000D0F80490D0F800800020CDE9001ACDE985
:1032000014214B46CDE9022B42460490C6A826F075
:10321000CBF9D4E902E3DDE9C652D4E900C1DDE926
:10322000C860514058408CEA050208438EEA060106
:103230001143084340F0718504F11003159DC4E962
:1032400008890FCBC4E90A5A149CCDF800B001AE2E
:1032500086E81003CDE9045A26F0E4F9199D95F8A3
:103260000811022941F03D800DF59F601AABDDF891
:103270005CB0169A5946FEF761FFDDF860A000F0D9
:103280002DBCFF2804BF98F80C200C2A77D105F13B
:103290000801DCA8502206F1100460F07BFFD8E999
:1032A000010104F1280A0D902069129060691190C3
:1032B000A0691090E0690F90206A1390606A1490E2
:1032C000606B0E9005F58F709AE800071591D4E9B0
:1032D0000E6B44F03AFCD5F8142120F07F40D5F86D
:1032E0001111CDF833214C91D5F80D21D5F80A11E3
:1032F000CDF86B201A91CDE9086B0A904CA80B9081
:103300001AAD1298029011980390109804900F989B
:10331000CDE9050A0E980C95CDE900890790D6A84D
:10332000DCA9DDE9132326F0DBF81598102806D177
:10333000D6A90D982BF0C9FF002800F0F8844FF0B3
:103340000B080326199DDDE917BA0DF59F60BEA98C
:103350000630122260F0EAFFFF208DF8FD848DF820
:10336000FC64DCAE8DF8F8040DF59F6801F0B8B987
:10337000FF2804BF98F80C20032A00F05A82FF2887
:1033800009D198F80C10042922D046F093FB0D299E
:1033900000F0F880FFE00539082900F2EE80DFE850
:1033A00001F0052CECEC81ECECD1E9000DF59F6807
:1033B000012800F09482DDF85CB0022840F0EB8038
:1033C00040F60340DDF860A0ADF8FC0401F08AB9D6
:1033D000DDF85CB0D8F80800002801F0A78446F0BA
:1033E00051FB8DF8FC14411E102928BF08208DF8D0
:1033F000FD04DDF860A001F075B9032840F0BD8040
:103400000DF55C7A05F118019022504660F0C2FE7D
:103410000020D8F804100DF16808179BCBE90C10B8
:103420005246CBE910100021CBE90E00CBE9120087
:10343000B868009040469DF83162FEF7F7FD9DF8B0
:103440006840FF2C00F052830DF59F6246F0BAFBF6
:1034500045F042F98DF8FC44FF20DDF860A08DF8BE
:10346000F804DDF85CB001F038B900BFC0FFFF7FA1
:10347000D0A20600990000009D000000A4000000FA
:103480009B0000008D000000950000007D65040099
:1034900054E30600A6000000900000009A0000001F
:1034A0008B000000042868D10DF1680905F10801BE
:1034B000B022484660F06EFED8F8010008F1210401
:1034C00014902022D8F8050021461590D8F809005C
:1034D0001290D8F80D0013904CAE45F000F95FF84B
:1034E000701020462BF0F1FE40B95FF87C1006F119
:1034F00010002BF0EAFE002800F087844946DDF832
:103500003C91DDE94DA82031DDF830B10020CDE956
:103510000089CDE9021153460490DCAC5A4620469E
:1035200026F042F806F1100120462BF0CEFE0028CE
:1035300000F06F84FF208DF8F80440F20340ADF8EE
:10354000FC04C9E2C8B998F80100002800F04F83D4
:10355000DDE917BA0DF59F6895F82301800700F1A2
:10356000BF8595F822110DF59F605A46FEF76CFC59
:1035700001F0B4B8002800F0AB8146F09BFA0138A6
:10358000022808D20DF59F608CA946F09DFADDF85F
:1035900060A001F0A3B81520DDF860A08DF8FC0450
:1035A00001F0A0B8D8F80800002801F0C18346F067
:1035B00069FA8DF83412411E102928BF08208DF8B1
:1035C000350270E045F097FB40F05981D8F80410BF
:1035D0008CACA01C45F051F90DF59F6805F1180160
:1035E00008F1060045F0BFF945F0B1F904204AE1C1
:1035F0000DF59F604946D8E901A917912AF0F1FB22
:103600009DF8210502281ED00D200DF59F688DF82C
:10361000F8040DF55C7B17984346816A826B584627
:103620002AF00AFB9DF87003FF280BD09BE85E0090
:1036300040465EC05FF8C4013AF0F0FB45F0E6FB9F
:103640003AF054FD199D0DF59F6051464A4644F0ED
:1036500045FB9DF8F844022C40F01A81DDF85C909F
:103660000A2089E2072908BF042800F09081421E41
:10367000032AFFF48DAB98B90A2911D198F80100FB
:10368000002800F0F38095F81D01800700F16182A9
:1036900095F82201DCAE80074CBF0B200D2073E1B2
:1036A000152046F002FA8CA808F10401043090E8D5
:1036B0007C000E207CC1DCAE8DF8F804301D08F1D2
:1036C00004012FF049F80C20D9F828108DF8700368
:1036D0003346D9F838204CAC20462AF0ADFA46F0F3
:1036E0000FF80DD0304694E86E006EC0DCAE5FF887
:1036F00078023AF093FB304642F00CFB3AF0F6FCCD
:10370000199D0DF59F61284646F0DEF98CAC2946DF
:10371000204642F0A1FFFF208DF870039DF8300293
:10372000FE2818BF2646189D96E81F001FC501F009
:1037300017B845F0E0FA40F0C480D8F804100DF551
:103740009F6808F1020045F098F8B01D05F11801D6
:1037500045F009F9012031468DF8F90408F112000D
:10376000B62260F0E3FDDDF85CB00620ADE04CAEC3
:10377000169A414630462AF088FA45F0C1FF0DD02E
:103780000DF55C7B96E83E0058463EC05FF814039A
:1037900046F048F945F07CFF3AF0A8FC169805F190
:1037A000E00EAC4654460168179141681491816857
:1037B0001591D0F80CB09EE86F006FC4DDE91421BC
:1037C00017989CF8F8E0DCAECDE9E01B06F1180193
:1037D000CDE9DE028DF871E39AE87D007DC10B2012
:1037E000DCAE8DF8A1938DF8A0E333468DF870031D
:1037F000D8F82810D8F838204CAC20462AF01CFA0B
:1038000045F07EFF3FF47CAF304694E86E006EC01A
:10381000DCAE5FF894036CE706F10800169BD8E96C
:103820000112CDE900308CA84B46FEF7DDF8FFF71A
:10383000B3BA05F10801DCA845F045FA45F05BFA9A
:103840000ED1D8F8040045F001F8FF90FCA80EC096
:10385000DCAB0DF59F60DDF85CB045F088FF72E1F0
:10386000FF20DDE917BA45F0A4FB6EE15FF8EC0339
:103870003AF0E0FA45F0C5FE40F6037053E005204B
:1038800046F013F9FF20DCAE8DF83002FFF789BA5D
:103890009DF8FA64DDF85C90300700F16681032042
:1038A0006AE15FF81C043AF0B9FA204638F09EFB52
:1038B0003AF01CFC05200DF59F688DF8340201F0EC
:1038C000D2B846F034F90DF59F68DDF860A098E2B3
:1038D00098F80100002800F098811120F1E0DDF84F
:1038E0005CB009F108030DF59F6045F040FF4EE61E
:1038F00040F603400DF59F68ADF83402D3E640F67C
:103900000320ADF8340245F07CFE18E340F60330A6
:10391000ADF8340245F075FED146FFF73DBA45F0EB
:1039200070FE40F60320ADF83402FFF735BA45F0DB
:1039300068FE05208DF83402FFF72EBA9DF8690065
:1039400000287FF466AA98F80C000C287FF461AA7E
:1039500045F0D1F940F0DA85D8F804108CACA01C01
:1039600044F08BFF0DF59F6805F1180108F1060082
:1039700044F0F9FF44F0EBFF032000F0CBBD05203D
:103980008DF83402FF20DCAE8DF8300212E3CDF862
:103990005C9005F108014CA845F095F908F1210665
:1039A0000DF546792022484646F094F95FF8401517
:1039B000D8F80D0015903046D8F80140D8F805B079
:1039C000D8F809A095F81E5142F0D0FD40B95FF833
:1039D000601509F1100042F0C9FD002800F02D84A7
:1039E000CDE913BA0DF55C7ACDE91154C6AB0DF5EE
:1039F0003E780FCB109045F0D8FD0F914146BE9018
:103A000050460E920D9337F0AFFF0DF59F640026E0
:103A100051464FF4B8722046CDF8DC64CDF8D86436
:103A2000CDF8D464CDF8D064CDF86866CDF86C6676
:103A3000CDF87066CDF8746660F0F2FC0DF55C7A36
:103A400021464FF4C072504660F0EAFC8DF8F064F5
:103A50004CA800F120045FF8CC9550462022214666
:103A6000C847504621462022C8470DF59F6B504657
:103A700001228DF8F8645946C847584651464FF41C
:103A8000C27260F0CDFC9DF878A60BF5B8715FF8B6
:103A900000361022504642F018F8002970D000F885
:103AA000016B0139F9E746F042F88DF8F8044AE075
:103AB00040F60330ADF8FC04FF208DF8F8040BE06D
:103AC0000120DDF860A045F0F5FF8DF8F80400F066
:103AD0004BBEFF2045F06DFADDE917BA0DF59F6882
:103AE00000F0FBBD05200DF59F680AE1DDF860A040
:103AF000F00700F0618109F1020044F0A7FE8BE8B5
:103B00000E00CBF80C00DBE90601DBE90423CDE96C
:103B100000011AAC44F02DFD9DF868600DF59F681A
:103B2000FF2E00F0A18408F10500611CD3E35FF8CB
:103B30009C063AF073F9204638F058FA3AF0D6FA73
:103B4000FF2045F036FADDF860A00DF59F6800F023
:103B5000C5BDD9F83CA00AF108030FCB45F057FAD0
:103B600000F0F18282AC0FC4F2E29DF8FB84B8F160
:103B7000100F80F0328206208DF83502032090E588
:103B8000A7F13C060024584647F83C4C31468DF8D6
:103B9000784647E90E4447F8304C42F04BFDA7F118
:103BA0002C09314648462EF063FE0BF5B076102CFA
:103BB0000AD00BEB0400013490F8601190F87021EA
:103BC000514080F86011F2E7BAF1100F40F02E82F8
:103BD000DDF850A00DF59F68DDE9124B002010289C
:103BE00000F03D8219F8001044F0ABFFF7E75FF8F2
:103BF00058073AF01FF940F60370DDE917BAADF83F
:103C0000FC040DF59F6800F06DBD0D200DF55C788E
:103C10008DF870030DF1680917984346816A826B2D
:103C200048462AF009F89DF86800FF280CD099E86A
:103C30006E0040466EC0DCAE5FF8A00745F0F2FEB5
:103C400045F0E4F83AF052FADDF860A0E00700F041
:103C50004982DCACDDE9161B5A462046FEF771F9B5
:103C60009DF870630DF59F68FF2E00F0588408F1F1
:103C70000500611C44F030FD8DF8FC6400F0ACBF21
:103C80000120BDE00DF59F6805F1180108F107005E
:103C900044F069FE092041468DF830028CA844F0BA
:103CA000A2FDDCAEFFF780B85FF80C089B461595C7
:103CB000354666463AF0B2F85046314642464B46E3
:103CC00041F05AFF159B284621465A4641F054FFC1
:103CD0003AF00CFA45F095FC40F20340ADF834029E
:103CE0002DE19DF872130DF59F68DDE917BA0A07FB
:103CF00000F1CE820320D1E2199D0DF59F68DCAE64
:103D0000032004218DF8FC04FF208DF8FD148DF8AC
:103D1000F804DDE917BA00F0E1BC199D0DF59F68C4
:103D2000DDE917BA40F60340ADF8FC04F4E2DDF833
:103D300064B0AC4602269BF81A119BF820519BF800
:103D4000080101F0030105F0030581F001010228DB
:103D500085F0010508BF01262943B1FA81F1D4E9B4
:103D600000234909D4E902040391654617998DE8B7
:103D70005100604629F0EEFE0DF5467AA91C12228C
:103D80009DF8686050469DF869809DF8914060F00C
:103D9000CDFA022C40F0C582BEA8BAE82E00FF2E54
:103DA0002EC05D46BAF80010DDF860A0DDF85CB00A
:103DB00001807FF4CAAAF1E20DF59F68DCA908F141
:103DC000080044F080FF0020CDF8FC040720FFF736
:103DD00046BBDCAC5946204629F0B1FF9DF89963FB
:103DE000FF2E40F0DE820DF5987C94E86E00604670
:103DF0006EC008F104009CE83E003EC0199DFF2003
:103E0000DCAE8DF8F80400F06BBCDDE94CBADDE9FE
:103E10004E891AA8129E00F1700495F81E01002820
:103E200008BF0646159908BF0146149A08BF024606
:103E3000139B08BF0346C4E90821B968C4E90A63B3
:103E4000C4E90CBAC4E90E89DCA800F0BDFFDDE9C5
:103E5000DE01DDE9DC23C4E90023C4E90201CDE988
:103E60000001DCAC44F085FB9DF87063FF2E0AD0A6
:103E70000DF59F68611C44F0CDFAFF208DF8FC64BD
:103E80008DF8F8040EE0E01D1AA944F06CFD0A203C
:103E90000DF59F688DF8F80408F101002146B7225E
:103EA00060F044FADDF860A000F017BCDDE9101006
:103EB000702241EA00484CA9DCA860F06BF9149A22
:103EC0001399100284E8400A40EA1165129840EA0A
:103ED000012315991393080240EA12624FEA082061
:103EE00040EA11681492C4E905522022C4E903A3F0
:103EF000C4F81C80DCAC04F19000C6A960F016FA8E
:103F000004F12000149A8DE8510A2946434613987B
:103F1000CDF814A025F086FB199991F80811022913
:103F200040F063820DF59F64DCA9E01D44F01BFDA9
:103F3000092021468DF830028CA844F054FCDDF8AD
:103F40005C90FEF729BF1794D6A800F10208291D3E
:103F5000102245F008F882A84146841C44F026FA55
:103F60000DF508782146102244F0FDFF0DF55C792F
:103F70005146424645F08BFE9DF87083B8F1FF0F25
:103F800000F07C8299E85E0028465EC0DFF8F80DFC
:103F900039F044FF44F0E1FF3AF0A8F88CA8DCAE19
:103FA0000530711C44F098FBFF208DF834828DF8A9
:103FB0003002D1460DF59F68FEF7F1BEE01DDCA989
:103FC00044F0D1FC092021468DF830028CA8013044
:103FD000B72260F0ABF9FEF7DFBEBDF8FCA49DF898
:103FE000F9945FEA8A7042BF95F81C0140F0020024
:103FF00085F81C015FEA8A5040F176841798C36BFC
:10400000D3E902E1D3E9042341EA030C4EEA0200BA
:1040100050EA0C0000F05284CDF8F8E4CDF8FC141E
:10402000CDF80025CDF8043500F051BC16F80A0093
:10403000A7F12C0180F0800006F80A0040462EF01F
:1040400017FCDDF850A00020DDE9124B102804D049
:1040500018F8001044F075FDF8E70DF59F680DF5B0
:104060009F60314642F0E6FA0FCE45F09EFABE90D0
:10407000C6A800F11001BEA842F078FADCAE119D8E
:10408000DDE90F9C0028DDE90D3E00F0DD8045F004
:10409000B8FA40F20340ADF83402F5E00DF59F6840
:1040A000DCA908F10800602208F1680560F072F8E8
:1040B000149805F10C01286030221398686012985A
:1040C000A8601198199D81E8510608F188001AA985
:1040D00060F02CF91598CDF8FC040820FFF7BDB965
:1040E0000E20F2E4DFF87C0C39F0A4FE1020EAE4A4
:1040F000DDF860A0002800F016820A200DF55C783B
:104100008DF8700344F061FFD6AE44F023FF9DF8B4
:104110005843FF2C40F0748208F106001AA944F0BD
:1041200022FC0DF59F620620ADF8F804414602F12D
:1041300012009046B622CEE208F107001AA944F018
:1041400012FC0320BFE20020CDE98400CDE982000B
:104150000DF59F6882A9404603F0E4FD9DF8F84400
:10416000FF2C52D14CA84E4600F1030908F104017E
:10417000102245F06BF9D6AC494644F017F90DF51D
:104180009F68314622461796404629F0B0FC9DF8BC
:10419000F844FF2C40F02381DAF80000C10700F05A
:1041A0006C82DAF80410000A0DF59F660A0E8DF88D
:1041B000F6210A0A40EA01607C90ADF8F4217CA95E
:1041C000304603F0F9FD9DF8F844FF2C40F03584AB
:1041D000311D484644F051FBBEAE494643F093FFC3
:1041E000DDF85C900DF59F6832464046494629F05F
:1041F0007EFC9DF8F844FF2C3FF44AAA08F1010127
:10420000C6A844F069FA00F023BC4CAD08F10101E6
:1042100044F0C3F9C6A84ECD4EC045F08FFB00F068
:1042200017BC8CA80DF59F61083044F04CFD8D96AD
:1042300005208DF83002FEF7AFBDDDE9C6C90DF5EA
:104240009F68DDE9C8E3DCAE4CA8903015F00101B1
:1042500002BF8A468B460C46159A08BF0A46C0E93B
:1042600002A2C0E9004BB022C0E904C9C0E906E3DC
:1042700008F107004CA960F059F8082041468DF874
:1042800030028CA844F0AFFADDF85C90FEF787BDF1
:104290009DF873230F2A00F2BC8106208DF8FD04DF
:1042A0000320FFF77BB9B8684C1C0090DCAADDF84E
:1042B0005CB00DF16808214640465B46FDF7B6FE4E
:1042C0009DF86860DDF860A0FF2E00F0E9810DF533
:1042D0009F6245F077FC44F0FFF98DF8FC64FF2005
:1042E000E8E1DDF85CB009218DF870130DF55C781C
:1042F000DD9044F06AFE4CAE44F02CFE9DF8304157
:10430000DDF860A0FF2C00F0D8810DF59F68711CCE
:1043100044F080F88DF8FC44FF20DCAE8DF8F80402
:10432000DCE105F1140C15940DF598792946BCE8EB
:104330003D00CE46AEE83D009CF800008EF800003F
:10434000BDF89600ADF80C02DDF8920082900846A8
:10435000BAE83C003CC0BAF8002002800BF1D20061
:1043600012228BF8D1808BF8D0605FF0DFFFB9E8C4
:104370003E000BF1E4003EC05D4615998BF8F91044
:1043800099F8001001708298CBF8FA00BDF80C0281
:10439000ABF8FE00DDF860A0DDF85CB00C20FEF7A5
:1043A000E0BF4CA8DCA945F0F6FBDDF89A03022E2D
:1043B000C690BDF89E03ADF81C0300F0B4844CA970
:1043C00005F1D00045F0E7FBC698C5F8FA00BDF846
:1043D0001C03A5F8FE000D2085F8F96010E508F132
:1043E0000101C6A844F078F930E3DDF85C900921BA
:1043F0008DF8F8140DF59F68CDF8FC04D9F8281055
:104400004346D9F83820BEAE44F0A4FD9DF8F842EA
:10441000FF2C00F030828CA8711C44F0A6F88DF8B7
:104420003442FEF78DBC4CA8211DC61C43F06BFE28
:10443000C6AC314643F0BAFFDDF85C900DF59F66DF
:1044400022463046494629F052FB9DF8F8440DF5C6
:104450009F68FF2C00F01D828CA8711C44F085F829
:10446000FF208DF83442C7E308F10800DCA944F0CE
:104470002AFC0020CDF8FC0408201BE14CA948468A
:1044800044F024F909F12004C6A943F084FE1798EA
:1044900012228DF8B303BDF80402ADF8B0039DF805
:1044A00006028DF8B20309F145008DF8B4637CA9CA
:1044B0005FF03CFF09F1570079A909225FF036FF50
:1044C000584650215FF00FFE199890F80801023805
:1044D00038BF0220C0B2022800F0CA82032840F090
:1044E000FB820F200DF59F6844F0F8FDD6AE44F036
:1044F00031FD9DF85853FF2D40F0708308F10700FF
:10450000DCA944F030FA072041465DE5052045F07E
:10451000CCFAFF208DF83002DCAEFEF742BCDCAEF8
:104520000120FFF7D2BA1AA8D7F80880903015906A
:1045300010301490DF4840F2FF1B4FF0FF398246E5
:10454000404636F0E0FA044640460E4636F0DBFAC6
:10455000D94D0023A0FB0502E1FB0523A4FB054187
:10456000A6FB05566D184FF00001464152F10002BE
:1045700053F1000024EA0B0341F10001BAEB0303FD
:1045800079EB050379EB060379EB0202D8D3149B90
:104590000022DDF85CB083E80700DA60159BDD904F
:1045A00083E807000821DA608DF87013DBF8281023
:1045B000DBF83820D6AEDCAB44F0CCFC9DF8584399
:1045C000DDF860A0FF2C40F03182B8680021009037
:1045D000DCAE1AAA5B4630464FF00008FDF726FD18
:1045E0009DF87043199DFF2C0AD10DF59F641AA9FF
:1045F00004F1080044F067FBCDF8FC84A04658E0C5
:104600000DF59F68711C43F005FFFF208DF8FC44F9
:1046100050E085F8201105F58F7185F81E0105F52C
:104620008C70BDF874339DF87143A5F8223185F87C
:10463000212185F81F4143F093FA85F809112022C2
:10464000DBF82C1085F808014CA85FF06FFEDBF852
:104650003010DCAE402244F042F80DF168083146DB
:10466000404603F0B7FA9DF86800FF2800F080820A
:104670000A2003248DF81903A4E20524E6E1DCAD49
:1046800098E85E0028465EC029468CA800F1040C1C
:1046900091E85D008CE85D002E46FF20FFF774B9BD
:1046A0000DF59F68DCA908F1080044F00CFBCDF87B
:1046B000FC4407208DF8F8040FE008F107001AA960
:1046C00044F051F905200DF59F628DF8F804501C57
:1046D00041469046B7225FF029FEDCAE9DF8F80413
:1046E000FF2841D108F10400311D90E87C00122020
:1046F0007CC1DCAE199D8DF8700308F10400311DFA
:104700002EF02AF80C20DBF828108DF8F804434628
:10471000DBF838204CAC204629F08EFA44F0F0FF4C
:1047200009D044F042FDDFF8540645F07BF944F02F
:104730006DFB39F0DBFCDCA9284645F0C5F91AAC65
:104740002946204641F099FFFF208DF8F8049DF896
:104750006800FE2818BFA04698E81F008AE81F00DE
:104760000DF29C6D43F06DBF0DF59F69DCA8C8226A
:1047700049465FF00FFD9DF870031228BDD0112847
:10478000D9D195F8F910022904D1DFF8E80539F0FC
:1047900051FBD0E795F81A0100F00300012802BF91
:1047A00095F8200100F00300012806D095F8F8E004
:1047B0000DF1680B4FF0020A2FE015910DF5987876
:1047C000DDE916614046324629F05FFA44F098FF71
:1047D0000BD098E83E0048463EC0DFF8900545F013
:1047E00021F945F04EFA39F081FC306805F1E00E10
:1047F00014900DF1680B7068A84613905C46D6E9DA
:1048000002AC9EE86F006FC4514698F8F8E00DF5D1
:104810009F68139A1498DDF854A0CDF80CC509F1DF
:10482000180CCDF80425CDF800058DF8F9E4CDF885
:1048300008159BE87B008CE87B000B204B468DF82D
:10484000F80417988DF829A58DF828E5816A826B00
:104850004CAE44F07FFB44F053FF09D045F0B9F86B
:10486000DFF80C0539F0DAFA45F00BFA39F03EFCC6
:10487000DDE918A55FE708F10600DCA944F073F84C
:104880000320ADF830028CA812304146B622FFF763
:10489000A0BB119C132C40F0A781F01DDCA944F0B3
:1048A00062F8092031468DF830028CA843F09BFF56
:1048B000FEF774BAFFC5FCFF40420F000020CDF8A0
:1048C0000405CDF80005CDF8FC04CDF8F804DFF8B8
:1048D00098140DF59F602AF0F8FC28B195F81D0199
:1048E00040F0020085F81D0195F819010C21A5F88A
:1048F00022A105F58C7B85F82181032885F82061AC
:1049000085F81F9185F81E4108BF0821DDF85C90ED
:10491000D9F8380090F8702390F87133881885F82A
:104920001A0105F58F7013B101218BF8001059465B
:1049300043F016F9199A82F808010DF59F6082F884
:104940000911012103F0D0F89DF8F8A4BAF1FF0F86
:1049500043D19DF80865DDF80445BDF80905ADF8BB
:10496000180331469DF80B058DF81A032046DDF833
:10497000FC84DDF8009522F041FD44F0DEFA584653
:104980001A4643F09BF9C0B2022848D1CDF8FC94F6
:104990000DF55C79CDF8F8840DF59F68BDF8180326
:1049A00017994246ADF805059DF81A038DF80705DD
:1049B00048468DF80465CDF8004529F098F89DF833
:1049C00070A3BAF1FF0F6DD1DDF85C900DF59F6813
:1049D00001208DF83002FFF764B99DF808259DF895
:1049E000FB048DF88023DDF804258DF87303BDF8F2
:1049F000F904DF92DDF800259DF80B15ADF8710381
:104A0000BDF80905DE92DDF8FC24ADF830018DF823
:104A10003211DD928DF88313ADF881034FE04046EB
:104A2000494643F021F94FF0050A46E00DF59F682D
:104A3000711C43F0EFFC199DE7E54CAD711C43F090
:104A4000ACFDC6A84ECD4EC044F078FFDDF85C90BA
:104A5000DCAE8DF834428CA8C6A9053013220DF5C2
:104A60009F685FF063FCFF208DF83002FEF797B976
:104A7000199890F80901002800F0CE800A200DF561
:104A80009F6844F02BFBD6AE44F064FA9DF858536F
:104A9000FF2D40F0A38008F10600DCA943F063FF7E
:104AA0000420EEE699E85E0040465EC0BA4839F060
:104AB000B5F944F0ABF939F019FBDDF85C90DCA9ED
:104AC0008CA80530013113220DF59F685FF02EFC94
:104AD0008DF834A2FEF7E7BDB9680BF1100000F0C5
:104AE00073F9DBE906010025DBE904238DE8030205
:104AF0000DF59F60CDE9034524F056FDDDF8041562
:104B00000DF59F68DDF8F824DDF8FC34DDF80005CC
:104B1000CBE90201CDE900014046CBE9002303F0D7
:104B20000DF89DF8F854FF2D6AD182A808F1040110
:104B3000C61C43F0E8FA88AC314643F037FC0DF56B
:104B400056795146224645F0A2F89DF85853FF2D5C
:104B500040F0808008F10700DCA943F004FF022048
:104B600041468DF830028CA843F03DFEFEF7D4BEDE
:104B7000BEA808F10401861C43F0C5FAD6A8314648
:104B8000841C43F013FC0DF50279214610225E4689
:104B900044F05CFC0DF5467B31464A46584628F009
:104BA000A6FF9DF81843FF2C3DD09BE86E004046C1
:104BB0006EC0694839F032F944F028F939F096FAB4
:104BC000DDF85CB0C6A90DF59F6808F1050001315C
:104BD00043F082FD8DF8FC44DCAE83E58CA8711CAB
:104BE000053043F079FD46E08CA8DCA9083044F09C
:104BF0006AF8601C8D9005208DF83002FEF7CEB863
:104C000082AE08F10101132243F069FDD6AC3146B2
:104C1000601C43F061FD29E0DAF80000D146A0B342
:104C2000D9F804104EE008F103004CA943F04EFD02
:104C30000DF59F64DCA904F1240044F082F9022000
:104C400041468DF8F804601C2322A0465FF06EFBFD
:104C5000FEF707BC99E85E0040465EC04D4839F05B
:104C6000DDF844F0D3F839F041FAD6AC8CA8611CD9
:104C700043F07BFCD146FF20DCAE0DF59F688DF83C
:104C800030028DF83452FEF78AB8BD68314B404C83
:104C9000D5F8000140280BD32846002126461C46A3
:104CA00023F0CEFAD5F8000140284AD223463446F4
:104CB000421C55F82000C5F80021A0FB0301A042CA
:104CC0001046E7D80BF140000BF130020026CDF87A
:104CD000FC14C0E900160DF55678C2E900160DF572
:104CE0009F63C2E90266D9F82810D9F83820C0E9D4
:104CF000026608208DF8F804404628F09DFF9DF8D4
:104D000058538CA8FF2D03D10830DCA9FFF78DBACA
:104D1000053008F1010164E7194B00E00B4B01205D
:104D2000072138F0B5F90D4838F0CAFE124A06E0FE
:104D30001A4A04E0134A02E0094A00E0044A43F038
:104D400077F9124A402138F0E9F900BF8C7106006A
:104D50007C71060040420F00A30000006C71060049
:104D60005C71060091000000D0A20600A5000000C2
:104D70009C000000A70000004C7106009E0000008F
:104D800070E1060060E10600A2000000A8A0060095
:104D90007F3DF1FF9F000000980000002C7106008D
:104DA000D0B502AF92B0BC688DF81020FF228DF80C
:104DB0000420CDE902343A69FB68009201AAFDF7AC
:104DC000C9FC12B0D0BDD4D4F0B503AF2DE9FF07B4
:104DD000DFF8949000260D468046EA46CDE902664B
:104DE000CDE900660F2E1ED8D5F80041402C07D320
:104DF0002846002123F024FAD5F80041412C2AD27C
:104E00003046514610224B4640F05FFE02460B46AC
:104E100005EB8400C4F140013AF0FCFD2044C5F8E4
:104E200000010E44DEE704A89AE81E001EC004AB91
:104E300043F071FD1FBFA8E80F0008B0BDE80007F0
:104E4000F0BD084838F0EAFF04A841F091F839F0C5
:104E50004DF939F099F8054B20464021402238F0B1
:104E600017F900BFAD000000B4E8060098A00600E6
:104E7000F0B503AF4DF804BD856804686DB14268B4
:104E8000C66804F10800531B00EB4211B21A00EB94
:104E9000431052015FF0C5F800E0C668701B206047
:104EA00043F054BC80B56F4690F81414032918BF22
:104EB00080BD00F58470BDE8804001F057BC80B52E
:104EC0006F4618B1BDE8804042F0CEBE80BD80B5CF
:104ED0006F46818A022908BF80BDD0E9003182680F
:104EE0001846BDE8804000F0E3BE80B56F4601691A
:104EF00039B1D0E9003182681846BDE8804000F041
:104F000059BD80BD80B56F46D0E90012114308D06D
:104F100090F88C10032904D10830BDE8804001F0DE
:104F200004BD80BD80B56F46016819B1BDE8804001
:104F300000F0D3BB80BD80B56F46C24312061CBFD4
:104F4000BDE8804001F048BE80BDD4D480B56F4636
:104F500005480021012201600449425001680029EE
:104F6000FCD00021016080BD14710040F4FEFFFF01
:104F700080B56F46017B052918BF032904D1143081
:104F8000BDE8804001F06FB880BD80B56F4690F8F5
:104F9000441031B1032918BF80BDBDE8804000F046
:104FA000E9BA3830F9E7D4D4D0B502AF0446006886
:104FB00020B943F079FE43F026FCD0BD044838F018
:104FC0002DFF3FF0A9FF39F091F838F0DDFF00BF69
:104FD0003E000000D0B502AF0446103024F06BF85C
:104FE00041F27C0020443EF087FD41F288002044DD
:104FF000BDE8D0403EF080BD80B56F460168012914
:1050000018BF80BDD0E90110C968BDE880400847DD
:1050100080B56F4690F87510032918BF80BDD0E9A0
:105020000010C968BDE880400847D0B502AF04460B
:10503000D0E90001084304BF207B032808D0D4E94D
:105040003201084304BF94F8D40003280AD0D0BD2D
:10505000207E06280ED00428F1D104F12000FFF7AD
:1050600087FFECE794F8E800062808D00428EED182
:10507000282005E004F1200000F0F5FFDFE718200C
:1050800004F1D8010844BDE8D04000F0ECBFB0B551
:1050900002AF04460025902D08D06019017D032938
:1050A00004BF043001F0BEFB1835F4E7B0BDD4D422
:1050B000F0B503AF2DE9000F8BB0044690F83C0F1C
:1050C000032805D040B904F69800FFF7AEFF03E0CF
:1050D00004F6182000F0EEF9D4F8A80704F59D6551
:1050E00038B994F8BC07042804BF04F5F86001F04F
:1050F00025FDD4E90C01084301BF94F844000328BE
:1051000004F1500000F0C4FED5E90001084307D1C6
:1051100094F8FC04042804BF94F8A007032801D0E5
:1051200043F038B9D4F8000738B994F826070428B2
:1051300004BF04F5E56000F08AFFD5E93E01D4F82C
:10514000E82500F037FCD5E93A01D4F8D82500F07D
:10515000AFFDD5E93601D4F8C82500F091FCD5E9BA
:1051600032A09D490190D4F8B8050968C90540F0FE
:105170002E819B4924F029FB0646D0E9005B806B19
:1051800006F1400900910138B063484620F04CFE1A
:10519000B5EB00086BF10000BAEB0801019971EB67
:1051A000000039D30DF1080B4946584624F08AF81F
:1051B000BAEB0800069004D0411E02A835F0C3FDEA
:1051C00060B10DF11C089BE82E0040462EC0404601
:1051D00028F007FC10B143F06FFDF8E702AD0020A6
:1051E000D6E91012891A18BF012196F848201143F8
:1051F000C9070BD0316D49B9284649463AF0CCFF72
:105200000298002800F0E0800120E9E7C0071CBFF9
:1052100006F12C003AF0AAFF009904F59D6543F0D1
:1052200091FAD5E92E01D4F8A82500F089FCD5E93A
:105230002AB069490190D4F898050968C90540F079
:10524000C680674924F0C1FA0646D0E9005AC06F0B
:1052500006F1080900910138F067484620F0ACFDDE
:10526000B5EB00086AF10000BBEB0801019971EB96
:10527000000033D30DF1080A4946504623F094FF4D
:10528000BBEB0800069004D0411E02A835F05BFD80
:1052900040B144F004FD404628F0A3FB10B143F0B8
:1052A0000BFDF8E702AD0020D6E90212914202D1CF
:1052B000327CD2070CD006EBC101896941B928467E
:1052C00049463AF0B3FE029800287DD00120EBE772
:1052D000C0071CBF06F170003AF048FF009943F088
:1052E00031FA3D4904F59D60D0E926BAD4F8880525
:1052F0000968C9056BD13A4924F067FA0646D0E936
:105300000058D0F8EC0006F1080901910138C6F800
:10531000EC00484620F096FD2D1A68F10000BBEB2A
:1053200005017AEB000037D30DF1080A49465046D3
:1053300024F019F8BBEB0500069004D0411E02A82A
:1053400035F036FD48B144F0AAFC404628F0ABFBEE
:1053500018B1816801398160F7E702AD0020D6E914
:105360000212914202D1327CD2070FD001EB4101EF
:1053700006EB8101C96949B9284649463AF080FFE0
:105380009DF8080002281FD00120E8E7C0071CBFD5
:1053900006F1E0003AF0EAFE019943F0D3F9D4F8BF
:1053A000701519B1D4F87405C9688847D4F8781510
:1053B00000293FF4B5AED4F87C05C9680BB0BDE850
:1053C000000FBDE8F0400847064838F079FB034875
:1053D00038F030FD38F0D8FD04ED00E03D0000006D
:1053E00010930600B09C060080B56F46017B032930
:1053F00018BF80BD1030BDE8804001F0BEBBD0B505
:1054000002AF044690F83B0003280FD0042805D0D3
:1054100005280ED1D4E91101FFF751FD94F83A00A7
:10542000012804BFD4E9080142F01EFC002084F8E2
:105430003A00D0BDD0B502AF044690F86804032806
:1054400004BF04F58260FFF7DAFF94F82701033800
:1054500004281AD8DFE800F003150D10080004F541
:10546000A07001F0C2FA10E004F5947000F0CAFFD9
:105470000BE004F5947006E004F5A47000F04AFE19
:1054800003E004F5A07000F026FE94F872030428EF
:1054900009D0032818BFD0BD94F8B603032824BF51
:1054A000002084F8B50304F5547207CABDE8D04063
:1054B00000F0E6BAD0B502AF044690F8B602042870
:1054C00005D005280DD104F52E7001F063FA94F88B
:1054D000B50218B104F5E07000F04CF9002084F832
:1054E000B50294F8BA03042804BF04F5707000F004
:1054F0001CFE2046BDE8D040FFF797BD80B56F4643
:10550000C0B2BDE880405BF0DBBDD4D4F0B503AFE2
:105510004DF804BD0A46064643F0CDFF0C4613493C
:10552000054606F576703FF009FD0E4695F85E13C8
:10553000B1B1013985F85E13090604BF95F85C1313
:10554000042905D043F053FA43F05DF943F0FEB867
:10555000103041F20131A5F85C1339F0A9F9F1E7F7
:10556000034838F067FC38F00FFD00BF8C9F060041
:10557000B500000080B56F46014640684A7A00F5E4
:10558000B7601AB1BDE8804020F0ADBB097ABDE834
:10559000804020F08CBB80B56F4680BDB0B502AFB7
:1055A000456875B102890068D0E9000123F07EFCEE
:1055B00038B10C46D0F84013294443F027FF43F09C
:1055C00022F9B0BDF0B503AF4DF8048D0446017962
:1055D0000068FFF79BFF41F290102618215875686C
:1055E0008D4208D1307AC00705D100214FF0040860
:1055F000042000250FE041F29C1004EB000801EBB1
:1056000081008D4208EB800091BFC1F10101691A50
:1056100000254FF0040801F016FB4046294601F032
:1056200012FB316A11B1706AC9688847B16A11B159
:10563000F06AC968884704F108005DF8048BBDE88A
:10564000F040FFF7C7BCB0B502AF88B00446D0E960
:10565000062043690020009002AD2146284601F053
:1056600075FD2846FFF75EFC204608B0BDE8B04057
:1056700000F072B8F0B503AF4DF804BD06680446FB
:105680000579D6E900012A4623F021FFD4E9020179
:105690000A6921469047304629465DF804BBBDE8BB
:1056A000F040FFF733BFB0B502AF88B00446D0E991
:1056B00006204369012194F82000CDE9001002ADD5
:1056C0002146284601F042FD2846FFF72BFC2046E4
:1056D00008B0BDE8B04000F03FB8F0B503AF2DE929
:1056E00000078AB0D0F800A0044686680020A060B9
:1056F0001EB304F10C000DF1140808F1080190E844
:105700002C002CC194F80490DAE900014A463DF0DF
:1057100041F80A68B0F85803013A0A600AF57E7148
:10572000ADF8140068464246069622F05DFD0198E9
:1057300028B1029942F098FA01E094F8049050469A
:105740004946FFF7E3FEE16800200AB0BDE8000724
:10575000BDE8F040FFF7B3BBD0B502AF0446D0E9D7
:105760000201FFF7ACFB21792068BDE8D040FFF7CC
:10577000CDBED4D480B56F4602C8DFE801F0020286
:105780000206BDE88040FFF75EBFBDE88040FFF73E
:105790008ABFD0B502AF23F089FB68B10C4690F800
:1057A0006F130022012980F86F2304BF00F51E70DB
:1057B00039F07EF843F027F8D0BD80B56F4600F58C
:1057C000B7600021BDE8804020F071BA80B56F4617
:1057D00000F5BD600021BDE8804020F068BA80B5CA
:1057E0006F4600F5BA600021BDE8804020F05FBA46
:1057F0000168426C8A429EBF00210160704780B5FB
:105800006F46024B10460A4637F042FCE4A60600FB
:105810000168426B8A429EBF00210160704780B5DB
:105820006F46024B10460A4637F032FCE4A60600EB
:10583000F0B503AF2DE9000F89B082462948006812
:10584000C0054AD18946294943F059FA0546D0E9AD
:105850000046406E44F0C2F96866584620F090FA5F
:1058600042F0ABFE32D3E9465946484623F05BFC92
:1058700043F0D3FE04D0411E684635F064FA40B1CF
:1058800005AC42F01DFE43F033FA10B143F014FAB8
:10589000F9E700206C46D5E90212914202D12A7C38
:1058A000D2070DD005EBC101896949B92046594697
:1058B0003AF084FB9DF8000002280BD00120EAE7B3
:1058C000C0071CBF05F150003AF046FC42F096FBC1
:1058D00042F0B2BB064838F0F3F8034838F0AAFAB1
:1058E00038F052FB04ED00E03D000000109306008C
:1058F000B09C0600F0B503AF2DE9000F89B08246D9
:1059000028480068C00547D18946284943F0F7F97F
:105910000546D0E9004B806A05F130080E46013893
:10592000A862404620F064FA42F0AEFB32D3E9466A
:105930004146484623F084FC43F06FFE04D0411EEC
:10594000684635F023FA48B142F0A7FC204628F01B
:1059500093F810B143F0C0F9F8E756460021D5E9B5
:105960000C02801A18BF012095F838201043C00798
:105970000AD0E86B40B9404623F079FC01210028A9
:10598000EDD10B4838F09CF8C8071CBF05F11C008E
:105990003AF0ECFB42F03EBB034838F04BFA38F0EB
:1059A000F3FA00BF04ED00E03D0000001093060094
:1059B000B09C0600F0B503AF2DE9000F89B0824618
:1059C0002B480068C0054ED189462B4943F097F912
:1059D0000546D0E90046C06C44F000F9E86458463A
:1059E00020F014FA42F0E9FD36D3E946594648461C
:1059F00023F04FFC43F011FE04D0411E684635F001
:105A0000D7F950B105AC42F05BFD204628F04BF8C9
:105A100018B1816801398160F7E700206C46D5E94B
:105A20000212914202D12A7CD2070FD001EB410130
:105A300005EB8101C96949B9204659463AF077FB1F
:105A40009DF80400FF280BD00120E8E7C0071CBF29
:105A500005F140003AF08AFB42F0D0FA42F0ECBA8D
:105A6000064838F02DF8034838F0E4F938F08CFA9D
:105A700004ED00E03D00000010930600B09C06001D
:105A8000F0B503AF2DE9000F89B0824628480068C1
:105A9000C00547D18946284943F031F90546D0E988
:105AA000004B806D05F160080E460138A865404640
:105AB00020F0BAF942F0E8FA32D3E94641464846C6
:105AC00023F015FC43F0A9FD04D0411E684635F0D3
:105AD0003AF940B142F0E1FB43F00AF910B143F06A
:105AE000EBF8F9E756460020D5E91812891A18BFD5
:105AF000012195F868201143C9070BD0296F49B9D6
:105B000040463AF06DFBC1B201200229ECD10B48AE
:105B100037F0D6FFC0071CBF05F14C003AF026FB5A
:105B200042F078BA034838F085F938F02DFA00BF12
:105B300004ED00E03D00000010930600B09C06005C
:105B4000F0B503AF2DE9000F89B082462448006804
:105B5000C0053FD18946244943F0D1F842F021FDE8
:105B600042F092FA31D3E9464146484623F0BFFB62
:105B700043F053FD04D0411E684635F0E4F840B1CF
:105B800042F08BFB43F0B4F810B143F095F8F9E71D
:105B9000564600206C46D5E91412891A18BF012117
:105BA00095F858201143C90709D0296E39B9204604
:105BB00041463AF041FB009848B10120EBE7C007AD
:105BC0001CBF05F134003AF0C7FA42F023BA074887
:105BD00037F076FF034838F02DF938F0D5F900BFDB
:105BE00004ED00E03D00000010930600B09C0600AC
:105BF000F0B503AF2DE9000F89B082462848006850
:105C0000C00548D18946284943F079F80546D0E9CE
:105C10000046C06F43F0E2FFE867584620F0B0F856
:105C200042F0CBFC30D3E9465946484623F074FB9A
:105C300043F0F3FC04D0411E684635F084F840B1CF
:105C400005AC42F03DFC43F053F810B143F034F89A
:105C5000F9E700206C46D5E90212914202D12A7C74
:105C6000D2070BD005EBC101896939B920465946E5
:105C700023F067FB009858B10120ECE7C0071CBF78
:105C800005F168003AF068FA42F0B8F942F0D4B988
:105C9000064837F015FF034838F0CCF838F074F9AF
:105CA00004ED00E03D00000010930600B09C0600EB
:105CB000F0B503AF2DE9000F89B082462548006892
:105CC000C00541D18946254943F019F842F069FCE5
:105CD00042F0DAF933D3E9464146484623F05CFB0B
:105CE00043F09BFC04D0411E684635F02CF840B1CF
:105CF00042F0D3FA42F0FCFF10B142F0DDFFF9E7C9
:105D0000564600206C46D5E91412891A18BF0121A5
:105D100095F858201143C9070BD0296E49B9204680
:105D200041463AF0CFFA9DF80000FF2809D0012043
:105D3000E9E7C0071CBF05F13C003AF017FA42F052
:105D400069B9074837F0BCFE034838F073F838F0FB
:105D50001BF900BF04ED00E03D00000010930600B9
:105D6000B09C060080B56F4609490968C9050AD18B
:105D7000094923F02AFDD0F8F020013AC0F8F020BC
:105D800042F0E0FC80BD034838F054F838F0FCF8ED
:105D900004ED00E03D0000000093060080B56F4672
:105DA00009490968C9050AD1094923F00EFDD0F84F
:105DB0000021013AC0F8002142F0C4FC80BD034834
:105DC00038F038F838F0E0F804ED00E03D0000006D
:105DD0000093060080B56F4608490968C90508D1D7
:105DE000084923F0F2FC026C013A026442F0AAFC7A
:105DF00080BD034838F01EF838F0C6F804ED00E026
:105E00003D0000000093060080B56F4690F88810B2
:105E1000032918BF80BD2C30BDE8804000F081BE52
:105E200080B56F4690F8C910032918BF80BDBDE842
:105E3000804000F018B980B56F4690F8C81003296B
:105E400018BF80BDBDE8804000F00DB980B56F4639
:105E500090F8C210032918BF80BDBDE8804000F053
:105E600002B980B56F4690F8C110032918BF80BDF4
:105E7000BDE8804000F0F7B880B56F4690F8991300
:105E8000032918BF80BD4830BDE8804000F0E2BD66
:105E900080B56F4690F89414032918BF80BD203058
:105EA000BDE8804000F0B4B880B56F4690F8EC10C3
:105EB000032918BF80BD1830BDE8804000F00CB841
:105EC00080B56F4690F8F810032918BF80BD2430C4
:105ED000BDE8804000F000B880B56F4690F84410EF
:105EE000032908D0042918BF052909D14830BDE885
:105EF000804000F016BE4830BDE88040FFF784BF08
:105F000080BD80B56F4690F8A610032918BF80BDEC
:105F10001C30BDE8804000F00CB880B56F46817F32
:105F20000339012988BF80BD2430BDE8804000F0DE
:105F300000B8D0B502AF044690F82700042818BF77
:105F4000D0BD04F13C0000F006FDE06A228ED0E9ED
:105F50000001BDE8D040FFF71CBC80B56F46417C16
:105F6000042918BF80BD4068BDE88040FFF71CB819
:105F7000D0B502AF044690F83500032809D00428B4
:105F800003D0052818BFD0BD03E004F1380000F0AD
:105F90006DFC002084F83400D0BDD0B502AF0446BB
:105FA00090F83500032804D0042807D0052818BF2E
:105FB000D0BD04F1380000F009F803E004F1380026
:105FC00000F054FC002084F83400D0BD80B56F464A
:105FD00090F85010063907290AD8DFE801F00A0FB7
:105FE0000904091409045430BDE8804000F03DB9AB
:105FF00080BD5430BDE88040FFF762BF5430BDE83B
:10600000804000F020B95430BDE8804000F04FBC23
:1060100080B56F4690F87810042907D0052918BF7D
:1060200080BD7C30BDE8804000F0CABD8030BDE856
:10603000804000F05DB980B56F4690F822100529C8
:1060400018BF80BD2C30BDE8804000F0C0BB80B5DB
:106050006F4690F82010042918BF80BD2430BDE899
:10606000804000F084BC80B56F4690F87C10032916
:1060700018BF80BDBDE88040FFF7E9BF80B56F461F
:1060800090F8FC10032918BF80BD1030BDE8804097
:1060900000F00BB880B56F4690F8E010032918BFE8
:1060A00080BDBDE8804000F00BB880B56F4690F829
:1060B000DE10032918BF80BDBDE8804000F074BD2C
:1060C00080B56F4690F8D610032918BF80BDBDE893
:1060D000804000F069BD80B56F4690F8201003291C
:1060E00007D0042918BF80BD2830BDE8804000F0EB
:1060F00088BC3830BDE88040FFF7C0BF80B56F4630
:1061000090F8C010032918BF80BD1030BDE8804052
:1061100000F03EBD80B56F4690F8E210032918BF2D
:1061200080BDBDE8804000F054BC80B56F4690F85B
:106130003410032918BF80BD3830BDE88040FFF718
:106140007ABFD0B502AF0446007A032804D00428F1
:1061500004D16068FFF706FE00206072D0BDD0B5A4
:1061600002AF0446807C032804D0042804D12068B0
:10617000FFF714FE0020E074D0BDD0B502AF044696
:10618000C07A032804D0042804D12068FFF7EAFD70
:1061900000202073D0BDD0B502AF0446C0790328DB
:1061A00004D0042804D12068FFF714FE0020A07159
:1061B000D0BDD0B502AF0446407A011F022903D2F8
:1061C00020683DF0A5FC02E0032818BFD0BD0020E8
:1061D0002072D0BDD0B502AF044690F80D01011F6A
:1061E000022904D2D4F808013DF092FC01E0032812
:1061F00002D1002084F80C01D0BDD4D4D0B502AFB8
:1062000004464FF48F50205C033803281AD8DFE887
:1062100000F00214090F41F2E8102044BDE8D0401C
:1062200000F0FABB41F2E8102044FFF77EFF04E0E3
:1062300041F2E8102044FFF7FDF82046BDE8D040C9
:10624000FFF7C0B9D0BD80B56F46017C032907D0E8
:10625000042918BF80BD1830BDE8804000F061BC43
:106260001430BDE8804000F000B880B56F46017C76
:10627000042918BF80BD1830BDE8804000F051BC33
:1062800080B56F46017F042918BF80BD2030BDE86E
:10629000804000F00CB880B56F4690F85810032984
:1062A00018BF80BD0430BDE8804000F02EBC80B532
:1062B0006F4690F85C10032918BF80BD0830BDE818
:1062C000804000F022BCD0B502AF044690F85C00DC
:1062D000011F042906D3032818BFD0BD04F16000B4
:1062E000FFF73BFEE06B4068BDE8D040FFF765BAC2
:1062F00080B56F46017C0339052909D8DFE801F034
:10630000030E080910151830BDE8804000F028B8C9
:1063100080BD1830BDE8804000F02DB8203000E08E
:106320003030BDE8804000F005B81830BDE880404E
:1063300000F09EBB80B56F4690F84613032918BF46
:1063400080BDBDE8804000F085BB80B56F4690F809
:106350003E13032918BF80BDBDE8804000F07ABB22
:1063600080B56F4690F84013032918BF80BDBDE883
:10637000804000F06FBB80B56F4690F8481303294A
:1063800018BF80BD0830BDE8804000F063BB80B519
:106390006F4690F84513032918BF80BDBDE88040C3
:1063A00000F058BB80B56F4690F84413032918BF1E
:1063B00080BD0830BDE8804000F04CBBD0B502AFD6
:1063C000044690F89703032804D143F0B5FC00205D
:1063D00084F89603D0BD80B56F46017E032918BFAF
:1063E00080BD1C30BDE8804000F074BA80B56F46B7
:1063F00090F82410032938BF80BD2830BDE88040C4
:10640000FFF79FBEB0B502AF90F8D020062A0ED895
:106410000446082004212546DFE802F02B09090480
:106420000E0A040004F1D80000F02CF804E0B0BD1E
:1064300004F1D800FFF7DAFF04F1C00207CAFFF742
:106440001FFB04F1B00207CAFFF754FA04F1A002DF
:1064500007CAFFF7EDF904F1900207CAFFF770FBD6
:1064600004F1800207CAFFF7C3FB04F1400548208E
:1064700044212258204443686058816A2868BDE856
:10648000B040084780B56F4690F8F410032918BF54
:1064900080BD0C30BDE8804000F013BB80B56F4676
:1064A000017C03290ED0042907D0052918BF80BD1F
:1064B0001830BDE8804000F00AB81830BDE88040D0
:1064C00000F0A5B82030BDE8804000F0C7B880B526
:1064D0006F4690F82810032907D0042918BF80BD03
:1064E0003030BDE8804000F092B83030BDE88040E8
:1064F00000F0B4B880B56F4690F849100339072909
:1065000088BF80BDDFE801F00D040812040806060C
:1065100050300CE0503005E05030BDE88040FFF7CF
:10652000D6BF6030BDE8804000F098B85830BDE874
:10653000804000F06CB8D4D4D0B502AF044690F8D7
:1065400007010338082820D8DFE800F0050B050B09
:10655000100808051A0004F58C7009E004F588702D
:1065600001E004F58C7000F052F803E004F5887047
:1065700000F074F804F16000BDE8D040FFF738B9CE
:1065800004F58C7000F050F8F4E7D0BD80B56F468C
:10659000017C032907D0042918BF80BD1830BDE84D
:1065A000804000F005B81830BDE8804000F023B806
:1065B00080B56F4690F830100339052988BF80BD3B
:1065C000DFE801F00A030F030514403000E0383023
:1065D000BDE8804000F028B83830BDE88040FFF7C3
:1065E000ABBF3830BDE88040FFF784BF4030BDE826
:1065F000804000F033B880B56F4690F8D713032978
:1066000018BF80BD4830BDE88040FFF7D1BF80B5DE
:106610006F46017C052918BF032904D11830BDE855
:10662000804000F01BB880BD80B56F4690F8231005
:1066300003290ED0042907D0052918BF80BD2830B2
:10664000BDE88040FFF756BF2830BDE88040FFF727
:10665000DEBF3030BDE8804000F000B880B56F4646
:10666000017C032918BF80BD1830BDE88040FFF7CA
:1066700084BDD4D480B56F4690F8801004390629C3
:1066800088BF80BDDFE801F00404040404090E00A3
:106690008830BDE88040FFF758BE8830BDE88040B4
:1066A00000F005B88830BDE8804000F00CB880B537
:1066B0006F4690F82C14032918BF80BD7830BDE8D0
:1066C000804000F0C7B9D0B502AF044690F8CE03C1
:1066D000032806D104F1080000F0BCF9002084F87A
:1066E000CD03D0BD80B56F46C0B2032818BF80BDB2
:1066F000BDE88040FEF72ABCD0B502AF044690F852
:106700002000042806D1E0690078FEF7F7FE00209B
:1067100084F82200D0BD80B56F4690F84010032960
:1067200018BF80BD0C30BDE88040FFF7E5BF80B5E5
:106730006F4690F84410032918BF80BD1030BDE8A3
:106740008040FFF7D9BFD4D480B56F46017E0339AE
:10675000C9B2082988BF80BD034A52F821100844F5
:10676000BDE88040FEF79EBB14ED060080B56F4685
:1067700090F80013032918BF80BD00F58470BDE8B0
:106780008040FFF70ABC80B56F4690F8D811032906
:1067900018BF80BD0C30BDE88040FFF7E9BB80B575
:1067A0006F46017B042918BF80BD8068BDE880402A
:1067B000FEF7FABB80B56F4690F8A810032998BF82
:1067C00080BDD0F89000BDE88040FEF7EDBB80B5FD
:1067D0006F4690F8B210032918BF80BD0830BDE89D
:1067E0008040FFF78EBBD4D480B56F46817C0E39D4
:1067F0000B2911D8DFE801F006101011101010104D
:10680000060B100B1830BDE88040FFF7D3BF1430E3
:10681000BDE88040FFF7C3BF80BD1430BDE88040B5
:10682000FFF77BBB80B56F46017B032918BF80BD96
:106830000430BDE8804000F083B8D0B502AF044614
:1068400090F83100052809D006280ED104F148003F
:1068500000F081F8A06BA28F41F0A1FCD4E9000107
:1068600041F002FA002084F83000D0BD80B56F46B8
:1068700090F82C100339052918D8DFE801F0031728
:10688000170D08123030BDE88040FFF7F9BC3030FA
:10689000BDE88040FFF7E9BC3030BDE88040FFF73D
:1068A00006BD3030BDE8804000F001B880BD80B545
:1068B0006F4690F86010052907D0062918BF80BDE3
:1068C0006430BDE88040FFF7F2BC7430BDE8804022
:1068D000FFF7EABAD0B502AF044690F83D000928A8
:1068E00007D80121814011F46E7F03D0002084F885
:1068F0003C00D0BD0628FCD104F14000FFF7B6FFF4
:10690000F4E780B56F4690F82D1041B1032918BF08
:1069100080BDD0E90601BDE88040FEF7D0BAD0E9DD
:106920000001BDE8804041F09FB980B56F46017A13
:10693000052918BF80BD1030BDE88040FEF754BD6A
:1069400080B56F464179032918BF80BD0430BDE88A
:10695000804037F003BF80B56F4690F825100429BA
:1069600018BF80BD2830BDE88040FEF717BE80B557
:106970006F4690F8441039B1032918BF80BD143018
:10698000BDE88040FFF7BDBFD0E90101BDE8804010
:1069900041F06AB9D0B502AF044690F888000328E8
:1069A00001D028B1D0BD04F14000FFF7E0FF18345A
:1069B0002046BDE8D040FEF790BE80B56F4690F807
:1069C0009810032918BF80BD5030BDE88040FFF704
:1069D000CEBF80B56F4690F8CE10032918BF80BD9A
:1069E0000830BDE8804000F0DFB880B56F4690F811
:1069F000B011032918BF80BDE030BDE8804000F031
:106A0000D3B880B56F4690F8F010032918BF80BD49
:106A1000BDE88040FFF73EBBD0B502AF044690F81A
:106A20002900032803D0042818BFD0BD03E004F1D7
:106A30002C00FFF79CFF002084F82800D0BD80B513
:106A40006F4690F83011032918BF80BDBDE8804023
:106A5000FFF7AFBB80B56F4690F83013032918BF1E
:106A600080BD00F58470BDE88040FFF7B3BBD4D48F
:106A700080B56F46417B03390C2988BF80BDDFE8B4
:106A800001F0070C0707070C0C0C0C071B11160074
:106A90001030BDE88040FFF758BC1030BDE88040A2
:106AA000FFF780BC1030BDE88040FFF787BC203086
:106AB000BDE88040FFF76BBC3030BDE88040FFF799
:106AC000DBB980B56F4690F8E410032918BF80BD8C
:106AD0002030BDE88040FFF711BB80B56F4690F8CD
