:1010000008FC03200111000053FE0300617006007C
:1010100053FE030053FE030053FE030000000000D4
:1010200000000000000000000000000053FE03006C
:1010300053FE03000000000053FE030053FE0300B4
:1010400059110000C111000053FE030053FE0300BC
:1010500053FE030053FE0300550304004512000035
:101060009112000053FE030053FE030039120000EA
:1010700053FE0300CD11000053FE030053FE030096
:1010800053FE03002D04040053FE030053FE03002F
:10109000AD11000053FE030053FE030053FE030096
:1010A00053FE030053FE030053FE030053FE0300F0
:1010B00053FE030053FE0300000000000000000088
:1010C00053FE030053FE030053FE030053FE0300D0
:1010D00053FE030053FE030053FE03009D12000065
:1010E00053FE030053FE030053FE03000000000004
:1010F0000000000053FE03000000000053FE030048
:101100003EF0AAFE0E480F490022814201D004C0E1
:10111000FBE70D480D490E4A814202D008CA08C0BB
:10112000FAE70C484FF47001026842EA01020260DB
:10113000BFF34F8FBFF36F8F3BF0C2FF00DE0000A5
:101140008022002048240120080000207C2200206A
:101150005829070088ED00E0B0B502AF5FF06CFDE4
:10116000104C206828B1002020600F4824303FF048
:10117000EFFB606850B10C4D0020606005F1240069
:101180003FF0E6FB05F11C003FF0E2FBA06838B140
:101190000020A06004481C30BDE8B0403FF0D8BB40
:1011A000B0BD00BF1C010040E80E012080B56F46B5
:1011B0000248BDE880403FF0CBBB00BF2CF70020C9
:1011C00080B56F46BDE8804061F0C8B8F0B503AFA8
:1011D0004DF804BD154E0020306040F071FD144DF7
:1011E0000446A869F0B94FF0FF30A861686A78B189
:1011F000A96A88420CD0D6F808140170D5E9090113
:1012000001306862884204BF05F11C003FF074FBA6
:10121000A8690130A86120465DF804BBBDE8F04034
:1012200040F084BD03483EF097FC00BF00D1004071
:10123000640F012094EC060080B56F46BDE8804045
:1012400061F028BFD0B502AF0F4C206930B110203B
:10125000C4F808020D4834303FF07AFB606830B1C2
:101260000220C4F80802094834303FF071FB2068BE
:1012700040B10120C4F8080204483430BDE8D04031
:101280003FF066BBD0BD00BF00710040E80E0120FA
:1012900080B56F46BDE8804061F054B8F0B503AF4B
:1012A0004DF8048D84B0344C206858B1334D012082
:1012B000C4F8080205F124003FF04AFB05F12C00B8
:1012C0003FF046FBE06D38B14FF40000C4F808026F
:1012D0002A482C303FF03CFBA06A38B14FF48060C4
:1012E000C4F8080225482C303FF032FBA06D28B12D
:1012F0000020A065214824303FF02AFB206EB8B3BF
:1013000000202066D4F86C631C48C4F86C63BFF3FB
:101310005F8F50E8051F314340E80512002AF8D1DD
:101320000020BFF35F8F8DF80C0007200DF104083B
:1013300002900120019040462EF09FFA012817D11B
:1013400001F01F040D4626FA04F0C00704D0284619
:1013500030F0F2FE3FF0FCFA84F0100026FA00F0C4
:10136000C007E8D0284630F00DFF3FF0F1FAE2E781
:1013700004B049F00EBD00BF00710240E80E01202C
:1013800080B56F468A68930105D4520108D4BDE840
:1013900080403EF018B90068BDE880403EF049BC8E
:1013A0000068BDE880403EF02EBDD4D4F0B503AF58
:1013B0004DF804BD82B00B790D460446042102208D
:1013C000DFE803F003252809210028688168C1B1FE
:1013D0000021A860297705F10801A7F117000DF099
:1013E00091FA17F8170C022801D103210AE037F807
:1013F000121CA4F8051057F8161CC4F8011001219E
:1014000001E0042102202971207049F0B0B902489E
:101410003EF049FCFEDE00BF68700600D0B502AFAA
:10142000044608302EF01EFA012808D1D4E9000243
:101430001144B1FBF0F202FB10110120D0BD0020DD
:10144000D0BDD4D4F0B503AF4DF8048D0546254882
:101450000068C00538D108680C46D0BB4FF0FF309B
:1014600090462060207B012805D104F1D8003FF090
:1014700043FA217B00E00021D4E90102904201D12E
:10148000C9070FD000212173411C00EB4000B1F1CE
:10149000100218BF0A46626004EB800111F80E6F5B
:1014A000042E07D1D8E9001204F1D0003FF031FA40
:1014B000042603E0681C01314AF0D1FB20682E703D
:1014C0000130206049F065BC07483EF077FD3EF0F2
:1014D0009DFD06483EF066FD45F0AAFF3EF04AFE3F
:1014E0003EF094FD04ED00E03D00000089000000A6
:1014F00002688368934207D2D0B502AFC1185C1C62
:1015000009798460BDE8D0400020934238BF0120B3
:101510007047D4D4F0B503AF2DE9800F2DED0C8BBF
:10152000E6B08B460646D0E90001CDE914B680F05E
:1015300003020A43109202F06481084318BF01209D
:101540000F9040F08481307CCB4D80B1032840F077
:101550004D82304610F8281F12901038DFE811F045
:101560000500270088135A000A0000682CE0B068C4
:10157000F06022E0314611F8CC0FA1F1A0030D91EB
:1015800088B103280C9315D1B04618F8C80FA8F1FC
:10159000940450B10328CDF844800E9400F0DE800E
:1015A000B6483EF080FB186893E02068ADE0B44890
:1015B0003EF079FBB3483EF076FB3246002142F81C
:1015C000180F02F8101F1292F061C16C04223162F0
:1015D000006DC6E90C12706206F130002EF042F97F
:1015E000012868D10329F1620BD8F0690844294623
:1015F000007E49F056FF28BF01F540714AF069FBB3
:10160000086016A849F003FA49F0ACF8C6E90E12D2
:1016100086F84000DBF8001006F138003FF0F8FAD9
:10162000002840F02082306A0025F16A4FF07D09E1
:101630004FF0010A814208BF756A1C2000EBC50803
:10164000052D32D8F069284454303FF093F8F46AFD
:10165000042C80F01B82F16901EB4406214411F84F
:101660002510884212D03EF05BFFA0FB090201FB6F
:101670000921000B40EA015001040AD036F8081095
:1016800029B1401A80B2132803D97BE1002026F843
:101690000800159EF069011911F8251009B180F8AC
:1016A0005AA0013508F10808CAE7F06A032840F299
:1016B0005C81714D90E7F06990F85A10002940F074
:1016C0004C813346002143F82C0F1A4602F8A01F24
:1016D0000D9230631830002101220C930BE0435C23
:1016E0002C46202B03F01F0328BF04F54074013162
:1016F00002FA03F323600429F1D1306B344644F835
:10170000340F0021A04608F8941F54A9002200239A
:10171000062B03D041F823200133F9E7543000228F
:10172000062A04D0831841F822300132F8E7CDF8B8
:10173000448000210E9454A816AA0023242B07D01D
:1017400010C842F8234002EB830406332175F5E705
:1017500006F1380016A9902264F0F0FA4FF0000A62
:101760004FF0000906F138001390B9F1900F64D0E2
:101770004E4406F1380196F84C00E8B1032840F0D9
:101780008A811398344614F8482F4844A4F10C0178
:10179000D2B1032A40F08281354615F8452FA5F1D4
:1017A000050B002A40D0032A40F07B814FF0000A4D
:1017B00096F84400884627E00868B04648F83C0F91
:1017C000444604F80CAF04E000F1040800F11004F2
:1017D0000868B3464BF8400F0BF10505CBF804A0A1
:1017E00025494FF0000A4AF0B1FC38BF4FF0A04144
:1017F000022301EB8201D1F8002763F31142C1F803
:101800000027007886F84400149909683EF0FEFF2E
:10181000002864D0032009F118092870207086F888
:101820004C00DDE914B6A0E700F1080200F10D0557
:10183000DBF8000088469346D2E711990320087030
:101840000D99087004201299087003203074D6E9AD
:101850003401084318BF01200E9040F0778196F8BC
:10186000000106F1D809DFE810F00F00031203129F
:10187000E1009F02CF0000BF080500509C990600C0
:101880002498060054990600D6F8F800C6F8FC0023
:10189000BD480068C00543F07D82BC4C206800282C
:1018A00040F0F082D4F88400022880F0FD8000210E
:1018B00001302160C4F88400D4E9025616A840F033
:1018C00039FEDDE91530DDE9171203F1E80CC3E953
:1018D00036561E46ACE80700C3F8E040F6E006F1D5
:1018E0003800DDF830900C303EF07CFF4FF0010AFC
:1018F000584685F800A02CF079F8404684F800A0FE
:101900002CF08DF8139886F84CA02CF0E5FD159E70
:101910000E9886F8C8A02DF05CF9306B0021DDF838
:1019200050B09B4D183004290BD0425C994B202AB3
:1019300002F01F0238BF2B1D01310AFA02F21A60B1
:10194000F1E70D990120087099F8A000032804BF61
:1019500009F108002DF03DF9F069002180F85A10D6
:10196000F069C0E91311F0692FE6F169884D084468
:101970008849007E49F095FD38BF291D4AF0A9F934
:10198000086029E64FF0000C26F808C0159EF169A2
:1019900001EB85010A5D82F001020A55F169F26AE4
:1019A000C1E913250121F26982F85A10F26A032A6B
:1019B0000CD8F36976481A44764B127E202A02F03E
:1019C0001F0238BF031D01FA02F21A60F2692806ED
:1019D00000EB044002EB85026D4D125D86F8281085
:1019E000104486F820C000F1C060B06106F1180410
:1019F000DBF80010204624F025F9002835D12046D8
:101A00002BF0CCFFF068D8E596F8121106F589782E
:101A100006F5B47406F58C70DFE811F0050052008D
:101A20002A111C000B00D6F80811F6E0D6E9551073
:101A300060E096F86811D1B1032944D1159A02F5F6
:101A4000AE7592F85C11F1B1032900F0178152488C
:101A50003EF029F996F8681171B1032900F03E8132
:101A60004E483EF020F90320EDE60420EEE696F81D
:101A70006921D6F86411E3E096F85E31B6F85C218E
:101A8000D6F8581119E1D2F85811E8E0444A204636
:101A900004213DF0DFFB43483EF005F942483EF0AB
:101AA00002F942483EF0FFF80020414B2060BB2184
:101AB0008DF858003F48009016AA3F483EF09BF82A
:101AC0003E483EF0F0F83E483EF0EDF8002001219F
:101AD000C6E9581086F8EC0186F85001D6F8FC00EB
:101AE000C6F8E80106F58470C6E9421906F5B0713A
:101AF000C6E955103F900DF5A878324800253B9176
:101B00004FF0000A19903FA818902F4817903BA853
:101B1000169016AC102D11D0601961595A464068C4
:101B20000369404698479DF85361032E02D0042E66
:101B300002D04BE04FF0010A0835EBE7159E5FEA53
:101B4000CA7000F09981032086F80001D6E97C0173
:101B5000084318BF01200D9041F0C18306F5FC75C4
:101B600096F8C4021195002800F0C68096F840024D
:101B7000DFE810F006007E107E10340137012601E8
:101B8000D6F83802BFE000BF04ED00E050FE0020B0
:101B9000080500500C080050D89D060050B3060000
:101BA000349806003C9A06001C9A0600FC99060030
:101BB00078FC0600F4050700380507007498060055
:101BC00040B30600C4CF0600B0CF06009DF8520116
:101BD0008DF81201BDF85001ADF810015598159D12
:101BE0004890BDF85801ADF8240105F5B070DDF856
:101BF0005A412DF013F8022E40F0B680BDF82411A2
:101C000005F5897848982E46A5F81011002185F829
:101C10001211D5F8FC10C5E9421096F80C0106F532
:101C2000B474C0073AD00020C6F8641186F8680181
:101C300096F80D0100F0010286F8692106F58C7016
:101C4000C6F8601191F83830022B21D186F85D2159
:101C5000002286F85C2106F5AE75C6F85811CA79DF
:101C6000012A13D1159B0022C3F81C1193F85D11B2
:101C700083F8222181F0010183F82311DBF80010A1
:101C80001DF0A4FEC0B2082800F0D8800120287002
:101C9000159E0120207049F05BFB17E7002096F8A5
:101CA0001031B6F80E2186F8680106F58C70C6F87A
:101CB000581186F85E31A6F85C2186F86631A6F8E0
:101CC0006421C6F8601191F83A50AB42E0D100238C
:101CD000A6F8202186F82431C6F81811DBF8001088
:101CE0000DF066FCC0B20121082808BF0321159E33
:101CF0002170D0D10320A6E0002086F84002D6F85B
:101D0000C002C6F83802C6F83C0216A840F01CFD16
:101D1000A14BDDE916C1189A1B68DB0543F03A8038
:101D20009E4B1C68002C40F0AD80D3F8C440022CC0
:101D300080F0AB80159800251D60D3E90256C0E9FC
:101D400082560646C0F800224FF4C572C0F8103221
:101D5000C0E97EC1601CC3F8C40006F5067000230C
:101D60003EF085FE119DA6E09DF8121105F58470E8
:101D70008DF85E10BDF81011ADF85C10DDF85B1049
:101D8000CDF853111699549149F0E4FE85F81A01E3
:101D9000489885F80F612E46C5F81001BDF824015A
:101DA000C5F81641A5F8140106F584745946204675
:101DB00023F068FE00283FD120462BF0FDFD85E68C
:101DC00096F85C0206F51778DFE810F005001E0AA9
:101DD000520F28001F00D6F858A28CE1D6E99201D4
:101DE00073E096F8780206F51E7858B1032841F0A2
:101DF0000B8296F8740250B3032800F0638568489C
:101E00003DF051FFD6F848A203E196F87002C007F2
:101E100048D1D6F86CA206F518747CE196F88002D9
:101E200006F52079DFE810F005004100240F38079F
:101E30001600D6F860A2BDE1042085E6159E0320B9
:101E400020702870042088F8000005207CE6D6F871
:101E50004CA2E3E096F8980206F52674CA46DFE83D
:101E600010F007002700070FE209F009FA09070A36
:101E700096F8990201F0CCB94A48A1215FF8C42232
:101E80003CF076FB48483DF067FE0020BE2118601C
:101E90008DF858004548009016AA45485FF8F03282
:101EA0003DF0A9FE43483DF0FEFE43483DF0FBFEF9
:101EB00042483DF0F8FE002006F5087186F89402CD
:101EC00006F5067006F5127223C2DBF8002036F024
:101ED00018FB06F512780224002800F0888096F896
:101EE000940228B1032841F08F81D6E9A31015E0B0
:101EF0000020D6F8503286F8880206F5157186F86B
:101F00006C0206F51C700122C6F87022C6E9952302
:101F100003F11002C6E9A310C6F87422CDE94310FC
:101F20000DF1580926480025579044A856904FF0C7
:101F3000000A2448559043A8549054AE102D11D057
:101F4000701971595A464068036948469847BDF868
:101F50005840022C02D0032C02D00DE04FF0010AB1
:101F60000835EBE75FEACA7000F00987159E032089
:101F700086F8940201F0AEB93FAD09F102010E22DC
:101F800048F043FEE00748A8014621D095E81C0030
:101F90001CC1012421E000BF04ED00E0E0FE0020B0
:101FA00000B30600AC98060098F306005C08070032
:101FB0009C070700F0B20600E0B2060080B30600FE
:101FC000889906007499060000007A44000048428F
:101FD0001CCD1CC100242A880A80159E012186F888
:101FE00094123BA92CC82CC1119D00880880A6F82A
:101FF000284206F22A203BA94AF05CF8D6F83CA217
:10200000022C6BD10020C6F848A286F8780206F5AB
:102010001E780020C6F84CA286F87402DAE9100196
:1020200080F00200084300F0858345469AF89090BE
:102030003EF076FA80469AF87800012840F06C83EA
:10204000B2EE088A9AF890000E46002800F011823D
:10205000DAF85000C0071BD0DAE9162340463146B3
:102060003EF016FD48F0DEF800EE100A1FED2A1AC9
:1020700080EE01AAB7EE000AB4EE40AAF1EE10FA23
:1020800006D41FED2E0AB4EE40AAF1EE10FA01DDDF
:10209000B0EE48AA9AED209A01209AED1F8A0AF123
:1020A000500129EE090A002481E81101CAF85C6098
:1020B00008EE080A3FF0DEF99AED1B1A49F040F8E5
:1020C00040F13182CAE91444CAE91044CAE91F4404
:1020D0008AF890400020CAE922001DE306F50A7044
:1020E00090E81E00002088E81E0006F5177886F8A4
:1020F0005C02C6F858A2B6F8480206F24A21C007A8
:102100004CD006F518740C2248F018FD0020C6F8D3
:102110006CA286F870029AF8D400FF281EBF96F8C9
:102120006A12FF29884234D116A80CCC01460CC192
:1021300022780A7096F86912032913D0DAE910237D
:1021400082F002021A430AD00022CAE91422CAE924
:102150001022CAE91F228AF89020CAE9222200220E
:10216000CAF8DC2018C80AF1E00218C200788AF820
:10217000E9101070DAE9000180F00200084308D08D
:1021800000204FF08241CAE90000CAE90C00CAF8F9
:102190003810012086F8700201F08AB806F519702F
:1021A0000E22C6F860A264F0E1FC06F5207900205A
:1021B00086F8800206F2722006F5197149F07AFF5E
:1021C0009AF8D400CDE90B98FF281CBF96F87E1230
:1021D000814241F06A8041F0F7FB159B00241220F8
:1021E00000261E2810D0011D18445A1890F86202CB
:1021F00030B101280846F4D1B2F85C420846F0E755
:10220000B2F85C620846ECE79AF8D6109AF8D50066
:102210009AF8D720002918BF6442002818BF7642D8
:10222000B146A346002A1CBFA146B346DAF8D8003F
:1022300042F07CF984469AF8E9000321CE46012851
:1022400088BF811EC8B20AF1E001D846DFE800F07D
:1022500002D75D9ADAE910019AF8E32080F00200D3
:102260009AF8E13008439AF8E2000A909AF8E00000
:1022700012901CBF9AF8900000280AD00020CAE9EA
:102280001400CAE91000CAE91F008AF89000CAE9E0
:102290002200DAE9000180F00200084300F0CC845B
:1022A00046EA0400CDF84CC00604CDE908233EF010
:1022B00037F9DDE908234FF00008DDF84CC04FF096
:1022C000000E002E00F0B884B2EE009A0446DAF850
:1022D0000000C00700F03382DAE9022320460E46F0
:1022E0003EF0D6FB47F09EFF00EE100A1FEDCA1A23
:1022F00080EE018AB6EE000AB4EE408AF1EE10FAE2
:1023000040F11D839AED0E8A1CE2DAE91001E146E4
:102310009AF8E23080F002009AF8E16008439AF8F7
:10232000E0409AF8E3001CBF9AF8901000290AD008
:102330000021CAE91411CAE91011CAE91F118AF86B
:102340009010CAE92211CDE90003714602900AF10A
:10235000DC00424641F0ECF9DDF850B040EA010201
:10236000120400F03783F20718BF4942E20718BF92
:102370004042DDE90B48CC4600220023159EA146D1
:1023800000F07ABC159D0A22764605F2862948F0AF
:102390004EFF95F88C020AF1DC0495F88D120122AB
:1023A00022EA0003204622EA0101139100913146FE
:1023B0004246129341F0E7F909B200B200290A46F9
:1023C000034648BF5242002848BF5B42B5F986B277
:1023D0009E1836B25E4540F3A28015B20FFA83F81C
:1023E0000023A84580F2BC800029C8BF0123159AAC
:1023F00092F88F620222734018BF0322BAE0DAE932
:1024000010019AF8E52080F002009AF8E460084391
:102410009AF8E3409AF8E2309AF8E10012909AF8BC
:10242000E000CDF84CC00A9000F0C582CDE907234A
:10243000CDE9056E3EF074F809949AF87840DDE92C
:102440000723012CDDE9056E099C40F0B4829AF85F
:1024500090400491002C00F0F381B2EE040A0021B8
:10246000CAE91411CAE91F118AF89010CAE92211A9
:1024700070E2DAF84000C00700F04E81DAE912237A
:10248000404631463EF004FB47F0CCFE00EE100A19
:102490009FEDE51A80EE01BA9AED1C0AB4EE40BA3F
:1024A000F1EE10FAC0F238819AED20AA9AED1F9A47
:1024B0002AEE0A0A09EE090A3EF0DCFF9FEDDB1A5C
:1024C000B4EE41BAF1EE10FA00F22E829AED191A2A
:1024D00048F036FEC0F228829AED1A1A01208AF8D6
:1024E0009000B5EE401AF1EE10FAC4BFB4EE410A06
:1024F000F1EE10FA09DD81EE000A2AEE001A29EE4B
:10250000000A8AED201A8AED1F0A00210AF1500202
:10251000CAE9221182E80301CAF85C609CE5DDE9A2
:1025200014B6119D57E29AED1D1AB5EE401AF1EE60
:1025300010FA6ADD48F004FE67D580EE010AB0EEBD
:10254000001A9AED182A31EE401A20EE011A9FED7A
:10255000B80A32EE000A32EE402A01EE020A56E0D4
:102560000028C8BF0123159A92F88E620422734096
:1025700018BF052219F80220CBF100064FF0000920
:102580000A920AB200B2002A1146034648BF4942E5
:10259000002848BF5B42194409B259451CDDA845D3
:1025A00006DA0021002A5A462180C8BF324606E0DA
:1025B00000225946AAF8DE200028C8BF3146129BE7
:1025C00013980090204641F0DEF809F10109B9F1B5
:1025D000FF0FD6D14FF0FF09A845DDE914B64FF043
:1025E0000000ACBFAAF8DE002080119DB9F1000FF9
:1025F000DDE90BA800F058860A9986F8919286F8D2
:10260000900286F8841200F040BE9AED180A29EE76
:1026100000BA9AED239A28EE000A9AED228A8AEDF2
:1026200020BA0AEE008A8AED1F0AB0EE480A3EF090
:10263000E1FFBDEEC01A9FED7FCA9FED7FDA0AEE83
:102640000B9A49F0F8FC11EE104ABCBF48F20004A6
:10265000CFF6FF74F1EE10FAC8BF47F6FF74B4EE80
:10266000400AF1EE10FA68BF002400EE104AB8EEFE
:10267000C00A38EE408AB0EE490A3EF0BBFFBDEE1C
:10268000C01A8AED228A49F0D6FC11EE102ABCBF8E
:1026900048F20002CFF6FF72F1EE10FAC8BF47F61B
:1026A000FF72B4EE400AF1EE10FA68BF002200EEAD
:1026B000102A52EA0400B8EEC00A39EE400A8AED48
:1026C000230A29D09AF8E930012118204FF0000898
:1026D000032B4FF018064FF001034FF000090BD108
:1026E0009AF8E0909AF8E1809AF8E2309AF8E3607C
:1026F0009AF8E5009AF8E41002900AF1DC00CDE9BE
:102700000061214641F014F806460843000440F0F9
:10271000BA80159EA8460CE0159EA846B9F1000F98
:1027200007D0119D9AF8900020B90020CAF8DC006B
:1027300000E0119D012086F8740200F0B9BD0E463C
:10274000B0EE498A00200121CAE900100FFA89F091
:1027500000EE100A0FFA8BF08AED0E8AB8EEC0AACE
:10276000CAE9024600EE100AB8EEC0BA2BEE0B0A18
:102770000AEE0A0A3EF07EFE9AED071AB0EE403AE3
:102780009AED082AB7EE00CA48F0DAFCB5EE401A16
:10279000C8BFB0EE413AF1EE10FAC8BFB0EE430A3E
:1027A00080EE081A9FED250AB4EE421A31EE424A35
:1027B000F1EE10FAB0EE403AC8BFB0EE443A9AF8E3
:1027C0002C00002800F08F80012840F09A80B5EEA0
:1027D000403AF1EE10FAB0EE4C0A40F395819AEDD2
:1027E000092AB7EE000A12EE100A30F0004200F09B
:1027F0008B81B0EE401A9AED054A03EE041A11EEF1
:10280000103AB3F17E5F00F07F81B0EEC13A13EE73
:10281000101AB1F1FF4F98BFB2F1FF4F40F268823A
:1028200031EE020A70E100BF00007A440000164356
:10283000CDCC4CBD000000C700FEFF4600000000EC
:10284000B2EE048ADAF84040E40700F08180DAE969
:10285000122303903EF01CF947F0E4FC00EE100A4E
:102860001FED0F1A099C80EE010AB6EE001A48F01F
:1028700067FC40F1CF809AED210ADDE90723DDE90D
:10288000056E039867E0DAF8D8000C4641F04EFE7A
:10289000159A002182F85A025FEAC97082F8701214
:1028A00018BF7642A2F858625FEAC87008BF644257
:1028B000A846119D16460120A2F85642C2F85212AF
:1028C00082F85002DBF8001006F5147026F048FC80
:1028D00000283FF42FAF032086F8780286F87402B0
:1028E000042000F0F7BCB5EE403AB0EE4C0AF1EE31
:1028F00010FAC2BF9AED051AB7EE000A03EE010AFC
:1029000002E19AED0A1AEA4B31EE431A11EE102A4F
:10291000D00F22F00041994272D3B1F1FF4F40F243
:102920008880B0EE410AE9E00020CAE91400CAE953
:102930001000CAE91F008AF89000FFF7CBBB9FED9B
:10294000DD0AB4EE408AF1EE10FA3FF7F9AEF9E68F
:10295000B0EE480A099CCAF848004FF0000C0498F1
:102960000121CAF84C000FFA89F004EE100A9AED22
:102970001F1A9FEDD13A0FFA8BF0B8EEC44A9FEDC3
:10298000CF5A21EE031A9AED202A8AED210ACAE9CC
:10299000101C84EE004A04EE051A8AED1F1A22EE7E
:1029A000031A02EE100AB8EEC22A82EE000A00EE06
:1029B000051A8AED201A0AF1DC000292714642469D
:1029C000CDE9004640F0B4FE02460843000406D1BB
:1029D000DDF850B0159EDDE90B9800F066BC0A9852
:1029E0000B46C00718BF52421298C00708BF5B428F
:1029F00000210020159EDDE90B98DDE913CB3BE1BA
:102A0000AF4A914220D9AF4A914234D880F00101B7
:102A1000081A3DE09FEDA71ADDE90723B4EE410A4D
:102A2000DDE9056EF1EE10FA0398C8BFB0EE480A72
:102A300091E7A54B99420ED9B2F1FF3F0EDD9FED14
:102A4000A30A21EE000A59E00020B1F1645F4BD9DE
:102A5000B0EE412A2AE0B2F1FF3F0CDC9FED9C0A68
:102A60009C4A80EE010A91428DED160A9DED160AF0
:102A70001FED8E0A42D898499FED982A01EB8000FD
:102A800090ED000A01EE020ABDEEC00A10EE100A37
:102A900000EE100A9FED922AB8EEC00A00EE021A6C
:102AA0009FED902A20EE020A31EE402A22EE023AF1
:102AB0009FED8D4A9FED8D5A03EE045AB0EE424AC7
:102AC00003EE454AB0EE003A22EE042A33EE443AD1
:102AD00082EE032A32EE400A31EE000A30EE0C0A92
:102AE00060B13EF04DFD09E09FED780A31EE000A3D
:102AF0008DED160A31EE0C0A9DED161A30EE0C0A19
:102B00009AED061A81EE000A9AED062AB0EE403AD6
:102B10009AED041AB4EE420A9AED0C8AF1EE10FA1C
:102B2000B4EE4C2A9AED0D9AC8BFB0EE423AF1EEDF
:102B300010FAC8BFB0EE430A21EE00CA0CEE0A8AB2
:102B4000B0EE480A3EF056FD0CEE0B9AB0EE40AAED
:102B5000B0EE490A3EF04EFD1FEDC91A47F6FF7E62
:102B6000B4EE41AAF1EE10FA23DC1FEDCE2A4FF4A9
:102B7000004EB4EE42AAF1EE10FA1AD4BDEECA3AF3
:102B8000B4EE42AAF1EE10FAB4EE41AA13EE10EA46
:102B9000BCBF48F2000ECFF6FF7EF1EE10FAC8BFC0
:102BA00047F6FF7EB4EE4AAAF1EE10FA68BF4FF086
:102BB000000EB4EE410ADDF84CC0F1EE10FADDE98A
:102BC000082347F6FF7823DC1FEDE62A4FF4004880
:102BD000B4EE420AF1EE10FA1AD4BDEEC03AB4EEE9
:102BE000420AF1EE10FAB4EE410A13EE108ABCBFAD
:102BF00048F20008CFF6FF78F1EE10FAC8BF47F6AA
:102C0000FF78B4EE400AF1EE10FA68BF4FF000080A
:102C10000FFA88F000EE100A0FFA8EF001EE100A9B
:102C2000B8EEC00AB8EEC11A39EE400A38EE411AC1
:102C30008AED0D0A8AED0C1A0A9810FB0EF001B20B
:102C4000814240F0A28012FB08F1DDE914B60AB21D
:102C50008A4240F0A180129ADDE90B98D20718BF92
:102C60004042DA0718BF494241EA00020023120439
:102C70004FF0000200F019830024A6F8860201201C
:102C800086F8A44286F88EC2A6F88C22A6F88A326C
:102C9000A6F8881286F88402DBF8001006F5217089
:102CA00026F05EFA002800F0008303200CE300BF4A
:102CB00050ACAE420000C842CCCCCC3E9A99193FF1
:102CC0001872B13E9215853F1772B1420000007F25
:102CD00000008080B4F1CF4260C206003BAAB83F3A
:102CE000007231BF8EBEBF35155235BB8FAA2A3E4A
:102CF0000024002B16D5D60D0224962E12D8E94CAE
:102D0000E61D0024B2420DD99624A4EBD25422FA37
:102D100004F606FA04FC0024624504BF06F0010430
:102D2000C4F10204B2F17E5F17D0B2F1FF4F1DD1A2
:102D3000B1F17E51C8BF0121B8BF4FF0FF31C9B218
:102D400000293FF4E1AE01292DD19FEDD70AB0F162
:102D5000FF3FC8BFB0EE420A53E080EE010A0028F0
:102D600048BFB0EE401AB0EE410ACDE6B0F17C5F4C
:102D700023D0B0F1804F28D121EE010A41E05FF865
:102D8000DC0DA121C94A3BF0F3FB0FFA8EF047F6A8
:102D9000FF7181EAE03056E70FFA88F147F6FF72DB
:102DA00082EAE13157E7B1EE420A9FEDBF1AB0F176
:102DB000FF3FC8BFB0EE410A23E0B3F1FF3F04DD9F
:102DC000B0EE410A3EF056FB1BE029B1B1F17E5F47
:102DD00018BFB1F1FF4F16D1002880EE030A48BF9B
:102DE000B0EE403A002B0AD5A1F17E50204300F00E
:102DF000DE80B1EE430A012C08BFB0EE403AB0EEDF
:102E0000430A119D80E6B7EE008A002B00F1D280C4
:102E1000B2F19A4F07D9A34A914280F0D580002899
:102E200000F1268136E19FEDA20A6FF07E02B1F536
:102E3000000FA04E23EE000A38BF10EE101A38BF64
:102E40006FF09602002302EBE1526FF3DF5101F1C4
:102E50007E54B14207D3984E0123B14222BF01F103
:102E60007C5401320023954901EE104AB7EE005A16
:102E700040F6FF7601EB830191ED000A30EE014A46
:102E800031EE403A85EE044A23EE045A15EE101A4C
:102E9000B14306EE101A8A4901EA540101EB43518D
:102EA00001F1015107EE101A30EE470A07EE463ADB
:102EB0009FED847A30EE010A35EE061A00EE463AAE
:102EC00024EE030A9FED804A25EE053A03EE047ACC
:102ED0009FED7E4A03EE074A9FED7D7A03EE047A6A
:102EE0009FED7C4A03EE074A1FED8C7A03EE047ACD
:102EF000B0EE084A23EE033A23EE073AB8EE087A1A
:102F000001EE003A26EE061A31EE044A34EE034A88
:102F100014EE101A6FF30B0104EE101A34EE077A58
:102F200037EE411A33EE411A25EE011A05EE102A4A
:102F3000B8EEC55A00EE041A26EE040A9FED664A62
:102F400030EE013A13EE101A6FF30B0103EE101A74
:102F5000624933EE400A01EB830131EE400A9FEDF6
:102F6000601A23EE011A00EE041A91ED000A5D4981
:102F700001EB830191ED004A30EE010A9FED5A1AF0
:102F800023EE013A33EE001A34EE011A31EE051A3F
:102F900011EE101A6FF30B0101EE101A31EE455AC3
:102FA00035EE444A34EE433A30EE430A40E033EE25
:102FB000430A06E0012C0DD0002C7FF429AF31EE3E
:102FC000410A80EE000A1CE70F32914205D9002821
:102FD0004EDC5FE0BFEE008A1AE7BFEE000A40F663
:102FE000FF72BDEE001A33EE000A9FED393A00EE93
:102FF000013AB6EE001A00EE431A20EE003A23EE34
:10300000011A9FED3A3A21EE033A9FED391A00EE8C
:10301000013A9FED381A20EE010A30EE031A11EE44
:10302000101A914301EE101A31EE400A33EE400AB5
:1030300040F6FF7122EE000A884303EE100A32EEDA
:10304000432A02EE010A21EE031A31EE003A13EE92
:10305000101AB1F1864F0BDC33EE412A0BD19FEDF4
:10306000263A30EE033AB4EE423AF1EE10FA51DD70
:103070009FED220A10E013EE100A20F000422048D3
:10308000824207D81F48814240D1B4EE420AF1EE95
:1030900010FA3FD89FED1C0A28EE001A119D21EE70
:1030A000000A31E5F8FF7F3F000000006499060048
:1030B0000000804B72C41C00D7B35D00A8C206009C
:1030C00000F0FF1F55326C3E42F1533E05A38B3E8C
:1030D000ABAAAA3EB76DDB3E4F38763FC0C20600B2
:1030E000C623F6B868C206000040763F3BAAB8BFC8
:1030F00070A5EC3600AAB83F3CAA3833CAF2497131
:1031000000001643000016C36042A20D0020B2F179
:103110007C5F26D902204FF4000200EBD15001233E
:1031200000F01F00162422FA00F042181046A4EB0B
:10313000D25463F3DF5004F01F04E040002903EB96
:10314000D251D24B01F01F0148BF404243FA01F176
:10315000114002EE101A31EE421A30EE012A12EE40
:10316000101A47F6FF729FEDCA4A91439FEDC95A64
:1031700002EE101A32EE411A30EE410A9FEDC61AE5
:1031800020EE010A9FEDC51A02EE010A9FEDC41A56
:1031900022EE011A31EE002A22EE023A32EE411AF4
:1031A00003EE045A9FEDBF4A30EE410AB7EE001A13
:1031B00003EE054A9FEDBC5A02EE000A03EE045AE4
:1031C0009FEDBA4A03EE054AB0EE425A03EE445A66
:1031D000B8EE003A22EE054A35EE033A84EE033AA1
:1031E00033EE400A32EE400A30EE010A10EE101AB9
:1031F00001EBC051B1F5000FACBF00EE101A3EF06C
:10320000BFF928EE000AFCE55FF860013CF04BFDD9
:10321000002186F8A00286F8BC12C6F89C12C6F8F7
:10322000A11286F8A51248F0D4FB002844D116A8B4
:10323000A42247F0E1FC47F095FAC6E9A81286F807
:10324000A80248F0BAFBC8BB002086F8BC02C6E959
:10325000A700A6F8A40248F0BCFB88BB16A8A422CD
:1032600047F0CAFC47F07EFAC6E9A81286F8A80221
:1032700048F0A3FB0121002818BF062186F8981208
:1032800020D196F8900296F8919248450CD20130E0
:10329000002186F8900206F5267496F8840286F8D6
:1032A000981286F89902B3E7D146012089F8000008
:1032B00088F80000FEF7FFBD032002E0042000E0D4
:1032C000052020700420D146032189F8000088F8E9
:1032D0000010052086F84002032086F8C402D6E9D3
:1032E000B20150EA010518BF01256ED196F80C0312
:1032F00006F5347440B196F8E802042811D003288A
:103300002BD0D6F8E00206E0002086F8E802D6F8D6
:103310000803C6F8E002C6F8E40220463FF074FA5B
:1033200016E096F8FD0240B103280BD196F8F5029D
:10333000C0070AD196F8F41223E096F8FC12D6F8EA
:10334000F8021BE05A483CF0AEFC5A483CF0ABFC9B
:103350000020C6F8F04286F80403DBF8001006F5FA
:103360003C700BF08DF9C0072AD1002086F8FC12C2
:1033700086F8FD02D6F8E402C6F8F802CAB2C6E939
:10338000BC02C8B2062809D007280BD141F60100BB
:10339000ADF85C0048481690032006E047481690B8
:1033A000042002E0464816900220ADF8610016A8FD
:1033B00022F00AFB012086F8FD0286F8F502C7E735
:1033C000032086F80C0386F8E802D6E9C40150EA27
:1033D000010218BF012240F00B8296F8501306F547
:1033E000467ACDE90B250320CDF844A0DFE811F0A3
:1033F0000B0040044004FC01AD003E0079018C014B
:10340000DE0079018C01D6F84803C6F84C03006849
:1034100098B316A83FF098F916AE70CE16A83FF0F4
:10342000F3F9DDE91530DDE91712C3F82803159823
:10343000C0F82C131598C0F830231598C0F818431D
:103440001598C0F81C531598C0F82063159ED6F83F
:103450004C0390F84400012811D116A842F0D8FE80
:103460001898DDE91612C6E9CE1209E096F85C0359
:10347000C00708D1D6F858B350E10320B4E10020CA
:10348000C6F8400328E00F483CF00DFC000080FF28
:103490004CBB31330EEADDB51872313F8CBEBF35FF
:1034A0000072313F55B38A38610B36BBABAA2A3E56
:1034B00064980600B8C80600000001180000010664
:1034C000000001010CBF0600B0CE06005CC1060082
:1034D0007CC1060044990600D6F84C1306F54E7CD4
:1034E00051F8080BC0EBC002D40001EBC205002C60
:1034F00053D0383C51F8382BD207F8D051E90C237F
:10350000A94214D03825B4FBF5F4D1E90206D1F86C
:1035100000E0151A73EB06053CBF10461E465FEA35
:10352000CE751CBF334602463831013CEDD1159EA5
:10353000002086F8C80386F8BC03C6F878A386F88E
:103540005C03C6F858C3C6E9F023DBF8001006F5A3
:1035500070703DF05DFB0321002800F0868006F5C9
:103560005E7116A85A460CF0ABF89DF85B10032963
:1035700079D1DBF8002006F5567116A8FDF716FF85
:103580009DF85800022800F02E81DDF85B10169897
:10359000CDF823110521489067E00020C6F878A3F4
:1035A00086F8BC0386F85C03C6F858C306F55E715E
:1035B00016A85A460CF084F89DF85B40032C12D1F3
:1035C000DBF8002006F5567116A8FDF7EFFE9DF812
:1035D0005800022800F00581DDF85B101698CDF840
:1035E0002311489001E047F026F89DF80E01032CC6
:1035F0008DF8EE00BDF80C01ADF8EC004898549041
:10360000BDF81C01ADF810019DF81E018DF81201E6
:10361000D6F84C03C6F8580306F55770DDF82311A9
:10362000CDF8531104D148F095FA86F863036BE0A6
:103630009DF8EE108170BDF8EC1001805498C6F82A
:103640006003BDF81001A6F867039DF81201DDF8CC
:10365000531186F86903002086F85F43C6F86313A8
:1036600086F86A033DE046F0E6FF9DF80E01032967
:103670008DF81A01BDF80C01ADF8180148983F907B
:10368000BDF81C01DDF82321ADF814019DF81E01E1
:10369000CDF8FF208DF8160103D3052926D0042983
:1036A00037D1BDF81801A6F85C039DF81A0186F819
:1036B0005E033F98C6F86003BDF81401A6F86703DF
:1036C0009DF8160186F86903002086F85F13DDF87F
:1036D000FF1086F86A03D6F84C03C6F86313C6F8E1
:1036E000580306F5567038F0C7FCF5E63F98C6F863
:1036F0005C030020DDF8FF1086F86303D6F84C0366
:10370000C6F85F13C6F8580306F5567026F098FB06
:10371000E2E60020D6F84CB3C6E9D6B05D4655F8CF
:10372000384B3CF0FDFEAC4606460D464FF0000916
:103730004FF00008CDF848C0C8EBC8000CEBC00043
:10374000A04532D2014608F1010811F83029012ABA
:1037500009D150F8302CD20705D050E90A23B21A0B
:1037600075EB030201D23830EAE710F806AC00220C
:1037700040E90C220BF1080081F830202146524626
:10378000CDF84C90F14641F032FACE46DDE912C94F
:10379000B9F1000F18BFF246002808BFD646DDF881
:1037A00044A008BF4FF00109C6E70020CDF85890AB
:1037B00018905FFA8EF0179016AC159E2046FDF714
:1037C00097FEC00704D0DBF8400040F0A9FFF5E702
:1037D00016A82BF0F9FB0120DDF850B086F85C0349
:1037E0007AE6082000E00420DDE90B2586F8500386
:1037F000DDE90E1008400D990840284010400128CE
:103800006ED047F2600006EB000AD6E9F40180F0C2
:1038100003000843139004D006F57470594604F071
:1038200027FDDAE9000180F003020A43129201F059
:10383000E783084318BF01200F9040F0238147F22F
:10384000680006EB00089AF85C0060B19AF8340052
:10385000DFE810F006000E020E02300033001E00FA
:10386000DAF8280006E000208AF83400DAF8580078
:10387000CAF82800CAF82C00404642F0CDFA47F2B8
:1038800078004FF40042304400233DF0F0F836E079
:10389000D14619F84C0FE8B1032824D19AF8480012
:1038A000C00724D19AF84000C00740F09D80DAF8A4
:1038B000440096E0DAE90E012DE0D14619F8440FF4
:1038C00058B103280FD19AF84000C00713D1DAF895
:1038D0003C5061E0DAE90E107CE0DAF8385058E04C
:1038E000304619F0CDF85FF820043CF0DCF95FF8C1
:1038F00024043CF0D8F95FF828043CF0D4F9002007
:1039000006F5E1418AF8540047F2780030440AF1A4
:10391000380282E80301DBF8002034F0F2FD0221D6
:1039200000284FF0020022D09AF8540028B1032852
:103930000AD05FF860043CF0B6F900208AF8500025
:10394000DAF84000CAF8440047F2A40048F026F92B
:103950000CF0BEF8C1B20122022908BF03228AF886
:10396000542008BF0320C1B2032900F08680020E54
:10397000000AAAF831000020D14602298AF8301046
:103980008AF8332020D109F8440F59F8185C49F817
:103990000C5C0020CAE90F50E878A9780130C2B267
:1039A000052A28BF0522EA7011B3000600F0428103
:1039B0002888531EDBB201EB4101434303EB810135
:1039C00089B2B1FBF2F416E009F84C0F59E908018D
:1039D00049E905100022CAE91010C9078AF84820F1
:1039E00002D181780131817001208AF8480041E0DC
:1039F00028880024EC70844237D09F482C800068CF
:103A0000C00541F0C7819D483FF036F89C4E96F8BE
:103A10005000012804D106F1480116A83FF038F8FB
:103A2000306CF8B196F85010002941F00C81D6E9BD
:103A30001212002A06EBC2039865A3F8544018BF7F
:103A40000132F264914204BF012086F85000D6E9A9
:103A50000201013041F10001C6E9020106F1100046
:103A60003EF074FF47F047FA159E0020A870012031
:103A70008AF8400089F8000041E703208AF85C00DA
:103A80008AF83400DAE9180150EA010818BF4FF04B
:103A9000010841F07D829AF87000CDF84480DFE89B
:103AA00010F00800E700E700BE01D2010D00400061
:103AB0001E00DAF86850CAF86C50FDE0514611F863
:103AC000930F0D91DFE810F00600B900D400390023
:103AD0001E0AA902DAF88800DAF89410CBE1D3467E
:103AE0001BF8940FDFE810F01700BB00C400CF0CE8
:103AF000490B0E0B190B270BF80CE90CDB0BED0B2C
:103B0000FD0B340C3F0C4D0C580C650C790C7F0CE4
:103B1000790BCB0A940CDAE91E159AF8954001F05E
:103B200014B9524612F8800FDFE800F0048AA22D83
:103B3000421C4A00DAF878607AE3514611F8C50F62
:103B40000B912D390C91DFE810F0060084009300F2
:103B5000F901A3084D00DAE92612DAE92D04DAF8B2
:103B6000C6C0B6E154460C9214F88B0FDFE810F093
:103B700007007A0080006E067B06CB06D806DAF8CE
:103B8000845000F03ABE47F2E800D04606EB000948
:103B900018F8D00F0C92DFE810F006005F006B0001
:103BA00029054B0038003446DAF8CC60119DC3E398
:103BB00054460C9214F8D80F78B1032843D171E31E
:103BC00055460C9215F8880FDFE810F0B906400052
:103BD000520005000A0000F058BFDAF8D06039E35F
:103BE00000F05FBF514611F8E00F089110390E91B7
:103BF000DFE810F005003B003E00AB07B509DAE94D
:103C00003410DAF8D82000F095BF554615F8E80FC3
:103C1000A5F110010D91DFE810F006002C002B003B
:103C200098056A04BD05CDF83890DAE93692A7E325
:103C300000F068BD13483CF022F813483CF033F81C
:103C400012483CF030F812483CF02DF811483CF096
:103C50002AF811483CF027F810483CF024F81048A6
:103C60003CF021F80F483CF01EF80F483CF01BF8E0
:103C7000FEDE0E483CF017F804ED00E068F30600A5
:103C8000A00001206CC10600FCBF0600BCBF0600FE
:103C90009CBF06003CC00600ECBF0600ECC006005E
:103CA000DCBF06001CC006002CC006004CBF06008E
:103CB000C4F9060074F8060016AC05F1F0012046C0
:103CC00040F055FE9DF87300022835D102210020F6
:103CD00027900DF1780C2691CDE92210199195E8E5
:103CE0004E00ACE84E002246E9691D91A9691C917D
:103CF00069691B9129691A9104F10801022823D0EE
:103D0000013052F8103FDB07F8D00DF5A87B189072
:103D1000D2E90269282247F09AFA02200BF1080141
:103D2000CDE90010584632464B4641F0ACFB4FF00F
:103D3000010E09900B9109E018984FF0000E0C90BD
:103D400019980D90012002E04FF0000E00200E9017
:103D50002B6AD5E91409D5E9161203F00103D5E958
:103D60000ACBAE6BF60716D07646D5E910E8C00749
:103D70004FF000094FF0010008D0BEEB010078EBD6
:103D800002003CBF42467146012001E071464246B6
:103D9000DDF84480B64628910E99229109991C912C
:103DA000042119910D992591CDF884B00B99DDF876
:103DB00050B026900C981D9104F108012490002029
:103DC0002390CDF880C0CDE91E30CDE91AE02992CC
:103DD000CDF89C9005F1E00604282ED0013054F86F
:103DE000102FD207F6D018904822D4E9025954ACCB
:103DF000204662F02AFD042004F10801CDE90010FC
:103E000020462A464B4641F03EFBCAF87860159E94
:103E1000CAE9220100208AF890008AF88400DBF8C1
:103E200000100AF178000BF053FEC1B2022900F035
:103E3000EE81032911D100F0D2BECAF874600020CF
:103E4000159E8AF8800047F2D40047F0A7FE0BF0D9
:103E50003FFEC1B2022900F0D8860022534603F883
:103E6000932F20F0FF0001440D9353F8270CC3F863
:103E7000011043F80B0C0025CAE92001C0E90855E0
:103E80003FF0A2FD3CF04CFBCAE91E0147F2EC00FA
:103E90003418DAE92002D0F80013204640F05CFC28
:103EA000DAE9200C5346DAE91E1290F8126343F85F
:103EB000981F002E5A6000F0A7800C935346159E61
:103EC00003F8C55F0B93C3F801C043F8110C43F826
:103ED0000D4C554645F8B0CF45E9041245E90204BA
:103EE000D0F800035FF838123FF0D8FE0C463FF0E0
:103EF00035FF216801392160287355F8080C46F018
:103F000095FEE978C3B2B5F80120687342EA014230
:103F100047F21E11741855F8081C204647F02CFC77
:103F20002878F0B90AF1A80200208AF8AF0407CA7D
:103F3000CAF8B024CAF89804CAF89C1447F23010A2
:103F400059463418204627F0B7FD002840F0578620
:103F500020462BF0EDFA554615F8B00F002800F07A
:103F6000868047F21E100E9530440890DAE92A0147
:103F70000991D0F800035FF8C4122BF0F3FBD0F8DE
:103F800020900C460C9B00224FF00008A2F57070A8
:103F900060B3064609EB0601303091F8FE130229A2
:103FA000F6D011B900F57072F0E7484400F5687575
:103FB00095F8270038B90899284642F04BFE0128A9
:103FC00001D1012003E00999284642F043FE0C9BF1
:103FD00006F57C72C007D9D001F00F004FF0010840
:103FE000A98D08FA00F00843A885CFE720684FF0B4
:103FF0001B09159E0130206001245FEAC87018D0AB
:10400000DDF8448000F044BF159E8AF8CD50CAF810
:10401000C9C08AF8C850CAE92E0447F2F80046F031
:1040200099FFED4D00280D9E00F07587052000F0EA
:1040300014BE0E9D2878D0B1DAF8A800E749D0F870
:1040400000033FF02BFE006AD0E90248026846F008
:1040500093FFD0070BD0DAF8A800D0E9BE013CF0FE
:1040600035FD001B71EB080001D228785AE0DAE92F
:104070002A045FF8C01346F04EFC09910DF5A87BA9
:10408000016A47F21C103044D54B01F110020E9525
:10409000CDE9585047F21E103044CDE9564001F5A5
:1040A000747055900BF10800994683B301EB090534
:1040B00009F1300395F8FE53022DF5D0194409F5A6
:1040C0007C7301F568711A44549226F053FC8046C3
:1040D0000DF1580C9BE87D0061467DC1DDE916516C
:1040E0008D4213D0481B30210CF10804B0FBF1F6CF
:1040F00095F82E00022806D02046294626F03AFCE4
:10410000804598BF80463035013EF1D1159E099912
:1041100046F01AFD0E98B9F1000F007818BF00287C
:1041200040F06081002840F0F38400205FF87C14A8
:104130008AF8D000CAF8580447F2BC4030440990CD
:1041400047F21E1030440E90DAE92A0846F0E3FBED
:10415000D0F820B000260891B6F5707F00F01C82E0
:104160000BEB060999F83E40022C4ED009F11005E0
:104170000E9A4146284640F069FD002845D09AF83D
:10418000D00020438AF8D00099F8370038B90E994A
:10419000284642F05FFD012801D1012003E02846B6
:1041A000414642F057FDC0070DD001F00F0001213C
:1041B00001FA00F04FF6FF714840B9F83C10084092
:1041C000A9F83C0001E0B9F83C00F0B999F83E00CC
:1041D0000021A9F83C10012889F83E1015D1DAF821
:1041E0005804132811D8099BC0EBC00299F830106D
:1041F000013099549918D9F83120C1F80120B9F843
:104200003520A1F80520CAF858043036A4E747F253
:10421000E80047F0C3FC3CF0FBFC002840F0DF84E2
:104220000020524602F8800F52F8146C42F8086CD5
:104230000C9206F1F001CAF87C6048A840F097FBA8
:104240009DF83B0102285AD10020544604F8D80FAB
:1042500044F8086CCAF8D4603CF062F9DAF8D4206B
:10426000CAE92201159E1369DB0724D0D2E906357D
:10427000C01A71EB05001ED300250321C2E90455C5
:10428000DAF8D40080F80613DAF8D400D0F8000386
:1042900040F034FAC0070ED0DAF8D400AAF89450EF
:1042A000CAF8900047F2F00047F078FC28F0A0FE32
:1042B000002840F08E84DAF8D4000168C9071BD0CA
:1042C000DAE92212D0E90235C91A72EB050113D3DB
:1042D0000021C0E90011DAF8D41091F80403012894
:1042E00007D1D1F8000391F8051340F065F9DAF829
:1042F000D410032081F804030120207075E216AC6D
:1043000048A904F120002022454662F02FFC0DF55B
:10431000A8782146442247F0B4FC159C47F2E800F7
:104320004146402204EB000946F081FF0020D046C0
:1043300008F8D00F48F8046C47F208102022211822
:104340004846CAF8C86062F011FC3CF0E9F8DAE9C6
:104350002423801A71EB0300C0F02F829AF8980092
:104360002646002800F02D814A46DAF8C8905546C6
:10437000002045F8D89F0D956A6005F8100F0E9241
:10438000CAE93892114611F8140F0B9547F026FC34
:1043900080F05D84107C012800F0D580032800F0B7
:1043A0009180042840F0568459F8F00F02F11C0463
:1043B00009F1080B00254601002E00F0BE800BF12C
:1043C0001C0021462DF09CFF002840F0B280203ECA
:1043D00001350BF1200BEFE704ED00E0F4F90600E6
:1043E00040FCFFFFB8F1000F00F09283DAE92B09DF
:1043F0000AF1A00670CE0168D0F803001B91CDF839
:104400006F00D6F800033FF0CBFC02460B46204677
:1044100029463CF007FBCDE916450024CDE91801FB
:1044200006F1F000CDF873901A9416AD294640F0CD
:10443000EBFADAF8A8005FF8841746F06CFAD0F8C7
:1044400020B0681C45F2555643F233390E9005F101
:10445000080008910990B4F5707F00F090800BEB94
:10446000040292F83E00022812D002F110052968D9
:1044700071B1928F06EA5203D21A09EA920302EA54
:10448000090246F097FD03D1C00708BF414501D09E
:104490003034E0E716A8294640F0ECFB099829469D
:1044A0001BF0C4F99DF8585054A80E99272262F0C9
:1044B0005DFB1B2DECD048A854A9272262F056FBC7
:1044C000A9465EE0D9F80003528A40F0ABFCDAE975
:1044D0003823010CDDF83890D3F81B30AAF801011D
:1044E00000208AF80311CAE93C328AF8000147F239
:1044F0005010594634180B95CDF83890204627F0C7
:1045000029FC002840F0728320462BF04BF8DAE9B2
:10451000389000F11C0B002559F8F00F09F1080440
:10452000460156B146F023FD18B9203E013520342E
:10453000F7E716A8494647F0D4FCDDE914B6DDF8E4
:1045400038900B9D1BE1508AAAF8F0004000421CF5
:10455000AAF8F220D9F8000340F012FDC1B21529E3
:1045600040F0DB8046F056FCDDF83890002800F083
:104570000681BAF8F210418202210174FFE04FF087
:104580001B09089946F0E0FAB9F11B0F40F09A8236
:1045900000244FF01B0917E3089946F0D5FA9AF862
:1045A000D000002800F0B382DAF85804099DDDE954
:1045B00014B6C0EBC000DDF844802844CAE9355089
:1045C0004EE30020DAF8C8108AF8B70447F2FC007E
:1045D0003044CAF8A4049AF8A600CAF8A014BAF89D
:1045E000A41041EA00400002CAF8B804CDE90D89E0
:1045F00047F2381006EB00085946404627F05CFAAF
:10460000002840F00B8340462AF092FFDAF8C8B049
:1046100047F2041034184FF000095BF8F00F0BF16B
:1046200008054601AEB105F11C0021462DF068FEDB
:1046300008B1287C20B1203E09F101092035F1E7BD
:1046400016A859464A4633F0BDFF9DF8730002286C
:1046500005D1DDF850B0119DDDE90D89ADE00AF519
:104660008B6016A946F067FADAF8C80046F0DEFA61
:104670009AF87614C3B2BAF87424404642EA01426A
:10468000DAF8C81047F078F8159947F2CC400D18C1
:10469000DAF8C800DFF8701E46F03DF9066A00241B
:1046A0004FF000090B9106EB090B9BF83E0050B947
:1046B0000BF110002946424640F0C8FA18B18BF8B9
:1046C0003E40ABF83C4009F13009B9F5707FEAD1C2
:1046D0000B99DDE914B6DDE90D8946F035FA0020C5
:1046E0008AF815018AF810010AF58B60D0E90001FB
:1046F000CAE93801DAF87304CAF81101DAF8C80017
:10470000CAE9400547F2401046F024FC119D0028FC
:1047100040F0908247F0A5FD4FE08AF8EC00000AD7
:10472000AAF8ED00DAE93801DDF838909AF8EE20C1
:10473000D1F81B108AF80B21BAF8EC20AAF809214D
:1047400000228AF80821CAE93E1047F2581059465B
:104750003418204627F09AFD002840F06682204653
:1047600029F08FF846F056FB48B147F24C1106236A
:104770007218715A92780374A0F81110C274DAF8A2
:10478000E040204640F0E2FB88B90020CAF8104122
:104790008AF8180147F2501059463418204625F07F
:1047A00065FC002840F01982204629F095F9012087
:1047B00028700D9829F05EF9119D46F0C9FD09F1A8
:1047C000500099F8481005290CD0A846042904D0B7
:1047D00003290AD12AF0ACFE07E009F158002AF0BB
:1047E00077FE02E029F046F9A8460020544604F876
:1047F0008B0F54F80F5C44F8075C2E4656F8200FD8
:1048000016AAC0070FD03BF08BFED5E90A3C16AACA
:10481000C01A71EB0C0006D300203246179001201D
:10482000169095F830000021C2E900111699C907C9
:104830007BD0159EC1B203298AF888001AD20902DA
:10484000DFF8C80C04311C30CAE9230147F0C7F86F
:10485000002840F0DC819AF88810DFF8B00C0902DB
:104860001C30CAE9230146F099FD002840F0CB81B5
:104870009AF88800C1B2072933D1E7480068C0051B
:1048800040F08882DFF8880CDFF86C1C2AF03AFFD1
:10489000054690F838008946012804BF05F130002C
:1048A00034F0EDF8A86AC0B195F83810002940F04E
:1048B000CA81D5E90C12002A05EB8203D86318BF20
:1048C00001326A63914204BF012085F8380045F047
:1048D000D3FC05F108003EF007F945F00BFE9AF80D
:1048E000880000F0FE0108291FD1421F08388AF80D
:1048F0008900D0B20002DFF8141C04308AF88A2044
:104900001C31CAE9231047F06AF8002840F073818F
:104910009AF88A10DFF8F40B09021C30CAE9230167
:1049200046F03CFD002840F068810020554605F81F
:10493000880F0120E87055F80C0C45F8040CDAF8E3
:104940008440D4F8001316A83FF050FE0DF5907B7C
:104950003BF0E6FD2646002356F8382FD2070FD04D
:104960000E95D4E91025821A71EB050209D394F84B
:10497000493094F84820DBB2134318BF012300E00C
:104980000E95A14659F8502FD2071FD0D9E902251C
:10499000801A71EB050019D394F8611094F8600047
:1049A000C9B250EA010818BF4FF001080D932BB3AC
:1049B00094F84A00002816A818BF023046F0D5FF28
:1049C000B8F1000FDDF844800AD01CE0002B72D053
:1049D00094F84A00002816A818BF023046F0C5FF18
:1049E00016A9304640F0DAFB48A8314640F05DFB9E
:1049F0000BF106010020ADF8240120E0B8F1000F12
:104A0000DDF8448057D094F862000621002808BFE2
:104A1000042116AD48466A5A9DF8651040F095FB92
:104A20003046294640F0BAFB48A8314640F03DFBED
:104A30000D9828B900200BF10201ADF82001088083
:104A40003FAEBBE80600304606C0BBF80010018050
:104A500094F87010D4F800033FF00EFE54AD3146C8
:104A6000681C47F00EFB0120159E8AF88C0047F267
:104A7000ED003044294647F0F2F80020CAF898408B
:104A80008AF8C000DDF850B00E9D0AF18C04DBF806
:104A90000010204625F04AFF002840F0A2800020A8
:104AA000207047F2EC0047F079F80C9C3BF044FC96
:104AB00018B1042097E00C9C0E9D01202870564DE3
:104AC0002070F4E048A816ACC11D45F0B0FDDAF83E
:104AD000A8804FF0000B1599419408F1D804404686
:104AE00050F8F06F0E90C0F800B047F21D10084467
:104AF0004090D8F800033F903FAD5E4532D047F07C
:104B000099F90BF1010B0028F7D101252CE0159E36
:104B1000DAF8B010544644F8D01F002354E90A02D2
:104B2000C4E901020E9404F8103F0894DDF850B077
:104B3000DDF84480CAF8C81400218AF8C714CAF8FE
:104B4000B004CAF8B424CAF8DC0047F24810594649
:104B50003518284626F0B0FF002852D128462AF002
:104B6000E7FC27E10025B34608EB4B100DF1FC08EC
:104B700000F1F8045E450FD04046214633F054FD65
:104B800028B1A4EB4510214645F0D5FF00E00135E2
:104B900020340BF1010BEDE70E985796CDE95565E2
:104BA000549054A828F0A3FDDAF8A800169AD0F87B
:104BB000000316A9043140F0F9FCBDF824010124DA
:104BC000ADF8F00048983B90DDE914B6DDF844807C
:104BD0005DE10320207004201CE0052026E0032076
:104BE000D4E103200C9C2870062029E00420DDF885
:104BF00050B00B9D1AE005200AE0062008E00320D3
:104C0000BFE10320BAE1042002E00420BEE103205A
:104C1000207005200C9C13E004ED00E00320DDF87B
:104C200050B0119DDDE90C4806E0032028700520F6
:104C3000119D00E004200C9C88F800000320A84689
:104C400020700620A2E1DFF8B4083AF0F3FADFF8AA
:104C5000B008A1E0DFF8AC089EE03070052095E1D7
:104C6000012485421ED00AF1A00200208AF810011A
:104C700007CADAF8B030CAE93801E81D8AF81541E8
:104C8000CAF80451CAF8D400CAF81131CAF8002190
:104C900047F2401046F05EF938B947F0E2FADAE937
:104CA0003550DDE74FF01B09F1E0042069E1286889
:104CB000C0056FD1DFF85C48A06A002870D147F0CA
:104CC00010F8A06294F83400012805D104F15400D2
:104CD0003BF012FE94F83410D4E90B20824202D14A
:104CE0000220C9071AD0002084F83400501C011F8C
:104CF00018BF014602EB82002218E162022092F8FE
:104D0000361002290AD002F13500027807920279A2
:104D1000408840EA024000020A900846A16A013138
:104D2000A1620A990228DAF86C5021F0FF010144CF
:104D300002D10A91FEF7C0BF0020D3460BF8940FB2
:104D4000079C8BF801404BE90715CAE920510A91ED
:104D5000D5F80003DFF8C4173EF0A0FF006A002674
:104D600000F5D160220607D0FF2E05D8825D002A0B
:104D700008BF013C0136F5E746F0FEF8B6F5807F46
:104D800004D1DFF8A0073BF019F936E30025CAE9A2
:104D9000226552E1DFF85C073BF010F93BF036F991
:104DA000DFF874073BF0FEF842F042FB3BF0E2F91B
:104DB0003BF02CF9DAF8DC3003F58475194651F82C
:104DC000F00F460103EB40124FF0FF3002F1F80CF8
:104DD000B6B32C4605F1200214F8105B0130203EDA
:104DE000002D1546F4D10991644500F0998052E9EF
:104DF0000CEBA2F110037109002602461C7CD4B909
:104E0000D3E9005900EB060CBEEB05087BEB090467
:104E100088464C46294638BF5C4638BF7146B5EBDC
:104E20000E058E4679EB0B0538BF0CF101024146A9
:104E3000DDF84480A34620330136B142DED170E074
:104E4000D3F80003DFF8C0162AF08CFC006A0022B9
:104E5000159E0023C41894F83E5005B9A28730333C
:104E6000B3F5707FF6D145F06FFE01208AF8E000BF
:104E70000E982AF01BFBDAF8AC000024D0F80110E1
:104E80003B91B0F80510ADF8F01090F800900C9B35
:104E90000B990120087003F1380093F82D100529B3
:104EA0000DD0042905D01D4603290BD12AF040FB63
:104EB00008E003F148001D462AF00AFB02E01D4607
:104EC0002AF0F4FAB9F11B0F02D1CA4D0D9E24E06D
:104ED0008AF8D54047F2F9003B990AF1780431503D
:104EE00000218AF8D01030441ECCCAE92812BDF83F
:104EF000F0108AF89890CAF8C4508180CAF8D1405E
:104F0000CAF8C03006F5E2445946204625F064FF51
:104F1000B84D0D9E78BB47F0A4F901203070C6E66D
:104F2000024609990AF58C6033F04CFBDAF86424E8
:104F30000020159EDAF86014DDF850B08AF81D01E3
:104F40008AF8180147F2D440CAE93A123044DAF834
:104F50007B14CAF81911DAF8DC10CAE9421047F2DA
:104F6000481059463518284625F036FF28B92846F6
:104F70002AF0AEFA1EE704206FE6042008990870B4
:104F800005200B990D9E0870032066E68AF87000D4
:104F90000F98DAF8EC1400EA0805DAF8E80450EAA9
:104FA000010618BF012627D19AF808050AF59E6464
:104FB000B0B9DAF80005CAF80405007A8E4960F342
:104FC00084018E480860DAF80405D0E9002316A8A9
:104FD0003BF03CFD45F0C6FBC4E900128AF8F8043A
:104FE000DBF8001020463BF013FE10B9DAF8040598
:104FF000E3E703208AF8080505EA0600012819D02E
:1050000010981399B0FA80F0B1FA81F1400949097A
:1050100008401299B1FA81F14909084001281FBFDF
:1050200066B0BDEC0C8B01B0BDE8000F18BFF0BD41
:1050300017F04AFD504617F023FDDAF88000DFF83C
:10504000E014D0F800033EF029FEAA190C46FE2A0F
:105050001DD9159E206801382060DAF88000CAF852
:10506000905090F81013002900F0C781002180F8BB
:105070001013DAF88000AAF8A010CAF89C0045F0D6
:10508000B6F85C4D002800F0B98115202AE2006ACC
:10509000831893F888060028DBD0159E012840F07D
:1050A000298193F8898603F5D161A8F10103032BC7
:1050B00000F2A680DDF84480DFE803F00296446643
:1050C000FE2A00F09480887841F04EFD81462068E9
:1050D000002101382060E81CCAF89000DAF880004E
:1050E0008AF8969080F810139AF89610DAE9200260
:1050F00040F077F94FF4807045F03FF9069869F376
:105100000700069045F073F8002840F0988116A833
:10511000422245F071FD45F09EF845F00BFA00285B
:1051200040F07F819AF89610DAE9200240F0D4F935
:10513000002045F022F945F05AF8002800F0568189
:105140000720CFE10335FE2A3FF484AF887841F091
:105150000BFD216801392160DAF880100024CAF8BB
:10516000905081F8104346F0B7FF40F0B5F9DAF8F7
:105170008000AAF8A040CAF89C0045F038F8002842
:1051800000F034810420ADE1FD2A80F064812268C2
:105190008878013AC97822602A1DCAF89020012235
:1051A000012898BF1046012988BF0A46C2EB022198
:1051B00000230844A0F5807416A8A2B20BF042F8B0
:1051C0009DF860008AF8A8000698DDE91612C0B2C2
:1051D000CAE9281240EA0420069045F0FCFB0028AA
:1051E00000F0048114207DE1FE2A40F03681033571
:1051F00030E700BF04ED00E0000601403546526E86
:10520000A8F10503032B75D2FD2A80F04281CA78EC
:10521000887840EA0221D243120608BF010216A88C
:105220003EF0E8FB9DF858000421142888BFA0F147
:105230001501C8B2032802D00021022803D1BDF80D
:105240005A009DF8591041EA00230821B8F1060FD1
:1052500008BF07212A1D0693B8F1050F40F01D81F4
:105260002168DDF8448001392160D9B2CAF8902064
:105270000C2900F0BB80AAF898000021DAF8800021
:105280008AF8973080F810138AF8B0109AF89900CD
:105290009AF8871045F086FC0131CAE928100AF116
:1052A000A0041499204626F0F1FF002840F0C980A0
:1052B000204628F0E6FA16A8422245F09DFC44F06C
:1052C000CAFF45F037F9002840F0B18000209AF875
:1052D00087108AF8B0009AF8990045F063FCCAE993
:1052E000281045F086FB002840F0AD80204628F0CD
:1052F000C8FA7BE041F054FD2268013A22606A1C42
:105300008AF89A0011F00101CAF8902018BF4FF4F2
:1053100080710A0A8AF89B200123DAF88020C0B243
:10532000069C82F81033DAF880209AF89B3082F8D5
:1053300011334FF6FF7224EA02021044084306902C
:10534000002B6BD0DDF844804FF4807045F015F8E9
:1053500044F04DFF00287CD116A84FF4C57245F0EB
:105360004BFC44F078FF45F036FB002863D19AF8F7
:105370009A10DAE9200240F050F84FF4807044F0BF
:10538000FCFF44F034FF002861D116A84FF4C57229
:1053900045F032FC44F05FFF45F0CCF8002844D1E2
:1053A0009AF89A10DAE9200240F0AEF8002044F0B2
:1053B000E4FF44F01CFFE0BB9AF89B00012815D1E4
:1053C000DAF8800000214FF4C572002380F8111331
:1053D00016A83BF03BFB44F03EFF45F0ABF8A0BB0A
:1053E000002044F0CAFF44F002FFE0B9DAF8900070
:1053F000CAF88C00B0F5807F04D93D4D01208BF8B0
:10540000000054E416A8212245F0F6FB44F023FFE7
:1054100045F0E1FA88B9DAE922650EE6DDF8448064
:10542000A5E706205EE013205CE010205AE00B2088
:1054300058E0112056E00E2054E0162052E00520DE
:1054400050E00A204EE00C204CE012204AE00F20F1
:1054500048E00D2046E00435FCE5887841F084FB07
:105460002168002201392160E91CCAF89010DAF89D
:10547000801081F8102346F02FFE3FF0B2FF4FF46A
:10548000807044F07AFF44F0B2FE0028AED00320D2
:1054900028E00435DDF84480DCE52068DDF8448050
:1054A00001382060D8B20829CAF890200CD10C2805
:1054B0009CD045F0F3F8CAE9281045F09AFA002884
:1054C0003FF414AF09200DE00C283FF48FAF45F0F6
:1054D000E5F80131CAE9281045F08BFA00283FF4BD
:1054E00005AF08208BF800000720DDF850B04DE52F
:1054F00004ED00E03D00000068F3060088F30600BC
:10550000850000008700000074F80600E00F01200D
:10551000B0FF0020D81001208900000084FA0600A6
:1055200094FA060062000000F0B503AF4DF8048D58
:10553000064690F83000884650B1032872D13546AF
:1055400015F82C0FB0B1032874D1746A20681BE0E1
:10555000D6E90010B2687261C6E90310887910F0CC
:105560007F00B06161D00020354605F82C0F45F86A
:10557000101C00E0F1698879344610F07F0044F88F
:10558000200F4DD0C6E909412CF0D6FDD8E9001214
:105590003BF0FCF92B484269BFF35F8FB16A246886
:1055A0000968082CD1F8103535D24FF0010C0CFAEF
:1055B00004F10024114208BF02240B4208BF012459
:1055C0004CB1022C1DBF012028700124032404BF0C
:1055D0002C7003201BE0316ABFF35F8F01F01F01C5
:1055E0000CFA01F1C94350E8052F0A4040E80523B1
:1055F000002BF8D106F10C03BFF35F8F0124B169D2
:105600000DCB86F82C4000683BF072F8022086F83B
:10561000304045F0E0BD0C481C210C4A39F014FE26
:105620000B4803E006483AF03EFB0A483AF0C6FC55
:105630003AF0ECFC01483AF036FB00BFBC9906009A
:10564000D4970600E80E0120D1EC0600CCC8060075
:105650001A0000001C000000F0B503AF4DF804BDB7
:1056600084B004460020ADF80C00CDE9010001A98A
:105670000A280DD0D5090A5445EA436555EAD316E0
:1056800009D042F080020A54DB0901302A46EFE7D4
:105690000A2501AA06E0094B01A90A2202F0DAFD57
:1056A00002460D4645F0FAFF01D9022004E045F01C
:1056B000EDF870196060102045F00CBB10CF0600AB
:1056C000B0B502AF45F0EEFAC0B2102805D12046C1
:1056D0002946BDE8B04037F0DFBC0220B0BDB0B510
:1056E00002AF45F0DFFAC0B2102805D120462946A6
:1056F000BDE8B04037F0FEBB0220B0BDB0B502AF90
:1057000045F0D0FAC0B2102808D12846214633F01F
:105710008FFBC0B2102818BF0220B0BD0220B0BD60
:10572000B0B502AF45F0BEFAC0B2102805D1D5E938
:105730000101884201D045F0AEB80220B0BDB0B53D
:1057400002AF45F0AFFAC0B2102805D1D5E901018A
:10575000884201D045F09FB80220B0BDB0B502AF7D
:105760000546044655F80C0F30B1284633F0ACFC22
:1057700000B1B0BD0020286021680020012904D1BB
:10578000D4E9012160601046B0BDB0BDF0B503AFF3
:105790002DE9F007804691F8300091460D4650B152
:1057A000032878D1AA461AF82C0FB0B103287AD171
:1057B0006C6A20681BE0D5E90010AA686A61C5E937
:1057C0000310887910F07F00A86167D00020AA46F6
:1057D0000AF82C0F4AF8101C00E0E96988792C4679
:1057E00010F07F0044F8200F53D0C5E909412CF098
:1057F000C9FCD9E900123BF0C9F82E4ED6F8149036
:10580000BFF35F8FA86A216800682CF0A7FC48B33B
:10581000206800F01F0080F0100029FA00F0C00797
:1058200030D0286A0121BFF35F8F00F01F0080F0A5
:10583000100001FA00F0C04356E8051F014046E899
:105840000512002AF8D105F10C04BFF35F8F012087
:10585000AA6985F82C0019CC0168009402A83AF0D6
:10586000F9FE05E046F077FD40F20110ADF80800C2
:10587000DDE90201C8E90001012085F83000BDE83A
:105880000F07F0BD032002218AF8000088F80010FD
:10589000F3E7094803E006483AF005FA07483AF00A
:1058A0008DFB3AF0B3FB01483AF0FDF9BC990600D4
:1058B000E4970600E80E01201A0000001B0000001B
:1058C000D0B502AF0446006868B946F097F9201DCC
:1058D00045F0DBFF2068D4E9051201302060207F0D
:1058E000891A45F0A8BD04483AF05CFB41F0A0FDE0
:1058F0003AF040FC3AF08AFB89000000F0B503AFB3
:105900002DE9E00F017BC90757D1D0E900614FF0C5
:10591000010B2B4C2B4D009080680844019001989E
:10592000814245D00291711CA4F502704FF000092C
:1059300009784FF0080A202901F01F0138BF4FF005
:10594000A04000EB81000421C0F80017BAF1000F5D
:105950002AD03078294645F0A4FD38BF211D0BFA26
:1059600000F00860202010B110BF0138FBE730784C
:10597000214645F096FD28BF01F540710BFA00F075
:105980000860202010B110BF0138FBE7AAF1010A1E
:105990000AF007000BFA00F8701C3AF0EBFE002842
:1059A00018BF49EA0809D1E7029901F8019BB6E757
:1059B00000990120087346F06CBB03483AF073F974
:1059C000080500500C08005004980600F0B503AF1D
:1059D0002DE9800F017BC9076CD1D0E900180126A1
:1059E00000904FF0030C8068344B08EB000E3448F5
:1059F0008146F04559D048784D4603F1040B2028E4
:105A000000F01F0038BF5D4698F8002006FA00FA43
:105A1000C5F800A0A3F5027538BF4FF0A04505EB0F
:105A200080000825C0F800C7E5B3013D05F0070078
:105A300022FA00F0C00706D048781C46202828BF6C
:105A400004F5407404E048784C46202838BF5C4692
:105A500000F01F0006FA00F02060202010B110BFF7
:105A60000138FBE708784C46202800F01F0038BFBB
:105A70005C4606FA00F02060202010B110BF01380B
:105A8000FBE708781C46202800F01F0028BF04F51B
:105A9000407406FA00F0206020200028C4D010BF17
:105AA0000138FAE708F10108A3E70099012008731B
:105AB00045F0BABB03483AF0F6F800BF08050050BD
:105AC0000C08005014980600DCB504AF0446684684
:105AD00033F018F945F0B4FB04D19DF80100607073
:105AE000012002E00198606000202070DCBDF0B56C
:105AF00003AF2DE9C00704460620CDE90010684633
:105B000000F05CF8C0F30725C1B2022901D10120E1
:105B10003DE0C0074FD0684600F050F8C0F30726BC
:105B2000C1B2022902D10120354630E0C00742D07F
:105B3000684600F043F8C0F30728C1B2022902D139
:105B40000120454623E0C00735D0684600F036F80E
:105B5000C0F30729C1B2022902D101204D4616E047
:105B6000C00728D0684600F029F8C0F3072AC1B260
:105B7000022902D10120554609E0C0071BD0684622
:105B800000F01CF845F080FD07D1012015460121E9
:105B900025542170BDE80C07F0BDC0070BD065701F
:105BA00000210620154684F805A084F8049084F8A6
:105BB0000380A670ECE701200E25E8E7416869B193
:105BC00080B56F4646F083FB2CF020FCC0074FF0F9
:105BD000010018BF0220BDE8804000E0002040EA3C
:105BE00001207047416871B180B56F4646F06FFB88
:105BF00032F0C0F9C1B21529BDE8804004BF00F4FD
:105C00007F401630704715207047D4D44168A9B141
:105C100080B56F4646F05BFB33F04AF8C1070C498C
:105C200018BF4FF6017108400106BDE8804008D05A
:105C30004FF4702101EA0020022106E0002000213B
:105C400003E04FF6FF71884301210843704700BF0E
:105C50000000FFFF416871B180B56F4646F037FB29
:105C600040F01CFDC007BDE8804012BF012001F0DC
:105C7000010100207047002002217047DCB504AF0D
:105C80000446486870B1013848600968A7F10F0000
:105C900031F0B8FF17F80F1C17F80E0C1B2904D1B0
:105CA0001C2109E01B202070DCBD17F8092CA27113
:105CB00057F80D2CC4F8022060702170DCBD4168DB
:105CC00069B3F0B503AF4DF804BD82B00468013983
:105CD00041606846214633F015F845F0B1FA09D025
:105CE000019D012D53D86846214633F00BF845F04D
:105CF000A7FA17D19DF801004FF00071C0B2084318
:105D000001F04071B1F1007F02B05DF804BBBDE865
:105D1000F04004BF4FF4403161F31F2070474FF053
:105D200000707047019E042E31D8204632F0C0FF2B
:105D3000C10703D04FF60171084005E0C0F30041F0
:105D4000494281EA504000040122014662F30F01FA
:105D50004FF4702202EA0022C00718BF911C01F024
:105D60000300022818BF01F07F4001F47F021044B5
:105D70004FEA1040C0D0C90709D0ADF800008DF837
:105D80000260BDF80110090241EA0561B6E70E2084
:105D9000B2E7F0B503AF2DE9800F8046486878B3CD
:105DA000D1F8009000264FF0FF3400254FF0000B93
:105DB00001384860092C1AD048462CF027FB8A4647
:105DC000C00716D10AF07F000021324660F0B8FE0D
:105DD00005434BEA010B073601344FFA8AF00028DD
:105DE000E8D4092C10D15FFA8AF002280CD34FF0C6
:105DF000050A00200221C8E9001088F808A009E07F
:105E00000020C8E9000005E000200121C8E90010D9
:105E1000C8E9025B45F008BA416899B1F0B503AF33
:105E20004DF8048D82B046F052FA0321CDE900010D
:105E30006846FFF7C3FE0546C0B2022804D1A8B2E7
:105E4000040A11E000207047E8071CBF019E002EE5
:105E500009D0DDF8008040462CF0D8FA0C46C00787
:105E600002D1012E05D10E24E0B20002023045F02D
:105E7000AEB940462CF0CAFAC00701D00C46F3E791
:105E8000E0B2090641EA004005F47F4108440130D0
:105E9000EDE7D4D4F0B503AF4DF804BD82B00C46A5
:105EA000014600208AB28DF80600ADF8040001A971
:105EB000032809D0D3090A5409D0D2B242F0800293
:105EC0000A5401301A46F3E7032501AA06E0094BFC
:105ED00001A9032202F0BEF902460D4645F0DEFBA1
:105EE00001D9022004E044F0D1FC70196060102058
:105EF00044F087BBF0CE0600F0B503AF2DE9F80FF4
:105F0000E8460D460646404613219B46914660F002
:105F100039FED7F808A0002013281BD0F1094FEA5A
:105F2000D91241EA4561ED0942EA4B6245EA496509
:105F300041EA020345EADB14234308F800600CD071
:105F400046F0800308F800304FEADB1B01300E46B4
:105F50009146E1E713246A4606E00C4B694613229A
:105F600002F078F902460C46DAE90150401B8442FF
:105F700001D9022008E011462846224660F0F6FDCD
:105F80002819CAF80400102044F07CBE20CF060077
:105F9000F0B503AF4DF804BDD1E901320024062C61
:105FA00008D01D19954207D0065D013405F8016B34
:105FB0004D60F4E7102000E0022044F0AABE8242C7
:105FC00021BF0B18111A1846704780B56F4646F06E
:105FD00041F8824221BF0B18111A1846704780B54C
:105FE0006F4646F037F8D4D4F0B503AF2DE9000F73
:105FF000C1B08146D0F8A8070E910028099040F062
:106000005E8599F8BC07E0B104281BD199F8C80750
:1060100009F5F96209F5F86309F2CC741194CDE938
:106020000F32DFE810F007001701020C40005C009F
:1060300014007700D9F8C0A70020D9F8C4870D90C4
:1060400030E10BE1D9F8C01700200D900AE199F872
:106050008E0809F68E04002800F08180032840F0A5
:10606000F58099F8480809F648060B94002800F0D6
:106070008A80032840F0738644F0FEFDDFE810F0CC
:106080000500D20BD50BA2009F0099F8ED27002048
:10609000D9F8D417D9F8D847D9F8E4C7D9F8E8A778
:1060A0000C9B0D90D4E199F8940809F6940400280B
:1060B0005CD0032840F0CA8044F06DFC00F06E8094
:1060C000032840F04C8644F0D7FDDFE810F00500CF
:1060D000AB0BAE0B8E00880044F072FD28E199F8FE
:1060E000950809F69504002847D0032840F0AE80B3
:1060F00044F051FC55D0032840F0318644F0BCFDFB
:10610000DFE810F00500900B930B8000700044F066
:1061100057FDC5E299F88D0809F68D0480B3032870
:1061200040F0948044F037FC3ED0032840F01786BE
:1061300044F0A2FDDFE810F00500760B790B70004B
:106140006300002399F8ED070D93D9F8D417D9F817
:10615000D827D9F8E487D9F8E8A70C9B22E2D9F828
:1061600050A80020D9F854880D903AE1D9F858A8E1
:106170000020D9F85C680D90BAE045F02AFF73E280
:1061800045F027FFE2E199F849280020D9F83CC8FA
:10619000D9F840A8D9F844180D9049E144F0A9FF76
:1061A000BEE044F0A6FF73E299F849080022D9F84E
:1061B0003C88D9F840A8D9F844180D92E2E10020B3
:1061C0000D90DCE299F8380809F6380570B3032819
:1061D00008950A9641F0E48100200D90ADE2002080
:1061E0000D9028E300200D90F1E345F096F924D0BE
:1061F0000328089641F0D48100200D90FAE2002097
:106200000D9084E345F089F91AD00328089641F0EF
:10621000C78100200D90BAE345F07FF913D0032821
:10622000089641F0BD8100200D903BE3B9F8344859
:106230000020D9F8F4A70D904AE144F0CFFD92E098
:1062400044F0CCFD46E244F0C9FDDAE1DFF8800E0F
:1062500039F029FDDFF87C0E39F025FDDFF8781ED6
:10626000C9F8C0170E98026812AD2846FBF7EAF885
:106270009DF84800042800F0FF8309F5F66895E8CA
:106280000E0040460EC0002089F8C80709F5F960E5
:10629000D9F8ACA7109009F5F860C9F8C0A7C9F8FB
:1062A000C4870F9009F2CC70119098F80000DFE8D5
:1062B00010F00400C4017600360133AD0AF1040188
:1062C00044F02AFE15AC2946342244F037FC09F587
:1062D00006602146342208F10106C9F858A8C9F819
:1062E0005C6860F043FC002009F6940489F8940887
:1062F00009F5066809F67A011A220B9444F0B0FFFA
:1063000009F59D61002001F5597BC1E9D9003046AE
:10631000594631F01BFA0820C9F8540844F0E5FA50
:10632000002189F8ED0789F8EC17082144F0D6FE22
:1063300044F0B3FF0CD0B8F804300DF1CC0844F0B1
:10634000C5FE44F0BEFE40F0EA81D9F8DC870C9A25
:1063500045F0D7F822D044F07FFC45F0D4FF00F0A0
:10636000738244F018F843F0F4FFC00700F056823F
:1063700044F065F84FF0020B70B1D9F8000844F012
:1063800049F933A809F0FDFF45F049FA40F02E82A3
:1063900045F097FC00F02A820C9A5AE25FE20AF17B
:1063A000380C33A901F11C0EBCE87D00AEE87D007D
:1063B0003622BCF80000AEF8000015AD44F025FC14
:1063C00009F658002946362208F10108C9F850A8F4
:1063D000C9F8548860F0CAFB002009F68E0489F8D9
:1063E0008E0809F6740E0B9409F6580CBEE87B0073
:1063F00062467BC2002009F67201A9F8720809F60C
:106400004806BEF8000010800122B8F80000A9F884
:1064100072080220C9F84C084FF48070DAF800A026
:10642000C9F83CC8C9F840A8C9F84418A9F84808F0
:106430000020022489F8ED2709F2EC7389F8EC07B3
:10644000C9F8E4C7C9F8E8A7C9F8D417C9F8D84704
:10645000C9F8CC17C9F8D047C9F8DCC7DAE902583F
:10646000A2B10C9352460A96D8F82060BCF80430CA
:10647000CDE9001433AC29462046B04744F021FE54
:1064800040F04981D9F8DCC70A9E0C9BBCF800009B
:106490004FF0140B002841D0BCF802402846C9F840
:1064A000E0A751460C93D8F818302246984745F09B
:1064B0002AFF00F06D810020A9F8344889F83808D7
:1064C00009F63805D9F8DC07C9F8F007C9F8F4A7C8
:1064D000A9F8364809F5FF62DAE9020182E8030407
:1064E00022460B6B51469847C0070A9600F0398147
:1064F00043F0A5FF4FF0020B70B1D9F8000844F04B
:1065000089F833A809F03DFF45F089F940F0118181
:1065100045F0D7FB00F00D810C9B3FE145E133AD29
:106520000AF1520144F0F8FC15AC2946342244F03B
:1065300005FB09F658002146342208F1010645F012
:1065400068F9002009F68D0489F88D0844F03DFCB7
:1065500000204FF4807289F88C080120317889F886
:106560008C1809F68C01C9F84C08DAF800A0A9F8D3
:10657000482809F64802C9F83C88C9F840A8C9F873
:1065800044180A92002289F8ED0789F8EC270122C5
:10659000C9F8E48709F2EC73C9F8E8A7C9F8D41779
:1065A000C9F8D827C9F8CC17C9F8D027C9F8DC87AB
:1065B000DAE9026490B10C93B8F804300DF1CC081C
:1065C000256ACDE90012404631465246A84744F0BC
:1065D00078FD40F0A980D9F8DC870C9B44F091FF4E
:1065E0002AD0B8F802503046C9F8E0A751460C93BB
:1065F000A3692A46984745F086FE00F0918143F052
:10660000CAFE43F0A6FEC00700F0608143F017FF0A
:106610004FF0020B70B1D9F8000843F0FBFF33A82C
:1066200009F0AFFE45F0FBF840F0388145F049FB3A
:1066300000F034810C9B78E186E133AD0AF11E0154
:1066400044F06AFC15AC2946342244F077FA09F686
:1066500058002146342208F1020645F0DAF80020FD
:1066600009F6950489F8950844F0AFFB09F68C0B00
:106670000020C9F88C08C9F89008594689F8940890
:1066800030463FF087FC0920C9F84C0844F02DF94A
:10669000002189F8ED0789F8EC17092144F01EFD67
:1066A00044F0FBFD0BD0B8F804300DF1CC0844F0F9
:1066B0000DFD44F006FD29D1D9F8DC870C9A44F091
:1066C00020FF22D044F0C8FA45F01DFE00F087817B
:1066D00043F061FE43F03DFEC00700F06B8143F0E4
:1066E000AEFE4FF0020B70B1D9F8000843F092FFF4
:1066F00033A809F046FE45F092F840F0448145F099
:10670000E0FA00F040810C9A6EE173E108F10400B8
:1067100043F06DFE6DE1201D43F069FE43E008F19A
:10672000040043F064FE99E008F1040043F05FFECA
:1067300009E10020089543F0E9FF44F0C3FF33ADC1
:1067400045F078F944F092FF00F09E8143F076FD29
:106750001FD143F0AEFDC00703D088464FF0020BB7
:1067600019E043F021FD27AE33AD44F06CF845F05D
:1067700007FC16D143F088FD0A9E89F8348843F05F
:10678000CDFE002840F0858144F019FF4FF0210B29
:106790000AE044F081FC0A9E0C9B089D01202870B1
:1067A00003E043F0C7FD0A9E0C9B45F0A9F828467C
:1067B000347027F04AFFBBF1210F03D1D9F84C8880
:1067C00006250EE043F068FE33AD2CA944F05FFCD3
:1067D000DFF8080939F0E6FB44F0EEFE39F0CAFCB8
:1067E000052543F087FF28F0F5F821E10020089601
:1067F00043F08CFF44F066FF33AD45F01BF944F0E5
:1068000035FF00F03B8143F019FD1ED143F051FDEF
:10681000C00703D088464FF0020B18E043F0C4FCD9
:1068200027AE33AD44F00FF845F0AAFB14D143F086
:106830002BFD89F8348843F071FE002840F0138165
:1068400044F0BDFE4FF0210B08E044F025FC0C9A0B
:10685000089E0120307002E043F06CFD0C9A45F078
:1068600049F844F05EFBBBF1210F03D1D9F85488FD
:1068700006250EE043F010FE33AD2CA944F007FCD2
:10688000DFF8580839F08EFB44F096FE39F072FCC0
:10689000052543F02FFF27F0DEFFC9E00020089612
:1068A00043F034FF44F00EFF33AD45F0C3F844F03D
:1068B000DDFE00F0F98043F0C1FC32D143F0F9FC79
:1068C000C00703D088464FF0020B2CE043F06CFC6D
:1068D00027AE33AD43F0B7FF9DF89CB023A8BBF1C2
:1068E000210F25D106F1040C02469CE85A005AC239
:1068F000294690E85C005CC1D9F8E007C9F8F007C8
:1069000009F2F47095E81E001EC089F8348843F03F
:1069100005FE002840F0C68044F051FE4FF0210BE8
:1069200011E044F0B9FB0C9B089E012030700BE095
:10693000311DBDF89EA09DF89D80024691E878002B
:1069400078C244F0A9FB0C9B44F0DAFF44F0E9FA6A
:10695000BBF1210F03D1D9F84C8806250EE043F096
:106960009BFD33AD2CA944F092FBDFF8700739F0A2
:1069700019FB44F021FE39F0FDFB052543F0BAFE7A
:1069800028F033F854E00020089643F0BFFE44F0AE
:1069900099FE33AD45F04EF844F068FE65D043F003
:1069A0004DFC1DD143F085FCC00703D088464FF055
:1069B000020B17E043F0F8FB27AE33AD43F043FF83
:1069C00045F0DEFA13D143F05FFC89F8348843F0D8
:1069D000A5FD002845D144F0F2FD4FF0210B08E061
:1069E00044F05AFB0C9A089E0120307002E043F0FC
:1069F000A1FC0C9A44F07EFF44F093FABBF1210F06
:106A000003D1D9F84C8806250EE043F045FD33AD9F
:106A10002CA944F03CFBDFF8C40639F0C3FA44F07B
:106A2000CBFD39F0A7FB052543F064FE27F005FFF9
:106A300001202070304627F019FF062D3FF40EACE0
:106A40000520CDF8D08033900D983590DFF8900672
:106A500039F0A8FA33A82BF0DFF839F08BFBFFF7F9
:106A6000FDBB042004E004200BE00899032008701B
:106A700043F083FF04201DE003201EE0089903205B
:106A8000087043F07AFF15E0089903200A9E087009
:106A900000E004200C99087003200B9930700870F6
:106AA000052007E0042002E008990320087043F065
:106AB00064FF062010990870042089F8BC07D9E902
:106AC0000001084318BF012006907CD1B04999F815
:106AD0001100884650B1032811D14C4614F81C0F00
