:1010000008FC032001110000F728020091040400ED
:10101000F7280200F7280200F7280200000000006D
:10102000000000000000000000000000F72802009F
:10103000F728020000000000F7280200F72802004D
:1010400059110000C1110000F7280200F728020022
:10105000F7280200F72802009D2D0200F728020061
:1010600045120000F7280200F7280200391200009C
:10107000F7280200CD110000F7280200F72802002F
:10108000F7280200752E0200F7280200F728020058
:10109000AD110000F7280200F7280200F72802002F
:1010A000F7280200F7280200F7280200F7280200BC
:1010B000F7280200F72802000000000000000000EE
:1010C000F7280200F7280200F7280200F72802009C
:1010D000F7280200F7280200F7280200511200004A
:1010E000F7280200F7280200F7280200000000009D
:1010F00000000000F728020000000000F7280200AE
:1011000021F0FCFB0E480F490022814201D004C0AF
:10111000FBE70D480D490E4A814202D008CA08C0BB
:10112000FAE70C484FF47001026842EA01020260DB
:10113000BFF34F8FBFF36F8F1FF04EFC00DE000038
:10114000D8210020E0A9002008000020D4210020A0
:10115000A062040088ED00E0B0B502AF3AF0A0FC58
:10116000104C206828B1002020600F48203022F069
:10117000C1F8606850B10C4D0020606005F120009E
:1011800022F0B8F805F1180022F0B4F8A06838B1E0
:101190000020A06004481830BDE8B04022F0AAB892
:1011A000B0BD00BF1C010040B095002080B56F4667
:1011B0000248BDE8804022F09DB800BF0C860020A8
:1011C00080B56F46BDE880403BF0FCBFF0B503AF93
:1011D0004DF804BD154E0020306022F067FF144D1D
:1011E0000446286DF0B94FF0FF302865E86D78B1FE
:1011F000296E88420CD0D6F808140170D5E9170181
:101200000130E865884204BF05F1540022F046F839
:10121000286D0130286520465DF804BBBDE8F0402C
:1012200022F07ABF034821F0CFFA00BF00D100407E
:10123000B0950020AC47040080B56F46BDE8804003
:101240003CF05CBE80B56F46BDE880403BF0AEBF71
:10125000F0B503AF4DF8048D84B0344C206858B11C
:10126000334D0120C4F8080205F1200022F042F8B5
:1012700005F1280022F03EF8E06D38B14FF400008F
:10128000C4F808022A48283022F034F8A06A38B19D
:101290004FF48060C4F808022548283022F02AF86C
:1012A000A06D28B10020A0652148203022F022F84E
:1012B000206EB8B300202066D4F86C631C48C4F8D4
:1012C0006C63BFF35F8F50E8041F314340E80412A2
:1012D000002AF8D10020BFF35F8F8DF80C000720A3
:1012E0000DF10408029001200190404617F072FDB4
:1012F000012817D101F01F040D4626FA04F0C0079B
:1013000004D028461CF058FF21F0F4FF84F01000B0
:1013100026FA00F0C007E8D028461CF073FF21F041
:10132000E9FFE2E704B026F092BC00BF0071024082
:10133000B0950020D0B502AF0446083017F03FFD4D
:10134000012808D1D4E900021144B1FBF0F202FBFC
:1013500010110120D0BD0020D0BDD4D4F0B503AF12
:101360004DF8048D064690F83000884650B10328A9
:1013700073D1354615F82C0FB0B1032875D1746AB6
:1013800020681BE0D6E90010B2687261C6E903105C
:10139000887910F07F00B06162D00020354605F8F2
:1013A0002C0F45F8101C00E0F1698879344610F0E4
:1013B0007F0044F8200F4ED0C6E909411CF0FCFE26
:1013C000D8E9001221F0B4FF2B480269BFF35F8F08
:1013D000B16A24680968082CD1F8103536D24FF06C
:1013E000010C0CFA04F10024114208BF02240B4244
:1013F00008BF01244CB1022C1DBF0120287001241C
:10140000032404BF2C7003201BE0316ABFF35F8FFD
:1014100001F01F010CFA01F1C94350E8042F0A4002
:1014200040E80423002BF8D106F10C03BFF35F8FD3
:101430000124B1690DCB86F82C40006821F07CFEB8
:10144000022086F830405DF8048BF0BD0B481C216B
:101450000B4A21F0C7F80B4803E0064821F02BFAAD
:10146000094821F0F7FA21F003FB014821F023FAA3
:101470004021040010210400B09500201148040010
:10148000943804001400000016000000B0B502AF4C
:1014900026F052FBC0B2102805D1D5E901018842DF
:1014A00001D026F0FABB0220B0BDB0B502AF26F0E5
:1014B00043FBC0B2102805D1D5E90101884201D013
:1014C00026F0EBBB0220B0BDB0B502AF26F034FB76
:1014D000C0B2102808D1284621461EF03FFAC0B2FB
:1014E000102818BF0220B0BD0220B0BDB0B502AFB9
:1014F00026F022FBC0B2102805D120462946BDE8BF
:10150000B0401FF055BA0220B0BDB0B502AF26F012
:1015100013FBC0B2102805D120462946BDE8B040D3
:101520001FF072B90220B0BDB0B502AF0546044647
:1015300055F80C0F30B128461EF0FAFA00B1B0BDD4
:101540000020286021680020012904D1D4E901216C
:1015500060601046B0BDB0BDF0B503AF2DE9F00737
:10156000804691F8300091460D4650B1032879D15C
:10157000AA461AF82C0FB0B103287BD16C6A2068F8
:101580001BE0D5E90010AA686A61C5E903108879F3
:1015900010F07F00A86168D00020AA460AF82C0F3E
:1015A0004AF8101C00E0E96988792C4610F07F00A9
:1015B00044F8200F54D0C5E909411CF023FED9E9B5
:1015C000001221F0B5FE2F4ED6F81090BFF35F8FBA
:1015D000A86A216800681CF001FE48B3206800F08A
:1015E0001F0080F0100029FA00F0C00731D0286AEF
:1015F0000121BFF35F8F00F01F0080F0100001FA9F
:1016000000F0C04356E8041F014046E80412002AD7
:10161000F8D105F10C04BFF35F8F0120AA6985F8AA
:101620002C0019CC0168009402A821F037FD06E0D7
:1016300001208AF8000040F20110ADF80800DDE951
:101640000201C8E90001012085F83000BDE80F075C
:10165000F0BD032002218AF8000088F80010F3E7AB
:10166000094803E0064821F026F9084821F0F2F97C
:1016700021F0FEF9014821F01EF900BF40210400CD
:1016800020210400B0950020140000001500000087
:10169000DCB504AF044668461EF092F826F0BDFBA8
:1016A00004D19DF801006070012002E001986060A3
:1016B00000202070DCBDF0B503AF4DF804BD04463A
:1016C00000254FF0FF36022E15D020461CF0C4FE38
:1016D000C00713D1013601F07F00C6EBC60202F04D
:1016E0000F029040054348B20028ECD4022E09D1E5
:1016F000C8B2032806D940F2015006E0C8B2000281
:10170000013000E02804C10703D000F47F4001301D
:1017100002E04FF6FF71884326F06BBAF0B503AFD5
:101720002DE9C00704460620CDE90010684600F008
:101730006DF8C0F30725C1B2022901D101203BE0B9
:10174000C0074DD0684600F061F8C0F30726C1B26B
:10175000022902D1012035462EE0C00740D068465C
:1017600000F054F8C0F30728C1B2022902D10120C9
:10177000454621E0C00733D0684600F047F8C0F383
:101780000729C1B2022902D101204D4614E0C00749
:1017900026D0684600F03AF826F00DFE02D101206E
:1017A000554609E0C0071BD0684600F02FF826F028
:1017B000C3FB07D101201546012125542170BDE846
:1017C0000C07F0BDC0070BD0657000210620154640
:1017D00084F805A084F8049084F80380A670ECE7F0
:1017E00001200E25E8E7416871B180B56F4626F00B
:1017F0005CFE1DF021F9C1B21529BDE8804004BF8F
:1018000000F47F401630704715207047416869B179
:1018100080B56F4626F049FE1CF01EFEC0074FF053
:10182000010018BF0220BDE8804000E0002040EA2F
:1018300001207047416879B180B56F4626F035FECA
:10184000FFF739FFC107BDE8804008D04FF4702191
:1018500001EA0020022106E00020002103E04FF60B
:10186000FF718843012108437047416871B180B519
:101870006F4626F01AFE23F0F7FAC007BDE8804055
:1018800012BF012001F00101002070470020022159
:101890007047416899B1F0B503AF4DF8048D82B03F
:1018A00026F003FE0321CDE900016846FFF7AEFFF5
:1018B0000546C0B2022804D1A8B2040A11E00020F3
:1018C0007047E8071CBF019E002E09D0DDF800809C
:1018D00040461CF0C1FD0C46C00702D1012E05D1C7
:1018E0000E24E0B20002023026F03ABA40461CF064
:1018F000B3FDC00701D00C46F3E7E0B2090641EAA8
:10190000004005F47F4108440130EDE7DCB504AF49
:101910000446486870B1013848600968A7F10F00B3
:101920001DF0AAF917F80F1C17F80E0C1B2904D18B
:101930001C2109E01B202070DCBD17F8092CA271C6
:1019400057F80D2CC4F8022060702170DCBDDFB5A3
:1019500006AF0446486880B10138486009686846A7
:101960001DF059FF26F059FA0BD19DF80100002116
:1019700002222072C4E90021DFBD0020C4E900007A
:10198000DFBDDDE9020100220123C4E90201C4E94F
:101990000032DFBDF0B503AF4DF804BD82B00C4698
:1019A000014600208AB28DF80600ADF8040001A9B6
:1019B000032809D0D3090A5409D0D2B242F08002D8
:1019C0000A5401301A46F3E7032501AA06E0094B41
:1019D00001A9032200F0DDF802460D4626F0A7FA21
:1019E00001D9022004E026F022F87019606010206E
:1019F00026F00BB8943C0400F0B503AF2DE9F80FC6
:101A0000E8460D460646404613219B4691463EF069
:101A100016FBD7F808A0002013281BD0F1094FEAC5
:101A2000D91241EA4561ED0942EA4B6245EA49654E
:101A300041EA020345EADB14234308F800600CD0B6
:101A400046F0800308F800304FEADB1B01300E46F9
:101A50009146E1E713246A4606E00D4B69461322DE
:101A600000F097F802460C46DAE90150401B844228
:101A700001D9022008E01146284622463EF0D3FA5A
:101A80002819CAF80400102005B026F0F0BA00BFEB
:101A9000C43C0400F0B503AF4DF804BDD1E90132F8
:101AA0000024062C08D01D19954207D0065D01348C
:101AB00005F8016B4D60F4E7102000E0022026F0ED
:101AC00098B8824221BF0B18111A1846704780B58A
:101AD0006F4626F067FB824221BF0B18111A184689
:101AE000704780B56F4626F05DFBD4D4F0B503AFE8
:101AF0004DF804BD84B004460020ADF80C00CDE9DB
:101B0000010001A90A280DD0D5090A5445EA436508
:101B100055EAD31609D042F080020A54DB0901309D
:101B20002A46EFE70A2501AA06E00A4B01A90A2284
:101B300000F02FF802460D4626F0F9F901D90220EF
:101B400004E025F074FF70196060102004B026F0E6
:101B500050B800BFB43C0400D0E901239A4204BF4E
:101B600002207047B0B502AF0C78154605F8014B5E
:101B70009D4245600BD04C785470941C9C4244604C
:101B800005D089789170D11C41601020B0BD022031
:101B9000B0BDD0B502AF044690423FBF621C0846BC
:101BA0001146D0BD0020214620F0D3FCF0B503AF94
:101BB0002DE9000FA3B08246D0F830018B4601908A
:101BC0000028099140F0E4869AF838010AF59E72DF
:101BD000CDE9052ADFE810F067015B0D5B0D06001B
:101BE0002D0017000AF5A27004909AF84401DFE86E
:101BF00010F00600AB004E0D4200AD0131000AF5B9
:101C00009E70006856E19AF850010AF5A874002801
:101C100000F0D580032840F08F809AF84C010AF537
:101C2000A67558B3032800F0F380DFF81C0E20F0EF
:101C300042FE9AF848010AF5A474DFE810F00500A6
:101C40008100280D0800A500DAF8400149E1DAE931
:101C5000530189E09AF866010AF5B378DFE810F0DD
:101C600005007800170D24001100D146DAF848A1CC
:101C7000D9E95301C9E1DAE9520150E1DAF8440146
:101C8000B1E09AF898010AF5CC79DFE810F0080085
:101C90006900000DDF052D0039003A04DF054C46D0
:101CA000D146DAF880A1EEE10AF5BD7007909AF806
:101CB0007A01DFE810F005005100EC0C0B0014076E
:101CC000D146DAF868A1CDF8208049E29AF88D0172
:101CD000CDF820800AF28D18F0B1032801F01F80A2
:101CE000DFF8680D20F0E7FD9AF8D4010AF5EA74F0
:101CF000D0B1032800F01183DFF8540D20F0DBFD94
:101D00009AF8A9110AF5CE7099B1032900F0AD83B4
:101D1000DFF8400D20F0CFFD9AF88F01DAE95F6916
:101D2000DAF8884100F0E4BFDAE97056DAF8D00159
:101D3000E2E2DAF8A41195E3DFF81C0D20F0BBFD18
:101D4000DFF8180D20F0B7FDDFF8140D20F0B3FD1B
:101D5000DFF8100D20F0AFFDDFF80C0D20F0ABFD2B
:101D6000DFF8080D20F0A7FD26F075F9C0B20528B0
:101D700001D1032011E000218AF85401DAF844016E
:101D80008AF85511CAF85001DBF800100AF5A67060
:101D900001F094FE002878D0042020700598DBF82C
:101DA000001000681DF084FA002871D100200AF5A7
:101DB000A8748AF85001DAF83401CAF83C01DAF85C
:101DC0003C01CAF8400190F8C410012904BF90F802
:101DD000C510012965D100212C308AF84C110AF573
:101DE000A675CAF844010168D1F82C25D20736D06F
:101DF000CD4B1A6812B949F275321A60C0225A6185
:101E000049F275321A600022C1F82C25CAF848013F
:101E100025F085FFDFF8580C203021F089FADAF838
:101E200048010068D0F80014D0F8002101F40073D4
:101E30001A4309D149052ED54FF48061C0F800142A
:101E40000121C0F808158165B749086810B949F241
:101E5000753008600020486149F275300860012043
:101E600000218AF84C01DAF8400180F8C410DAF851
:101E7000400100F16805406EC60096B1F5E8020128
:101E8000CA6900219047083EF7E7DAF844012AE0E2
:101E9000042000F07BBD032020702870052000F096
:101EA00075BD0120207000208AF84401DAF8340161
:101EB000CAF83C010AF5A2710491CAF8400190F8F1
:101EC000C410E9B10120DFF8A81B8AF84401002002
:101ED0008AF848014431DAF834010AF5A474CAE9F1
:101EE0004F10CAF8440190F8C4100029D9D000F16D
:101EF000310200F130012C300AF5A67307C333E735
:101F0000002100F1D4028AF8601100F1310300F1E0
:101F100030012C300AF5A474CAF854210BC426F001
:101F20009AF8C0B2052808D19AF86001D8B1032800
:101F300029D0DFF8400B20F0BEFC00218AF85001C8
:101F4000DAF840018AF85111CAF84C01DBF80010A8
:101F50000AF5A47001F0B2FD002800F00987042002
:101F6000049900F011BDDAF8540100220168CAF8A2
:101F70005811C1F800224FF40002DAF85811C1F8E4
:101F80000423CAF85C0125F0CAFEDFF8E40A283011
:101F900021F0CEF9DAF85C010068D0F85C01002885
:101FA00000F0C283DAF858010021D14609F5B37870
:101FB000C0F85C11DAF85821D2F88004D2F88434E1
:101FC000D2F88844C0B2D2F88C54DBB22D0664F348
:101FD000174545EA03231844D2F89034D2F89444C4
:101FE000D2F89854D2F89C248AF86611D9B2E3B298
:101FF0001206DAF840A141EA0321EBB2C9E952A086
:1020000042EA03421144C9F85011C0F3411289F861
:102010006421020AC9E9550189F86221020CA9F874
:102020005E11090CA9F85C21C2B2D209A9F86011AD
:1020300000F01F01CDF8208089F86521042928BF10
:10204000042189F8631109F5AE7140B2B0F1FF3F88
:102050006CDD0DF168080A2208F10A003DF0E3FF8B
:1020600010A898E87C0001467CC109F5C271C9F846
:1020700080A190E87C0000207CC109F5CC74DDF8DB
:10208000208089F8980109F5C27009F5C7710A2204
:10209000C9F870A13DF0C7FFB9F88801C9F874010B
:1020A000BAF8D810C9F878110021C9F87C11DAF80B
:1020B000D020824206D20AF1D400C9E96701CA469B
:1020C000A146C3E3DAF8CC10DFF8AC3923F004F909
:1020D000D9F87821002A00F08F850123CA4689F8B3
:1020E000B43109F5D47307C30020A14600210128AB
:1020F000CAF89C1102D1DAE9685605E00AF5D470F5
:102100001DF0BEFD05460E46002D6ED09AF8B44176
:1021100000208AF8B401DAF89C01012840F0D08050
:10212000DAF8A001D5E000BF00EC06401AA818C9F3
:10213000021D18C20988118010A938C80A4638C281
:102140000088108009F5B670C9F868A11CC91CC0C8
:1021500000220988018009F5BD7089F87A2107906D
:10216000B9F87401C9F86CA10F90B9F872010E901A
:10217000DAE933C2B9F870E19AF8C90099F87881C0
:1021800099F8763199F877B1B8F1020F0290BAF860
:10219000D800039099F879010D90CDF830C0CDE9C1
:1021A0000AE225D0B8F1000F32D1BBF1000F00F0E8
:1021B000D181BBF1010F00F0A981BBF1020F27D142
:1021C000002B40F082840E9BDAF82C1003F00F00F5
:1021D0005BB2B3F1FF3F40F34E83082880F01A85CD
:1021E00001EB800000F244404CE3DAF87C61CEE081
:1021F000BBF1000F0CD1DAF84890B9F1000F07D00D
:102200009AF84C00834204BF0E98072800F03882E9
:10221000DAF864000AF168040DF15C094FEAC00ABB
:10222000BAF1000F00F05184D4E900101D46C66ACF
:102230000D988DF865000F98ADF860000E988DF838
:102240006230634600924A468DF864808DF863B030
:10225000ADF85E00ADF85CE01AA8B0471A9840B936
:10226000AAF1080A0834DDF830C02B46DDE90AE29D
:10227000D6E7DDE91BC9BCF1000F00F026840F99F9
:10228000039C08468C4238BF2046029A002A18BF99
:102290000846122C28BF0846484528BF484640F249
:1022A0001381DDF824B0002C00F0C284B0FBF4F1FF
:1022B000DDF818A001FB1401B1FA81F14A090BE124
:1022C0000AF5D4701DF0DCFC0122CAF8A411CAE999
:1022D0006720B0FA80F0002140098AF8D5418AF8D9
:1022E000D6010AF5EA74DAF870018AF8D411D4300C
:1022F000CAE97056CAF8D001CAE96E560021CAF878
:10230000C8010068C0F828110121C164DE49C0F885
:102310000413DAF8C801CAF8CC0125F000FDDFF893
:102320005007283021F004F8DAF8CC010068D0F822
:10233000281151B1DAF8C8110022DAE96E300968C3
:1023400000901AA820F0AAFE0BE0D0F8001121B9E5
:10235000D0F85C01002800F00E8340F20110ADF8C7
:102360006800DDE91A1001222270C9B219B10229F0
:1023700040F0708201E3DAE95E121618CAF87C6157
:10238000814204D8DAF87401864240F0B080DAF86D
:102390007031D3F8D020964200F22884D3F8CC00D4
:1023A0009AF88C110E90CAE95A060029BAF88801E9
:1023B000BAF884219AF88AB19AF88BE10D90BAF8AC
:1023C00086010F909AF88D01CDF82080CDE90B01A0
:1023D000CDF8289054D0586E03F168054FEAC00933
:1023E000B9F1000F00F02682F5E8020190468DF861
:1023F0006FE033468C6AF2460B998DF871100C9998
:102400008DF870100D99ADF86C100F998DF86EB0B5
:10241000ADF86A10ADF868201AA90E9AA047A9F184
:102420000809C1B2D64642460229D9D0C00740F0B9
:102430000182DDF818A0DAF8700100F1D40190F8FB
:10244000C720002A56D090F8C90000228AF8A801B7
:102450000AF5CE708AF8A921CAF8A411DDE9088B23
:10246000DDF828900022C0E900121CF093F801204A
:1024700000218AF8A901DAF8700180F8C710E9E1B3
:10248000BEF1000F00F0DC800F98BEF1010FC4B266
:1024900073D0BEF1020F9ED1BBF1010F00F0F680A8
:1024A000BBF1030F08BF002A40F0C4810F99D86A1E
:1024B000090707BF0121416504F0870101F580711B
:1024C00018BFC0F81815B4E7DDF818A00022DDF831
:1024D00024B0002C00F09783012300218AF8B43146
:1024E000CAE96432CAE9661CCAE96804C7E3DAF8D3
:1024F0009C01FBE5DDE9088B0020DDF82890CAE9A6
:1025000067100AF5CE701CF045F8A3E1DAF8500028
:102510000E99884240F2D9820A2B00F09F81002B4D
:102520007FF476AEDFF854350220614625F05DFD7C
:1025300000220223ADF86820DFF8442500921AAA91
:1025400021F00CFFDDE90B2C012A3FF698AEDFF8F5
:102550003435B2E1002B00F0B980062B00F0A280E8
:10256000082B40F0B282002A00F06F839AF8C8006E
:102570000438B0FA80F0400978E1186DA04240F2CA
:102580005981BBF10B0F40F0558103EB440000F182
:10259000540AD0B29AF80110814240F24B810DF1F9
:1025A000680BD3E90D0190469946002600258AF86C
:1025B0000020CDE9150115A9584620F095FF1A987D
:1025C000012840F0A1801C99B9B325F0F4FA25D078
:1025D000042816D00528EED117A820F0B9FFC007AF
:1025E0002BD1E8B2A042E6D19AF80020F0B2101A3E
:1025F000B0FA80F04209D9F82C001BF053FE0F9D71
:10260000D9E717A820F0A4FFC00716D117A80D46D8
:1026100020F09EFFC00710D10E46CCE717A821F08E
:102620009BF880B248B917A820F092FFC00704D1E8
:1026300017A820F08DFFC007BDD0DFF84C0484E15F
:10264000ABF10100082800F2F580DFE810F0090086
:10265000F3008D00F3007200F300F300F3009C0020
:10266000012A40F0E780002025F06FFE002D3FF4A6
:10267000E0AEF4E802010A6A00219047083DF5E760
:10268000DAF844C0FBE500BF01048000002A40F0F6
:10269000D1800F9800071EBFD86A04F08701C0F8E8
:1026A0001815C6E64FF0FF3000EB1E20052800F29B
:1026B0000881DFE810F00600B30188010A020A026F
:1026C000AD010AF1A80C4FF01209D8E5DFF8BC33D0
:1026D000022061469AF8C5409AF8C66025F085FC4C
:1026E00062000223D2B23243ADF86820DFF8A023A3
:1026F00000921AAA21F032FEDDE90B2C012A3FF6E6
:10270000BEADDFF89033D8E0D9F8640009F1680471
:10271000C500002D3FF48DAEF4E8020142464B6A3D
:102720000F999847083DF4E7032004998AF860015F
:102730002AE1501E80B27F287CD240F2013003F1A2
:102740006804A3F8C700586E83F8C920C500002D9F
:102750003FF46FAEF4E802021E4693F8C9105269C6
:1027600090473346083DF2E7012A63D1012025F066
:10277000ECFD002D3FF45DAEF4E802010A6A012190
:102780009047083DF5E7002A00F0A380012A51D1C7
:102790000420D3F8509083F8C80003F1540AD3E919
:1027A0000D010DF1540BCDE9150117AE1C464FF08C
:1027B000000800251AA8594620F096FE1A9801280C
:1027C00040F0CB801C9999B325F0F5F923D004286B
:1027D00015D00528EED125F0EBFDC00728D1E8B2D1
:1027E000814540F22D821AF810005FFA88F2801AB3
:1027F000B0FA80F04209E06A1BF054FDDAE725F0F8
:10280000D7FDC00714D130460D4620F0A1FEC00709
:102810000ED18846CEE7304620F09EFF80B238B910
:1028200025F0C6FDC00703D125F0C2FDC007C1D009
:1028300099488AE0DDF818A00020DDE9088BDDF872
:102840002890DAF87011D431CAE967100AF5CE7011
:102850001BF0B2FE012089F8000087E2002A00F098
:10286000F7810E990AF1540010F811008CF800005D
:102870004FF0010903E5082880F0D38101EB8000C7
:1028800000F58460854B61460468022025F0ADFBAD
:102890004FF0FF32022312FA84F2B2FA82F25209A6
:1028A000ADF868207E4A00921AAA21F057FDDDE9B2
:1028B0000B2C012A3FF6E3AC7A4B002002211FF0DB
:1028C00048FE4FEA1E200F2840F0FF80DAE90FC9CA
:1028D000D5E493F8C80002283FF4ABAD03200DF116
:1028E000680883F8C8001C46D3E90D01CDE915013D
:1028F00015AE17AD4046314620F0F6FD1A98012876
:1029000040F090801C99F9B125F055F90DD00428BC
:1029100010D00528EED1284620F01AFEC00713D1AA
:10292000E06A00221BF0BEFCE4E7284620F014FF1A
:1029300080B248B9284620F00BFEC00704D12846D3
:1029400020F006FEC007D5D057480090A7F11D0221
:1029500056482B21564B1FF086FF20466834406EA8
:10296000C500002D3FF465ADF4E802018A6901213C
:102970009047083DF5E7032020700420049989F86A
:10298000000088F800000520087003208AF838014C
:10299000DAE90001084318BF01200D9040F0B5822C
:1029A0009AF82800DFE810F00700730673060C00A1
:1029B00049027D028D02DAF80800CAF80C00E4E151
:1029C000DAF82C40E5E15FFA8EF1032900F28C8001
:1029D00004205446DFE801F002753472002A00F04A
:1029E0003F81012A8CF8000000F03D810320022A7B
:1029F0008CF8010040F23B810920032A8CF8020088
:102A000000F039814FF004098CF80390FFF737BCD0
:102A10000AF1BA0C4FF00A09FFF731BCDAE90DC927
:102A2000FFF72DBC20466834406EC500002D3FF4F2
:102A300000ADF4E802018A6900219047083DF5E7FE
:102A40000AF108040C203CE0A8370400F43A040022
:102A5000043B0400B43A0400C0220400B022040085
:102A600010230400D02204000023040040230400AB
:102A7000B0950020C43A040020230400A0210400E3
:102A8000B0210400C02104003022040060210400B1
:102A9000702104008021040010220400E0210400C1
:102AA000F0210400002204002022040050560400FB
:102AB0001437040090220400A02204000AF110043C
:102AC00014205AF80010206810BBDDF818A0002070
:102AD000DDE9088BDAF86C11D431CAE95F100AF528
:102AE000BE701BF069FD3EE1DAF864000AF168048B
:102AF000C500002DE9D0F4E802010E9A0E6B714674
:102B0000B047DDE90AE2083DDDF830C00028F0D02A
:102B1000012A40F2A18000EB010A0DF168080322AE
:102B20004FF0020900248CF801201CB100258346D7
:102B30000B9B32E0504555D083460B9B1BF9011B84
:102B4000CCB2B1F1FF3F27DC427804F01F01E02C4A
:102B500002F03F0212D38678F02C06F03F0646EAD8
:102B6000821210D3C47801F0070100F1040B04F0C5
:102B70003F0444EA821242EA814508E042EA8114B5
:102B800000F1020B08E042EA013500F1030B0020DE
:102B9000B0EB154F1CD12C46002509F102069E42D0
:102BA0004AD25FF8F000314600904846624622F073
:102BB0009DFB5FF8FC20022300924246ADF868407E
:102BC00021F0CCFBDDF830C058462C46B146ACE7CE
:102BD00005F57F00372161F39F254FF4584141EA05
:102BE0009024DAE78CF80090FFF749BBDFF8F43D5A
:102BF000002031461FF0ADFCDFF8EC0D3721DFF887
:102C0000EC2D1FF0F7F8DFF8E00D3721DFF80C2E80
:102C10001FF0F0F8DFF8D80D1C21DFF8D82D1FF0D9
:102C2000E1FCDFF8CC0D1C21DFF8CC2D1FF0DAFC25
:102C3000DFF8EC0D1FF035FEDFF8DC0D00F0B5BD60
:102C4000DFF89C2D49461FF0D3FCDFF8B42D01E0DE
:102C5000DFF8A82D24F054FEDFF8B80D00F0A5BD74
:102C6000DFF8AC2DF6E7DFF8A42D24F0FEFEDFF848
:102C7000942D25F08EF8DFF8902D25F081F80AF5D7
:102C8000C87800200129CAF8A80102D1DAE96B69E5
:102C900004E04046FEF748FC06468946002E60D018
:102CA0009AF8B44100208AF8B401DAF8A8010128A2
:102CB00002D1DAF8AC0107E04046FEF735FC01220C
:102CC000CAF8B011CAE96A200021B0FA80F08AF887
:102CD0008D114009DAF86C110AF28D188AF88E41CC
:102CE00001F1D404CAE95F698AF88F01CAF8884102
:102CF0008AF88C0100202568002132464B46C5F831
:102D000028019AF88C018000C0B2C5F80002206842
:102D100020F012FAE148C5F80403CAF88441DBF850
:102D20000040D4E9001089688847DFF8B00CD4E986
:102D30000012283020F0FCFADAF884010068D0F89C
:102D4000281129B10120DAF8A8118AF88D0196E737
:102D5000D0F8001111B9D0F85C0168B1012088F8F1
:102D60000000DDF8208007990120087088F8000035
:102D7000DAF84001FFF7A3B80799032088F80000AC
:102D8000DDF8208008700499FBE5DFF89C4CCAF858
:102D90002C40C3480068C00540F08F85206800289B
:102DA00040F08D8525F049FB207B012804D104F5F6
:102DB000CC7020F073FA217BD4E90102904201D15A
:102DC000C9070FD000212173411C00EB4000B1F175
:102DD000200218BF0A46626004EB800010F80E5F04
:102DE000042D07D124F09BFF04F5C87020F063FA8E
:102DF000042504E0411C10A80B223DF014F924F036
:102E00001FFF042D7ED054460B2204F8105F10A93A
:102E1000601C3DF008F921F03BFDC0B2032805D14C
:102E2000DFF8B80B443021F011FBAEE700208AF840
:102E30003400DAF80C00CAE90B04DBF800200AF1D0
:102E40002C011AA81BF0CAFB1A98072854D0062890
:102E50009BD05446DDE91B1244F81C0FDFF8D40B5D
:102E6000C4E901121FF0EAFD204616F047FB1FF0EF
:102E7000B3FE2068032804BF9AF8200001287FF4DD
:102E800084AFDFF8580B443021F0E0FA1AA824F0A0
:102E9000F0FEDDE91A129DF87000CAE90C128AF8FA
:102EA0003800DBF800100AF1300020F09FFA38BB40
:102EB0000020DAF80C108AF834000AF11000CAE990
:102EC0000B10DBF800200AF12C011AA81BF086FB7E
:102ED0001A98072812D006283FF457AFDDE91B12D5
:102EE0001AAB07C3DFF8500B1FF0A8FD1AA816F0A5
:102EF00005FB1FF071FE48E7042004E0062002E015
:102F0000052000E003208AF82800DAE92A010843B6
:102F100018BF01200C9040F017819AF8B90098B1C1
:102F2000032826D19AF829010AF22914A8B1032806
:102F30001BD19AF820010AF5907588B1032869D051
:102F4000DFF8F80A1FF0B7FCDAF8B4009AF8BA1004
:102F5000CAF8B0008AF8B81014E0DAF8240118E0D2
:102F6000DAE92F02DAF8C41022E0DFF8D40A1FF001
:102F7000A2FCDBF800100AF1C80020F037FA40BBD1
:102F8000DAF8B0000021CAF824018AF829110AF2FF
:102F9000291400210AF594728AF828110AF590750F
:102FA00000688AF820110121CAE92F02CAF8C4106A
:102FB0000029CAE93202CAF8D01000F04B83018917
:102FC000CAF8D41000680068BFF35F8FCAE9360002
:102FD00001E00420B6E0DAE93323DFF8681A009153
:102FE000012122F083F9DAF8D420002A00F02C83A2
:102FF0000AF1E00307C30AF1E0001CF041FE78B3D8
:103000000022CAF8F4108AF81C21DAF8C820043229
:10301000CAE93B20DBF800200AF1EC011AA8FEF710
:103020009BFA9DF86800022800F08980C00704D050
:10303000DAF8C81024F0E7FE18E01B99DAF8DC0093
:10304000DAF8D4200844CAF8DC00914201D3012800
:103050006ED1DAF8C80000210068BFF35F8F01600D
:10306000DAE936010029B6D0E0B102220123CAE92B
:103070002F208AF829314FF400428AF820310023AA
:10308000CAF8C4101AA820F093F9DDE91A129DF8C5
:103090007000CAE932128AF8D0006AE701048000A1
:1030A00004ED00E001209AF828418AF820018AF80E
:1030B000290121F017FB9AF8B810C0B288427FF4BA
:1030C0005FAFB3480068C00540F0F783DFF87809C8
:1030D000DFF8781915F01EFE0646007C0D46012823
:1030E00004D106F108011AA81CF078FAF06FE0B1DB
:1030F000317C002940F0AD80D6E9021206EBC20314
:103100009861501C821E1C7518BF0246F2609142E5
:1031100004BF01203074D6E9000124F0CFFEC6E9D7
:10312000000106F1240021F087F924F043FE27E78F
:10313000DAF8C8100968BFF35F8F08605BE7032007
:10314000207028708AF8B900DAF8D8210199002A8D
:1031500040F02D849AF8F4010E9290B1032817D113
:103160009AF810020AF5FC7878B3032840F07580CD
:103170009AF80C0288B3032840F07780DAF804420A
:103180009CE20AF5EE720AF5F47307CA07C37FE200
:103190009AF898030AF566720F92C8B1032860D1B5
:1031A0009AF89403E0B1032863D19AF848020AF52B
:1031B000387B0AF51279DFE810F0050060006A023A
:1031C00028001800DAE98658D5E2D8F8000066E24F
:1031D000DAE98058DAF808429BE2DAF8FC0164E2A6
:1031E000DAE98358DAF814429AE29AF894020AF576
:1031F0002574DFE810F0E7004E004C02CB01BF0160
:1032000007004201DAF8C00203E19AF8DC020AF58D
:10321000377488B1032834D19AF8D8020AF5367881
:1032200078B1032831D19AF8D4020AF5357558B12E
:1032300003287FF485AE92E0DAE99386DAF85452F7
:103240002BE0DAF86C5239E0DAE99C60DAF87812AF
:1032500053E0DFF8FC071FF0BBF9DFF81C081FF094
:103260002AFBDFF80C081FF026FBDFF808081FF028
:1032700022FBDFF8F8071FF01EFBDFF8EC071FF05A
:103280001AFBDFF8E0071FF016FBDFF8D4071FF08A
:1032900012FBDFF8C8071FF00EFBCAE99686CAF8D2
:1032A0006052002D76D00020CAF86C528AF8D802FD
:1032B0000AF53678DAF85802CAE99906202D0AD2BA
:1032C000DFF8C0071FF0BAFB28461FF0A9FB1FF06C
:1032D00083FC012602E1DAE999012A46DFF89C37EE
:1032E0000668202021F0F8FF0022CAE99C608AF8D5
:1032F000D4220AF53575CAF878121F29CAE99F60E9
:10330000CAF8841240F2A6813089CAF8880230686F
:103310000168BFF35F8FCAE9A311DAE9A023DFF8E0
:10332000240700900846202121F0E0FFDAF88822E7
:10333000002A00F089810AF5257307C30AF5257074
:103340001CF09EFC002800F0B3800022CAF8A812EE
:103350008AF8D022DAF87C220432CAE9A820099837
:103360000AF5287102681AA8FEF7F6F89DF86800B9
:10337000022805D10320022688F800002870B0E05A
:10338000C00700F08180DAF87C1224F03CFD97E061
:1033900004ED00E00120DAF820528AF8DC021AACD1
:1033A0000AF50A71202224F0CFFB0AF51470214699
:1033B0002022CAF84C523CF036FE0AF52574002053
:1033C0008AF894020AF51D750AF51471DAF84C6250
:1033D00020222846CAF870623CF025FE9AF8740252
:1033E000532804BF9AF87502032800F0AB8096F8C2
:1033F000EC00E8B3012029468AF89C020AF29D20DD
:103400002022CAF898623CF00EFE06F1E000CAF8ED
:10341000C002099909681BF04BFF38B39AF89C0267
:1034200000218AF89C12C00700F01B81DD48DAF801
:1034300098520068C00540F040822868002840F09B
:103440003E824FF0FF302860287B002861D0099829
:103450000068D0E9001205F138001FF02CFF0120B0
:1034600005218AF89C0224F0A5FC93E0DAF870624A
:1034700001200AF51D7124F0B6FA24F0F0FB0028B3
:1034800000F09A80062185E01B99DAF89002DAF8BC
:1034900088220844CAF89002914202D3202840F0C2
:1034A000CC80DAF87C0200210068BFF35F8F0160F6
:1034B000DAE9A31000283FF430AF022200295DD0E2
:1034C00001262E701C90DFF8B805CDE91A211FF0F7
:1034D000B5FA1AA821F048FA1FF07EFB012188F8FE
:1034E0000010022E0BD06EB9DAE99712DFF898358A
:1034F000FEF7F1FA06460D46CAE99765D1E60320C4
:10350000207049E0DDF824B00120207089F8000027
:1035100025E2AC680AF29D21202205EB44100D3013
:103520003CF081FD002C18BF01346868AC60A042FB
:1035300004BF0120287305F130001FF0AFFE24F016
:1035400039FC39E096F8EC00E0B140F2533001214B
:10355000AAF87402202296F8ED008AF89C1206F16F
:1035600040018AF876020AF29D20CAF8981229468C
:103570003CF059FD24F073FB04210AE001210026F0
:103580002970ABE70120294624F02DFA24F067FBCF
:10359000032188B1217004208AF848029AF81003A8
:1035A000DDF824B0DFE800F00359733E0E00DAE9DD
:1035B000B801CAE9BA01FCE00120DAF824828AF8ED
:1035C0009402DAE09AF890030AF5647468B3032869
:1035D0004AD19AF88C030AF5637658B3032847D189
:1035E0009AF849030AF24935DFE810F00500460071
:1035F000510080019C01DAE9CE02212ADAF8441355
:10360000CAF840133CD28988202A00F02E81D1B319
:10361000B2FBF1F303FB1123B3FA83F35B098AF8DE
:10362000483327E1DAF81443C7E0DAE9C506DAF8E7
:103630001C53FAE0DAF8345307E1DAF87C1209682F
:10364000BFF35F8F086079E6E7483721DFF804248D
:103650001EF0D0FBDFF80004A7E0DFF848041FF0FD
:103660002AF9DFF82804A0E0DFF834041FF023F97A
:10367000DFF828041FF01FF9DFF814041FF01BF90E
:10368000DFF8100491E0DFF810041FF00AF9FEDE05
:103690000021CAF8F8018AF810120AF5FC78002116
:1036A00004308AF80C12CAF8FC01817911F07F0409
:1036B0007AD00121CAE980048AF8081220461AF05B
:1036C000A1FDDBF80010D1E900121FF031FEDAF89D
:1036D0000002214600681AF081FD9AF808120122C2
:1036E000484018BF03228AF810228AF80C2255D1CC
:1036F0000AF5F47500208AF898030AF5FC7223CDC8
:103700000AF5FE74CAF8084282E823010AF56670D9
:103710000F900020CAE983588AF89403CAF814422B
:10372000C0480068C00540F0C880286C002840F000
:10373000C6804FF0FF30286495F84C00012804BF84
:1037400005F1D8001FF0AAFD286C002685F84C6012
:10375000013028642846C5E9116620F011FF8AF877
:1037600010630AF5387BCAE9B8540AF512798AF869
:103770004862CAE98658CAE988580AF50A762021BB
:10378000202530463CF0DCFB0020CAE993868AF80D
:10379000DC020AF53774CAF854527EE503200E9A0B
:1037A00002E100BF04ED00E0C3481FF053F91FF031
:1037B0005FF900F14004CAF814439A480068C00554
:1037C0007BD1206800287AD124F037FE207B0128A5
:1037D00004D104F198001FF061FD217BD4E90102BE
:1037E000904201D1C90757D02168421C4FF0000810
:1037F00004EB401001310AF53C76131F84F80C806D
:1038000018BF1346C4E9001300F10D013046202211
:1038100020253CF0C9FADAF8EC020AF564748AF85B
:103820009083CAE9C506CAF81C53CAE9C806CAF893
:1038300028535DB30020CAF834538AF88C03DAF8B1
:103840002003CAE9CB060AF56376202D17D1DAE901
:10385000CB1000220AF2493509688AF84923202250
:10386000CAE9CE02CAE9D011898800228AF8482321
:103870002022E9B1CAE9D302CAF8541328E08A48E1
:103880001FF0DCF828461FF0CBF85FE001208AF833
:103890009003DAF8E8028CE724F041FA04F1900092
:1038A0001FF009FD20680E9A01302060032073E0AC
:1038B0004D4837217F4A1EF09DFA5C4875E75C4809
:1038C0001FF0BCF821F022FD1FF086F91FF0D0F8A0
:1038D0000AF553701CF02CF9B0B10022CAF860133D
:1038E0008AF88823DAF84023CAE9D620DBF80010EA
:1038F0000AF55670FDF732FDC0B20228E8D00E9AE4
:1039000003281BD1032042E09AF8480301282DD157
:1039100000200121DAF840238AF87C03CAE9D32188
:10392000CAF85403DBF800100AF55370FDF716FDD2
:10393000C0B202281AD00E9A032827D0012028707E
:103940005B481FF07BF8012021F000F81FF044F9DC
:1039500001208AF890038AF88C038AF810038AF809
:1039600098038AF89403DAF8E80191E6DAE9C912D3
:1039700001204E4B8AF88C038AF849032020FEF779
:10398000A0F806460D46CAE9C96552E7042003219E
:10399000287031700420217003218AF8100304205C
:1039A0008AF898138AF8941301998AF8F401002987
:1039B00018BF01219AF89C03002818BF01202AB1E2
:1039C0000D9A104008400C99084002D123B024F011
:1039D00090B80AF598700BF06DFF00BFB09500200D
:1039E0004022040050230400D83604003023040091
:1039F00011480400C4380400B4380400D021040085
:103A0000902104007022040080220400602204003F
:103A1000502204002300000024000000F0220400D3
:103A2000E022040004ED00E0908F00203700000049
:103A300050000000410000004000000094230400FA
:103A400054380400A4230400E08B0020B84C040088
:103A5000D84C0400B42304001F00000058350400B3
:103A600074380400643104006835040048350400EB
:103A700038350400803B0400C4230400643804008B
:103A8000480000004C0000007431040039000000C0
:103A9000F423040021000000D4230400843804002F
:103AA00084310400783504004B0000009431040098
:103AB00049000000E423040013000000F0B503AF48
:103AC0002DE9800F8046407A0D46DFE810F00500B2
:103AD0001F01280149002B0098F80810D8F80400AD
:103AE000C8F80000DFE801F003DD4C5B470002216D
:103AF00080F8C8100021D8F8000080F8C410D8F869
:103B0000000080F8C510D8F8000080F8C91023F034
:103B1000DCFE002D00F0D280F4E80201096988473C
:103B2000083DF6E798F81000C00740F0F280D8F89A
:103B30000C0000680021C0F80015012088F8100072
:103B4000D8F8000080F8C81023F0BFFE002D00F068
:103B5000D680F4E80201CA6800219047083DF5E7E5
:103B6000464616F8180FDFE800F003D7DA42730074
:103B7000D8F80C001AE02C300021C8E90301D8E77E
:103B8000002180F8C41023F0A0FE002D00F0B780C3
:103B9000F4E80201CA6900219047083DF5E70021D9
:103BA000464606F8181F2C3046F80C0CC8F81000D2
:103BB00049F275320168404640F8141F03235B49FF
:103BC0000A60C1F814310A600B6803B90A60C023A7
:103BD0004B610A600122D8F81410C1F800254FF497
:103BE0008002D8F81410C1F80423C8F81C0050480B
:103BF000D5E9001220301FF09BFBD8F81C000068AC
:103C0000D0F80004000501D403202FE0D8F81400F8
:103C10004FF40061C0F800144448016811B949F23A
:103C200075310160002149F2753241610260026024
:103C3000C0F81411802102603E480160D8F81400D9
:103C40003D49C0F80413D8F810000530C8F81C002E
:103C50003748D5E9001218301FF06AFB3748016871
:103C6000890707D40068C00709D0042030700120FC
:103C7000032146E0D8F814000121C0F80415012002
:103C8000022188F81800D8F8000080F8C81023F046
:103C90001CFEA5B3F4E80201CA6801219047083D63
:103CA000F7E7012180F8C41023F00FFE3DB3F4E8DC
:103CB0000201CA6901219047083DF7E7D8F80000E2
:103CC0004FF00009002500F1540B016D0BEB410A88
:103CD000D34514D08BF80090D8F8000000F16804A8
:103CE000406EC6003EB1F4E8020100224B6A29464C
:103CF0009847083EF6E701350BF1020BE8E7002094
:103D0000012188F80910BDE8080FF0BD06481EF033
:103D1000D2FD03481EF0CFFD02481EF0CCFDFEDEB2
:103D2000C8370400B83704005021040000EC0640F6
:103D3000B095002004E100E001004001380400409B
:103D400080B56F46002080BD80B56F46002080BDE5
:103D500080B56F4680BDD4D4B0B502AF0446407C78
:103D60000D46DFE800F003212C395300D4E90010A0
:103D70000B28E268A2601AD292880A2807D1002391
:103D800023746AB92E4837212E4A1EF033F89AB1AF
:103D9000B0FBF2F303FB1203B3FA83F35B09237462
:103DA000C4E90510E2610BE022481EF084FD2248C0
:103DB0001EF050FE1EF05CFE20481EF072FDFEDE7E
:103DC00004F114001BF0B4FEA8B10022A16284F833
:103DD0005020A268C4E9082004F120002946FDF71C
:103DE000BDFAC0B20228EBD0032807BF032103208D
:103DF000012101201BE0207C0121012816D1002097
:103E0000A26884F84400C4E90521E06104F11400CB
:103E10002946FDF7A3FAC0B2032802D103200421EA
:103E200005E0022818BF0120012100E00220617492
:103E3000B0BD00BFF423040021000000D42304001F
:103E4000D8360400E4230400F0B503AF2DE9000FD9
:103E500097B093F814900DF11C0A06901546D3E91B
:103E600002049846DE7C0322039050464B4600969F
:103E7000059100F0F5F80DF12C0B5146584600F075
:103E80001BF99DF8300059460290032200960DA8B8
:103E90004B4600F045F9200A04948DF84D400190FE
:103EA0008DF84E0022200D9C8DF84C004148129058
:103EB00012A9204600F092F904F1F00098F812B02F
:103EC000B8F810901FF022F9012863D003200DF1FB
:103ED0003C0A8DF84400D4F8EC000F9041F08000CB
:103EE0000AF104018DF842002046BE688DF843B007
:103EF000ADF840901FF09CFBD6B104F1F2001FF02A
:103F000005F901284DD003208DF84FB08DF85000F1
:103F10008346D4F8EC00ADF84C908DF84E1012901A
:103F200012A8011D20461FF083FBDDE9129401E079
:103F30004FF0040B099840301FF024FC019805F164
:103F4000200668772220E8764FF48070A5F81900E3
:103F50001948C5F815000298049A2875D8E9000197
:103F6000039B2A77C5E90032C5E90260134A059828
:103F70002961294600F058F8069DC5E903942846B2
:103F800085F814B09AE80E000EC0AE6117B0BDE817
:103F9000000FF0BD0D48A7F11D02009018210C483C
:103FA00005E00748A7F11D02009019210548064BBE
:103FB0001EF059FC10010001092110011424040015
:103FC000AC24040090240400F4360400802404008F
:103FD0006824040080B56F4680BD80B56F4680BD03
:103FE00080B56F460021016080BD80B56F4600201E
:103FF00080BD80B56F46002080BD80B56F46002033
:1040000080BD80B56F46022080BD80B56F4680BD03
:1040100080B56F4680BD80B56F4680BD80B56F4668
:1040200080BD80B56F4680BDD0B502AFD0F894306A
:10403000082B3FBF00EBC304C4E92612591CC0F88B
:10404000941038BFD0BD05481EF0F8FC08201EF0C3
:10405000E7FC1EF0C1FD1EF00BFD00BF25000000B7
:10406000F0B503AF4DF804BD82B0D1F8D8600C466E
:1040700091F8871005460020012917D1B96807F883
:10408000142CA7F1160207F8121C0B2107F8133C99
:10409000062307F8110C07F8150C204607F8166CD4
:1040A0001FF07AFAA069411F0120FFE72E7313C5A4
:1040B00002B023F061BDD4D4D0B502AF0A684AB1D2
:1040C000D1E9013251698B4221D21169CC5C0134B2
:1040D000CC5400E08A68D2F8D81008293FBF0023EA
:1040E0004371017102603FBF481CC2F8D80002EB67
:1040F0004100A0F8DC3038BFD0BD08481EF09EFC5F
:1041000008201EF08DFC1EF067FD1EF0B1FC024A77
:1041100018461EF06DFA00BF482404002600000077
:10412000F0B503AF4DF8048D82B00E6880464C792F
:104130000D79601C4871D6F8D810A9423CD906EB1D
:10414000450090F8DD10013180F8DD106CB9306861
:10415000012835D170687169884236D2D6F810C00E
:104160001CF8001001310CF80010B069012107F8AB
:10417000142CA7F117020430D7F808C007F8133C35
:104180000723C6E90210002007F8110C042107F8E4
:10419000150C304607F812CC07F8164C07F8175CD8
:1041A0001FF0FAF988F8054088F80450C8F8006054
:1041B00002B05DF8048BF0BD054A28461EF018FADF
:1041C00004481EF047FC1EF053FC034A1EF010FA90
:1041D0005824040029000000A848040080B56F4658
:1041E0000A4621210723BDE880401FF0D5B9D4D469
:1041F000F0B503AF4DF8048D82B046681446964280
:104200000FD3D0F80080054609480A4600902146A1
:104210004046234620F0A2F8301B08EB0401C5E914
:1042200000100020A64238BF012023F099BD00BF36
:10423000FC4B040080B56F460121D0E84F2F4AB9EE
:10424000C0E8421F002AF8D10121BFF35F8F00F8B8
:10425000011F80BD02487921024A23F02EFD00BFD4
:104260006C4C0400A84C0400D0B502AF04462430C6
:104270000122D0E84F3F5BB9C0E8432F002BF8D1B3
:1042800020462422BFF35F8F3BF0CDFE2046D0BDF9
:1042900002487921024A23F010FD00BF6C4C040053
:1042A000A84C0400D0B502AF044600F5807001228E
:1042B000D0E84F3F63B9C0E8432F002BF8D1204628
:1042C0004FF48072BFF35F8F3BF0ADFE2046D0BD50
:1042D00002487921024A23F0F0FC00BF6C4C040034
:1042E000A84C0400F0B503AF4DF804BDADF5836DE7
:1042F0000546009068464FF40272041D20463BF0CC
:104300001DF81149284614F005FD0646007C0D46AF
:10431000012804D106F1080183A81BF040F983A805
:104320003146224600F024F89DF81204022801BF0D
:104330002868013028600DF5836D04BF5DF804BB6B
:10434000F0BD02481EF044F9B84C0400D84C0400FB
:1043500080B56F46034921F011FA007C0A68013AE2
:104360000A6080BD7825040080B56F46082080BDB6
:10437000F0B503AF2DE90007814641F28C000E58DD
:104380009EB3087C0D4630B1114648464FF4027288
:104390003AF0D4FF2CE0D5F80C804FF40370B2F85B
:1043A00006A2114640F2062208FB005404F1140054
:1043B0003AF0C4FF08F10100C4F81C62B0F1080132
:1043C000A4F81AA218BF0146A868E960884204BF91
:1043D00001202874D5E9000123F070FDC5E9000132
:1043E00041F2740028441FF0FFFF022089F8060202
:1043F00023F0E4BCD0B502AF054921F0BFF9083085
:104400000C461BF05FF8216801392160D0BD00BF68
:1044100058250400F0B503AF4DF804BD044600680C
:1044200078BB23F09CFD012805D104F58C701EF0AB
:1044300035FF207B00E00020D4E901158D4206D134
:10444000C00704D100210426042000250AE004F15D
:1044500010068D4206EB011091BFC1F11001691ADF
:104460000025042613F052FD3046294613F04EFD78
:1044700000202073C4E9010023F0E2FB5DF804BBD7
:10448000F0BD04481EF0DAFA20F040FF1EF0A4FB55
:104490001EF0EEFA50000000F0B503AF4DF8048DA9
:1044A0008046086868BB4FF0FF300D460860087B07
:1044B00038B192E85A0008F104005AC000210120E6
:1044C0001AE0D5F808C092E8590005EB0C1110313C
:1044D00059C10CF10100B0F1100118BF0146686824
:1044E000A960884204BF0120287305F588701EF07A
:1044F000D5FE2868411C00202960C8F8000023F080
:10450000A6BB04481EF09AFA20F000FF1EF064FBE0
:104510001EF0AEFA50000000F0B503AF4DF8048D68
:104520008046086880BB4FF0FF3012F8016B0860CE
:104530000D46087C48B1102E1AD008F10100114632
:104540003F223BF070FD002019E0EC6811463F224D
:1045500005EB8410067619303BF065FD601C811E6A
:1045600018BF0146A868E960884204BF012028748A
:1045700005F198001EF092FE286810260130286090
:1045800088F8006023F063BB04481EF057FA20F05F
:10459000BDFE1EF021FB1EF06BFA00BF50000000B4
:1045A000F0B503AF4DF8048D8046086870BB0D462A
:1045B0004FF0FF3101CA2960297B39B1D0B192E8AF
:1045C000580008F1040158C100211AE0A96805EB60
:1045D0000113186103F1140092E8580058C0481CF8
:1045E000B0F1100118BF01466868A960884204BF95
:1045F0000120287305F588701EF050FE2868411CC4
:1046000000202960C8F8000023F021BB04481EF0F8
:1046100015FA20F07BFE1EF0DFFA1EF029FA00BF2B
:1046200050000000F0B503AF4DF8048D8046087AC5
:1046300016460D4670B133B11868D0E9001205F185
:1046400094001EF038FE08F10100314623F0A9FA6B
:10465000012016E06C683146202205EB4410093039
:104660003BF0E1FC601C011F18BF0146286869602F
:10467000884204BF0120287205F18C001EF00EFE56
:10468000002088F8000023F0E2BAF0B503AF2DE96E
:10469000000B8146087AB0B155685DB3D2F800804E
:1046A00002F108063BB11868D0E9003201F5AA70A2
:1046B00019461EF000FE96E80E0009F108000EC033
:1046C000C9F800801BE0D1F804C092E871400CEBFF
:1046D0008C0301EB83030C3383E871400CF1010080
:1046E000B0F1100218BF024608684A60904204BF49
:1046F0000120087201F5A6701EF0D0FD0025C9F852
:10470000045023F0CFBAD4D4F0B503AF4DF8048DE4
:104710000E46014610C980461546E00048B10A46DB
:104720000838083153689D42F8D112689642F5D195
:1047300018E0012C04D140461FF056FED8F8004086
:1047400031682846884744B160B1C268084690473E
:1047500005481EF07FF91EF08BF90122C8F80810F9
:10476000C8E9002023F073BA18000000B0B502AF0A
:104770000A46054623F00CFC0C4690F85C1304290D
:104780000DD141F20131A0F85C1305F576700549B1
:1047900020F088FE103023F0A7FB23F00BFB23F062
:1047A0004FFAB0BD4C2C0400F0B503AF2DE9FC0B63
:1047B0008146087E90460C4650B1032840F0988010
:1047C000A07D68B1032840F09680D4E9011211E081
:1047D0002168002208680979A2752175206101E02D
:1047E000217D2069234603F8151FD0E90012A3F1AB
:1047F00011000EC0434B684621F012FFE06801999A
:104800000078814268D900994FF45E7210FB02165D
:10481000D8E9001206F54A701EF04DFDD6F82001C9
:1048200000285CD14FF0FF30C6F8200196F82C012B
:10483000012806D106F50E701EF030FD96F82C11F9
:1048400000E00021D6E94902904201D1C90717D002
:10485000002186F82C11411CB1F1100218BF0A4644
:1048600006EB0011C6F82421D1F8300140B101F562
:10487000987103AA01F1040C9CE82A002AC206E000
:10488000D8E9001206F50C701EF015FD0020D6F8D0
:1048900020110131C6F8201148B103AA09F108011D
:1048A00092E8680068C1C9F80400002004E096F8A6
:1048B0005C130029F7D001200299C9F800000A68AA
:1048C00001320A60012110B1C9F8001003212176DC
:1048D000A17506B023F0E6B90B4A1DF089FE0B481E
:1048E0001EF0ACF820F012FD1EF076F91EF0C0F8B4
:1048F00003481DF0E0FF01481DF0DDFF9C2B040084
:1049000098250400AC2B0400BC2B040050000000D0
:10491000F0B503AF2DE9800F8146087D90460C4627
:1049200068B1032840F08480A3461BF8120F90B1B1
:10493000032840F08080D4E901010A7814E021685E
:10494000A34608680A7900210BF8121F0BF8022C05
:104950004BF8060C01E0227CE068214601F8112F9B
:1049600041F80D0C41F8091C23F00AFB0546D0F86C
:104970008002002853D14FF0FF308A46C5F88002EC
:1049800095F89002012806D105F548701EF086FCC6
:1049900095F8901200E00021D5E9A202904201D1E1
:1049A000C9070FD0002185F89012411C05EB80103B
:1049B0008A1E18BF0A46C5F8882290F89862F1B29C
:1049C000102907D1D8E9001205F546701EF073FCD6
:1049D000102607E000F5267109F1010001313F22A0
:1049E0003BF021FBD5F88002F1B289F8006001307C
:1049F000C5F88002DAF800000138CAF8000001208A
:104A000010294FF0010108BF03218BF8001002BFED
:104A1000102089F800000320207523F059BA0948B6
:104A20001EF00CF820F072FC1EF0D6F81EF020F8F4
:104A300003481DF040FF01481DF03DFFDC2C040041
:104A4000B825040050000000F0B503AF2DE9000FB9
:104A500097B0804690F84400894668B1032840F03A
:104A60009D8098F8410008F11405D0B10328019504
:104A70003ED04C481DF01FFFD8F8000008F1040C90
:104A800008F11405D0F800B0294602799CE85900D5
:104A900059C1002088F8410088F84020C8F83CB08F
:104AA00003E098F84020D8F83CB0019528460DF175
:104AB000080A90E87800514678C1DBE900011FF050
:104AC0008BFDB0F85843102208680138086006AE24
:104AD0005146B01C3BF0A7FA0BF57E70C8F82400D5
:104AE00008F12A0031461222A8F828403BF09BFA30
:104AF0004446002154F828EF62686160002A3FD0E4
:104B000008F130030DF1400C0CF10C0593E8430063
:104B100043C5D8F82460CDF85890CDE911E230684B
:104B2000109690BB0DF12C0A4FF0FF300CF10402EF
:104B3000311D306050464B46FFF7A7FD23F018FAB1
:104B40000C9E56B1D8E90B0113F039FA9AE82F0000
:104B50002FC4032488F8414009E0D8E90B0113F081
:104B60002EFA0198012488F8414013F07FFC88F860
:104B70004440002E18BF0126304617B023F077BA04
:104B80000B481DF067FF1DF073FF08481DF056FF2E
:104B900020F0BCFB1EF020F81DF06AFF02481DF05B
:104BA0008AFE00BFEC2C0400C82504005000000061
:104BB0003900000080B56F461FF00EFDB0F85803B5
:104BC0000A68013A0A6080BDF0B503AF4DF8048D64
:104BD000054691F8320190460C4620B103281DD0BD
:104BE0001A481DF068FE04F13800214623F007FC46
:104BF00001202246A4F8300184F86A00A06F02C8A0
:104C000042F8700F04F598705160002182F8BE10D0
:104C100032F8081CA2F8BC10C2E9032004F17C069B
:104C200028464246314606F085F92878232801D1E6
:104C3000032007E0304613F0D3FC94F86A0022F01A
:104C400029FE012084F8320123F001B8E825040090
:104C5000DFB506AF0A4B23F02CFC01A814F04BF88B
:104C60000299E0B2814281BF019A03994FF4B07377
:104C700010FB032084BF04B0D0BD024A1DF0B8FC75
:104C8000F825040008260400F0B503AF4DF8048DA4
:104C90000E464968403A044690B2814217D93068BE
:104CA0001D46FFF7D5FF8846B0F85011AAB28A42D8
:104CB00010D900F02FFD0A4906F1080020F0F2FBA0
:104CC000303023F011F923F075F8052003E01220AD
:104CD000207003E02120207022F073FE22F0B7BF85
:104CE000CC270400F0B503AF2DE9000F8BB00446CC
:104CF0000220ADF80A0001208DF808001E462C485D
:104D000088468DF80920039007A822F05BFD079DD7
:104D1000EDB3DDE9089BFB20D7F808A0CDE904B08E
:104D20000020069004A803A909F04EFEC0B2022894
:104D30001CD104A802A909F047FEC0B2022815D16F
:104D4000DDE90530191A02290ED3049A1949009198
:104D5000811C019120F0CAFACDE9070107A831466C
:104D60000222FFF745FAB8B1042004E0C0074FF073
:104D7000040018BF0D2001212070617028464946AB
:104D80000BB0BDE8000FBDE8F04022F059BD162081
:104D900020700BB022F0ADBE019851460A9007A8D2
:104DA00080E8200A07AB2046424604F0EBFAF0E721
:104DB0000600050074300400F0B503AF2DE9000FC4
:104DC000BBB0D7F808800DF1980BDFF8F0681C46EF
:104DD0000D924246CDE90B109AB15846194613F090
:104DE0007BF82799002900F02F84289ABDF89A00B3
:104DF0008242C0F02E843346FCF763FE03460A4627
:104E0000EAE70B9808300A9014A80D9E103009901C
:104E1000B8F1000F00F0358458462146424613F0A1
:104E20005BF827999DF89840002900F02D84289A76
:104E3000BDF89A30DFF88C08009058469DF89950DC
:104E400014F030F82898DDE926A9DDF8A4800E904A
:104E5000A01F10284CD8DFE810F01100C400A700F4
:104E6000A700A700A700A700A700A700A700A7000A
:104E7000A7009A00B100F10032015500B9F1040F0A
:104E80003CD3DFF8440822F089FD2998B0BB26986E
:104E9000DFF8443804880B9822F0C4FDDDE92610C1
:104EA0004FF4B072504301F5A672002800F0A781BC
:104EB0001146A0F5B0700B8802F5B0729C42F4D197
:104EC000A1F5A670052145730173183000F036FC7A
:104ED0000A98DFF8081820F0E5FA303023F05FF97F
:104EE00023F046F828980D9E22F04DFE2120E8E29E
:104EF000012C59D1B9F1020F80F03F8101208DF8CA
:104F00003C00E4E2B9F1040FC0F0E182DFF8B80739
:104F100022F044FD2998002840F0D9822698DFF835
:104F2000C437B0F8029006880B9822F07BFDDDE9CB
:104F300026014FF4B0725143002900F07B81027BBF
:104F4000032A06D1B0F85421B24204BF0288012AD4
:104F500004D000F5B070A1F5B071EDE70D9B42886B
:104F60009BB29342F5D1B0F85A114944CA0340F1BB
:104F7000C58200F0CFFB0A98DFF86C1720F092FA98
:104F8000303023F00CF922F0F3FF0520BCE2F86882
:104F9000324622F0F9FF38B10A6890F86E03013A00
:104FA0000A60002800F0F180DFF8143722F058FF83
:104FB0009DF89800212840F0888290E2B9F1020F14
:104FC000C0F0F080DFF8000722F036FD022313F076
:104FD00069FF2998002840F0E58021208DF83C00E9
:104FE0007DE2B9F1040FC0F0DD80DFF8DC0622F0CD
:104FF000D5FC2998002840F0D5802698DFF8D036D7
:1050000046880B9822F00EFDDDE926404FF4B07182
:1050100000FB01F5002D00F00D81DFF8B81604F15A
:105020000C0019F0EDFC20B1B4F84C01864200F000
:10503000F68004F5B074A5F5B075EBE7B9F10A0F89
:10504000C0F04582DFF8800622F0F6FC0A2313F058
:1050500029FF2998002840F03A8226980189069174
:10506000C188079141880891B0F804A004880A9883
:10507000DFF8881620F016FA8946611EFE2900F234
:10508000CB806109234650F8212004F01F01002441
:10509000CDF814A022FA01F1C90700F0D080CDE9C3
:1050A00003303246F86822F067FF002800F05A818A
:1050B00090F8742322F063FD21A8212154E1B9F175
:1050C0000A0FC0F00482DFF8000622F0B5FC0A23C4
:1050D00013F0E8FE2698B0F80890B9F10C0F00F034
:1050E000F6812999002940F0F28101880791818891
:1050F000B0F806A0408806900B980891D0E90012FD
:105100005846DFF8E83513F0F6FDDDE926C04FF428
:10511000B0710024484361460346002B46D00C7B07
:105120000022012C05D14C7BA54204BF0C88012C28
:1051300005D001F5B071A3F5B0731446EDE70D9EEF
:105140004C88B6B2A6420D9EF3D1B9F1000F00F023
:10515000DD810420A1F80E9008730A98DFF89015FD
:1051600020F0A0F928300C461EF098F82068ADF821
:105170003E900130206011203AE0DFF84C0522F02B
:105180005BFC022313F08EFEA9E1B9F1080F09D3ED
:10519000DFF8340522F050FC082313F083FE299831
:1051A00000284ED00120ADF83C0090E10CF10C013C
:1051B00090B10A78012A04BF31F80C2C012A04D0DE
:1051C000A0F5B07001F5B071F2E731F80A2CB3B276
:1051D000934208BF0C70F3E70A98DFF81C1520F023
:1051E00061F9283022F0DBFF22F0C2FE0D9E142070
:1051F00028998DF83C000A6801320A6063E128981A
:105200002A46DFF8DC3422F0BEFCF8683146009014
:105210000FA8FFF767FD56E102200024F8E0002008
:105220004FF48031C4E9011020802073C4E9530099
:10523000C4E9550028980D9E22F0A5FC4FE10220FC
:10524000E6E026984FF000090999D74B06684468B4
:1052500043F60850C1E90099320CC1E902990021D6
:10526000E2FB03019A4643F609520023ADF8784069
:105270003AF03CFFB2B2CDE9160143F608500021E6
:10528000E2FB0A0143F6095200233AF02FFFC74B15
:10529000220CCDE9140143F60850002122F00EFB48
:1052A000CDE91C0114AC204620F050F9B8B10BF147
:1052B0000800214630223AF0B6FE07200D9E8DF8F8
:1052C0009800F8688DF8D2903346D0E90012ADF816
:1052D000D060CDF800B021A804F08CFBFFE00220E4
:1052E0008DF8D950ADF8DA0013208DF8D800B04809
:1052F000379021A822F066FADDF88490B9F1000F0A
:1053000000F01D8122980DF1E00A0890FB20239EF9
:10531000CDE9386000203A9037A9504609F054FB97
:10532000C4B2022C40F0DD8036A9504609F04CFB97
:10533000C4B2022C40F0D580E449504609F064FB29
:10534000C4B2022C40F0CD803A98F968CDE92360D0
:1053500008980D9ECDE9219021AB5846324604F0C5
:1053600011F825E626A822218DF884101C218DF83D
:1053700098100178042021294AD1D10748D00B98F0
:10538000DF4B22F04FFBDDE926204FF4B07100FB2C
:1053900001FA029211465046A0B10A88012A0CD1A6
:1053A0004B88B2B2934208D1B1F85421089B9A427B
:1053B00003D10A7B002A40F0458101F5B071A0F5C8
:1053C000B070E9E7029CCDF804904FF0000904F5B5
:1053D000AE76BAF1000F12D0CA4904F10C0019F0F0
:1053E0000FFB18B13078002800F0B88004F5B074D5
:1053F000AAF5B07A06F5B07609F10109E9E70420CB
:105400000D9E0024DDF8049028990A6801320A6094
:10541000ADF8E8000A20ADF8DA001520D9F8001040
:105420008DF8D800B948013137905846C9F80010B6
:10543000CDE938448DF8D95022F0C4F9DDF89890C0
:10544000B9F1000F3CD0DDE927A6FB202394CDE97C
:10545000216021AC37A9204609F0B6FAC0B2022873
:105460001ED136A9204609F0AFFAC0B2022817D1E2
:10547000DDE92230191A0A2910D3219A00F10A0411
:10548000A349009121461FF031FFCDE9260138A93B
:1054900058460A22FEF7ACFE002853D0042004E050
:1054A000C0074FF0040018BF0D2001218DF83C000B
:1054B0008DF83D104846514622F0C2F90D9E02E09B
:1054C00016208DF83C009DF83C00012807D17C4B4C
:1054D00022F0C6FC9DF89840212C40F0DC800E9C08
:1054E00096E4089901208DF89900484622F0A8F921
:1054F000E0074FF0040018BF0D2021E0A0F85A117A
:1055000010301DF0CBFE21200D9E71E60798A1F80A
:1055100054010698A1F858010898A1F856010320F3
:105520000873A1F85AA10A9872491FF0BBFF2830EE
:1055300022F035FE22F01CFD0D9E212058E616209B
:105540000D9EC2E7CDE928645B46CDE9269A0FA8F7
:105550000D9EF968324603F015FFB4E74FF4B070C2
:10556000029909FB001ADAF81800002840F09C8024
:105570004FF0FF300D9ECAF818009AF82400012859
:1055800006D10AF598701DF089FE9AF8240000E013
:105590000020DAE907148C420CD1C0070AD104209C
:1055A00000210290002411E000C4090000204E00F8
:1055B000060005000AF128028C4202EB011091BF9F
:1055C000C1F11001611A00240422029212F021FD9F
:1055D0000298214612F01DFD00208AF82400CAE935
:1055E0000700DAF818000130CAF818000AF59C70B4
:1055F00008F03FFF0898AAF8540109F14000AAF802
:105600004C010120AAF800000698AAF85A01039854
:10561000AAF84E010598AAF858010798AAF8560169
:105620000220AAF802608AF80D508AF80C00289827
:1056300022F0A9FA049820301DF030FE019922F0E2
:105640009EFA4CE70A20DFE60C999DF89800487016
:105650001CE0F8689DF89920009026AC184B0D9935
:105660002046FFF73FFB9DF89850212D01D10520E2
:1056700008E00C9E611C1322701C3AF0D4FC3570BB
:1056800006E021200C9902E00C994C700120087072
:105690003BB022F02EBA0C9D0BF101011322681CC5
:1056A0003AF0C1FC2C70F3E717481DF0C7F91FF062
:1056B0002DFE1DF091FA1DF0DBF900BF5827040004
:1056C000682704006C27040028440400FA2604001C
:1056D0000C27040028270400E8260400FC26040008
:1056E000F82604004826040058260400A8260400D2
:1056F000C8260400B8260400D82604009826040012
:10570000482704001C270400500000000E0005007C
:1057100074300400D0B502AF074904460C3019F0CC
:105720006FF938B10620207304F11800BDE8D040AD
:1057300000F004B8D0BD00BF2027040080B56F463C
:105740008AB001460020069001A806AAFEF7A4FE32
:10575000019801281CBF0AB080BDDDE902010AB032
:10576000BDE8804012F02BBCF0B503AF2DE9000777
:1057700094B002AD88468146482122F0B2FBD8F8A9
:105780000C404826314B2946482C38BF2646304627
:1057900048221FF0A1FD0546D8F808008A46214698
:1057A0001AF0BAF98E424BD80346294800901A469F
:1057B0002846514633461EF0D1FD022C09D22C4812
:1057C0001DF03CF930461DF02BF91DF005FA0A20BA
:1057D00017E09DF80800451EECB20E2C10D21D48B3
:1057E000711E30F8140081421BD109F1010002A999
:1057F00048223AF018FCC9F84C6089F8005008E0DB
:10580000072089F80500032089F804000E2089F894
:105810000000D8E9000122F013F814B0BDE8000739
:10582000F0BD0D481DF00AF90C480D4DA8470D4874
:10583000A8470D480D4922F014FC0020A847C4E7F2
:105840000C4B0A46002031461CF083FE1C29040044
:105850003C290400343D04005D0000000A00000003
:10586000C129020052010000F0590400B859040097
:105870005E0000002C290400F0B503AF2DE9000FF5
:1058800095B01C788046212C15D044481D461646FC
:105890008A4693F801B01DF0D1F841481DF090F808
:1058A00028461FF0F3FB032C18BF4FF0080B1DF028
:1058B00093F9192C05D1212088F8000015B022F0A9
:1058C00018B9B6F858430FA821F07CFF0F980028AC
:1058D00044D0A7F143000094C51C0FA90C2222F06C
:1058E00036F9A7F152002946C61C0C2222F012F903
:1058F00012AD31460C2222F02AF902A829460422D0
:1059000000F06AF89DF80800DDE903549DF818904E
:105910002128059E23D13046494600F049F8C9B3F5
:1059200080F800B051461F48CDE90254049630F883
:105930001900053080B2059002AB009A404603F092
:1059400021FD98F800002128B5D017481DF076F801
:1059500040461FF08DFB1DF03FF9AFE716209DF884
:105960000B1088F80310BDF809109DF81B20A8F84B
:105970000110BDF81910ADF804108DF8062088F854
:105980001090C8E90154C8F80C60A8F8111088F804
:10599000132091E7054A21F0B3FF00BF5600000035
:1059A00047010000343D04005B0000005C29040056
:1059B000E0B502AF024606480090C8B20549FB2395
:1059C00031F81000053081B205201FF08FFC8CBD2E
:1059D0008C290400343D0400F0B503AF4DF8048D6C
:1059E00082B08C689046184B0E4605460220214630
:1059F000FB221FF071FC154B5FFA88F233F812207E
:105A000002230132ADF80420114A009201AA1EF0CF
:105A1000A5FC0620A7F1120227F8120C02210D485E
:105A200002230090A01C1EF099FC08F101002071D7
:105A300096E80E00281D0EC02120287085F81080E1
:105A400002B05DF8048BF0BD9C290400343D0400D5
:105A5000AC290400BC29040091F8673301F51472E5
:105A6000012B12BF91F8561202F58C720121A0B1E0
:105A7000D0B502AF9388B0F8154112686340D0F8F2
:105A8000114162401A4390F817315940C90718BFB5
:105A90000020002A18BF0020D0BD00207047D4D4B9
:105AA000F0B503AF4DF8048DADF5587D044610BA3E
:105AB000039018BA02908846B86800BA0190F86856
:105AC00000BA0090386900BA0790786900BA069069
:105AD000B86900BA0590F86900BA0490786A0C9029
:105AE000386A0B9004A80A90684609901F48719084
:105AF0001F4870901F486F901F486E900DAE6EA9A2
:105B0000304619F087FF6EAD4146202222F01FF883
:105B100030462946202218F0F1FE0020CDE9D600BB
:105B2000CDE9D400D4AD3046294619F0B3FF6EAEAE
:105B30002946304619F06EFF09AD20463246002353
:105B4000294600F01BF8D0A829463246012300F070
:105B500015F8D0AB22F0A8F9C4E90432C4E9061064
:105B60000DF5587D5DF8048BF0BD00BF5A6083BE13
:105B700060370BDBAAF5A5386C888391F0B503AFCD
:105B80002DE9F007DFF890900E4680461546104646
:105B9000694601228DF800304FF0010AC8471F49BD
:105BA00028460422C84731686C46204621F0EFFFA2
:105BB000284621461022C84771686C46204621F0CD
:105BC000E6FF284621461022C847B1686C4622F0FD
:105BD0002AFC284621460722C847F1686C4622F075
:105BE00022FC284621460722C84769462846022249
:105BF000ADF800A0C84700206C46CDE90200214660
:105C0000CDE90000284619F045FF4046214621F025
:105C1000BEFFBDE80F07F0BDFDE80100242704002A
:105C2000F0B503AF4DF804BDADF5487D044610BA9C
:105C3000699018BA6890B86800BA6790F86800BAB6
:105C4000669001AD66A9284619F0E4FE3969284638
:105C5000114E2022B047796928462022B047B86902
:105C600001228DF8980166A92846B04766AE2946FC
:105C70004FF4C27222F006FA62A8314613F0F2FD28
:105C800062AB22F011F9C4E90032C4E902100DF54B
:105C9000487D5DF804BBF0BDFDE80100B0B502AF82
:105CA000ADF5487D00BA699008BA689010BA67905F
:105CB00018BA669001AC66A9204619F0ABFEB96827
:105CC0002046104D2022A847F96820462022A847E8
:105CD00021F012FF66A92046A84766AD21464FF481
:105CE000C27222F0EBF962A8294613F0BBFD659859
:105CF000054900BAB0FBF1F202FB11000DF5487D39
:105D0000B0BD00BFFDE8010040420F00F0B503AF99
:105D10002DE9FF07DFF8949000260D468046EA46FD
:105D2000CDE90266CDE900660F2E1ED8D5F80041F8
:105D3000402C07D3284600211AF006F8D5F8004178
:105D4000412C2AD23046514610224B46FBF7C3FE67
:105D500002460B4605EB8400C4F140011EF0CAFA6E
:105D60002044C5F800010E44DEE704A89AE81E00AE
:105D70001EC004AB21F026FF1FBFA8E80F0008B02B
:105D8000BDE80007F0BD08481CF058FE04A820F04C
:105D900095FB1CF021FF1CF06BFE054B20464021BB
:105DA00040221CF0D6FB00BF700000008C5604009F
:105DB000D8370400F0B503AF4DF8048DADF5487D3C
:105DC00001AD80461E461446284619F023FE20BA2F
:105DD000699030BA6890B8681022274E00BA679070
:105DE000F86800BA669066A92846B04721F084FE9C
:105DF00066A92846B047386A102200BA6990786AC6
:105E000000BA6890B86A00BA6790F86A00BA6690FB
:105E100066A92846B047386B0322ADF89801000CFC
:105E20008DF89A0166A92846B04766AC796B22F0D6
:105E3000FAFA284621460722B04766ACB96B22F031
:105E4000F2FA284621460722B04766AC29464FF4AD
:105E5000C272204639F072FA62A8214613F002FDA0
:105E600062AB22F021F8C8E90032C8E902100DF552
:105E7000487D5DF8048BF0BDFDE80100F0B503AF8F
:105E80004DF8048D94B022F0DDFA0BAE304600F0F0
:105E900077FA9DF82C0021281CD1A7F14600311D6E
:105EA000851C21F0B6FD02A82946861C21F014FDB0
:105EB00010AD314621F0ADFD22F0FDF9207821280A
:105EC0000BD007481CF0BAFD20461FF0D1F81CF09B
:105ED00083FE02E040F60320208014B021F0B7BE1C
:105EE00068000000F0B503AF2DE9000FCDB0FE68EB
:105EF000D7F80880CDE91D2056F870AFD8F84400D7
:105F0000C346CDF8AB00C1465BF8410FD6F808E0B8
:105F10002A90D8F83D00129316917268F568D6F869
:105F200010C07369B169F469CDF8CB0059F83A0F24
:105F30002192CDF870E01B95CDF868C0199320919F
:105F40001F94329032A88DE8120454460DF1F80ADD
:105F5000CDE9032E624605952AA9CDE90610A6F1E2
:105F600030015046FFF79CFD22A89AE82E002EC073
:105F7000429811904398109044980F9045980E9035
:105F8000306A1890706A179008F14E00D6E90AA599
:105F900020F0A9FD20F07F40CDE90A0B2098009069
:105FA0001F98CDE90104219803901C98CDE908A51C
:105FB000049005461B98CDF854B005908346189878
:105FC00006901798CDF84C90CDF830901494079027
:105FD00026A822A91A9A199B91469846FFF7EAFE2D
:105FE0001D98102804D126A8169913F0F0FB30B1A3
:105FF0001E990F20087040F60330888090E0D6E9A3
:106000000C40D7F808A01D90B06B18900AF148001A
:10601000F66B20F068FD20F07F400A9013980B90FB
:1060200015980C90209804901F981899CDE90504B4
:106030001D98CDE90816CDE9005BCDE902980790DF
:106040002AA822A9149A219BFFF7B4FEDDE92C01AE
:10605000DDE92A23CDE900013EAC204600F036FA06
:106060009DF8F850212D48D10DF1C809211D09F1E5
:10607000030521F0CEFC2EAE294621F02DFC129C0A
:106080000DF1F80832464046214609F0FDF89DF82A
:10609000F850212D3CD19AF8380002239AF84A1082
:1060A0000DF1F8089AF85020022801F0030008BF0B
:1060B000012302F0030180F0010081F00101084397
:1060C0000F990091B0FA80F00E994009CDE90113C3
:1060D0002146DDE910320390404609F00DF99DF8A4
:1060E0002161022E1FD198E86E0048466EC01E9EA8
:1060F00099E83E00301D3EC008E0611C32AC21F042
:1061000013FD1E9E214621F0B9FF35710F2006E0D8
:106110001E9E08F1010121F0B1FF0F203571307092
:106120004DB021F0E6BC32AC3EA9292221F00CFD95
:10613000BDF826012146ADF830012922DDF8220103
:106140004B903EAD21F003FD50462946292239F0FF
:106150006AFF4B981E99CAF82A00BDF83001AAF8C8
:106160002E000A208AF829600870D9E7102B40F029
:106170009B80F0B503AF2DE9000F9DB009908846D4
:10618000F868137800F16006D2F80100D2F80540F3
:10619000D2F8095043EA002C39692B0243EA146310
:1061A000240244EA1060D47BB2F80D20C6E900C096
:1061B00042EA0442120242EA1562C6E9023218A813
:1061C000FFF7A4FD06F1300A189806F11003F66BEC
:1061D0001A9A08F07F041999DDF86CB0069283E8EA
:1061E0000708A4F140020791314608909AE820067A
:1061F0005046CDF8148039F0DDFD804628464946EA
:10620000224639F0D7FDC4F140028146504631465E
:10621000D7F80CA039F0F1FE0AF12001039106999C
:10622000402CCDE901BA009138BF49EA00082A485C
:10623000002C08BFA84660F35F08CDF810800AA8BC
:10624000DDE90732FFF7ECFCDDE90C01DDE90A23AB
:10625000CDE9000118AC204600F06AF89DF86050C6
:10626000212D27D10FA8211DC61C1022D7F8088088
:1062700021F050FC14AD314621F0CBFB18AC414667
:106280002A46204609F000F89DF86050212D18D1CB
:10629000099C5146B02204F1080039F0A1FD05988F
:1062A00060600620207013E00F21017040F603218A
:1062B00081807047611C0FAC21F036FC099E21469D
:1062C00001E0099E611C21F0D9FE0F20357130706C
:1062D0001DB021F00EBC00BFC0FFFF7FF0B503AFC3
:1062E0004DF8048D8EB0054608A8884621F06AFA5C
:1062F0000898C0B1A7F1370008A9C61C0C2221F0EC
:1063000009FCA7F146003146C41C0C2221F01CFCFC
:106310000BAE21460C2221F0FDFB284631464246B9
:10632000FFF75AFB01E0162028700EB021F08FBC59
:10633000F0B503AF2DE9000F89B0044604A802218F
:1063400099469046FFF7CAFF9DF81050212D10D1B5
:1063500021F006FBFA6810230792BA680692074AF2
:10636000CDE90489009204AA1DF0F8FF21F0C2FED5
:1063700001E021F0D7FA257021F06DBBEC29040073
:10638000F0B503AF2DE9000F89B0044604A803213E
:1063900099469046FFF7A2FF9DF81050212D10D18D
:1063A00021F0DEFAFA6810230792BA680692074ACB
:1063B000CDE90489009204AA1DF0D0FF21F09AFED5
:1063C00001E021F0AFFA257021F045BBFC29040063
:1063D000F0B503AF2DE9000F99B003AE04462022BB
:1063E0000D4621F097FB05F120010BAD202221F095
:1063F000AEFB304612F047FD284612F044FD14A8CB
:106400000B21FFF76BFF9DF850A0BAF1210F39D196
:106410009DF86080DDF85C90BDF861009DF8631028
:10642000DDE915B2ADF84C00A4F8110048468DF82E
:106430004E10E17441460292FFF7BAFA1F4B05462F
:106440000E462020294632461EF046FF1C4A2023D5
:10645000009203AA1DF082FF1A48402100902020DC
:106460002A4633461EF042FF174A202300920BAA09
:106470001DF074FF029884F81080C4F804B0C4E9D9
:10648000020915E09DF85300E070BDF851009DF839
:106490006310DDE91556A4F80100BDF86100179AF4
:1064A0009DF86030ADF84C008DF84E1021F02AFEBA
:1064B00084F800A019B021F01CBB00BF0C2A040016
:1064C0001C2A04002C2A04003C2A0400F0B503AF67
:1064D0002DE9000F89B0044604A80C219B46924682
:1064E000FFF7FCFE9DF81080B8F1210F31D19DF827
:1064F0002060DDF81C90BDF821009DF82310059A5E
:106500000292069AADF80C00A4F8110048468DF8E6
:106510000E10E17431460192FFF74AFA0246F8681C
:10652000194B0D4607901146B8682A460690102070
:10653000CDE904AB1EF0D0FE144A1023009204AA49
:106540001DF00CFF0298606001982674C4E90209EE
:1065500015E09DF81300E070BDF811009DF82310C0
:10656000DDE90556A4F80100BDF82100079A9DF861
:106570002030ADF80C008DF80E1021F0C3FD84F82A
:10658000008021F068BA00BF4C2A04005C2A040095
:10659000F0B503AF2DE9FE0F044602A88846072197
:1065A000FFF79CFE9DF80850212D1ED19DF8186024
:1065B000DDF81490BDF819009DF81B10ADF804002B
:1065C000A4F8110048468DF80610E1743146DDE963
:1065D00003ABFFF7EDF9154A102321F012FD2674E5
:1065E000C4E901ABC4F80C901CE09DF80B00E0700E
:1065F000BDF809009DF81B10DDE90362A4F8010055
:10660000BDF81900DDF814C09DF81830ADF804008D
:106610008DF806102374C4E90162C4F80CC0A4F814
:106620001100E174257007B021F063BA6C2A0400F0
:10663000F0B503AF2DE9FF07044603A80D46082176
:10664000FFF74CFE9DF80C00212834D19DF81C80EA
:10665000069EBDF81D00ADF8040041469DF81F00E0
:106660008DF806003046DDE9049AFFF7A1F900290C
:1066700042D00246A8790B46002818BF01201070AE
:1066800007211F48009001201EF030FE1D4A0623FE
:1066900000922A461DF062FE212084F810802070AE
:1066A000BDF80400A4F811009DF80600C4E9019AA1
:1066B000E660E0741DE09DF80F10E170BDF80D106C
:1066C0009DF81F20DDE90463A4F80110BDF81D103A
:1066D000DDF818C09DF81C50ADF808108DF80A20A0
:1066E0002574C4E90163C4F80CC0A4F81110E27465
:1066F000207008B021F062BB034A21F001F900BF0D
:106700008C2A04009C2A04007C2A0400F0B503AF04
:106710004DF8048D92B00DF104080D460646114661
:10672000404644221C4638F009FEB86829460090CD
:1067300030464246234600F005F812B05DF8048B5F
:10674000F0BDD4D4F0B503AF2DE9000FADF6642D44
:10675000179001F1D00018930DF58D691690EEA8F1
:1067600091F8C86000F160040DF5427801F17805F8
:1067700093468A46022E199152D11AAE5146C8222A
:10678000304639F02DFB15209DF868108AF804007A
:106790000E208AF800000C299BF8000000F2CC8340
:1067A000DFE811F00D00ED0159013901D9001B019D
:1067B000A402CA035E03B303CA039E03B100052803
:1067C00004BF9BF80C10002901F01380DDF864A0D1
:1067D000DFE810F00600AC03AC03AC036608B703B7
:1067E0009BF80100DDF860B0002801F071810DF523
:1067F0000C645946204608F06FFE9DF8E958032DB9
:1068000041F09F870DF5E76C94E86E0060466EC01E
:10681000614678A891E87C0004307CC001F090BB10
:1068200078A8514621F0B5FC15209DF8E0118AF8B2
:10683000040012208AF800000F299BF8000000F2E3
:106840007386DFE811F0100056049F0353058D0591
:10685000710619047504D40471066A06EE05710602
:10686000710687032604052804BF9BF80C200A2A1A
:1068700040F05A86DBF80800002802F05D82DDF85F
:1068800064A00C22DBF804100DF50C689AF81901CD
:10689000032808BF0822DDF860B0DBF8383093F831
:1068A000700393F8713302448AF81A210C7813B1FB
:1068B00001218AF8181158B19AF81C019AF81D1193
:1068C00040F003008AF81C0141F003018AF81D1111
:1068D0001AA8594608F050FE9DF89100022807D0EA
:1068E000600741F1B3839DF89000022801F0AE8368
:1068F0000DF5E76421F0A8FC21F0C3FD41F0928280
:10690000012401F055BB052804BF9BF80C20082A80
:1069100040F00283DBF80820DDF864A0002A02F0D2
:106920000982DBF804000478022C81F0E780062A53
:1069300042F2F28150F8011F0DF50C68CAF81111EE
:106940008188DDF860B021F0F5FB00F0A68721F02A
:10695000F8FA00F0A2BF052804BF9BF80C1002292A
:1069600000F02E870DF5B96101F1900401EB800173
:10697000DDF864A0DFE810F09407DA02DA0206001E
:106980009407E5020DF5B9680AF11801902221F08B
:1069900012FC711C0DF50C66112221F0BBF80025CC
:1069A000DBF80400C4E90005C4E904059DF8C0084B
:1069B000C4E90255C007C4E9065501F08C85DDF82D
:1069C00060B0721CB8680021CDE900B810230290B5
:1069D00078A8FFF7CBFB00F06ABF052804BF9BF83F
:1069E0000C20022A40F09882DDF864A00DF50C68B6
:1069F000B0220AF1080121F0DEFBDBE90123DDF81A
:106A000060B0B8681B99CDE900B8029078A8FFF78C
:106A1000ADFB00F04EBF0FF20A01DDF864A0DFE825
:106A200010F03F070600E50885023F07C6089DF8FD
:106A30006900002801F03A8206F118001699102228
:106A4000CDE9001078A8DDF860B0B11C5B46FFF717
:106A500049FA00F02CBF052804BF9BF80C20032A3C
:106A600040F05A82DDF864A0C2A870220AF1080141
:106A700039F0B6F90AF198010DF5D2602022D5E976
:106A80000049D5E9026539F0CEFA21F0B8F941F0B4
:106A90007480DBF804000DF50C6822464B46D0F8F4
:106AA00009101591D0F80510149101781391C17B4C
:106AB00012911899D0F801A0B0F80D00119040463D
:106AC000CDE90065FFF7DAF99DF8C0B8BBF1210FF9
:106AD00041F00082DDE911210DF5E76000F1700B56
