:1010000008FC032001110000D3F003002161060059
:10101000D3F00300D3F00300D3F00300000000007E
:10102000000000000000000000000000D3F00300FA
:10103000D3F0030000000000D3F00300D3F003005E
:1010400059110000C1110000D3F00300D3F00300D8
:10105000D3F00300D3F00300D1F5030045120000E4
:1010600091120000D3F00300D3F003003912000006
:10107000D3F00300CD110000D3F00300D3F0030040
:10108000D3F00300A9F60300D3F00300D3F003006C
:10109000AD110000D3F00300D3F00300D3F0030040
:1010A000D3F00300D3F00300D3F00300D3F0030028
:1010B000D3F00300D3F003000000000000000000A4
:1010C000D3F00300D3F00300D3F00300D3F0030008
:1010D000D3F00300D3F00300D3F003009D1200000F
:1010E000D3F00300D3F00300D3F0030000000000AE
:1010F00000000000D3F0030000000000D3F0030064
:101100003DF0EAFF0E480F490022814201D004C0A1
:10111000FBE70D480D490E4A814202D008CA08C0BB
:10112000FAE70C484FF47001026842EA01020260DB
:10113000BFF34F8FBFF36F8F3BF01EF800DE000050
:101140008022002098260120080000207C22002018
:10115000301A070088ED00E0B0B502AF5EF02CFE5B
:10116000104C206828B1002020600F481C303EF051
:101170004DFD606850B10C4D0020606005F11C0011
:101180003EF044FD05F134003EF040FDA06838B16A
:101190000020A06004483430BDE8B0403EF036BDC9
:1011A000B0BD00BF1C0100403811012080B56F4662
:1011B0000248BDE880403EF029BD00BF00F8002095
:1011C00080B56F46BDE8804060F088B9F0B503AFE8
:1011D0004DF804BD154E002030603FF053FD144D16
:1011E0000446A869F0B94FF0FF30A861686A78B189
:1011F000A96A88420CD0D6F808140170D5E9090113
:1012000001306862884204BF05F11C003EF0D2FC48
:10121000A8690130A86120465DF804BBBDE8F04034
:101220003FF066BD03483DF0D7FD00BF00D1004050
:10123000B4110120B8D7060080B56F46BDE88040E4
:1012400060F0E8BFD0B502AF0F4C206930B110207C
:10125000C4F808020D482C303EF0D8FC606830B16C
:101260000220C4F8080209482C303EF0CFFC206868
:1012700040B10120C4F8080204482C30BDE8D04039
:101280003EF0C4BCD0BD00BF007100403811012049
:1012900080B56F46BDE8804060F014B9F0B503AF8B
:1012A0004DF8048D84B0344C206858B1334D012082
:1012B000C4F8080205F11C003EF0A8FC05F124006A
:1012C0003EF0A4FCE06D38B14FF40000C4F8080211
:1012D0002A4824303EF09AFCA06A38B14FF480606E
:1012E000C4F80802254824303EF090FCA06D28B1D7
:1012F0000020A06521481C303EF088FC206EB8B369
:1013000000202066D4F86C631C48C4F86C63BFF3FB
:101310005F8F50E8051F314340E80512002AF8D1DD
:101320000020BFF35F8F8DF80C0007200DF104083B
:10133000029001200190404634F067FC012817D14B
:1013400001F01F040D4626FA04F0C00704D0284619
:101350002CF02CFC3EF05AFC84F0100026FA00F031
:10136000C007E8D028462CF075FC3EF04FFCE2E7C1
:1013700004B048F0E5BD00BF007102403811012003
:10138000F0B503AF2DE90007ADF5846D044690F884
:1013900014040D4620B1032815D01E483DF0C3FDAE
:1013A000E846214640464FF4847264F067FAD4F868
:1013B000101442AE4246304626F0F2F804F584702E
:1013C000314649F0D0FB04F58478A7F124002A4681
:1013D00041461BF071FB57F8246CB51C01D103206A
:1013E0000FE0404657E908A905F0BCF9701C07D08A
:1013F000A7F1240047E9096A47F81C9C05F0D8FCCE
:10140000012084F81404B5FA85F040090DF5846DC7
:1014100049F0A7B9EC860600F0B503AF2DE9000F3F
:1014200095B0D0E90149834608468A46A4EB0905F0
:1014300047F046FA854201D200200BE25046DBF825
:10144000005047F03DFADFF81C142A46009100EBEB
:101450000901484623462CF0BBFB9AF80020FF2ADE
:101460001FD19AF80420FF2A3ED149F091FFBAF823
:10147000080001280AA814BF1B211D2144F0FAFF0F
:10148000C0B2022840F0DD81BAF80A100AA845F07F
:1014900011F8C0B2022840F0D481DAE903120AA898
:1014A0004EE1B2F10A044FF0000398BF1C46002C35
:1014B00035D0012C48D149F06BFF0AA8522144F0E5
:1014C000D9FFC0B2022840F0BC81BAF80C100AA8BB
:1014D00044F0F0FFC0B2022840F0B381DAE9011213
:1014E0000AA846F0F1F835E0CDE9030100200590A7
:1014F000DFE812F00900C5005E00A2003200EF0034
:101500001B01C200290103A8032144F0B3FFC0B2AC
:10151000022840F09681BAF8061003A88BE10AACC5
:101520000A2A0BC400F29981DFE812F00B001501C2
:101530003201350169014701730197019701970154
:1015400012010AA8102108E149F022FF0AA81E2171
:1015500044F090FFC0B274E103A8092144F08AFF6F
:10156000C0B2022840F06D81DAF8144003A8214689
:1015700044F080FFC0B2022840F063810AF1080203
:10158000139449F0B8F80AA8294647F033F89DF8B3
:101590002800FF2840F0548149F009F8C0B2022821
:1015A00040F04F8149F003FDC0B20228EBD048E182
:1015B00003A8052144F05EFFC0B2022840F041813B
:1015C0009AF8144003A8214644F054FFC0B2022800
:1015D00040F037810AF108028DF824400DF14008EF
:1015E00007CA06AB07C30AA80430029003AC0AA8D6
:1015F00006A947F055F8BDF82800002840F02081E2
:10160000029AA446BDF82A10404678CA78C06446BB
:1016100012780270604644F04DFFC0B2022840F0DC
:101620001081404644F0F6FE48F02BFC46F04CF8A2
:10163000C0B20228DBD004E103A8012144F01AFF64
:10164000C0B2022840F0FD809AF8051003A844F0CB
:1016500011FFC0B2022840F0F480BAF8081003A8C5
:1016600044F028FFC0B2022840F0EB809AF8061040
:1016700003A844F0AFFEE0E003A80D2157E003A863
:10168000072144F0F7FEC0B2022840F0DA800AF1E8
:1016900008020DF1280849F02EF84046294646F088
:1016A00001FD9DF82800FF2840F0CA80BDF82A10EF
:1016B0003046BDF82C4044F0FDFEC0B2022840F098
:1016C000C0803046214644F0F5FEC0B20228E4D086
:1016D000B7E003A8112144F0CDFEC0B2022840F0CB
:1016E000B080DAF8144003A8214644F0C3FEC0B22B
:1016F000022840F0A6800AF10802139448F0FBFF8C
:101700000AA8294646F076FF9DF82800FF2840F0F9
:10171000978048F04CFFC0B2022840F0928049F018
:1017200046FCC0B20228EBD08BE003A80B2144F0AA
:10173000A1FEC0B2022840F08480DAE9021203A8B8
:1017400045F0C2FF79E003A8132144F093FE74E052
:101750000AA80C215FE00AA8082144F08BFEC0B261
:1017600002286ED1BAF812100AA844F0A3FEC0B243
:10177000022866D1BAF814100AA844F09BFEC0B241
:1017800002285ED10AF101010AA846F0B5FC54E036
:101790000AA80A2135E00AA8122144F06BFEC0B263
:1017A00002284ED1BAF802100AA844F083FEC0B253
:1017B000022846D1DAE9011271E60AA8062144F0AE
:1017C00059FEC0B202283CD1BAF802100AA844F06F
:1017D00071FEC0B2022834D1BAF804100AA844F04D
:1017E00069FEC0B202282CD1BAF806100AA844F04B
:1017F00061FEC0B2022824D1DAE902124FE60AA83B
:10180000022144F037FEC0B202281AD1BAF8021001
:1018100010E00AA8042144F02DFEC0B2022810D125
:10182000BAF802100AA844F045FEC0B2022808D156
:10183000BAF804100AA844F03DFEC0B2022800D154
:101840000220022806D1504647F03AF84844CBF827
:101850000800022015B048F033BB03480F21034AAB
:101860003CF0D7FD88F706007400070094000700DD
:10187000F0B503AF4DF804BD84B00446D0E90130A3
:101880000D46191A04290CD32268061D084948F090
:10189000A8F8CDE9020102A8294604222CF0A4F9F7
:1018A00008B1002001E00220A66048F0F4BA00BFB1
:1018B0005C88060080B56F46002101730149013143
:1018C000016080BD3811012080B56F4645F2D0120D
:1018D000815010440021C17380BDD4D4E0B502AF63
:1018E000DFF880C0044600254DF2D82040F20112F6
:1018F00085422FD02B18654405F1180656E8001FC5
:1019000021B946E800210029F8D103E0BFF32F8F69
:101910001D46EDE71448686205F128002146FFF7EF
:10192000D3FF204629463DF0FBFD0025BFF35F8F26
:1019300054E8000F44E800510029F9D1BFF35F8F4C
:1019400030B1C669C5614576416A88473046F7E7D8
:1019500020BFEBE705487A1E00902B210448054B79
:101960003DF089FAE8220020917202008C96060070
:10197000D1F80600E4B00600F0B503AF2DE9000B86
:1019800094B00446F8680DF13C0848F01EFE9DF83E
:101990003C00FF2803D040F6032020801DE0A7F183
:1019A0004E0008F10401851C48F017F802A82946EA
:1019B000861C47F0CDFE0BAD314648F00EF849F0DD
:1019C00014FB2078FF2808D048F070FF04483DF051
:1019D000A7FB48F0D5FC3DF00BFD14B048F077BAFA
:1019E000A1000000F0B503AF2DE9000FCDB0FE68F7
:1019F000D7F80880CDE91D2056F870AFD8F844001C
:101A0000C346CDF8AB00C1465BF8410FD6F808E0FD
:101A10002A90D8F83D00129316917268F568D6F8AE
:101A200010C07369B169F469CDF8CB0059F83A0F69
:101A30002192CDF870E01B95CDF868C019932091E4
:101A40001F94329032A88DE8120454460DF1F80A22
:101A5000CDE9032E624605952AA9CDE90610A6F127
:101A60003001504627F030FF22A89AE82E002EC001
:101A7000429811904398109044980F9045980E907A
:101A8000306A1890706A179008F14E00D6E90AA5DE
:101A900047F073FB20F07F40CDE90A0B20980090BF
:101AA0001F98CDE90104219803901C98CDE908A561
:101AB000049005461B98CDF854B0059083461898BD
:101AC00006901798CDF84C90CDF83090149407906C
:101AD00026A822A91A9A199B9146984627F01AFE21
:101AE0001D98102804D126A816992DF08AFD30B132
:101AF0001E99FF20087040F6033088805EE0D6E92A
:101B00000C40D7F808A01D90B06B18900AF148005F
:101B1000F66B47F032FB20F07F400A9013980B9051
:101B200015980C90209804901F981899CDE90504F9
:101B30001D98CDE90816CDE9005BCDE90298079024
:101B40002AA822A9149A219B27F0E4FDDDE92C01A3
:101B5000DDE92A23CDE900013EAC204606F0B2F8CB
:101B60009DF8F850FF2D0AD0611C32AC47F02DFFD4
:101B70001E9E214648F079F93571FF201DE00DF1D8
:101B8000C809211D09F1030547F027FF2EAE29469C
:101B900047F0DEFD129C0DF1F80832464046214622
:101BA0002CF03AF99DF8F850FF2D0AD01E9E08F14E
:101BB000010148F05AF9FF20357130704DB048F0FE
:101BC00071B89AF8380002239AF84A100DF1F80813
:101BD0009AF85020022801F0030008BF012302F008
:101BE000030180F0010081F0010108430F99009189
:101BF000B0FA80F00E994009CDE901132146DDE9E4
:101C00001032039040462CF03AF99DF82161022EE3
:101C100009D198E86E0048466EC01E9E99E83E00C5
:101C2000301D3EC0A9E732AC3EA9292248F087F812
:101C3000BDF826012146ADF830012922DDF8220148
:101C40004B903EAD48F084F85046294649F02AFBB7
:101C50004B981E99CAF82A00BDF83001AAF82E0048
:101C60000A208AF829600870A8E7D4D4102B7DD107
:101C7000F0B503AF2DE9000F9DB009908846F868D4
:101C8000137800F16006D2F80100D2F80540D2F8CE
:101C9000095043EA002C39692B0243EA14632402F9
:101CA00044EA1060D47BB2F80D20C6E900C042EAD5
:101CB0000442120242EA1562C6E9023218A803F091
:101CC00083F806F1300A189806F11003F66B1A9A99
:101CD00008F07F041999DDF86CB0069283E80708D4
:101CE000A4F140020791314608909AE82006504638
:101CF00063F07AFECDF81480804628464946224695
:101D000063F072FEC4F14002814650463146D7F876
:101D10000CA063F0D9FF0AF1200103910699402C31
:101D2000CDE901BA009138BF49EA00082948002CE2
:101D300008BFA84649F0A5FA0AA8DDE9073227F04E
:101D40004DFDDDE90C01DDE90A23CDE9000118AC08
:101D5000204605F0F3FE9DF86050FF2D0CD0611C6D
:101D60000FAC47F032FE099E21461FE0FF210170B3
:101D700040F6032181807047DDF814900FA8C61C3F
:101D8000211D1022D7F8088048F02BF814AD3146F9
:101D900047F023FE18AC41462A4620462CF03CF87A
:101DA0009DF86050FF2D09D0099E611C48F05DF838
:101DB000FF20357130701DB047F074BF099C51464B
:101DC000B02204F1080063F059FD0620C4F8049025
:101DD0002070F0E7C0FFFF7FF0B503AF2DE9000BE7
:101DE00094B00446F8680DF13C0848F0EEFB9DF80D
:101DF0003C00FF2803D040F6032020801DE0A7F11F
:101E00004E0008F10401851C47F0E7FD02A82946B1
:101E1000861C47F09DFC0BAD314647F0DEFD49F0D6
:101E2000E4F82078FF2808D048F040FD04483DF051
:101E300077F948F0A5FA3DF0DBFA14B048F047B85E
:101E4000A0000000F0B503AF2DE9000F9FB082465F
:101E5000880701D411206BE0D56B934605F1080388
:101E60000FCB48F020FC11BF8DE80F000020CDE91A
:101E70000200CDE9000016AE6946304605F052FF7B
:101E80009DF85840FF2C3DD111A8311D00F10308E9
:101E9000102248F01AFB0AAE414647F059FC0DF1FA
:101EA00058095946324649F082FA9DF85840FF2CAD
:101EB0002FD12868C10740D06968000A0A0E8DF842
:101EC0003E200A0A40EA0160ADF83C200E9016AEB2
:101ED0000EA9304605F070FF9DF85840FF2C11D137
:101EE000311D404648F029F81BAE414647F030FC12
:101EF00005A8594632462BF08FFF9DF81440FF2C61
:101F0000A8D00CE011AD711C47F092FE05A829463F
:101F100002E005A809F10101013047F013FF05A90E
:101F20000AF10500013147F00DFFFF208AF8044057
:101F30008AF800001FB047F0B5BE0524EFE7F0B502
:101F400003AF2DE9000F8BB0044602A80E46002116
:101F5000924605F0C9FD9DF80800FF281DD09DF8A8
:101F60000B10E170BDF809109DF81B20DDE903C5D9
:101F7000A4F80110BDF81910059E9DF81830ADF8B1
:101F80001C108DF81E202374C4E901C5E660A4F876
:101F90001110E274207047F083BC9DF818B0059DC5
:101FA000BDF81900ADF8040059469DF81B008DF8E6
:101FB00006002846DDE9038925F00CFC02460B46A5
:101FC00006F1480011461A4647F090F9C0B20228BF
:101FD0001CD1BDF804005146ADF829009DF806005B
:101FE0008DF828B00995CDE907898DF82B0002AD51
:101FF00007AA28462BF010FF9DF80860FF2E10D08E
:10200000601C691C47F09EFE2670C4E70520494607
:10201000207040460BB0BDE8000FBDE8F04047F02F
:102020003BB9FF20B6E7D4D4F0B503AF2DE9000FDC
:102030009FB00D46B968069314460B901AA802F09B
:10204000C3FE1A9804F170061C9A05F07F0504F18E
:10205000900B1B991D9B0FC60892A5F140020A9098
:102060009BE8400E504609915946079363F0BCFC2B
:102070008046304649462A4663F0B6FCC5F1400228
:1020800081465046594663F01FFE04F12001402D61
:10209000CDE90241079901910899009138BF49EAB9
:1020A00000082448002D08BFB04649F0EAF80CA803
:1020B000DDE9093227F092FBDDE90E01DDE90C23B1
:1020C000CDE900011AAC204605F038FD9DF86850B6
:1020D000FF2D0BD0611C11AC47F077FC0B9E214605
:1020E0001322701C63F096FC35701FE0DDF82C8025
:1020F00011A8C51C211D47F070FC16AE294647F0FB
:1021000027FB1AAC0699324620462BF085FE9DF837
:102110006850FF2D07D008F10100611C47F012FE46
:1021200088F8005002E0FF2088F800001FB047F058
:10213000B9BD00BFC0FFFF7FF0B503AF2DE9000FB1
:10214000B5B016461D46CDE91210B046D6F83D0092
:102150000DF1A00C55F8702FCDF8A30058F83A0FE8
:10216000289056F8410FD5F808906B68D5F80CA068
:10217000D5F810E0D5F814B0AC69E9692C90D6F820
:10218000030014921593CDF86C90CDF868A0CDF8AB
:1021900064E0CDF860B017941691CDF8B3002CA888
:1021A0008DE800460DF18009CDE9051CA5F130014F
:1021B00007904846CDE903B427F086FB1CA899E8B0
:1021C0001E0005F1300B1EC0249811902598109028
:1021D00026980F9027980E90F01D9BE8100AD5F8CE
:1021E0003CA046F0CAFF20F07F40CDE90A08DDE9B7
:1021F0001A10CDE908BA0C96CDE9000119980290A1
:102200001898039017980490169805A981E8110270
:1022100028A81CA9DDE9142327F07CFADDE928238E
:102220000DF18009DDE92A01CDE90001484605F0FC
:1022300049FD9DF88060FF2E0ED02CAC09F1010104
:1022400047F0C3FB139D21461322681D63F0E2FB98
:10225000FF202E71287051E0DDF84C802CA8C61CA0
:1022600009F1040147F074FA31AC314647F0B1FB93
:102270000DF180091299224649F099F89DF88040A5
:10228000FF2C0BD008F1050009F1010147F05AFDC0
:10229000FF2088F8044088F800002FE005F1200BAB
:1022A000464608F11804ED6A9BE8000D09F10700A5
:1022B0001CA947F042FE0B20494606F8010B1722E5
:1022C00047F08FFD199804F12C0120621898606284
:1022D0001798A0621698E56381E8010D11982060B7
:1022E000109860600F98A0600E98E06014982061CC
:1022F000159860611B98A0611A98E06135B047F0AD
:10230000D1BCD4D4F0B503AF2DE9000F8BB0044697
:102310000220ADF80A0001208DF808001E462C4866
:1023200088468DF80920039007A846F06BFF079DAB
:10233000EDB3DDE9089BFB20D7F808A0CDE904B098
:102340000020069004A803A9FFF792FAC0B2022861
:102350001CD104A802A9FFF78BFAC0B2022815D13C
:10236000DDE90530191A02290ED3049A19490091A2
:10237000811C01912BF02CFCCDE9070107A8314607
:1023800002222BF031FCB0B1042004E0C0074FF072
:10239000040018BF0D2001212070617028464946B5
:1023A0000BB0BDE8000FBDE8F04046F075BF162049
:1023B000207047F075BA019851460A9007A880E846
:1023C000200A07AB2046424626F064FDF1E700BF35
:1023D000060005005C880600DCB504AF10CBB83100
:1023E00000943FF06FFADCBD91F8673301F5147289
:1023F000012B12BF91F8561202F58C720121A0B187
:10240000D0B502AF9388B0F8154112686340D0F898
:10241000114162401A4390F817315940C90718BF5B
:102420000020002A18BF0020D0BD00207047D4D45F
:10243000F0B503AF2DE9000794B002AD88468146A0
:10244000482147F05FFED8F80C404826334B294618
:10245000482C38BF2646304648222BF0C6FC05469D
:10246000D8F808008A46214629F00CF98E4251D846
:1024700003462B4800901A4628465146334646F0FC
:102480006AFF022C09D22D483CF04AFE30463CF04F
:1024900039FE3CF0ADFF0A2019E09DF80800441E0B
:1024A000E5B20E2D12D22046A6F1010A25F006FC57
:1024B00080B282451BD109F1010002A9482263F0D4
:1024C000A9FAC9F84C6089F8004008E0072089F8AB
:1024D0000500032089F80400FF2089F80000D8E9EE
:1024E000000146F0D9FE14B0BDE80007F0BD0D486C
:1024F0003CF016FE0C480D4CA0470D48A0470D4877
:102500000D4950F8250051F825103AF055FD0020EE
:10251000A047BEE70A4B0A4648F07CFBAC890600A0
:10252000CC8906009600000011000000DFF00300D7
:10253000C0010000BC0507008405070097000000EB
:10254000BC890600F0B503AF2DE9000F95B01C78EB
:102550008046FF2C15D045481D4616468A4693F8FE
:1025600001B03CF0DDFD42483CF0B9FD284644F0A6
:1025700005FF032C18BF4FF0080B3CF039FF192C56
:1025800005D1FF2088F8000015B047F08BBBB6F8E6
:1025900058430FA846F036FE0F98002847D0A7F101
:1025A00043000094C51C0FA90C2247F0D1FBA7F1F2
:1025B00052002946C61C0C2247F013FC12AD3146CE
:1025C0000C2247F0C5FB02A82946042225F014F985
:1025D0009DF80800DDE903549DF81860FF28DDF838
:1025E000149025D14846314625F0F4F8D9B380F847
:1025F00000B0304625F0E7F8CDE904904046CDE93B
:10260000025402AD009A51462B4626F043FC98F83E
:102610000000FF28B5D098E85E0028465EC0154847
:102620003CF07EFD48F0ACF83CF0E2FEACE7162052
:102630009DF80B1088F80310BDF809109DF81B20B9
:10264000A8F80110BDF81910ADF804108DF8062097
:1026500088F81060C8E90154C8F80C90A8F8111067
:1026600088F813208EE7044A47F005F88F00000031
:10267000AC01000094000000EC890600F0B503AF47
:102680002DE9000F95B00DF12C08CDE9012008F1DE
:10269000080000240E22039463F0BCF9A7F12A0677
:1026A0001C4D06F10109A7F1230A0DF10C0B18E0EE
:1026B000D1F80920B1F80D10A9F80410294607F83F
:1026C0002A0C3046C9F8002039F042FD40B150468E
:1026D0005946324626F0CCFD17F8230CFF2807D1C7
:1026E00007340E2C1EBF08EB0401087AFF28DFD147
:1026F00003A9029C47F05FF80199002084F82700A5
:102700000868D1F803102062C4F8231015B0BDE8A2
:10271000000FF0BD508A0600F0B503AF4DF8048DF0
:1027200092B00DF104080D4606461146404644227B
:102730001C4663F0E9F9B8682946009030464246E5
:10274000234600F005F812B05DF8048BF0BDD4D438
:10275000F0B503AF2DE9000FADF29C6D0D460146BB
:1027600005F1D0001690DCAE95F8C84006F1600B7C
:1027700005F1780A99469046022CCDE918155DD1ED
:102780001AAE2946C82247F0EFFF15209DF86810C1
:1027900028710E2028700C2998F8000000F234836C
:1027A000DCAA02F17004DFE811F00D00AA01630158
:1027B0004B01F2003101FC012F039702E7022F03C6
:1027C000CC02CD00FF2804BF98F80C10002900F0BF
:1027D0000D87411E0329C0F0D982002840F01083E4
:1027E00098F80100002801F03F800DF59F684946E8
:1027F00040462BF039FC9DF82165FF2E01F03D8706
:10280000DCAC0DF59F61292247F099FADDF822052D
:10281000214688902922BDF82605ADF8240205F14D
:10282000D00063F0F7F88898C5F8FA00BDF82402E4
:1028300085F8F960A5F8FE0000F023BFCDF85C90A4
:102840000DF50C792946C822484663F017F8152083
:102850009DF830122871122028700F2998F8000076
:1028600000F28B851AAA02F16003DFE811F0100074
:10287000A103F6027104A40486056F03BF03FC03E1
:1028800086057F05080586058605D9027A03FF2897
:1028900004BF98F80C200A2A40F06F85D8F8080089
:1028A000002802F0498295F819010C22D8F804108A
:1028B00005F1D006032808BF0822DDF85CB0DBF87C
:1028C000383093F8700393F87133024485F81A2175
:1028D0000C7813B1012185F818110DF59F6858B1D6
:1028E00095F81C0195F81D1140F0030085F81C01B6
:1028F00041F0030185F81D111AA859462BF006FC7A
:10290000DDF860A09DF89100022807D0600741F132
:102910005E829DF89000022801F05982DCAC3146BD
:102920005A462046FFF70BFB9DF87063FF2E01F01F
:10293000A58108F10500611C47F004FA8DF8FC64DC
:1029400001F05BBAFF2804BF98F80C20082A40F079
:102950001A82D8F80820002A02F0EC81D8F8040086
:102960000478DCAE022C80F09A870DF59F68062A69
:1029700042F2D28150F8011FC5F81111818848F048
:102980009DF901D047F047FF0D2002F06DB8FF28F8
:1029900004BF98F80C10022900F01286042800F2F7
:1029A0003682DFE810F07B06F301F30105007B06B9
:1029B00005F118010DF59F650DF59F60902200F15E
:1029C0009004284662F05AFF0DF55C7A711C1122C2
:1029D00047F068FD0026D8F80400C4E90006C4E901
:1029E00004069DF87003C4E90266C007C4E90666E0
:1029F00001F01584B8680AF10102CDE900950021C3
:102A000002908CA81023FFF731F9C3E1FF2804BF1F
:102A100098F80C20022A40F0B6810DF59F6405F16C
:102A20000801B02248F006FDD8E90123A046B868A5
:102A30001B99CDE9009402908CA8FFF717F9ABE140
:102A4000042800F27987DFE810F029060500510715
:102A5000A10129069DF86900002801F0118106F105
:102A6000180016991022CDE90010B11C00F0D9BE53
:102A7000FF2804BF98F80C20032A40F08481CDF889
:102A80005C9005F108014CA8702262F0F7FE9AE80C
:102A9000400A05F198012022DAF80CA0C6A862F0DD
:102AA000B9FF47F073FC40F02887D8F804000DF513
:102AB0009F6532464B46D0F809101591D0F80510A5
:102AC0001491D0F80110139101781291C17B1191EA
:102AD0001799B0F80D0010902846CDE900BAFEF71E
:102AE0004BFF9DF8F884B8F1FF0F01F0DD818CA851
:102AF000691C47F07DF88DF8348200F002BFFF2892
:102B000004BF98F80C200B2A40F03D81D8E901124F
:102B10000DF54678404646F09DFAD9F82C10BEAC2B
:102B200046F049FED9F830104CAE4022CA4647F074
:102B300058F90DF59F69214642463346484646F00E
:102B4000BBF99DF8F804C00700F0DE869DF8FB0491
:102B500009F106018DF806021222BDF8F9049DF86C
:102B6000FC449DF8FD64ADF804027CA862F052FFBD
:102B700009F1180079A90DF59F650CC80CC1007802
:102B800008704CA9284605F025F89DF8F804FF28A0
:102B900001F0D7810A204FF003088DF8710301F08E
:102BA000FBB9FF2804BF98F80C20032A40F0EB8003
:102BB00005F10801DCA847F0D5FB47F0E7FB40F042
:102BC000AC86D8F804001B9DCDF85C90D0F80110BD
:102BD0000278DBE90E9842EA0122CBF82020159218
:102BE000D0F80930D0F805201C02119505F07F05BA
:102BF00044EA1264120242EA1161CBF82840CBF891
:102C00002410C5F140021491C17BB0F80D0013945B
:102C100040EA01404146000240EA136A4846CBF8C8
:102C20002CA0DBE90C6463F04FF81290304621468B
:102C30002A4662F0D9FEA5F14002044648464146C4
:102C400062F0D2FE1299402D38BF44EA0100E649F5
:102C5000002D08BF3046DCAA61F35F00139B02F130
:102C60002001CDE9003ACDE902120490BEA8DDE9C9
:102C7000143226F0B3FDDBE900ACDDE9BE648CEA7A
:102C80000401DBE90289DDE9C03589EA0500084372
:102C90008AEA060288EA03011143084341F00280F0
:102CA000DBE904230DF59F64DBE90601CDE90001B2
:102CB000204604F069FF9DF8F864FF2E01F0B1830F
:102CC000611C4CAC46F081FE8CA8214646F090FF7A
:102CD0008DF8346200F015BEFF2804BF98F80C2070
:102CE000032A50D105F10801DCA847F03BFB47F06F
:102CF0004DFB40F01A86D8F8040004F1100547F0A7
:102D0000FBF80EC5B968E061204602F05DF8D4E931
:102D10000201D4E900230DF59F64CDE90001494685
:102D20002046FEF729FE9DF8F864FF2E01F044814D
:102D30008CA8611C46F05CFF8DF83462FF2001F026
:102D400076BAFF2804BF98F80C20072A1BD147F059
:102D50001DFB40F0128695F8F900DCAE022808D081
:102D6000D8F804000AF1680447F0C6F80EC4CAF89F
:102D700074000C2000F006BEFF2804BF98F80C2059
:102D80000C2A00F04785421E032A36D28CA81AA9C5
:102D900048F018FA0DF59F68DCAE9DF83002FF2868
:102DA00000F07F840DF50C7A0DF59F60C822514626
:102DB00062F064FD9DF8F8040E2800F07D84199DF2
:102DC0000D2840F09C84C84695F8F990B9F1020F9F
:102DD00000F0958495F81A0100F00300012802BF65
:102DE00095F8200100F00300012800F0BE8495F85A
:102DF000F8E04FF0020900F0E5BC002800F03A844A
:102E0000042804D100F04ABCFF2840F0298498F837
:102E10000C00042800F0C4830D28B7D000F03EBC9D
:102E2000FF2804BF98F80C20072A40F0A68247F03C
:102E3000ADFA40F03686DDF85CB095F8F90002286E
:102E400008D0D8F804000AF1680447F055F80EC419
:102E5000CAF874000F2000F026BEFF2804BF98F8BF
:102E60000C200B2A40F08982BEAE09F10401202219
:102E70009A4646F0B6FF05F1240B0DF5467940223F
:102E80004846594662F0C6FDD8E901124CAC2046CE
:102E900046F0E0F80DF55C78314622464B46404658
:102EA00046F00AF89DF87003C00700F0FF859DF812
:102EB000730308F106018DF8AA001222BDF8710310
:102EC000ADF8A800BDF874431AAE06F1450062F0F3
:102ED000A1FD06F1570008F11801092262F09AFDE0
:102EE00006F120004CA946F027FF3046594646F02F
:102EF00023FF50465021ADF8AB4062F068FC95F8D6
:102F00000801811E38BF0221DDF85CB0C9B2022978
:102F100001F0EC80DDF860A0032941F00B810F2067
:102F20000DF55C788DF8700347F09BFBD6AE47F04B
:102F300070FB9DF85843FF2C41F0608308F10700B7
:102F40001AA947F067F8092001F0BBBB98F80C10EC
:102F5000FF2808BF022900F0EA83FF2800F0118251
:102F600049E2FF2804BF98F80C20082A40F00582A7
:102F7000D8F80820002A01F0E186D8F80400DDF82E
:102F80005CB00478022C80F0D0850DF59F68062A8D
:102F900041F2C48650F8011FC5F811118188DDF88F
:102FA00060A047F08BFE00F0DA8247F034FCD6E2F6
:102FB000FF2840F0E08298F80C100A2900F07E8586
:102FC000012940F0DE81D8E90112DCA846F09EF923
:102FD0009DF87003022840F082860A20DDE917BAC6
:102FE0000DF59F6801F058B9C0FFFF7FFF2804BFAF
:102FF00098F80C20022A40F0C08105F10801DCA8F5
:10300000602262F03BFC9AE8500605F188011AA89C
:1030100047F0BAFE47F0BAF940F05985D8F80400F5
:103020000DF598788D9922461591334601681491D3
:1030300041681391816812911799C06811904046B8
:10304000CDE9009AFEF7C8FE9DF830B1BBF1FF0F45
:1030500001F022800DF59F6248F02CF946F072FED7
:103060008DF8FCB4F6E1FF2804BF98F80C20032A81
:1030700040F0838105F10801DCA847F073F947F0BF
:1030800085F940F02D858D985D46DBF830A0DBF8A2
:10309000341000F07F04DBF838B0A4F14002D5F81A
:1030A0003C901491139058464946D8F80460CDF8E6
:1030B00054A062F099FC149980465046224662F072
:1030C00093FCC4F1400282465846494662F0FCFD3A
:1030D000F368D6F800907268D6F808B0DCA90391BE
:1030E00020310291402C1493CDE900B338BF4AEA55
:1030F00000081598002C08BF8046DB4848F0C1F84E
:1031000090461AA84A46434626F068FBD5E902E3F2
:10311000DDE91A42D5E900C1DDE91C6051405840A3
:1031200084EA0C02084386EA0E011143084340F08A
:10313000E18514981399C5E90898C5F828B01329B2
:10314000E862199D41F0AD800DF59F60DCAB8CE02D
:10315000FF2804BF98F80C20022A40F00E8105F1E8
:1031600008011AA8B0221C4662F088FB47F00EF94D
:1031700040F07483D8F8040046F0BEFE84E80E00E8
:10318000B968E06004F1100001F01EFED4E9060108
:10319000D4E90423CDE90001DCAC46F03BFD9DF809
:1031A0007063FF2E40F06286E01D1AA946F032FFE0
:1031B000042000F06BBEFF2804BF98F80C20032AFF
:1031C00040F0DB800DF1680B05F10801B0221C46D0
:1031D000584662F053FB47F0D9F840F03F83D8F8E7
:1031E00004000BF120028168D0F80CA0D0F8049004
:1031F000D0F800800020CDE9001ACDE914214B461B
:10320000CDE9022B42460490C6A826F0E7FAD4E99D
:1032100002E3DDE9C652D4E900C1DDE9C8605140EE
:1032200058408CEA050208438EEA06011143084320
:1032300040F0718504F11003159DC4E908890FCB96
:10324000C4E90A5A149CCDF800B001AE86E8100318
:10325000CDE9045A26F000FB199D95F808110229C2
:1032600041F03D800DF59F601AABDDF85CB0169A19
:103270005946FEF761FFDDF860A000F02DBCFF2885
:1032800004BF98F80C200C2A77D105F10801DCA8BE
:10329000502206F1100462F0F1FAD8E9010104F1BC
:1032A000280A0D902069129060691190A069109011
:1032B000E0690F90206A1390606A1490606B0E9022
:1032C00005F58F709AE800071591D4E90E6B45F06B
:1032D00054FFD5F8142120F07F40D5F81111CDF816
:1032E00033214C91D5F80D21D5F80A11CDF86B207A
:1032F0001A91CDE9086B0A904CA80B901AAD129860
:10330000029011980390109804900F98CDE9050A47
:103310000E980C95CDE900890790D6A8DCA9DDE9C7
:10332000132326F0F7F91598102806D1D6A90D9881
:103330002CF067F9002800F0F8844FF00B08032602
:10334000199DDDE917BA0DF59F60BEA9063012225E
:1033500062F060FBFF208DF8FD848DF8FC64DCAE2C
:103360008DF8F8040DF59F6801F0B8B9FF2804BF87
:1033700098F80C20032A00F05A82FF2809D198F807
:103380000C10042922D047F00EFF0D2900F0F88020
:10339000FFE00539082900F2EE80DFE801F0052C96
:1033A000ECEC81ECECD1E9000DF59F68012800F010
:1033B0009482DDF85CB0022840F0EB8040F60340D8
:1033C000DDF860A0ADF8FC0401F08AB9DDF85CB06E
:1033D000D8F80800002801F0A98447F0D1FE8DF844
:1033E000FC14411E102928BF08208DF8FD04DDF8CB
:1033F00060A001F075B9032840F0BD800DF55C7A3E
:1034000005F118019022504662F038FA0020D8F8F1
:1034100004100DF16808179BCBE90C105246CBE95C
:1034200010100021CBE90E00CBE91200B868009023
:1034300040469DF83162FEF7F7FD9DF86840FF2C8D
:1034400000F052830DF59F6247F034FF46F07AFC9E
:103450008DF8FC44FF20DDF860A08DF8F804DDF85D
:103460005CB001F038B900BFC0FFFF7F70BA060042
:10347000990000009D000000A40000009B000000D7
:103480008D00000095000000B97B040034FC0600AC
:10349000A6000000900000009A0000008B000000D1
:1034A000042868D10DF1680905F10801B0224846E9
:1034B00062F0E4F9D8F8010008F121041490202208
:1034C000D8F8050021461590D8F809001290D8F8D0
:1034D0000D0013904CAE46F084FC5FF8701020464F
:1034E0002CF08FF840B95FF87C1006F110002CF03A
:1034F00088F8002800F087844946DDF83C91DDE932
:103500004DA82031DDF830B10020CDE90089CDE9AA
:10351000021153460490DCAC5A46204626F05EF970
:1035200006F1100120462CF06CF8002800F06F84A2
:10353000FF208DF8F80440F20340ADF8FC04C9E226
:10354000C8B998F80100002800F04F83DDE917BAE8
:103550000DF59F6895F82301800700F1BF8595F868
:1035600022110DF59F605A46FEF76CFC01F0B4B8CD
:10357000002800F0AB8147F016FE0138022808D27F
:103580000DF59F608CA947F01DFEDDF860A001F0ED
:10359000A3B81520DDF860A08DF8FC0401F0A0B8F8
:1035A000D8F80800002801F0C38347F0E9FD8DF842
:1035B0003412411E102928BF08208DF8350270E012
:1035C00046F0E4FE40F05981D8F804108CACA01C01
:1035D00046F0B3FC0DF59F6805F1180108F10600EF
:1035E00046F018FD46F00AFD04204AE10DF59F6003
:1035F0004946D8E901A917912AF088FD9DF82105CF
:1036000002281ED00D200DF59F688DF8F8040DF5E9
:103610005C7B17984346816A826B58462AF0A1FC6E
:103620009DF87003FF280BD09BE85E0040465EC00B
:103630005FF8C4013BF074FD46F0A2FE3BF0D8FEFB
:10364000199D0DF59F6051464A4645F05FFE9DF875
:10365000F844022C40F01A81DDF85C900A2089E2DF
:10366000072908BF042800F09081421E032AFFF4B6
:103670008DAB98B90A2911D198F80100002800F003
:10368000F38095F81D01800700F1618295F8220111
:10369000DCAE80074CBF0B200D2073E1152047F0F6
:1036A0007DFD8CA808F10401043090E87C000E2018
:1036B0007CC1DCAE8DF8F804301D08F1040130F057
:1036C000BFF90C20D9F828108DF870033346D9F8CB
:1036D00038204CAC20462AF044FC47F09CFB0DD02F
:1036E000304694E86E006EC0DCAE5FF878023BF0C6
:1036F00017FD304643F034FE3BF07AFE199D0DF580
:103700009F61284647F05EFD8CAC2946204644F078
:10371000BAFAFF208DF870039DF83002FE2818BF1A
:103720002646189D96E81F001FC501F017B846F001
:103730002DFE40F0C480D8F804100DF59F6808F104
:10374000020046F0FAFBB01D05F1180146F062FCDC
:10375000012031468DF8F90408F11200B62262F01A
:1037600059F9DDF85CB00620ADE04CAE169A414642
:1037700030462AF01FFC47F04EFB0DD00DF55C7B68
:1037800096E83E0058463EC05FF8140347F0D6FC6A
:1037900047F0F7FA3BF02CFE169805F1E00EAC4628
:1037A0005446016817914168149181681591D0F8C9
:1037B0000CB09EE86F006FC4DDE9142117989CF8E7
:1037C000F8E0DCAECDE9E01B06F11801CDE9DE0240
:1037D0008DF871E39AE87D007DC10B20DCAE8DF899
:1037E000A1938DF8A0E333468DF87003D8F8281024
:1037F000D8F838204CAC20462AF0B3FB47F00BFB3E
:103800003FF47CAF304694E86E006EC0DCAE5FF8EB
:1038100094036CE706F10800169BD8E90112CDE984
:1038200000308CA84B46FEF7DDF8FFF7B3BA05F180
:103830000801DCA846F096FD46F0A8FD0ED1D8F8A8
:10384000040046F059FBFF90FCA80EC0DCAB0DF560
:103850009F60DDF85CB047F023FB72E1FF20DDE9FB
:1038600017BA46F0F2FE6EE15FF8EC033BF064FC41
:1038700047F044FA40F6037053E0052047F08EFC11
:10388000FF20DCAE8DF83002FFF789BA9DF8FA64AC
:10389000DDF85C90300700F1668103206AE15FF893
:1038A0001C043BF03DFC204639F022FD3BF0A0FD1E
:1038B00005200DF59F688DF8340201F0D4B847F06B
:1038C000CBFC0DF59F68DDF860A098E298F8010048
:1038D000002800F098811120F1E0DDF85CB009F1DA
:1038E00008030DF59F6047F0DBFA4EE640F6034013
:1038F0000DF59F68ADF83402D3E640F60320ADF82D
:10390000340247F0FBF918E340F60330ADF8340217
:1039100047F0F4F9D146FFF73DBA47F0EFF940F62A
:103920000320ADF83402FFF735BA47F0E7F9052078
:103930008DF83402FFF72EBA9DF8690000287FF455
:1039400066AA98F80C000C287FF461AA46F01EFDC8
:1039500040F0DA85D8F804108CACA01C46F0EDFAE3
:103960000DF59F6805F1180108F1060046F052FBBD
:1039700046F044FB032000F0CBBD05208DF8340257
:10398000FF20DCAE8DF8300212E3CDF85C9005F13B
:1039900008014CA846F0E6FC08F121060DF5467931
:1039A0002022484647F011FA5FF84015D8F80D007C
:1039B00015903046D8F80140D8F805B0D8F809A0DD
:1039C00095F81E5144F0F0F840B95FF8601509F120
:1039D000100044F0E9F8002800F02D84CDE913BA76
:1039E0000DF55C7ACDE91154C6AB0DF53E780FCBE1
:1039F000109047F053F90F914146BE9050460E92F9
:103A00000D9339F033F90DF59F64002651464FF4BC
:103A1000B8722046CDF8DC64CDF8D864CDF8D46413
:103A2000CDF8D064CDF86866CDF86C66CDF87066D8
:103A3000CDF8746662F068F80DF55C7A21464FF4B3
:103A4000C072504662F060F88DF8F0644CA800F146
:103A500020045FF8CC95504620222146C8475046A6
:103A600021462022C8470DF59F6B504601228DF854
:103A7000F8645946C847584651464FF4C27262F03E
:103A800043F89DF878A60BF5B8715FF80036102260
:103A900050462AF066FB002970D000F8016B01390E
:103AA000F9E747F0D9FB8DF8F8044AE040F6033017
:103AB000ADF8FC04FF208DF8F8040BE00120DDF8E0
:103AC00060A047F070FB8DF8F80400F04BBEFF20BB
:103AD00046F0BBFDDDE917BA0DF59F6800F0FBBDB0
:103AE00005200DF59F680AE1DDF860A0F00700F001
:103AF000618109F1020046F0FFF98BE80E00CBF876
:103B00000C00DBE90601DBE90423CDE900011AAC76
:103B100046F080F89DF868600DF59F68FF2E00F074
:103B2000A18408F10500611CD3E35FF89C063BF01B
:103B3000F7FA204639F0DCFB3BF05AFCFF2046F058
:103B400084FDDDF860A00DF59F6800F0C5BDD9F8D3
:103B50003CA00AF108030FCB46F0A5FD00F0F1826E
:103B600082AC0FC4F2E29DF8FB84B8F1100F80F034
:103B7000328206208DF83502032090E5A7F13C063D
:103B80000024584647F83C4C31468DF8784647E9C2
:103B90000E4447F8304C38F0D4FAA7F12C093146DE
:103BA00048462FF0D9FF0BF5B076102C0AD00BEB5E
:103BB0000400013490F8601190F87021514080F8B1
:103BC0006011F2E7BAF1100F40F02E82DDF850A03C
:103BD0000DF59F68DDE9124B0020102800F03D82B2
:103BE00019F8001046F0E2FAF7E75FF858073BF0E3
:103BF000A3FA40F60370DDE917BAADF8FC040DF541
:103C00009F6800F06DBD0D200DF55C788DF8700398
:103C10000DF1680917984346816A826B48462AF07D
:103C2000A0F99DF86800FF280CD099E86E00404686
:103C30006EC0DCAE5FF8A00747F080FA46F0A0FB4C
:103C40003BF0D6FBDDF860A0E00700F04982DCAC79
:103C5000DDE9161B5A462046FEF771F99DF87063A0
:103C60000DF59F68FF2E00F0588408F10500611CD7
:103C700046F068F88DF8FC6400F0AEBF0120BDE0AE
:103C80000DF59F6805F1180108F1070046F0C2F92B
:103C9000092041468DF830028CA846F004F9DCAECC
:103CA000FFF780B85FF80C089B46159535466646C9
:103CB0003BF036FA5046314642464B4643F082FAD4
:103CC000159B284621465A4643F07CFA3BF090FB70
:103CD00047F014F840F20340ADF834022DE19DF8AE
:103CE00072130DF59F68DDE917BA0A0700F1CE825D
:103CF0000320D1E2199D0DF59F68DCAE032004215D
:103D00008DF8FC04FF208DF8FD148DF8F804DDE932
:103D100017BA00F0E1BC199D0DF59F68DDE917BAEF
:103D200040F60340ADF8FC04F4E2DDF864B0AC46C4
:103D300002269BF81A119BF820519BF8080101F00C
:103D4000030105F0030581F00101022885F001055A
:103D500008BF01262943B1FA81F1D4E900234909BA
:103D6000D4E902040391654617998DE85100604635
:103D70002AF085F80DF5467AA91C12229DF8686094
:103D800050469DF869809DF8914061F043FE022CF9
:103D900040F0C582BEA8BAE82E00FF2E2EC05D46B8
:103DA000BAF80010DDF860A0DDF85CB001807FF4A7
:103DB000CAAAF1E20DF59F68DCA908F1080046F0F7
:103DC000D1FA0020CDF8FC040720FFF746BBDCAC9D
:103DD000594620462AF048F99DF89963FF2E40F095
:103DE000DE820DF5987C94E86E0060466EC008F1A6
:103DF00004009CE83E003EC0199DFF20DCAE8DF81B
:103E0000F80400F06BBCDDE94CBADDE94E891AA874
:103E1000129E00F1700495F81E01002808BF0646A6
:103E2000159908BF0146149A08BF0246139B08BFA4
:103E30000346C4E90821B968C4E90A63C4E90CBAB5
:103E4000C4E90E89DCA800F0BFFFDDE9DE01DDE991
:103E5000DC23C4E90023C4E90201CDE90001DCACA4
:103E600045F0D8FE9DF87063FF2E0AD00DF59F68CF
:103E7000611C45F0E3FDFF208DF8FC648DF8F8042B
:103E80000EE0E01D1AA946F0C5F80A200DF59F685E
:103E90008DF8F80408F101002146B72261F0BAFD5F
:103EA000DDF860A000F017BCDDE91010702241EAD7
:103EB00000484CA9DCA861F0E1FC149A13991002A7
:103EC00084E8400A40EA1165129840EA01231599F6
:103ED0001393080240EA12624FEA082040EA116890
:103EE0001492C4E905522022C4E903A3C4F81C803B
:103EF000DCAC04F19000C6A961F08CFD04F1200057
:103F0000149A8DE8510A294643461398CDF814A017
:103F100025F0A2FC199991F80811022940F063825A
:103F20000DF59F64DCA9E01D46F074F809202146D8
:103F30008DF830028CA845F0B6FFDDF85C90FEF7F6
:103F400029BF1794D6A800F10208291D102246F0B7
:103F5000BCFA82A84146841C45F03BFD0DF508786B
:103F60002146102246F0B1FA0DF55C7951464246E1
:103F700047F01DFA9DF87083B8F1FF0F00F07C82C6
:103F800099E85E0028465EC0DFF8FC0D3BF0C8F8FB
:103F900046F0F6FB3BF02CFA8CA8DCAE0530711C29
:103FA00045F0D0FEFF208DF834828DF83002D146E6
:103FB0000DF59F68FEF7F1BEE01DDCA946F02AF87A
:103FC000092021468DF830028CA80130B72261F01B
:103FD00021FDFEF7DFBEBDF8FCA49DF8F9945FEA71
:103FE0008A7042BF95F81C0140F0020085F81C0160
:103FF0005FEA8A5040F178841798C36BD3E902E1F5
:10400000D3E9042341EA030C4EEA020050EA0C0013
:1040100000F05484CDF8F8E4CDF8FC14CDF8002578
:10402000CDF8043500F053BC16F80A00A7F12C01B6
:1040300080F0800006F80A0040462FF08DFDDDF884
:1040400050A00020DDE9124B102804D018F8001011
:1040500046F0ACF8F8E70DF59F680DF59F60314626
:1040600038F06FF80FCE46F019FEBE90C6A800F1EA
:104070001001BEA843F098FDDCAE119DDDE90F9C58
:104080000028DDE90D3E00F0DD8046F037FE40F20D
:104090000340ADF83402F5E00DF59F68DCA908F1A6
:1040A0000800602208F1680561F0E8FB149805F14A
:1040B0000C0128603022139868601298A86011984B
:1040C000199D81E8510608F188001AA961F0A2FC47
:1040D0001598CDF8FC040820FFF7BDB90E20F2E4D6
:1040E000DFF8800C3BF028F81020EAE4DDF860A04F
:1040F000002800F016820A200DF55C788DF8700318
:1041000046F0AFFAD6AE46F084FA9DF85843FF2C3D
:1041100040F0748208F106001AA945F07BFF0DF506
:104120009F620620ADF8F804414602F11200904665
:10413000B622CEE208F107001AA945F06BFF032072
:10414000BFE20020CDE98400CDE982000DF59F6833
:1041500082A9404603F0E6FD9DF8F844FF2C52D1B9
:104160004CA84E4600F1030908F10401102246F064
:10417000F5FAD6AC494645F02CFC0DF59F68314662
:1041800022461796404629F047FE9DF8F844FF2C3A
:1041900040F02381DAF80000C10700F06C82DAF801
:1041A0000410000A0DF59F660A0E8DF8F6210A0A22
:1041B00040EA01607C90ADF8F4217CA9304603F020
:1041C000FBFD9DF8F844FF2C40F03784311D484634
:1041D00045F0B3FEBEAE494645F0BAFADDF85C9054
:1041E0000DF59F6832464046494629F015FE9DF878
:1041F000F844FF2C3FF44AAA08F10101C6A845F093
:10420000A1FD00F025BC4CAD08F1010145F010FD09
:10421000C6A84ECD4EC046F01DFF00F019BC8CA8BC
:104220000DF59F61083046F09DF88D9605208DF8BC
:104230003002FEF7AFBDDDE9C6C90DF59F68DDE9C7
:10424000C8E3DCAE4CA8903015F0010102BF8A46ED
:104250008B460C46159A08BF0A46C0E902A2C0E97F
:10426000004BB022C0E904C9C0E906E308F1070029
:104270004CA961F0CFFB082041468DF830028CA894
:1042800045F011FEDDF85C90FEF787BD9DF87323C5
:104290000F2A00F2BC8106208DF8FD040320FFF7F1
:1042A0007BB9B8684C1C0090DCAADDF85CB00DF15D
:1042B0006808214640465B46FDF7B6FE9DF86860FB
:1042C000DDF860A0FF2E00F0E9810DF59F6246F059
:1042D000F1FF45F037FD8DF8FC64FF20E8E1DDF8E3
:1042E0005CB009218DF870130DF55C78DD9046F017
:1042F000B8F94CAE46F08DF99DF83041DDF860A07C
:10430000FF2C00F0D8810DF59F68711C45F096FBDD
:104310008DF8FC44FF20DCAE8DF8F804DCE105F1FB
:10432000140C15940DF598792946BCE83D00CE464D
:10433000AEE83D009CF800008EF80000BDF8960045
:10434000ADF80C02DDF8920082900846BAE83C0015
:104350003CC0BAF8002002800BF1D20012228BF888
:10436000D1808BF8D06061F055FBB9E83E000BF1CD
:10437000E4003EC05D4615998BF8F91099F80010DD
:1043800001708298CBF8FA00BDF80C02ABF8FE0081
:10439000DDF860A0DDF85CB00C20FEF7E0BF4CA8B3
:1043A000DCA946F07FFFDDF89A03022EC690BDF827
:1043B0009E03ADF81C0300F0B6844CA905F1D000B3
:1043C00046F070FFC698C5F8FA00BDF81C03A5F8C2
:1043D000FE000D2085F8F96010E508F10101C6A87E
:1043E00045F0B0FC32E3DDF85C9009218DF8F8145B
:1043F0000DF59F68CDF8FC04D9F828104346D9F88C
:104400003820BEAE46F005F99DF8F842FF2C00F0CA
:1044100032828CA8711C45F0EBFB8DF83442FEF71C
:104420008DBC4CA8211DC61C45F092F9C6AC314686
:1044300045F0CFFADDF85C900DF59F6622463046D8
:10444000494629F0E9FC9DF8F8440DF59F68FF2CDA
:1044500000F01F828CA8711C45F0CAFBFF208DF86C
:104460003442C9E308F10800DCA945F07BFF0020D5
:10447000CDF8FC0408201BE14CA9484645F05CFC43
:1044800009F12004C6A945F096F9179812228DF873
:10449000B303BDF80402ADF8B0039DF806028DF831
:1044A000B20309F145008DF8B4637CA961F0B2FA5A
:1044B00009F1570079A9092261F0ACFA5846502158
:1044C00061F085F9199890F80801023838BF022088
:1044D000C0B2022800F0CC82032840F0FD820F20F9
:1044E0000DF59F6846F077F9D6AE46F092F89DF844
:1044F0005853FF2D40F0728308F10700DCA945F006
:1045000089FD072041465DE5052046F047FEFF2076
:104510008DF83002DCAEFEF742BCDCAE0120FFF7C6
:10452000D2BA1AA8D7F8088090301590103014909D
:10453000E04840F2FF1B4FF0FF398246404637F01B
:104540005CFC044640460E4637F057FCDA4D00232B
:10455000A0FB0502E1FB0523A4FB0541A6FB0556D4
:104560006D184FF00001464152F1000253F1000076
:1045700024EA0B0341F10001BAEB030379EB0503D5
:1045800079EB060379EB0202D8D3149B0022DDF805
:104590005CB083E80700DA60159BDD9083E80700D4
:1045A0000821DA608DF87013DBF82810DBF838206A
:1045B000D6AEDCAB46F02DF89DF85843DDF860A090
:1045C000FF2C40F03382B86800210090DCAE1AAABC
:1045D0005B4630464FF00008FDF726FD9DF870431E
:1045E000199DFF2C0AD10DF59F641AA904F108004A
:1045F00045F0B8FECDF8FC84A04658E00DF59F6864
:10460000711C45F01BFAFF208DF8FC4450E085F842
:10461000201105F58F7185F81E0105F58C70BDF828
:1046200074339DF87143A5F8223185F8212185F86E
:104630001F4144F0ADFD85F809112022DBF82C1054
:1046400085F808014CA861F0E5F9DBF83010DCAE24
:10465000402245F0C6FB0DF168083146404603F0A4
:10466000B9FA9DF86800FF2800F082820A2003242E
:104670008DF81903A6E20524E8E1DCAD98E85E00B8
:1046800028465EC029468CA800F1040C91E85D0024
:104690008CE85D002E46FF20FFF774B90DF59F688A
:1046A000DCA908F1080045F05DFECDF8FC440720C8
:1046B0008DF8F8040FE008F107001AA945F0AAFCEC
:1046C00005200DF59F628DF8F804501C4146904678
:1046D000B72261F09FF9DCAE9DF8F804FF2841D1C4
:1046E00008F10400311D90E87C0012207CC1DCAE92
:1046F000199D8DF8700308F10400311D2FF0A0F909
:104700000C20DBF828108DF8F8044346DBF838203D
:104710004CAC204629F025FC46F07DFB09D046F044
:10472000C5F8DFF8580646F009FD45F029FE3AF0D5
:104730005FFEDCA9284646F045FD1AAC2946204616
:1047400043F0B2FAFF208DF8F8049DF86800FE28C7
:1047500018BFA04698E81F008AE81F000DF29C6D64
:1047600045F0A0BA0DF59F69DCA8C822494661F062
:1047700085F89DF870031228BDD01128D9D195F87D
:10478000F910022904D1DFF8EC053AF0D5FCD0E7A6
:1047900095F81A0100F00300012802BF95F82001E6
:1047A00000F00300012806D095F8F8E00DF1680B41
:1047B0004FF0020A30E015910DF59878DDE91661A9
:1047C0004046324629F0F6FB46F025FB0CD098E82F
:1047D0003E0048463EC0DFF8940546F0AFFC484630
:1047E00042F0BEFD3AF004FE306805F1E00E149090
:1047F0000DF1680B7068A84613905C46D6E902ACD0
:104800009EE86F006FC4514698F8F8E00DF59F6878
:10481000139A1498DDF854A0CDF80CC509F1180CC2
:10482000CDF80425CDF800058DF8F9E4CDF808158C
:104830009BE87B008CE87B000B204B468DF8F8044E
:1048400017988DF829A58DF828E5816A826B4CAE02
:1048500045F0DFFE46F0DFFA0AD046F03AFCDFF81A
:1048600010053AF05DFC484642F07AFD3AF0C0FD92
:10487000DDE918A55DE708F10600DCA945F0CAFBF3
:104880000320ADF830028CA812304146B622FFF763
:104890009EBB119C132C40F0A781F01DDCA945F0B4
:1048A000B9FB092031468DF830028CA845F0FBFA9F
:1048B000FEF772BAFFC5FCFF40420F000020CDF8A2
:1048C0000405CDF80005CDF8FC04CDF8F804DFF8B8
:1048D00098140DF59F602AF094FE28B195F81D01FB
:1048E00040F0020085F81D0195F819010C21A5F88A
:1048F00022A105F58C7B85F82181032885F82061AC
:1049000085F81F9185F81E4108BF0821DDF85C90ED
:10491000D9F8380090F8702390F87133881885F82A
:104920001A0105F58F7013B101218BF8001059465B
:1049300044F02EFC199A82F808010DF59F6082F868
:104940000911012103F0D0F89DF8F8A4BAF1FF0F86
:1049500043D19DF80865DDF80445BDF80905ADF8BB
:10496000180331469DF80B058DF81A032046DDF833
:10497000FC84DDF8009522F02DFF45F082FD5846BD
:104980001A4644F0B3FCC0B2022848D1CDF8FC94DA
:104990000DF55C79CDF8F8840DF59F68BDF8180326
:1049A00017994246ADF805059DF81A038DF80705DD
:1049B00048468DF80465CDF8004529F02DFA9DF89C
:1049C00070A3BAF1FF0F6DD1DDF85C900DF59F6813
:1049D00001208DF83002FFF762B99DF808259DF897
:1049E000FB048DF88023DDF804258DF87303BDF8F2
:1049F000F904DF92DDF800259DF80B15ADF8710381
:104A0000BDF80905DE92DDF8FC24ADF830018DF823
:104A10003211DD928DF88313ADF881034FE04046EB
:104A2000494644F039FC4FF0050A46E00DF59F6811
:104A3000711C45F003F8199DE5E54CAD711C45F07E
:104A4000F7F8C6A84ECD4EC046F004FBDDF85C90EA
:104A5000DCAE8DF834428CA8C6A9053013220DF5C2
:104A60009F6860F0D7FFFF208DF83002FEF795B900
:104A7000199890F80901002800F0CE800A200DF561
:104A80009F6845F0A8FED6AE45F0C3FD9DF858538B
:104A9000FF2D40F0A38008F10600DCA945F0BAFA2A
:104AA0000420EEE699E85E0040465EC0BA483AF05F
:104AB00037FB45F065FC3AF09BFCDDF85C90DCA927
:104AC0008CA80530013113220DF59F6860F0A2FF1C
:104AD0008DF834A2FEF7E5BDB9680BF1100000F0C7
:104AE00073F9DBE906010025DBE904238DE8030205
:104AF0000DF59F60CDE9034524F070FEDDF8041547
:104B00000DF59F68DDF8F824DDF8FC34DDF80005CC
:104B1000CBE90201CDE900014046CBE9002303F0D7
:104B20000DF89DF8F854FF2D6AD182A808F1040110
:104B3000C61C44F00DFE88AC314644F04AFF0DF52A
:104B400056795146224646F032FC9DF85853FF2DC7
:104B500040F0808008F10700DCA945F05BFA0220F4
:104B600041468DF830028CA845F09DF9FEF7D2BE83
:104B7000BEA808F10401861C44F0EAFDD6A831461F
:104B8000841C44F026FF0DF50279214610225E4672
:104B900045F0E4FD0DF5467B31464A46584629F07E
:104BA0003BF99DF81843FF2C3DD09BE86E00404632
:104BB0006EC069483AF0B4FA45F0E2FB3AF018FCEE
:104BC000DDF85CB0C6A90DF59F6808F1050001315C
:104BD00045F0B8F88DF8FC44DCAE81E58CA8711C7A
:104BE000053045F0AFF846E08CA8DCA9083045F068
:104BF000B9FB601C8D9005208DF83002FEF7CCB813
:104C000082AE08F10101132245F0EBF8D6AC314633
:104C1000601C45F097F829E0DAF80000D146A0B30F
:104C2000D9F804104EE008F103004CA945F084F8CF
:104C30000DF59F64DCA904F1240045F0F4FB02208B
:104C400041468DF8F804601C2322A04660F0E2FE85
:104C5000FEF705BC99E85E0040465EC04D483AF05C
:104C60005FFA45F08DFB3AF0C3FBD6AC8CA8611C13
:104C700044F0BEFFD146FF20DCAE0DF59F688DF8F5
:104C800030028DF83452FEF788B8BD68314B404C85
:104C9000D5F8000140280BD32846002126461C46A3
:104CA00023F0E8FBD5F8000140284AD223463446D9
:104CB000421C55F82000C5F80021A0FB0301A042CA
:104CC0001046E7D80BF140000BF130020026CDF87A
:104CD000FC14C0E900160DF55678C2E900160DF572
:104CE0009F63C2E90266D9F82810D9F83820C0E9D4
:104CF000026608208DF8F804404629F032F99DF844
:104D000058538CA8FF2D03D10830DCA9FFF78BBACC
:104D1000053008F1010164E7194B00E00B4B01205D
:104D2000072139F037FB0D483AF04CF8124A06E0FB
:104D30001A4A04E0134A02E0094A00E0044A44F037
:104D40009AFC124A402139F06BFB00BFDC88060058
:104D5000CC88060040420F00A3000000BC8806007B
:104D6000AC8806009100000070BA0600A5000000A3
:104D70009C000000A70000009C8806009E00000028
:104D800050FA060040FA0600A20000004CB80600E7
:104D90007F3DF1FF9F000000980000007C88060026
:104DA000D0B502AF92B0BC688DF81020FF228DF80C
:104DB0000420CDE902343A69FB68009201AAFDF7AC
:104DC000C7FC12B0D0BDD4D4F0B503AF2DE9FF07B6
:104DD000DFF8949000260D468046EA46CDE902664B
:104DE000CDE900660F2E1ED8D5F80041402C07D320
:104DF0002846002123F03EFBD5F80041412C2AD261
:104E00003046514610224B4629F0ABF902460B467C
:104E100005EB8400C4F140013CF072F82044C5F871
:104E200000010E44DEE704A89AE81E001EC004AB91
:104E300045F0CFF81FBFA8E80F0008B0BDE8000795
:104E4000F0BD08483AF06CF904A842F0B7FB3AF01C
:104E5000CFFA3AF01BFA054B20464021402239F0A8
:104E600099FA00BFAD000000940107003CB80600AD
:104E7000F0B503AF4DF804BD856804686DB14268B4
:104E8000C66804F10800531B00EB4211B21A00EB94
:104E90004310520160F039FC00E0C668701B2060CE
:104EA00044F0A6BF80B56F4690F81414032918BFCC
:104EB00080BD00F58470BDE8804001F053BC80B532
:104EC0006F4618B1BDE8804044F0E6B980BD80B5BA
:104ED0006F46818A022908BF80BDD0E9003182680F
:104EE0001846BDE8804000F0D1BE80B56F4601692C
:104EF00039B1D0E9003182681846BDE8804000F041
:104F000047BD80BD80B56F46D0E90012114308D07F
:104F100090F88C10032904D10830BDE8804001F0DE
:104F200000BD80BD80B56F46016819B1BDE8804005
:104F300000F0C1BB80BD80B56F46C24312061CBFE6
:104F4000BDE8804001F047BE80BDD4D480B56F4637
:104F500005480021012201600449425001680029EE
:104F6000FCD00021016080BD14710040F4FEFFFF01
:104F700080B56F46017B052918BF032904D1143081
:104F8000BDE8804001F05DB880BD80B56F4690F807
:104F9000441031B1032918BF80BDBDE8804000F046
:104FA000D7BA3830F9E7D4D4D0B502AF0446006898
:104FB00020B945F0C5F944F086FFD0BD04483AF069
:104FC000AFF841F0E3FA3AF013FA3AF05FF900BFB4
:104FD0003E000000D0B502AF0446103024F085F941
:104FE00041F27C00204440F0CDF841F2880020449A
:104FF000BDE8D04040F0C6B880B56F4601680129D1
:1050000018BF80BDD0E90110C968BDE880400847DD
:1050100080B56F4690F87510032918BF80BDD0E9A0
:105020000010C968BDE880400847D0B502AF04460B
:10503000D0E90001084304BF207B032808D0D4E94D
:105040003201084304BF94F8D40003280AD0D0BD2D
:10505000207E06280ED00428F1D104F12000FFF7AD
:1050600087FFECE794F8E800062808D00428EED182
:10507000282005E004F1200000F0E3FFDFE718201E
:1050800004F1D8010844BDE8D04000F0DABFB0B563
:1050900002AF04460025902D08D06019017D032938
:1050A00004BF043001F0BAFB1835F4E7B0BDD4D426
:1050B000F0B503AF2DE9000F8DB000F59D6B0446F0
:1050C0009BF8280C032809D060B904F6182001F0D9
:1050D000A8F804F69800FFF7A8FF03E004F53E6087
:1050E00000F0DAF9D4F8A80738B994F8BC07042816
:1050F00004BF04F5F86001F01DFDD4E90C0108437C
:1051000001BF94F84400032804F1500000F0AEFE03
:10511000DBE90001084307D194F8FC04042804BF2C
:1051200094F8A007032802D00DB044F0BBBDD4F81A
:10513000000738B994F82607042804BF04F5E56091
:1051400000F073FFDBE93E01D4F8E82500F020FC15
:10515000DBE93A01D4F8D82500F098FDDBE9360107
:10516000D4F8C82500F07AFCDBE93201CDE9021061
:105170009249D4F8B8050968C90540F019819149E8
:1051800024F075FC0646D0E9005A806B06F1400910
:1051900001910138B063484620F0D0FE45F0A8F8F0
:1051A00035D30DF1100A4946504624F0A5F9B5EB68
:1051B0000800089004D0411E04A836F03EFF40B11C
:1051C00044F00EFF404628F08AFD10B145F0C3F8C8
:1051D000F8E704AD0020D6E91012891A18BF0121A2
:1051E00096F848201143C9070BD0316D49B92846BC
:1051F00049463CF045FA0498002800F0D68001208A
:10520000E9E7C0071CBF06F12C003CF023FA019926
:1052100044F0EAFDDBE92E01D4F8A82500F07EFC7D
:10522000DBE92A01CDE902106449D4F89805096840
:10523000C90540F0BD80634924F019FC0646D0E959
:10524000005AC06F06F1080901910138F06748461D
:1052500020F03CFE45F04CF833D30DF1100A4946DE
:10526000504624F0BBF8B5EB0800089004D0411E6E
:1052700004A836F0E2FE40B144F0B2FE404628F009
:105280002EFD10B145F067F8F8E704AD0020D6E92F
:105290000212914202D1327CD2070CD006EBC1013E
:1052A000896941B9284649463CF034F904980028F8
:1052B0007BD00120EBE7C0071CBF06F170003CF07B
:1052C000C9F9019944F090FD3C49DBE926BAD4F8CC
:1052D00088050968C9056BD13A4924F0C8FB064620
:1052E000D0E90058D0F8FC0006F108090391013814
:1052F000C6F8FC00484620F02FFE2D1A68F1000089
:10530000BBEB05017AEB000037D30DF1100A4946DB
:10531000504624F042F9BBEB0500089004D0411E32
:1053200004A836F0BFFE48B144F05AFE404628F0CB
:1053300038FD18B1816801398160F7E704AD0020BC
:10534000D6E90212914202D1327CD2070FD001EB92
:10535000410106EB8101C96949B9284649463CF03B
:1053600003FA9DF8100002281FD00120E8E7C007CB
:105370001CBF06F1F0003CF06DF9039944F034FDD8
:10538000D4F8701519B1D4F87405C9688847D4F8F1
:10539000781500293FF4C8AED4F87C05C9680DB073
:1053A000BDE8000FBDE8F0400847074839F00AFDA6
:1053B000034839F0C1FE39F069FF00BF04ED00E099
:1053C0003D000000B0AA060050B4060080B56F464C
:1053D000017B032918BF80BD1030BDE8804001F07B
:1053E000C8BBD0B502AF044690F83B0003280FD0ED
:1053F000042805D005280ED1D4E91101FFF75FFD7F
:1054000094F83A00012804BFD4E9080143F044FFAE
:10541000002084F83A00D0BDD0B502AF044690F821
:105420006804032804BF04F58260FFF7DAFF94F8EC
:105430002701033804281AD8DFE800F003150D10FF
:10544000080004F5A07001F0CCFA10E004F59470A7
:1054500000F0D4FF0BE004F5947006E004F5A470AE
:1054600000F046FE03E004F5A07000F022FE94F880
:105470007203042809D0032818BFD0BD94F8B603DE
:10548000032824BF002084F8B50304F5547207CA2A
:10549000BDE8D04000F0E2BAD0B502AF044690F8C3
:1054A000B602042805D005280DD104F52E7001F0B0
:1054B0006DFA94F8B50218B104F5E07000F048F9FF
:1054C000002084F8B50204F5587000F0AAFE2046CA
:1054D000BDE8D040FFF7A9BD80B56F46C0B2BDE8BA
:1054E00080405DF061B9D4D4F0B503AF4DF804BD90
:1054F0000A46064645F05EFB0C461349054606F58E
:10550000767041F055F80E4695F85E13B1B1013949
:1055100085F85E13090604BF95F85C13042905D0CD
:1055200044F09FFD44F0CFFC44F062BC103041F2E7
:105530000131A5F85C133AF03DFBF1E7034839F07F
:10554000FBFD39F0A3FE00BF2CB70600B50000003C
:1055500080B56F46014640684A7A00F5B7601AB1D7
:10556000BDE8804020F049BC097ABDE8804020F0C9
:1055700028BC80B56F4680BDB0B502AF456875B137
:1055800002890068D0E9000123F0AAFD38B10C4679
:10559000D0F84013294445F0A8FA44F094FCB0BD7B
:1055A000F0B503AF4DF8048D044601790068FFF7AC
:1055B0009BFF41F290102618215875688D4208D142
:1055C000307AC00705D100214FF0040804200025DF
:1055D0000FE041F29C1004EB000801EB81008D42CA
:1055E00008EB800091BFC1F10101691A00254FF05D
:1055F000040801F024FB4046294601F020FB316AF3
:1056000011B1706AC9688847B16A11B1F06AC96896
:10561000884704F108005DF8048BBDE8F040FFF70F
:10562000D9BCB0B502AF88B00446D0E906204369C2
:105630000020009002AD2146284601F08BFE28464E
:10564000FFF770FC204608B0BDE8B04000F072B82B
:10565000F0B503AF4DF804BD066804460579D6E9F8
:1056600000012A4624F04DF8D4E902010A692146D6
:105670009047304629465DF804BBBDE8F040FFF78F
:1056800033BFB0B502AF88B00446D0E90620436905
:10569000012194F82000CDE9001002AD21462846F2
:1056A00001F058FE2846FFF73DFC204608B0BDE853
:1056B000B04000F03FB8F0B503AF2DE900078AB065
:1056C000D0F800A0044686680020A0601EB304F154
:1056D0000C000DF1140808F1080190E82C002CC111
:1056E00094F80490DAE900014A463EF0F3FA0A68B9
:1056F000B0F85803013A0A600AF57E71ADF814005B
:1057000068464246069622F089FE019828B1029921
:1057100043F0C2FD01E094F8049050464946FFF77B
:10572000E3FEE16800200AB0BDE80007BDE8F040F4
:10573000FFF7C5BBD0B502AF0446D0E90201FFF7C1
:10574000BEFB21792068BDE8D040FFF7CDBED4D4A0
:1057500080B56F4602C8DFE801F002020206BDE82C
:105760008040FFF75EBFBDE88040FFF78ABFD0B53D
:1057700002AF23F0B5FC68B10C4690F86F1300221D
:10578000012980F86F2304BF00F51E703AF012FA69
:1057900044F099FBD0BD80B56F4600F5B76000219D
:1057A000BDE8804020F00DBB80B56F4600F5BD60C0
:1057B0000021BDE8804020F004BB80B56F4600F5B5
:1057C000BA600021BDE8804020F0FBBA0168426C5D
:1057D0008A429EBF00210160704780B56F46024B30
:1057E00010460A4638F0D6FD84BE06000168426BBA
:1057F0008A429EBF00210160704780B56F46024B10
:1058000010460A4638F0C6FD84BE0600F0B503AF68
:105810002DE9000F89B0824629480068C0054AD1A9
:105820008946294944F0B6FD0546D0E90046406E58
:1058300045F052FD6866584620F02CFB44F008FA0B
:1058400032D3E9465946484623F087FD45F06AFAC7
:1058500004D0411E684636F0F0FB40B105AC44F080
:1058600052F944F090FD10B144F075FDF9E70020C5
:105870006C46D5E90212914202D12A7CD2070DD0A2
:1058800005EBC101896949B9204659463BF00AFE3A
:105890009DF8000002280BD00120EAE7C0071CBFDA
:1058A00005F150003BF0CCFE43F093FE43F0DFBE29
:1058B000064839F087FA034839F03EFC39F0E6FC37
:1058C00004ED00E03D000000B0AA060050B4060060
:1058D000F0B503AF2DE9000F89B082462848006873
:1058E000C00547D18946284944F054FD0546D0E912
:1058F000004B806A05F130080E460138A862404628
:1059000020F000FB43F0E5FE32D3E946414648462D
:1059100023F0B0FD45F006FA04D0411E684636F08B
:10592000AFFB48B143F0C9FF204628F023FA10B17D
:1059300044F01EFDF8E756460021D5E90C02801A16
:1059400018BF012095F838201043C0070AD0E86B33
:1059500040B9404623F0A5FD01210028EDD10B48B8
:1059600039F030FAC8071CBF05F11C003BF072FE8D
:1059700043F069BE034839F0DFFB39F087FC00BF14
:1059800004ED00E03D000000B0AA060050B406009F
:10599000F0B503AF2DE9000F89B082462B480068AF
:1059A000C0054ED189462B4944F0F4FC0546D0E9A8
:1059B0000046C06C45F090FCE864584620F0B0FA10
:1059C00044F046F936D3E9465946484623F07BFD74
:1059D00045F0A8F904D0411E684636F063FB50B18B
:1059E00005AC44F090F8204628F0DBF918B1816846
:1059F00001398160F7E700206C46D5E90212914237
:105A000002D12A7CD2070FD001EB410105EB8101C5
:105A1000C96949B9204659463BF0FDFD9DF804008F
:105A2000FF280BD00120E8E7C0071CBF05F14000AC
:105A30003BF010FE43F0CDFD43F019BE064839F0AF
:105A4000C1F9034839F078FB39F020FC04ED00E09F
:105A50003D000000B0AA060050B40600F0B503AF48
:105A60002DE9000F89B0824628480068C00547D15B
:105A70008946284944F08EFC0546D0E9004B806DEC
:105A800005F160080E460138A865404620F056FA38
:105A900043F01FFE32D3E9464146484623F041FD1C
:105AA00045F040F904D0411E684636F0C6FA40B1D0
:105AB00043F003FF44F067FC10B144F04CFCF9E7FD
:105AC00056460020D5E91812891A18BF012195F809
:105AD00068201143C9070BD0296F49B940463BF0F4
:105AE000F3FDC1B201200229ECD10B4839F06AF96B
:105AF000C0071CBF05F14C003BF0ACFD43F0A3BD5B
:105B0000034839F019FB39F0C1FB00BF04ED00E098
:105B10003D000000B0AA060050B40600F0B503AF87
:105B20002DE9000F89B0824624480068C0053FD1A6
:105B30008946244944F02EFC44F07EF843F0C9FD28
:105B400031D3E9464146484623F0EBFC45F0EAF8FC
:105B500004D0411E684636F070FA40B143F0ADFE05
:105B600044F011FC10B144F0F6FBF9E75646002072
:105B70006C46D5E91412891A18BF012195F85820EE
:105B80001143C90709D0296E39B9204641463BF077
:105B9000C7FD009848B10120EBE7C0071CBF05F125
:105BA00034003BF04DFD43F04EBD074839F00AF993
:105BB000034839F0C1FA39F069FB00BF04ED00E099
:105BC0003D000000B0AA060050B40600F0B503AFD7
:105BD0002DE9000F89B0824628480068C00548D1E9
:105BE0008946284944F0D6FB0546D0E90046C06FF7
:105BF00045F072FBE867584620F04CF944F028F86D
:105C000030D3E9465946484623F0A0FC45F08AF8CF
:105C100004D0411E684636F010FA40B105AC43F09E
:105C200072FF44F0B0FB10B144F095FBF9E700209F
:105C30006C46D5E90212914202D12A7CD2070BD0E0
:105C400005EBC101896939B92046594623F093FC17
:105C5000009858B10120ECE7C0071CBF05F16800AF
:105C60003BF0EEFC43F0B5FC43F001BD064839F0D3
:105C7000A9F8034839F060FA39F008FB04ED00E0B8
:105C80003D000000B0AA060050B40600F0B503AF16
:105C90002DE9000F89B0824625480068C00541D132
:105CA0008946254944F076FB43F0C6FF43F011FDD9
:105CB00033D3E9464146484623F088FC45F032F8A4
:105CC00004D0411E684636F0B8F940B143F0F5FD06
:105CD00044F059FB10B144F03EFBF9E75646002072
:105CE0006C46D5E91412891A18BF012195F858207D
:105CF0001143C9070BD0296E49B9204641463BF0F4
:105D000055FD9DF80000FF2809D00120E9E7C007F4
:105D10001CBF05F13C003BF09DFC43F094BC0748E0
:105D200039F050F8034839F007FA39F0AFFA00BFFC
:105D300004ED00E03D000000B0AA060050B40600EB
:105D400080B56F4609490968C9050AD1094923F098
:105D50008EFED0F8F020013AC0F8F02044F044F86C
:105D600080BD034839F0E8F939F090FA04ED00E01D
:105D70003D000000A0AA060080B56F4609490968E9
:105D8000C9050AD1094923F072FED0F80021013A71
:105D9000C0F8002144F028F880BD034839F0CCF960
:105DA00039F074FA04ED00E03D000000A0AA0600FE
:105DB00080B56F4608490968C90508D1084923F02C
:105DC00056FE026C013A026444F00EF880BD0348AE
:105DD00039F0B2F939F05AFA04ED00E03D00000064
:105DE000A0AA060080B56F4690F88810032918BF56
:105DF00080BD2C30BDE8804000F08FBE80B56F467E
:105E000090F8C910032918BF80BDBDE8804000F09C
:105E100018B980B56F4690F8C810032918BF80BD27
:105E2000BDE8804000F00DB980B56F4690F8C21013
:105E3000032918BF80BDBDE8804000F002B980B5DD
:105E40006F4690F8C110032918BF80BDBDE880409F
:105E500000F0F7B880B56F4690F89913032918BF82
:105E600080BD4830BDE8804000F0F0BD80B56F4691
:105E700090F89414032918BF80BD2030BDE88040FD
:105E800000F0B4B880B56F4690F8EC10032918BF45
:105E900080BD1830BDE8804000F00CB880B56F467A
:105EA00090F8F810032918BF80BD2430BDE8804069
:105EB00000F000B880B56F4690F84410032908D070
:105EC000042918BF052909D14830BDE8804000F0F9
:105ED00024BE4830BDE88040FFF784BF80BD80B558
:105EE0006F4690F8A610032918BF80BD1C30BDE88E
:105EF000804000F00CB880B56F46817F03390129DE
:105F000088BF80BD2430BDE8804000F000B8D0B527
:105F100002AF044690F82700042818BFD0BD04F152
:105F20003C0000F014FDE06A228ED0E90001BDE8DB
:105F3000D040FFF71CBC80B56F46417C042918BFD8
:105F400080BD4068BDE88040FFF72EB8D0B502AFF5
:105F5000044690F83500032809D0042803D005280A
:105F600018BFD0BD03E004F1380000F07BFC002036
:105F700084F83400D0BDD0B502AF044690F83500A7
:105F8000032804D0042807D0052818BFD0BD04F189
:105F9000380000F009F803E004F1380000F062FC7A
:105FA000002084F83400D0BD80B56F4690F85010C2
:105FB000063907290AD8DFE801F00A0F0904091495
:105FC00009045430BDE8804000F04BB980BD543026
:105FD000BDE88040FFF762BF5430BDE8804000F06C
:105FE0002EB95430BDE8804000F05DBC80B56F46EE
:105FF00090F87810042907D0052918BF80BD7C309F
:10600000BDE8804000F0D8BD8030BDE8804000F0A1
:106010006BB980B56F4690F82210052918BF80BD76
:106020002C30BDE8804000F0CEBB80B56F4690F8C4
:106030002010042918BF80BD2430BDE8804000F046
:1060400092BC80B56F4690F87C10032918BF80BDC4
:10605000BDE88040FFF7E9BF80B56F4690F8FC10BF
:10606000032918BF80BD1030BDE8804000F00BB898
:1060700080B56F4690F8E010032918BF80BDBDE8D9
:10608000804000F00BB880B56F4690F8DE10032911
:1060900018BF80BDBDE8804000F082BD80B56F466E
:1060A00090F8D610032918BF80BDBDE8804000F0ED
:1060B00077BD80B56F4690F82010032907D00429DA
:1060C00018BF80BD2830BDE8804000F096BC383055
:1060D000BDE88040FFF7C0BF80B56F4690F8C010A4
:1060E000032918BF80BD1030BDE8804000F04CBDD2
:1060F00080B56F4690F8E210032918BF80BDBDE857
:10610000804000F062BC80B56F4690F834100329DF
:1061100018BF80BD3830BDE88040FFF77ABFD0B5EA
:1061200002AF0446007A032804D0042804D1606832
:10613000FFF706FE00206072D0BDD0B502AF044666
:10614000807C032804D0042804D12068FFF714FEC3
:106150000020E074D0BDD0B502AF0446C07A032859
:1061600004D0042804D12068FFF706FE0020207325
:10617000D0BDD0B502AF0446C079032804D00428AE
:1061800004D12068FFF714FE0020A071D0BDD0B567
:1061900002AF0446407A011F022903D220683EF074
:1061A000FDFF02E0032818BFD0BD00202072D0BD43
:1061B000D0B502AF044690F80D01011F022904D2A8
:1061C000D4F808013EF0EAFF01E0032802D10020E4
:1061D00084F80C01D0BDD4D4D0B502AF04464FF43E
:1061E0008F50205C033803281AD8DFE800F002142F
:1061F000090F41F2E8102044BDE8D04000F008BC8F
:1062000041F2E8102044FFF77EFF04E041F2E8107D
:106210002044FFF701F92046BDE8D040FFF7C0B9A0
:10622000D0BD80B56F46017B042906BF90F86A1087
:10623000042980BD7030BDE88040FFF764BF80B5A1
:106240006F46017C032907D0042918BF80BD183090
:10625000BDE8804000F061BC1430BDE8804000F033
:1062600000B880B56F46017C042918BF80BD183086
:10627000BDE8804000F051BC80B56F46017F042925
:1062800018BF80BD2030BDE8804000F00CB880B55C
:106290006F4690F85810032918BF80BD0430BDE840
:1062A000804000F02EBC80B56F4690F85C1003294A
:1062B00018BF80BD0830BDE8804000F022BCD0B5DA
:1062C00002AF044690F85C00011F042906D303289E
:1062D00018BFD0BD04F16000FFF72DFEE06B4068F1
:1062E000BDE8D040FFF757BA80B56F46017C03394F
:1062F000052909D8DFE801F0030E08091015183048
:10630000BDE8804000F028B880BD1830BDE880406E
:1063100000F02DB8203000E03030BDE8804000F0C3
:1063200005B81830BDE8804000F09EBB80B56F46D0
:1063300090F84613032918BF80BDBDE8804000F0E7
:1063400085BB80B56F4690F83E13032918BF80BD0A
:10635000BDE8804000F07ABB80B56F4690F84013EE
:10636000032918BF80BDBDE8804000F06FBB80B539
:106370006F4690F84813032918BF80BD0830BDE868
:10638000804000F063BB80B56F4690F84513032949
:1063900018BF80BDBDE8804000F058BB80B56F4697
:1063A00090F84413032918BF80BD0830BDE8804031
:1063B00000F04CBBD0B502AF044690F89703032819
:1063C00004D145F031F8002084F89603D0BD80B5A3
:1063D0006F46017E032918BF80BD1C30BDE8804098
:1063E00000F074BA80B56F4690F82410032938BFC6
:1063F00080BD2830BDE88040FFF791BEB0B502AF48
:1064000090F8D020062A0ED80446082004212546FC
:10641000DFE802F02B0909040E0A040004F1D80099
:1064200000F02CF804E0B0BD04F1D800FFF7DAFF6B
:1064300004F1C00207CAFFF711FB04F1B00207CA5A
:10644000FFF746FA04F1A00207CAFFF7DFF904F1EB
:10645000900207CAFFF762FB04F1800207CAFFF748
:10646000B5FB04F1400548204421225820444368EC
:106470006058816A2868BDE8B040084780B56F461B
:1064800090F8F410032918BF80BD0C30BDE880409F
:1064900000F013BB80B56F46017C03290ED00429A0
:1064A00007D0052918BF80BD1830BDE8804000F036
:1064B0000AB81830BDE8804000F0A5B82030BDE82B
:1064C000804000F0C7B880B56F4690F828100329C7
:1064D00007D0042918BF80BD3030BDE8804000F0EF
:1064E00092B83030BDE8804000F0B4B880B56F4657
:1064F00090F849100339072988BF80BDDFE801F013
:106500000D0408120408060650300CE0503005E077
:106510005030BDE88040FFF7D6BF6030BDE8804016
:1065200000F098B85830BDE8804000F06CB8D4D482
:10653000D0B502AF044690F807010338082820D8E8
:10654000DFE800F0050B050B100808051A0004F53C
:106550008C7009E004F5887001E004F58C7000F09F
:1065600052F803E004F5887000F074F804F160005C
:10657000BDE8D040FFF72AB904F58C7000F050F860
:10658000F4E7D0BD80B56F46017C032907D004290C
:1065900018BF80BD1830BDE8804000F005B8183045
:1065A000BDE8804000F023B880B56F4690F8301009
:1065B0000339052988BF80BDDFE801F00A030F0316
:1065C0000514403000E03830BDE8804000F028B8C5
:1065D0003830BDE88040FFF7ABBF3830BDE88040C1
:1065E000FFF784BF4030BDE8804000F033B880B58D
:1065F0006F4690F8DF13032918BF80BD4830BDE80F
:106600008040FFF7D1BF80B56F46017C052918BFD8
:10661000032904D11830BDE8804000F01BB880BDCC
:1066200080B56F4690F8231003290ED0042907D0B7
:10663000052918BF80BD2830BDE88040FFF756BF50
:106640002830BDE88040FFF7DEBF3030BDE8804035
:1066500000F000B880B56F46017C032918BF80BDEB
:106660001830BDE88040FFF776BDD4D480B56F46C2
:1066700090F880100439062988BF80BDDFE801F05A
:106680000404040404090E008830BDE88040FFF7CC
:1066900058BE8830BDE8804000F005B88830BDE8BD
:1066A000804000F00CB880B56F4690F82C14032998
:1066B00018BF80BD7830BDE8804000F0C7B9D0B5C4
:1066C00002AF044690F8CE03032806D104F1080077
:1066D00000F0BCF9002084F8CD03D0BD80B56F4632
:1066E000C0B2032818BF80BDBDE88040FEF72EBCB5
:1066F000D0B502AF044690F82000042806D1E06926
:106700000078FEF7E9FE002084F82200D0BD80B5B5
:106710006F4690F84010032918BF80BD0C30BDE8CB
:106720008040FFF7E5BF80B56F4690F8441003291D
:1067300018BF80BD1030BDE88040FFF7D9BFD4D46A
:1067400080B56F46017E0339C9B2082988BF80BD74
:10675000034A52F821100844BDE88040FEF7A2BB6E
:10676000F405070080B56F4690F80013032918BFA1
:1067700080BD00F58470BDE88040FFF7FCBB80B5AC
:106780006F4690F8D811032918BF80BD0C30BDE8C2
:106790008040FFF7DBBB80B56F46017B042918BF43
:1067A00080BD8068BDE88040FEF7FEBB80B56F46C7
:1067B00090F8A810032998BF80BDD0F89000BDE8DC
:1067C0008040FEF7F1BB80B56F4690F8B210032908
:1067D00018BF80BD0830BDE88040FFF780BBD4D42F
:1067E00080B56F46817C0E390B2911D8DFE801F0A6
:1067F0000610101110101010060B100B1830BDE809
:106800008040FFF7D3BF1430BDE88040FFF7C3BF1F
:1068100080BD1430BDE88040FFF76DBB80B56F468A
:10682000017B032918BF80BD0430BDE8804000F023
:1068300083B8D0B502AF044690F83100052809D0DE
:1068400006280ED104F1480000F081F8A06BA28F59
:1068500042F0B5FFD4E9000142F01EFD002084F8AB
:106860003000D0BD80B56F4690F82C100339052953
:1068700018D8DFE801F00317170D08123030BDE813
:106880008040FFF7F9BC3030BDE88040FFF7E9BC3D
:106890003030BDE88040FFF706BD3030BDE88040B5
:1068A00000F001B880BD80B56F4690F860100529F2
:1068B00007D0062918BF80BD6430BDE88040FFF7CF
:1068C000F2BC7430BDE88040FFF7DCBAD0B502AF4F
:1068D000044690F83D00092807D80121814011F4B1
:1068E0006E7F03D0002084F83C00D0BD0628FCD188
:1068F00004F14000FFF7B6FFF4E780B56F4690F86B
:106900002D1041B1032918BF80BDD0E90601BDE8B3
:106910008040FEF7D4BAD0E90001BDE8804042F0E3
:10692000BBBC80B56F46017A052918BF80BD103009
:10693000BDE88040FEF74ABD80B56F464179032926
:1069400018BF80BD0430BDE8804039F089B880B5FB
:106950006F4690F82510042918BF80BD2830BDE887
:106960008040FEF709BE80B56F4690F8441039B1FB
:10697000032918BF80BD1430BDE88040FFF7BDBFBC
:10698000D0E90101BDE8804042F086BCD0B502AF3D
:10699000044690F88800032801D028B1D0BD04F146
:1069A0004000FFF7E0FF18342046BDE8D040FEF776
:1069B00082BE80B56F4690F89810032918BF80BD3D
:1069C0005030BDE88040FFF7CEBF80B56F4690F8ED
:1069D000CE10032918BF80BD0830BDE8804000F00C
:1069E000DFB880B56F4690F8B011032918BF80BD9D
:1069F000E030BDE8804000F0D3B880B56F4690F835
:106A0000F010032918BF80BDBDE88040FFF730BB00
:106A1000D0B502AF044690F82900032803D004281B
:106A200018BFD0BD03E004F12C00FFF79CFF00204D
:106A300084F82800D0BD80B56F4690F83011032946
:106A400018BF80BDBDE88040FFF7A1BB80B56F4691
:106A500090F83013032918BF80BD00F58470BDE89D
:106A60008040FFF7A5BBD4D480B56F46417B033986
:106A70000C2988BF80BDDFE801F0070C0707070C71
:106A80000C0C0C071B1116001030BDE88040FFF7FE
:106A900058BC1030BDE88040FFF780BC1030BDE826
:106AA0008040FFF787BC2030BDE88040FFF76BBC1B
:106AB0003030BDE88040FFF7CDB980B56F4690F823
:106AC000E410032918BF80BD2030BDE88040FFF7E7
:106AD00003BB80B56F4690F89410032918BF80BDA2
