:1010000008FC0320011100004327020075010400C1
:10101000432702004327020043270200000000008C
:101020000000000000000000000000004327020054
:10103000432702000000000043270200432702006C
:1010400059110000C111000043270200432702008C
:101050004327020043270200E92B02004327020036
:101060004512000043270200432702003912000006
:1010700043270200CD11000043270200432702004E
:1010800043270200C12C020043270200432702002D
:10109000AD1100004327020043270200432702004E
:1010A0004327020043270200432702004327020090
:1010B0004327020043270200000000000000000058
:1010C0004327020043270200432702004327020070
:1010D0004327020043270200432702005112000069
:1010E00043270200432702004327020000000000BC
:1010F0000000000043270200000000004327020018
:1011000021F022FB0E480F490022814201D004C089
:10111000FBE70D480D490E4A814202D008CA08C0BB
:10112000FAE70C484FF47001026842EA01020260DB
:10113000BFF34F8FBFF36F8F1FF073FB00DE000014
:10114000D821002048A8002008000020D421002039
:10115000105E040088ED00E0B0B502AF3AF082FB0B
:10116000104C206828B1002020600F48183021F072
:10117000E7FF606850B10C4D0020606005F1180079
:1011800021F0DEFF05F1280021F0DAFFA06838B178
:101190000020A06004482830BDE8B04021F0D0BF56
:1011A000B0BD00BF1C0100402094002080B56F46F8
:1011B0000248BDE8804021F0C3BF00BF1086002078
:1011C00080B56F46BDE880403BF0DEBEF0B503AFB2
:1011D0004DF804BD154E0020306022F099FE144DEC
:1011E0000446286DF0B94FF0FF302865E86D78B1FE
:1011F000296E88420CD0D6F808140170D5E9170181
:101200000130E865884204BF05F1540021F06CFF0D
:10121000286D0130286520465DF804BBBDE8F0402C
:1012200022F0ACBE034821F0F5F900BF00D1004028
:1012300020940020443F040080B56F46BDE8804004
:101240003CF03EBD80B56F46BDE880403BF090BEAF
:10125000F0B503AF4DF8048D84B0344C206858B11C
:10126000334D0120C4F8080205F1180021F068FF91
:1012700005F1200021F064FFE06D38B14FF400006B
:10128000C4F808022A48203021F05AFFA06A38B179
:101290004FF48060C4F808022548203021F050FF48
:1012A000A06D28B10020A0652148183021F048FF2A
:1012B000206EB8B300202066D4F86C631C48C4F8D4
:1012C0006C63BFF35F8F50E8041F314340E80412A2
:1012D000002AF8D10020BFF35F8F8DF80C000720A3
:1012E0000DF1040802900120019040461DF012FA11
:1012F000012817D101F01F040D4626FA04F0C0079B
:1013000004D028461CF0DEF921F01AFF84F010000A
:1013100026FA00F0C007E8D028461CF02BFA21F08E
:101320000FFFE2E704B026F082BB00BF007102406D
:1013300020940020F0B503AF2DE9000F95B0D0E95F
:101340000149834608468A46A4EB090525F05CFC62
:10135000854201D200200EE25046DBF8005025F015
:1013600053FC00EB0901DFF8386448462A4623465F
:1013700000961CF0B9F99AF80020FF2A1FD19AF8BC
:101380000420FF2A3ED126F02CFFBAF808000128DD
:101390000AA814BF1B211D2123F006FEC0B202289B
:1013A00040F0E081BAF80A100AA823F01DFEC0B28E
:1013B000022840F0D781DAE903120AA851E1B2F11C
:1013C0000A044FF0000398BF1C46002C35D0012CB6
:1013D00048D126F006FF0AA8522123F0E5FDC0B24D
:1013E000022840F0BF81BAF80C100AA823F0FCFDD7
:1013F000C0B2022840F0B681DAE901120AA824F04E
:10140000EFFD35E0CDE9030100200590DFE812F0A3
:101410000900C8005E00A4003200F2001E01C500F1
:101420002C0103A8032123F0BFFDC0B2022840F025
:101430009981BAF8061003A88EE10AAC0A2A0BC4F7
:1014400000F2A681DFE812F00B0018013501380127
:101450006C014A017601A401A401A40115010AA8A6
:1014600010210BE126F0BDFE0AA81E2123F09CFDF1
:10147000C0B277E103A8092123F096FDC0B202288B
:1014800040F07081DAF8144003A8214623F08CFD67
:10149000C0B2022840F066810AF10802139426F0D7
:1014A00001FC0AA8294625F077FA9DF82800FF28B4
:1014B00040F0578126F0C2FBC0B2022840F05281B2
:1014C00026F0C3FDC0B20228EBD04BE103A80521F2
:1014D00023F06AFDC0B2022840F044819AF814401B
:1014E00003A8214623F060FDC0B2022840F03A81F3
:1014F0000AF108028DF824400DF1400807CA06AB36
:1015000007C30AA80430029003AC0AA806A925F074
:1015100099FABDF82800002840F023810298A446DB
:10152000BDF82A10424678C878C264460078107028
:10153000604623F059FDC0B2022840F013814046B6
:1015400023F028FD26F042FD20461A4624F048FDEF
:10155000C0B20228D9D005E103A8012123F024FD5F
:10156000C0B2022840F0FE809AF8051003A823F0CC
:101570001BFDC0B2022840F0F580BAF8081003A89D
:1015800023F032FDC0B2022840F0EC80DDE90430E7
:10159000834240F0F3800020E4E003A80D2157E0EF
:1015A00003A8072123F000FDC0B2022840F0DA8032
:1015B0000AF108020DF1280826F074FB404629467E
:1015C00024F03AFF9DF82800FF2840F0CA80BDF8BB
:1015D0002A103046BDF82C4023F006FDC0B2022888
:1015E00040F0C0803046214623F0FEFCC0B2022805
:1015F000E4D0B7E003A8112123F0D6FCC0B2022842
:1016000040F0B080DAF8144003A8214623F0CCFC67
:10161000C0B2022840F0A6800AF10802139426F016
:1016200041FB0AA8294625F0B7F99DF82800FF28B4
:1016300040F0978026F002FBC0B2022840F0928072
:1016400026F003FDC0B20228EBD08BE003A80B21EB
:1016500023F0AAFCC0B2022840F08480DAE902122A
:1016600003A824F0BDFC79E003A8132123F09CFC1F
:1016700074E00AA80C215FE00AA8082123F094FC7A
:10168000C0B202286ED1BAF812100AA823F0ACFC3E
:10169000C0B2022866D1BAF814100AA823F0A4FC3C
:1016A000C0B202285ED10AF101010AA824F0EEFEC0
:1016B00054E00AA80A2135E00AA8122123F074FC9C
:1016C000C0B202284ED1BAF802100AA823F08CFC4E
:1016D000C0B2022846D1DAE901126EE60AA8062154
:1016E00023F062FCC0B202283CD1BAF802100AA86A
:1016F00023F07AFCC0B2022834D1BAF804100AA848
:1017000023F072FCC0B202282CD1BAF806100AA845
:1017100023F06AFCC0B2022824D1DAE902124CE6B6
:101720000AA8022123F040FCC0B202281AD1BAF85C
:10173000021010E00AA8042123F036FCC0B20228EF
:1017400010D1BAF802100AA823F04EFCC0B2022849
:1017500008D1BAF804100AA823F046FCC0B2022847
:1017600000D10220022806D1504625F04DFA484407
:10177000CBF80800022015B026F06DBB039A411C7F
:101780009AF8064000961BF0AFFF31B10470E8E70D
:1017900004480F21044A20F040FE044A26F004F8D1
:1017A000FC460400B84C0400D84C0400884D0400EA
:1017B000F0B503AF4DF804BD84B026F083FA0429D8
:1017C0000CD32268061D094926F086F8CDE90201EE
:1017D00002A8294604221BF097FF08B1002001E06F
:1017E0000220A66004B026F00FB900BFB01C0400B0
:1017F000F0B503AF4DF804BD84B026F063FA0229BA
:101800000CD32268861C094926F066F8CDE902014E
:1018100002A8294602221BF077FF08B1002001E050
:101820000220A66004B026F0EFB800BFB01C040090
:1018300080B56F460021017301490131016080BD0F
:101840002094002080B56F4641F6D4328150104478
:101850000021417180BDD4D4E0B502AFDFF880C073
:101860000446002546F2901040F2011285422FD026
:101870002B18654405F1180656E8001F21B946E803
:1018800000210029F8D103E0BFF32F8F1D46EDE7BB
:101890001448686205F128002146FFF7D3FF20466F
:1018A000294621F057F90025BFF35F8F54E8000F58
:1018B00044E800510029F9D1BFF35F8F30B1C66908
:1018C000C5614576416A88473046F7E720BFEBE7B8
:1018D00005487A1E00902B210448054B20F0E9FEB4
:1018E000402200200DA80100B02404004548040057
:1018F00064300400F0B503AF4DF8048D94B026F0C9
:1019000081FC0BAE304604F0CDFA9DF82C00FF2888
:1019100003D040F6032020801BE0A7F14600311DD4
:10192000851C25F088FF02A82946861C25F038FF73
:1019300010AD314625F07FFF26F0A0FB2078FF2870
:1019400007D0054820F028FF204624F007FA21F0B0
:1019500069F814B026F06BB868000000F0B503AF6A
:101960002DE9000FCDB0FE68D7F80880CDE91D2025
:1019700056F870AFD8F84400C346CDF8AB00C14666
:101980005BF8410FD6F808E02A90D8F83D00129392
:1019900016917268F568D6F810C07369B169F46978
:1019A000CDF8CB0059F83A0F2192CDF870E01B9595
:1019B000CDF868C0199320911F94329032A88DE819
:1019C000120454460DF1F80ACDE9032E624605953E
:1019D0002AA9CDE90610A6F1300150461AF09CFF65
:1019E00022A89AE82E002EC0429811904398109099
:1019F00044980F9045980E90306A1890706A17902E
:101A000008F14E00D6E90AA525F010FD20F07F4030
:101A1000CDE90A0B209800901F98CDE90104219888
:101A200003901C98CDE908A5049005461B98CDF8B5
:101A300054B005908346189806901798CDF84C90AE
:101A4000CDF830901494079026A822A91A9A199BD1
:101A5000914698461AF086FE1D98102804D126A8B3
:101A600016991CF00CFC30B11E99FF20087040F64E
:101A7000033088805EE0D6E90C40D7F808A01D90BE
:101A8000B06B18900AF14800F66B25F0CFFC20F0FF
:101A90007F400A9013980B9015980C902098049012
:101AA0001F981899CDE905041D98CDE90816CDE9D0
:101AB000005BCDE9029807902AA822A9149A219BDD
:101AC0001AF050FEDDE92C01DDE92A23CDE9000101
:101AD0003EAC204604F084FA9DF8F850FF2D0AD061
:101AE000611C32AC25F0F0FE1E9E214626F0A5F9C1
:101AF0003571FF201DE00DF1C809211D09F1030515
:101B000025F099FE2EAE294625F04AFE129C0DF1D5
:101B1000F8083246404621461BF09FFE9DF8F850DB
:101B2000FF2D0AD01E9E08F1010126F086F9FF2044
:101B3000357130704DB025F0EFBE9AF838000223B1
:101B40009AF84A100DF1F8089AF85020022801F08E
:101B5000030008BF012302F0030180F0010081F0BF
:101B6000010108430F990091B0FA80F00E994009E5
:101B7000CDE901132146DDE91032039040461BF008
:101B80009FFE9DF82161022E09D198E86E0048461B
:101B90006EC01E9E99E83E00301D3EC0A9E732ACE3
:101BA0003EA9292225F0DAFEBDF826012146ADF82E
:101BB00030012922DDF822014B903EAD25F0CBFE0D
:101BC0005046294629223EF035F84B981E99CAF80E
:101BD0002A00BDF83001AAF82E000A208AF82960F0
:101BE0000870A7E7102B40F08080F0B503AF2DE917
:101BF000000F9DB009908846F868137800F16006E0
:101C0000D2F80100D2F80540D2F8095043EA002C7E
:101C100039692B0243EA1463240244EA1060D47B3E
:101C2000B2F80D20C6E900C042EA0442120242EABC
:101C30001562C6E9023218A802F042FF06F1300A26
:101C4000189806F11003F66B1A9A08F07F04199998
:101C5000DDF86CB0069283E80708A4F14002079112
:101C6000314608909AE8200650463DF0CDFFCDF869
:101C7000148080462846494622463DF0C5FFC4F1FF
:101C80004002814650463146D7F80CA03EF089F814
:101C90000AF1200103910699402CCDE901BA009187
:101CA00038BF49EA00082B48002C08BFA84660F35B
:101CB0005F08CDF810800AA8DDE907321AF0B6FDFA
:101CC000DDE90C01DDE90A23CDE9000118AC20466D
:101CD00004F0C2F89DF86050FF2D0CD0611C0FACD1
:101CE00025F0F2FD099E21461FE0FF21017040F61C
:101CF000032181807047DDF814900FA8C61C211DB8
:101D00001022D7F8088025F01BFE14AD314625F0CF
:101D100092FD18AC41462A4620461BF09EFD9DF8D8
:101D20006050FF2D09D0099E611C26F086F8FF2027
:101D3000357130701DB025F0EFBD099C5146B022C1
:101D400004F108003DF0AAFE0620C4F804902070BB
:101D5000F0E700BFC0FFFF7FF0B503AF4DF8048D83
:101D600094B026F04FFA0BAE304604F09BF89DF885
:101D70002C00FF2803D040F6032020801BE0A7F1B1
:101D80004600311D851C25F056FD02A82946861CFB
:101D900025F006FD10AD314625F04DFD26F06EF91B
:101DA0002078FF2807D0054820F0F6FC204623F0D5
:101DB000D5FF20F037FE14B025F039BE67000000D3
:101DC000F0B503AF2DE9000F9FB08246880701D41C
:101DD00011206DE0D56B934605F108030FCB25F07C
:101DE00055FF11BF8DE80F000020CDE90200CDE9BD
:101DF000000016AE6946304604F022F99DF85840BE
:101E0000FF2C3ED111A8311D00F10308102226F04D
:101E1000BCF80AAE414625F0C3FC0DF158095946FD
:101E2000324648461BF019FD9DF85840FF2C30D132
:101E30002868C10741D06968000A0A0E8DF83E2063
:101E40000A0A40EA0160ADF83C200E9016AE0EA9D9
:101E5000304604F043F99DF85840FF2C11D1311D54
:101E6000404625F09FFD1BAE414625F099FC05A894
:101E7000594632461BF0F1FC9DF81440FF2CA7D0C8
:101E80000DE011AD711C132225F065FD05A8294652
:101E900002E005A809F10101013025F04EFD05A978
:101EA0000AF10500013125F048FDFF208AF80440C1
:101EB0008AF800001FB025F02FBD0524EFE7F0B52C
:101EC00003AF2DE9000F8BB0044602A80E46002197
:101ED000924603F097FF9DF80800FF281ED09DF85A
:101EE0000B10E170BDF809109DF81B20DDE903C55A
:101EF000A4F80110BDF81910059E9DF81830ADF832
:101F00001C108DF81E202374C4E901C5E660A4F8F6
:101F10001110E27420700BB025F0FEBC9DF818B0D3
:101F2000059DBDF81900ADF8040059469DF81B0049
:101F30008DF806002846DDE9038918F0B5FC024655
:101F40000B4606F1480011461A4625F085FBC0B243
:101F500002281CD1BDF804005146ADF829009DF8B7
:101F600006008DF828B00995CDE907898DF82B007A
:101F700002AD07AA28461BF070FC9DF80860FF2EF2
:101F800010D0601C691C25F0D8FC2670C3E7052022
:101F90004946207040460BB0BDE8000FBDE8F04058
:101FA00025F030BBFF20B5E7F0B503AF2DE9000FFA
:101FB0009FB00D46B968069314460B901AA802F01C
:101FC0007FFD1A9804F170061C9A05F07F0504F154
:101FD000900B1B991D9B0FC60892A5F140020A9019
:101FE0009BE8400E50460991594607933DF00CFE80
:101FF0008046304649462A463DF006FEC5F140027D
:102000008146504659463DF0CCFE04F12001402D5A
:10201000CDE90241079901910899009138BF49EA39
:1020200000082548002D08BFB04660F35F08CDF8D2
:1020300010800CA8DDE909321AF0F8FBDDE90E0189
:10204000DDE90C23CDE900011AAC204603F004FFC2
:102050009DF86850FF2D0BD0611C11AC25F034FCAD
:102060000B9E21461322701C3DF0E4FD35701FE0ED
:10207000DDF82C8011A8C51C211D25F0DCFB16AE57
:10208000294625F08DFB1AAC0699324620461BF0F6
:10209000E4FB9DF86850FF2D07D008F10100611C9A
:1020A00025F04BFC88F8005002E0FF2088F8000083
:1020B0001FB025F031BC00BFC0FFFF7FF0B503AFFC
:1020C0002DE9000FB5B016461D46CDE91210B046F9
:1020D000D6F83D000DF1A00C55F8702FCDF8A300F7
:1020E00058F83A0F289056F8410FD5F808906B68C9
:1020F000D5F80CA0D5F810E0D5F814B0AC69E969B2
:102100002C90D6F8030014921593CDF86C90CDF86E
:1021100068A0CDF864E0CDF860B017941691CDF8C2
:10212000B3002CA88DE800460DF18009CDE9051C0F
:10213000A5F1300107904846CDE903B41AF0ECFB55
:102140001CA899E81E0005F1300B1EC024981190C0
:102150002598109026980F9027980E90F01D9BE8D8
:10216000100AD5F83CA025F061F920F07F40CDE9B8
:102170000A08DDE91A10CDE908BA0C96CDE900018C
:10218000199802901898039017980490169805A92A
:1021900081E8110228A81CA9DDE914231AF0E2FA4B
:1021A000DDE928230DF18009DDE92A01CDE90001EF
:1021B000484603F015FF9DF88060FF2E0ED02CAC32
:1021C00009F1010125F080FB139D21461322681DB2
:1021D0003DF030FDFF202E71287052E0DDF84C807C
:1021E0002CA8C61C09F1040125F0DAFA31AC3146FD
:1021F00025F06EFB0DF180091299224648461BF02E
:102200002CFB9DF88040FF2C0BD008F1050009F154
:10221000010125F092FBFF2088F8044088F80000B7
:102220002FE005F1200B464608F11804ED6A9BE803
:10223000000D09F107001CA925F0B4FB0B2049464D
:1022400006F8010B172225F07BFB199804F12C01ED
:102250002062189860621798A0621698E56381E87A
:10226000010D11982060109860600F98A0600E9882
:10227000E06014982061159860611B98A0611A981D
:10228000E06135B025F048BBF0B503AF2DE9000F94
:102290008BB004460220ADF80A0001208DF808003A
:1022A0001E462C4888468DF80920039007A825F083
:1022B0005FF9079DEDB3DDE9089BFB20D7F808A087
:1022C000CDE904B00020069004A803A9FFF770FA36
:1022D000C0B202281CD104A802A9FFF769FAC0B253
:1022E000022815D1DDE90530191A02290ED3049A06
:1022F00019490091811C01911BF0F6F9CDE9070104
:1023000007A8314602221BF0FFF9B8B1042004E00F
:10231000C0074FF0040018BF0D200121207061702C
:10232000284649460BB0BDE8000FBDE8F04025F057
:1023300069B9162020700BB025F0EEBA019851460D
:102340000A9007A880E8200A07AB2046424619F009
:10235000F7FCF0E706000500B01C040091F86733B5
:1023600001F51472012B12BF91F8561202F58C720E
:102370000121A0B1D0B502AF9388B0F81541126821
:102380006340D0F8114162401A4390F81731594028
:10239000C90718BF0020002A18BF0020D0BD0020A8
:1023A0007047D4D4F0B503AF2DE9000794B002AD67
:1023B00088468146482125F09AFCD8F80C404826EA
:1023C000334B2946482C38BF2646304648221BF05E
:1023D0003AFA0546D8F808008A4621461BF0D4F898
:1023E0008E424FD803462B4800901A462846514645
:1023F000334625F066F9022C09D22D4820F0CCF99D
:10240000304620F0BBF920F00DFB0A2019E09DF8C2
:102410000800441EE5B20E2D12D22046A6F1010A94
:1024200018F0B8FC80B2824519D109F1010002A967
:1024300048223DF0FFFBC9F84C6089F8004008E0F5
:10244000072089F80500032089F80400FF2089F897
:10245000000025F0D0FC14B0BDE80007F0BD0E4828
:1024600020F09AF90D480E4CA0470E48A0470E48A0
:102470000E4950F8250051F825101FF0F3F8002000
:10248000A047C0E70B4B0A46002031461FF086FFED
:10249000E01D0400001E04005D0000000B000000B1
:1024A0004F2702005201000024510400EC500400A8
:1024B0005E000000F01D0400F0B503AF2DE9000F31
:1024C00095B01C788046FF2C15D043481D46164613
:1024D0008A4693F801B020F05FF9404820F037F9C0
:1024E000284623F049FC032C18BF4FF0080B20F0BE
:1024F00099FA192C05D1FF2088F8000015B025F0B5
:102500000BBAB6F858430FA825F032F80F980028F8
:1025100043D0A7F143000094C51C0FA90C2225F05D
:102520001AFAA7F152002946C61C0C2225F008FA17
:1025300012AD31460C2225F00EFA02A829460422DB
:1025400018F0C4F99DF80800DDE903549DF81860FF
:10255000FF28DDF8149021D14846314618F0A4F93F
:10256000B9B380F800B0304618F096F9CDE9049080
:102570004046CDE9025402AB009A514619F0E0FB07
:1025800098F80000FF28B6D0154820F005F940461D
:1025900023F0E4FB20F046FAB0E716209DF80B107C
:1025A00088F80310BDF809109DF81B20A8F8011049
:1025B000BDF81910ADF804108DF8062088F81060E9
:1025C000C8E90154C8F80C90A8F8111088F8132035
:1025D00092E7044A25F0E8F85600000047010000A1
:1025E0005B000000201E0400F0B503AF4DF8048D21
:1025F00092B00DF104080D460646114640464422AD
:102600001C463DF023FBB868294600903046424600
:10261000234600F005F812B05DF8048BF0BDD4D469
:10262000F0B503AF2DE9000FADF27C7D89460DF5C5
:102630008A6199F8C86001F1600509F1780A9B4642
:102640009046022E199063D11AAE4946C8223046F0
:102650003DF024FA15209DF8681089F804000E203A
:1026600089F800000C2998F8000000F201830DF5AC
:102670008A6202F17004DFE811F00D00A5015E012D
:102680004201E8002701F701FB029202E302FB028C
:10269000C802C500FF2804BF98F80C10002900F0FC
:1026A000D086411E5D460329C0F0D582002840F047
:1026B000DB8298F80100002800F054870DF5BB6814
:1026C000294640461BF0F2F99DF80166FF2E01F005
:1026D000FF860DF58A640DF5BB61292225F03EF9D0
:1026E000DDF80206214683902922BDF80606ADF8E2
:1026F000100209F1D0003DF09DFA8398C9F8FA0064
:10270000BDF8100289F8F960A9F8FE0000F0D8BE03
:10271000AAAC4946C82225F072FD15209DF8A812E2
:1027200089F80400122089F800000F2998F80000A9
:1027300000F267851AAA02F16003DFE811F01000C9
:102740006903C10255048704620532038703CB0382
:1027500062055B05E20462056205A6023D03FF28EF
:1027600004BF98F80C200A2A40F04B85D8F80800DE
:10277000002802F0588199F819010C22D8F80410A9
:10278000032808BF0822DBF8383093F8700393F869
:102790007133024489F81A210C7813B1012189F8A8
:1027A000181158B199F81C0199F81D1140F0030057
:1027B00089F81C0141F0030189F81D111AA8594636
:1027C0001BF0C6F9DDF864809DF89100022807D05F
:1027D000600741F14A819DF89000022801F045818F
:1027E0000DF58A6425F0FDFA9DF85064FF2E01F086
:1027F000A4800DF5BB60611C25F015F88DF8DC6533
:1028000001F04AB9FF2804BF98F80C20082A40F0CC
:102810001E82D8F80820002A02F00381D8F80400AC
:102820005D460478022C80F0AF86062A42F2EB80E7
:1028300050F8011FC9F81111818825F06AFB00F0DA
:10284000498625F063FA00F045BEFF2804BF98F8DA
:102850000C10022900F0E1855D46042800F20C828C
:10286000DFE810F03B06F901F90105003B060DF524
:10287000BB6A0DF5BB6009F1180100F190045046E8
:1028800090223DF00BF90DF58A6B711C1122584610
:102890003DF0D0F90026D8F80400C4E90006C4E9E8
:1028A00004069DF85004C4E90266C007C4E9066640
:1028B00001F0B483B8680BF10102CDE9005A0021A0
:1028C0000290AAA8102316E0FF2804BF98F80C2055
:1028D000022A40F0BC810DF5BB6409F10801B02269
:1028E00025F08DFCB8685D46D8E901231B99CDE938
:1028F00000B40290AAA8FFF775F901F09EBD042864
:1029000000F28F865D46DFE810F0E80505006806F6
:10291000A601E8059DF86900002801F0108006F185
:10292000180009F1D00110222B46CDE90010B11C8E
:10293000AAA800F0FBBDFF2804BF98F80C20032ACA
:1029400040F08581CDF860B009F108014CA87022F3
:102950003DF0A4F8DAE9006B09F19801DAE9025ACE
:10296000E4A825F029F825F02AF940F03C86D8F8AB
:102970000400324617955B46D0F809101691D0F83E
:1029800005101591D0F80110149101781391C17BB5
:10299000B0F80D001291CDE9005A0DF5BB651899FC
:1029A00011902846FEF7A6FF9DF8D885B8F1FF0FD5
:1029B00001F0A081AAA8691C24F035FF8DF8AC8233
:1029C00001F027BCFF2804BF98F80C200B2A40F028
:1029D0003E81D8E901120DF56478404624F0E2FC0E
:1029E000DBF82C10DCAC24F0AEFFDBF830104CAE82
:1029F000402224F0A5FF0DF5BB6A2146424633462E
:102A0000504624F0FDFB9DF8D805C00700F0F18585
:102A10009DF8DB050AF106018DF82E021222BDF8A1
:102A2000D905CDF860B09DF8DCB59DF8DD85ADF831
:102A30002C0286A83DF0FEF80AF1180083A90DF5D6
:102A4000BB640CC80CC1007808704CA9204603F088
:102A50004FFA9DF8D805FF2801F09A810A20032437
:102A60008DF8310201F0B7B9FF2804BF98F80C20A7
:102A7000032A40F0EC8009F108010DF58A6025F089
:102A800076F825F09CF840F0BB85D8F804001B9E32
:102A90001296D0F8011006F07F060278CDF860B0EB
:102AA00042EA01222A621792D0F80930D0F80520B4
:102AB0001C02D5E90CAB44EA1264120242EA11612D
:102AC000AC626962C6F140021691C17BB0F80D009C
:102AD000159440EA0140D5E90E840002214640EAFF
:102AE00013601490E86240463DF05BF91390504645
:102AF000594632463DF088F8A6F1400283464046EA
:102B000021463DF081F81399402E38BF4BEA010071
:102B1000EF49002E08BF50460DF58A6261F35F0051
:102B2000159B02F120010093149BCDE90131CDE901
:102B30000320DCA8DDE9163219F078FED5E900AEF5
:102B4000DDE9DCC38EEA0301D5E9028BDDE9DE466F
:102B50008BEA060008438AEA0C0288EA0401114362
:102B6000084340F0FE86D5E904230DF5BB64D5E9A2
:102B70000601CDE90001204603F094F99DF8D865DF
:102B8000FF2E01F02B83611C4CAC24F09DFEAAA803
:102B9000214624F048FE8DF8AC6201F03ABBFF28D4
:102BA00004BF98F80C20032A51D109F108010DF552
:102BB0008A6024F0DCFF25F002F840F02985D8F87F
:102BC000040004F1100524F0DBFE0EC5B968E061D5
:102BD000204601F075FFD4E902015D46D4E90023E7
:102BE0000DF5BB64CDE9000159462046FEF782FE93
:102BF0009DF8D865FF2E01F0F380AAA8611C24F08F
:102C000012FE8DF8AC6201F015BCFF2804BF98F8E5
:102C10000C20072A1BD124F0D2FF40F0268599F81A
:102C2000F9005D46022808D0D8F804000AF16804CB
:102C300024F0A6FE0EC4CAF874000C2001F0FBBB01
:102C4000FF2804BF98F80C200C2A00F06484421E70
:102C50005D46032A05D2AAA81AA925F073FA01F045
:102C6000ECBB002800F02684042805D100F035BC18
:102C70005D46FF2840F0148498F80C00042800F00A
:102C8000B9830D28E7D000F028BCFF2804BF98F8CE
:102C90000C20072A40F0B58224F091FF40F07285A5
:102CA00099F8F900022808D0D8F804000AF168045D
:102CB00024F066FE0EC4CAF874000F2000F035BF81
:102CC000FF2804BF98F80C200B2A40F09A82179333
:102CD000DCAE211D202224F033FE0DF5647A09F1CB
:102CE0002401402225F04BF9D8E901124CAC2046D2
:102CF00024F058FB0DF58A65314622465346284696
:102D000024F07EFA9DF85004C00700F03F859DF83E
:102D10005304A91D8DF8AA001222BDF85104ADF884
:102D2000A800BDF854441AAE06F145003CF082FFFD
:102D300006F1570005F1180109223CF07BFF06F16E
:102D400020004CA924F038FE09F12401304624F07B
:102D500033FE17985021ADF8AB403CF048FE99F88F
:102D60000801811E38BF0221C9B2022901F0CD80BD
:102D7000DDF86480032941F0E7800F200DF58A65B6
:102D800025F0AFF8FAAE24F0ACFF9DF8E843FF2C35
:102D900041F00883E81D1AA924F023FE092001F060
:102DA000B7BB98F80C10FF2808BF022900F09A83DF
:102DB000FF2800F02A825EE2FF2804BF98F80C206A
:102DC000082A40F01E82D8F80820002A01F02D863B
:102DD000D8F804000478022C80F01085062A41F20D
:102DE000148650F8011F0DF58A66C9F81111818803
:102DF000DDF8648025F08DF801D024F087FF99F884
:102E000022110DF5BB605A46FEF7DAFF00F093BEC3
:102E1000FF2840F0D98298F80C100A2900F0BB84F2
:102E2000012940F0F281D8E901120DF58A6024F001
:102E300023FC9DF85004022840F0AD85DA460A20B4
:102E4000DDF864800DF58A6601F01AB9FF2804BF29
:102E500098F80C20022A40F0D48109F108010DF500
:102E60008A6060223CF01AFEDAE9004609F1880126
:102E7000DAE9025A1AA830223CF0DCFE24F09FFE68
:102E800040F0C584D8F804002246AB993346179128
:102E900001681691416815918168C068149159467E
:102EA0001390CDE9005A4CA8FEF756FF9DF83081EB
:102EB000B8F1FF0F00F0F8870DF5BB604CA90530A5
:102EC000013124F03AFD8DF8DC8500F02DBE00BF05
:102ED000C0FFFF7FFF2804BF98F80C20032A40F0B2
:102EE000908109F108010DF58A6024F040FE24F07C
:102EF00066FE40F05B84D5E90CA1AB98CDF860B0DC
:102F0000179100F07F04D5E90EB1A4F14002CDE99C
:102F10001501D8F8046058463CF076FE17998046B3
:102F2000504622463CF070FE1699C4F140021790BC
:102F300058463CF036FFF3680DF58A61B268D6F862
:102F400000B0D6F804C0039120310291402C1693B2
:102F5000CDE90023634614925A46179938BF41EAD7
:102F60000008DB48002C08BFD04660F35F08CDF8AE
:102F700010801AA8E04619F059FCD5E902E3DDE912
:102F80001A42D5E900C1DDE91C605140584084EA8D
:102F90000C02084386EA0E011143084340F00785FE
:102FA000C5E908B81599DDF860B014981329A8622E
:102FB0001698E86200F0D182B8684C1C00901AADF7
:102FC0000DF58A62214628465B46FEF7EDFF9DF827
:102FD00068600DF5BB60DDF86480FF2E01F087822C
:102FE0000530691C00F004BCFF2804BF98F80C20D1
:102FF000022A40F0068109F108011AA8B0221C46F5
:103000003CF04CFD24F0DBFD40F00184D8F80400D6
:1030100024F0B6FC84E80E00B968E06004F110000A
:1030200001F04EFDD4E90601D4E904230DF58A64CC
:1030300024F007FF9DF85064FF2E40F06E85E01DE0
:103040001AA924F0CEFC042000F048BEFF2804BFDB
:1030500098F80C20032A40F0D4801AAD09F1080139
:10306000B0221C4625F0C5F824F0A9FD40F0CF831E
:10307000D8F8040005F12003CDF860B0C26881687B
:10308000D0F800A0D0F804800020CDE916328B469D
:103090008DE82E00524643460490E4A819F0C6FB82
:1030A000D4E902E3DDE9E452D4E900C1DDE9E660F8
:1030B000514058408CEA050208438EEA060111434C
:1030C000084340F07D8404F11003179DC4E908A86B
:1030D0000FCBC4F828B0E5621AAC0094169CCDE979
:1030E000014ACDE9038B059519F0DEFBDDF860B0F0
:1030F00099F80811022940F0CA870DF5BB601AAB98
:1031000065E2FF2804BF98F80C200C2A79D10DF550
:103110008A6009F1080100F110040DF58A6050225F
:10312000DA463CF0BBFCD8E901010E90206914900E
:1031300060691390A0691290E0691190206A15905F
:10314000606A1690206B1090606B0F9009F58F707D
:103150001791D4E90A8BD4E90E5624F067F9D9F80F
:10316000142120F07F40D9F81111CDF833214C9172
:10317000D9F80D21D9F80A11CDF86B201A910DF567
:103180008A61CDE908560A904CA80B901AA80C90B9
:103190001498029013980390129804901198059037
:1031A000109806900F98CDE9008B0790FAA8DDE9FA
:1031B000152319F0D7FA1798102806D1FAA90E98F6
:1031C0001BF05DF8002800F002840B240326DDF8D4
:1031D00064800DF5BB65DCA9A81D24F09FFFFF20CE
:1031E0008DF8DD458DF8DC650DF58A668DF8D8051E
:1031F00000F0A6BCFF2804BF98F80C20032A00F0BA
:103200009981FF2809D198F80C1004291ED00DF5DA
:103210008A660D2900F0DD80E3E00539082900F217
:10322000D380DFE801F00528D1D16BD1D1B9CE0030
:10323000012800F0C8810DF58A66022840F0D1808F
:1032400040F60340DA46ADF8DC05CEE0D8F80800D9
:103250000DF58A66002801F0E083D8F80400032108
:10326000DA4600788DF8DC15411E102928BF0820A9
:103270008DF8DD05B9E0032840F0A6800DF58A66DB
:1032800009F11801902230463CF008FC0020D8F8E3
:1032900004100DF16808C5E90C10C5E910100021F3
:1032A000C5E90E003246C5E912005B46B8680090D9
:1032B00040469DF8A9A2FEF777FE9DF86860FF2EB4
:1032C00000F076820DF5BB6008F1010100F028BC2A
:1032D000C0FFFF7FE84304006000000054000000CE
:1032E0005C000000B9600200184904006D00000095
:1032F000570000006100000052000000042863D164
:103300001AAD09F10801B02224F073FFD8F80100CA
:1033100008F1210415902022D8F8050021461690C6
:10332000D8F809001790D8F80D0014904CAE24F08E
:1033300007FB5FF8601020461AF0A1FF40B95FF864
:103340006C1006F110001AF09AFF002800F0AB8311
:103350000DF5987A29460DF58A6400209AE86005F3
:1033600020313346049020462A46CDE9008ACDE933
:10337000021119F05BFA4CA800F1100120461AF076
:103380007EFF002800F09383FF208DF8D80540F2DF
:103390000340ADF8DC05CAE3B0B998F80100002895
:1033A00000F08A82DDF8648099F82301800700F13B
:1033B000A28599F822110DF5BB605A46FEF700FD73
:1033C000B7E3002800F0F7800DF58A66013802287F
:1033D00007D20DF5BB60AAA924F0B4FEDDF8648025
:1033E000A9E3DA4615208DF8DC05DDF864800DF5DB
:1033F000BB65A7E3D8F80800002801F01083D8F8CF
:103400000400032100788DF8AC12411E102928BF5A
:1034100008208DF8AD0201F015B8D8F808005D4617
:10342000102840F01A81D8F80410AAACA01C24F08F
:10343000B9FA0DF5BB6624F037FA24F0EFFA042050
:103440000FE10DF5BB605946D8E901645D461AF0FD
:103450007FFB9DF80106022816D00D20A96AAA6BF1
:103460000DF5BB638DF8D80579A81AF09CFA9DF884
:10347000E401FF2808D05FF8A0011FF08DF979A8BA
:1034800022F06CFC1FF0CEFA0DF5BB6031462246EF
:1034900024F0F2F89DF8D845022C6ED10A20D1E133
:1034A000072908BF042800F0E680421E032AFFF423
:1034B000D2AB90B90A2910D198F80100002851D058
:1034C00099F81D01800700F1A98199F82201800770
:1034D00000F10E840D2000F0AEBF15208DF8AC0277
:1034E00000F0B0BF24F06BFB59D10DF5BB64D8F8E8
:1034F0000410A01C24F056FA0DF58A6624F0D4F9C5
:10350000012031468DF8D90504F11200B6223CF0B5
:1035100091FB062049E006F10800D8E9011209F103
:10352000D0035D46CDE90030AAA85B46FEF716FA47
:1035300000F083BF09F108010DF58A6024F017FB44
:1035400024F03DFB40F06381D8F8040024F018FA21
:10355000CDF8DC040DF59A600EC00DF5BB600DF5DD
:103560008A6334E05FF88C021FF022F9FF208DF8A7
:10357000A80240F6037000F094BC9DF8DA653007AD
:1035800000F1598103205DE15FF8AC021FF004F9FE
:1035900020461EF0F7F91FF045FA052067E00520E8
:1035A0000DF58A668DF8DC05FF20DA468DF8D80522
:1035B000DDF86480C2E298F80100002800F08A81FA
:1035C000DA461120E9E004F108030DF5BB6009F1CA
:1035D000D0025946FEF772FDA9E240F60340ADF86D
:1035E000AC0200F02FBF40F60320ADF8AC0200F0B3
:1035F00010BE40F603305D46ADF8AC0200F01ABFD5
:10360000FF205D468DF8A80240F6032000F049BC7B
:10361000FF205D468DF8A80205208DF8AC0200F071
:103620000CBF9DF869005D4600287FF425AB98F833
:103630000C000C287FF420AB24F0C1FA0DD1D8F88F
:103640000410AAACA01C24F0ADF90DF5BB6624F063
:103650002BF924F0E3F9032003E005208DF8AC02F8
:10366000FF208DF8A80200F0EABE05205D468DF827
:10367000AC0200F0DFBE09F108014CA824F077FA93
:1036800008F12104E4A8202221463CF0D3FA5FF897
:10369000BC1399F81E0117902046D8F80160D8F89D
:1036A00005A0D8F809B0D8F80D8022F0FDFC40B98B
:1036B000E4A85FF8E013103022F0F6FC002800F0D8
:1036C000B684CDE913860DF58A64CDE915AB18955E
:1036D000E4AB0FCB0F9024F010FB20461291119217
:1036E0001093DCA91DF018FE0DF5BB6B00262146DA
:1036F0004FF4B8725846CDF8BC65CDF8B865CDF832
:10370000B465CDF8B065CDF84867CDF84C67CDF815
:103710005067CDF854673CF099FA0DF58A6A59461E
:103720004FF4C07250463CF091FA8DF8D0654CA829
:1037300000F120045FF854B4504620222146D847B7
:10374000504621462022D8470DF5BB68504601223D
:103750008DF8D8654146D847404651464FF4C2726D
:103760003CF074FA9DF8580708F5B8715FF8883492
:103770001022054622F07EFA002967D000F8016B7E
:103780000139F9E705208DF8DC05CDE140F603307D
:10379000ADF8DC05C8E1DA460120DDF864800DF5FE
:1037A0008A660DF5BB658DF8D8050DE2052001E1AF
:1037B0005FEACA7000F04D81A01C24F0E1F885E8B2
:1037C0000E00E860D5E90601CDE900015946D5E9CA
:1037D00004231AAC2046FEF7BFFA9DF868600DF589
:1037E000BB60DDF86480FF2E00F018850530611C99
:1037F00024F0A3F88DF8DC6500F064BC5FF81405D4
:103800001EF0CAFF20461EF0BDF81FF00BF9FF2086
:103810008DF8D80505208DF8DC0588E1D5F83CB099
:1038200018950BF108030FCB24F030FA00F09283C7
:1038300086AC0FC493E39DF8DB85B8F1100F80F0E0
:10384000D68206208DF8AD02032047E6A7F13C069C
:103850000024404647F83C4C31468DF8584747E92C
:103860000E4447F8304C1CF0C8FFA7F12C0B314632
:1038700058461AF0B5FDDDF854A008F5B076102CC6
:103880000AD008EB0400013490F8601190F8702120
:10389000514080F86011F2E7102D40F0CF82DDF842
:1038A0004C8000200F9BE4AC102800F0DC821BF859
:1038B000001024F003F9F7E75FF8CC05DA461EF0B4
:1038C00077FF40F60370DDF86480ADF8DC050DF598
:1038D000BB652FE00D2024F015FC0DF58A638DF8F3
:1038E00050040DF580601AF05EF89DF80004FF2882
:1038F00009D05FF800061EF04FFF0DF5806022F042
:103900002DFA1FF08FF8DDF86480F00700F0F682E2
:103910000DF58A6424F065FA9DF85064DA46FF2EAE
:1039200000F0D2840DF5BB65611C681D24F005F81C
:103930008DF8DC650DF58A6604E10120ADE00DF53A
:10394000BB6409F11801E01D24F04BF80920214661
:103950008DF8A802AAA80130B7223CF06BF900F05C
:1039600070BE5FF86C061D46169464461796764640
:103970001EF012FF5046314642465B4622F0C8F91F
:10398000DDE916232046294622F0C2F91FF04AF845
:10399000FF20189D81E29DF852140DF58A66DDF82E
:1039A00064800A0700F16583DA46032068E3DDF8E6
:1039B00060B0032004218DF8DC058DF8DD15B3E03F
:1039C000DDE918B840F60340ADF8DC057AE399F874
:1039D0001A11022699F820510DF1680899F808018A
:1039E00001F0030105F0030581F00101022885F0D3
:1039F000010508BF01262943B1FA81F1D4E900236A
:103A0000D4E902044909039151468DE8510040462A
:103A100019F056FFC34608F102010DF56478122231
:103A20009DF8686040469DF869409DF891503CF0D3
:103A300001F9022D40F04883DCA8B8E82E00FF2EE3
:103A40002EC0B8F80010DDF8648001807FF4C1ABAF
:103A500076E30DF5BB600DF58A61083024F087F838
:103A60000020CDF8DC0507205FE00DF58A6459469B
:103A700020461AF01BF89DF87964FF2E40F065830C
:103A80000DF5987E94E86E0070466EC00DF5BB6033
:103A90009EE83E0004303EC0FF200DF58A66DA46FF
:103AA0008DF8D8054AE00DF5987A9AE860051AA8CD
:103AB000179900F1700499F81E01B4462E460028AB
:103AC00008BF0146169A08BF0246159B08BF034669
:103AD000149D08BF054604F1280080E862100DF52A
:103AE0008A60B968C4E90832C4E90E8A00F0E8FFC8
:103AF000DDF85434DDF85C14DDF85804DDF85024AA
:103B0000C4E90023C4E902010DF58A6424F099F99F
:103B10009DF85064FF2E00F0DC800DF5BB60611C49
:103B200023F081FE8DF8DC65FF208DF8D805DDF8E7
:103B300064800DF58A669DF8D805DA460DF5BB65FB
:103B4000FF2841D1281D311D90E87C0012207CC146
:103B50000DF58A660DF5BB658DF85004281D311DE5
:103B60001AF0EAFB0C20DAF82810DAF838202B4695
:103B70008DF8D8050DF2144019F015FF9DF81404C6
:103B8000FF2809D0DFF8E00E1EF006FE0DF214400B
:103B900022F0E4F81EF046FF0DF58A61484624F055
:103BA000D1FA1AAC4946204622F002FBFF208DF8DC
:103BB000D8059DF86800FE2818BF254695E81F0027
:103BC00088E81F0000F080BC0DF5BB640DF58A602D
:103BD000C82221463BF062FF9DF850041228BDD058
:103BE0001128D9D1514699F8F9A0BAF1020F04D1A0
:103BF000DFF86C0E1EF0DCFDCEE799F81A01189183
:103C000000F00300012802BF99F8200100F0030032
:103C1000012806D099F8F8E00DF1680B4FF0020A80
:103C200028E009F1D0040DF58560224619F0E4FE84
:103C30009DF82804FF2809D0DFF81C0E1EF0ACFD0B
:103C40000DF5856022F08AF81EF0ECFE206809F17F
:103C5000E00E17900DF1680B60681690D4E9028CA5
:103C60005C469EE86F006FC40DF5BB64DDE916107D
:103C700099F8F8E0CDF8ECC504F1180CCDF8E005A2
:103C800023468DF8D9E5CDF8E415CDF8E8859BE815
:103C900073018CE873010B208DF8D80518988DF806
:103CA00009A68DF808E6816A826B0DF23C4019F096
:103CB0007AFEDDF864800DF5BB659DF83C04FF28B5
:103CC0003FF46AAFDFF8940D1EF066FD0DF23C4044
:103CD0005EE7E01D1AA923F084FE0A208DF8D805BE
:103CE0000DF5BB6001302146B7223BF0A3FF1EE774
:103CF0000B20A0E3DDE91110702241EA00484CA935
:103D00000DF58A603BF0CAFE159A14991002C4E9B9
:103D1000006B40EA11631398129340EA012516994B
:103D2000C4E90453080240EA12624FEA0820DDF8B1
:103D30005C8040EA1160C4E9028AA261E061044645
:103D40000DF58A6014959030E4A9154623F034FEF1
:103D50000DF58A612A4601F1200023468DE84308CB
:103D600014981299CDE9048A18F09EFD99F808116B
:103D7000022940F011820DF5BB640DF58A61E01D4A
:103D800023F02FFE0920214624F0ADF9B72222E2CC
:103D90000DF58A6A211D0AF1020623F001FDFAA839
:103DA0003146841C23F094FD96AE214623F0F8FCA6
:103DB0008CA81899324619F050FD9DF83042FF2C1E
:103DC00000F03682DFF8AC0C1EF0E6FC8CA821F087
:103DD000C5FF1EF027FEAAA88CA90530013114E208
:103DE000E01D0DF58A6123F0FCFD09203AE1BDF8E4
:103DF000DCB59DF8D9A55FEA8B7042BF99F81C012C
:103E000040F0020089F81C015FEA8B5040F1AD835D
:103E1000EB6BD3E902E1D3E9042341EA030C4EEA58
:103E2000020050EA0C0000F08A83CDF8D8E5CDF806
:103E3000DC15CDF8E025CDF8E43589E3705DA7F118
:103E40002C0180F080007055DCAD28461AF0C8FACD
:103E5000DDF84C8000200F9BE4AC102803D0295CD7
:103E600023F02CFEF9E70DF5BB6031461D461CF032
:103E7000C4FC0FCE23F041FF04F11001DCA822F0B6
:103E800013F9AC46189DDDF858B00028149E129A1C
:103E9000DDE9104300F0CF80FF208DF8A80240F24A
:103EA0000340ADF8AC02C8E20DF5BB60D84600F1A6
:103EB000680B08300DF58A6160223BF0EFFD169823
:103EC0000BF10C01CBF8000030221598CBF8040060
:103ED0001498CBF808001398CBE9065AC34651C191
:103EE0000DF5BB6088301AA93BF0A4FE1798CDF8F9
:103EF000DC05082019E6DA460E2050E4DFF8500B06
:103F0000DA461EF055FC102049E4DDF864800028F4
:103F100000F0DD810A200DF58A6523F0E2FFFAAE9C
:103F200023F0DFFE9DF8E843FF2C40F03B82A81D04
:103F30001AA923F056FD06202946ADF8D8050DF53F
:103F4000BB601230B622EAE2E81D1AA923F049FD4F
:103F50000320DDE20020CDE98800CDE986000DF5E3
:103F6000BB6886A9404602F06BF824F023F847D1DD
:103F70004CA808F1040100F1030A102223F0FFFF0E
:103F8000FAAC514623F0A4FC0DF5BB681899224603
:103F9000404619F062FC24F00DF840F0F780DBF8A1
:103FA0000000C10700F03C82DBF80410000A0DF5A8
:103FB000BB660A0E8DF85E220A0A40EA01609690FE
:103FC000ADF85C2296A9304602F088F823F0F2FFA3
:103FD00040F0DD83311D504623F0E4FCDCAE514659
:103FE00023F0DEFB0DF5BB6818993246404619F008
:103FF00034FC23F0DFFF40F0C980189DFFF765BA5D
:1040000008F101014CAD132223F0A5FCE4A84ECD2C
:104010004EC029880180A978817002E2AAA80DF516
:10402000BB61083023F0A3FDAB96052003E2DDE978
:10403000E4C2DDE9E6344CA81799903011F0010193
:1040400001BF8B468A460E46884680E8400CC0E990
:10405000038C14301CC00DF5BB64E01D4CA923F08B
:10406000C0FC082024F03FF82146B7223BF0E2FDD7
:10407000E3E19DF853240F2A00F29D81DA460620E1
:104080008DF8DD0503208DF8DC05FFF7B0B90921B7
:104090000DF58A658DF85014CDF854042B4624F0A4
:1040A00031F84CAE23F01DFE9DF83041DDF8648000
:1040B000FF2C00F028820DF5BB60711C23F0B3FBD0
:1040C0008DF8DC45FF201AE20BF1140C17950DF565
:1040D000987BBCE82F00DE46AEE82F009CF800007D
:1040E0008EF80000BDF89600ADF81C02DDF89200D5
:1040F00086901AA9B8E82D008C46ACE82D00122253
:10410000B8F80000ACF8000009F1D20089F8D140FD
:1041100089F8D0603BF08EFDBBE83E0009F1E40079
:104120003EC0179989F8F9109BF80010DDF86480FB
:1041300001708698C9F8FA00BDF81C02A9F8FE00C3
:104140000C200DF5BB65FFF74FB84CA80DF58A6143
:1041500029223BF06FFDDDF87A04022EE490BDF8D1
:104160007E04ADF8940300F055844CA909F1D00009
:1041700029223BF05FFDE498C9F8FA00BDF89403EA
:10418000A9F8FE000D2089F8F96086E408F1010124
:10419000E4A823F0D2FB44E1CDF8DC05092118980E
:1041A0000DF5BB688DF8D8154346816A826BDCAE8D
:1041B00023F097FD9DF87043FF2C23D108F10600F2
:1041C0000DF58A6123F00DFC03204146ADF8A802ED
:1041D000AAA81230B6223BF02DFD1DE04CA8211DEF
:1041E000C61C23F0DDFAE4AC314623F071FB0DF57B
:1041F000BB6618992246304619F02FFB23F0DAFEF1
:1042000000F09181AAA8711C053023F096FB8DF86F
:10421000AC42FF208DF8A802189D0EE108300DF584
:104220008A6123F0A4FC0020CDF8DC05082066E1BB
:104230004CA9504623F0C0FB0AF12004E4A923F066
:1042400082FBBDF82C021222ADF890049DF82E02DC
:104250008DF892040AF145008DF894848DF893B49A
:1042600086A93BF0E7FC0AF1570083A909223BF03D
:10427000E1FC28465021AA463BF0B9FB99F8080119
:10428000023838BF0220C0B2022800F08282B9682A
:10429000032840F0B382189D0F200DF5BB688DF800
:1042A000D805A96A4346AA6BFAAE23F01AFD9DF819
:1042B000E843FF2C40F01A8308F107000DF58A61EE
:1042C00023F08FFB0720DEE20120FFF768BA06F13A
:1042D0009000179010301690F0484FF0FF38CDF84E
:1042E00060B0D7F808B0824658461CF004FA04467D
:1042F00058460E461CF0FFF9E94D0023A0FB0502CD
:10430000E1FB0523A4FB0541A6FB05566D184FF004
:104310000001464152F1000253F1000040F2FF1348
:1043200024EA030341F10001BAEB030378EB050330
:1043300078EB060378EB0202D6D3169B0022DDF859
:1043400060B083E80700DA60179BCDF8540483E877
:1043500007000821DA600DF58A638DF8501423F008
:10436000D1FEFAAE23F0BDFC9DF8E843DDF8648091
:10437000FF2C17D1B8680DF58A6600901AAA30464E
:1043800000215B460025FDF70FFE9DF85044FF2CF1
:1043900008D10DF5BB601AA9083023F0E8FBCDF871
:1043A000DC55ABE00DF5BB60711C23F03CFAFF203F
:1043B0008DF8DC45A3E089F8201109F58F7189F8A3
:1043C0001E0109F58C70BDF854349DF85144A9F8CC
:1043D000223189F8212189F81F4123F031F889F829
:1043E00009112022DBF82C1089F808014CA83BF0B9
:1043F00021FC0DF58A66DBF83010402223F0A0FA8C
:104400001AAD3146284601F073FD9DF86800FF287B
:1044100000F03E820A20DA468DF8D503032457E2E5
:104420000524189D13228DF8AC42AAA80530E4A9F2
:104430003BF000FCFF208DF8A8029DF8A802FF28A1
:1044400040F0FF80AAA8AC4604300DF5BB6E0EF11B
:10445000040190E87C000E207CC165468DF8D805EB
:104460000DF58A660EF10401301D19F065FF0C2070
:10447000A96A8DF850043346AA6B9BAC204619F00C
:1044800092FA9DF86C02FF2808D0DFF808061EF0AB
:1044900083F9204621F062FC1EF0C4FA0DF5BB61E1
:1044A000484623F04FFEAAAC4946204621F06FFE55
:1044B000FF208DF850049DF8A802FE2818BF26465C
:1044C000199D96E81F001FC50DF27C7D23F024BACC
:1044D0000DF58A6E98E85E0070465EC07146AAA827
:1044E00000F1040C91E85D008CE85D00A2E7083063
:1044F0000DF58A6123F03BFBCDF8DC4507208DF8F4
:10450000D805FFF716BBE81D1AA923F06AFA0520A3
:104510008DF8D8050DF5BB6001302946B7223BF078
:1045200089FBFFF706BB129C132C40F0E381F01DC2
:104530000DF58A6123F055FA0920314624E4002064
:10454000CDF8E405CDF8E005CDF8DC05CDF8D805CB
:10455000DFF800150DF5BB6019F091FE28B199F850
:104560001D0140F0020089F81D0199F819010C2184
:10457000A9F822B109F58C7B89F82181032889F8F3
:10458000206189F81FA189F81E4108BF0821A86B86
:1045900090F8702390F87133881889F81A0109F59A
:1045A0008F7013B101218BF80010594622F048FF9B
:1045B00089F808010DF5BB6089F80911012101F0A6
:1045C00021FC23F0F7FC40F0BA809DF8E865DDF8A7
:1045D000E445BDF8E905ADF8300131469DF8EB053D
:1045E0008DF832012046DDF8DC85DDF8E0A516F017
:1045F0005BF923F0EBFC58461A4623F02DF8C0B2C5
:10460000022840F0BE80BDF830010DF5BB62ADF868
:10461000E50529469DF832018DF8E465CDF8E045C1
:10462000CDF8DCA5CDF8D8858DF8E7057EA819F082
:1046300014F99DF8F841FF2C40F0CF8001208DF84F
:10464000A8020DF52A7A0DF5BB60C82251463BF051
:1046500025FA9DF8D8050DF5BB6E0E283FF400AF86
:104660000DF58A660D287FF419AF99F8F980B8F135
:10467000020F3FF413AF99F81A01189500F00300E8
:10468000012802BF99F8200100F00300012809D099
:1046900099F8F8E04FF002082AE000BFFFC5FCFFE0
:1046A00040420F0009F1D004A0A82946224619F083
:1046B000A3F99DF88002FF2808D0DFF8CC031EF094
:1046C0006BF8A0A821F04AFB1EF0ACF9206809F1B4
:1046D000E00E179060681690D4E902BC54469EE83C
:1046E0006F006FC40DF58A66DDE9161099F8F8E0E1
:1046F000CDF85C1406F11801CDF858048DF851E49A
:10470000CDF860B4CDF864C49AE87D007DC10B207B
:104710000DF58A668DF85004189833468DF881841B
:104720008DF880E4816A826BA5AC204619F03BF9D4
:104730009DF89402FF283FF4B1AED448A7E69DF857
:10474000E8259DF8DB058DF80822DDF8E4258DF8D5
:10475000FB01BDF8D9058192DDF8E0259DF8EB1548
:10476000ADF8F901BDF8E9058092DDF8DC25ADF87A
:1047700050048DF852147F928DF80B12ADF8090297
:1047800033E04046514622F03DFF05242DE0711CE8
:1047900038E499F80901002800F0C280189D0A2029
:1047A0000DF5BB688DF8D805A96A4346AA6BFAAE29
:1047B00023F097FA9DF8E843FF2C40F0978008F12A
:1047C00006000DF58A6123F00CF904204146ADF88E
:1047D000A802AAA81230B62248E4AA481DF0DCFFBD
:1047E0007EA821F0BBFA1EF01DF9AAA87EA905300B
:1047F000013123F0A2F88DF8AC4223E60AF1100053
:1048000000F05EF9DAE906010025CDE900010DF5B9
:104810008A60DAE9042302A931C10DF5BB6018F002
:1048200005F8DDF8E4150DF5BB68DDF8D825DDF8F1
:10483000DC35DDF8E005CAE90201CDE900014046BA
:10484000CAE9002301F008FB9DF8D845189DFF2C0C
:104850005AD1FAA808F10401C61C22F0A1FF96ACB7
:10486000314623F035F891A82946224618F0F5FF85
:104870009DF84442FF2C6CD108F107000DF58A61C8
:1048800023F0AFF8022023F02EFC4146FFF7EDBBEA
:10489000E4A8291D861C22F083FFDCA83146841C75
:1048A00023F016F8FAAE214622F07AFFF5A8594611
:1048B000324618F0D2FF9DF8D443FF2C35D0614822
:1048C000DA461DF069FFF5A821F048FA1EF0AAF8B3
:1048D000F5A90DF5BB65681D013113220DF58A663A
:1048E0003BF0A8F98DF8DC45FFF72CB9AAA8711C9C
:1048F00005303AE0AAA80DF58A61083023F037F9AF
:10490000601CAB90052085E4FAAE08F1010113228A
:1049100023F016F891A83146013023F00EF820E07C
:10492000189D286838B3696844E0E81C4CA923F056
:1049300043F80DF5BB640DF58A6104F124004022B3
:104940003BF078F9022029468DF8D805601C232217
:10495000E5E54B481DF020FF91A821F0FFF91EF07E
:1049600061F8AAA891A90530013122F0E6FFFF20E5
:104970008DF8AC425FE5BC68A846314B3F4DD4F89A
:10498000000140280BD3204600212E461D4616F07C
:10499000C7FCD4F8000140284AD22B463546421CB9
:1049A00054F82000C4F80021A0FB0301A8421046DF
:1049B000E7D845460AF140000AF130020026CDF85A
:1049C000DC15C0E900160DF57A78C2E900160DF580
:1049D000BB63C2E90266A96AAA6BC0E90266082045
:1049E0008DF8D805404618F0DEFF9DF8E843AAA8E8
:1049F000FF2C04D108300DF58A61FFF713BB053099
:104A000008F10101B1E7194B00E00B4B0120072130
:104A10001DF0C4FC0C481DF0F3FD124A06E01C4AD0
:104A200004E0134A02E0094A00E0044A22F0BCFE16
:104A3000114A40211DF0F8FC301D0400201D040027
:104A400040420F006A000000101D0400001D040019
:104A500058000000E84304006C0000006300000000
:104A60006E000000F01C040065000000C448040053
:104A7000B448040069000000243704007F3DF1FFC2
:104A8000660000005F0000006B0000006200000094
:104A9000D01C040064000000D0B502AF92B0BC6826
:104AA0008DF81020FF228DF80420CDE902343A69F8
:104AB000FB68009201AAFDF7B3FD12B0D0BDD4D4BB
:104AC000F0B503AF2DE9FF07DFF8949000260D46FF
:104AD0008046EA46CDE90266CDE900660F2E1ED873
:104AE000D5F80041402C07D32846002116F018FCC9
:104AF000D5F80041412C2AD23046514610224B466F
:104B000019F05EF802460B4605EB8400C4F1400143
:104B10001FF030FB2044C5F800010E44DEE704A876
:104B20009AE81E001EC004AB22F054FF1FBFA8E885
:104B30000F0008B0BDE80007F0BD08481DF02CFECE
:104B400004A821F0E7F91DF06DFF1DF0B9FE054B3B
:104B50002046402140221DF021FC00BF70000000D3
:104B6000784D04001437040080B56F4618B1BDE8D5
:104B7000804022F047BD80BD80B56F46016819B105
:104B8000BDE8804000F07AB980BD80B56F46D0E9BD
:104B9000001281F00201114301D0017E01B180BDFC
:104BA0000069BDE8804014F0DABD80B56F46C243AD
:104BB00012061CBFBDE8804000F065BE80BDD0B5C8
:104BC00002AF044690F82D00011F032905D30328E6
:104BD0000AD104F1300000F0B8FA206A406800F011
:104BE000AAF9002084F82C00D0BDD4D4D0B502AFEF
:104BF0000446006820B922F0B2FF22F01BFFD0BDAE
:104C000004481DF0C9FD20F059FA1DF00BFF1DF0FE
:104C100057FE00BF38000000D0B502AF0446103088
:104C200017F004FD41F27C0020441FF071FE41F2B8
:104C300088002044BDE8D0401FF06ABEF0B503AF45
:104C40002DE9000F8BB0044690F85B07032813D0C2
:104C5000042807D0052812D1D4F86407D4F86817BF
:104C6000FFF782FF94F85A07012805D1D4F84007CE
:104C7000D4F8441722F0C6FC002084F85A0794F8B0
:104C8000C807042804BF04F5FA6000F045FC94F856
:104C9000E000052815D004280AD003285BD104F1D0
:104CA000E8000BB0BDE8000FBDE8F04000F002BA2C
:104CB00004F1E8000BB0BDE8000FBDE8F04000F0E3
:104CC00024BA94F8300503286ED194F858030328C9
:104CD00005D0042860D104F5597000F0FCFA3B4976
:104CE000D4E9D0BAD4F848030968C90569D139496B
:104CF00017F0ADFE0646D0E90058C06F06F108096E
:104D000001910138F067484614F063FD2D1A68F1EF
:104D10000000BBEB05017AEB00003AD30DF1080A65
:104D20004946504617F0BBFCBBEB0500069004D08B
:104D3000411E02A81BF012FD80B10DF11C089AE87B
:104D40002E0040462EC0404618F059FD30B1416853
:104D500001394160F7E70BB022F0DEBD02AD002063
:104D6000D6E90212914202D1327CD2070BD006EB77
:104D7000C101896939B92846494617F0B1FC029842
:104D8000E0B10120ECE7C0071CBF06F168001FF08E
:104D900077FA019922F00CFE94F85404042804BF19
:104DA00004F58B6000F097FA04F1E8030FCB896AF1
:104DB0000BB0BDE8000FBDE8F040084706481DF005
:104DC0001FFC03481DF0F4FC1DF07AFD04ED00E02B
:104DD00037000000702C0400A033040080B56F463B
:104DE000C0B2BDE8804039F035BAD4D4F0B503AFD5
:104DF0004DF804BD0A46064623F057F80C46134901
:104E0000054606F5767020F06BF90E4695F85E13B0
:104E1000B1B1013985F85E13090604BF95F85C133A
:104E2000042905D022F018FF22F004FE22F0BDBDB7
:104E3000103041F20131A5F85C131EF055F9F1E78D
:104E400003481DF0B5FC1DF03BFD00BF4C360400CF
:104E500076000000B0B502AF456875B10289006800
:104E6000D0E9000117F02AFB38B10C46D0F8401306
:104E7000294423F00AF822F0DDFDB0BDF0B503AF00
:104E80004DF8048D044601790068FFF7AFFF41F249
:104E90000C102618215875688D4208D1307AC00749
:104EA00005D100214FF00408042000250FE041F255
:104EB000181004EB000801EB81008D4208EB800024
:104EC00091BFC1F10101691A00254FF0040800F0FB
:104ED00011FD4046294600F00DFD316A11B1706A9E
:104EE000C9688847B16A11B1F06AC968884704F196
:104EF00068005DF8048BBDE8F040FFF78DBED0B5CB
:104F000002AF17F0DBFA68B10C4690F86F1300227D
:104F1000012980F86F2304BF00F51E701EF0E4F82D
:104F200022F088FDD0BD80B56F4600F5BD60BDE8BC
:104F3000804014F014BC80B56F4600F5BA60BDE83F
:104F4000804014F00CBCD4D40168C26D8A429EBF6C
:104F500000210160704780B56F46024B10460A463B
:104F60001DF01CFAC43804000168426B8A429EBFDF
:104F700000210160704780B56F46024B10460A461B
:104F80001DF00CFAC438040080B56F4690F8881004
:104F9000032918BF80BD2C30BDE8804000F04FBC15
:104FA00080B56F4690F8EC10032918BF80BD18300B
:104FB000BDE8804000F00CB880B56F4690F8F8105E
:104FC000032918BF80BD2430BDE8804000F000B840
:104FD00080B56F4690F84410032908D0042918BF03
:104FE000052909D14830BDE8804000F028BC483090
:104FF000BDE88040FFF7C8BF80BD80B56F4690F820
:10500000A610032918BF80BD1C30BDE8804000F009
:1050100088B880B56F46817F0339012988BF80BD7C
:105020002430BDE8804000F07CB8D4D4D0B502AFC5
:10503000044690F89A00062826D8DFE800F00425F8
:10504000250A180F140094F87200BDE8D04022F031
:10505000CDBA04F1A00000F018F80BE004F1A400B0
:1050600000F0CCFA03E004F1B80000F00EF80020E4
:1050700084F8980094F8990018B194F8320022F05E
:10508000B5FA002084F89900D0BDD0B502AF04462F
:1050900090F83201032801D028B1D0BD04F17C0082
:1050A00000F0ACFA383494F83200BDE8D04022F079
:1050B0009DBAD4D4D0B502AF044690F88D0203381F
:1050C000042821D8DFE800F011030317080004F5D5
:1050D0002A7000F045F812E004F52E7000F0E8F8B0
:1050E00004F57C70FFF730FF09E004F52A70BDE895
:1050F000D04000F057BB04F5247000F053FB20466D
:10510000BDE8D040FFF720BFD0BD80B56F4690F816
:105110000C11032918BF80BD3030BDE8804000F07D
:1051200035BBD0B502AF044690F82700042818BF5D
:10513000D0BD04F13C0000F0FEFAE06A228ED0E916
:105140000001BDE8D040FFF7DABE80B56F46417C74
:10515000042918BF80BD4068BDE88040FFF746BD08
:1051600080B56F46017C032908D0042918BF80BD93
:1051700000F52C70BDE8804000F056B81830BDE84E
:10518000804000F05DB8D0B502AF044690F835001D
:10519000032809D0042803D0052818BFD0BD03E098
:1051A00004F1380000F06EFA002084F83400D0BD1D
:1051B000D0B502AF044690F83500032804D0042887
:1051C00007D0052818BFD0BD04F1380000F00AF858
:1051D00003E004F1380000F055FA002084F83400B0
:1051E000D0BDD4D480B56F4690F850100639072949
:1051F0000AD8DFE801F00A0F090409140904543041
:10520000BDE8804000F0BEB880BD5430BDE88040AD
:10521000FFF7D2BE5430BDE8804000F0A1B8543052
:10522000BDE8804000F04FBA80B56F4690F8FC10A2
:10523000032918BF80BD1030BDE8804000F022B8BF
:10524000D0B502AF044690F8C901032807D004285E
:1052500018BFD0BD04F5E87000F0AFFA03E004F524
:10526000F070FFF7E1FF002084F8C801D0BD80B5E1
:105270006F4690F8E010032918BF80BDBDE880405C
:1052800000F00BB880B56F4690F8DE10032918BF08
:1052900080BDBDE8804000F0EABA80B56F4690F866
:1052A000D610032918BF80BDBDE8804000F0DFBAEA
:1052B00080B56F4690F82010032907D0042918BF45
:1052C00080BD2830BDE8804000F077BA3830BDE8B6
:1052D0008040FFF7A9BF80B56F4690F8C010032942
:1052E00018BF80BD1030BDE8804000F0B4BAD0B522
:1052F00002AF0446407A011F022903D220681FF042
:1053000013FB02E0032818BFD0BD00202072D0BDDF
:10531000D0B502AF044690F80D01011F022904D256
:10532000D4F808011FF000FB01E0032802D100209F
:1053300084F80C01D0BD80B56F4690F86C1003293D
:1053400009D0042906D122F042FF03D1BDE88040F4
:10535000FFF71BBC80BD7030BDE8804000F034B862
:1053600080B56F46017C032907D0042918BF80BD92
:105370001830BDE8804000F062BA1430BDE88040CB
:1053800000F000B880B56F46017C042918BF80BDCD
:105390001830BDE8804000F052BA80B56F46017FFA
:1053A000042918BF80BD2030BDE8804000F000B85F
:1053B00080B56F4690F85C10032918BF80BD083097
:1053C000BDE8804000F02FBAD0B502AF0446007FA0
:1053D000011F032906D3032818BFD0BD04F1200004
:1053E000FFF7B3FEA0694068BDE8D040FFF79BBD62
:1053F00080B56F4690F83E13032918BF80BDBDE805
:10540000804000F003BA80B56F4690F82C14032951
:1054100018BF80BD7830BDE8804000F0F7B9D0B546
:1054200002AF044690F82000042806D1E069007815
:10543000FFF7D4FC002084F82200D0BD80B56F4671
:1054400090F84010032918BF80BD0C30BDE88040A3
:10545000FFF7E5BF80B56F4690F84410032918BFE9
:1054600080BD1030BDE88040FFF7D9BFD0B502AF96
:10547000044642F29820205C06280DD842F288218A
:10548000DFE800F0210A0A040B11160042F2A02006
:10549000204400F01FF814E0D0BD42F2A0202044C8
:1054A00000F096F90DE042F2A0202044FFF7C6FB81
:1054B00004F58A50FFF7E2FC206810B92046FFF798
:1054C0005BFB4FF40A51605821440979BDE8D04094
:1054D000FFF78CBCD0B502AF044690F852000338F9
:1054E000042818D8DFE800F014030D10080004F1B8
:1054F0005800FFF788FF0BE004F1580000F00CF8AB
:1055000006E004F1700001E004F16000FFF770FFB5
:10551000002084F85100D0BD80B56F4690F82C1261
:1055200031B1032918BF80BDBDE88040FFF77EBDC3
:1055300090F82202BDE8804022F058B8D0B502AF02
:10554000044690F83200032814D0042806D0052819
:1055500018BFD0BD04F1400000F0DCF894F8300032
:1055600020B1207E10B9206914F0F9F8002084F8E9
:10557000300003E004F16800FFF7DDFE002084F84E
:105580003100D0BD80B56F4690F8F210032918BFE6
:1055900080BDBDE88040FFF712BB80B56F4690F834
:1055A0000013032918BF80BD00F58470BDE880405A
:1055B000FFF7FEBD80B56F4690F8D811032918BFDC
:1055C00080BD0C30BDE88040FFF7DDBD80B56F4683
:1055D000017B042918BF80BD8068BDE88040FFF7CB
:1055E00005BB80B56F4690F8A810032998BF80BD11
:1055F000D0F89000BDE88040FFF7F8BA80B56F465C
:1056000090F8B210032918BF80BD0830BDE8804073
:10561000FFF7F3BC80B56F46817C0E390B2911D89A
:10562000DFE801F00610101110101010060B100B1F
:105630001830BDE88040FFF7D4BF1430BDE880408B
:10564000FFF7C4BF80BD1430BDE88040FFF7E1BC68
:10565000D0B502AF044690F83100052809D00628DD
:105660000ED104F1480000F066F8A06BA28F22F082
:10567000A5F8D4E9000121F0C5FF002084F830002E
:10568000D0BDD4D480B56F4690F82C1003390529CD
:1056900018D8DFE801F00317170D08123030BDE805
:1056A0008040FFF77ABE3030BDE88040FFF76ABE29
:1056B0003030BDE88040FFF77BBE3030BDE8804031
:1056C00000F001B880BD80B56F4690F860100529E4
:1056D00007D0062918BF80BD6430BDE88040FFF7C1
:1056E00067BE7430BDE88040FFF75ABC80B56F4696
:1056F00090F82D1041B1032918BF80BDD0E90601F3
:10570000BDE88040FFF730BAD0E90001BDE8804035
:1057100021F078BF80B56F4690F84C10032901D076
:1057200009B102E02030017E01B180BD0069BDE811
:10573000804014F014B880B56F4690F82510042905
:1057400018BF80BD2830BDE88040FFF783BB80B51F
:105750006F4690F8441039B1032918BF80BD14304A
:10576000BDE88040FFF7C2BFD0E90101BDE880403D
:1057700021F048BF80B56F4690F89810032918BFF4
:1057800080BD5030BDE88040FFF7E1BF80B56F4677
:1057900090F8CE10032918BF80BD0830BDE88040C6
:1057A00000F065B880B56F4690F82C11032918BF3A
:1057B00080BDBDE8804000F05AB880B56F4690F8D3
:1057C000F010032918BF80BDBDE88040FFF74FBD32
:1057D000D0B502AF044690F82900032803D004286E
:1057E00018BFD0BD03E004F12C00FFF7B0FF00208C
:1057F00084F82800D0BD80B56F4690F83011032999
:1058000018BF80BDBDE88040FFF771BD80B56F4611
:1058100090F83013032918BF80BD00F58470BDE8EF
:105820008040FFF775BD80B56F4690F85010032992
:1058300018BF80BD0C30BDE88040FFF7FFBD80B5CC
:105840006F4690F85810032918BF80BD1030BDE88E
:105850008040FFF7FFBD80B56F4690F8AC1003297C
:1058600018BF80BD1030BDE88040FFF783BF80B512
:105870006F4690F82010032918BF80BD2430BDE882
:105880008040FFF777BF80B56F46C0B2072818BFCA
:1058900080BD0846BDE8804021F0A8BE80B56F46B7
:1058A00080BDB0B502AF051D0C4634B155E901010C
:1058B000FFF75AF9013C1035F7E7B0BDB0B502AFBC
:1058C000051D0C4634B155E9010121F09BFE013C58
:1058D0001035F7E7B0BDB0B502AF00F13A050C46A0
:1058E0003CB115F83A0C15F8401BFFF7CCFF013C12
:1058F000F6E7B0BDB0B502AF051D0C462CB1F5E81A
:10590000050121F07FFE013CF8E7B0BDE0B502AF34
:10591000CDE9000101A968461CF042F9D0B502AFFB
:10592000044610481CF013FF2068023838BF0020DE
:10593000DFE800F00210090B22F072FC2046BDE8FF
:10594000D0401EF065BD022000E00320BDE8D0403D
:105950001CF03CBF22F01CFB2079BDE8D0401EF0BB
:1059600049BD00BF42010000F0B503AF2DE9E00FD3
:1059700004464548DFF814A1D04794F874001CF0A1
:1059800025FF94F875001CF021FF414D2846D047B3
:105990004048D0472846D0473F48D0472846D047C0
:1059A00094F82000029094F8210001903B4894F86C
:1059B000228094F823B094F8245094F82560D047BE
:1059C000DFF8DC903046C8472846C8475846C847E5
:1059D0004046C8470198C8470298C8470020D047AA
:1059E0003048D04704F110092F4899E86003D047A8
:1059F00046EA090045EA0801084316D022F0C8FA31
:105A0000DFF88CB05846D0472848D0475846D04792
:105A10002748D0472846314642464B461CF046FFB1
:105A20000020D0470020D04701E022F0F9FB002001
:105A3000D047DFF85CB094E860035846D0471D4873
:105A4000D0472846314642464B4620F061F90020B7
:105A5000D0470020D0475846D0471748256BD0473D
:105A600028461CF01BFF1548D04734342DB114F8DC
:105A7000010B1CF0ABFE013DF8E70020BDE80E0F66
:105A8000BDE8F0401CF063BE400100004F2702005B
:105A90000B0000004C0100004B0100005001000011
:105AA000851902004D010000070000004E010000B2
:105AB000D10000004F010000430100000C00000075
:105AC000D0B502AF04460A481CF041FE20880128E8
:105AD00009D122F05DFA07481CF039FE6088BDE864
:105AE000D0401BF0B1BD0020BDE8D0401CF06EBE20
:105AF0000700000085000000D0B502AF044604484E
:105B00001CF025FE2088BDE8D0401BF09DBD00BFE5
:105B100085000000D0B502AF044604481CF017FE13
:105B20002078BDE8D0401CF051BE00BF0C00000042
:105B3000D0B502AF0F4A5269BFF35F8FA2B152686E
:105B4000012301441360002388420AD0D2F80041A7
:105B5000002CFBD0C2F80031D2F8084500F8014B08
:105B6000F2E701205060D0BD03481CF021FE1CF07C
:105B7000A7FE00BF2094002033000000B0B502AFA4
:105B800088B00168DFE801F0042E282A26343C2C76
:105B9000D0E90101CDE900016846029030481CF0CF
:105BA000FBFD30481CF0D3FD2F48049002A8039061
:105BB0002E48069003A82E490590A7F1090005AAD2
:105BC0001CF016FE2B4801211CF05AFF1CF02AFF86
:105BD00008B0B0BD1F4806E01F4804E0184802E0C6
:105BE000184800E01D4808B0BDE8B0401CF0E0BD1A
:105BF000446817481CF0D0FD20461CF0BFFD19E09A
:105C0000D0E9015410481CF0C7FD10481CF09FFD5E
:105C1000DFE805F0020D0406002009E0022007E09D
:105C200003201CF0D3FD20461CF038FE02E00120CA
:105C30001CF0CCFD08B0BDE8B0401CF0F3BE00BFC6
:105C40004A0000004400000045000000440100003C
:105C50003B0000003A000000460000004700000042
:105C6000430000000900000064380400DF27020040
:105C7000BE0C0400AB3D0400F0B503AF2DE9000FEE
:105C800097B093F814900DF11C0A06901546D3E9CD
:105C900002049846DE7C0322039050464B46009651
:105CA000059116F075FC0DF12C0B5146584614F079
:105CB000BFFD9DF8300059460290032200960DA8C2
:105CC0004B4614F067FF200A04948DF84D40019074
:105CD0008DF84E0022200D9C8DF84C00414812900A
:105CE00012A9204615F04CF804F1F00098F812B013
:105CF000B8F810901DF01AF9012863D003200DF1B7
:105D00003C0A8DF84400D4F8EC000F9041F080007C
:105D10000AF104018DF842002046BE688DF843B0B8
:105D2000ADF840901DF058FBD6B104F1F2001DF023
:105D3000FDF801284DD003208DF84FB08DF85000AC
:105D40008346D4F8EC00ADF84C908DF84E101290CC
:105D500012A8011D20461DF03FFBDDE9129401E071
:105D60004FF0FF0B099840301DF006FC019805F13B
:105D7000200668772220E8764FF48070A5F8190095
:105D80001948C5F815000298049A2875D8E9000149
:105D9000039B2A77C5E90032C5E90260134A0598DA
:105DA0002961294616F0D8FB069DC5E903942846CB
:105DB00085F814B09AE80E000EC0AE6117B0BDE8C9
:105DC000000FF0BD0D48A7F11D02009018210C48EE
:105DD00005E00748A7F11D02009019210548064B70
:105DE0001CF067FC1001000109211001B81E04001D
:105DF000A4340400883404005430040078340400CF
:105E000060340400F0B503AF4DF8048D8EB0054644
:105E100008A8884621F0ACFB0898C0B1A7F137006C
:105E200008A9C61C0C2221F08BFDA7F146003146C3
:105E3000C41C0C2221F092FD0BAE21460C2221F055
:105E40007FFD28463146424614F040FD01E0162011
:105E500028700EB021F0EBBDF0B503AF2DE9000FB7
:105E600089B0044604A8022121F0CDFF22F09DF95B
:105E700002D021F033FC0FE021F04CFCFA68102333
:105E80000792BA680692064ACDE904A6009204AACF
:105E900021F017FC21F0AFFC84F800B021F00ABD1E
:105EA000EC1E0400F0B503AF2DE9000F89B00446E5
:105EB00004A8032121F0A7FF22F077F902D021F0F6
:105EC0000DFC0FE021F026FCFA6810230792BA6857
:105ED0000692064ACDE904A6009204AA21F0F1FB3D
:105EE00021F089FC84F800B021F0E4BCFC1E040021
:105EF000F0B503AF2DE9000F99B003AE04462022A0
:105F00000D4621F01DFD05F120010BAD202221F0F1
:105F100022FD304613F0A2FB284613F09FFB14A885
:105F20000B21FFF76FFF9DF850B0BBF1FF0F16D0AC
:105F30009DF85300E070BDF851009DF86310DDE955
:105F40001565A4F80100BDF86100179A9DF860304E
:105F5000ADF84C008DF84E1021F00BFC33E09DF8AD
:105F60006080DDF85C90BDF861009DF86310DDE9AC
:105F70001552ADF84C00A4F8110048468DF84E10AB
:105F8000E1744146029214F08FFC114B82460E469A
:105F900020205146324617F056FC0E4A202300922C
:105FA00003AA21F08EFB0C4840210090202052468D
:105FB000334617F099FB094A202300920BAA21F0DF
:105FC00080FB21F018FC84F800B019B021F0A4BCCB
:105FD0000C1F04001C1F04002C1F04003C1F0400A5
:105FE000F0B503AF2DE9000F89B0044604A80C21D9
:105FF00021F009FF22F0D9F802D021F06FFB17E061
:1060000021F088FB0246F8680B4B8C46079011463E
:10601000B868624606901020CDE904A617F013FC7C
:10602000064A1023009204AA21F04BFB21F0E3FB67
:1060300084F800B021F03EBC4C1F04005C1F04003B
:10604000F0B503AF2DE9FE0F044602A888460721EC
:10605000FFF7D8FE9DF808A0BAF1FF0F16D09DF803
:106060000B00E070BDF809009DF81B10DDE9036529
:10607000A4F80100BDF81900059A9DF81830ADF894
:1060800004008DF8061021F074FB1FE09DF81860E5
:10609000DDF81490BDF819009DF81B10ADF8040050
:1060A000A4F8110048468DF80610E1743146DDE988
:1060B000035B14F0F9FB084A10230092424621F0DA
:1060C00000FB2674C4E9015BC4F80C9084F800A0BE
:1060D00007B021F021BC00BF6C1F0400F0B503AF76
:1060E0002DE9FF07044603A80D460821FFF78AFEA5
:1060F0009DF80C00FF281ED09DF80F10E170BDF830
:106100000D109DF81F20DDE90463A4F80110BDF80F
:106110001D10DDF818C09DF81C50ADF808108DF862
:106120000A202574C4E90163C4F80CC0A4F8111056
:10613000E274207032E09DF81C80069EBDF81D00C0
:10614000ADF8040041469DF81F008DF8060030466A
:10615000DDE9049A14F0A8FB19B30246A8790B46AE
:10616000002818BF0120107007210F48009001205F
:1061700017F0BAFA0D4A062300922A4621F0A1FA36
:10618000FF2084F810802070BDF80400A4F81100EE
:106190009DF80600C4E9019AE660E07408B021F0B9
:1061A0001ABD034A21F000FB8C1F04009C1F040051
:1061B0007C1F0400F0B503AF4DF804BD0546007820
:1061C0000C46DFE800F00B512436186E7B4D9A2008
:1061D0008D151C77112D0E677F9E6A0020460021C9
:1061E00080E0204610216FE06A7820460E2111E001
:1061F00020460B2176E06A782046042184E06A7804
:1062000020460C2180E06A78204609217CE06A78EB
:10621000204602215DF804BBBDE8F04000F087BDD8
:106220006A7820460F215DF804BBBDE8F04000F01D
:106230008DBD2046032113F00DFBC043000637D16E
:10624000A878214600F0E4F80646C043000651D184
:10625000D4E9010188422BD0697800F8011B65E080
:106260006A78204607214FE02046012113F0F2FA18
:10627000C04300061CD1687802285AD001286CD18E
:106280002046012113F0E6FAC0430226000631D170
:10629000A97820E02046112116E06A7820461421D2
:1062A00032E02046052113F0D5FAC043000631D074
:1062B00002261FE06A7820460D2125E06A782046F4
:1062C000062121E02046122113F0C4FAC043022621
:1062D00000060FD16978204613F0BCFAC04305E0F0
:1062E00020460A2113F0B6FAC0430226000608BF72
:1062F0004FF0FF36304621F087BB6A7820460821F0
:1063000002E06A78204613215DF804BBBDE8F04046
:1063100000F02BBDD4E901018842C9D06A7821F090
:1063200003FD6360C4D0A978417002306060FF262D
:10633000E0E720460221022613F08CFAC043000653
:10634000D8D1A9780029C6D081290AD082290AD0BB
:10635000832914BF04210321BDE7AA782046002128
:1063600061E70121B7E70221B5E7D4D4B0B502AFA8
:10637000054600780C460421142888BFA0F11501B9
:10638000C8B2DFE800F0031A0F13062620460021EA
:1063900015E02046042113F05DFAC04300061FD02B
:1063A0000220B0BD6A1C2046022102E06A1C204681
:1063B0000321BDE8B04000F0ABBC2046012113F042
:1063C00049FAC04300064FF0020008BF4FF0FF300B
:1063D000B0BD6A7820460521BDE8B04000F0C5BCDC
:1063E00028462146FFF7E6FEC14309060FD1E81C07
:1063F0002146FFF7DFFEC143090608D1D4E90101B8
:106400008842CDD0A97900F8011B6060FF20B0BDA3
:1064100080B56F4680F080000A460749C0B251F847
:106420002010104613F016FAC04300064FF0020089
:1064300008BF4FF0FF3080BD5C510400F0B503AFE2
:106440002DE9C00704460620CDE90010684600F09B
:1064500056FDC0F30725C1B2022901D101203BE05E
:10646000C0074DD0684600F04AFD21F094FE02D1ED
:106470000120354630E0C00742D0684600F03FFDBD
:10648000C0F30728C1B2022902D10120454623E00A
:10649000C00735D0684600F032FDC0F30729C1B20D
:1064A000022902D101204D4616E0C00728D06846D7
:1064B00000F025FDC0F3072AC1B2022902D1012054
:1064C000554609E0C0071BD0684600F018FD21F0D2
:1064D0003AFC07D101201546012125542170BDE861
:1064E0000C07F0BDC0070BD06570002106201546D3
:1064F00084F805A084F8049084F80380A670ECE783
:1065000001200E25E8E7D4D4BCB504AF05466846A3
:1065100021F0EAFB21F057FB03D19DF80140FF2059
:10652000C9E00198142800F20881DFE800F0C40BEC
:106530003A829B57B348AC33C4C441942C4F1F6F6D
:10654000A2BA7B00684621F0CFFB21F03CFB40F073
:10655000B9809DF80110FF24E0B2FF284FF0010040
:1065600008BF0C4608BF4FF0FF30A4E0684621F09A
:10657000BBFB21F028FB00F08280019C1B2C00F269
:10658000D980102096E021F086FAC0070C464FF023
:106590000E008CE021F07FFAC0070C464FF0090096
:1065A00085E021F078FAC0070C464FF002007EE04B
:1065B00021F071FAC0070C464FF00C0077E021F093
:1065C0006AFAC0070C464FF0070070E0284600F05A
:1065D0004BF9C0070C464FF00F0068E00220CDE9F0
:1065E0000050684600F08BFC21F0A8FB49D0C007A2
:1065F00000F0A080684600F082FC21F0A4FB27D0C8
:10660000C00700F097800520114654E0684621F04D
:106610006BFB21F0D8FA32D0019C062C00F28A8064
:10662000112047E021F037FAC0070C464FF0140064
:106630003DE00120CDE90050284600F015F90C4658
:10664000C0071ED1684600F05AFC21F07CFB52D1F5
:10665000FF20002153E021F01EFAC0070C464FF046
:106660000D0024E021F017FAC0070C464FF004009B
:106670001DE0684621F038FB21F0A5FA34D19DF8E1
:106680000140FF2016E021F006FAC0070C464FF04B
:1066900008000CE021F0FFF9C0070C464FF006009F
:1066A00005E021F0F8F9C0070C464FF0130018BFC1
:1066B0004FF0FF300021E2B2C0B2120242EA0141C3
:1066C0000844BCBD019802283AD81ED001282AD11E
:1066D000684621F009FB21F076FA3FF43AAF0199C0
:1066E00033292DD8012437E7019850B1012821D151
:1066F00012200124DEE7C0071CD0214603201446E7
:10670000D9E7122000210024D5E7684621F0ECFAF1
:1067100021F059FA3FF41DAF0198042810D80A4916
:106720000224095C18E7284600F09EF800F00100FA
:10673000444211E7FF200E24BCE7FF200E24EFE6C1
:10674000FF240E2108E700BF5C550400F0B503AF3D
:106750002DE9E00F044601A80D4613F025FE9DF833
:106760000400012805D19DF80500FF21607021700B
:1067700061E00298052871D8DFE800F0032F1723A5
:106780000531152056E00320CDE9015001A800F0A5
:10679000A5FB20F07F460546C0B24FEA1628FE282A
:1067A0002BD1FF2084F8018044E02846FFF7ACFE9F
:1067B000C14309061DD0A4F80100000CE0701720A9
:1067C00038E02846FFF7A0FEC143090611D0A4F81F
:1067D0000100000CE07018202CE016202AE021F0C7
:1067E0005AF9C00761704FF01A0018BF4FF0FF3020
:1067F00020E0000A6070FF201CE0FF2830D001A8D4
:1068000000F06CFB20F07F4B8146C0B24FEA1B2AA0
:10681000FE2803D1FF2084F801A00BE0FF281FD041
:1068200001A800F06CFB81B2C2B2090A022A05D1AC
:10683000FF2061702070BDE80E0FF0BDC0070FD0C3
:10684000300C4FEA1B42A171627184F804A084F8F5
:106850000390A07084F801802570ECE70E2084E797
:1068600040F6FF602080E6E7E0B502AF01466846EB
:1068700013F09AFD21F0A7F903D19DF80110012032
:106880008CBD0199DD2900F218810020DFE811F0AC
:10689000DE00DE00DE00DE00DE00DE00DE00DE0008
:1068A000DE00DE00DE00DE00DE00DE00DE00DE00F8
:1068B000DE00DE00DE00DE00DE00DE00DE00DE00E8
:1068C000DE00DE00DE00DE00DE00DE00DE00DE00D8
:1068D000DE00DE00DE00DE00DE00DE00DE00DE00C8
:1068E000DE00DE00DE00DE00DE00DE00DE00DE00B8
:1068F000DE00DE00DE00DE00DE00DE00DE00DE00A8
:10690000DE00DE00DE00DE00DE00DE00DE00DE0097
:10691000DE00DE00DE00DE00DE00DE00DE00DE0087
:10692000DE00DE00DE00DE00DE00DE00DE00DE0077
:10693000DE00DE00DE00DE00DE00DE00DE00DE0067
:10694000DE00DE00DE00DE00DE00DE00DE00DE0057
:10695000DE00DE00DE00DE00DE00DE00DE00DE0047
:10696000DE00DE00DE00DE00DE00DE00DE00DE0037
:10697000DE00DE00DE00DE00DE00DE00DE00DE0027
:10698000DE00DE00DE00DE00DE00DE00DE00DE0017
:10699000DE00DE00DE00DE00DE00DE00DE00DE0007
:1069A000DE00DE00DE00DE00DE00DE00DE00DE00F7
:1069B000DE00DE00DE00DE00DE00DE00DE00DE00E7
:1069C000DE00DE00DE00DE00DE00DE00DE00DE00D7
:1069D000DE00DE00DE00DE00DE00DE00DE00DE00C7
:1069E000DE00DE00DE00DE00DE00DE00DE00DE00B7
:1069F000DE00DE00DE00DE00DE00DE00DE00DE00A7
:106A0000DE00DE00DE00DE00DE00DE00DE00DE0096
:106A1000DE00DE00DE000F0111010301070113019A
:106A2000E1000B010D01F300FF00FB000901F10083
:106A3000E700ED00EF00F700F900E3000501FD00BD
:106A40000101E900E500DF00EB00F5008CBDE52168
:106A50008CBDD2218CBDDF218CBDE4218CBDDA211F
:106A60008CBDE3218CBDE6218CBDDB218CBDDC21FE
:106A70008CBDD9218CBDD5218CBDE7218CBDDD21FC
:106A80008CBDDE218CBDD7218CBDE1218CBDD621F2
:106A90008CBDE2218CBDCF218CBDE0218CBDD021ED
:106AA0008CBDD8218CBDD3218CBDD4218CBDCD21F2
:106AB0008CBDCE218CBDD1218CBD01200E218CBD81
:106AC000BCB504AF0446684621461EF0D9F821F053
:106AD0007AF803D19DF80110FF201FE0019858B10A
