:1010000008FC032001110000A3F00300AD610600FD
:10101000A3F00300A3F00300A3F00300000000000E
:10102000000000000000000000000000A3F003002A
:10103000A3F0030000000000A3F00300A3F00300EE
:1010400059110000C1110000A3F00300A3F0030038
:10105000A3F00300A3F00300A5F503004512000070
:1010600091120000A3F00300A3F003003912000066
:10107000A3F00300CD110000A3F00300A3F00300D0
:10108000A3F003007DF60300A3F00300A3F0030028
:10109000AD110000A3F00300A3F00300A3F00300D0
:1010A000A3F00300A3F00300A3F00300A3F00300E8
:1010B000A3F00300A3F00300000000000000000004
:1010C000A3F00300A3F00300A3F00300A3F00300C8
:1010D000A3F00300A3F00300A3F003009D1200009F
:1010E000A3F00300A3F00300A3F00300000000003E
:1010F00000000000A3F0030000000000A3F00300C4
:101100003DF0D2FF0E480F490022814201D004C0B9
:10111000FBE70D480D490E4A814202D008CA08C0BB
:10112000FAE70C484FF47001026842EA01020260DB
:10113000BFF34F8FBFF36F8F3BF0EAF800DE000084
:101140008022002098260120080000207C22002018
:10115000A819070088ED00E0B0B502AF5EF012FEFE
:10116000104C206828B1002020600F4824303EF049
:1011700017FD606850B10C4D0020606005F124003F
:101180003EF00EFD05F11C003EF00AFDA06838B1EE
:101190000020A06004481C30BDE8B0403EF000BD17
:1011A000B0BD00BF1C0100403811012080B56F4662
:1011B0000248BDE880403EF0F3BC00BFFCF70020D1
:1011C00080B56F46BDE8804060F06EB9F0B503AF02
:1011D0004DF804BD154E002030603FF099FE144DCF
:1011E0000446A869F0B94FF0FF30A861686A78B189
:1011F000A96A88420CD0D6F808140170D5E9090113
:1012000001306862884204BF05F11C003EF09CFC7E
:10121000A8690130A86120465DF804BBBDE8F04034
:101220003FF0ACBE03483DF0BFFD00BF00D1004021
:10123000B411012040DD060080B56F46BDE8804056
:1012400060F0CEBFD0B502AF0F4C206930B1102096
:10125000C4F808020D4834303EF0A2FC606830B19A
:101260000220C4F80802094834303EF099FC206896
:1012700040B10120C4F8080204483430BDE8D04031
:101280003EF08EBCD0BD00BF00710040381101207F
:1012900080B56F46BDE8804060F0FAB8F0B503AFA6
:1012A0004DF8048D84B0344C206858B1334D012082
:1012B000C4F8080205F124003EF072FC05F12C0090
:1012C0003EF06EFCE06D38B14FF40000C4F8080247
:1012D0002A482C303EF064FCA06A38B14FF480609C
:1012E000C4F8080225482C303EF05AFCA06D28B105
:1012F0000020A065214824303EF052FC206EB8B397
:1013000000202066D4F86C631C48C4F86C63BFF3FB
:101310005F8F50E8051F314340E80512002AF8D1DD
:101320000020BFF35F8F8DF80C0007200DF104083B
:1013300002900120019040462DF011FF012817D1A5
:1013400001F01F040D4626FA04F0C00704D0284619
:1013500030F062FB3EF024FC84F0100026FA00F02E
:10136000C007E8D0284630F07DFB3EF019FCE2E7EC
:1013700004B048F0D6BD00BF007102403811012012
:1013800080B56F468A68930105D4520108D4BDE840
:1013900080403DF040BA0068BDE880403DF071BD3E
:1013A0000068BDE880403DF056BED0B502AF0446AF
:1013B00008302DF0C9FE012808D1D4E900021144FB
:1013C000B1FBF0F202FB10110120D0BD0020D0BD16
:1013D000F0B503AF4DF8048D054625480068C005FB
:1013E00038D108680C46D0BB4FF0FF3090462060E3
:1013F000207B012805D104F5CC703EF0A5FB217BB4
:1014000000E00021D4E90102904201D1C9070FD0C8
:1014100000212173411C00EB4000B1F1200218BFF4
:101420000A46626004EB800111F80E6F042E07D1AA
:10143000D8E9001204F5C8703EF093FB042603E0DF
:10144000681C013149F0A9FB20682E700130206032
:1014500048F067BD07483DF0D9FE3DF0FFFE064865
:101460003DF0C8FE45F0A6F83DF0ACFF3DF0F6FEBD
:1014700004ED00E03D00000089000000F0B503AF7E
:101480002DE9800F2DED0C8BE2B08B460646D0E99E
:101490000001CDE914B680F003020A43129202F073
:1014A0007382084318BF0120119040F08481307C82
:1014B000CB4D80B1032840F04C82304610F8281FF5
:1014C00010901038DFE811F0050027008E135A0045
:1014D0000A0000682CE0B068F06022E0314611F8A4
:1014E000CC0FA1F1A00C0C9180B1032816D1354688
:1014F00015F8C80FA5F1940458B103280F95CDE94C
:101500000D4C00F0DE80B7483DF0F5FCDCF8000043
:1015100093E02068ACE0B4483DF0EDFCB3483DF00A
:10152000EAFC3246002142F8180F02F8101F109210
:10153000F061C16C04223162006DC6E90C12706268
:1015400006F130002DF000FE012868D10329F16278
:101550000BD8F06908442946007E49F073F828BF8B
:1015600001F5407149F06CFC086016A848F035FBA5
:1015700048F0FFF8C6E90E1286F84000DBF80010CC
:1015800006F138003EF06CFC002840F01F82306A03
:101590000025F16A4FF07D084FF00109814208BF34
:1015A000756A1C2000EBC50A052D32D8F069284465
:1015B00054303EF007FAF46A042C80F01A82F16984
:1015C00001EB4406214411F82510884212D03EF068
:1015D000CFF8A0FB080201FB0821000B40EA0150F4
:1015E00001040AD036F80A1029B1401A80B2132833
:1015F00003D97AE1002026F80A00159EF069011946
:1016000011F8251009B180F85A9001350AF1080A3D
:10161000CAE7F06A032840F25B81714D90E7F069F8
:1016200090F85A10002940F04B81B44600214CF844
:101630002C0F624602F8A01F0C9230631830002174
:1016400001220BE0435C2C46202B03F01F0328BF34
:1016500004F54074013102FA03F323600429F1D147
:10166000306B344644F8340F0021254605F8941FAA
:1016700050A900220023062B03D041F82320013378
:10168000F9E754300022062A04D0831841F82230AA
:101690000132F8E70F950021CDE90D4C50A816AAAC
:1016A0000023242B07D010C842F8234002EB830408
:1016B00006332175F5E706F1380016A9902263F08C
:1016C000E3FB4FF000094FF0000806F138001390DB
:1016D000B8F1900F65D006EB080404F1380194F8D6
:1016E0004C00E8B1032840F089811398264616F88B
:1016F000482F4044A6F10C01D2B1032A40F0818169
:10170000A3461BF8452FABF10505002A41D0032A5B
:1017100040F07A814FF0000994F844008A4627E0AF
:101720000868A2464AF83C0F564606F80C9F04E0AB
:1017300000F1040A00F110060868254645F8400F3C
:1017400005F1050BC5F8049025494FF0000949F053
:10175000F6FD38BF4FF0A041022301EB8201D1F822
:10176000002763F31142C1F80027007884F8440091
:10177000149909683EF072F9002864D0032008F13A
:1017800018088BF80000307084F84C00DDE914B6BE
:101790009EE700F1080200F10D0B28688A46154605
:1017A000D2E70F99032008700C9908700420109953
:1017B000087003203074D6E93401084318BF0120B3
:1017C000139040F0768196F8000106F1D808DFE822
:1017D00010F00F0009120912E000A402CE0000BFB1
:1017E00008050050A88A060030890600608A0600B5
:1017F000D6F8F800C6F8FC00BD480068C00543F004
:10180000EF85BC4C2068002840F0F482D4F88400B6
:10181000022880F0FC80002101302160C4F884009F
:10182000D4E9025616A83FF093FFDDE91530DDE953
:10183000171203F1E80CC3E936561E46ACE8070060
:10184000C3F8E040F5E004F138000C303EF0F2F867
:101850004FF0010828468BF800802BF04BFD5046D6
:1018600086F800802BF05FFD139884F84C802CF0F4
:10187000C5FA159E0D9886F8C8802CF03CFE306B9A
:101880000021DDF850B09C4D183004290BD0425C8B
:101890009A4B202A02F01F0238BF2B1D013108FA93
:1018A00002F21A60F1E70C99012008700E9991F884
:1018B000A000032804BF01F108002CF01CFEF06911
:1018C000002180F85A10F069C0E91311F06930E680
:1018D000F169894D08448949007E48F0B3FE38BF5C
:1018E000291D49F0ADFA08602AE64FF0000C26F8F1
:1018F0000AC0159EF16901EB85010A5D82F00102C3
:101900000A55F169F26AC1E913250121F26982F8E9
:101910005A10F26A032A0CD8F36977481A44774BB5
:10192000127E202A02F01F0238BF031D01FA02F2C4
:101930001A60F269280600EB044002EB85026E4D46
:10194000125D86F82810104486F820C000F1C060AF
:10195000B06106F11804DBF80010204623F06AFE9F
:10196000002835D120462BF09DFCF068D9E596F88B
:10197000121106F5897906F5B47406F58C70DFE866
:1019800011F00500520031111C000B00D6F80811AF
:10199000F7E0D6E9551060E096F86811D1B1032957
:1019A00044D1159A02F5AE7592F85C11F1B1032994
:1019B00000F0188152483DF09EFA96F8681171B116
:1019C000032900F040814F483DF095FA0320EEE6F0
:1019D0000420EFE696F86921D6F86411E4E096F861
:1019E0005E31B6F85C21D6F858111BE1D2F85811D7
:1019F000E9E0454A204604213CF054FD43483DF0CF
:101A00007AFA43483DF077FA42483DF074FA0020F4
:101A1000414B2060BB218DF858004048009016AA29
:101A20003F483DF010FA3F483DF065FA3E483DF032
:101A300062FA00200121C6E9581086F8EC0186F808
:101A40005001D6F8FC00C6F8E80106F58470C6E936
:101A5000421806F5B071C6E955103E900DF5A07913
:101A6000324800253A914FF0000A19903EA818908C
:101A70002F4817903AA8169016AC102D11D0601967
:101A800061595A4640680369484698479DF8436142
:101A9000032E02D0042E02D04CE04FF0010A08358C
:101AA000EBE7159E5FEACA7000F09E81032086F87E
:101AB0000001D6E97C01084318BF0120109041F0D5
:101AC000B98306F5FC7A96F8C402CDF83CA000284C
:101AD00000F0C78096F84002DFE810F0060084109E
:101AE000841039013C012B01D6F83802C0E000BF58
:101AF00004ED00E020FF0020080500500C08005015
:101B0000E48E060024A4060040890600488B0600E7
:101B1000288B0600088B0600C4EC060040F6060081
:101B200084F506008089060014A4060070C0060033
:101B30005CC006009DF842018DF80E01BDF8400121
:101B4000ADF80C015198159D4490BDF84801ADF8D1
:101B5000140105F5B070DDF84A412CF0F1FC022EBD
:101B600040F0B680BDF8141105F5897944982E46E9
:101B7000A5F81011002185F81211D5F8FC10C5E95F
:101B8000421096F80C0106F5B474C0073BD0002053
:101B9000C6F8641186F8680196F80D0100F001029C
:101BA00086F8692106F58C70C6F8601191F8383016
:101BB000022B21D186F85D21002286F85C2106F5F2
:101BC000AE75C6F85811CA79012A13D1159B0022A7
:101BD000C3F81C1193F85D1183F8222181F00101F3
:101BE00083F82311DBF800101DF014FCC0B20828A4
:101BF00000F0DD8001202870159E0120207001205A
:101C000089F8000015E7002096F81031B6F80E218B
:101C100086F8680106F58C70C6F8581186F85E31B2
:101C2000A6F85C2186F86631A6F86421C6F8601132
:101C300091F83A50AB42DFD10023A6F8202186F874
:101C40002431C6F81811DBF800100DF04FFAC0B2BD
:101C50000121082808BF0321159E2170CFD1032040
:101C6000AAE0002086F84002D6F8C002C6F8380282
:101C7000C6F83C0216A83FF075FED74BDDE916C149
:101C8000189A1B68DB0543F0AB83D44B1C68002C0F
:101C900040F0B080D3F8C440022C80F0AE8015989C
:101CA00000251D60D3E90256C0E982560646C0F8F9
:101CB00000224FF4C572C0F81032C0E97EC1601C2A
:101CC000C3F8C40006F5067000233DF0F8FFAAE053
:101CD0009DF80E1105F584708DF85E10BDF80C119D
:101CE000ADF85C10DDF85B10CDF8431116995091FA
:101CF000DDF843215099C0F803200160002085F8E9
:101D00001A01449885F80F612E46C5F81001BDF8F8
:101D10001401C5F81641A5F8140106F58474594656
:101D2000204623F0A7FB00283FD120462BF0C8FA1D
:101D30007FE696F85C0206F51779DFE810F00500FB
:101D4000120A530F28001F00D6F858826DE1D6E919
:101D5000920173E096F8780206F51E7958B10328CF
:101D600041F0FF8196F8740250B3032800F06085BB
:101D70009B483DF0C0F8D6F84882E7E096F870023C
:101D8000C00747D1D6F86C8206F518745DE196F865
:101D9000800206F52075DFE810F005004000250FF1
:101DA00030071600D6F860829EE104207FE6159E7B
:101DB000032020702870042089F80000052076E6B2
:101DC000D6F84C82C7E096F8980206F52674DFE84C
:101DD00010F007002700090FD709E509EF09FC09F2
:101DE00096F8990201F0C1B97E48A1215FF8CC2292
:101DF0003BF0E6FC7C483CF0D7FF0020BE21186099
:101E00008DF858007948009016AA79485FF8F832A2
:101E10003DF019F877483DF06EF877483DF06BF8E3
:101E200076483DF068F8002006F5087186F89402BF
:101E300006F5067006F5127282E80304DBF800204E
:101E400035F0EFFD06F51279022400286BD096F8E4
:101E5000940228B1032841F08481D6E9A31015E04B
:101E60000020D6F8503286F8880206F5157186F8FB
:101E70006C0206F51C700122C6F87022C6E9952393
:101E800003F11002C6E9A310C6F87422CDE942108E
:101E90000DF158085A480025539043A852904FF02E
:101EA000000A5848519042A8509050AE102D11D0C1
:101EB000701971595A464068036940469847BDF801
:101EC0005840022C02D0032C02D00DE04FF0010A42
:101ED0000835EBE75FEACA7000F00187159E032022
:101EE00086F8940201F0A1B93EAD08F102010E227C
:101EF00047F05CFFE00744A8014604D095E81C00C9
:101F00001CC1012404E01CCD1CC100242A880A80C5
:101F1000159E0121DDF83CA086F894123AA92CC840
:101F20002CC100880880A6F8284206F22A203AA987
:101F30000E2263F0C1FED6F83C82022C68D100204C
:101F4000C6F8488286F8780206F51E790020C6F8A1
:101F50004C8286F87402D8E9100180F00200084330
:101F600000F0A28398F890503DF002FC044698F8E7
:101F70007800012840F09083B2EE088A98F890002B
:101F80000E46002800F00282D8F85000C00700F08A
:101F90005C82D8E91623204631463DF0A1FE47F089
:101FA00009FA00EE100A9FED181ACDF8309080EE75
:101FB00001AA0E95B7EE000AB4EE40AAF1EE10FAAF
:101FC00000F146829FED110AB4EE40AAF1EE10FA3C
:101FD00000F33E823EE200BF04ED00E0B0FF0020CF
:101FE000D4A30600B889060044E40600A8F8060059
:101FF000E8F70600C4A30600B4A3060054A4060034
:10200000948A0600808A060000007A440000484254
:1020100006F50A7090E81E00002089E81E0006F50B
:10202000177986F85C02C6F85882B6F8480206F2BC
:102030004A21C0074CD006F518740C2247F060FE08
:102040000020C6F86C8286F8700298F8D400FF2849
:102050001EBF96F86A12FF29884234D116A80CCC0C
:1020600001460CC122780A7096F86912032913D030
:10207000D8E9102382F002021A430AD00022C8E9EC
:102080001422C8E91022C8E91F2288F89020C8E964
:1020900022220022C8F8DC2018C808F1E00218C289
:1020A000007888F8E9101070D8E9000180F002008B
:1020B000084308D000204FF08241C8E90000C8E979
:1020C0000C00C8F83810012086F8700201F09DB8A5
:1020D00006F519700E22C6F8608263F0EDFD06F574
:1020E0002075002086F8800206F2722006F519712C
:1020F0000E2263F0E1FD98F8D400CDE90B59FF28DA
:102100001CBF96F87E12814241F07D8040F066FD52
:10211000159B0024122000261E2810D0011D1844F3
:102120005A1890F8620230B101280846F4D1B2F88A
:102130005C420846F0E7B2F85C620846ECE798F8C3
:10214000D61098F8D50098F8D720002918BF644217
:10215000002818BF7642B146A246002A1CBFA146FD
:10216000B246D8F8D80041F0F9FA054698F8E900E7
:102170000321CE46012888BF811EC8B208F1E001C4
:10218000D446DFE800F002CD5B8FD8E910010E9550
:1021900080F0020098F8E320084398F8E25098F89D
:1021A000E13098F8E0000D901CBF98F890000028EE
:1021B0000AD00020C8E91400C8E91000C8E91F00CF
:1021C00088F89000C8E92200D8E9000180F00200F8
:1021D000084300F0E18446EA04000A930604CDE9CE
:1021E00008523DF0C5FADDE908524FF0000C0A9B99
:1021F0004FF0000E002E00F0CF84B2EE009A04469D
:10220000D8F80000C00700F05482D8E90223204625
:102210000E463DF065FD47F0CDF800EE100A1FEDCB
:10222000861A80EE018AB6EE000AB4EE408AF1EE1C
:1022300010FA40F1398398ED0E8A3DE2D8E9100199
:1022400098F8E23080F0020098F8E160084398F8CE
:10225000E04098F8E3000E951CBF98F89010002914
:102260000AD00021C8E91411C8E91011C8E91F11EA
:1022700088F89010C8E92211CDE900037146029058
:1022800008F1DC00624640F05DFBDDF83CA040EA6E
:1022900001020B9D120440F0CC80159EDDF83090B9
:1022A00000F0B1BF159E0A227546E14606F2862A65
:1022B00048F0D9F996F88C0208F1DC0496F88D12F2
:1022C000012222EA0003204622EA01010E91009138
:1022D00029464A460D9340F060FB09B200B200293E
:1022E0000A46034648BF5242002848BF5B42B6F93F
:1022F00086929D182DB24D4540F335831EB20FFADC
:1023000082FB00235E4580F2E6800029C8BF0123DE
:10231000159A92F88F5202226B4018BF0322E4E014
:10232000D8E9100198F8E52080F0020098F8E46000
:10233000084398F8E34098F8E23098F8E1000D90EF
:1023400098F8E0000A9000F0008306A880E80C509E
:102350003DF00EFA0DF1180E059098F878009EE801
:102360000C50012840F0F18298F890000491002868
:1023700000F02082B2EE040A0020C8E91400C8E987
:102380001F0088F89000C8E92200AEE2D8F84000AB
:10239000C00700F08181D8E91223204631463DF084
:1023A0009FFC47F007F800EE100A1FEDE91A80EED7
:1023B00001BA98ED1C0AB4EE40BAF1EE10FAC0F280
:1023C0006B8198ED20AA98ED1F9A2AEE0A0A09EE71
:1023D000090A3EF077F99FEDF11AB4EE41BAF1EE39
:1023E00010FA00F2578298ED191A47F06BFFC0F20D
:1023F000518298ED1A1A012088F89000B5EE401A23
:10240000F1EE10FAC4BFB4EE410AF1EE10FA09DDA4
:1024100081EE000A2AEE001A29EE000A88ED201A41
:1024200088ED1F0A002108F15002C8E9221153C2A9
:10243000AFE5F20718BF4942E20718BF4042002249
:102440000023159EDDF83090C6E30E95CDF8309050
:10245000B0EE48AA98ED209A002598ED1F8A012039
:1024600029EE090AC8E91405C8E9164608EE080A63
:102470003EF028F998ED1B1A47F024FF0ED5C8E965
:102480001455C8E91055C8E91F5588F89050DDF873
:1024900030900E9D0020C8E92200FDE098ED1D1A45
:1024A000B5EE401AF1EE10FA69DD47F00BFF66D584
:1024B00080EE010AB0EE001A98ED182A31EE401AAB
:1024C00020EE011A9FEDB60A32EE000A32EE402AE3
:1024D00001EE020A55E00028C8BF0123159A92F8C0
:1024E0008E5204226B4018BF05221AF80220C9F14F
:1024F00000054FF0000A0A920AB200B2002A114603
:10250000034648BF4942002848BF5B42194409B20C
:1025100049451CDD5E4506DA0021002A4A46218035
:10252000C8BF2A4606E000224946A8F8DE20002857
:10253000C8BF29460D9B0E980090204640F02DFA0A
:102540000AF1010ABAF1FF0FD6D14FF0FF0A5E453A
:10255000DDE90B594FF00000ACBFA8F8DE00208089
:10256000DDE914B6BAF1000F00F04B860A9986F83F
:1025700091A286F8900286F8841200F033BE98ED9E
:10258000180A29EE00BADDF8309028EE000A98ED1E
:10259000228A0E9D98ED239A88ED20BA0AEE008AD1
:1025A00088ED1F0AB0EE480A3EF04CF9BDEEC01AA5
:1025B0009FED7CCA9FED7CDA0AEE0B9A48F0F2FDA3
:1025C00011EE104ABCBF48F20004CFF6FF74F1EEE2
:1025D00010FAC8BF47F6FF74B4EE400AF1EE10FAE5
:1025E00068BF002400EE104AB8EEC00A38EE408AF8
:1025F000B0EE490A3EF026F9BDEEC01A88ED228AF7
:1026000048F0D0FD11EE102ABCBF48F20002CFF610
:10261000FF72F1EE10FAC8BF47F6FF72B4EE400A3F
:10262000F1EE10FA68BF002200EE102A52EA040010
:10263000B8EEC00A39EE400A88ED230A2CD098F88B
:10264000E93001211820CDF83090032B4FF000091C
:102650004FF018064FF001034FF000050BD198F82A
:10266000E05098F8E19098F8E23098F8E36098F834
:10267000E50098F8E410029008F1DC00CDE9006173
:10268000214640F05FF906460843000440F0B2805E
:10269000159EDDF8309007E0159E2DB198F890005A
:1026A00010B90020C8F8DC00012086F8740200F0A0
:1026B000ACBD0E46B0EE498A00200121C8E90010E9
:1026C0000FFA89F000EE100A0FFA8AF088ED0E8AF0
:1026D000B8EEC0AAC8E9024600EE100AB8EEC0BAC9
:1026E0002BEE0B0A0AEE0A0A3DF0ECFF98ED071AF2
:1026F000B0EE403A98ED082AB7EE00CA47F0E2FD86
:10270000B5EE401AC8BFB0EE413AF1EE10FAC8BFBC
:10271000B0EE430A80EE081A9FED240AB4EE421A86
:1027200031EE424AF1EE10FAB0EE403AC8BFB0EED8
:10273000443A98F82C00002800F08B80012840F0E3
:102740009680B5EE403AF1EE10FAB0EE4C0A40F346
:102750008D8198ED092AB7EE000A12EE100A30F0CA
:10276000004200F08381B0EE401A98ED054A03EE76
:10277000041A11EE103AB3F17E5F00F07781B0EEEB
:10278000C13A13EE101AB1F1FF4F98BFB2F1FF4FEB
:1027900040F25E8231EE020A68E100BF000016439B
:1027A000CDCC4CBD000000C700FEFF46000000007D
:1027B00000007A44B2EE048AD8F84000C00700F066
:1027C0009280D8E9122305983DF08AFA46F0F2FD8E
:1027D00000EE100A1FED0A1A80EE010AB6EE001A8A
:1027E00047F070FD74D50DF1180E98ED210A9EE8A2
:1027F0000C507AE0D8F8D8000C4640F0AFFF159A9C
:10280000002182F85A02E80782F8701218BF764257
:10281000A2F858625FEAC97008BF6442DDF83090E0
:1028200016460120A2F85642C2F8521282F850020F
:10283000DBF8001006F5147026F028FA00283FF4A3
:1028400033AF032086F8780286F87402042000F083
:10285000ECBCB5EE403AB0EE4C0AF1EE10FAC2BF55
:1028600098ED051AB7EE000A03EE010AFEE098EDB6
:102870000A1AE74B31EE431A11EE102AD00F22F05C
:102880000041994219D3B1F1FF4F40F28480B0EE7C
:10289000410AE5E00020C8E91400C8E91000C8E9D1
:1028A0001F0088F89000F5E59FEDDA0AB4EE408A43
:1028B000F1EE10FA3FF7FEAEFEE6D74A914275D927
:1028C000D64A914200F2898080F00101081A91E015
:1028D0009FEDD01A0DF1180EB4EE410A9EE80C508F
:1028E000F1EE10FA01DDB0EE480A00200121C8E93E
:1028F00010100598C8F848000498C8F84C000FFA62
:1029000089F004EE100A98ED1F1A9FEDC53A0FFAF0
:102910008AF0B8EEC44A9FEDC35A21EE031A98ED2F
:10292000202A88ED210A84EE004A04EE051A88ED7B
:102930001F1A22EE031A02EE100AB8EEC22A82EE25
:10294000000A00EE051A88ED201A08F1DC00029258
:1029500071466246CDE900463FF0F4FF0246084367
:10296000000406D1159EDDF83CA0DDE90B5900F00E
:102970004ABC0A980B460E95C00718BF52420D98E4
:10298000C00708BF5B4200210020159EDDF83CA077
:10299000DDE90B5920E1A44B99420ED9B2F1FF3F7A
:1029A0000EDD9FEDA20A21EE000A59E00020B1F1F0
:1029B000645F4BD9B0EE412A2AE0B2F1FF3F0CDC54
:1029C0009FED9B0A9B4A80EE010A91428DED160A0B
:1029D0009DED160A1FED8B0A42D897499FED972A65
:1029E00001EB800090ED000A01EE020ABDEEC00A84
:1029F00010EE100A00EE100A9FED912AB8EEC00A00
:102A000000EE021A9FED8F2A20EE020A31EE402AD4
:102A100022EE023A9FED8C4A9FED8C5A03EE045A47
:102A2000B0EE424A03EE454AB0EE003A22EE042AE6
:102A300033EE443A82EE032A32EE400A31EE000AC7
:102A400030EE0C0A60B13DF0C3FE09E09FED770A5D
:102A500031EE000A8DED160A31EE0C0A9DED161AC4
:102A600030EE0C0A98ED061A81EE000A98ED062A5F
:102A7000B0EE403A98ED041AB4EE420A98ED0C8A92
:102A8000F1EE10FAB4EE4C2A98ED0D9AC8BFB0EEF4
:102A9000423AF1EE10FAC8BFB0EE430A21EE00CA86
:102AA0000CEE0A8AB0EE480A3DF0CCFE0CEE0B9A12
:102AB000B0EE40AAB0EE490A3DF0C4FE1FEDC61AC2
:102AC00047F6FF7EB4EE41AAF1EE10FA23DC1FEDCB
:102AD000CB2A4FF4004EB4EE42AAF1EE10FA1AD40B
:102AE000BDEECA3AB4EE42AAF1EE10FAB4EE41AA33
:102AF00013EE10EABCBF48F2000ECFF6FF7EF1EEF7
:102B000010FAC8BF47F6FF7EB4EE4AAAF1EE10FAFB
:102B100068BF4FF0000EB4EE410A0A9BF1EE10FAC6
:102B2000DDE9085247F6FF7022DC1FEDE22A4FF480
:102B30000040B4EE420AF1EE10FA19D4BDEEC03AEC
:102B4000B4EE420AF1EE10FAB4EE410A13EE100AA6
:102B5000BCBF48F20000CFF6FF70F1EE10FAC8BF1C
:102B600047F6FF70B4EE400AF1EE10FA68BF00209D
:102B7000844600B200EE100A0FFA8EF001EE100A41
:102B8000B8EEC00AB8EEC11A39EE400A38EE411A62
:102B900088ED0D0A88ED0C1A15FB0EF001B281428A
:102BA00040F0A38012FB0CF1159EDDF83CA00B9DBC
:102BB0000AB28A4240F0A080DDE90C92D20718BF29
:102BC0004042DA0718BF494241EA000200231204DA
:102BD0004FF0000200F017830024A6F8860286F862
:102BE000A44201200E9C86F88E42A6F88C22A6F8FC
:102BF0008A32A6F8881286F88402DBF8001006F5FF
:102C0000217026F043F8002800F0FD82032007E33E
:102C100050ACAE420000C8421872B13E9215853FDA
:102C2000CCCCCC3E9A99193F1772B1420000007F7C
:102C300000008080B4F1CF4204B306003BAAB83F45
:102C4000007231BF8EBEBF35155235BB8FAA2A3EEA
:102C50000024002B16D5D50D0224962D12D8BE4C7B
:102C6000E51D0024AA420DD99624A4EBD25422FAE1
:102C700004F505FA04F60024B24204BF05F001048D
:102C8000C4F10204B2F17E5F17D0B2F1FF4F1DD143
:102C9000B1F17E51C8BF0121B8BF4FF0FF31C9B2B9
:102CA00000293FF4E3AE01292DD19FEDAC0AB0F12C
:102CB000FF3FC8BFB0EE420A53E080EE010A002891
:102CC00048BFB0EE401AB0EE410ACFE6B0F17C5FEB
:102CD00023D0B0F1804F28D121EE010A41E05FF806
:102CE000FC0CA1219E4A3AF06BFD0FFA8EF047F6DC
:102CF000FF7181EAE03055E70FFA8CF147F6FF7279
:102D000082EAE13158E7B1EE420A9FED941AB0F140
:102D1000FF3FC8BFB0EE410A23E0B3F1FF3F04DD3F
:102D2000B0EE410A3DF0CEFC1BE029B1B1F17E5F6F
:102D300018BFB1F1FF4F17D1002880EE030A48BF3A
:102D4000B0EE403A002B0AD5A1F17E50204300F0AE
:102D5000F580B1EE430A012C08BFB0EE403AB0EE68
:102D6000430ADDF850B081E6B7EE008A002B00F18F
:102D7000E880B2F19A4F07D9774A914280F09B815F
:102D8000002800F1D880A4E19FED760A6FF07E0262
:102D9000B1F5000F744D23EE000A38BF10EE101A83
:102DA00038BF6FF09602002302EBE1526FF3DF5160
:102DB00001F17E54A94207D36C4D0123A94222BFE1
:102DC00001F17C5401320023694901EE104AB7EE4B
:102DD000005A40F6FF7501EB830191ED000A30EED9
:102DE000014A31EE403A85EE044A23EE045A15EECC
:102DF000101AA94306EE101A5E4901EA540101EBCC
:102E0000435101F1015107EE101A30EE470A07EE67
:102E1000463A9FED597A30EE010A35EE061A00EE79
:102E2000463A24EE030A9FED554A25EE053A03EE95
:102E3000047A9FED534A03EE074A9FED527A03EE60
:102E4000047A9FED514A03EE074A1FED8A7A03EE9A
:102E5000047AB0EE084A23EE033A23EE073AB8EEBE
:102E6000087A01EE003A26EE061A31EE044A34EEF4
:102E7000034A14EE101A6FF30B0104EE101A34EE2D
:102E8000077A37EE411A33EE411A25EE011A05EEA4
:102E9000102AB8EEC55A00EE041A26EE040A9FED79
:102EA0003B4A30EE013A13EE101A6FF30B0103EEBA
:102EB000101A374933EE400A01EB830131EE400A24
:102EC0009FED341A23EE011A00EE041A91ED000A68
:102ED000314901EB830191ED004A30EE010A9FED8B
:102EE0002F1A23EE013A33EE001A34EE011A31EEB6
:102EF000051A11EE101A6FF30B0101EE101A31EEE4
:102F0000455A35EE444A34EE433A30EE430A40F631
:102F1000FF7122EE000A884303EE100A32EE432AC4
:102F200002EE010A21EE031A31EE003A13EE101AF6
:102F3000B1F1864F38DD9FED1A0ACCE033EE430A3B
:102F400007E0012C00F0CE80002C7FF412AF31EEB0
:102F5000410A80EE000A04E7F8FF7F3F000000000E
:102F6000708A06000000804B72C41C00D7B35D005D
:102F70004CB3060000F0FF1F55326C3E42F1533E49
:102F800005A38B3EABAAAA3EB76DDB3E4F38763F1A
:102F900064B30600C623F6B80CB306000040763FC3
:102FA000CAF249713CAA383333EE412A40F08A8094
:102FB0001FED043A30EE033AB4EE423AF1EE10FA65
:102FC000B9DC02204FF4000200EBD150012300F0E5
:102FD0001F00162422FA00F042181046A4EBD25427
:102FE00063F3DF5004F01F04E040002903EBD251EB
:102FF000E14B01F01F0148BF404243FA01F111408B
:1030000002EE101A31EE421A30EE012A12EE101AB8
:1030100047F6FF729FEDD94A91439FEDD95A02EED0
:10302000101A32EE411A30EE410A9FEDD61A20EE08
:10303000010A9FEDD51A02EE010A9FEDD41A22EE85
:10304000011A31EE002A22EE023A32EE411A03EE64
:10305000045A9FEDCF4A30EE410AB7EE001A03EE54
:10306000054A9FEDCC5A02EE000A03EE045A9FED8A
:10307000CA4A03EE054AB0EE425A03EE445AB8EE8D
:10308000003A22EE054A35EE033A84EE033A33EE77
:10309000400A32EE400A30EE010A10EE101A01EB3F
:1030A000C051B1F5000FACBF00EE101A3DF090FB1F
:1030B00028EE000A55E60F32914216D900283FF754
:1030C0003AAF06E013EE100A20F00042B348824205
:1030D00037D99FEDB30A28EE001ADDF850B021EE83
:1030E000000AC3E4BFEE008A43E6BFEE000A40F6E2
:1030F000FF72BDEE001A33EE000A1FED5E3A00EEDD
:10310000013AB6EE001A00EE431A20EE003A23EE22
:10311000011A9FEDA43A21EE033A9FEDA31A00EEA7
:10312000013A9FEDA21A20EE010A30EE031A11EEC9
:10313000101A914301EE101A31EE400A33EE400AA4
:10314000E5E69B48814206D1B4EE420AF1EE10FA60
:103150003FF637AFBDE70020B2F17C5F3FF631AFFD
:1031600056E75FF804023BF0C6FE002186F8A00295
:1031700086F8BC12C6F89C12C6F8A11286F8A512F1
:1031800047F0E1FC002844D116A8A42246F0BEFD79
:1031900046F0EFFAC6E9A81286F8A80247F0C7FC85
:1031A000C8BB002086F8BC02C6E9A700A6F8A402A6
:1031B00047F0C9FC88BB16A8A42246F0A7FD46F03C
:1031C000D8FAC6E9A81286F8A80247F0B0FC012197
:1031D000002818BF062186F8981220D196F8900290
:1031E00096F891A250450CD20130002186F8900249
:1031F00006F5267496F8840286F8981286F89902E5
:10320000B3E7DDF83CA00120287089F80000FEF744
:103210000ABE032002E0042000E005202070042004
:103220000321287089F80010052086F84002032049
:1032300086F8C402D6E9B201084318BF01200F90F6
:103240006ED196F80C0306F5347440B196F8E80296
:10325000042811D003282BD0D6F8E00206E0002085
:1032600086F8E802D6F80803C6F8E002C6F8E402D9
:1032700020463EF0D7FB16E096F8FD0240B1032849
:103280000BD196F8F502C0070AD196F8F41223E0A4
:1032900096F8FC12D6F8F8021BE046483BF02BFEED
:1032A00045483BF028FE0020C6F8F04286F80403AB
:1032B000DBF8001006F53C700BF012F8C0072AD1BD
:1032C000002086F8FC1286F8FD02D6F8E402C6F863
:1032D000F802CAB2C6E9BC02C8B2062809D007285B
:1032E0000BD141F60100ADF85C0034481690032084
:1032F00006E033481690042002E03248169002207F
:10330000ADF8610016A822F057F8012086F8FD02FA
:1033100086F8F502C7E7032086F80C0386F8E80272
:10332000D6E9C40150EA010218BF012240F021830E
:1033300096F820030D9200285ED0032861D196F8FC
:103340004C0306F54A7A06F55378002800F06F80A2
:10335000032840F0A78096F8300306F54C79DFE8A3
:1033600010F00700AD004104EB004C02DE0030011C
:10337000DAF80000BAE000BF000080FF4CBB313338
:103380000EEADDB51872313F8CBEBF350072313F99
:1033900055B38A38610B36BBABAA2A3E00001643F0
:1033A0006042A20D3BAAB8BF70A5EC3600AAB83F98
:1033B000000016C37089060060B9060000000118FD
:1033C0000000010600000101088A06004CC006004A
:1033D000E8AC0600B0880600D4A20600B88A060051
:1033E000640000006100000004A30600E4A20600DF
:1033F00014A30600F4A20600D6F81803C6F81C03AE
:1034000064E096F8360306F2363ADFE810F08B01F6
:103410004F00EB0305001300DBF8001006F55270B7
:103420003CF01EFD002800F0848103209BE2D6F8CA
:10343000480354E096F84A0306F54E7906F24A38F6
:10344000DFE810F090013800D003C501050006F256
:1034500057300E9096F8570306F5547BDFE810F0CE
:1034600005002600C203F7010800B6F8540389E1FD
:1034700096F8660368B1032824D1B6F85C030021EE
:10348000A6F85C13012809D1B6F85E53D6F860039C
:1034900002E2B6F86453D6F85803F6E15FF8D800B4
:1034A0003AF0F0FF5FF8DC003BF025FD5FF8E0004C
:1034B0003BF021FD5FF8E4003BF01DFD5FF8E80004
:1034C0003BF019FD5FF8EC003BF015FD0021C6F85C
:1034D000480386F84C1306F54A7A06F5537800211E
:1034E000C6F8280386F8301306F54C79C6F82C0385
:1034F000D0E90612114317D00168C9071CBF90F824
:103500002710002940F06E81D0E9042316A83CF072
:10351000C5FB46F02EF9C6E9CE1286F8400347F007
:10352000FAFAC0B1052074E1002186F83C1300F1DD
:1035300022012830C6E9CD0147F0FFFA002840F00B
:10354000658196F83C032BF0D0FC3CF011F9D6F8DD
:103550002C23C2E90601D6F82C03D0E906013CF081
:10356000DDFB002249F6BA13181A72EB01003EBFC8
:10357000D6F82C03012180F8271047F0AFFD012871
:1035800048D191F82A00012805D05FF8AC013BF042
:103590003DFED6F82C1391F826000022222380F05D
:1035A000010081F82600D6F82C0390F8261086F842
:1035B0003C2300F12802002918BF20231844C6E943
:1035C000CD2047F0BAFA002840F0228196F83C035B
:1035D0002BF08BFCD6F82C03418C028C511A09B2CB
:1035E000002948BF494209B296290ADD002180F826
:1035F00027103CF0BDF8D6F82C23C2E90601D6F816
:103600002C03002180F82A10D6F82C0380F829100A
:1036100047F064FD91F826302222002B18BF2022AB
:10362000002840F0018191F8240060B191F82A004F
:10363000002840F0FC8001208D5A81F82A000224E5
:1036400047F000FB4AE0002091F825305090ADF89B
:1036500044010220ADF84A010120032BCDF84601B8
:1036600024D81BB3022B0DF5A07E28BF0223002413
:1036700047F6FF7C4FF00108A34220D0D6F82C6318
:1036800096F82A00002840F0CA808D5EA5F580409B
:10369000002D00B207D440002EF82400013486F833
:1036A0002A80159EE8E78CEAE030F5E75FF8CC0267
:1036B0003BF0ACFD47F0C6FAD6F82C0318E747F00C
:1036C0000DFD002840F0B68091F828B00120DDE91A
:1036D00051680024BDF8405181F82900012089F883
:1036E00000009AF80800062812BF03289AF8140070
:1036F0002BF0FBFB1598C0F82C63064686F834B314
:103700000020DDF850B006F2363A86F8360386F827
:103710002A03012086F82B43A6F8285386F84C0389
:10372000C6F8308306F23A3006F54A710E2262F08E
:10373000C3FA002506F23A3186F8375350AC0E2210
:1037400046F0DEFA06F23730C6F838030ECC06F53E
:103750004F7006F24A3806F54E790EC0218886F879
:103760004A53018096F83F13B6F83C0302291BD157
:103770000021A6F8540386F8571306F2573106F5D0
:10378000547B0E91A6F85803012086F8560306F5DF
:10379000577041F0A3FF96F85C0301284DD0D6F88E
:1037A0006003C6F8500364E0A6F8540396F83E039D
:1037B00086F8560306F5507086F8571306F55671CD
:1037C0000CC80CC10022008886F86223088006F528
:1037D00054745946204621F04DFEA8B9204629F0E0
:1037E0006FFD90E0D0E9022316A83CF057FA45F0AF
:1037F000C0FFC6E9CE1286F8400347F08CF90028D6
:103800003FF4A9AE042004E00320AAE0032000E076
:10381000062089F80000032088F80000A6E05FF881
:10382000382401213AF03EFE5FF84024F9E75FF8C2
:103830004024F6E75FF84424F3E716A8212246F077
:1038400065FA45F096FFC6E9DA1286F87003149817
:10385000016806F55A703CF003FB002868D116A8F1
:1038600041F03CFF9DF858000128E6D01798CBF8AE
:1038700000000020B6F8585386F8560386F8660311
:103880005846C6F858B3A6F8645329040131C6E96E
:10389000D7100021A6F85C13B64900680968C9056D
:1038A00041F09E85B4492BF0A0FB0C46C16BC1B121
:1038B000027C002A40D1D0E9022300EBC306B161AB
:1038C000591C8B1EB58218BF0B46C3609A4204BFB9
:1038D0000121017446F0D3FEE0E809123EF06DF9D3
:1038E000159E46F017FB012086F86603D6F85003B4
:1038F00029F0F0FF4FF48070A6F85603584629F0DF
:1039000004FDDDF850B046F0A1FE09F1180099F869
:103910001210042904D0032904D129F0D1FC01E0BC
:1039200029F0F3FC0120A6F83603D6F81C03CDE5F8
:103930000320DDF850B011E0DDF850B03030DBF896
:10394000001047F017F846F0E5FA0120A6F85E539C
:10395000A6F85C03032086F8660304200E9908701D
:10396000042047F059FD8AF8000004200D9A86F8DB
:103970002003119813990840109908400F990840A6
:103980001040012800F0EC8047F2F01006EB00092F
:10399000D6E9E40180F003000843139004D006F553
:1039A0006470594604F01CFCD9E9000180F0030260
:1039B0000A43119201F02E82084318BF0120109093
:1039C00041F0F38199F81000DFE810F008000C01D5
:1039D0000C01C801DC010D0042001F00D9F808806D
:1039E000C9F80C8003E1494611F8330F0E91DFE866
:1039F00010F00600BA00F9003E009909B202D9F8A9
:103A00002800D9F834100E9BD3E1CA461AF8340FB7
:103A1000DFE810F01700DC00E800B60CDD0AA10AB0
:103A2000AC0ABA0ADC0CCD0C6B0B7D0B8D0BC40BF6
:103A3000D00BDF0BEB0BF90B0F0C170C0E0B610A05
:103A4000710CD9E9061899F835404A4E01F0FFB9D2
:103A50004A4612F8200FDFE810F007008900C50081
:103A6000300042001F004A00D9F818A003E349467D
:103A700011F8650F0C912D390D91DFE810F006005B
:103A80009F00B3000302A7084A00D9E90ECED9E986
:103A90001504D9F86630BEE14C460D9214F82B0F90
:103AA000DFE810F007009800A00085069206E70600
:103AB000F406D9F8245000F050BE47F218204D46C5
:103AC000341815F8700F0D92DFE810F006007C0036
:103AD0008C000B0448003600D9F86CA04BE3C846B4
:103AE0000D9218F8780F78B103285FD1FCE24D46AB
:103AF0000D9215F8280FDFE810F0DC065D00750068
:103B000005000A0000F07ABFD9F870A0C5E200F005
:103B100081BF494611F8800F089110390F91DFE8F5
:103B200010F005005D006100A2052D09D9E91C1007
:103B3000D9F8782000F08CBDC846CDE90E4518F8BC
:103B4000880FA8F11005DFE810F006004E004D00C8
:103B5000B2056E03D705D9E91EA42FE300F047BCD8
:103B6000304618F0BFFC05483BF0C5F904483BF06F
:103B7000C2F900BF04ED00E0009F0600A0B00600FF
:103B800060B0060040B00600E0B0060090B006004D
:103B900090B1060080B00600C0B00600D0B00600AC
:103BA000F0AF060050EA060000E906005FF82C00BE
:103BB0003BF0A1F95FF830003BF09DF95FF834006D
:103BC0003BF099F95FF838003BF095F95FF83C005D
:103BD0003BF091F95FF840003BF08DF95FF844004D
:103BE0003BF089F9FEDE5FF848003BF084F916AC43
:103BF00008F1F00120463FF0E0FF9DF87300022835
:103C000035D10221002027902691CDE9221019916B
:103C100098E82E001EAE2EC62246D8F81C101D9124
:103C2000D8F818101C91D8F814101B91D8F810105F
:103C30001A9104F10801022822D0013052F8103FF5
:103C4000DB07F8D01890D2E902A550AE282246F042
:103C50005AF8022006F10801CDE90010304652461C
:103C60002B4640F008FD4FF0010A0C900AE018982E
:103C70004FF0000A0D9019980E9001200F9003E06C
:103C80004FF0000A00200F9008F1500ED8F8205095
:103C9000D8F85C60D8E90ACB05F00105D8F83830CF
:103CA0009EE80540DB0716D00A915346D8E9101A62
:103CB000C0074FF000024FF0010008D0B1EB0E003A
:103CC0007AEB06003CBF56468E46012001E08E4648
:103CD00056460A999A460F9BCDF884B0DDF850B04D
:103CE00026900D9822930C9B1D9104F108012490BD
:103CF00000201C93042327920E9ACDF8A0E0239075
:103D0000CDF880C0CDE91E50CDE91AA019932996AF
:103D1000259208F1E00504282ED0013054F8102F28
:103D2000D207F6D018904822D4E9026850AC204659
:103D300061F031FE042004F10801CDE900102046B5
:103D40003246434640F097FC159EC9E90A0100201F
:103D500089F8300089F82400C9F81850DBF8001001
:103D600009F118000BF098FBC1B2022900F0728132
:103D7000032911D100F0D0BE159E002089F8200043
:103D8000C9F8145047F2042046F0F1F90BF084FB17
:103D9000C1B2022900F0D78600224B4603F8332F28
:103DA00020F0FF00014453F8270CC3F8011043F83A
:103DB0000B0CC9E90801C9071CBF0021C0E90811A3
:103DC0000E933EF00BFF3BF0D3FCC9E9060147F22E
:103DD0001C203418D9E90802D0F8001320463FF01F
:103DE000D3FDD9E908034A46D9E906CE90F8125323
:103DF00042F838CF002D0D92C2F804E000F0A28006
:103E00000025494601F8655F0C91C1F8013041F881
:103E1000110C41F80D4CC8465FF8781248F8503F35
:103E200048E904CE48E9020446F080FD0C463FF024
:103E3000ADF821680139216088F80C0058F8080CA9
:103E400045F0BAFF98F80310C3B2B8F8012088F81B
:103E50000D0042EA014247F24E21741858F8081C3E
:103E6000204646F05BFD98F80000E8B909F14802E9
:103E7000002089F84F0407CAC9F85024C9F838044B
:103E8000C9F83C1447F2602059463418204627F000
:103E900095FA002840F0518620462AF0DFFFC846F8
:103EA00018F8500F00287ED047F24E2030440A9078
:103EB000D9E912010F91D0F800035FF814132BF029
:103EC000C3F8056A8B4600224FF0000AA2F5707015
:103ED00050B306463030A91991F8FE130229F7D0E5
:103EE00011B900F57072F1E7284400F5687494F890
:103EF000270038B90A99204641F06EFF012801D108
:103F0000012003E00F99204641F066FF06F57C7220
:103F1000C007DBD001F00F004FF0010AA18D0AFAB3
:103F200000F00843A085D1E7DBF800000124159ECE
:103F30001B2547F0BFFA5FEACA7017D0DDF850B012
:103F400000F0BABE0021C9F8693089F86D1089F80F
:103F50006810C9E9160447F2282046F0DFF8D34E6E
:103F6000002800F0E586052000F014BE98F8000057
:103F7000C8B1D9F84800CE4946F0D8FC006AD0E96B
:103F80000254026846F0F7F8D0070CD0D9F8480080
:103F9000D0E9BE013BF0C2FE401B71EB040002D22F
:103FA00098F8000039E2D9E912045FF8041445F0EA
:103FB000AAFD0D46016A47F24C200DF5A07B304466
:103FC000BC4B01F11002CDF83C80CDE9548047F2A2
:103FD0004E203044CDE9524001F5747051900BF100
:103FE00008009846002B00F00F8201EB080608F14C
:103FF000300396F8FE63022E159EF2D0194408F5A0
:104000007C7301F568711A440A95509226F032F9D2
:1040100082460DF1580C9BE87D0061467DC1DDE9CB
:1040200016618E4200F0EE810A9D881B30210CF152
:10403000080BB0FBF1F496F82E00022806D0584683
:10404000314626F017F9824598BF82463036013C4A
:10405000F1D1D8E147F2182046F089F83BF000FF93
:10406000002840F0598500204A4602F8200F52F8F7
:1040700014AC42F808AC0D920AF1F001C9F81CA08A
:1040800044A83FF09AFD9DF82B01022859D1002049
:10409000C84608F8780F48F808ACC9F874A03BF097
:1040A00067FBD9F87420C9E90A011369DB0724D03A
:1040B000D2E90635C01A71EB05001ED30025032195
:1040C000C2E90455D9F8740080F80613D9F87400D1
:1040D000D0F800033FF046FCC0070ED0D9F87400BA
:1040E000A9F83450C9F8300047F2202046F03FF8D4
:1040F00028F012FC002840F00885D9F87400016807
:10410000C9071BD0D9E90A12D0E90235C91A72EBE6
:10411000050113D30021C0E90011D9F8741091F8FA
:104120000403012807D1D1F8000391F805133FF0EB
:104130003FFBD9F87410032081F8040346F086FA97
:1041400003E316AD44A905F1200045F0D6FD50AEBD
:104150002946442246F011FB159947F218204022C7
:104160000C183146159E45F0CBFD00204D4605F854
:10417000700F45F804AC47F2382020223118204651
:10418000C9F868A061F098FD3BF0F2FAD9E90C2378
:10419000801A71EB0300C0F0C28299F83800002841
:1041A00000F08A800F954D46D9F868A0002045F8A8
:1041B00078AF0E94A8466C6008F8100FC9E920A4E7
:1041C000214611F8140F0C9546F030FD80F0D48490
:1041D000207C01284FD0032812D0042840F0D68438
:1041E0005AF8F00F04F11C0B0AF1080400264501EF
:1041F000EDB345F005FCA8BB203D01362034F7E7C0
:10420000DAF80003628A3FF005FFD9E92023010CA8
:10421000D3F81B30A9F8A100002089F8A310C9E940
:10422000243289F8A00006F5E54459460C9520464D
:1042300027F024FA002840F0788420462AF048FE2F
:10424000D9E920A000F11C0B00265AF8F00F0AF162
:10425000080445015DB145F0D3FB18B9203D013696
:104260002034F7E716A85146324633F03BFCDDE92F
:1042700014B60C9D35E2608AA9F890004000421CFB
:10428000A9F89220DAF800033FF072FFC1B21529B5
:1042900040F0F78145F04FFE002800F02282B9F887
:1042A00092104182022101741BE200BF04ED00E084
:1042B00080EA060040FCFFFF0020D9F8681089F86A
:1042C000570447F22C203044C9F8440499F84600BA
:1042D000C9F84014B9F8441041EA00400002C9F896
:1042E000580447F2682006EB00085946CDE90E4510
:1042F000404627F063F8002840F02C8440462AF01E
:10430000ADFDD9F868B047F2342006444FF0000AFA
:104310005BF8F00F0BF108044501ADB104F11C008E
:1043200031462DF05DFC08B1207C20B1203D0AF122
:10433000010A2034F1E716A85946524633F0D2FB61
:104340009DF87300022802D1DDF850B0E5E109F5CF
:104350007E7016A945F0D1FCD9F8680045F02CFD17
:1043600099F81614C3B2B9F81424404642EA01423F
:10437000D9F8681046F0D2FA159947F2FC500C189B
:10438000D9F868005FF8E01745F0BDFB056A4FF00B
:10439000000B00260C9105EB060A9AF83E0050B976
:1043A0000AF11000214642463FF047FD18B18AF855
:1043B0003EB0AAF83CB03036B6F5707FEBD10C9920
:1043C000DDE914B645F0DDFC002089F8B50089F878
:1043D000B000D9E9FE10C9E92010D9F81304C9F8D2
:1043E000B100D9F86800C9E92804DDE90E4547F2B3
:1043F000702046F01DFE002840F0BB8330462AF0B6
:10440000FDFC8CE10A9D159E45F091FD0F98B8F1D9
:10441000000F007818BF002876D1002840F00881EE
:1044200000205FF87C1889F87000C9F8F80347F29B
:10443000EC5030440A9047F24E2030440F90D9E9B6
:10444000120B45F060FB056A4FF0000A0891BAF5BF
:10445000707F00F0DC8005EB0A0898F83E40022CE3
:104460004ED008F110060F9A594630463FF0E5FC51
:10447000002845D099F87000204389F8700098F81A
:10448000370038B90F99304641F0A6FC012801D118
:10449000012003E03046594641F09EFCC0070DD094
:1044A00001F00F00012101FA00F04FF6FF714840C2
:1044B000B8F83C100840A8F83C0001E0B8F83C000F
:1044C000F0B998F83E000021A8F83C10012888F8BF
:1044D0003E1015D1D9F8F803132811D80A9BC0EB68
:1044E000C00298F83010013099549918D8F831204A
:1044F000C1F80120B8F83520A1F80520C9F8F80363
:104500000AF1300A159EA2E7BAF1000F00F0908080
:10451000D9E9130509F1400898E850010168D0F87D
:1045200003001B91CDF86F00D8F800033EF050FD5A
:1045300002460B46204631463BF09CFBCDF87350BB
:104540000025CDE9180108F1F000CDE916461A95CD
:1045500016AC21463FF07EFBD9F848005FF8B81949
:1045600045F0D1FA066A601C45F2555C43F2333BD4
:104570000F9004F1080008910A90B5F5707F3BD0C8
:10458000721992F83E0002281BD002F11008D8F8E8
:104590000010B1B1928F0CEA5203D21A0BEA9203C7
:1045A00002EA0B021A4402EB121202F4706302F0E8
:1045B0000F0202EB1322914203D1C00708BF5145FD
:1045C00001D03035D9E716A841463FF04AFC0A9899
:1045D00041461AF04FFE9DF8584050A80F992722E7
:1045E00061F06AFB45F2555C1B2CEAD044A850A947
:1045F000272261F061FB00E01B240899DDE914B675
:1046000045F0BFFB1B2C40F019820024C4E208993E
:1046100045F0B7FB99F8700050B1D9F8F8030A9D3E
:10462000DDF850B0C0EBC0002844C9E91D50B5E228
:10463000D9F850104D4645F8701F002355E90A027D
:10464000C5E901020F9505F8103F0895DDF850B057
:10465000C9F86814002189F86714C9F85004C9F82A
:104660005424C9F87C0047F2782006445946304665
:1046700026F0A4FE002840F0628230462AF0EEFBCD
:10468000B1E289F88C00000AA9F88D00D9E920016F
:1046900099F88E20D1F81B1089F8AB20B9F88C203E
:1046A000A9F8A920002289F8A820C9E9261047F214
:1046B000882059463418204627F07CFA002840F01C
:1046C0004D82204628F061FD45F035FC48B147F2A7
:1046D0007C2106237218715A92780374A0F8111085
:1046E000C274D9F8804020463FF028FD80B90020F0
:1046F000C9F8B04089F8B80006F5E54459462046A7
:1047000025F032F9002840F00582204628F068FEA6
:1047100045F09CFF284628F031FEDDE90E450120DA
:10472000287004F1500094F8481005290BD0042992
:1047300004D0032909D12AF091FB06E004F15800C6
:104740002AF05CFB01E028F019FE00204C4604F83A
:104750002B0F54F80F5C44F8075C2E4656F8200FD8
:1047600016AAC0070FD03BF003F8D5E90A3C16AAF9
:10477000C01A71EB0C0006D30020324617900120BE
:10478000169095F830000021C2E900111699C9076A
:1047900000F08580159EC1B2032989F828001ED239
:1047A0000902DFF86C0C04311C30C9E90B0146F03A
:1047B000ACF9002840F0C98199F82810DFF8500CB6
:1047C00009021C30C9E90B0147F21C2045F0CFFC5F
:1047D00035F024FF002840F0B48199F82800C1B2D8
:1047E000072934D1E6480068C00540F0F985DFF8B4
:1047F000240CDFF8241C2AF0F8FB064690F8380059
:104800008846012804BF06F1300033F0C8FBB06AC7
:10481000B0B196F83810002940F0B481D6E90C12F6
:10482000002A06EB8203D86318BF013272639142FB
:1048300004BF012086F8380045F02AFE3DF062FAF8
:10484000D8F80000159E45F0C5FD99F8280000F045
:10485000FE01082923D1421F083889F82900D0B267
:104860000002DFF8AC1B043089F82A201C31C9E9AA
:104870000B1046F04AF9002840F05B8199F82A10A5
:10488000DFF88C0B09021C30C9E90B0147F21C2030
:1048900045F06DFC35F0C2FE002840F04C81002050
:1048A0004D4605F8280F0120E87055F80C0C45F826
:1048B000040CD9F82440D4F8001316A83EF096FF53
:1048C0000DF5887A3AF054FFA34600265BF8382F9E
:1048D000D20710D0D4E910230F95821A71EB03028E
:1048E0000AD394F8493094F84820DBB252EA030620
:1048F00018BF012600E00F95A04658F8502FD207A8
:104900001AD0D8E90223801A71EB030014D394F86B
:10491000611094F86000C9B250EA010518BF012582
:104920000E9626B394F84A00002816A818BF023045
:1049300046F0E5F85DB11DE0002E914E75D094F87B
:104940004A00002816A818BF023046F0D8F816A969
:1049500058463FF01BFD44A859463FF09EFCDDF849
:1049600050B00AF106010020ADF8140120E0844E99
:10497000002D5AD094F862000621002808BF0421B7
:1049800016AE4046725A9DF865103FF0D6FC584668
:1049900031463FF0FBFC44A859463FF07EFCDDF871
:1049A00050B00E9828B900200AF10201ADF81001AC
:1049B00008800DF1F808BAE80600404606C0BAF8CB
:1049C0000010018094F87010D4F800033EF054FFFA
:1049D00050AE4146701C46F01EFC0120159A89F825
:1049E0002C0047F21D2010443146164646F0D5F8FB
:1049F0000020C9F8384089F860000F9D09F12C04A7
:104A0000DBF80010204625F011FC002840F08680DD
:104A10000020207047F21C2045F0A9FB0D9C3AF0C5
:104A2000B3FD00287DD1564E03E0DDF850B00D9C5B
:104A30000F9D01202870207000F011BC0F9444A835
:104A400016ACC11D44F0C0FED9F848800025409442
:104A500008F1D804404650F8F0AF0A90056047F2DC
:104A60004D2030443F90D8F800033E903EAEAA451A
:104A700009D020343046214633F066F8013500284D
:104A8000F5D1012601E00026554608EB45100DF151
:104A9000F80800F1F804AA450ED04046214633F04C
:104AA00053F828B1A4EB4610214645F026F900E062
:104AB000013620340135EEE70A98CDF84CA1CDE956
:104AC00051A6509050A828F0A6FAD9F84800169A96
:104AD000D0F8000316A904313FF060FED9F8480071
:104AE000D0F800033FF03EF828B1D9F84800D0F8DC
:104AF00000033EF003FF159E01240F9DBDF8140135
:104B0000ADF8EC0044983A90D6E003200D9C46F0B6
:104B100083FC2BE0052022E0032044E103200D9CD0
:104B200000E004202870062020E00420DDF850B0CA
:104B300015E005200AE0062008E003202DE103200F
:104B400028E1042002E004202DE10320207005204C
:104B50000D9C0BE0DDF850B0032003E0032088F843
:104B6000000005200D9C0F9D28700320207006205A
:104B700019E10D9C0420F7E7DFF8880800F031BC4C
:104B800004ED00E0DFF8940839F07CFCDFF87808E9
:104B900000F027BC0E9904E11B258DE0012485421D
:104BA000FAD009F14002002089F8B00007CAD9F80C
:104BB0005030C9E92001E81D89F8B540C9F8A45072
:104BC000C9F87400C9F8B130C9F8A02047F27020C4
:104BD00045F0A4FA28B920462AF010F9D9E91D5069
:104BE000DCE70420D9E0D9F87C3003F58475194658
:104BF00051F8F00F460103EB40124FF0FF3002F185
:104C0000F80C9EB32C4605F1200214F8105B01301D
:104C1000203E002D1546F4D10A91644500F08F80A6
:104C200052E90CEBA2F110037109002602461C7C2C
:104C3000BCB9D3E90058CC4600EB0609BEEB050A27
:104C40007BEB0804C2462C463CBFDA467446B5EB03
:104C50000E0578EB0B0538BF09F10102E146A646C7
:104C6000D34620330136B142E1D169E0D3F80003E5
:104C7000DFF898172AF0E8F9006A0022159E002351
:104C8000C41894F83E5005B9A2873033B3F5707F4D
:104C9000F6D145F076F8012089F880000F982AF0C7
:104CA0009BF8D9F84C000024D0F801103A91B0F8E4
:104CB0000510ADF8EC1005780C99012008700D98DE
:104CC00090F82D10383005290BD0042904D0032981
:104CD00009D12AF0C3F806E00D9848302AF08EF882
:104CE00001E02AF079F81B2D01D1D74E23E047F2DD
:104CF00029203A993150002189F8754009F11804AA
:104D000089F8701030440D99C9F864101ECCC9E9B7
:104D10001012BDF8EC1089F838508180C9F8714044
:104D2000C9F8603047F2302045F0F8F9C64E70BB44
:104D300020462AF063F80E99012008708FE202469F
:104D40000A9909F5806032F0CDFED9F804240020DC
:104D5000159ED9F80014DDF850B089F8BD0089F827
:104D6000B80047F20460C9E922123044D9F81B1494
:104D7000C9F8B910D9F87C10C9E92A1047F278208F
:104D800046F056F928B930462AF038F82BE70420C7
:104D900000E704200899087005200C9A0E991070FD
:104DA00003200870052089F81000D9F88804D9F884
:104DB0008C1450EA010518BF012527D199F8A804E1
:104DC00009F59264B0B9D9F8A004C9F8A404007A2E
:104DD0009E4960F384019E480860D9F8A404D0E994
:104DE000002316A83AF05AFF44F0C3FCC4E90012AD
:104DF00089F89804DBF8001020463BF031F810B930
:104E0000D9F8A404E3E7032089F8A80410982840FF
:104E1000012819D012981399B0FA80F0B1FA81F1F3
:104E20004009490908401199B1FA81F1490908403E
:104E300001281FBF62B0BDEC0C8B01B0BDE8000FB4
:104E400018BFF0BD17F076FB484617F04BFBC9E9D9
:104E500008810B91D8F80003DFF8CC153EF028F854
:104E6000006A002500F5D260220607D0FF2D05D884
:104E7000425D002A08BF013C0135F5E745F07BF9AA
:104E8000B5F5807F04D1DFF8A8053AF0BFF9E4E179
:104E90000026C9E90A56D9F82000DFF8901545F038
:104EA00045FD72190C46FE2A1DD920680138206084
:104EB000D9F82000C9F8306090F81013002900F0EC
:104EC000CB810021159E80F81013D9F82000A9F895
:104ED0004010C9F83C0044F052FA5B4E002800F044
:104EE000BC81152078E2006A831893F890060028A8
:104EF000DBD0012840F0248193F8915603F5D2616C
:104F00006B1E032B00F2A680DFE803F002994568D0
:104F1000FE2A00F09780887840F0E8FE80462068FE
:104F2000002101382060F01CC9F83000D9F82000B9
:104F300089F8368080F8101399F83610D9E90802FC
:104F40003FF047FB4FF48070159E44F0DDFA079860
:104F500068F30700079044F012FA002840F0EB8154
:104F600016A8422244F0D2FE44F03DFA44F0A6FBDB
:104F7000002840F0D28199F83610D9E908023FF0B4
:104F8000A3FB002044F0C0FA44F0F9F9002800F037
:104F90005C81072020E20336FE2A3FF486AF887842
:104FA00040F0A4FE216801392160D9F820100024C6
:104FB000C9F8306081F8104346F07FF93FF084FB78
:104FC000159ED9F82000A9F84040C9F83C0044F0EB
:104FD000D6F9002800F039810420FDE1FD2A80F097
:104FE000B68122688878013AC9782260321DC9F8F2
:104FF00030200122012898BF1046012988BF0A46A7
:10500000C2EB022100230844A0F5807416A8A2B2C6
:105010000AF03AFE9DF8600089F848000798159E4E
:10502000DDE91612C0B240EA0420C9E91012079067
:1050300044F00FFC002800F008811420CCE1FE2A87
:1050400040F08781033630E704ED00E000060140C0
:105050003546526E6B1F032B72D2FD2A80F077818A
:10506000CA78887840EA0221D243120608BF0102BA
:1050700016A83DF0C9FD9DF858000421142888BFEA
:10508000A0F11501C8B2032802D00021022803D1E3
:10509000BDF85A009DF8591041EA00230821062D59
:1050A00008BF0721321D0793052D40F0708121684C
:1050B000159E01392160D9B2C9F830200C2900F0C1
:1050C000C480A9F838000021D9F8200089F83730C9
:1050D00080F8101389F8501099F8390099F82710C2
:1050E00044F041FE0131C9E9101009F1400459466C
:1050F000204626F05FFD002840F01F81204628F062
:1051000044F816A8422244F001FE44F06CF944F041
:10511000D5FA002840F00781002099F8271089F877
:10512000500099F8390044F01EFEC9E9101044F00F
:1051300089FB002840F00381204628F026F884E00F
:1051400040F0F0FE2268013A2260721C89F83A00B1
:1051500011F00101C9F8302018BF4FF480710A0A1C
:1051600089F83B200123D9F82020C0B2079C82F89F
:105170001033D9F8202099F83B3082F811334FF6DC
:10518000FF7224EA0202104408430790002B00F04B
:10519000C280159E4FF4807044F0B6F944F0EFF8E9
:1051A000002840F0D28016A84FF4C57244F0AEFD3E
:1051B00044F019F944F04DFB002840F0B88099F80C
:1051C0003A10D9E908023FF020FA4FF4807044F019
:1051D0009BF944F0D4F8002840F0B58016A84FF4AD
:1051E000C57244F093FD44F0FEF844F067FA0028DD
:1051F00040F0978099F83A10D9E908023FF07CFA1C
:10520000002044F081F944F0BAF8002840F08D8085
:1052100099F83B00012818D1D9F8200000214FF45B
:10522000C572002380F8111316A83AF037FD44F038
:10523000DAF844F043FA002840F08380002044F07C
:1052400063F944F09CF8002869D1D9F83000C9F816
:105250002C00B0F5807F48D9684E46F027F93068B9
:10526000C00540F0BD806E4CA06A002840F0BD80B3
:1052700045F0EAFDA06294F83400012805D104F15C
:1052800054003AF061FC94F83410D4E90B208242C7
:1052900002D10220C9071AD0002084F83400501C23
:1052A000011F18BF014602EB82002218E1620220B2
:1052B00092F8361002290AD002F1350002780992DC
:1052C0000279408840EA024000020B900846A16A39
:1052D0000131A1620B990228D9F80C8021F0FF015D
:1052E00001440ED10B91FEF782BC16A8212244F096
:1052F0000DFD44F078F844F0ACFAD0B9D9E90A567B
:10530000C9E50020CA460AF8340F099C8AF8014012
:105310004AE907189BE5159E51E706205CE013203B
:105320005AE0102058E00B2056E0112054E00E20E7
:1053300052E0162050E005204EE00A204CE00C2000
:105340004AE0122048E00F2046E00D2044E00436F9
:10535000ABE5887840F0CAFC216800220139216061
:10536000F11CC9F83010D9F8201081F8102345F04D
:10537000A4FF3FF02EF9159E4FF4807044F0C4F85E
:1053800043F0FDFF00283FF460AF032024E02068D5
:10539000159E01382060D8B20829C9F830200DD1F7
:1053A0000C283FF452AF44F021FAC9E9101044F040
:1053B00049FA00283FF4C0AE09200DE00C283FF464
:1053C00044AF44F013FA0131C9E9101044F03AFA3D
:1053D00000283FF4B1AE08208AF800000720E2E47C
:1053E000074839F013FF39F039FF0E4839F002FF52
:1053F00041F0E0F839F0E6FF39F030FF04ED00E06D
:105400003D000000850000008700000000E9060064
:10541000301201208000012014E4060034E406006C
:10542000281301208900000020EB060030EB060065
:1054300062000000F0B503AF4DF8048D064690F809
:105440003000884650B1032872D1354615F82C0F2C
:10545000B0B1032874D1746A20681BE0D6E900104B
:10546000B2687261C6E90310887910F07F00B061FC
:1054700061D00020354605F82C0F45F8101C00E0DF
:10548000F1698879344610F07F0044F8200F4DD040
:10549000C6E909412CF0C0FAD8E900123AF09EFBA7
:1054A0002B484269BFF35F8FB16A24680968082CF2
:1054B000D1F8103535D24FF0010C0CFA04F100246C
:1054C000114208BF02240B4208BF01244CB1022C38
:1054D0001DBF012028700124032404BF2C70032069
:1054E0001BE0316ABFF35F8F01F01F010CFA01F17D
:1054F000C94350E8052F0A4040E80523002BF8D1A6
:1055000006F10C03BFF35F8F0124B1690DCB86F860
:105510002C4000683AF014FA022086F8304044F03B
:105520001ABF0C481C210C4A38F0B6FF0B4803E0A8
:10553000064839F0E0FC0A4839F068FE39F08EFE82
:10554000014839F0D8FC00BFC88A0600E088060090
:10555000381101207DDD060078B906001A00000030
:105560001C000000F0B503AF4DF804BD84B0044644
:105570000020ADF80C00CDE9010001A90A280DD0EA
:10558000D5090A5445EA436555EAD31609D042F0D5
:1055900080020A54DB0901302A46EFE70A2501AAF6
:1055A00006E0094B01A90A2202F00CFE02460D4654
:1055B00045F05BF901D9022004E044F035FA701996
:1055C0006060102044F046BCBCBF0600B0B502AF1E
:1055D00044F030FCC0B2102805D120462946BDE871
:1055E000B04036F081BE0220B0BDB0B502AF44F08D
:1055F00021FCC0B2102805D120462946BDE8B040A4
:1056000036F0A0BD0220B0BDB0B502AF44F012FC30
:10561000C0B2102808D12846214632F099FEC0B207
:10562000102818BF0220B0BD0220B0BDB0B502AF37
:1056300044F000FCC0B2102805D1D5E90101884230
:1056400001D044F0FBB90220B0BDB0B502AF44F0C8
:10565000F1FBC0B2102805D1D5E90101884201D083
:1056600044F0ECB90220B0BDB0B502AF0546044627
:1056700055F80C0F30B1284632F0B6FF00B1B0BD7E
:105680000020286021680020012904D1D4E90121EB
:1056900060601046B0BDB0BDF0B503AF2DE9F007B6
:1056A000804691F8300091460D4650B1032878D1DC
:1056B000AA461AF82C0FB0B103287AD16C6A206878
:1056C0001BE0D5E90010AA686A61C5E90310887972
:1056D00010F07F00A86167D00020AA460AF82C0FBE
:1056E0004AF8101C00E0E96988792C4610F07F0028
:1056F00044F8200F53D0C5E909412CF0B3F9D9E99A
:1057000000123AF06BFA2E4ED6F81490BFF35F8F6A
:10571000A86A216800682CF091F948B3206800F06D
:105720001F0080F0100029FA00F0C00730D0286A6E
:105730000121BFF35F8F00F01F0080F0100001FA1D
:1057400000F0C04356E8051F014046E80512002A54
:10575000F8D105F10C04BFF35F8F0120AA6985F829
:105760002C0019CC0168009402A83AF09BF805E0DF
:1057700045F09CFE40F20110ADF80800DDE90201A1
:10578000C8E90001012085F83000BDE80F07F0BD31
:10579000032002218AF8000088F80010F3E7094886
:1057A00003E0064839F0A7FB074839F02FFD39F030
:1057B00055FD014839F09FFBC88A0600F0880600B5
:1057C000381101201A0000001B000000D0B502AF04
:1057D0000446006868B945F0CDFA201D45F0CEF8C2
:1057E0002068D4E9051201302060207F891A44F036
:1057F000FDBE044839F0FEFC40F0DCFE39F0E2FD6D
:1058000039F02CFD89000000F0B503AF2DE9E00F61
:10581000017BC90757D1D0E900614FF0010B2B4C38
:105820002B4D00908068084401900198814245D03A
:105830000291711CA4F502704FF0000909784FF035
:10584000080A202901F01F0138BF4FF0A04000EBEB
:1058500081000421C0F80017BAF1000F2AD0307877
:10586000294644F0EFFE38BF211D0BFA00F0086016
:10587000202010B110BF0138FBE73078214644F0FA
:10588000E1FE28BF01F540710BFA00F0086020200E
:1058900010B110BF0138FBE7AAF1010A0AF00700B6
:1058A0000BFA00F8701C3AF08DF8002818BF49EA8E
:1058B0000809D1E7029901F8019BB6E70099012098
:1058C000087345F0BCBC034839F015FB08050050CF
:1058D0000C08005010890600F0B503AF2DE9800FC9
:1058E000017BC9076CD1D0E90018012600904FF068
:1058F000030C8068344B08EB000E34488146F045B9
:1059000059D048784D4603F1040B202800F01F00C1
:1059100038BF5D4698F8002006FA00FAC5F800A0E6
:10592000A3F5027538BF4FF0A04505EB80000825B0
:10593000C0F800C7E5B3013D05F0070022FA00F00A
:10594000C00706D048781C46202828BF04F54074BC
:1059500004E048784C46202838BF5C4600F01F0021
:1059600006FA00F02060202010B110BF0138FBE7DC
:1059700008784C46202800F01F0038BF5C4606FA25
:1059800000F02060202010B110BF0138FBE708783C
:105990001C46202800F01F0028BF04F5407406FABA
:1059A00000F0206020200028C4D010BF0138FAE7A2
:1059B00008F10108A3E700990120087344F0F4BC42
:1059C000034839F098FA00BF080500500C08005051
:1059D00020890600DCB504AF0446684632F022FC9C
:1059E00044F0EBFC04D19DF801006070012002E05E
:1059F0000198606000202070DCBDF0B503AF2DE998
:105A0000C00704460620CDE90010684600F05CF8A7
:105A1000C0F30725C1B2022901D101203DE0C00732
:105A20004FD0684600F050F8C0F30726C1B20229F3
:105A300002D10120354630E0C00742D0684600F070
:105A400043F8C0F30728C1B2022902D1012045461C
:105A500023E0C00735D0684600F036F8C0F30729C8
:105A6000C1B2022902D101204D4616E0C00728D05C
:105A7000684600F029F8C0F3072AC1B2022902D112
:105A80000120554609E0C0071BD0684600F01CF80D
:105A900044F0E6FE07D1012015460121255421706E
:105AA000BDE80C07F0BDC0070BD0657000210620D3
:105AB000154684F805A084F8049084F80380A67045
:105AC000ECE701200E25E8E7416869B180B56F4633
:105AD00045F09AFC2CF00AF9C0074FF0010018BFFE
:105AE0000220BDE8804000E0002040EA012070472D
:105AF000416871B180B56F4645F086FC31F0CAFC53
:105B0000C1B21529BDE8804004BF00F47F401630C3
:105B1000704715207047D4D44168A9B180B56F464D
:105B200045F072FC32F054FBC1070C4918BF4FF628
:105B3000017108400106BDE8804008D04FF4702193
:105B400001EA0020022106E00020002103E04FF6D8
:105B5000FF71884301210843704700BF0000FFFF29
:105B6000416871B180B56F4645F04EFC3FF058FE7C
:105B7000C007BDE8804012BF012001F001010020F4
:105B80007047002002217047DCB504AF0446486826
:105B900070B1013848600968A7F10F0031F0C2FA0E
:105BA00017F80F1C17F80E0C1B2904D11C2109E053
:105BB0001B202070DCBD17F8092CA27157F80D2CA2
:105BC000C4F8022060702170DCBD416869B3F0B593
:105BD00003AF4DF804BD82B00468013941606846E6
:105BE000214632F01FFB44F0E8FB09D0019D012D56
:105BF00053D86846214632F015FB44F0DEFB17D13E
:105C00009DF801004FF00071C0B2084301F04071EF
:105C1000B1F1007F02B05DF804BBBDE8F04004BF05
:105C20004FF4403161F31F2070474FF00070704710
:105C3000019E042E31D8204632F0CAFAC10703D0A3
:105C40004FF60171084005E0C0F30041494281EA86
:105C5000504000040122014662F30F014FF470220C
:105C600002EA0022C00718BF911C01F003000228BD
:105C700018BF01F07F4001F47F0210444FEA10404A
:105C8000C0D0C90709D0ADF800008DF80260BDF89A
:105C90000110090241EA0561B6E70E20B2E7F0B54E
:105CA00003AF2DE9800F8046486878B3D1F80090A3
:105CB00000264FF0FF3400254FF0000B01384860FC
:105CC000092C1AD048462CF011F88A46C00716D184
:105CD0000AF07F00002132465FF0D8FF05434BEA0F
:105CE000010B073601344FFA8AF00028E8D4092C5A
:105CF00010D15FFA8AF002280CD34FF0050A002079
:105D00000221C8E9001088F808A009E00020C8E9CD
:105D1000000005E000200121C8E90010C8E9025B8D
:105D200044F042BB416899B1F0B503AF4DF8048D22
:105D300082B045F069FB0321CDE900016846FFF719
:105D4000C3FE0546C0B2022804D1A8B2040A11E07D
:105D500000207047E8071CBF019E002E09D0DDF827
:105D6000008040462BF0C2FF0C46C00702D1012E36
:105D700005D10E24E0B20002023044F0ADBA404634
:105D80002BF0B4FFC00701D00C46F3E7E0B20906E0
:105D900041EA004005F47F4108440130EDE7D4D4E6
:105DA000F0B503AF4DF804BD82B00C4601460020AB
:105DB0008AB28DF80600ADF8040001A9032809D0C5
:105DC000D3090A5409D0D2B242F080020A540130F9
:105DD0001A46F3E7032501AA06E0094B01A90322AD
:105DE00002F0F0F902460D4644F03FFD01D90220D1
:105DF00004E043F019FE70196060102043F0CCBC41
:105E00009CBF0600F0B503AF2DE9F80FE8460D463C
:105E10000646404613219B4691465FF059FFD7F84E
:105E200008A0002013281BD0F1094FEAD91241EA3B
:105E30004561ED0942EA4B6245EA496541EA0203E0
:105E400045EADB14234308F800600CD046F08003D9
:105E500008F800304FEADB1B01300E469146E1E7BF
:105E600013246A4606E00C4B6946132202F0AAF995
:105E700002460C46DAE90150401B844201D9022057
:105E800008E01146284622465FF016FF2819CAF896
:105E90000400102043F0C2BFCCBF0600F0B503AF32
:105EA0004DF804BDD1E901320024062C08D01D199B
:105EB000954207D0065D013405F8016B4D60F4E7AB
:105EC000102000E0022043F0E0BF824221BF0B1807
:105ED000111A1846704780B56F4645F072F9824234
:105EE00021BF0B18111A1846704780B56F4645F050
:105EF00068F9D4D4F0B503AF2DE9000FC3B08246E2
:105F0000D0F8A8070F9100280A9040F059859AF818
:105F1000BC07D8B104281AD19AF8C8070AF5F86264
:105F20000AF2CC730AF5F96912931092DFE810F0C7
:105F300007001901240C42005E0014007900DAF811
:105F4000C0870020DAF8C4B70E9031E10DE1DAF82D
:105F5000C01700200E900CE19AF88E080AF68E0306
:105F6000CDF84490002800F08180032840F0F580AF
:105F70009AF848080AF648060C93002800F08A8030
:105F8000032840F06F8643F03FFFDFE810F0050084
:105F9000F10BF50BA2009F009AF8ED270020DAF82C
:105FA000D417DAF8D847DAF8E4C7DAF8E8970D9B9F
:105FB0000E90D3E19AF894080AF6940300285CD076
:105FC000032840F0CA8043F0ABFB00F06E8003284A
:105FD00040F0488643F018FFDFE810F00500CA0BD8
:105FE000CE0B8E00880043F0B0FE25E19AF89508AC
:105FF0000AF69503002847D0032840F0AE8043F00E
:106000008FFB55D0032840F02D8643F0FDFEDFE8DE
:1060100010F00500AF0BB30B8000700043F095FE4D
:10602000C2E29AF88D080AF68D0380B3032840F087
:10603000948043F075FB3ED0032840F0138643F074
:10604000E3FEDFE810F00500950B990B700063008C
:1060500000239AF8ED070E93DAF8D417DAF8D82768
:10606000DAF8E457DAF8E8970D9B20E2DAF850887E
:106070000020DAF854980E9039E1DAF858880020B8
:10608000DAF85C680E90B9E045F085F86CE245F00E
:1060900082F8DCE19AF849280020DAF83CC8DAF8FE
:1060A0004098DAF844180E9048E144F0EDF8BBE06F
:1060B00044F0EAF870E29AF849080022DAF83C580D
:1060C000DAF84098DAF844180E92E0E100200E90D9
:1060D000D6E29AF838080AF6380570B3032809950D
:1060E0000B9641F01E8200200E90A7E200200E9039
:1060F00022E300200E90EBE344F0EDFA24D00328D5
:10610000099641F00E8200200E90F4E200200E90DD
:106110007EE344F0E0FA1AD00328099641F00182A8
:1061200000200E90B4E344F0D6FA13D00328099669
:1061300041F0F78100200E9035E3BAF83448002092
:10614000DAF8F4970E9044E143F023FF8FE043F038
:1061500020FF43E243F01DFFD3E1DFF83C0B38F0B2
:10616000CAFEDFF8380B38F0C6FEDFF87C1ECAF82E
:10617000C0170F98026813AD2846FBF729F99DF860
:106180004C00042800F0F9830AF5F66B95E80E0040
:106190000AF5F96958460EC00020DAF8AC878AF88B
:1061A000C8070AF5F860CAF8C087CAF8C4B71090E3
:1061B0000AF2CC7012909BF80000DFE810F00400A7
:1061C000BE017400310135AD08F1040143F097FFC1
:1061D00016AC2946342243F093FD0AF506602146A9
:1061E00034220BF10106CAF85888CAF85C685FF0DF
:1061F00063FD00200AF694038AF894080AF5066500
:106200000AF67A0143F010FB0AF59D61002001F5C2
:10621000597BC1E9D9003046594630F029FD0820A4
:10622000CAF8540843F01EFC00218AF8ED078AF8EA
:10623000EC17082144F012F844F0FBF80CD044F0BD
:1062400009FD35AD31462846A04743F0F2FF40F046
:10625000E981DAF8DC570D9A44F08BFF22D043F045
:10626000C5FD45F0EDF800F0708243F05CF943F0B5
:106270003FF9C00700F0538243F0A8F94FF0020B3A
:1062800070B1DAF8000843F0A7FA35A809F06FFDFD
:1062900044F0BDFB40F02B8244F0CAFD00F02782A1
:1062A0000D9A57E25CE208F1380CCDF8449035A91C
:1062B000BCE87D0001F11C0EAEE87D003622BCF882
:1062C0000000AEF8000016AD43F070FD0AF658006D
:1062D000294636220BF10109CAF85088CAF85498A9
:1062E0005FF0EAFC00200AF68E038AF88E080AF6B0
:1062F000740E0C930AF6580CBEE87B0062467BC213
:1063000000200AF67201AAF872080AF64806BEF8DA
:10631000000010800122B9F80000AAF872080220DB
:10632000CAF84C084FF48070D8F80090CAF83CC8FE
:10633000CAF84098CAF84418AAF84808002002246D
:106340008AF8ED270AF2EC738AF8EC07CAF8E4C77A
:10635000CAF8E897CAF8D417CAF8D847CAF8CC17C9
:10636000CAF8D047CAF8DCC7D9E90258A2B10D93E0
:106370004A460B96D8F82060BCF80430CDE90014EA
:1063800035AC29462046B04743F053FF40F04681E4
:10639000DAF8DCC70B9E0D9BBCF800004FF0140B25
:1063A000E8B3BCF80240284644F0DCFE2246984799
:1063B00045F046F800F06D810020AAF834488AF8CC
:1063C00038080AF63805DAF8DC07CAF8F007CAF820
:1063D000F497AAF836480AF5FF62D9E9020182E883
:1063E000030222460B6B49469847C0070B9600F004
:1063F000398143F0EBF84FF0020B70B1DAF8000886
:1064000043F0EAF935A809F0B2FC44F000FB40F093
:10641000118144F00DFD00F00D810D9B3FE145E140
:1064200035AD08F1520143F06AFE16AC294634221C
:1064300043F066FC0AF65800214634220BF10106AF
:1064400044F0DFFA00200AF68D038AF88D080AF678
:1064500058050AF6720143F0E7F900204FF4807204
:106460008AF88C08012031788AF88C180AF68C0199
:10647000CAF84C08D8F80090AAF848280AF648024A
:10648000CAF83C58CAF84098CAF844180B9200223F
:106490008AF8ED078AF8EC270122CAF8E4570AF2D5
:1064A000EC73CAF8E897CAF8D417CAF8D827CAF81C
:1064B000CC17CAF8D027CAF8DC57D9E9026888B1E6
:1064C0000D93D8F82040AB88CDE9001235AD3146A8
:1064D0004A462846A04743F0ACFE40F0A780DAF8D1
:1064E000DC570D9B44F045FE26D06D88304644F0C5
:1064F00039FE2A46984744F0A3FF00F0928143F00A
:1065000012F842F0F5FFC00700F0618143F05EF839
:106510004FF0020B70B1DAF8000843F05DF935A8CE
:1065200009F025FC44F073FA40F0398144F080FC16
:1065300000F035810D9B79E187E135AD08F11E0151
:1065400043F0DDFD16AC2946342243F0D9FB0AF6B0
:106550005800214634220BF1020644F052FA002082
:106560000AF695038AF895080AF658050AF67201A4
:1065700043F05AF90AF68C0B0020CAF88C08CAF8C6
:10658000900859468AF8940830463EF003FE0920E8
:10659000CAF84C0843F066FA00218AF8ED078AF839
:1065A000EC17092143F05AFE43F043FF0BD044F0AF
:1065B00051FB35AD31462846A04743F03AFE29D17C
:1065C000DAF8DC570D9A44F0D4FD22D043F00EFCEB
:1065D00044F036FF00F0848142F0A5FF42F088FFCE
:1065E000C00700F0688142F0F1FF4FF0020B70B17C
:1065F000DAF8000843F0F0F835A809F0B8FB44F0E9
:1066000006FA40F0418144F013FC00F03D810D9A00
:106610006BE170E1281D42F0C4FF6BE1201D42F0E8
:10662000C0FF41E0281D42F0BCFF98E0281D42F069
:10663000B8FF09E10020099543F02DF944F040F935
:1066400035AD44F0CFFA44F0EEF800F09E8142F010
:10665000BDFE1FD142F0EDFEC00703D088464FF0CB
:10666000020B19E042F068FE28AE35AD43F0B0F9F8
:1066700044F04FFD16D142F0C7FE0B9E8AF83488D5
:1066800043F004F8002840F0858144F07FF84FF093
:10669000210B0AE043F0B8FD0B9E0D9B099D0120E4
:1066A000287003E042F015FF0B9E0D9B44F09DF90E
:1066B0002846347027F05BFCBBF1210F03D1DAF8D8
:1066C0004C8806240EE042F0A3FF35AD2DA943F01F
:1066D000ABFDDFF8180938F08DFD44F054F838F0C0
:1066E00071FE052443F0F3F827F006FE21E10020B7
:1066F000099643F0D0F844F0E3F835AD44F072FA6F
:1067000044F091F800F03B8142F060FE1ED142F06F
:1067100090FEC00703D088464FF0020B18E042F00D
:106720000BFE28AE35AD43F053F944F0F2FC14D122
:1067300042F06AFE8AF8348842F0A8FF002840F050
:10674000138144F023F84FF0210B08E043F05CFD87
:106750000D9A099E0120307002E042F0BAFE0D9AB7
:1067600044F03DF943F0C6FCBBF1210F03D1DAF848
:10677000548806240EE042F04BFF35AD2DA943F0BE
:1067800053FDDFF8680838F035FD43F0FCFF38F0C2
:1067900019FE052443F09BF827F0EFFCC9E0002028
:1067A000099643F078F844F08BF835AD44F01AFAC6
:1067B00044F039F800F0F98042F008FE32D142F09E
:1067C00038FEC00703D088464FF0020B2CE042F0A1
:1067D000B3FD28AE35AD43F0FBF89DF8A0B024A87A
:1067E000BBF1210F25D106F1040C02469CE85A00AA
:1067F0005AC2294690E85C005CC1DAF8E007CAF8A2
:10680000F0070AF2F47095E81E001EC08AF834887A
:1068100042F03CFF002840F0C68043F0B7FF4FF045
:10682000210B11E043F0F0FC0D9B099E012030701C
:106830000BE0311DBDF8A2909DF8A180024691E8C1
:10684000780078C243F0E0FC0D9B44F0CEF843F0B2
:1068500051FCBBF1210F03D1DAF84C8806240EE07D
:1068600042F0D6FE35AD2DA943F0DEFCDFF87C0703
:1068700038F0C0FC43F087FF38F0A4FD052443F056
:1068800026F827F044FD54E00020099643F003F871
:1068900044F016F835AD44F0A5F943F0C4FF65D0D7
:1068A00042F094FD1DD142F0C4FDC00703D08846DC
:1068B0004FF0020B17E042F03FFD28AE35AD43F03C
:1068C00087F844F026FC13D142F09EFD8AF8348804
:1068D00042F0DCFE002845D143F058FF4FF0210B79
:1068E00008E043F091FC0D9A099E0120307002E00F
:1068F00042F0EFFD0D9A44F072F843F0FBFBBBF160
:10690000210F03D1DAF84C8806240EE042F080FE15
:1069100035AD2DA943F088FCDFF8D00638F06AFCCD
:1069200043F031FF38F04EFD052442F0D0FF27F050
:1069300016FC01203070284627F02AFC062C3FF474
:1069400014AC0520CDF8D88035900E983790DFF83C
:10695000A00638F04FFC35A82AF0CEFD38F032FD05
:10696000FFF703BC042004E004200BE00999032096
:10697000087043F01CF904201DE003201EE0099973
:106980000320087043F013F915E0099903200B9ECA
:10699000087000E004200D99087003200C993070F5
:1069A0000870052007E0042002E009990320087020
:1069B00043F0FDF806201199087004208AF8BC07FE
:1069C000DAE90001084318BF012007907ED1B149E0
:1069D0009AF81100884650B1032811D1544614F892
:1069E0001C0F00B3032814D1DAF818501FE0DAF8AE
:1069F0000C009AF81210CAF808008AF810100CE07F
:106A00000F9801680AF1200039F02AFA50B30420E7
:106A10005AE0DFF8E00538F06EFA0021544604F839
:106A20001C1F44F8080CDFF8D055CAF81850D8F8E5
:106A30000000C00540F03785287800216E780228D4
:106A4000297012D101208AF81C003CF079FC9AF8D8
:106A50001010C0B2884205D1DFF8A005467230465A
:106A60001EF064FCDAF80800D7E740B90F98006818
:106A7000D0E9001009688847CDE936011BE00F987E
:106A8000D5E901860068D0E90010864208BF884534
:106A90000FD009688847CDE9360101208DF8D40070
:106AA00035A9284628F045FAD8F80410304688471A
:106AB00008E0CDE9368601208DF8D40035A92846B6
:106AC00028F037FA032020708AF811000A9800286D
:106AD00018BF01200A90DAE90C0150EA010218BF40
