:1010000008FC0320011100001BDA0300653C060008
:101010001BDA03001BDA03001BDA030000000000E8
:101020000000000000000000000000001BDA0300C8
:101030001BDA0300000000001BDA03001BDA0300C8
:1010400059110000C11100001BDA03001BDA030074
:101050001BDA03001BDA030019DF0300451200004E
:10106000911200001BDA03001BDA030039120000A2
:101070001BDA0300CD1100001BDA03001BDA0300AA
:101080001BDA0300F1DF03001BDA03001BDA0300A5
:10109000AD1100001BDA03001BDA03001BDA0300AA
:1010A0001BDA03001BDA03001BDA03001BDA030060
:1010B0001BDA03001BDA0300000000000000000040
:1010C0001BDA03001BDA03001BDA03001BDA030040
:1010D0001BDA03001BDA03001BDA03009D12000079
:1010E0001BDA03001BDA03001BDA03000000000018
:1010F000000000001BDA0300000000001BDA030000
:101100003CF08EFC0E480F490022814201D004C001
:10111000FBE70D480D490E4A814202D008CA08C0BB
:10112000FAE70C484FF47001026842EA01020260DB
:10113000BFF34F8FBFF36F8F39F045FD00DE000026
:101140008022002090200120080000207C22002026
:10115000E8F4060088ED00E0B0B502AF5CF002FCF8
:10116000104C206828B1002020600F481C303DF052
:10117000F1F9606850B10C4D0020606005F11C0071
:101180003DF0E8F905F134003DF0E4F9A06838B12C
:101190000020A06004483430BDE8B0403DF0DAB92A
:1011A000B0BD00BF1C010040300B012080B56F4670
:1011B0000248BDE880403DF0CDB900BFE8F6002010
:1011C00080B56F46BDE880405DF05EBFF0B503AF0F
:1011D0004DF804BD154E002030603EF05FF9144D0F
:1011E0000446A869F0B94FF0FF30A861686A78B189
:1011F000A96A88420CD0D6F808140170D5E9090113
:1012000001306862884204BF05F11C003DF076F9A8
:10121000A8690130A86120465DF804BBBDE8F04034
:101220003EF072B903483CF07BFA00BF00D10040A9
:10123000AC0B0120B0B4060080B56F46BDE880401D
:101240005EF0BEBDD0B502AF0F4C206930B11020AA
:10125000C4F808020D482C303DF07CF9606830B1CC
:101260000220C4F8080209482C303DF073F92068C8
:1012700040B10120C4F8080204482C30BDE8D04039
:101280003DF068B9D0BD00BF00710040300B0120B7
:1012900080B56F46BDE880405DF0EABEF0B503AFB3
:1012A0004DF8048D84B0344C206858B1334D012082
:1012B000C4F8080205F11C003DF04CF905F12400CA
:1012C0003DF048F9E06D38B14FF40000C4F8080271
:1012D0002A4824303DF03EF9A06A38B14FF48060CE
:1012E000C4F80802254824303DF034F9A06D28B137
:1012F0000020A06521481C303DF02CF9206EB8B3C9
:1013000000202066D4F86C631C48C4F86C63BFF3FB
:101310005F8F50E8051F314340E80512002AF8D1DD
:101320000020BFF35F8F8DF80C0007200DF104083B
:10133000029001200190404639F0DBF9012817D1D5
:1013400001F01F040D4626FA04F0C00704D0284619
:1013500029F0BCF93DF0FEF884F0100026FA00F008
:10136000C007E8D0284629F005FA3DF0F3F8E2E797
:1013700004B046F053BF00BF00710240300B0120A3
:10138000F0B503AF2DE90007ADF5846D044690F884
:1013900014040D4620B1032817D01F483CF067FA0B
:1013A000E846214640464FF4847262F03DF8D4F896
:1013B000101442AE4246304622F010FF04F584700D
:1013C00031464FF4427262F02FF804F58478A7F1A9
:1013D00024002A46414619F049F857F8246CB51CF8
:1013E00001D103200FE0404657E908A905F084FA2F
:1013F000701C07D0A7F1240047E9096A47F81C9C34
:1014000003F090FD012084F81404B5FA85F040093A
:101410000DF5846D47F03FBBF0640600F0B503AFF7
:101420002DE9000F95B0D0E90149834608468A4668
:10143000A4EB090545F0F6FB854201D200200BE242
:101440005046DBF8005045F0EDFBDFF81C142A464F
:10145000009100EB09014846234629F049F99AF822
:101460000020FF2A1FD19AF80420FF2A3ED148F01D
:101470001DF9BAF8080001280AA814BF1B211D2174
:1014800043F0AAF9C0B2022840F0DD81BAF80A1090
:101490000AA843F0C1F9C0B2022840F0D481DAE9C9
:1014A00003120AA84EE1B2F10A044FF0000398BFFC
:1014B0001C46002C35D0012C48D148F0F7F80AA87A
:1014C000522143F089F9C0B2022840F0BC81BAF839
:1014D0000C100AA843F0A0F9C0B2022840F0B38172
:1014E000DAE901120AA844F0A1FA35E0CDE90301D6
:1014F00000200590DFE812F00900C5005E00A200A0
:101500003200EF001B01C200290103A8032143F0B0
:1015100063F9C0B2022840F09681BAF8061003A819
:101520008BE10AAC0A2A0BC400F29981DFE812F0C1
:101530000B00150132013501690147017301970163
:101540009701970112010AA8102108E148F0AEF8AE
:101550000AA81E2143F040F9C0B274E103A8092192
:1015600043F03AF9C0B2022840F06D81DAF8144035
:1015700003A8214643F030F9C0B2022840F063814D
:101580000AF10802139447F05FFA0AA8294645F0C9
:10159000E3F99DF82800FF2840F0548147F09EF9B8
:1015A000C0B2022840F04F8147F08AFEC0B2022844
:1015B000EBD048E103A8052143F00EF9C0B20228A0
:1015C00040F041819AF8144003A8214643F004F901
:1015D000C0B2022840F037810AF108028DF8244099
:1015E0000DF1400807CA06AB07C30AA804300290F1
:1015F00003AC0AA806A945F005FABDF828000028A2
:1016000040F02081029AA446BDF82A10404678CACC
:1016100078C0644612780270604643F0FDF8C0B2AC
:10162000022840F01081404643F0A6F846F077FBD0
:1016300044F0FCF9C0B20228DBD004E103A8012188
:1016400043F0CAF8C0B2022840F0FD809AF80510B5
:1016500003A843F0C1F8C0B2022840F0F480BAF801
:10166000081003A843F0D8F8C0B2022840F0EB807D
:101670009AF8061003A843F05FF8E0E003A80D21F4
:1016800057E003A8072143F0A7F8C0B2022840F0B2
:10169000DA800AF108020DF1280847F0D5F9404632
:1016A000294644F0B1FE9DF82800FF2840F0CA808A
:1016B000BDF82A103046BDF82C4043F0ADF8C0B25A
:1016C000022840F0C0803046214643F0A5F8C0B261
:1016D0000228E4D0B7E003A8112143F07DF8C0B29E
:1016E000022840F0B080DAF8144003A8214643F005
:1016F00073F8C0B2022840F0A6800AF108021394E1
:1017000047F0A2F90AA8294645F026F99DF82800D5
:10171000FF2840F0978047F0E1F8C0B2022840F07F
:10172000928047F0CDFDC0B20228EBD08BE003A839
:101730000B2143F051F8C0B2022840F08480DAE96E
:10174000021203A844F072F979E003A8132143F0D0
:1017500043F874E00AA80C215FE00AA8082143F0CE
:101760003BF8C0B202286ED1BAF812100AA843F0B2
:1017700053F8C0B2022866D1BAF814100AA843F090
:101780004BF8C0B202285ED10AF101010AA844F068
:1017900065FE54E00AA80A2135E00AA8122143F0A8
:1017A0001BF8C0B202284ED1BAF802100AA843F0C2
:1017B00033F8C0B2022846D1DAE9011271E60AA86C
:1017C000062143F009F8C0B202283CD1BAF8021051
:1017D0000AA843F021F8C0B2022834D1BAF80410A4
:1017E0000AA843F019F8C0B202282CD1BAF80610A2
:1017F0000AA843F011F8C0B2022824D1DAE9021293
:101800004FE60AA8022142F0E7FFC0B202281AD12F
:10181000BAF8021010E00AA8042142F0DDFFC0B2BD
:10182000022810D1BAF802100AA842F0F5FFC0B29F
:10183000022808D1BAF804100AA842F0EDFFC0B29D
:10184000022800D10220022806D1504645F0EAF9CC
:101850004844CBF80800022015B046F08FBC03487E
:101860000F21034A3BF0FBFA40D206002CDB0600B6
:101870004CDB0600F0B503AF4DF804BD84B0044660
:10188000D0E901300D46191A04290CD32268061D2F
:10189000084946F06AFACDE9020102A82946042265
:1018A00028F032FF08B1002001E00220A66046F0D7
:1018B0004BBC00BF6066060080B56F460021017317
:1018C00001490131016080BD300B012080B56F46B8
:1018D00045F2E012815010440021C17380BDD4D480
:1018E000E0B502AFDFF880C0044600254DF2C0101D
:1018F00040F2011285422FD02B18654405F11806DD
:1019000056E8001F21B946E800210029F8D103E07C
:10191000BFF32F8F1D46EDE71448686205F12800DC
:101920002146FFF7D3FF204629463CF09DFA0025CB
:10193000BFF35F8F54E8000F44E800510029F9D14C
:10194000BFF35F8F30B1C669C5614576416A88478C
:101950003046F7E720BFEBE705487A1E00902B21C1
:101960000448054B3BF02BFFE8220020CD3E02004F
:10197000C874060089D306007C8D0600F0B503AF5D
:101980002DE9000B94B00446F8680DF13C0846F0D0
:10199000B3FF9DF83C00FF2803D040F603202080D1
:1019A0001DE0A7F14E0008F10401851C46F046F940
:1019B00002A82946861C46F083F80BAD314646F056
:1019C0003DF947F0A5FC2078FF2808D047F02FFE0E
:1019D00004483CF049F846F0FBFE3CF0ADF914B089
:1019E00046F00ABC9F000000F0B503AF2DE9000FE0
:1019F000CDB0FE68D7F80880CDE91D2056F870AF4D
:101A0000D8F84400C346CDF8AB00C1465BF8410F9F
:101A1000D6F808E02A90D8F83D0012931691726823
:101A2000F568D6F810C07369B169F469CDF8CB00D8
:101A300059F83A0F2192CDF870E01B95CDF868C0A7
:101A4000199320911F94329032A88DE812045446C5
:101A50000DF1F80ACDE9032E624605952AA9CDE9D4
:101A60000610A6F13001504624F012FD22A89AE893
:101A70002E002EC0429811904398109044980F90D9
:101A800045980E90306A1890706A179008F14E00D1
:101A9000D6E90AA545F023FD20F07F40CDE90A0BE9
:101AA000209800901F98CDE90104219803901C987C
:101AB000CDE908A5049005461B98CDF854B00590D3
:101AC0008346189806901798CDF84C90CDF8309032
:101AD0001494079026A822A91A9A199B9146984611
:101AE00024F0FAFB1D98102804D126A816992AF094
:101AF00016FB30B11E99FF20087040F60330888035
:101B00005EE0D6E90C40D7F808A01D90B06B1890A5
:101B10000AF14800F66B45F0E2FC20F07F400A90A5
:101B200013980B9015980C90209804901F98189972
:101B3000CDE905041D98CDE90816CDE9005BCDE996
:101B4000029807902AA822A9149A219B24F0C4FB8A
:101B5000DDE92C01DDE92A23CDE900013EAC204678
:101B600006F074F89DF8F850FF2D0AD0611C32ACD5
:101B700046F0EFF81E9E214646F0D4FA3571FF205C
:101B80001DE00DF1C809211D09F1030546F056F8C5
:101B90002EAE294645F094FF129C0DF1F80832460E
:101BA0004046214628F0C8FE9DF8F850FF2D0AD087
:101BB0001E9E08F1010146F0B5FAFF203571307024
:101BC0004DB046F005BA9AF8380002239AF84A1048
:101BD0000DF1F8089AF85020022801F0030008BF20
:101BE000012302F0030180F0010081F001010843AC
:101BF0000F990091B0FA80F00E994009CDE90113D8
:101C00002146DDE910320390404628F0C8FE9DF8D9
:101C10002161022E09D198E86E0048466EC01E9ED2
:101C200099E83E00301D3EC0A9E732AC3EA929220A
:101C300046F019FABDF826012146ADF830012922F7
:101C4000DDF822014B903EAD46F00AFA5046294697
:101C500047F0ADFC4B981E99CAF82A00BDF8300138
:101C6000AAF82E000A208AF829600870A8E7D4D4C0
:101C7000102B7DD1F0B503AF2DE9000F9DB0099079
:101C80008846F868137800F16006D2F80100D2F8AF
:101C90000540D2F8095043EA002C39692B0243EA87
:101CA0001463240244EA1060D47BB2F80D20C6E924
:101CB00000C042EA0442120242EA1562C6E9023258
:101CC00018A803F037F806F1300A189806F1100347
:101CD000F66B1A9A08F07F041999DDF86CB0069239
:101CE00083E80708A4F140020791314608909AE87A
:101CF0002006504661F04EFCCDF814808046284600
:101D00004946224661F046FCC4F1400281465046F5
:101D10003146D7F80CA061F078FD0AF1200103915B
:101D20000699402CCDE901BA009138BF49EA000874
:101D30002948002C08BFA84647F01CFC0AA8DDE98A
:101D4000073224F02DFBDDE90C01DDE90A23CDE9A2
:101D5000000118AC204605F0B5FE9DF86050FF2D3F
:101D60000CD0611C0FAC45F0F4FF099E21461FE02A
:101D7000FF21017040F6032181807047DDF8149047
:101D80000FA8C61C211D1022D7F8088046F08DF937
:101D900014AD314645F052FF18AC41462A46204664
:101DA00028F0CAFD9DF86050FF2D09D0099E611CE6
:101DB00046F0B8F9FF20357130701DB046F008B913
:101DC000099C5146B02204F1080061F02DFB062069
:101DD000C4F804902070F0E7C0FFFF7FF0B503AFB8
:101DE0002DE9000B94B00446F8680DF13C0846F06C
:101DF00083FD9DF83C00FF2803D040F6032020809F
:101E00001DE0A7F14E0008F10401851C45F016FF06
:101E100002A82946861C45F053FE0BAD314645F01D
:101E20000DFF47F075FA2078FF2808D047F0FFFB38
:101E300004483BF019FE46F0CBFC3BF07DFF14B0AC
:101E400046F0DAB99E000000F0B503AF2DE9000FAF
:101E50009FB08246880701D411206BE0D56B934672
:101E600005F108030FCB46F0C1FD11BF8DE80F004F
:101E70000020CDE90200CDE9000016AE69463046EB
:101E800005F014FF9DF85840FF2C3DD111A8311DDD
:101E900000F10308102246F09EFC0AAE414645F0D0
:101EA0000FFE0DF158095946324647F00AFC9DF8DD
:101EB0005840FF2C2FD12868C10740D06968000A1C
:101EC0000A0E8DF83E200A0A40EA0160ADF83C2077
:101ED0000E9016AE0EA9304605F032FF9DF8584020
:101EE000FF2C11D1311D404646F089F91BAE414609
:101EF00045F0E6FD05A85946324628F01DFD9DF83F
:101F00001440FF2CA8D00CE011AD711C46F008F86D
:101F100005A8294602E005A809F10101013046F0B3
:101F2000A5F805A90AF10500013146F09FF8FF2048
:101F30008AF804408AF800001FB046F049B805242A
:101F4000EFE7F0B503AF2DE9000F8BB0044602A810
:101F50000E460021924605F08BFD9DF80800FF28F3
:101F60001DD09DF80B10E170BDF809109DF81B20E5
:101F7000DDE903C5A4F80110BDF81910059E9DF810
:101F80001830ADF81C108DF81E202374C4E901C56B
:101F9000E660A4F81110E274207045F0BDBF9DF812
:101FA00018B0059DBDF81900ADF8040059469DF81C
:101FB0001B008DF806002846DDE9038922F028FA87
:101FC00002460B4606F1480011461A4645F040FB12
:101FD000C0B202281CD1BDF804005146ADF829005A
:101FE0009DF806008DF828B00995CDE907898DF890
:101FF0002B0002AD07AA284628F09EFC9DF8086039
:10200000FF2E10D0601C691C46F030F82670C4E723
:1020100005204946207040460BB0BDE8000FBDE8E2
:10202000F04045F0EBBAFF20B6E7D4D4F0B503AFEB
:102030002DE9000F9FB00D46B968069314460B902A
:102040001AA802F077FE1A9804F170061C9A05F09F
:102050007F0504F1900B1B991D9B0FC60892A5F1FB
:1020600040020A909BE8400E50460991594607935A
:1020700061F090FA8046304649462A4661F08AFA75
:10208000C5F1400281465046594661F0BEFB04F15D
:102090002001402DCDE90241079901910899009155
:1020A00038BF49EA00082448002D08BFB04647F071
:1020B00061FA0CA8DDE9093224F072F9DDE90E01BC
:1020C000DDE90C23CDE900011AAC204605F0FAFC4D
:1020D0009DF86850FF2D0BD0611C11AC45F039FE06
:1020E0000B9E21461322701C61F06AFA35701FE0C6
:1020F000DDF82C8011A8C51C211D45F09FFD16AEF2
:10210000294645F0DDFC1AAC06993246204628F0F7
:1021100013FC9DF86850FF2D07D008F10100611CE9
:1021200045F0A4FF88F8005002E0FF2088F8000086
:102130001FB045F04DBF00BFC0FFFF7FF0B503AF3C
:102140002DE9000FB5B016461D46CDE91210B04678
:10215000D6F83D000DF1A00C55F8702FCDF8A30076
:1021600058F83A0F289056F8410FD5F808906B6848
:10217000D5F80CA0D5F810E0D5F814B0AC69E96931
:102180002C90D6F8030014921593CDF86C90CDF8EE
:1021900068A0CDF864E0CDF860B017941691CDF842
:1021A000B3002CA88DE800460DF18009CDE9051C8F
:1021B000A5F1300107904846CDE903B424F068F951
:1021C0001CA899E81E0005F1300B1EC02498119040
:1021D0002598109026980F9027980E90F01D9BE858
:1021E000100AD5F83CA045F07AF920F07F40CDE9FF
:1021F0000A08DDE91A10CDE908BA0C96CDE900010C
:10220000199802901898039017980490169805A9A9
:1022100081E8110228A81CA9DDE9142324F05CF848
:10222000DDE928230DF18009DDE92A01CDE900016E
:10223000484605F00BFD9DF88060FF2E0ED02CACBB
:1022400009F1010145F085FD139D21461322681D0A
:1022500061F0B6F9FF202E71287051E0DDF84C8056
:102260002CA8C61C09F1040145F02AFC31AC31460A
:1022700045F073FD0DF180091299224647F021FACD
:102280009DF88040FF2C0BD008F1050009F10101F9
:1022900045F0ECFEFF2088F8044088F800002FE0AD
:1022A00005F1200B464608F11804ED6A9BE8000D85
:1022B00009F107001CA945F0A2FF0B20494606F8CA
:1022C000010B172245F0F1FE199804F12C01206250
:1022D000189860621798A0621698E56381E8010D6E
:1022E00011982060109860600F98A0600E98E060D0
:1022F00014982061159860611B98A0611A98E0619C
:1023000035B045F065BED4D4F0B503AF2DE9000F6C
:102310008BB004460220ADF80A0001208DF80800B9
:102320001E462C4888468DF80920039007A845F0E2
:102330001BF9079DEDB3DDE9089BFB20D7F808A04A
:10234000CDE904B00020069004A803A9FFF792FA93
:10235000C0B202281CD104A802A9FFF78BFAC0B2B0
:10236000022815D1DDE90530191A02290ED3049A85
:1023700019490091811C019128F0BAF9CDE90701B2
:1023800007A83146022228F0BFF9B0B1042004E0CA
:10239000C0074FF0040018BF0D20012120706170AC
:1023A000284649460BB0BDE8000FBDE8F04045F0B7
:1023B00025B91620207045F0AFBD019851460A900E
:1023C00007A880E8200A07AB2046424623F042FBDC
:1023D000F1E700BF0600050060660600DCB504AF4B
:1023E00010CBB83100943DF081FEDCBD91F867332D
:1023F00001F51472012B12BF91F8561202F58C727E
:102400000121A0B1D0B502AF9388B0F81541126890
:102410006340D0F8114162401A4390F81731594097
:10242000C90718BF0020002A18BF0020D0BD002017
:102430007047D4D4F0B503AF2DE9000794B002ADD6
:1024400088468146482145F0F3FFD8F80C404826DD
:10245000334B2946482C38BF26463046482228F0C0
:1024600054FA0546D8F808008A46214625F0B0FE01
:102470008E4251D803462B4800901A4628465146B2
:10248000334645F01AF9022C09D22D483BF0ECFAFC
:1024900030463BF0DBFA3BF04FFC0A2019E09DF898
:1024A0000800441EE5B20E2D12D22046A6F1010A04
:1024B00022F022FA80B282451BD109F1010002A963
:1024C000482261F07DF8C9F84C6089F8004008E0C6
:1024D000072089F80500032089F80400FF2089F807
:1024E0000000D8E9000145F089F814B0BDE8000704
:1024F000F0BD0D483BF0B8FA0C480D4CA0470D4814
:10250000A0470D480D4950F8250051F8251039F025
:1025100079FA0020A047BEE70A4B0A4646F0B1F818
:10252000B0670600D06706009400000011000000AC
:1025300027DA0300C001000074E006003CE006005A
:1025400095000000C0670600F0B503AF2DE9000F4D
:1025500095B01C788046FF2C15D045481D46164680
:102560008A4693F801B03BF07FFA42483BF05BFAB1
:10257000284643F0B5F8032C18BF4FF0080B3BF08A
:10258000DBFB192C05D1FF2088F8000015B045F0C1
:102590001FBDB6F858430FA844F0E6FF0F98002877
:1025A00047D0A7F143000094C51C0FA90C2245F0A9
:1025B00057FDA7F152002946C61C0C2245F075FDB7
:1025C00012AD31460C2245F04BFD02A829460422EB
:1025D00021F030FF9DF80800DDE903549DF81860F4
:1025E000FF28DDF8149025D14846314621F010FF30
:1025F000D9B380F800B0304621F003FFCDE9049054
:102600004046CDE9025402AD009A51462B4623F0D4
:1026100021FA98F80000FF28B5D098E85E00284617
:102620005EC015483BF020FA46F086F93BF084FB8B
:10263000ACE716209DF80B1088F80310BDF80910C0
:102640009DF81B20A8F80110BDF81910ADF8041072
:102650008DF8062088F81060C8E90154C8F80C907D
:10266000A8F8111088F813208EE7044A45F09FF966
:102670008D000000AC01000092000000F067060031
:10268000F0B503AF4DF8048D92B00DF104080D467E
:1026900006461146404644221C4661F00BF8B868D5
:1026A0002946009030464246234600F005F812B015
:1026B0005DF8048BF0BDD4D4F0B503AF2DE9000F65
:1026C000ADF29C6D0D46014605F1D0001690DCAED2
:1026D00095F8C84006F1600B05F1780A99469046D6
:1026E000022CCDE918155DD11AAE2946C82246F054
:1026F000D8F915209DF8681028710E2028700C2933
:1027000098F8000000F23483DCAA02F17004DFE8DC
:1027100011F00D00AA0163014B01F2003001FC0130
:102720002F039702E7022F03CC02CD00FF2804BF3E
:1027300098F80C10002900F00D87411E0329C0F005
:10274000D982002840F0108398F80100002801F099
:102750003F800DF59F684946404628F015FA9DF8E0
:102760002165FF2E01F03E87DCAC0DF59F6129222B
:1027700045F079FCDDF82205214688902922BDF834
:102780002605ADF8240205F1D00060F019FF889805
:10279000C5F8FA00BDF8240285F8F960A5F8FE0036
:1027A00000F023BFCDF85C900DF50C792946C822C6
:1027B000484660F039FE15209DF83012287112202D
:1027C00028700F2998F8000000F28B851AAA02F1F0
:1027D0006003DFE811F01000A103F6027104A40405
:1027E00086056F03BF03FC0386057F050805860584
:1027F0008605D9027A03FF2804BF98F80C200A2A1C
:1028000040F06F85D8F80800002802F04B8295F858
:1028100019010C22D8F8041005F1D006032808BFCE
:102820000822DDF85CB0DBF8383093F8700393F8D9
:102830007133024485F81A210C7813B1012185F80F
:1028400018110DF59F6858B195F81C0195F81D11E8
:1028500040F0030085F81C0141F0030185F81D11CB
:102860001AA8594628F0E2F9DDF860A09DF8910019
:10287000022807D0600741F15F829DF8900002288E
:1028800001F05A82DCAC31465A462046FFF759FB2C
:102890009DF87063FF2E01F0A68108F10500611C10
:1028A00045F0E4FB8DF8FC6401F05CBAFF2804BF3E
:1028B00098F80C20082A40F01A82D8F80820002A3C
:1028C00002F0EE81D8F804000478DCAE022C80F02F
:1028D0009A870DF59F68062A42F2D48150F8011FAD
:1028E000C5F81111818846F079FB01D046F017F93F
:1028F0000D2002F06FB8FF2804BF98F80C100229D1
:1029000000F01286042800F23682DFE810F07B0621
:10291000F301F30105007B0605F118010DF59F6534
:102920000DF59F60902200F1900446F0FAFE0DF53F
:102930005C7A711C112245F0C1FE0026D8F8040013
:10294000C4E90006C4E904069DF87003C4E9026600
:10295000C007C4E9066601F01784B8680AF10102ED
:10296000CDE90095002102908CA81023FFF780F993
:10297000C4E1FF2804BF98F80C20022A40F0B78178
:102980000DF59F6405F10801B022204660F04CFD72
:10299000D8E90123A046B8681B99CDE900940290BC
:1029A0008CA8FFF765F9ABE1042800F27987DFE82E
:1029B00010F0290605005107A10129069DF86900BC
:1029C000002801F0128106F1180016991022CDE9B5
:1029D0000010B11C00F0D9BEFF2804BF98F80C20ED
:1029E000032A40F08481CDF85C9005F108014CA8E1
:1029F000702260F019FD9AE8400A05F19801202242
:102A0000DAF80CA0C6A860F0DBFD45F05DFE40F0F2
:102A10002887D8F804000DF59F6532464B46D0F85C
:102A200009101591D0F805101491D0F801101391E8
:102A300001781291C17B11911799B0F80D00109097
:102A40002846CDE900BAFEF799FF9DF8F884B8F161
:102A5000FF0F01F0DE818CA8691C45F039FA8DF872
:102A6000348200F002BFFF2804BF98F80C200B2A24
:102A700040F03D81D8E901120DF54678404644F01A
:102A80009BFCD9F82C10BEAC45F05BF9D9F830109E
:102A90004CAE4022CA4645F008FB0DF59F69214621
:102AA00042463346484644F0B9FB9DF8F804C00757
:102AB00000F0DE869DF8FB0409F106018DF80602A0
:102AC0001222BDF8F9049DF8FC449DF8FD64ADF8B0
:102AD00004027CA860F074FD09F1180079A90DF5D5
:102AE0009F650CC80CC1007808704CA9284605F0F9
:102AF00035F89DF8F804FF2801F0D8810A204FF03E
:102B000003088DF8710301F0FCB9FF2804BF98F8A1
:102B10000C20032A40F0EB8005F10801DCA845F009
:102B2000BBFD45F0D1FD40F0AC86D8F804001B9DFC
:102B3000CDF85C90D0F801100278DBE90E9842EAFB
:102B40000122CBF820201592D0F80930D0F80520CA
:102B50001C02119505F07F0544EA1264120242EA54
:102B60001161CBF82840CBF82410C5F14002149134
:102B7000C17BB0F80D00139440EA014041460002C9
:102B800040EA136A4846CBF82CA0DBE90C6460F0FD
:102B90003CFE1290304621462A4660F0FBFCA5F12F
:102BA000400204464846414660F0F4FC1299402D2C
:102BB00038BF44EA0100E649002D08BF3046DCAAD0
:102BC00061F35F00139B02F12001CDE9003ACDE9EA
:102BD00002120490BEA8DDE9143223F0E1FBDBE928
:102BE00000ACDDE9BE648CEA0401DBE90289DDE9C1
:102BF000C03589EA050008438AEA060288EA03012B
:102C00001143084341F00380DBE904230DF59F6481
:102C1000DBE90601CDE90001204604F079FF9DF8CB
:102C2000F864FF2E01F0B283611C4CAC45F091F8C2
:102C30008CA8214645F04CF98DF8346200F015BEA1
:102C4000FF2804BF98F80C20032A50D105F1080191
:102C5000DCA845F021FD45F037FD40F01A86D8F894
:102C6000040004F1100545F0A1FA0EC5B968E06151
:102C7000204602F05FF8D4E90201D4E900230DF503
:102C80009F64CDE9000149462046FEF777FE9DF896
:102C9000F864FF2E01F045818CA8611C45F018F9FD
:102CA0008DF83462FF2001F077BAFF2804BF98F84E
:102CB0000C20072A1BD145F007FD40F0128695F83D
:102CC000F900DCAE022808D0D8F804000AF1680444
:102CD00045F06CFA0EC4CAF874000C2000F006BE71
:102CE000FF2804BF98F80C200C2A00F04785421EEC
:102CF000032A36D28CA81AA946F0DEFB0DF59F6890
:102D0000DCAE9DF83002FF2800F07F840DF50C7AD0
:102D10000DF59F60C822514660F086FB9DF8F804CF
:102D20000E2800F07D84199D0D2840F09C84C84633
:102D300095F8F990B9F1020F00F0958495F81A0111
:102D400000F00300012802BF95F8200100F0030005
:102D5000012800F0BE8495F8F8E04FF0020900F079
:102D6000E5BC002800F03A84042804D100F04ABCF5
:102D7000FF2840F0298498F80C00042800F0C48350
:102D80000D28B7D000F03EBCFF2804BF98F80C20F7
:102D9000072A40F0A68245F097FC40F03786DDF820
:102DA0005CB095F8F900022808D0D8F804000AF1C0
:102DB000680445F0FBF90EC4CAF874000F2000F057
:102DC00027BEFF2804BF98F80C200B2A40F0898208
:102DD000BEAE09F1040120229A4645F066F905F1DC
:102DE000240B0DF5467940224846594660F0E8FB31
:102DF000D8E901124CAC204644F0DEFA0DF55C78BF
:102E0000314622464B46404644F008FA9DF870038E
:102E1000C00700F000869DF8730308F106018DF8E5
:102E2000AA001222BDF87103ADF8A800BDF87443E2
:102E30001AAE06F1450060F0C3FB06F1570008F139
:102E40001801092260F0BCFB06F120004CA945F0F6
:102E500004F93046594645F000F950465021ADF886
:102E6000AB4060F08AFA95F80801811E38BF022154
:102E7000DDF85CB0C9B2022901F0ED80DDF860A098
:102E8000032941F00C810F200DF55C788DF870035B
:102E900045F07AFDD6AE45F04CFD9DF85843FF2C29
:102EA00041F0618308F107001AA945F01DFA0920D5
:102EB00001F0BCBB98F80C10FF2808BF022900F0F5
:102EC000EA83FF2800F0118249E2FF2804BF98F846
:102ED0000C20082A40F00582D8F80820002A01F0CA
:102EE000E386D8F80400DDF85CB00478022C80F0AA
:102EF000D1850DF59F68062A41F2C68650F8011F5C
:102F0000C5F811118188DDF860A046F067F800F07F
:102F1000DA8245F004FED6E2FF2840F0E08298F81D
:102F20000C100A2900F07F85012940F0DE81D8E9E4
:102F30000112DCA844F09CFB9DF87003022840F0CD
:102F400083860A20DDE917BA0DF59F6801F059B9AB
:102F5000C0FFFF7FFF2804BF98F80C20022A40F032
:102F6000C08105F10801DCA8602260F05DFA9AE8F2
:102F7000500605F188011AA846F05CFA45F0A4FB5A
:102F800040F05A85D8F804000DF598788D992246BE
:102F9000159133460168149141681391816812912B
:102FA0001799C06811904046CDE9009AFEF716FFC8
:102FB0009DF830B1BBF1FF0F01F023800DF59F624A
:102FC00046F002FB45F052F88DF8FCB4F6E1FF281C
:102FD00004BF98F80C20032A40F0838105F1080112
:102FE000DCA845F059FB45F06FFB40F02E858D982D
:102FF0005D46DBF830A0DBF8341000F07F04DBF82E
:1030000038B0A4F14002D5F83C9014911390584682
:103010004946D8F80460CDF854A060F0BBFA149982
:1030200080465046224660F0B5FAC4F1400282461E
:103030005846494660F0E9FBF368D6F8009072689C
:10304000D6F808B0DCA9039120310291402C1493EA
:10305000CDE900B338BF4AEA00081598002C08BF34
:103060008046DB4846F086FA90461AA84A46434610
:1030700023F096F9D5E902E3DDE91A42D5E900C16A
:10308000DDE91C605140584084EA0C02084386EA9E
:103090000E011143084340F0E28514981399C5E9E5
:1030A0000898C5F828B01329E862199D41F0AE8050
:1030B0000DF59F60DCAB8CE0FF2804BF98F80C2076
:1030C000022A40F00E8105F108011AA8B0221C4620
:1030D00060F0AAF945F0F8FA40F07483D8F80400DB
:1030E00045F064F884E80E00B968E06004F110006F
:1030F00001F020FED4E90601D4E90423CDE9000162
:10310000DCAC44F0F3FE9DF87063FF2E40F0638664
:10311000E01D1AA945F0E8F8042000F06CBEFF2875
:1031200004BF98F80C20032A40F0DB800DF1680BF7
:1031300005F10801B0221C46584660F075F945F0CB
:10314000C3FA40F03F83D8F804000BF120028168F5
:10315000D0F80CA0D0F80490D0F800800020CDE981
:10316000001ACDE914214B46CDE9022B42460490CA
:10317000C6A823F015F9D4E902E3DDE9C652D4E983
:1031800000C1DDE9C860514058408CEA050208439F
:103190008EEA06011143084340F0728504F11003E2
:1031A000159DC4E908890FCBC4E90A5A149CCDF8CF
:1031B00000B001AE86E81003CDE9045A23F030F9DF
:1031C000199D95F80811022941F03E800DF59F6088
:1031D0001AABDDF85CB0169A5946FEF7AFFFDDF882
:1031E00060A000F02EBCFF2804BF98F80C200C2A29
:1031F00077D105F10801DCA8502206F1100460F037
:1032000013F9D8E9010104F1280A0D902069129000
:1032100060691190A0691090E0690F90206A139086
:10322000606A1490606B0E9005F58F709AE8000745
:103230001591D4E90E6B44F052F9D5F8142120F021
:103240007F40D5F81111CDF833214C91D5F80D21DF
:10325000D5F80A11CDF86B201A91CDE9086B0A90C8
:103260004CA80B901AAD12980290119803901098E8
:1032700004900F98CDE9050A0E980C95CDE90089C8
:103280000790D6A8DCA9DDE9132323F025F81598CB
:10329000102806D1D6A90D9828F041FF002800F08B
:1032A000F9844FF00B080326199DDDE917BA0DF5D7
:1032B0009F60BEA90630122260F082F9FF208DF8CF
:1032C000FD848DF8FC64DCAE8DF8F8040DF59F6884
:1032D00001F0B9B9FF2804BF98F80C20032A00F0C8
:1032E0005A82FF2809D198F80C10042922D046F000
:1032F000DEF80D2900F0F880FFE00539082900F21A
:10330000EE80DFE801F0052CECEC81ECECD1E9007B
:103310000DF59F68012800F09482DDF85CB002286A
:1033200040F0EB8040F60340DDF860A0ADF8FC040F
:1033300001F08BB9DDF85CB0D8F80800002801F086
:10334000AB8446F0A8F88DF8FC14411E102928BF64
:1033500008208DF8FD04DDF860A001F076B903289F
:1033600040F0BD800DF55C7A05F1180190225046C1
:1033700060F05AF80020D8F804100DF16808179B87
:10338000CBE90C105246CBE910100021CBE90E001E
:10339000CBE91200B868009040469DF83162FEF714
:1033A00045FE9DF86840FF2C00F053830DF59F62A9
:1033B00046F00AF944F05AFE8DF8FC44FF20DDF88F
:1033C00060A08DF8F804DDF85CB001F039B900BFF9
:1033D000C0FFFF7FF0960600970000009B000000F2
:1033E000A2000000990000008B0000009300000084
:1033F000195F0400ECD60600A40000008E00000057
:103400009800000089000000042868D10DF16809C7
:1034100005F10801B022484660F006F8D8F801002E
:1034200008F1210414902022D8F8050021461590B7
:10343000D8F809001290D8F80D0013904CAE44F063
:1034400034FE5FF87010204628F069FE40B95FF83E
:103450007C1006F1100028F062FE002800F088843D
:103460004946DDF83C91DDE94DA82031DDF830B169
:103470000020CDE90089CDE9021153460490DCAC6F
:103480005A46204622F08CFF06F11001204628F013
:1034900046FE002800F07084FF208DF8F80440F20A
:1034A0000340ADF8FC04CAE2C8B998F8010000284E
:1034B00000F05083DDE917BA0DF59F6895F82301F8
:1034C000800700F1C08595F822110DF59F605A46DE
:1034D000FEF7BAFC01F0B5B8002800F0AB8145F06A
:1034E000E6FF0138022808D20DF59F608CA945F04F
:1034F000E3FFDDF860A001F0A4B81520DDF860A0BE
:103500008DF8FC0401F0A1B8D8F80800002801F0FB
:10351000C58345F0C0FF8DF83412411E102928BF25
:1035200008208DF8350270E045F0CEF840F0598162
:10353000D8F804108CACA01C44F061FE0DF59F6817
:1035400005F1180108F1060044F0CEFE44F0C0FE7B
:1035500004204AE10DF59F604946D8E901A9179179
:1035600027F064FB9DF8210502281ED00D200DF5E3
:103570009F688DF8F8040DF55C7B17984346816AC7
:10358000826B584627F07DFA9DF87003FF280BD018
:103590009BE85E0040465EC05FF8C4013AF064FA02
:1035A00045F016F93AF0C8FB199D0DF59F6051469C
:1035B0004A4644F05DF89DF8F844022C40F01A8128
:1035C000DDF85C900A208AE2072908BF042800F091
:1035D0009081421E032AFFF48DAB98B90A2911D1BC
:1035E00098F80100002800F0F38095F81D0180078D
:1035F00000F1628295F82201DCAE80074CBF0B20FF
:103600000D2073E1152045F04DFF8CA808F1040151
:10361000043090E87C000E207CC1DCAE8DF8F8040C
:10362000301D08F1040134F08FFF0C20D9F8281068
:103630008DF870033346D9F838204CAC204627F07B
:1036400020FA45F079FD0DD0304694E86E006EC04A
:10365000DCAE5FF878023AF007FA304642F032F812
:103660003AF06AFB199D0DF59F61284645F024FF4D
:103670008CAC2946204642F0B6FCFF208DF8700342
:103680009DF83002FE2818BF2646189D96E81F00B8
:103690001FC501F018B845F017F840F0C480D8F8FD
:1036A00004100DF59F6808F1020044F0A8FDB01D5C
:1036B00005F1180144F018FE012031468DF8F90497
:1036C00008F11200B6225FF07BFFDDF85CB0062047
:1036D000ADE04CAE169A4146304627F0FBF945F076
:1036E0002BFD0DD00DF55C7B96E83E0058463EC0A4
:1036F0005FF8140345F0A1FE45F0E7FC3AF01CFB2F
:10370000169805F1E00EAC465446016817914168E1
:10371000149181681591D0F80CB09EE86F006FC4C9
:10372000DDE9142117989CF8F8E0DCAECDE9E01B48
:1037300006F11801CDE9DE028DF871E39AE87D000B
:103740007DC10B20DCAE8DF8A1938DF8A0E333464C
:103750008DF87003D8F82810D8F838204CAC2046E3
:1037600027F08FF945F0E8FC3FF47CAF304694E851
:103770006E006EC0DCAE5FF894036CE706F10800E3
:10378000169BD8E90112CDE900308CA84B46FEF714
:103790002BF9FFF7B3BA05F10801DCA844F07CFF70
:1037A00044F092FF0ED1D8F8040044F0FFFCFF90E3
:1037B000FCA80EC0DCAB0DF59F60DDF85CB045F0F9
:1037C000E9FC73E1FF20DDE917BA45F0D1F86FE1BC
:1037D0005FF8EC033AF054F945F02CFC40F6037026
:1037E00053E0052045F05EFEFF20DCAE8DF8300290
:1037F000FFF789BA9DF8FA64DDF85C90300700F1B4
:10380000678103206BE15FF81C043AF02DF9204634
:1038100038F094FA3AF090FA05200DF59F688DF88B
:10382000340201F0D6B845F08DFE0DF59F68DDF845
:1038300060A099E298F80100002800F09981112019
:10384000F2E0DDF85CB009F108030DF59F6045F08A
:10385000A1FC4EE640F603400DF59F68ADF834023A
:10386000D3E640F60320ADF8340245F0E3FB19E35C
:1038700040F60330ADF8340245F0DCFBD146FFF7EB
:103880003DBA45F0D7FB40F60320ADF83402FFF710
:1038900035BA45F0CFFB05208DF83402FFF72EBA7C
:1038A0009DF8690000287FF466AA98F80C000C289F
:1038B0007FF461AA44F008FF40F0DB85D8F80410DB
:1038C0008CACA01C44F09BFC0DF59F6805F1180121
:1038D00008F1060044F008FD44F0FAFC032000F073
:1038E000CCBD05208DF83402FF20DCAE8DF830020F
:1038F00013E3CDF85C9005F108014CA844F0CCFE30
:1039000008F121060DF546792022484631465FF040
:1039100057FE5FF84015D8F80D0015903046D8F8DE
:103920000140D8F805B0D8F809A095F81E5142F02A
:10393000EBFA40B95FF8641509F1100042F0E4FABF
:10394000002800F02D84CDE913BA0DF55C7ACDE99D
:103950001154C6AB0DF53E780FCB109045F01AFB15
:103960000F914146BE9050460E920D9337F0A6FE41
:103970000DF59F64002651464FF4B8722046CDF8ED
:10398000DC64CDF8D864CDF8D464CDF8D064CDF83B
:103990006866CDF86C66CDF87066CDF874665FF039
:1039A00089FE0DF55C7A21464FF4C07250465FF0F7
:1039B00081FE8DF8F0644CA800F120045FF8D095EA
:1039C000504620222146C847504621462022C8475B
:1039D0000DF59F6B504601228DF8F8645946C84793
:1039E000584651464FF4C2725FF064FE9DF878A6C7
:1039F0000BF5B8715FF804361022504627F041F9F4
:103A0000002970D000F8016B0139F9E745F09AFD03
:103A10008DF8F8044AE040F60330ADF8FC04FF20CE
:103A20008DF8F8040BE00120DDF860A045F03FFDC3
:103A30008DF8F80400F04BBEFF2044F099FFDDE95B
:103A400017BA0DF59F6800F0FBBD05200DF59F68C6
:103A50000AE1DDF860A0F00700F0618109F10200E1
:103A600044F0A4FB8BE80E00CBF80C00DBE9060168
:103A7000DBE90423CDE900011AAC44F037FA9DF8E4
:103A800068600DF59F68FF2E00F0A18408F1050025
:103A9000611CD3E35FF8A00639F0E6FF204638F05A
:103AA0004DF93AF049F9FF2044F062FFDDF860A0DB
:103AB0000DF59F6800F0C5BDD9F83CA00AF10803D8
:103AC0000FCB44F093FF00F0F18282AC0FC4F2E21E
:103AD0009DF8FB84B8F1100F80F0328206208DF83B
:103AE000350203208FE5A7F13C060024584647F82D
:103AF0003C4C31468DF8784647E90E4447F8304C47
:103B000037F04DF8A7F12C093146484634F0A8FDAE
:103B10000BF5B076102C0AD00BEB0400013490F8B2
:103B2000601190F87021514080F86011F2E7BAF10D
:103B3000100F40F02E82DDF850A00DF59F68DDE9F2
:103B4000124B0020102800F03D8219F8001044F0BC
:103B5000AEFCF7E75FF85C0739F092FF40F60370C0
:103B6000DDE917BAADF8FC040DF59F6800F06DBDF6
:103B70000D200DF55C788DF870030DF1680917982C
:103B80004346816A826B484626F07BFF9DF86800B9
:103B9000FF280CD099E86E0040466EC0DCAE5FF89E
:103BA000A00745F04AFC44F013FE3AF0C5F8DDF8F2
:103BB00060A0E00700F04982DCACDDE9161B5A4644
:103BC0002046FEF7BEF99DF870630DF59F68FF2E45
:103BD00000F0588408F10500611C44F047FA8DF8A4
:103BE000FC6400F0AFBF0120BDE00DF59F6805F15A
:103BF000180108F1070044F077FB092041468DF8D1
:103C000030028CA844F0A8FADCAEFFF77FB85FF86A
:103C10000C089B4615953546664639F025FF5046FB
:103C2000314642464B4641F07FFC159B28462146D3
:103C30005A4641F079FC3AF07FF845F0FBF940F242
:103C40000340ADF834022DE19DF872130DF59F6825
:103C5000DDE917BA0A0700F1CE820320D1E2199DEF
:103C60000DF59F68DCAE032004218DF8FC04FF20D5
:103C70008DF8FD148DF8F804DDE917BA00F0E1BC09
:103C8000199D0DF59F68DDE917BA40F60340ADF8C0
:103C9000FC04F4E2DDF864B0AC4602269BF81A118D
:103CA0009BF820519BF8080101F0030105F0030582
:103CB00081F00101022885F0010508BF0126294392
:103CC000B1FA81F1D4E900234909D4E9020403914E
:103CD000654617998DE85100604626F060FE0DF5A7
:103CE000467AA91C12229DF8686050469DF86980AA
:103CF0009DF891405FF064FC022C40F0C582BEA8A4
:103D0000BAE82E00FF2E2EC05D46BAF80010DDF88E
:103D100060A0DDF85CB001807FF4C9AAF1E20DF586
:103D20009F68DCA908F1080044F0B6FC0020CDF83B
:103D3000FC040720FFF745BBDCAC5946204626F0C3
:103D400023FF9DF89963FF2E40F0DE820DF5987CED
:103D500094E86E0060466EC008F104009CE83E00E6
:103D60003EC0199DFF20DCAE8DF8F80400F06BBC5E
:103D7000DDE94CBADDE94E891AA8129E00F1700403
:103D800095F81E01002808BF0646159908BF014690
:103D9000149A08BF0246139B08BF0346C4E90821D2
:103DA000B968C4E90A63C4E90CBAC4E90E89DCA89D
:103DB00000F0C0FFDDE9DE01DDE9DC23C4E900231A
:103DC000C4E90201CDE90001DCAC44F08FF89DF8B4
:103DD0007063FF2E0AD00DF59F68611C43F0F2FF5F
:103DE000FF208DF8FC648DF8F8040EE0E01D1AA9A0
:103DF00044F07AFA0A200DF59F688DF8F80408F16E
:103E000001002146B7225FF0DBFBDDF860A000F087
:103E100017BCDDE91010702241EA00484CA9DCA86B
:103E20005FF002FB149A1399100284E8400A40EAFA
:103E30001165129840EA012315991393080240EA8C
:103E400012624FEA082040EA11681492C4E9055250
:103E50002022C4E903A3C4F81C80DCAC04F1900068
:103E6000C6A95FF0ADFB04F12000149A8DE8510A59
:103E7000294643461398CDF814A022F0D1FA199997
:103E800091F80811022940F063820DF59F64DCA9C6
:103E9000E01D44F029FA092021468DF830028CA853
:103EA00044F05AF9DDF85C90FEF728BF1794D6A8C5
:103EB00000F10208291D102244F08DFC82A8414621
:103EC000841C43F04AFF0DF508782146102244F087
:103ED00082FC0DF55C795146424645F0F2FB9DF8B7
:103EE0007083B8F1FF0F00F07C8299E85E002846ED
:103EF0005EC0DFF8000E39F0B7FD44F01DFD39F06B
:103F00001BFF8CA8DCAE0530711C44F0AFF8FF201D
:103F10008DF834828DF83002D1460DF59F68FEF79A
:103F2000F0BEE01DDCA944F0DFF9092021468DF840
:103F300030028CA80130B7225FF042FBFEF7DEBEF4
:103F4000BDF8FCA49DF8F9945FEA8A7042BF95F829
:103F50001C0140F0020085F81C015FEA8A5040F124
:103F600079841798C36BD3E902E1D3E9042341EACA
:103F7000030C4EEA020050EA0C0000F05584CDF824
:103F8000F8E4CDF8FC14CDF80025CDF8043500F0A8
:103F900054BC16F80A00A7F12C0180F0800006F846
:103FA0000A00404634F05CFBDDF850A00020DDE95B
:103FB000124B102804D018F8001044F078FAF8E7F3
:103FC0000DF59F680DF59F60314636F0E8FD0FCE88
:103FD00044F0E0FFBE90C6A800F11001BEA841F079
:103FE00093FFDCAE119DDDE90F9C0028DDE90D3E5D
:103FF00000F0DD8045F01EF840F20340ADF83402D9
:10400000F5E00DF59F68DCA908F10800602208F1D1
:1040100068055FF009FA149805F10C012860302258
:10402000139868601298A8601198199D81E851064C
:1040300008F188001AA95FF0C3FA1598CDF8FC04BE
:104040000820FFF7BCB90E20F2E4DFF8840C39F049
:1040500017FD1020EAE4DDF860A0002800F01682C9
:104060000A200DF55C788DF8700344F08DFCD6AE17
:1040700044F05FFC9DF85843FF2C40F0748208F137
:1040800006001AA944F030F90DF59F620620ADF83C
:10409000F804414602F112009046B622CEE208F141
:1040A00007001AA944F020F90320BFE20020CDE95F
:1040B0008400CDE982000DF59F6882A9404603F097
:1040C000F5FD9DF8F844FF2C52D14CA84E4600F166
:1040D000030908F10401102244F028FCD6AC49463B
:1040E00043F03BFE0DF59F68314622461796404649
:1040F00026F022FC9DF8F844FF2C40F02381DAF8EA
:104100000000C10700F06C82DAF80410000A0DF517
:104110009F660A0E8DF8F6210A0A40EA01607C903B
:10412000ADF8F4217CA9304603F00AFE9DF8F8446E
:10413000FF2C40F03884311D484644F060F8BEAE94
:10414000494643F0BDFCDDF85C900DF59F683246B2
:104150004046494626F0F0FB9DF8F844FF2C3FF41A
:1041600049AA08F10101C6A843F080FF00F026BC6F
:104170004CAD08F1010143F0D3FEC6A84ECD4EC0B0
:1041800045F0F8F800F01ABC8CA80DF59F610830D6
:1041900044F082FA8D9605208DF83002FEF7AEBD10
:1041A000DDE9C6C90DF59F68DDE9C8E3DCAE4CA8C2
:1041B000903015F0010102BF8A468B460C46159AD5
:1041C00008BF0A46C0E902A2C0E9004BB022C0E91C
:1041D00004C9C0E906E308F107004CA95FF0F0F953
:1041E000082041468DF830028CA843F0B5FFDDF879
:1041F0005C90FEF786BD9DF873230F2A00F2BC8108
:1042000006208DF8FD040320FFF77AB9B8684C1C2E
:104210000090DCAADDF85CB00DF16808214640464C
:104220005B46FDF703FF9DF86860DDF860A0FF2E98
:1042300000F0E9810DF59F6245F0C6F943F016FFE5
:104240008DF8FC64FF20E8E1DDF85CB009218DF811
:1042500070130DF55C78DD9044F096FB4CAE44F0A5
:1042600068FB9DF83041DDF860A0FF2C00F0D8819C
:104270000DF59F68711C43F0A5FD8DF8FC44FF20EF
:10428000DCAE8DF8F804DCE105F1140C15940DF5A5
:1042900098792946BCE83D00CE46AEE83D009CF842
:1042A00000008EF80000BDF89600ADF80C02DDF8B5
:1042B000920082900846BAE83C003CC0BAF8002060
:1042C00002800BF1D20012228BF8D1808BF8D060E3
:1042D0005FF076F9B9E83E000BF1E4003EC05D46C0
:1042E00015998BF8F91099F8001001708298CBF8A5
:1042F000FA00BDF80C02ABF8FE00DDF860A0DDF8B6
:104300005CB00C20FEF7DFBF4CA8DCA945F04FF9EC
:10431000DDF89A03022EC690BDF89E03ADF81C038B
:1043200000F0B7844CA905F1D00045F040F9C698DB
:10433000C5F8FA00BDF81C03A5F8FE000D2085F8AD
:10434000F96010E508F10101C6A843F08FFE33E3E0
:10435000DDF85C9009218DF8F8140DF59F68CDF813
:10436000FC04D9F828104346D9F83820BEAE44F0F2
:10437000E0FA9DF8F842FF2C00F032828CA8711C04
:1043800043F0A6FD8DF83442FEF78CBC4CA8211DED
:10439000C61C43F095FBC6AC314643F0DEFCDDF8AD
:1043A0005C900DF59F6622463046494626F0C4FAD9
:1043B0009DF8F8440DF59F68FF2C00F01F828CA833
:1043C000711C43F085FDFF208DF83442CAE308F1EB
:1043D0000800DCA944F060F90020CDF8FC040820B6
:1043E0001BE14CA9484643F038FE09F12004C6A958
:1043F00043F0A7FC179812228DF8B303BDF804020E
:10440000ADF8B0039DF806028DF8B20309F145003E
:104410008DF8B4637CA95FF0D3F809F1570079A94E
:1044200009225FF0CDF8584650215EF0A6FF19989A
:1044300090F80801023838BF0220C0B2022800F00C
:10444000CD82032840F0FE820F200DF59F6844F0D6
:1044500054FBD6AE44F06DFA9DF85853FF2D40F052
:10446000738308F10700DCA943F03EFF07204146B3
:104470005DE5052045F016F8FF208DF83002DCAE32
:10448000FEF741BCDCAE0120FFF7D2BA1AA8D7F87C
:1044900008809030159010301490E14840F2FF1BD6
:1044A0004FF0FF398246404636F0A8F904464046B0
:1044B0000E4636F0A3F9DB4D0023A0FB0502E1FB1D
:1044C0000523A4FB0541A6FB05566D184FF000011E
:1044D000464152F1000253F1000024EA0B0341F17E
:1044E0000001BAEB030379EB050379EB060379EBE3
:1044F0000202D8D3149B0022DDF85CB083E80700E9
:10450000DA60159BDD9083E807000821DA608DF8FA
:104510007013DBF82810DBF83820D6AEDCAB44F0A3
:1045200008FA9DF85843DDF860A0FF2C40F0348273
:10453000B86800210090DCAE1AAA5B4630464FF006
:104540000008FDF773FD9DF87043199DFF2C0AD1FB
:104550000DF59F641AA904F1080044F09DF8CDF808
:10456000FC84A04658E00DF59F68711C43F02AFCBE
:10457000FF208DF8FC4450E085F8201105F58F717F
:1045800085F81E0105F58C70BDF874339DF87143F4
:10459000A5F8223185F8212185F81F4142F0AAFFB4
:1045A00085F809112022DBF82C1085F808014CA8A9
:1045B0005FF006F8DBF83010DCAE402243F075FD0A
:1045C0000DF168083146404603F0C8FA9DF86800CE
:1045D000FF2800F083820A2003248DF81903A7E244
:1045E0000524E9E1DCAD98E85E0028465EC0294676
:1045F0008CA800F1040C91E85D008CE85D002E466B
:10460000FF20FFF773B90DF59F68DCA908F10800DA
:1046100044F042F8CDF8FC4407208DF8F8040FE090
:1046200008F107001AA943F05FFE05200DF59F620F
:104630008DF8F804501C41469046B7225EF0C0FF4A
:10464000DCAE9DF8F804FF2841D108F10400311DCB
:1046500090E87C0012207CC1DCAE199D8DF87003BF
:1046600008F10400311D33F06FFF0C20DBF8281037
:104670008DF8F8044346DBF838204CAC204626F091
:1046800000FA44F059FD09D044F0D1FFDFF8580694
:1046900044F0D3FE44F09CF839F04EFBDCA92846E8
:1046A00044F00AFF1AAC2946204641F0ADFCFF2039
:1046B0008DF8F8049DF86800FE2818BFA04698E819
:1046C0001F008AE81F000DF29C6D43F081BC0DF5C0
:1046D0009F69DCA8C82249465EF0A6FE9DF87003DB
:1046E0001228BDD01128D9D195F8F910022904D18A
:1046F000DFF8EC0539F0C4F9D0E795F81A0100F0BD
:104700000300012802BF95F8200100F003000128F2
:1047100006D095F8F8E00DF1680B4FF0020A2FE093
:1047200015910DF59878DDE916614046324626F080
:10473000D1F944F001FD0BD098E83E0048463EC058
:10474000DFF8940544F079FE44F0B5FF39F0F4FA4F
:10475000306805F1E00E14900DF1680B7068A84602
:1047600013905C46D6E902AC9EE86F006FC45146D8
:1047700098F8F8E00DF59F68139A1498DDF854A0A6
:10478000CDF80CC509F1180CCDF80425CDF80005BD
:104790008DF8F9E4CDF808159BE87B008CE87B00E8
:1047A0000B204B468DF8F80417988DF829A58DF845
:1047B00028E5816A826B4CAE44F0BBF844F0BCFC47
:1047C0000BD096E83E0048463EC0DFF8100539F0B1
:1047D0004BF944F070FF39F0AFFADDE918A55DE759
:1047E00008F10600DCA943F07FFD0320ADF830029C
:1047F0008CA812304146B622FFF79EBB119C132CA9
:1048000040F0A881F01DDCA943F06EFD092031467F
:104810008DF830028CA843F09FFCFEF771BA00BF00
:10482000FFC5FCFF40420F000020CDF80405CDF885
:104830000005CDF8FC04CDF8F804DFF898140DF568
:104840009F6027F06CFC28B195F81D0140F0020034
:1048500085F81D0195F819010C21A5F822A105F58F
:104860008C7B85F82181032885F8206185F81F91CC
:1048700085F81E4108BF0821DDF85C90D9F83800A2
:1048800090F8702390F87133881885F81A0105F5AF
:104890008F7013B101218BF80010594642F02AFEA7
:1048A000199A82F808010DF59F6082F8091101211B
:1048B00003F0DEF89DF8F8A4BAF1FF0F43D19DF89C
:1048C0000865DDF80445BDF80905ADF81803314663
:1048D0009DF80B058DF81A032046DDF8FC84DDF801
:1048E00000951FF095FD43F0E5FE58461A4642F04C
:1048F000AFFEC0B2022848D1CDF8FC940DF55C792A
:10490000CDF8F8840DF59F68BDF818031799424655
:10491000ADF805059DF81A038DF8070548468DF892
:104920000465CDF8004526F007F89DF870A3BAF1AC
:10493000FF0F6DD1DDF85C900DF59F6801208DF8BB
:104940003002FFF761B99DF808259DF8FB048DF84A
:104950008023DDF804258DF87303BDF8F904DF9298
:10496000DDF800259DF80B15ADF87103BDF80905BC
:10497000DE92DDF8FC24ADF830018DF83211DD92C5
:104980008DF88313ADF881034FE04046494642F06D
:1049900035FE4FF0050A46E00DF59F68711C43F0A7
:1049A00011FA199DE4E54CAD711C43F0B9FAC6A8A3
:1049B0004ECD4EC044F0DEFCDDF85C90DCAE8DF8F0
:1049C00034428CA8C6A9053013220DF59F685EF00D
:1049D000F7FDFF208DF83002FEF793B9199890F893
:1049E0000901002800F0CE800A200DF59F6844F0F0
:1049F00084F8D6AE43F09DFF9DF85853FF2D40F04C
:104A0000A38008F10600DCA943F06EFC0420EDE66B
:104A100099E85E0040465EC0BA4839F025F843F098
:104A2000D7FE39F089F9DDF85C90DCA98CA8053057
:104A3000013113220DF59F685EF0C2FD8DF834A29E
:104A4000FEF7E3BDB9680BF1100000F073F9DBE984
:104A500006010025DBE904238DE803020DF59F60C4
:104A6000CDE9034521F09CFCDDF804150DF59F68A8
:104A7000DDF8F824DDF8FC34DDF80005CBE90201AF
:104A8000CDE900014046CBE9002303F01BF89DF877
:104A9000F854FF2D6AD182A808F10401C61C43F026
:104AA0000FF888AC314643F058F90DF55679514668
:104AB000224644F006FE9DF85853FF2D40F08080BA
:104AC00008F10700DCA943F00FFC022041468DF8F5
:104AD00030028CA843F040FBFEF7D0BEBEA808F120
:104AE0000401861C42F0ECFFD6A83146841C43F03A
:104AF00034F90DF50279214610225E4643F016FF87
:104B00000DF5467B31464A46584625F015FF9DF87F
:104B10001843FF2C3DD09BE86E0040466EC06948AC
:104B200038F0A2FF43F054FE39F006F9DDF85CB02E
:104B3000C6A90DF59F6808F10500013143F096FA0A
:104B40008DF8FC44DCAE80E58CA8711C053043F088
:104B50008DFA46E08CA8DCA9083043F09DFD601C6E
:104B60008D9005208DF83002FEF7CAB882AE08F1AC
:104B70000101132243F099FAD6AC3146601C43F090
:104B800075FA29E0DAF80000D146A0B3D9F804108C
:104B90004EE008F103004CA943F05FFA0DF59F6465
:104BA000DCA904F1240043F0B4FD022041468DF855
:104BB000F804601C2322A0465EF002FDFEF703BC51
:104BC00099E85E0040465EC04D4838F04DFF43F026
:104BD000FFFD39F0B1F8D6AC8CA8611C43F078F930
:104BE000D146FF20DCAE0DF59F688DF830028DF8C0
:104BF0003452FEF786B8BD68314B404CD5F8000101
:104C000040280BD32846002126461C4620F012FAE5
:104C1000D5F8000140284AD223463446421C55F8B4
:104C20002000C5F80021A0FB0301A0421046E7D8F0
:104C30000BF140000BF130020026CDF8FC14C0E966
:104C400000160DF55678C2E900160DF59F63C2E90E
:104C50000266D9F82810D9F83820C0E90266082081
:104C60008DF8F804404625F00CFF9DF858538CA8A9
:104C7000FF2D03D10830DCA9FFF78ABA053008F10F
:104C8000010164E7194B00E00B4B0120072138F0CC
:104C9000A7F80D4838F03AFD124A06E01A4A04E037
:104CA000134A02E0094A00E0044A42F080FE124A38
:104CB000402138F0DBF800BFE0660600D066060051
:104CC00040420F00A1000000C0660600B06606006A
:104CD0008F000000F0960600A30000009A0000007C
:104CE000A5000000A06606009C00000008D5060094
:104CF000F8D40600A0000000DC9406007F3DF1FF20
:104D00009D0000009600000080660600D0B502AF4E
:104D100092B0BC688DF81020FF228DF80420CDE9F8
:104D200002343A69FB68009201AAFDF7C5FC12B093
:104D3000D0BDD4D4F0B503AF2DE9FF07DFF89490D0
:104D400000260D468046EA46CDE90266CDE90066BA
:104D50000F2E1ED8D5F80041402C07D3284600213D
:104D600020F068F9D5F80041412C2AD2304651464E
:104D700010224B4625F085FF02460B4605EB8400CA
:104D8000C4F140013AF0C8FC2044C5F800010E44CB
:104D9000DEE704A89AE81E001EC004AB43F07CFACC
:104DA0001FBFA8E80F0008B0BDE80007F0BD084825
:104DB00038F05AFE04A840F0B3FD38F0BDFF38F0DB
:104DC00009FF054B20464021402238F009F800BF7A
:104DD000AB0000004CDC0600CC940600F0B503AF3D
:104DE0002DE9F80F0646B0F80A9090F8098025489A
:104DF0000068C00541D12548254921F0E4FB05465E
:104E0000007C8A46012804D105F1080101A821F09F
:104E1000F5F8D5F8BC4064B3287C28B1B8F1FF0F91
:104E200027D01C4838F072FCD5F80CB03146CDF8CC
:104E30000090092205EB0B1909F114005EF0C0FB8C
:104E40000098A9F81E000BF10100B0F10801C9F8A3
:104E5000204089F81D8018BF0146A868E960884293
:104E600004BF0120287442F0EFFC05F194003AF0F1
:104E7000FAFF42F040FE42F02BBE034838F000FE3D
:104E800038F0A8FE04ED00E03D000000C001012064
:104E900004BC06000CBE0600F0B503AF4DF804BD1F
:104EA00084B006461A480068C00529D11A481B4933
:104EB00021F089FB44F08DFB04D105F1080101A824
:104EC00021F039F9E86FB0B1297CF1B9D5E90212C6
:104ED00005EBC2039861501C821E1E7518BF024666
:104EE000EA60914204BF0120287442F0ADFC05F154
:104EF00024003BF013F843F085F904B043F0DFB829
:104F0000044838F0BDFD38F065FE054838F0FEFB7A
:104F100004ED00E03D000000D004012004BC0600C8
:104F20000CBE0600BFB506AF0168DFE801F0041F44
:104F3000191B17252C1DD0E90101CDE9010101A89C
:104F40000390274838F090FD264838F06CFD26493C
:104F500003A838F0ADFD38F0EFFEBFBD1D4806E0F8
:104F60001D4804E0164802E0164800E01B4804B063
:104F7000BDE8B04038F084BD4468154838F074FD91
:104F800044F0CAF818E0D0E901540F4838F06CFD3D
:104F90000E4838F048FDDFE805F0020C040600205A
:104FA00008E0022006E044F0ABF8204638F0F8FDB7
:104FB00002E0012038F072FDBDE8BF4038F0BCBE11
:104FC000720000006000000063000000A401000007
:104FD00045000000440000006D0000006E0000006D
:104FE000590000000F0000001C9B0600F0B503AF45
:104FF0004DF804BD856804686DB14268C66804F167
:105000000800531B00EB4211B21A00EB431052018F
:105010005EF051F900E0C668701B206043F04FB8A5
:1050200080B56F4690F81414032918BF80BD00F5B1
:105030008470BDE8804001F05FBC80B56F4618B158
:10504000BDE8804042F0DABA80BD80B56F46818A03
:10505000022908BF80BDD0E9003182681846BDE84A
:10506000804000F0EBBE80B56F46016939B1D0E9F0
:10507000003182681846BDE8804000F061BD80BD07
:1050800080B56F46D0E90012114308D090F88C101B
:10509000032904D10830BDE8804001F00CBD80BD7B
:1050A00080B56F46016819B1BDE8804000F0CDBB06
:1050B00080BD80B56F46C24312061CBFBDE880406C
:1050C00001F053BE80BDD4D480B56F4605480021A1
:1050D000012201600449425001680029FCD00021EE
:1050E000016080BD14710040F4FEFFFF80B56F4683
:1050F000017B052918BF032904D11430BDE8804085
:1051000001F077B880BD80B56F4690F8441031B19A
:10511000032918BF80BDBDE8804000F0E3BA3830F5
:10512000F9E7D4D4D0B502AF0446006820B943F003
:105130009DFA43F067F8D0BD044838F095FC3FF085
:10514000D7FB38F0F9FD38F045FD00BF3E00000008
:10515000D0B502AF0446103020F0A7FE41F27C002B
:1051600020443EF037FB41F288002044BDE8D040A7
:105170003EF030BB80B56F460168012918BF80BD85
:10518000D0E90110C968BDE88040084780B56F4686
:1051900090F87510032918BF80BDD0E90010C968C8
:1051A000BDE880400847D0B502AF0446D0E9000111
:1051B000084304BF207B032808D0D4E93201084308
:1051C00004BF94F8D40003280AD0D0BD207E06285E
:1051D0000ED00428F1D104F12000FFF787FFECE79F
:1051E00094F8E800062808D00428EED1282005E02D
:1051F00004F1200000F0FDFFDFE7182004F1D801E2
:105200000844BDE8D04000F0F4BFB0B502AF04469A
:105210000025902D08D06019017D032904BF0430BA
:1052200001F0C6FB1835F4E7B0BDD4D4F0B503AF38
:105230002DE9000F8BB0044690F83C0F032805D0F1
:1052400040B904F69800FFF7AEFF03E004F618201B
:1052500000F0E9F9D4F8A80704F59D6538B994F889
:10526000BC07042804BF04F5F86001F02DFDD4E963
:105270000C01084301BF94F84400032804F15000D6
:1052800000F0CCFED5E90001084307D194F8FC04F6
:10529000042804BF94F8A007032801D042F03CBEC4
:1052A000D4F8000738B994F82607042804BF04F599
:1052B000E56000F092FFD5E93E01D4F8E82500F062
:1052C0003FFCD5E93A01D4F8D82500F0B7FDD5E97F
:1052D0003601D4F8C82500F099FCD5E932A09D49E3
:1052E0000190D4F8B8050968C90540F02E819B49A2
:1052F00021F069F90646D0E9005B806B06F14009B0
:1053000000910138B06348461DF04EFCB5EB000833
:105310006BF10000BAEB0801019971EB000039D381
:105320000DF1080B4946584620F0C6FEBAEB0800BE
:10533000069004D0411E02A835F0ADFB60B10DF11E
:105340001C089BE82E0040462EC0404625F057FA28
:1053500010B143F09AF9F8E702AD0020D6E9101237
:10536000891A18BF012196F848201143C9070BD0AC
:10537000316D49B9284649463AF096FD0298002811
:1053800000F0E0800120E9E7C0071CBF06F12C0017
:105390003AF073FD009904F59D6542F08CFED5E965
:1053A0002E01D4F8A82500F091FCD5E92AB069496E
:1053B0000190D4F898050968C90540F0C68067498E
:1053C00021F001F90646D0E9005AC06F06F108093C
:1053D00000910138F06748461DF0AEFBB5EB0008C0
:1053E0006AF10000BBEB0801019971EB000033D3B7
:1053F0000DF1080A4946504620F0D0FDBBEB0800ED
:10540000069004D0411E02A835F045FB40B144F09F
:1054100046F9404625F0F3F910B143F036F9F8E7C4
:1054200002AD0020D6E90212914202D1327CD207AD
:105430000CD006EBC101896941B9284649463AF0CA
:105440007BFC029800287DD00120EBE7C0071CBF41
:1054500006F170003AF011FD009942F02CFE3D4932
:1054600004F59D60D0E926BAD4F888050968C90515
:105470006BD13A4921F0A7F80646D0E90058D0F898
:10548000EC0006F1080901910138C6F8EC00484625
:105490001DF098FB2D1A68F10000BBEB05017AEBBB
:1054A000000037D30DF1080A4946504620F055FE5A
:1054B000BBEB0500069004D0411E02A835F020FB8E
:1054C00048B144F0ECF8404625F0FBF918B181688A
:1054D00001398160F7E702AD0020D6E9021291425E
:1054E00002D1327CD2070FD001EB410106EB8101E2
:1054F000C96949B9284649463AF04AFD9DF808006D
:1055000002281FD00120E8E7C0071CBF06F1E00019
:105510003AF0B3FC019942F0CEFDD4F8701519B100
:10552000D4F87405C9688847D4F8781500293FF481
:10553000B5AED4F87C05C9680BB0BDE8000FBDE876
:10554000F0400847064838F0E1F8034838F098FA88
:1055500038F040FB04ED00E03D00000068870600E5
:10556000E890060080B56F46017B032918BF80BD17
:105570001030BDE8804001F0C6BBD0B502AF044694
:1055800090F83B0003280FD0042805D005280ED141
:10559000D4E91101FFF751FD94F83A00012804BF46
:1055A000D4E9080142F02AF8002084F83A00D0BD7E
:1055B000D0B502AF044690F83005032804BF04F5C7
:1055C0009B60FFF7DAFF94F8A702033804281AD883
:1055D000DFE800F003150D10080004F5307001F04D
:1055E000CAFA10E004F52A7000F0D2FF0BE004F5CF
:1055F0002A7006E004F5327000F052FE03E004F574
:10560000307000F02EFE94F82200042806D0032803
:1056100018BFD0BD04F1280000F04DFE07CCBDE856
:10562000D04000F0F3BAD0B502AF044690F8B6020D
:10563000042805D005280DD104F52E7001F070FA6C
:1056400094F8B50218B104F5E07000F04BF90020B1
:1056500084F8B50294F8BA03042804BF04F5707006
:1056600000F029FE2046BDE8D040FFF79CBD80B584
:105670006F46C0B2BDE880405AF06CBEF0B503AFD3
:105680004DF804BD0A46064643F0ECFB0C461349B0
:10569000054606F576703FF03DF90E4695F85E1327
:1056A000B1B1013985F85E13090604BF95F85C13A2
:1056B000042905D042F06FFE42F0A4FD42F0FFBC89
:1056C000103041F20131A5F85C1338F017FFF1E713
:1056D000034838F0D5F938F07DFA00BFC4930600CE
:1056E000B300000080B56F46014640684A7A00F575
:1056F000B7601AB1BDE880401DF0CAB9097ABDE8AB
:1057000080401DF0A9B980B56F4680BDB0B502AF2D
:10571000456875B102890068D0E9000120F0C0FA3F
:1057200038B10C46D0F84013294443F05FFB42F0F7
:1057300069FDB0BDF0B503AF4DF8048D04460179A5
:105740000068FFF79BFF41F29010261821587568FA
:105750008D4208D1307AC00705D100214FF00408EE
:10576000042000250FE041F29C1004EB000801EB3F
:1057700081008D4208EB800091BFC1F10101691ADF
:1057800000254FF0040801F024FB4046294601F0B3
:1057900020FB316A11B1706AC9688847B16A11B1DA
:1057A000F06AC968884704F108005DF8048BBDE819
:1057B000F040FFF7CDBCB0B502AF88B00446D0E9E9
:1057C000062043690020009002AD2146284601F0E2
:1057D00083FD2846FFF764FC204608B0BDE8B040D2
:1057E00000F072B8F0B503AF4DF804BD066804468A
:1057F0000579D6E900012A4620F065FDD4E90201C9
:105800000A6921469047304629465DF804BBBDE849
:10581000F040FFF733BFB0B502AF88B00446D0E91F
:1058200006204369012194F82000CDE9001002AD63
:105830002146284601F050FD2846FFF731FC20465E
:1058400008B0BDE8B04000F03FB8F0B503AF2DE9B7
:1058500000078AB0D0F800A0044686680020A06047
:105860001EB304F10C000DF1140808F1080190E8D2
:105870002C002CC194F80490DAE900014A463CF06F
:1058800095FD0A68B0F85803013A0A600AF57E717E
:10589000ADF814006846424606961FF09FFB01983B
:1058A00028B1029941F0AAFE01E094F80490504614
:1058B0004946FFF7E3FEE16800200AB0BDE80007B3
:1058C000BDE8F040FFF7B9BBD0B502AF0446D0E960
:1058D0000201FFF7B2FB21792068BDE8D040FFF755
:1058E000CDBED4D480B56F4602C8DFE801F0020215
:1058F0000206BDE88040FFF75EBFBDE88040FFF7CD
:105900008ABFD0B502AF20F0CBF968B10C4690F851
:105910006F130022012980F86F2304BF00F51E7069
:1059200038F0ECFD42F06EFCD0BD80B56F4600F55E
:10593000B7600021BDE880401DF08EB880B56F468D
:1059400000F5BD600021BDE880401DF085B880B540
:105950006F4600F5BA600021BDE880401DF07CB8BC
:105960000168426C8A429EBF00210160704780B589
:105970006F46024B10460A4637F032FA7C9B06000F
:105980000168426B8A429EBF00210160704780B56A
:105990006F46024B10460A4637F022FA7C9B0600FF
:1059A000D0B502AF044602688068211D024B25F085
:1059B00068F900202060D0BD7C9B0600F0B503AFE5
:1059C0002DE9000F89B0824629480068C0054AD1F8
:1059D0008946294942F07CFE0546D0E90046406EE2
:1059E00043F019FE686658461DF08AF842F0A8FA9E
:1059F00032D3E9465946484620F08FFA43F01EFB61
:105A000004D0411E684635F046F840B105AC42F07E
:105A100028FA42F056FE10B142F037FEF9E70020B6
:105A20006C46D5E90212914202D12A7CD2070DD0F0
:105A300005EBC101896949B9204659463AF044F954
:105A40009DF8000002280BD00120EAE7C0071CBF28
:105A500005F150003AF007FA41F056FF41F0ABBFB4
:105A6000064837F053FE034838F00AF838F0B2F829
:105A700004ED00E03D00000068870600E8900600A5
:105A8000F0B503AF2DE9000F89B0824628480068C1
:105A9000C00547D18946284942F01AFE0546D0E99B
:105AA000004B806A05F130080E460138A862404676
:105AB0001DF05EF841F0AEFF32D3E946414648465C
:105AC00020F0B6FA43F0BAFA04D0411E684635F029
:105AD00005F848B142F0ABF8204624F0DBFE10B1E7
:105AE00042F0E0FDF8E756460021D5E90C02801AA5
:105AF00018BF012095F838201043C0070AD0E86B82
:105B000040B9404620F0ABFA01210028EDD10B4806
:105B100037F0FCFDC8071CBF05F11C003AF0ADF9D9
:105B200041F031BF034837F0ABFF38F053F800BF06
:105B300004ED00E03D00000068870600E8900600E4
:105B4000F0B503AF2DE9000F89B082462B480068FD
:105B5000C0054ED189462B4942F0BAFD0546D0E931
:105B60000046C06C43F057FDE86458461DF00EF83F
:105B700042F0E6F936D3E9465946484620F081FA24
:105B800043F05CFA04D0411E684634F0B9FF50B1CE
:105B900005AC42F066F9204624F093FE18B1816806
:105BA00001398160F7E700206C46D5E90212914285
:105BB00002D12A7CD2070FD001EB410105EB810114
:105BC000C96949B9204659463AF038F99DF80400A8
:105BD000FF280BD00120E8E7C0071CBF05F14000FB
:105BE0003AF04BF941F090FE41F0E5BE064837F03F
:105BF0008DFD034837F044FF37F0ECFF04ED00E083
:105C00003D00000068870600E8900600F0B503AF8D
:105C10002DE9000F89B0824628480068C00547D1A9
:105C20008946284942F054FD0546D0E9004B806D75
:105C300005F160080E460138A86540461CF0B4FF27
:105C400041F0E8FE32D3E9464146484620F049FAA1
:105C500043F0F4F904D0411E684634F01CFF40B113
:105C600041F0E5FF42F02DFD10B142F00EFDF9E7E5
:105C700056460020D5E91812891A18BF012195F857
:105C800068201143C9070BD0296F49B940463AF043
:105C90002FF9C1B201200229ECD10B4837F036FDB3
:105CA000C0071CBF05F14C003AF0E7F841F06BBEAD
:105CB000034837F0E5FE37F08DFF00BF04ED00E04C
:105CC0003D00000068870600E8900600F0B503AFCD
:105CD0002DE9000F89B0824624480068C0053FD1F5
:105CE0008946244942F0F4FC42F01EF941F092FE4C
:105CF00031D3E9464146484620F0F3F943F09EF996
:105D000004D0411E684634F0C6FE40B141F08FFF1A
:105D100042F0D7FC10B142F0B8FCF9E7564600203B
:105D20006C46D5E91412891A18BF012195F858203C
:105D30001143C90709D0296E39B9204641463AF0C6
:105D400003F9009848B10120EBE7C0071CBF05F13B
:105D500034003AF088F841F016BE074837F0D6FC18
:105D6000034837F08DFE37F035FF00BF04ED00E04B
:105D70003D00000068870600E8900600F0B503AF1C
:105D80002DE9000F89B0824628480068C00548D137
:105D90008946284942F09CFC0546D0E90046C06F80
:105DA00043F039FCE86758461CF0AAFE42F0C8F8F8
:105DB00030D3E9465946484620F0A8F943F03EF969
:105DC00004D0411E684634F066FE40B105AC42F096
:105DD00048F842F076FC10B142F057FCF9E7002099
:105DE0006C46D5E90212914202D12A7CD2070BD02F
:105DF00005EBC101896939B92046594620F09BF964
:105E0000009858B10120ECE7C0071CBF05F16800FD
:105E10003AF029F841F078FD41F0CDBD064837F061
:105E200075FC034837F02CFE37F0D4FE04ED00E09B
:105E30003D00000068870600E8900600F0B503AF5B
:105E40002DE9000F89B0824625480068C00541D180
:105E50008946254942F03CFC42F066F841F0DAFD03
:105E600033D3E9464146484620F092F943F0E6F83C
:105E700004D0411E684634F00EFE40B141F0D7FE1A
:105E800042F01FFC10B142F000FCF9E7564600203A
:105E90006C46D5E91412891A18BF012195F85820CB
:105EA0001143C9070BD0296E49B9204641463AF043
:105EB00091F89DF80000FF2809D00120E9E7C0070C
:105EC0001CBF05F13C0039F0D8FF41F05CBD07482C
:105ED00037F01CFC034837F0D3FD37F07BFE00BFE2
:105EE00004ED00E03D00000068870600E890060031
:105EF00080B56F4609490968C9050AD1094920F0EA
:105F000062FBD0F8F020013AC0F8F02042F0D3F85C
:105F100080BD034837F0B4FD37F05CFE04ED00E0CF
:105F20003D0000005887060080B56F4609490968A2
:105F3000C9050AD1094920F046FBD0F80021013AF1
:105F4000C0F8002142F0B7F880BD034837F098FD53
:105F500037F040FE04ED00E03D00000058870600E9
:105F600080B56F4608490968C90508D1084920F07D
:105F70002AFB026C013A026442F09DF880BD03489E
:105F800037F07EFD37F026FE04ED00E03D00000016
:105F90005887060080B56F4690F88810032918BF0F
:105FA00080BD2C30BDE8804000F081BE80B56F46DA
:105FB00090F8C910032918BF80BDBDE8804000F0EB
:105FC00018B980B56F4690F8C810032918BF80BD76
:105FD000BDE8804000F00DB980B56F4690F8C21062
:105FE000032918BF80BDBDE8804000F002B980B52C
:105FF0006F4690F8C110032918BF80BDBDE88040EE
:1060000000F0F7B880B56F4690F89913032918BFD0
:1060100080BD4830BDE8804000F0E2BD80B56F46ED
:1060200090F89414032918BF80BD2030BDE880404B
:1060300000F0B4B880B56F4690F8EC10032918BF93
:1060400080BD1830BDE8804000F00CB880B56F46C8
:1060500090F8F810032918BF80BD2430BDE88040B7
:1060600000F000B880B56F4690F84410032908D0BE
:10607000042918BF052909D14830BDE8804000F047
:1060800016BE4830BDE88040FFF784BF80BD80B5B4
:106090006F4690F8A610032918BF80BD1C30BDE8DC
:1060A000804000F00CB880B56F46817F033901292C
:1060B00088BF80BD2430BDE8804000F000B8D0B576
:1060C00002AF044690F82700042818BFD0BD04F1A1
:1060D0003C0000F006FDE06A228ED0E90001BDE838
:1060E000D040FFF70EBC80B56F46417C042918BF35
:1060F00080BD4068BDE88040FFF714B8D0B502AF5E
:10610000044690F83500032809D0042803D0052858
:1061100018BFD0BD03E004F1380000F06DFC002092
:1061200084F83400D0BDD0B502AF044690F83500F5
:10613000032804D0042807D0052818BFD0BD04F1D7
:10614000380000F009F803E004F1380000F054FCD6
:10615000002084F83400D0BD80B56F4690F8501010
:10616000063907290AD8DFE801F00A0F09040914E3
:1061700009045430BDE8804000F03DB980BD543082
:10618000BDE88040FFF762BF5430BDE8804000F0BA
:1061900020B95430BDE8804000F04FBC80B56F4658
:1061A00090F87810042907D0052918BF80BD7C30ED
:1061B000BDE8804000F0CABD8030BDE8804000F0FE
:1061C0005DB980B56F4690F82210052918BF80BDD3
:1061D0002C30BDE8804000F0C0BB80B56F4690F821
:1061E0002010042918BF80BD2430BDE8804000F095
:1061F00084BC80B56F4690F87C10032918BF80BD21
:10620000BDE88040FFF7E9BF80B56F4690F8FC100D
:10621000032918BF80BD1030BDE8804000F00BB8E6
:1062200080B56F4690F8E010032918BF80BDBDE827
:10623000804000F00BB880B56F4690F8DE1003295F
:1062400018BF80BDBDE8804000F074BD80B56F46CA
:1062500090F8D610032918BF80BDBDE8804000F03B
:1062600069BD80B56F4690F82010032907D0042936
:1062700018BF80BD2830BDE8804000F088BC3830B1
:10628000BDE88040FFF7C0BF80B56F4690F8C010F2
:10629000032918BF80BD1030BDE8804000F03EBD2E
:1062A00080B56F4690F8E210032918BF80BDBDE8A5
:1062B000804000F054BC80B56F4690F8341003293C
:1062C00018BF80BD3830BDE88040FFF77ABFD0B539
:1062D00002AF0446007A032804D0042804D1606881
:1062E000FFF706FE00206072D0BDD0B502AF0446B5
:1062F000807C032804D0042804D12068FFF714FE12
:106300000020E074D0BDD0B502AF0446C07A0328A7
:1063100004D0042804D12068FFF7EAFD0020207390
:10632000D0BDD0B502AF0446C079032804D00428FC
:1063300004D12068FFF714FE0020A071D0BDD0B5B5
:1063400002AF0446407A011F022903D220683DF0C3
:106350004DFA02E0032818BFD0BD00202072D0BD46
:10636000D0B502AF044690F80D01011F022904D2F6
:10637000D4F808013DF03AFA01E0032802D10020E8
:1063800084F80C01D0BDD4D4D0B502AF04464FF48C
:106390008F50205C033803281AD8DFE800F002147D
:1063A000090F41F2E8102044BDE8D04000F0FABBEC
:1063B00041F2E8102044FFF77EFF04E041F2E810CC
:1063C0002044FFF7F5F82046BDE8D040FFF7B2B90A
:1063D000D0BD80B56F46017C032907D0042918BFC2
:1063E00080BD1830BDE8804000F061BC1430BDE8CD
:1063F000804000F000B880B56F46017C042918BFCA
:1064000080BD1830BDE8804000F051BC80B56F46BB
:10641000017F042918BF80BD2030BDE8804000F016
:106420000CB880B56F4690F85810032918BF80BD8E
:106430000430BDE8804000F02EBC80B56F4690F877
:106440005C10032918BF80BD0830BDE8804000F013
:1064500022BCD0B502AF044690F85C00011F0429AD
:1064600006D3032818BFD0BD04F16000FFF73BFE40
:10647000E06B4068BDE8D040FFF757BA80B56F4683
:10648000017C0339052909D8DFE801F0030E08096A
:1064900010151830BDE8804000F028B880BD1830D5
:1064A000BDE8804000F02DB8203000E03030BDE87D
:1064B000804000F005B81830BDE8804000F09EBB79
:1064C00080B56F4690F84613032918BF80BDBDE81C
:1064D000804000F085BB80B56F4690F83E130329DD
:1064E00018BF80BDBDE8804000F07ABB80B56F4624
:1064F00090F84013032918BF80BDBDE8804000F02C
:106500006FBB80B56F4690F84813032918BF80BD54
:106510000830BDE8804000F063BB80B56F4690F85E
:106520004513032918BF80BDBDE8804000F058BB6B
:1065300080B56F4690F84413032918BF80BD08301A
:10654000BDE8804000F04CBBD0B502AF044690F8E7
:106550009703032804D143F0EEF8002084F8960353
:10656000D0BD80B56F46017E032918BF80BD1C30A9
:10657000BDE8804000F074BA80B56F4690F82410F2
:10658000032938BF80BD2830BDE88040FFF79FBE9B
:10659000B0B502AF90F8D020062A0ED804460820E5
:1065A00004212546DFE802F02B0909040E0A040045
:1065B00004F1D80000F02CF804E0B0BD04F1D800DC
:1065C000FFF7DAFF04F1C00207CAFFF71FFB04F16F
:1065D000B00207CAFFF754FA04F1A00207CAFFF796
:1065E000EDF904F1900207CAFFF770FB04F1800295
:1065F00007CAFFF7C3FB04F1400548204421225895
:10660000204443686058816A2868BDE8B040084764
:1066100080B56F4690F8F410032918BF80BD0C3088
:10662000BDE8804000F013BB80B56F46017C0329B4
:106630000ED0042907D0052918BF80BD1830BDE849
:10664000804000F00AB81830BDE8804000F0A5B8DE
:106650002030BDE8804000F0C7B880B56F4690F8A4
:106660002810032907D0042918BF80BD3030BDE8A9
:10667000804000F092B83030BDE8804000F0B4B8FF
:1066800080B56F4690F849100339072988BF80BD4F
:10669000DFE801F00D0408120408060650300CE093
:1066A000503005E05030BDE88040FFF7D6BF603085
:1066B000BDE8804000F098B85830BDE8804000F058
:1066C0006CB8D4D4D0B502AF044690F807010338B3
:1066D000082820D8DFE800F0050B050B1008080596
:1066E0001A0004F58C7009E004F5887001E004F5E7
:1066F0008C7000F052F803E004F5887000F074F834
:1067000004F16000BDE8D040FFF72AB904F58C70B1
:1067100000F050F8F4E7D0BD80B56F46017C032946
:1067200007D0042918BF80BD1830BDE8804000F0B4
:1067300005B81830BDE8804000F023B880B56F463A
:1067400090F830100339052988BF80BDDFE801F0DB
:106750000A030F030514403000E03830BDE88040E4
:1067600000F028B83830BDE88040FFF7ABBF3830C4
:10677000BDE88040FFF784BF4030BDE8804000F0B6
:1067800033B880B56F4690F8D713032918BF80BD82
:106790004830BDE88040FFF7D1BF80B56F46017C2F
:1067A000052918BF032904D11830BDE8804000F046
:1067B0001BB880BD80B56F4690F8231003290ED01A
:1067C000042907D0052918BF80BD2830BDE88040C6
:1067D000FFF756BF2830BDE88040FFF7DEBF3030FE
:1067E000BDE8804000F000B880B56F46017C032909
:1067F00018BF80BD1830BDE88040FFF784BDD4D4F9
:1068000080B56F4690F880100439062988BF80BD96
:10681000DFE801F00404040404090E008830BDE838
:106820008040FFF758BE8830BDE8804000F005B8D2
:106830008830BDE8804000F00CB880B56F4690F815
:106840002C14032918BF80BD7830BDE8804000F0CB
:10685000C7B9D0B502AF044690F8CE03032806D1DD
:1068600004F1080000F0BCF9002084F8CD03D0BD8D
:1068700080B56F46C0B2032818BF80BDBDE8804018
:10688000FEF722BCD0B502AF044690F820000428E1
:1068900006D1E0690078FEF7EAFE002084F82200C5
:1068A000D0BD80B56F4690F84010032918BF80BD59
:1068B0000C30BDE88040FFF7E5BF80B56F4690F82B
:1068C0004410032918BF80BD1030BDE88040FFF799
:1068D000D9BFD4D480B56F46017E0339C9B2082927
:1068E00088BF80BD034A52F821100844BDE88040AB
:1068F000FEF796BBACE0060080B56F4690F800133B
:10690000032918BF80BD00F58470BDE88040FFF703
:106910000ABC80B56F4690F8D811032918BF80BD16
:106920000C30BDE88040FFF7E9BB80B56F46017BC6
:10693000042918BF80BD8068BDE88040FEF7F2BB27
:1069400080B56F4690F8A810032998BF80BDD0F895
:106950009000BDE88040FEF7E5BB80B56F4690F83B
:10696000B210032918BF80BD0830BDE88040FFF792
:106970008EBBD4D480B56F46817C0E390B2911D8DB
:10698000DFE801F00610101110101010060B100BAC
:106990001830BDE88040FFF7D3BF1430BDE8804019
:1069A000FFF7C3BF80BD1430BDE88040FFF77BBB5D
:1069B00080B56F46017B032918BF80BD0430BDE858
:1069C000804000F083B8D0B502AF044690F83100A3
:1069D000052809D006280ED104F1480000F081F8FE
:1069E000A06BA28F41F0A6F8D4E9000140F006FEAA
:1069F000002084F83000D0BD80B56F4690F82C1090
:106A00000339052918D8DFE801F00317170D08121C
:106A10003030BDE88040FFF7F9BC3030BDE8804041
:106A2000FFF7E9BC3030BDE88040FFF706BD3030ED
:106A3000BDE8804000F001B880BD80B56F4690F899
:106A40006010052907D0062918BF80BD6430BDE855
:106A50008040FFF7F2BC7430BDE88040FFF7EABA2F
:106A6000D0B502AF044690F83D00092807D80121AF
:106A7000814011F46E7F03D0002084F83C00D0BD2B
:106A80000628FCD104F14000FFF7B6FFF4E780B51B
:106A90006F4690F82D1041B1032918BF80BDD0E991
:106AA0000601BDE88040FEF7C8BAD0E90001BDE8A4
:106AB000804040F0A3BD80B56F46017A052918BF1C
:106AC00080BD1030BDE88040FEF74CBD80B56F46FC
:106AD0004179032918BF80BD0430BDE8804037F0FC
