:1010000008FC032001110000F9040200F1BA0300FA
:10101000F9040200F9040200F904020000000000D3
:10102000000000000000000000000000F9040200C1
:10103000F904020000000000F9040200F9040200B3
:1010400059110000C1110000F9040200F904020066
:10105000F9040200F9040200D1090200451200005F
:1010600091120000F9040200F90402003912000094
:10107000F9040200CD110000F9040200F904020095
:10108000F9040200A90A0200F9040200F9040200AE
:10109000AD110000F9040200F9040200F904020095
:1010A000F9040200F9040200F9040200F904020044
:1010B000F9040200F9040200000000000000000032
:1010C000F9040200F9040200F9040200F904020024
:1010D000F9040200F9040200F90402009D12000064
:1010E000F9040200F9040200F90402000000000003
:1010F00000000000F904020000000000F9040200F2
:101100001FF0FDF90E480F490022814201D004C0B2
:10111000FBE70D480D490E4A814202D008CA08C0BB
:10112000FAE70C484FF47001026842EA01020260DB
:10113000BFF34F8FBFF36F8F1CF0D5FA00DE0000B6
:10114000E0210020887B002008000020DC21002016
:10115000B030040088ED00E0B0B502AF36F020F802
:10116000104C206828B1002020600F4814301FF078
:1011700079FE606850B10C4D0020606005F11400EC
:101180001FF070FE05F12C001FF06CFEA06838B156
:101190000020A06004482C30BDE8B0401FF062BEC3
:1011A000B0BD00BF1C010040786A002080B56F46CA
:1011B0000248BDE880401FF055BE00BFD05E002051
:1011C00080B56F46BDE8804037F07CBBF0B503AF1B
:1011D0004DF804BD154E0020306020F01BFB144D6F
:1011E0000446E86BF0B94FF0FF30E863A86C78B1C3
:1011F000E96C88420CD0D6F808140170D5E91201C8
:101200000130A864884204BF05F140001FF0FEFDD4
:10121000E86B0130E86320465DF804BBBDE8F040B0
:1012200020F02EBB03481FF001F800BF00D10040A2
:10123000786A00201C0C040080B56F46BDE8804031
:1012400038F0DCB9D0B502AF0F4C206930B11020B6
:10125000C4F808020D4824301FF004FE606830B165
:101260000220C4F80802094824301FF0FBFD206862
:1012700040B10120C4F8080204482430BDE8D04041
:101280001FF0F0BDD0BD00BF00710040786A0020A3
:1012900080B56F46BDE8804037F008BBF0B503AFBE
:1012A0002DE9800F3A4D286858B13A4C0120C5F815
:1012B000080204F114001FF0D5FD04F11C001FF01A
:1012C000D1FDE86D38B14FF40000C5F8080231488F
:1012D0001C301FF0C7FDA86A38B14FF48060C5F814
:1012E00008022C481C301FF0BDFDA86D28B100205D
:1012F000A865284814301FF0B5FD286EE8B300201B
:101300002866D5F86CA32348C5F86CA3BFF35F8F9C
:1013100050E8031F41EA0A0140E80312002AF7D10E
:10132000DFF880804FF0000BDFF870900126BFF3EC
:101330005F8F5FEACB7020D13546072E1DD82E4631
:101340002AFA05F418BF0136E00707D0681E0828FE
:1013500015D209EBC00038301FF084FDE81FB0FA49
:1013600080F04FEA501BE003E3D5681E082808D23E
:1013700008EBC0001FF076FDDBE724F0A2BF064AB1
:1013800000E0074A4FF0FF3008211EF0F5FA00BFD9
:1013900000710240786A002018EE0300E06A002025
:1013A00028EE0300D05C0020F0B503AF2DE9000F5C
:1013B0009BB0D0E9014B814608460E46A4EB0B05D5
:1013C00023F018FF854201D2002073E23046D9F89D
:1013D000005023F00FFFDFF808152A46009100EBBC
:1013E0000B01584623461BF0B7F93278FF2A1CD16F
:1013F0003279FF2A3BD125F0C7FA3089012812A89B
:1014000014BF1B211D2121F0F3FEC0B2022840F0C1
:101410004882718912A821F00BFFC0B2022840F067
:101420004082D6E9031212A8C4E1B2F10A044FF0D7
:10143000000398BF1C46002C33D0012C46D125F068
:10144000A3FA12A8522121F0D3FEC0B2022840F024
:101450002882B18912A821F0EBFEC0B2022840F028
:101460002082D6E9011212A822F0DEFF34E0CDE995
:10147000090100200B90DFE812F009003601590045
:10148000160131006B0193013301A00109A803216A
:1014900021F0AEFEC0B2022840F00382F18809A814
:1014A000F9E112AC0A2A0BC400F21482DFE812F050
:1014B0000B008D01A701AA01DA01BB01E3011202B1
:1014C000120212028A0112A8102180E125F05CFAB2
:1014D00012A81E2121F08CFEC0B2E2E109A8092168
:1014E00021F086FEC0B2022840F0DB81746909A8B1
:1014F000214621F07DFEC0B2022840F0D28124F0C6
:1015000086FE12A8294623F0EFFD9DF84800FF282B
:1015100040F0C68124F0BCFEC0B2022840F0C18178
:1015200025F0F2F8C0B20228EBD0BAE109A80521F3
:1015300021F05EFEC0B2022840F0B381357D09A8DB
:10154000294621F055FEC0B2022840F0AA81D6E912
:101550000220CDE90E2031698DF8445010910EAC77
:10156000401AE9B24FF0100A012908BF4FF0020AF1
:101570000AF102018842C0F09381204622F0D0FC9B
:101580000546C00740F09F8112A82146524623F02D
:10159000E1FD1298002800F096811399022924D0C9
:1015A00004291AD0102928D1C2684FF00208818876
:1015B0000792C27AADF8681001680892827A0292A6
:1015C0005FFA81FC427A0392027A19910121049216
:1015D000C27980790592069012E0D0F800C04FF0F1
:1015E0000108CDF864C001210AE0B0F800C0012173
:1015F000ADF864C04FF0000802E0CDF8661000219D
:10160000002900F05A81079BA2460C93290C9DF8F3
:1016100060308DF83430089B8DF85430029B8DF883
:101620005330039B8DF85230049B9DF868008DF871
:101630005130059B9DF869209DF865E09DF8665046
:101640009DF867408DF85030069B8DF84D000C9842
:101650008DF84F308DF84E208DF84C408DF84B5062
:101660008DF84AE08DF849C08DF84880CDF85500D6
:1016700009AC204621F0DCFDC0B2022840F0118107
:1016800012A821F085FD24F03FFF20461A4622F0E3
:10169000CBFEC0B2022840F00481DDE90F015446C0
:1016A0009DF844505CE709A8012121F0A1FDC0B2DA
:1016B000022840F0F680717909A821F099FDC0B2A6
:1016C000022840F0EE80318909A821F0B1FDC0B2B6
:1016D000022840F0E680B17909A821F039FDDCE06C
:1016E00009A80D215EE009A8072121F081FDC0B203
:1016F000022840F0D68031690DF148080DF1240A26
:10170000D6E902201491CDE91220401A0428C0F035
:10171000C780404622F004FC0546C00740F0C08068
:10172000404622F0FDFB0446C00740F0B980290C7A
:1017300025F01BF9C0B2022840F0B380210C25F03F
:1017400014F9C0B2022840F0AC80DDE91301DCE7F7
:1017500009A8112121F04CFDC0B2022840F0A1805F
:10176000746909A8214621F043FDC0B2022840F067
:10177000988024F04CFD12A8294623F0B5FC9DF872
:101780004800FF2840F08C8024F082FDC0B202287F
:1017900040F0878024F0B8FFC0B20228EBD080E090
:1017A00009A80B2121F024FDC0B2022879D1D6E985
:1017B000021209A822F038FE6FE009A8132121F0D7
:1017C00017FD6AE012A80C2157E012A8082121F0A9
:1017D0000FFDC0B2022864D1718A12A821F028FD41
:1017E000C0B202285DD1B18A12A821F021FDC0B299
:1017F000022856D1711C12A823F056FA4DE012A807
:101800000A2131E012A8122121F0F2FCC0B2022814
:1018100047D1718812A821F00BFDC0B2022840D137
:10182000D6E90112FFE512A8062121F0E1FCC0B2C1
:10183000022836D1718812A821F0FAFCC0B2022821
:101840002FD1B18812A821F0F3FCC0B2022828D110
:10185000F18812A821F0ECFCC0B2022821D1D6E90F
:101860000212E0E512A8022121F0C2FCC0B2022857
:1018700017D171880EE012A8042121F0B9FCC0B282
:1018800002280ED1718812A821F0D2FCC0B2022821
:1018900007D1B18812A821F0CBFCC0B2022800D138
:1018A0000220022806D1304623F0A4FC5844C9F88F
:1018B000080002201BB024F038BC0798CDF85D006A
:1018C00008988DF85C009DF860008DF8340017983A
:1018D0000C90E5E703480F21034A1EF046F800BFCD
:1018E00078150400641D0400841D0400F0B503AFE6
:1018F0004DF804BD84B00446D0E901300D46191AF4
:1019000004290CD32268061D084924F026FBCDE9E2
:10191000020102A8294604221AF02EFF08B1002075
:1019200001E00220A66004B024F0A2BBA4D803000A
:1019300080B56F460021017301490131016080BD0E
:10194000786A002080B56F4641F2D0528150104431
:101950000021817380BDD4D4E0B502AFDFF880C030
:101960000446002543F6882040F2011285422FD01C
:101970002B18654405F1180656E8001F21B946E802
:1019800000210029F8D103E0BFF32F8F1D46EDE7BA
:101990001448686205F128002146FFF7D3FF20466E
:1019A00029461EF0CBFF0025BFF35F8F54E8000FE0
:1019B00044E800510029F9D1BFF35F8F30B1C66907
:1019C000C5614576416A88473046F7E720BFEBE7B7
:1019D00005487A1E00902B210448054B1EF075FC2B
:1019E00048220020698B010078E00300C116040042
:1019F000E8E80300F0B503AF2DE9000B94B004460E
:101A0000F8680DF13C0824F035FC9DF83C00FF28F7
:101A100003D040F6032020801DE0A7F14E0008F11E
:101A20000401851C24F0E3F902A82946861C24F051
:101A3000A1F90BAD314624F0DAF924F08DFE2078BF
:101A4000FF2808D024F043FF04481EF07FFD24F057
:101A5000C9FB1EF0DBFE14B024F030BB57000000C1
:101A6000F0B503AF2DE9000FCDB0FE68D7F80880C0
:101A7000CDE91D2056F870AFD8F84400C346CDF824
:101A8000AB00C1465BF8410FD6F808E02A90D8F8C1
:101A90003D00129316917268F568D6F810C073690C
:101AA000B169F469CDF8CB0059F83A0F2192CDF81D
:101AB00070E01B95CDF868C0199320911F94329067
:101AC00032A88DE8120454460DF1F80ACDE9032E30
:101AD000624605952AA9CDE90610A6F130015046C7
:101AE00018F0F4FF22A89AE82E002EC04298119018
:101AF0004398109044980F9045980E90306A189033
:101B0000706A179008F14E00D6E90AA523F0D8FFB5
:101B100020F07F40CDE90A0B209800901F98CDE976
:101B20000104219803901C98CDE908A5049005466E
:101B30001B98CDF854B005908346189806901798D6
:101B4000CDF84C90CDF830901494079026A822A997
:101B50001A9A199B9146984618F0DEFE1D98102897
:101B600004D126A816991BF097FB30B11E99FF20CF
:101B7000087040F6033088805EE0D6E90C40D7F864
:101B800008A01D90B06B18900AF14800F66B23F086
:101B900097FF20F07F400A9013980B9015980C90B7
:101BA000209804901F981899CDE905041D98CDE957
:101BB0000816CDE9005BCDE9029807902AA822A972
:101BC000149A219B18F0A8FEDDE92C01DDE92A23F7
:101BD000CDE900013EAC204604F0D6FB9DF8F8505C
:101BE000FF2D0AD0611C32AC24F037F91E9E21462D
:101BF00024F09BF93571FF201DE00DF1C809211D6E
:101C000009F1030524F0F3F82EAE294624F0B2F8CA
:101C1000129C0DF1F8083246404621461AF02FFE7C
:101C20009DF8F850FF2D0AD01E9E08F1010124F006
:101C30007CF9FF20357130704DB024F04AB99AF824
:101C4000380002239AF84A100DF1F8089AF850204B
:101C5000022801F0030008BF012302F0030180F015
:101C6000010081F0010108430F990091B0FA80F062
:101C70000E994009CDE901132146DDE910320390A8
:101C800040461AF02FFE9DF82161022E09D198E8F6
:101C90006E0048466EC01E9E99E83E00301D3EC054
:101CA000A9E732AC3EA9292224F065F9BDF8260146
:101CB0002146ADF830012922DDF822014B903EADDE
:101CC00024F056F950462946292239F02DFC4B982C
:101CD0001E99CAF82A00BDF83001AAF82E000A2081
:101CE0008AF829600870A7E7102B7DD1F0B503AF03
:101CF0002DE9000F9DB009908846F868137800F12F
:101D00006006D2F80100D2F80540D2F8095043EA43
:101D1000002C39692B0243EA1463240244EA106060
:101D2000D47BB2F80D20C6E900C042EA0442120298
:101D300042EA1562C6E9023218A803F035F806F146
:101D4000300A189806F11003F66B1A9A08F07F040F
:101D50001999DDF86CB0069283E80708A4F14002F7
:101D60000791314608909AE82006504639F0C6FBA4
:101D7000CDF81480804628464946224639F0BEFBFD
:101D8000C4F14002814650463146D7F80CA039F0E4
:101D900082FC0AF1200103910699402CCDE901BA99
:101DA000009138BF49EA00082948002C08BFA8461E
:101DB00024F04DFD0AA8DDE9073218F011FEDDE937
:101DC0000C01DDE90A23CDE9000118AC204604F03E
:101DD00017FA9DF86050FF2D0CD0611C0FAC24F059
:101DE0003CF8099E21461FE0FF21017040F60321C7
:101DF00081807047DDF814900FA8C61C211D1022A9
:101E0000D7F8088024F0B1F814AD314623F0EFFF85
:101E100018AC41462A4620461AF031FD9DF8605024
:101E2000FF2D09D0099E611C24F07FF8FF20357139
:101E300030701DB024F04DB8099C5146B02204F119
:101E4000080039F0A5FA0620C4F804902070F0E7E5
:101E5000C0FFFF7FF0B503AF2DE9000B94B004463F
:101E6000F8680DF13C0824F005FA9DF83C00FF28C5
:101E700003D040F6032020801DE0A7F14E0008F1BA
:101E80000401851C23F0B3FF02A82946861C23F019
:101E900071FF0BAD314623F0AAFF24F05DFC2078E2
:101EA000FF2808D024F013FD04481EF04FFB24F057
:101EB00099F91EF0ABFC14B024F000B956000000F4
:101EC000F0B503AF2DE9000F9FB08246880701D41B
:101ED00011206BE0D56B934605F108030FCB24F07E
:101EE0000CFA11BF8DE80F000020CDE90200CDE90A
:101EF000000016AE6946304604F076FA9DF8584068
:101F0000FF2C3CD111A8311D00F1030824F0EFFA99
:101F10000AAE414623F02EFF0DF1580959463246CC
:101F200024F0ABFC9DF85840FF2C30D12868C10745
:101F300041D06968000A0A0E8DF83E200A0A40EA7C
:101F40000160ADF83C200E9016AE0EA9304604F0AC
:101F500097FA9DF85840FF2C11D1311D404624F0CE
:101F600036F81BAE414623F005FF05A85946324618
:101F70001AF085FC9DF81440FF2CA9D00DE011AD9E
:101F8000711C132223F0F4FF05A8294602E005A8DE
:101F900009F10101013023F0BBFF05A90AF1050099
:101FA000013123F0B5FFFF208AF804408AF80000D1
:101FB0001FB023F08EBF0524EFE7F0B503AF2DE986
:101FC000000F8BB0044602A80E460021924604F092
:101FD000ECF89DF80800FF281ED09DF80B10E1706A
:101FE000BDF809109DF81B20DDE903C5A4F8011018
:101FF000BDF81910059E9DF81830ADF81C108DF82D
:102000001E202374C4E901C5E660A4F81110E2742F
:1020100020700BB023F05DBF9DF818B0059DBDF892
:102020001900ADF8040059469DF81B008DF8060014
:102030002846DDE9038917F00DF802460B4606F144
:10204000480011461A4623F0F3FDC0B202281CD105
:10205000BDF804005146ADF829009DF806008DF842
:1020600028B00995CDE907898DF82B0002AD07AAA4
:1020700028461AF004FC9DF80860FF2E10D0601C62
:10208000691C23F045FF2670C3E7052049462070F0
:1020900040460BB0BDE8000FBDE8F04023F09EBD08
:1020A000FF20B5E7F0B503AF2DE9000F9FB00D4657
:1020B000B968069314460B901AA802F075FE1A9898
:1020C00004F170061C9A05F07F0504F1900B1B9932
:1020D0001D9B0FC60892A5F140020A909BE8400E96
:1020E000504609915946079339F008FA8046304620
:1020F00049462A4639F002FAC5F140028146504667
:10210000594639F0C8FA04F12001402DCDE90241C9
:10211000079901910899009138BF49EA00082448BD
:10212000002D08BFB04624F092FB0CA8DDE909326F
:1021300018F056FCDDE90E01DDE90C23CDE90001C4
:102140001AAC204604F05CF89DF86850FF2D0BD0C7
:10215000611C11AC23F081FE0B9E21461322701CE2
:1021600039F0E2F935701FE0DDF82C8011A8C51CAC
:10217000211D23F03CFE16AE294623F0FBFD1AACD0
:102180000699324620461AF07AFB9DF86850FF2DDA
:1021900007D008F10100611C23F0BAFE88F8005056
:1021A00002E0FF2088F800001FB023F092BE00BFBD
:1021B000C0FFFF7FF0B503AF2DE9000FB5B01646A5
:1021C0001D46CDE91210B046D6F83D000DF1A00C29
:1021D00055F8702FCDF8A30058F83A0F289056F80C
:1021E000410FD5F808906B68D5F80CA0D5F810E031
:1021F000D5F814B0AC69E9692C90D6F803001492B4
:102200001593CDF86C90CDF868A0CDF864E0CDF8CA
:1022100060B017941691CDF8B3002CA88DE8004655
:102220000DF18009CDE9051CA5F130010790484664
:10223000CDE903B418F04AFC1CA899E81E0005F18A
:10224000300B1EC0249811902598109026980F905E
:1022500027980E90F01D9BE8100AD5F83CA023F0BB
:102260002FFC20F07F40CDE90A08DDE91A10CDE906
:1022700008BA0C96CDE900011998029018980390BD
:1022800017980490169805A981E8110228A81CA99E
:10229000DDE9142318F040FBDDE928230DF1800966
:1022A000DDE92A01CDE90001484604F06DF89DF80A
:1022B0008060FF2E0ED02CAC09F1010123F0CDFD82
:1022C000139D21461322681D39F02EF9FF202E712F
:1022D000287051E0DDF84C802CA8C61C09F10401DF
:1022E00023F048FD31AC314623F066FD0DF1800945
:1022F0001299224624F0C1FA9DF88040FF2C0BD0A1
:1023000008F1050009F1010123F002FEFF2088F821
:10231000044088F800002FE005F1200B464608F144
:102320001804ED6A9BE8000D09F107001CA923F0D1
:102330004EFE0B20494606F8010B172223F015FE2E
:10234000199804F12C012062189860621798A06215
:102350001698E56381E8010D11982060109860607F
:102360000F98A0600E98E060149820611598606145
:102370001B98A0611A98E06135B023F0AABDD4D4AF
:10238000F0B503AF2DE9000F8BB004460220ADF885
:102390000A0001208DF808001E462C4888468DF85A
:1023A0000920039007A823F0CFFB079DEDB3DDE9DB
:1023B000089BFB20D7F808A0CDE904B000200690C8
:1023C00004A803A9FFF792FAC0B202281CD104A8FE
:1023D00002A9FFF78BFAC0B2022815D1DDE905305A
:1023E000191A02290ED3049A19490091811C0191EE
:1023F0001AF0B2F9CDE9070107A8314602221AF016
:10240000BBF9B8B1042004E0C0074FF0040018BFC6
:102410000D20012120706170284649460BB0BDE8AF
:10242000000FBDE8F04023F0D9BB162020700BB0A0
:1024300023F04FBD019851460A9007A880E8200A72
:1024400007AB2046424618F011F8F0E706000500F9
:10245000A4D8030091F8673301F51472012B12BF61
:1024600091F8561202F58C720121A0B1D0B502AFDD
:102470009388B0F8154112686340D0F8114162406A
:102480001A4390F817315940C90718BF0020002A95
:1024900018BF0020D0BD00207047D4D4F0B503AFE2
:1024A0002DE9000794B002AD88468146482123F00B
:1024B00069FFD8F80C404826324B2946482C38BFD3
:1024C0002646304648221AF0D0F90546D8F80800CA
:1024D0008A46214619F026FD8E424FD803462A48E7
:1024E00000901A4628465146334623F0D6FB022C6C
:1024F00009D22C481EF02AF830461EF019F81EF0BA
:1025000085F90A2019E09DF80800441EE5B20E2D59
:1025100012D22046A6F1010A16F0DAFF80B28245F7
:1025200019D109F1010002A9482238F0FDFFC9F8CC
:102530004C6089F8004008E0072089F80500032076
:1025400089F80400FF2089F8000023F095FF14B0FB
:10255000BDE80007F0BD0D481DF0F8FF0C480D4C1C
:10256000A0470D48A0470D480D4950F8250051F8E7
:1025700025101BF0D9FF0020A047C0E70A4B0A46F0
:1025800024F00CF8D4D90300F4D903004C00000067
:102590000E0000000505020057010000AC220400F7
:1025A000742204004D000000E4D90300F0B503AF2D
:1025B0002DE9000F95B01C788046FF2C15D04648B9
:1025C0001D4616468A4693F801B01DF0BFFF4348EA
:1025D0001DF098FF284621F095FD032C18BF4FF001
:1025E000080B1EF013F9192C05D1FF2088F8000004
:1025F00015B023F06EBCB6F858430FA823F0A4FA28
:102600000F98002848D0A7F143000094C51C0FA9DB
:102610000C2223F0ADFCA7F152002946C61C0C2267
:1026200023F0A3FC12AD31460C2223F0A1FC02A83A
:102630002946042216F020FD9DF80800DDE9035428
:102640009DF81860FF28DDF8149026D148463146E1
:1026500016F000FDE1B380F800B0304616F0F3FC50
:10266000CDE904904046CDE9025402AD009A5146AE
:102670002B4617F0FBFE98F80000FF28B5D098E82D
:102680005E0028465EC016481DF060FF284621F017
:102690002BFD1EF0BBF8ABE716209DF80B1088F859
:1026A0000310BDF809109DF81B20A8F80110BDF813
:1026B0001910ADF804108DF8062088F81060C8E9EC
:1026C0000154C8F80C90A8F8111088F813208DE771
:1026D000044A23F045FB00BF45000000490100000B
:1026E0004A00000014DA0300F0B503AF4DF8048D82
:1026F00092B00DF104080D460646114640464422AC
:102700001C4638F01DFFB868294600903046424606
:10271000234600F005F812B05DF8048BF0BDD4D468
:10272000F0B503AF2DE9000FADF29C6D0D460146EB
:1027300005F1D0001690DCAE95F8C84006F1600BAC
:1027400005F1780A99469046022CCDE918155ED11C
:102750001AAE2946C822304638F01AFE15209DF8D8
:10276000681028710E2028700C2998F8000000F2DB
:102770003783DCAA02F17004DFE811F00D00AC0130
:1027800065014D01F2003201FF0132039A02EA02B3
:102790003203CF02CD00FF2804BF98F80C100029A7
:1027A00000F01087411E0329C0F0DC82002840F0B1
:1027B000138398F80100002801F045800DF59F680B
:1027C000494640461AF0A8F99DF82165FF2E01F010
:1027D0004187DCAC0DF59F61292223F0CCFBDDF8AD
:1027E0002205214688902922BDF82605ADF824024D
:1027F00005F1D00038F098FE8898C5F8FA00BDF8C9
:10280000240285F8F960A5F8FE0000F026BFCDF897
:102810005C900DF50C792946C822484638F0B8FD81
:1028200015209DF830122871122028700F2998F871
:10283000000000F28F851AAA02F16003DFE811F0B0
:102840001000A403F9027504A8048A057203C203E8
:1028500000048A0583050C058A058A05DC027D03D0
:10286000FF2804BF98F80C200A2A40F07385D8F896
:102870000800002802F0508295F819010C22D8F8BF
:10288000041005F1D006032808BF0822DDF85CB06B
:10289000DBF8383093F8700393F87133024485F80D
:1028A0001A210C7813B1012185F818110DF59F68D4
:1028B00058B195F81C0195F81D1140F0030085F8FA
:1028C0001C0141F0030185F81D111AA859461AF0A0
:1028D00075F9DDF860A09DF89100022807D0600727
:1028E00041F163829DF89000022801F05E82DCAC29
:1028F00031465A462046FFF760FB9DF87063FF2E75
:1029000001F0AA8108F10500611C23F001FB8DF89C
:10291000FC6401F060BAFF2804BF98F80C20082A74
:1029200040F01D82D8F80820002A02F0F381D8F880
:1029300004000478DCAE022C80F09E870DF59F68C1
:10294000062A42F2D98150F8011FC5F81111818879
:1029500023F057FE01D023F058FD0D2002F073B88C
:10296000FF2804BF98F80C10022900F015860428EF
:1029700000F23982DFE810F07E06F601F60105006C
:102980007E0605F118010DF59F650DF59F609022FB
:1029900000F19004284638F0FBFC0DF55C7A711CC0
:1029A0001122504638F0C0FD0026D8F80400C4E9D2
:1029B0000006C4E904069DF87003C4E90266C00776
:1029C000C4E9066601F01784B8680AF10102CDE98E
:1029D0000095002102908CA81023FFF785F9C5E12E
:1029E000FF2804BF98F80C20022A40F0B8810DF5AA
:1029F0009F6405F10801B022204638F0C9FCD8E9EF
:102A00000123A046B8681B99CDE9009402908CA8D8
:102A1000FFF76AF9ACE1042800F27B87DFE810F0E9
:102A20002A0605005307A2012A069DF8690000281E
:102A300001F0148106F1180016991022CDE900105A
:102A4000B11C00F0DDBEFF2804BF98F80C20032A5B
:102A500040F08581CDF85C9005F108014CA870220A
:102A600038F096FC9AE8400A05F198012022DAF83D
:102A70000CA0C6A838F058FD23F099FB40F02A8737
:102A8000D8F804000DF59F6532464B46D0F8091082
:102A90001591D0F805101491D0F801101391017818
:102AA0001291C17B11911799B0F80D001090284632
:102AB000CDE900BAFEF79EFF9DF8F884B8F1FF0F4C
:102AC00001F0E0818CA8691C23F0D9F98DF83482DB
:102AD00000F004BFFF2804BF98F80C200B2A40F038
:102AE0003E81D8E901120DF54678404622F050FFAC
:102AF000D9F82C10BEAC202223F03DFAD9F83010C2
:102B00004CAE4022CA4623F030FA0DF59F692146AB
:102B100042463346484622F069FE9DF8F804C00755
:102B200000F0DF869DF8FB0409F106018DF806022E
:102B30001222BDF8F9049DF8FC449DF8FD64ADF83F
:102B400004027CA838F0F0FC09F1180079A90DF511
:102B50009F650CC80CC1007808704CA9284603F08A
:102B60009BFB9DF8F804FF2801F0D9810A204FF063
:102B700003088DF8710301F0FCB9FF2804BF98F831
:102B80000C20032A40F0EB8005F10801DCA823F0BB
:102B900008FB23F00CFB40F0AD86D8F804001B9D29
:102BA000CDF85C90D0F801100278DBE90E9842EA8B
:102BB0000122CBF820201592D0F80930D0F805205A
:102BC0001C02119505F07F0544EA1264120242EAE4
:102BD0001161CBF82840CBF82410C5F140021491C4
:102BE000C17BB0F80D00139440EA01404146000259
:102BF00040EA136A4846CBF82CA0DBE90C6438F0B5
:102C00004AFD1290304621462A4638F077FCA5F15D
:102C1000400204464846414638F070FC1299402D67
:102C200038BF44EA0100E649002D08BF3046DCAA5F
:102C300061F35F00139B02F12001CDE9003ACDE979
:102C400002120490BEA8DDE9143217F0C9FEDBE9D8
:102C500000ACDDE9BE648CEA0401DBE90289DDE950
:102C6000C03589EA050008438AEA060288EA0301BA
:102C70001143084341F00480DBE904230DF59F6410
:102C8000DBE90601CDE90001204603F0DFFA9DF8FB
:102C9000F864FF2E01F0B383611C4CAC23F0DDF827
:102CA0008CA8214623F0EBF88DF8346200F016BEB4
:102CB000FF2804BF98F80C20032A50D105F1080121
:102CC000DCA823F06EFA23F072FA40F01B86D8F8E5
:102CD000040004F1100523F05BF90EC5B968E0614A
:102CE000204602F061F8D4E90201D4E900230DF591
:102CF0009F64CDE9000149462046FEF77BFE9DF822
:102D0000F864FF2E01F045818CA8611C23F0B7F810
:102D10008DF83462FF2001F076BAFF2804BF98F8DE
:102D20000C20072A1BD123F042FA40F0138695F8B5
:102D3000F900DCAE022808D0D8F804000AF16804D3
:102D400023F026F90EC4CAF874000C2000F007BE68
:102D5000FF2804BF98F80C200C2A00F04A85421E78
:102D6000032A36D28CA81AA923F040FE0DF59F68DD
:102D7000DCAE9DF83002FF2800F081840DF50C7A5E
:102D80000DF59F60C822514638F002FB9DF8F8040B
:102D90000E2800F07F84199D0D2840F09E84C846BF
:102DA00095F8F990B9F1020F00F0978495F81A019F
:102DB00000F00300012802BF95F8200100F0030095
:102DC000012800F0C08495F8F8E04FF0020900F007
:102DD000E8BC002800F03A84042804D100F04ABC82
:102DE000FF2840F0298498F80C00042800F0C483E0
:102DF0000D28B7D000F03EBCFF2804BF98F80C2087
:102E0000072A40F0A78223F0D2F940F03886DDF897
:102E10005CB095F8F900022808D0D8F804000AF14F
:102E2000680423F0B5F80EC4CAF874000F2000F04F
:102E300028BEFF2804BF98F80C200B2A40F08A8295
:102E4000BEAE09F1040120229A4623F08EF805F166
:102E5000240B0DF5467940224846594638F064FB6C
:102E6000D8E901124CAC204622F092FD0DF55C78B9
:102E7000314622464B46404622F0B8FC9DF870038E
:102E8000C00700F001869DF8730308F106018DF874
:102E9000AA001222BDF87103ADF8A800BDF8744372
:102EA0001AAE06F1450038F03FFB06F1570008F175
:102EB0001801092238F038FB06F120004CA923F054
:102EC00054F93046594623F050F950465021ADF898
:102ED000AB4038F006FA95F80801811E38BF022190
:102EE000DDF85CB0C9B2022901F0ED80DDF860A028
:102EF000032941F00C810F200DF55C788DF87003EB
:102F000023F025FAD6AE23F0D9F99DF85843FF2CCB
:102F100041F0618308F107001AA923F0A6F80920FF
:102F200001F0BCBB98F80C10FF2808BF022900F084
:102F3000EC83FF2800F012824AE2FF2804BF98F8D1
:102F40000C20082A40F00682D8F80820002A01F058
:102F5000E586D8F80400DDF85CB00478022C80F037
:102F6000D2850DF59F68062A41F2C88650F8011FE8
:102F7000C5F811118188DDF860A023F042FB00F054
:102F8000DA8223F042FAD6E2FF2840F0E08298F895
:102F90000C100A2900F08085012940F0DF81D8E972
:102FA0000112DCA822F054FE9DF87003022840F0C4
:102FB00084860A20DDE917BA0DF59F6801F058B93B
:102FC000C0FFFF7FFF2804BF98F80C20022A40F0C2
:102FD000C18105F10801DCA8602238F0D9F99AE82E
:102FE000500605F188011AA8302238F09DFA23F026
:102FF000DEF840F05A85D8F804000DF598788D99E0
:1030000022461591334601681491416813918168F5
:1030100012911799C06811904046CDE9009AFEF7C9
:1030200019FF9DF830B1BBF1FF0F01F022800DF5C3
:103030009F6223F025FC22F06BFF8DF8FCB4F6E1D3
:10304000FF2804BF98F80C20032A40F0838105F183
:103050000801DCA823F0A5F823F0A9F840F02E859C
:103060008D985D46DBF830A0DBF8341000F07F046B
:10307000DBF838B0A4F14002D5F83C9014911390DD
:1030800058464946D8F80460CDF854A038F036FACE
:10309000149980465046224638F030FAC4F1400276
:1030A00082465846494638F0F6FAF368D6F800905A
:1030B0007268D6F808B0DCA9039120310291402C47
:1030C0001493CDE900B338BF4AEA00081598002CE4
:1030D00008BF8046DA4823F0BAFB90461AA84A4651
:1030E000434617F07DFCD5E902E3DDE91A42D5E954
:1030F00000C1DDE91C605140584084EA0C020843DD
:1031000086EA0E011143084340F0E28514981399B2
:10311000C5E90898C5F828B01329E862199D41F05F
:10312000AC800DF59F60DCAB8CE0FF2804BF98F805
:103130000C20022A40F00E8105F108011AA8B022E5
:103140001C4638F025F923F032F840F07683D8F8A1
:10315000040022F01DFF84E80E00B968E06004F16D
:10316000100001F021FED4E90601D4E90423CDE9E1
:103170000001DCAC22F087FE9DF87063FF2E40F06A
:103180006386E01D1AA922F070FF042000F06CBED7
:10319000FF2804BF98F80C20032A40F0DB800DF1D3
:1031A000680B05F10801B0221C46584638F0F0F8CB
:1031B00022F0FDFF40F04183D8F804000BF120021B
:1031C0008168D0F80CA0D0F80490D0F800800020DE
:1031D000CDE9001ACDE914214B46CDE9022B424638
:1031E0000490C6A817F0FCFBD4E902E3DDE9C6525F
:1031F000D4E900C1DDE9C860514058408CEA0502BD
:1032000008438EEA06011143084340F0728504F139
:103210001003159DC4E908890FCBC4E90A5A149C10
:10322000CDF800B001AE86E81003CDE9045A17F0DE
:1032300015FC199D95F80811022941F03C800DF507
:103240009F601AABDDF85CB0169A5946FEF7B2FFE4
:10325000DDF860A000F02EBCFF2804BF98F80C2019
:103260000C2A77D105F10801DCA8502206F11004E0
:1032700038F08EF8D8E9010104F1280A0D90206990
:10328000129060691190A0691090E0690F90206A17
:103290001390606A1490606B0E9005F58F709AE839
:1032A00000071591D4E90E6B22F00AFCD5F8142121
:1032B00020F07F40D5F81111CDF833214C91D5F88D
:1032C0000D21D5F80A11CDF86B201A91CDE9086BC4
:1032D0000A904CA80B901AAD129802901198039086
:1032E000109804900F98CDE9050A0E980C95CDE939
:1032F00000890790D6A8DCA9DDE9132317F00CFBA1
:103300001598102806D1D6A90D9819F0C5FF0028E8
:1033100000F0F9844FF00B080326199DDDE917BA78
:103320000DF59F60BEA90630122238F0FDF8FF208F
:103330008DF8FD848DF8FC64DCAE8DF8F8040DF595
:103340009F6801F0B8B9FF2804BF98F80C20032A41
:1033500000F05C82FF2809D198F80C10042922D0D3
:1033600023F021FB0D2900F0F780FEE00539082944
:1033700000F2ED80DFE801F0052CEBEB80EBEBD009
:10338000E8000DF59F68012800F09482DDF85CB03C
:10339000022840F0EA8040F60340DDF860A0ADF876
:1033A000FC0401F08AB9DDF85CB0D8F80800002808
:1033B00001F0AC8423F0F0FA8DF8FC14411E1029C2
:1033C00028BF08208DF8FD04DDF860A001F075B974
:1033D000032840F0BC800DF55C7A05F118019022BD
:1033E000504637F0D5FF0020D8F804100DF16808DA
:1033F000179BCBE90C105246CBE910100021CBE90A
:103400000E00CBE91200B868009040469DF831628A
:10341000FEF748FE9DF86840FF2C00F053830DF541
:103420009F6223F02DFA22F073FD8DF8FC44FF20FB
:10343000DDF860A08DF8F804DDF85CB001F038B973
:10344000C0FFFF7F40EF03004F000000530000006B
:103450005A00000051000000430000004B00000033
:10346000A9470200641904005C0000004600000047
:103470005000000041000000042868D10DF16809E7
:1034800005F10801B022484637F082FFD8F8010064
:1034900008F1210414902022D8F805002146159047
:1034A000D8F809001290D8F80D0013904CAE22F015
:1034B0005CFD5FF87010204619F0EEFE40B95FF831
:1034C0007C1006F1100019F0E7FE002800F0898456
:1034D0004946DDF83C91DDE94DA82031DDF830B1F9
:1034E0000020CDE90089CDE9021153460490DCACFF
:1034F0005A46204617F074FA06F11001204619F0DA
:10350000CBFE002800F07184FF208DF8F80440F213
:103510000340ADF8FC04CBE2C8B998F801000028DC
:1035200000F05183DDE917BA0DF59F6895F8230186
:10353000800700F1C08595F822110DF59F605A466D
:10354000FEF7BEFC01F0B5B8002800F0AC8123F016
:103550002AFA0138022808D20DF59F608CA923F0C1
:1035600045FADDF860A001F0A4B81520DDF860A0F0
:103570008DF8FC0401F0A1B8D8F80800002801F08B
:10358000C78323F009FA8DF83412411E102928BF91
:1035900008208DF8350272E022F009FE40F05C81CF
:1035A000D8F804108CACA01C22F011FD0DF59F681A
:1035B00005F1180108F1060022F057FD22F04CFD3C
:1035C00004204BE10DF59F604946D8E901A9179108
:1035D00019F0F4FA9DF8210502281ED00D200DF5F2
:1035E0009F688DF8F8040DF55C7B17984346816A57
:1035F000826B584619F0E9F99DF87003FF280BD04B
:103600009BE85E0040465EC05FF8C4011CF09EFF70
:1036100022F0E8FD1DF0FAF8199D0DF59F60514666
:103620004A4622F015FB9DF8F844022C40F01B811D
:10363000DDF85C900A208BE2072908BF042800F01F
:103640009181421E032AFFF48DAB98B90A2911D14A
:1036500098F80100002800F0F68095F81D01800719
:1036600000F1638295F82201DCAE80074CBF0B208D
:103670000D2074E115200DF59F688DF834028CA89B
:1036800008F10401043090E87C000E207CC1DCAE1F
:103690008DF8F804301D08F1040119F05BFE0C20D0
:1036A000D9F828108DF870033346D9F838204CAC7F
:1036B000204619F08AF922F0D6FF0DD0304694E862
:1036C0006E006EC0DCAE5FF87C021CF03FFF30463F
:1036D00020F00AFD1DF09AF8199D0DF59F6128460E
:1036E00023F084F98CAC2946204621F0CAF8FF204B
:1036F0008DF870039DF83002FE2818BF2646189DED
:1037000096E81F001FC501F016B822F050FD40F0EA
:10371000C380D8F804100DF59F6808F1020022F06C
:1037200056FCB01D05F1180122F09FFC0120314626
:103730008DF8F90408F11200B62237F0F5FEDDF835
:103740005CB00620ACE04CAE169A4146304619F00B
:1037500065F922F088FF0ED00DF55C7B96E83E00FF
:1037600058463EC05FF8180323F0E8F8584620F0AA
:10377000BBFC1DF04BF8169805F1E00EAC46544624
:10378000016817914168149181681591D0F80CB0C7
:103790009EE86F006FC4DDE9142117989CF8F8E0EB
:1037A000DCAECDE9E01B06F11801CDE9DE028DF8B3
:1037B00071E39AE87D007DC10B20DCAE8DF8A1930A
:1037C0008DF8A0E333468DF87003D8F82810D8F8A8
:1037D00038204CAC204619F0F8F822F044FF3FF4B2
:1037E0007BAF304694E86E006EC0DCAE5FF89C03A1
:1037F0006BE706F10800169BD8E90112CDE900300D
:103800008CA84B46FEF72CF9FFF7B0BA05F108017A
:10381000DCA822F0C6FC22F0CAFC0ED1D8F80400C5
:1038200022F0B6FBFF90FCA80EC0DCAB0DF59F604C
:10383000DDF85CB022F05EFF71E1FF20DDE917BA30
:1038400022F079FD6DE15FF8F0031CF08BFE22F0B1
:10385000D4FE40F6037051E022F0BBFFDCAE8DF8E1
:103860003002FFF788BA9DF8FA64DDF85C90300703
:1038700000F1678103206BE15FF820041CF066FE15
:1038800020461AF0EFFF1CF0C1FF05200DF59F68E0
:103890008DF8340201F0D6B822F094FF0DF59F6840
:1038A000DDF860A099E298F80100002800F0998105
:1038B0001120F2E0DDF85CB009F108030DF59F601E
:1038C00022F018FF4DE640F603400DF59F68ADF875
:1038D0003402D4E640F60320ADF8340222F08DFE27
:1038E00019E340F60330ADF8340222F086FED146EB
:1038F000FFF73CBA22F081FE40F60320ADF8340217
:10390000FFF734BA22F079FE05208DF83402FFF774
:103910002DBA9DF8690000287FF465AA98F80C007C
:103920000C287FF460AA22F042FC40F0DC85D8F835
:1039300004108CACA01C22F04AFB0DF59F6805F129
:10394000180108F1060022F090FB22F085FB03200D
:1039500000F0CBBD05208DF83402FF20DCAE8DF8E1
:10396000300212E3CDF85C9005F108014CA822F07A
:1039700018FC08F121060DF546792022484631460B
:1039800037F0D2FD5FF84415D8F80D001590304699
:10399000D8F80140D8F805B0D8F809A095F81E511C
:1039A00020F0FAFE40B95FF8641509F1100020F02C
:1039B000F3FE002800F02B84CDE913BA0DF55C7AF4
:1039C000CDE91154C6AB0DF53E780FCB109022F027
:1039D0000CFE0F914146BE9050460E920D931AF088
:1039E000FDFB0DF59F64002651464FF4B87220464A
:1039F000CDF8DC64CDF8D864CDF8D464CDF8D064CB
:103A0000CDF86866CDF86C66CDF87066CDF8746652
:103A100037F096FD0DF55C7A21464FF4C0725046A2
:103A200037F08EFD8DF8F0644CA800F120045FF8AB
:103A3000D095504620222146C84750462146202294
:103A4000C8470DF59F6B504601228DF8F864594622
:103A5000C847584651464FF4C27237F071FD9DF881
:103A600078A60BF5B8715FF804361022504619F0AD
:103A7000D1F8002970D000F8016B0139F9E722F084
:103A8000A1FE8DF8F8044AE040F60330ADF8FC04DE
:103A9000FF208DF8F8040BE00120DDF860A022F093
:103AA00082FF8DF8F80400F04ABEFF2022F043FCAC
:103AB000DDE917BA0DF59F6800F0FABD05200DF598
:103AC0009F680AE1DDF860A0F00700F0618109F16C
:103AD000020022F05DFA8BE80E00CBF80C00DBE967
:103AE0000601DBE90423CDE900011AAC22F0CBF991
:103AF0009DF868600DF59F68FF2E00F0A18408F125
:103B00000500611CD1E35FF8A0061CF01FFD2046F4
:103B10001AF0A8FE1CF07AFEFF2022F00CFCDDF863
:103B200060A00DF59F6800F0C4BDD9F83CA00AF173
:103B300008030FCB22F0E1FB00F0F08282AC0FC44F
:103B4000F1E29DF8FB84B8F1100F80F0318206207D
:103B50008DF8350203208EE5A7F13C060024584677
:103B600047F83C4C31468DF8784647E90E4447F813
:103B7000304C19F0B1FDA7F12C093146484619F037
:103B800045FC0BF5B076102C0AD00BEB0400013489
:103B900090F8601190F87021514080F86011F2E7C0
:103BA000BAF1100F40F02D82DDF850A00DF59F689E
:103BB000DDE9124B0020102800F03C8219F80010BB
:103BC00022F0A9FAF7E75FF85C071CF0CBFC40F69F
:103BD0000370DDE917BAADF8FC040DF59F6800F03D
:103BE0006CBD0D200DF55C788DF870030DF1680942
:103BF00017984346816A826B484618F0E6FE9DF8A6
:103C00006800FF280CD099E86E0040466EC0DCAE1C
:103C10005FF8A40722F092FE22F0E4FA1CF0F6FD11
:103C2000DDF860A0E00700F04882DCACDDE9161B9F
:103C30005A462046FEF7C1F99DF870630DF59F685E
:103C4000FF2E00F0578408F10500611C22F060F996
:103C50008DF8FC6400F0AFBF0120BDE00DF59F685A
:103C600005F1180108F1070022F0FFF9092041468B
:103C70008DF830028CA822F074F9DCAEFFF77EB824
:103C80005FF810089B461595354666461CF05EFCAD
:103C90005046314642464B4620F056F9159B284681
:103CA00021465A4620F050F91CF0B0FD22F0A5FC48
:103CB00040F20340ADF834022DE19DF872130DF58A
:103CC0009F68DDE917BA0A0700F1CC820320CFE232
:103CD000199D0DF59F68DCAE032004218DF8FC04CE
:103CE000FF208DF8FD148DF8F804DDE917BA00F017
:103CF000E0BC199D0DF59F68DDE917BA40F6034059
:103D0000ADF8FC04F2E2DDF864B0AC4602269BF8A4
:103D10001A119BF820519BF8080101F0030105F0EE
:103D2000030581F00101022885F0010508BF012685
:103D30002943B1FA81F1D4E900234909D4E9020405
:103D40000391654617998DE85100604618F0CAFD49
:103D50000DF5467AA91C12229DF8686050469DF820
:103D600069809DF8914037F0DFFB022C40F0C38260
:103D7000BEA8BAE82E00FF2E2EC05D46BAF800108D
:103D8000DDF860A0DDF85CB001807FF4C9AAEFE245
:103D90000DF59F68DCA908F1080022F002FA002066
:103DA000CDF8FC040720FFF745BBDCAC59462046A4
:103DB00018F0B2FE9DF89963FF2E40F0DC820DF5FD
:103DC000987C94E86E0060466EC008F104009CE8A0
:103DD0003E003EC0199DFF20DCAE8DF8F80400F0D7
:103DE0006ABCDDE94CBADDE94E891AA8129E00F1E1
:103DF000700495F81E01002808BF0646159908BFF3
:103E00000146149A08BF0246139B08BF0346C4E943
:103E10000821B968C4E90A63C4E90CBAC4E90E8987
:103E2000DCA800F0C1FFDDE9DE01DDE9DC23C4E947
:103E30000023C4E90201CDE90001DCAC22F023F843
:103E40009DF87063FF2E0AD00DF59F68611C21F06C
:103E5000DFFFFF208DF8FC648DF8F8040EE0E01D14
:103E60001AA922F002F90A200DF59F688DF8F804CE
:103E700008F101002146B72237F056FBDDF860A0BB
:103E800000F016BCDDE91010702241EA00484CA990
:103E9000DCA837F07DFA149A1399100284E8400ADE
:103EA00040EA1165129840EA01231599139308021C
:103EB00040EA12624FEA082040EA11681492C4E90D
:103EC00005522022C4E903A3C4F81C80DCAC04F131
:103ED0009000C6A937F028FB04F12000149A8DE861
:103EE000510A294643461398CDF814A016F0B6FDA2
:103EF000199991F80811022940F063820DF59F6429
:103F0000DCA9E01D22F0B1F8092021468DF830022D
:103F10008CA822F026F8DDF85C90FEF727BF1794F6
:103F2000D6A800F10208291D22F0E1FA82A8414634
:103F3000841C21F041FF0DF50878214622F0D7FAC4
:103F40000DF55C795146424622F097FC9DF870834E
:103F5000B8F1FF0F00F07E8299E85E0028465EC04F
:103F6000DFF8040E1CF0F2FA284620F0BDF81CF031
:103F70004DFC8CA8DCAE0530711C21F0C9FFFF2080
:103F80008DF834828DF83002D1460DF59F68FEF72A
:103F9000F0BEE01DDCA922F068F8092021468DF86A
:103FA00030028CA80130B72237F0BEFAFEF7DEBE31
:103FB000BDF8FCA49DF8F9945FEA8A7042BF95F8B9
:103FC0001C0140F0020085F81C015FEA8A5040F1B4
:103FD0007B841798C36BD3E902E1D3E9042341EA58
:103FE000030C4EEA020050EA0C0000F05784CDF8B2
:103FF000F8E4CDF8FC14CDF80025CDF8043500F038
:1040000056BC16F80A00A7F12C0180F0800006F8D3
:104010000A00404619F0FAF9DDF850A00020DDE969
:10402000124B102804D018F8001022F074F8F8E7AA
:104030000DF59F680DF59F60314619F04DFB0FCED1
:1040400022F0D3FABE90C6A800F11001BEA820F05D
:10405000A3FBDCAE119DDDE90F9C0028DDE90D3EE0
:1040600000F0DC8022F0C9FA40F20340ADF83402DF
:10407000F4E00DF59F68DCA908F10800602208F162
:10408000680537F085F9149805F10C012860302295
:10409000139868601298A8601198199D81E85106DC
:1040A00008F188001AA937F03FFA1598CDF8FC04FA
:1040B0000820FFF7BDB90E20F3E4DFF8880C1CF0F0
:1040C00051FA1020EBE4DDF860A0002800F0168221
:1040D0000A200DF55C788DF8700322F038F9D6AE21
:1040E00022F0ECF89DF85843FF2C40F0748208F160
:1040F00006001AA921F0B9FF0DF59F620620ADF860
:10410000F804414602F112009046B622CEE208F1D0
:1041100007001AA921F0A9FF0320BFE20020CDE982
:104120008400CDE982000DF59F6882A9404602F027
:104130005BF99DF8F844FF2C52D14CA84E4600F193
:10414000030908F10401102222F07DFAD6AC494699
:1041500021F032FE0DF59F68314622461796404603
:1041600018F08DFB9DF8F844FF2C40F02481DAF81C
:104170000000C10700F06C82DAF80410000A0DF5A7
:104180009F660A0E8DF8F6210A0A40EA01607C90CB
:10419000ADF8F4217CA9304602F072F99DF8F8449C
:1041A000FF2C40F03A84311D484621F010FFBEAE8E
:1041B000494621F0DFFDDDF85C900DF59F68324641
:1041C0004046494618F05BFB9DF8F844FF2C3FF44D
:1041D00049AA08F10101C6A821F09AFE00F027BC07
:1041E0004CAD08F10101132221F0C2FEC6A822F055
:1041F000F7FA00F01CBC8CA80DF59F61083021F087
:10420000D0FF8D9605208DF83002FEF7AFBDDDE9B9
:10421000C6C90DF59F68DDE9C8E3DCAE4CA8903057
:1042200015F0010102BF8A468B460C46159A08BF5D
:104230000A46C0E902A2C0E9004BB022C0E904C9A5
:10424000C0E906E308F107004CA937F06DF9082032
:1042500041468DF830028CA821F083FEDDF85C9099
:10426000FEF787BD9DF873230F2A00F2BD8106205B
:104270008DF8FD040320FFF77BB9B8684C1C009053
:10428000DCAADDF85CB00DF16808214640465B46CB
:10429000FDF708FF9DF86860DDF860A0FF2E00F0D4
:1042A000EA810DF59F6222F0EBFA21F031FE8DF8E4
:1042B000FC64FF20E9E1DDF85CB009218DF87013A2
:1042C0000DF55C78DD9022F042F84CAE21F0F6FF5F
:1042D0009DF83041DDF860A0FF2C00F0D9810DF58C
:1042E0009F68711C21F094FD8DF8FC44FF20DCAE2A
:1042F0008DF8F804DDE105F1140C15940DF59879AD
:104300002946BCE83D00CE46AEE83D009CF80000E2
:104310008EF80000BDF89600ADF80C02DDF89200B2
:1043200082900846BAE83C003CC0BAF800200280FF
:104330000BF1D20012228BF8D1808BF8D06037F0CD
:10434000F3F8B9E83E000BF1E4003EC05D46159974
:104350008BF8F91099F8001001708298CBF8FA00E8
:10436000BDF80C02ABF8FE00DDF860A0DDF85CB033
:104370000C20FEF7E1BF4CA8DCA9292237F0D4F8C5
:10438000DDF89A03022EC690BDF89E03ADF81C031B
:1043900000F0B9844CA905F1D000292237F0C4F807
:1043A000C698C5F8FA00BDF81C03A5F8FE000D205C
:1043B00085F8F96010E508F10101C6A821F0A8FD13
:1043C00033E3DDF85C9009218DF8F8140DF59F6852
:1043D000CDF8FC04D9F828104346D9F83820BEAEF1
:1043E00021F06CFF9DF8F842FF2C00F033828CA87E
:1043F000711C21F044FD8DF83442FEF78BBC4CA8B3
:10440000211DC61C21F0B6FCC6AC314621F0D4FCFF
:10441000DDF85C900DF59F6622463046494618F05F
:104420002EFA9DF8F8440DF59F68FF2C00F02082CD
:104430008CA8711C21F023FDFF208DF83442CAE3C3
:1044400008F10800DCA921F0ACFE0020CDF8FC0446
:1044500008201AE14CA9484621F087FE09F1200402
:10446000C6A9202221F087FD179812228DF8B303E8
:10447000BDF80402ADF8B0039DF806028DF8B20352
:1044800009F145008DF8B4637CA937F04DF809F1C6
:10449000570079A9092237F047F85846502136F0DD
:1044A00020FF199890F80801023838BF0220C0B2E6
:1044B000022800F0CC82032840F0FD820F200DF589
:1044C0009F6821F094FFD6AE21F0F8FE9DF8585376
:1044D000FF2D40F0728308F10700DCA921F0C5FD33
:1044E000072041465BE522F074F98DF83002DCAE1E
:1044F000FEF741BCDCAE0120FFF7D3BA1AA8D7F80B
:1045000008809030159010301490E24840F2FF1B64
:104510004FF0FF398246404619F085F80446404680
:104520000E4619F080F8DC4D0023A0FB0502E1FBEC
:104530000523A4FB0541A6FB05566D184FF00001AD
:10454000464152F1000253F1000024EA0B0341F10D
:104550000001BAEB030379EB050379EB060379EB72
:104560000202D8D3149B0022DDF85CB083E8070078
:10457000DA60159BDD9083E807000821DA608DF88A
:104580007013DBF82810DBF83820D6AEDCAB21F056
:1045900095FE9DF85843DDF860A0FF2C40F0368270
:1045A000B86800210090DCAE1AAA5B4630464FF096
:1045B0000008FDF777FD9DF87043199DFF2C0AD187
:1045C0000DF59F641AA904F1080021F0EAFDCDF869
:1045D000FC84A04658E00DF59F68711C21F018FC82
:1045E000FF208DF8FC4450E085F8201105F58F710F
:1045F00085F81E0105F58C70BDF874339DF8714384
:10460000A5F8223185F8212185F81F4121F062FAB1
:1046100085F809112022DBF82C1085F808014CA838
:1046200036F082FFDBF83010DCAE402221F09DFC3A
:104630000DF168083146404601F02EFE9DF86800F5
:10464000FF2800F084820A2003248DF81903A8E2D1
:104650000524EAE1DCAD98E85E0028465EC0294604
:104660008CA800F1040C91E85D008CE85D002E46FA
:10467000FF20FFF774B90DF59F68DCA908F1080069
:1046800021F08FFDCDF8FC4407208DF8F8040FE0F1
:1046900008F107001AA921F0E8FC05200DF59F623A
:1046A0008DF8F804501C41469046B72236F03CFF86
:1046B000DCAE9DF8F804FF2841D108F10400311D5B
:1046C00090E87C0012207CC1DCAE199D8DF870034F
:1046D00008F10400311D18F03DFE0C20DBF8281015
:1046E0008DF8F8044346DBF838204CAC204618F02F
:1046F0006CF921F0B8FF09D022F0E9F8DFF85C0688
:1047000022F01CF921F06EFD1CF080F8DCA928468F
:1047100022F06CF91AAC2946204620F0C3F8FF209D
:104720008DF8F8049DF86800FE2818BFA04698E8A8
:104730001F008AE81F000DF29C6D21F0CABB0DF529
:104740009F69DCA8C822494636F022FE9DF8700316
:104750001228BDD01128D9D195F8F910022904D119
:10476000DFF8F0051BF0FEFED0E795F81A0100F027
:104770000300012802BF95F8200100F00300012882
:1047800006D095F8F8E00DF1680B4FF0020A30E022
:1047900015910DF59878DDE916614046324618F01E
:1047A0003DF921F060FF0CD098E83E0048463EC03D
:1047B000DFF8980522F0C2F848461FF095FC1CF07F
:1047C00025F8306805F1E00E14900DF1680B706863
:1047D000A84613905C46D6E902AC9EE86F006FC411
:1047E000514698F8F8E00DF59F68139A1498DDF893
:1047F00054A0CDF80CC509F1180CCDF80425CDF85E
:1048000000058DF8F9E4CDF808159BE87B008CE8ED
:104810007B000B204B468DF8F80417988DF829A5DE
:104820008DF828E5816A826B4CAE21F047FD21F0BE
:104830001AFF0CD096E83E0048463EC0DFF810054F
:104840001BF084FE48461FF04FFC1BF0DFFFDDE944
:1048500018A55BE708F10600DCA921F006FC03209F
:10486000ADF830028CA812304146B622FFF79CBB4F
:10487000119C132C40F0A781F01DDCA921F0F5FB61
:10488000092031468DF830028CA821F06AFBFEF732
:104890006FBA00BFFFC5FCFF40420F000020CDF8FB
:1048A0000405CDF80005CDF8FC04CDF8F804DFF8D8
:1048B00098140DF59F6018F0EFFC28B195F81D01D4
:1048C00040F0020085F81D0195F819010C21A5F8AA
:1048D00022A105F58C7B85F82181032885F82061CC
:1048E00085F81F9185F81E4108BF0821DDF85C900E
:1048F000D9F8380090F8702390F87133881885F84B
:104900001A0105F58F7013B101218BF8001059467B
:1049100021F0E0F8199A82F808010DF59F6082F8FD
:104920000911012101F041FC9DF8F8A4BAF1FF0F33
:1049300043D19DF80865DDF80445BDF80905ADF8DB
:10494000180331469DF80B058DF81A032046DDF853
:10495000FC84DDF8009514F07DFB21F0D5FD584670
:104960001A4621F065F9C0B2022848D1CDF8FC946E
:104970000DF55C79CDF8F8840DF59F68BDF8180346
:1049800017994246ADF805059DF81A038DF80705FD
:1049900048468DF80465CDF8004517F070FF9DF886
:1049A00070A3BAF1FF0F6CD1DDF85C900DF59F6834
:1049B00001208DF83002FFF760B99DF808259DF8B9
:1049C000FB048DF88023DDF804258DF87303BDF812
:1049D000F904DF92DDF800259DF80B15ADF87103A1
:1049E000BDF80905DE92DDF8FC24ADF830018DF844
:1049F0003211DD928DF88313ADF881034EE040460D
:104A0000494621F0EBF84FF0050A45E00DF59F68A7
:104A1000711C21F0FDF9199DE2E54CAD711C1322CA
:104A200021F0A6FAC6A821F0DBFEDDF85C90DCAE32
:104A30008DF834428CA8C6A9053013220DF59F6865
:104A400036F072FDFF208DF83002FEF792B919980A
:104A500090F80901002800F0CE800A200DF59F682B
:104A600021F0C5FCD6AE21F029FC9DF85853FF2D4E
:104A700040F0A38008F10600DCA921F0F6FA04203A
:104A8000EEE699E85E0040465EC0BB481BF05EFD66
:104A900021F0A8FB1BF0BAFEDDF85C90DCA98CA825
:104AA0000530013113220DF59F6836F03DFD8DF87C
:104AB00034A2FEF7E4BDB9680BF1100000F074F900
:104AC000DBE906010025DBE904238DE803020DF58F
:104AD0009F60CDE9034515F083FFDDF804150DF562
:104AE0009F68DDF8F824DDF8FC34DDF80005CBE93B
:104AF0000201CDE900014046CBE9002301F080FB33
:104B00009DF8F854FF2D6AD182A808F10401C61C53
:104B100021F030F988AC314621F04EF90DF5567987
:104B20005146224621F0A9FE9DF85853FF2D40F032
:104B3000818008F10700DCA921F097FA02204146A4
:104B40008DF830028CA821F00CFAFEF7D0BEBEA87A
:104B500008F10401861C21F00DF9D6A83146841C09
:104B600021F02AF90DF50279214610225E4621F046
:104B70006AFD0DF5467B31464A46584617F07FFEE2
:104B80009DF81843FF2C3DD09BE86E0040466EC058
:104B900069481BF0DBFC21F025FB1BF037FEDDF83C
:104BA0005CB0C6A90DF59F6808F10500013121F040
:104BB000AFF98DF8FC44DCAE7FE58CA8711C0530A4
:104BC00021F0A6F947E08CA8DCA9083021F0E9FA29
:104BD000601C8D9005208DF83002FEF7C9B882AEBA
:104BE00008F10101132221F0C0F9D6AC3146601C56
:104BF00021F08EF92AE0DAF80000D146A8B3D9F8FE
:104C000004104FE008F103004CA921F0AEFA0DF5B5
:104C10009F64DCA904F12400402236F085FC0220C8
:104C200041468DF8F804601C2322A04636F07CFC37
:104C3000FEF702BC99E85E0040465EC04D481BF09E
:104C400085FC21F0CFFA1BF0E1FDD6AC8CA8611CED
:104C500021F015F9D146FF20DCAE0DF59F688DF8E7
:104C600030028DF83452FEF784B8BD68314B404CA9
:104C7000D5F8000140280BD32846002126461C46C3
:104C800014F0E4FED5F8000140284AD22346344609
:104C9000421C55F82000C5F80021A0FB0301A042EA
:104CA0001046E7D80BF140000BF130020026CDF89A
:104CB000FC14C0E900160DF55678C2E900160DF592
:104CC0009F63C2E90266D9F82810D9F83820C0E9F4
:104CD000026608208DF8F804404617F076FE9DF82D
:104CE00058538CA8FF2D03D10830DCA9FFF787BAF1
:104CF000053008F1010163E7194B00E00B4B01207F
:104D000007211AF0F3FD0D481BF086FA124A06E05F
:104D10001A4A04E0134A02E0094A00E0044A21F07A
:104D20001FF8124A40211AF027FE00BF24D90300C1
:104D300014D9030040420F005900000004D90300B9
:104D4000F4D803004700000040EF03005B000000C0
:104D5000520000005D000000E4D803005400000091
:104D6000D0170400C017040058000000C8ED03006D
:104D70007F3DF1FF550000004E000000C4D8030045
:104D8000D0B502AF92B0BC688DF81020FF228DF82C
:104D90000420CDE902343A69FB68009201AAFDF7CC
:104DA000BFFC12B0D0BDD4D4F0B503AF2DE9FF07DE
:104DB000DFF8949000260D468046EA46CDE902666B
:104DC000CDE900660F2E1ED8D5F80041402C07D340
:104DD0002846002114F03AFED5F80041412C2AD291
:104DE0003046514610224B4617F014FF02460B4640
:104DF00005EB8400C4F140011CF04AFE2044C5F8D4
:104E000000010E44DEE704A89AE81E001EC004ABB1
:104E100021F0EDF81FBFA8E80F0008B0BDE80007BB
:104E2000F0BD08481BF092FB04A81FF08BFA1BF0A2
:104E3000EDFC1BF039FC054B2046402140221AF0C6
:104E400055FD00BF63000000841E0400B8ED0300A0
:104E5000B0B502AF1D490968C90532D11D4C2168A2
:104E600061BB4FF0FF31216094F83810012907D160
:104E7000002184F83810216B002918BF013121630B
:104E8000A16AC1B1D4E90C23002B04EBC30529644A
:104E900085F83C0018BF013363639A4204BF0120C8
:104EA00084F8380020F040FF04F110001DF07FF876
:104EB0002068013000E000202060B0BD06481BF0F3
:104EC000B5F903481BF04EFB1BF0EEFB04ED00E0D0
:104ED0002500000098670020700F0400BFB506AFE2
:104EE0000168DFE801F0041F191B17252D1DD0E90B
:104EF0000101CDE9010101A8039028481BF026FB20
:104F000027481BF0FFFA274903A81BF043FB1BF0BF
:104F10007DFCBFBD1E4806E01E4804E0174802E0C5
:104F2000174800E01C4804B0BDE8B0401BF01ABBB5
:104F3000446816481BF00AFB20461BF0F9FA18E0FB
:104F4000D0E901540F481BF001FB0F481BF0DAFABF
:104F5000DFE805F0020C0406002008E0022006E06D
:104F600021F017FC20461BF08DFB02E001201BF016
:104F700007FBBDE8BF401BF049BC00BF3B00000081
:104F80003100000033000000410100002C0000004F
:104F90002B000000390000003A0000003000000043
:104FA0000C000000D4F2030080B56F4618B1BDE8D4
:104FB000804020F013BE80BD80B56F46016819B1F6
:104FC000BDE8804000F0FCB880BD80B56F46C243AC
:104FD00012061CBFBDE8804000F0C0BC80BDD4D428
:104FE00080B56F4605480021012201600449425006
:104FF00001680029FCD00021016080BD14710040CF
:10500000F4FEFFFF80B56F4690F8441031B10329DC
:1050100018BF80BDBDE8804000F066B83830F9E7C1
:10502000D0B502AF0446006820B921F0B2F821F0F3
:1050300048F8D0BD04481BF089FA1EF067F91BF050
:10504000E5FB1BF031FB00BF26000000B0B502AF4E
:1050500004460025902D08D06019017D032904BF66
:10506000043000F09FFB1835F4E7B0BD80B56F4603
:10507000C0B2BDE8804034F08BBDD4D4F0B503AFEE
:105080004DF804BD0A460646D0E9000115F00EFAB7
:105090000C461349054606F576701EF049F90E4692
:1050A00095F85E13B1B1013985F85E13090604BFA6
:1050B00095F85C13042905D021F00FF921F001F8CF
:1050C00020F0F5BF103041F20131A5F85C131BF060
:1050D0009DFEF1E703481BF045FA1BF0E5FA00BF1F
:1050E00048ED03006A00000080B56F460146406845
:1050F0004A7A00F5B7601AB1BDE8804012F0D5BD1C
:10510000097ABDE8804012F0B4BD80B56F4680BD1D
:10511000B0B502AF456875B102890068D0E90001F9
:1051200015F0CAFA38B10C46D0F84013294421F0E2
:10513000FDF920F0C6FFB0BDB0B502AF88B004469F
:10514000D0E9062043690020009002AD21462846A0
:1051500000F09AFD2846FFF72FFF204608B0BDE873
:10516000B04000F06CB8B0B502AF88B00446D0E9EA
:1051700006204369012194F82000CDE9001002AD1A
:105180002146284600F080FD2846FFF715FF2046FF
:1051900008B0BDE8B04000F052B880B56F46017865
:1051A000042907D0082918BF80BD0430BDE880401D
:1051B00000F052B890F83A00BDE8804020F002BDFF
:1051C000F0B503AF2DE900078AB0D0F800A004467F
:1051D00086680020A0601EB304F10C000DF11408D5
:1051E00008F1080190E82C002CC194F80490DAE949
:1051F00000014A461DF0B2F90A68B0F85803013AB6
:105200000A600AF57E71ADF81400684642460696BB
:1052100014F0F0FB019828B1029920F0DFFC01E0C6
:1052200094F8049050464946FFF728FFE1680020B3
:105230000AB0BDE80007BDE8F040FFF7B5BED0B545
:1052400002AF0446D0E90201FFF7AEFE21792068E3
:10525000BDE8D040FFF712BF80B56F4602C8DFE857
:1052600001F002020206BDE88040FFF765BFBDE81D
:105270008040FFF778BFD0B502AF15F01DFA68B1D6
:105280000C4690F86F130022012980F86F2304BFA9
:1052900000F51E701BF0BAFD20F013FFD0BD80B5E5
:1052A0006F4600F5B7600021BDE8804012F0E1BC18
:1052B0000168426B8A429EBF00210160704780B541
:1052C0006F46024B10460A461AF010FB14F3030017
:1052D000F0B503AF2DE9000F89B082463048006871
:1052E000C00557D189463049104615F05DFC05468A
:1052F000D0E90046D0F8EC0005F1080B88460138EB
:10530000C5F8EC00584612F0E1FC241A66F10000E2
:10531000BAEB040179EB000035D3E946594648461B
:1053200015F018FABAEB0400049004D0411E684648
:1053300018F09AF950B105AC99E84E0020464EC0DD
:1053400021F08AF910B121F09AF9F9E700206C46B2
:10535000D5E90212914202D12A7CD2070DD005EB89
:10536000C101896949B92046594615F001FA9DF8ED
:10537000000002280BD00120EAE7C0071CBF05F19E
:10538000C8001CF00AFE20F02CFD20F034BD0748B8
:105390001AF042FF03481BF0E5F81BF085F900BF47
:1053A00004ED00E0250000002CE6030020EB0300E4
:1053B00080B56F4609490968C9050AD1094915F040
:1053C000F3FBD0F80021013AC0F8002120F002FEE2
:1053D00080BD03481BF0C6F81BF066F904ED00E041
:1053E000250000001CE6030080B56F4608490968E7
:1053F000C90508D1084915F0D7FB026C013A0264CF
:1054000020F0E8FD80BD03481BF0ACF81BF04CF920
:1054100004ED00E0250000001CE6030080B56F46A7
:1054200090F88810032918BF80BD2C30BDE880405B
:1054300000F085BA80B56F4690F8EC10032918BFCC
:1054400080BD1830BDE8804000F00CB880B56F46D4
:1054500090F8F810032918BF80BD2430BDE88040C3
:1054600000F000B880B56F4690F84410032908D0CA
:10547000042918BF052909D14830BDE8804000F053
:105480005EBA4830BDE88040FFF7C8BF80BD80B538
:105490006F46817F0339012988BF80BD2430BDE874
:1054A000804000F000B8D0B502AF044690F8270065
:1054B000042818BFD0BD04F13C0000F0EAF9E06A0E
:1054C000228ED0E90001BDE8D040FFF7D4BE80B500
:1054D0006F46417C042918BF80BD4068BDE880400C
:1054E000FFF79EBDD0B502AF044690F83500032803
:1054F00009D0042803D0052818BFD0BD03E004F16B
:10550000380000F073F9002084F83400D0BDD0B525
:1055100002AF044690F83500032804D0042807D0D1
:10552000052818BFD0BD04F1380000F009F803E0E9
:1055300004F1380000F05AF9002084F83400D0BD9E
:1055400080B56F4690F85010063907290AD8DFE871
:1055500001F00A0F0904091409045430BDE8804021
:1055600000F068B880BD5430BDE88040FFF76EBFE2
:105570005430BDE8804000F04BB85430BDE8804066
:1055800000F055B980B56F4690F82010042918BF77
:1055900080BD2430BDE8804000F087B980B56F46FB
:1055A00090F87C10032918BF80BDBDE88040FFF74C
:1055B000E9BFD0B502AF0446807C032804D004289C
:1055C00004D12068FFF7F4FE0020E074D0BDD0B510
:1055D00002AF0446C079032804D0042804D120680F
:1055E000FFF702FF0020A071D0BD80B56F4690F894
:1055F0003410032907D0042918BF80BD5830BDE8F6
:105600008040FFF7FFBC5830BDE8804000F034B860
:1056100080B56F46017C032907D0042918BF80BDDF
:105620001830BDE8804000F08AB91430BDE88040F1
:1056300000F000B880B56F46017C042918BF80BD1A
:105640001830BDE8804000F07AB980B56F46017F20
:10565000042918BF80BD2030BDE8804000F000B8AC
:1056600080B56F4690F85C10032918BF80BD0830E4
:10567000BDE8804000F057B9D0B502AF044690F8BD
:105680005C00011F042906D3032818BFD0BD04F114
:105690006000FFF71CFFE06B4068BDE8D040FFF7FB
:1056A000FEBD80B56F46C0B2032818BF80BDBDE8FF
:1056B0008040FFF795BCD0B502AF044690F82000BB
:1056C000042806D1E0690078FFF7D0FC002084F8B8
:1056D0002200D0BD80B56F4690F84010032918BF56
:1056E00080BD0C30BDE88040FFF7E5BF80B56F4658
:1056F00090F84410032918BF80BD1030BDE88040E9
:10570000FFF7D9BF80B56F4690F80013032918BF83
:1057100080BD00F58470BDE88040FFF7F8BE80B51D
:105720006F4690F8D811032918BF80BD0C30BDE832
:105730008040FFF7D7BE80B56F46017B042918BFB4
:1057400080BD8068BDE88040FFF76ABC80B56F46C9
:1057500090F8A810032998BF80BDD0F89000BDE84C
:105760008040FFF75DBCD4D480B56F46817C0E3994
:105770000B2911D8DFE801F00610101110101010DD
:10578000060B100B1830BDE88040FFF7DFBF143068
:10579000BDE88040FFF7CFBF80BD1430BDE880403A
:1057A000FFF775BE80B56F46017B032918BF80BD2A
:1057B0000430BDE8804000F061B8D0B502AF0446C7
:1057C00090F83100052809D006280ED104F14800D0
:1057D00000F05FF8A06BA28F20F011FBD4E900016C
:1057E00020F0FCF9002084F83000D0BD80B56F4671
:1057F00090F82C100339052918D8DFE801F00317B9
:10580000170D08123030BDE88040FFF71EBF303062
:10581000BDE88040FFF70EBF3030BDE88040FFF7A5
:105820001FBF3030BDE8804000F001B880BD80B5BA
:105830006F4690F86010052907D0062918BF80BD73
:105840006430BDE88040FFF70BBF7430BDE8804096
:10585000FFF7F0BD80B56F4690F82D1041B10329D8
:1058600018BF80BDD0E90601BDE88040FFF79CBBB2
:10587000D0E90001BDE8804020F0B0B980B56F46A6
:105880004179032918BF80BD0430BDE880401BF07A
:1058900041BA80B56F4690F82510042918BF80BD25
:1058A0002830BDE88040FFF733BC80B56F4690F8E4
:1058B000441039B1032918BF80BD1430BDE88040C1
:1058C000FFF7C8BFD0E90101BDE8804020F086B9EC
:1058D000D0B502AF044690F88800032801D028B163
:1058E000D0BD04F14000FFF7E0FF18342046BDE8CA
:1058F000D040FFF765BC80B56F4690F8A41003292F
:1059000018BF80BD2430BDE88040FFF747BE80B59A
:105910006F4690F89410032918BF80BD0430BDE88D
:105920008040FFF793BB80B56F4690F85010032975
:1059300018BF80BD0C30BDE88040FFF7CBBE80B5FE
:105940006F4690F85810032918BF80BD1030BDE88D
:105950008040FFF7CBBE80B56F4680BD80B56F46F7
:10596000C0B2072818BF80BD0846BDE8804020F0BF
:1059700029B9B0B502AF051D0C4634B155E9010196
:10598000FFF712FB013C1035F7E7B0BDB0B502AF31
:10599000051D0C4634B155E9010120F01FF9013C09
:1059A0001035F7E7B0BDB0B502AF00F13A050C46CF
:1059B0003CB115F83A0C15F8401BFFF7CFFF013C3E
:1059C000F6E7B0BDE0B502AFCDE9000101A9684638
:1059D00019F086F8D0B502AF0F4A1269BFF35F8F96
:1059E000A2B15268012301441360002388420AD007
:1059F000D2F80041002CFBD0C2F80031D2F80845A3
:105A000000F8014BF2E701205060D0BD03481AF0C6
:105A1000A9FD1AF049FE00BF786A002021000000AD
:105A2000F0B503AF4DF804BD044676481AF06AFDA0
:105A30002578FF2D15D120F047FC78481AF062FD3B
:105A40002579FF2D26D120F03FFC79481AF05AFD28
:105A5000207A1AF095FD60891AF054FDD4E903010B
:105A6000B5E0002000261AF08BFD67481AF04AFDC9
:105A7000B5F10A0098BF3046E0B1012829D120F0E5
:105A800023FC63481AF03EFDA0891AF03BFDD4E9DF
:105A900001019CE020F08AFD61481AF033FDDFE847
:105AA00005F00543233221505B415F0020F07EFD6D
:105AB000E08811E020F07AFD56481AF023FDDFE877
:105AC00005F0066A575C517A8C6096538E00002070
:105AD00062E020F06DFF4D485DF804BBBDE8F0408A
:105AE0001AF010BD04202DE020F062FF4D481AF09E
:105AF00009FD4D48257D1AF005FD681E18BF0120DF
:105B00001AF03EFD15E020F044FE60791AF038FDF1
:105B100020891AF0F7FCA0795DF804BBBDE8F040DD
:105B20001EF0A6BB072018E020F0CEFB3F481AF07D
:105B3000E9FC04F108005DF804BBBDE8F0401EF08C
:105B4000C3BB05201AF01CFD04F108005DF804BB7E
:105B5000BDE8F0401EF0A8BB06201AF011FD34E0AD
:105B6000082048E0042004E009201AF009FD8EE72F
:105B700002201AF005FD6088AEE720F00AFE60887A
:105B800083E707201AF0FCFC60881AF0BBFCA088B1
:105B90001AF0B8FC19E001201AF0F2FC608A1AF041
:105BA000B1FCA08A1AF0AEFC601C5DF804BBBDE835
:105BB000F0401EF09BBB05201AF0E2FC6088164DF9
:105BC000A847A088A847E088A847D4E902015DF863
:105BD00004BBBDE8F0401BF0FFB8062000E00A203F
:105BE0001AF0CEFC60881AF08DFCA08874E70820BB
:105BF0001AF0C6FC60785DF804BBBDE8F0401AF00E
:105C0000BFBC00BF430100004F0100004401000081
:105C1000550100004C010000050502005001000084
:105C20004601000048010000540100004701000047
:105C30004B010000D0B502AF04460A481AF062FCDE
:105C40002088012809D120F03FFB07481AF05AFCB0
:105C50006088BDE8D04018F059BC0020BDE8D040B5
:105C60001AF08EBC0800000084000000D0B502AF1E
:105C7000044604481AF046FC2078BDE8D0401AF0EB
:105C80007FBC00BF0F000000F0B503AF2DE9000F8F
:105C9000B1B0054688680024884600288C6053D03F
:105CA000D8E9046B0A90B868D8F80C100028089559
:105CB000099153D03046594616F034F92BAC20F0F8
:105CC00023FC20461A461FF0DFFA2D980E3405906B
:105CD0000A222C98214606909DF8AD00BDF8B8A088
:105CE000BDF8AE509DF8AC90079017A835F01CFC9D
:105CF000B9F1FE0F00F09E8117A920460A2235F067
:105D000013FC0598B9F1FF0F2D9006982C90079879
:105D1000ADF8B8A0ADF8AE508DF8AD008DF8AC90F0
:105D200000F0948101220020B9F10A0FA9F10B01C2
:105D300088BF52FA81F0002800F0BC80012800F0F2
:105D4000C6804FF0000AC2E098F80410D8F80000AE
:105D500017F0BFFBAC60297128601AE13046594644
:105D6000CDE9062316F0DEF82BAE20F08AFA0DF10D
:105D70005C0BB11C16229DF8ACA058469DF8AD9066
:105D800035F0D2FBBAF1FE0F00F05981594611A847
:105D90007CC97CC016220988018059468DF82D9057
:105DA0008DF82CA00BA8023035F0BEFBBAF1FF0F26
:105DB00000F051818DF85D900BF102008DF85CA030
:105DC00011A91622162435F0AFFB2BA81FF0BCFE3C
:105DD0002B9D002D69D0DDE92CA1FB200DF1AC0B32
:105DE0000422CDE91D1000201F90584603911DA9E3
:105DF0004FF004091EF0E6FA2B9E9DF8B040002EED
:105E000000F0B4800BF105010DF1980B1322CDE9E0
:105E1000045A584635F088FBDDF89B100DF18C09CB
:105E200022910BF1070126980C22CDF8850020F075
:105E30000AFCD8F8005098F804A0D5E900018DF8C4
:105E400084405246209614F035FD1FFA80FB4846E8
:105E50001EF016FB864B02460E468B4528BF8B462E
:105E600011465846324616F000FDCDE900012BA838
:105E700017AB0699079C4246A0479DF8AC00FF2847
:105E800000F08A80089E9DF8AF1006F10805F171B8
:105E9000BDF8AD10A6F805102CAC30711ECC1EC597
:105EA000DDE9045A002030606BE0089900200860AA
:105EB0000C716AE0B9F10A0F3FF643AF0120AA4620
:105EC00000FA09F040F20C4108423FF43AAF304684
:105ED000594616F027F8002900F0C78098F80450BA
:105EE000D8F800600DF15C080078ADF860A00DF105
:105EF0002C0AF9682A468DF85D0003208DF85E10A3
:105F000031468DF85C005046434600F0BDF89DF8E0
:105F10002C40FF2C0BD011AD0AF10101132220F00F
:105F200027F8089E294620F000F800251BE011A85C
:105F30000AF10401C41C1FF03FFF0DF12C0A214699
:105F40001022504635F0F0FA3046294617F0C1FAD3
:105F5000054608F103000C46514620F038F8089E2B
:105F600041461FF0E2FF347135600EE008990120D0
:105F7000487100200860E00718BF4FF00D0981F854
:105F80000490284651461FF029FEDDE909101FF054
:105F900025FE31B01FF09DBF089E2C98012809D125
:105FA000DDE924212D98521A82420ED24FF48270DC
:105FB000B08075E72846514617F08BFA0022317100
:105FC0003060B260DDE90401DDE70C1820A8D1469D
:105FD000AB4621461DF02CF9DDE9045AC0B2022877
:105FE00016D120A804214FF004081DF021F9C0B2F9
:105FF000022816D1229849460444584617F069FAF7
:10600000039AC6E9025AC6E9042431713060BCE73C
:106010000121C00771714FF0040018BF0D203071CD
:1060200040E701217171C00718BF4FF00D0886F8D5
:10603000048037E713481AF089FA079803E00E48FE
:106040001AF084FA48461EF021F90AE00C481AF0CA
:106050007DFA2BA803E007481AF078FA0BA8FFF79F
:10606000DFFC1AF0D3FB1AF01FFB044A1FF078FE86
:1060700088DA03006F0000007300000098DA030064
:106080006D00000072000000F0B503AF2DE9000FB5
:106090009BB0044615A8984691460E461FF054FD45
:1060A000159D002D64D016980DF1540B0690FB2021
:1060B00017990422CDE907100020059404240990C3
:1060C0005846CDE90369019107A91EF07BF9DDF877
:1060D00054A09DF85890BAF1000F57D0029510AC1B
:1060E0000BF105011FF0B9FEDDF843100C221098EA
:1060F0000C91E11DCDF82D000DAE1FF036FF8DF88F
:106100002C900BF10400CDF828A098E83E003EC08A
:106110005946FF208DF854003046FBF745F9C0B2D0
:10612000022828D10398049AD0E9000114F0C2FB98
:106130000F9D80B2A84238BF05460AA829461DF027
:1061400077F8C0B2022816D10AA804211DF070F811
:10615000C0B202280FD1059AFF20029910700C9846
:1061600051600699284491600199C2E9031019E031
:106170001620207016E00121059AC0074FF0040098
:10618000517018BF0D20029D107007E00599012085
:1061900048705FEAC97018BF0D240C700699284634
:1061A0001FF01CFD1BB01FF094BEF0B503AF4DF8FF
:1061B000048D8EB0054608A888461FF0C5FC0898D7
:1061C000C0B1A7F1370008A9C61C0C221FF0CDFEF4
:1061D000A7F146003146C41C0C221FF0CCFE0BAECA
:1061E00021460C221FF0C1FE28463146424612F0DD
:1061F00043FF01E0162028700EB01FF0D5BFD4D4A5
:10620000F0B503AF2DE9000F89B0044604A80221C0
:1062100020F044F920F02CFB02D01FF04BFD0FE0E2
:106220001FF064FDFA6810230792BA680692064AC6
:10623000CDE904A6009204AA1FF02FFD1FF0B0FDC7
:1062400084F800B01FF0D7BDA8DA0300F0B503AFA3
:106250002DE9000F89B0044604A8032120F01EF99F
:1062600020F006FB02D01FF025FD0FE01FF03EFDE1
:10627000FA6810230792BA680692064ACDE904A686
:10628000009204AA1FF009FD1FF08AFD84F800B0F7
:106290001FF0B1BDB8DA0300F0B503AF2DE9000F70
:1062A00099B003AE044620220D461FF05EFE05F1B4
:1062B00020010BAD20221FF05BFE304611F058FC90
:1062C000284611F055FC14A80B21FFF76EFF9DF82E
:1062D00050B0BBF1FF0F16D09DF85300E070BDF831
:1062E00051009DF86310DDE91565A4F80100BDF8C3
:1062F0006100179A9DF86030ADF84C008DF84E1093
:106300001FF00AFD33E09DF86080DDF85C90BDF879
:1063100061009DF86310DDE91552ADF84C00A4F85A
:10632000110048468DF84E10E1744146029212F079
:1063300091FE114B82460E4620205146324616F001
:1063400094FA0E4A2023009203AA1FF0A6FC0C48E0
:106350004021009020205246334616F0FDF9094AAC
:10636000202300920BAA1FF098FC1FF019FD84F85F
:1063700000B019B01FF0ADBDC8DA0300D8DA0300D1
:10638000E8DA0300F8DA0300F0B503AF2DE9000FF7
:1063900089B0044604A80C2120F080F820F068FAA7
:1063A00002D01FF087FC17E01FF0A0FC0246F8683F
:1063B0000B4B8C4607901146B86862460690102039
:1063C000CDE904A616F051FA064A1023009204AA59
:1063D0001FF063FC1FF0E4FC84F800B01FF00BBD5D
:1063E00008DB030018DB0300F0B503AF2DE9FE0F57
:1063F000044602A888460721FFF7D7FE9DF808A0AB
:10640000BAF1FF0F16D09DF80B00E070BDF809003F
:106410009DF81B10DDE90365A4F80100BDF8190023
:10642000059A9DF81830ADF804008DF806101FF09D
:1064300073FC1DE09DF81860DDF81490BDF819009C
:106440009DF81B10ADF80400A4F8110048468DF823
:106450000610E1743146DDE9035B12F0FBFD074AEB
:1064600010231FF01AFD2674C4E9015BC4F80C90D8
:1064700084F800A007B01FF02CBD00BF28DB03008C
:10648000F0B503AF2DE9FF07044603A80D46082128
:10649000FFF78BFE9DF80C00FF281ED09DF80F1013
:1064A000E170BDF80D109DF81F20DDE90463A4F82C
:1064B0000110BDF81D10DDF818C09DF81C50ADF896
:1064C00008108DF80A202574C4E90163C4F80CC0D3
:1064D000A4F81110E274207030E09DF81C80069E34
:1064E000BDF81D00ADF8040041469DF81F008DF871
:1064F00006003046DDE9049A12F0ACFD09B302460D
:10650000A8790B46002818BF0120107007210E48FB
:106510000090012016F020F90C4A062320F03AF8EA
:10652000FF2084F810802070BDF80400A4F811004A
:106530009DF80600C4E9019AE660E07408B01FF017
:106540004BBE034A1FF00CFC48DB030058DB030082
:1065500038DB0300F0B503AF4DF804BD0546007805
:106560000C46DFE800F00B512436186E7B4D9A2064
:106570008D151C77112D0E677F9E6A002046002125
:1065800080E0204610216FE06A7820460E2111E05D
:1065900020460B2176E06A782046042184E06A7860
:1065A00020460C2180E06A78204609217CE06A7848
:1065B000204602215DF804BBBDE8F04000F014BDA8
:1065C0006A7820460F215DF804BBBDE8F04000F07A
:1065D0001ABD2046032111F03BFCC043000637D111
:1065E000A878214600F0E2F80646C043000651D1E3
:1065F000D4E9010188422BD0697800F8011B65E0DD
:106600006A78204607214FE02046012111F020FC46
:10661000C04300061CD1687802285AD001286CD1EA
:106620002046012111F014FCC0430226000631D19E
:10663000A97820E02046112116E06A78204614212E
:1066400032E02046052111F003FCC043000631D0A2
:1066500002261FE06A7820460D2125E06A78204650
:10666000062121E02046122111F0F2FBC043022650
:1066700000060FD16978204611F0EAFBC04305E01F
:1066800020460A2111F0E4FBC0430226000608BFA1
:106690004FF0FF3630461FF0EBBC6A7820460821E9
:1066A00002E06A78204613215DF804BBBDE8F040A3
:1066B00000F0B8BCD4E901018842C9D06A781FF063
:1066C00067FE6360C4D0A978417002306060FF2625
:1066D000E0E720460221022611F0BAFBC043000683
:1066E000D8D1A9780029C6D081290AD082290AD018
:1066F000832914BF04210321BDE7AA782046002185
:1067000061E70121B7E70221B5E7D4D4B0B502AF04
:10671000054600780C460421142888BFA0F1150115
:10672000C8B2DFE800F0031A0F1306242046002148
:1067300015E02046042111F08BFBC04300061DD05C
:106740000220B0BD6A1C2046022102E06A1C2046DD
:106750000321BDE8B04000F038BC2046012111F013
:1067600077FB20F05EF808BF4FF0FF30B0BD6A78CD
:1067700020460521BDE8B04000F054BC2846214623
:10678000FFF7E8FEC14309060FD1E81C2146FFF7D9
:10679000E1FEC143090608D1D4E901018842CFD006
:1067A000A97900F8011B6060FF20B0BD80B56F467D
:1067B00080F080000A460649C0B251F82010104609
:1067C00011F046FB20F02DF808BF4FF0FF3080BDE0
:1067D000E4220400F0B503AF2DE9C007044606200B
:1067E000CDE90010684600F008FDC0F30725C1B2EE
:1067F000022901D101203BE0C0074DD0684600F0DE
:10680000FCFC1FF0BBFB02D10120354630E0C00785
:1068100042D0684600F0F1FCC0F30728C1B202295B
:1068200002D10120454623E0C00735D0684600F07C
:10683000E4FCC0F30729C1B2022902D101204D4670
:1068400016E0C00728D0684600F0D7FCC0F3072A3E
:10685000C1B2022902D10120554609E0C0071BD070
:10686000684600F0CAFC1FF0B4FD07D101201546B0
:10687000012125542170BDE80C07F0BDC0070BD0E5
:10688000657000210620154684F805A084F8049060
:1068900084F80380A670ECE701200E25E8E7D4D445
:1068A000BCB504AF054668461FF06FFD1FF0ABFC9A
:1068B00003D19DF80140FF20C9E00198142800F29F
:1068C0000881DFE800F0C40B3A829B57B348AC3331
:1068D000C4C441942C4F1F6FA2BA7B0068461FF0BE
:1068E00054FD1FF090FC40F0B9809DF80110FF248A
:1068F000E0B2FF284FF0010008BF0C4608BF4FF080
:10690000FF30A4E068461FF040FD1FF07CFC00F063
:106910008280019C1B2C00F2D980102096E01FF091
:10692000C3FBC0070C464FF00E008CE01FF0BCFB11
:10693000C0070C464FF0090085E01FF0B5FBC0070B
:106940000C464FF002007EE01FF0AEFBC0070C4685
:106950004FF00C0077E01FF0A7FBC0070C464FF08C
:10696000070070E0284600F04BF9C0070C464FF0D6
:106970000F0068E00220CDE90050684600F03DFCC1
:106980001FF022FD49D0C00700F0A080684600F04B
:1069900034FC1FF01EFD27D0C00700F097800520B3
:1069A000114654E068461FF0F0FC1FF02CFC32D07A
:1069B000019C062C00F28A80112047E01FF074FB36
:1069C000C0070C464FF014003DE00120CDE9005017
:1069D000284600F015F90C46C0071ED1684600F0A5
:1069E0000CFC1FF0F6FC52D1FF20002153E01FF0F9
:1069F0005BFBC0070C464FF00D0024E01FF054FB7A
:106A0000C0070C464FF004001DE068461FF0BDFCB7
:106A10001FF0F9FB34D19DF80140FF2016E01FF074
:106A200043FBC0070C464FF008000CE01FF03CFB96
:106A3000C0070C464FF0060005E01FF035FBC0070D
:106A40000C464FF0130018BF4FF0FF300021E2B2A8
:106A5000C0B2120242EA01410844BCBD01980228BA
:106A60003AD81ED001282AD168461FF08EFC1FF0AC
:106A7000CAFB3FF43AAF019933292DD8012437E7F7
:106A8000019850B1012821D112200124DEE7C0076E
:106A90001CD0214603201446D9E7122000210024EF
:106AA000D5E768461FF071FC1FF0ADFB3FF41DAF4A
:106AB0000198042810D80A490224095C18E72846DE
:106AC00000F09EF800F00100444211E7FF200E2480
:106AD000BCE7FF200E24EFE6FF240E2108E700BFED
