:1010000008FC03200111000083FE0300696F060045
:1010100083FE030083FE030083FE03000000000044
:1010200000000000000000000000000083FE03003C
:1010300083FE03000000000083FE030083FE030024
:1010400059110000C111000083FE030083FE03005C
:1010500083FE030083FE03008103040045120000A9
:101060009112000083FE030083FE0300391200008A
:1010700083FE0300CD11000083FE030083FE030006
:1010800083FE03005904040083FE030083FE030073
:10109000AD11000083FE030083FE030083FE030006
:1010A00083FE030083FE030083FE030083FE030030
:1010B00083FE030083FE0300000000000000000028
:1010C00083FE030083FE030083FE030083FE030010
:1010D00083FE030083FE030083FE03009D120000D5
:1010E00083FE030083FE030083FE03000000000074
:1010F0000000000083FE03000000000083FE0300E8
:101100003EF0C2FE0E480F490022814201D004C0C9
:10111000FBE70D480D490E4A814202D008CA08C0BB
:10112000FAE70C484FF47001026842EA01020260DB
:10113000BFF34F8FBFF36F8F3BF0F6FE00DE000072
:101140008022002048240120080000207C2200206A
:101150008829070088ED00E0B0B502AF5FF050FDD0
:10116000104C206828B1002020600F481C303FF050
:1011700025FC606850B10C4D0020606005F11C003A
:101180003FF01CFC05F134003FF018FCA06838B1BA
:101190000020A06004483430BDE8B0403FF00EBCF1
:1011A000B0BD00BF1C010040E80E012080B56F46B5
:1011B0000248BDE880403FF001BC00BF30F700208E
:1011C00080B56F46BDE8804061F0ACB8F0B503AFC4
:1011D0004DF804BD154E0020306040F02BFC144D3E
:1011E0000446A869F0B94FF0FF30A861686A78B189
:1011F000A96A88420CD0D6F808140170D5E9090113
:1012000001306862884204BF05F11C003FF0AAFB70
:10121000A8690130A86120465DF804BBBDE8F04034
:1012200040F03EBC03483EF0AFFC00BF00D10040A0
:10123000640F0120B0E6060080B56F46BDE880402F
:1012400061F00CBFD0B502AF0F4C206930B1102057
:10125000C4F808020D482C303FF0B0FB606830B194
:101260000220C4F8080209482C303FF0A7FB206890
:1012700040B10120C4F8080204482C30BDE8D04039
:101280003FF09CBBD0BD00BF00710040E80E0120C4
:1012900080B56F46BDE8804061F038B8F0B503AF67
:1012A0004DF8048D84B0344C206858B1334D012082
:1012B000C4F8080205F11C003FF080FB05F1240092
:1012C0003FF07CFBE06D38B14FF40000C4F8080239
:1012D0002A4824303FF072FBA06A38B14FF4806096
:1012E000C4F80802254824303FF068FBA06D28B1FF
:1012F0000020A06521481C303FF060FB206EB8B391
:1013000000202066D4F86C631C48C4F86C63BFF3FB
:101310005F8F50E8051F314340E80512002AF8D1DD
:101320000020BFF35F8F8DF80C0007200DF104083B
:10133000029001200190404635F04CF9012817D168
:1013400001F01F040D4626FA04F0C00704D0284619
:101350002DF048F93FF032FB84F0100026FA00F03F
:10136000C007E8D028462DF091F93FF027FBE2E7CF
:1013700004B049F006BD00BF00710240E80E012034
:10138000F0B503AF2DE90007ADF5846D044690F884
:1013900014040D4620B1032817D01F483EF09BFCD3
:1013A000E846214640464FF4847265F08BF9D4F844
:1013B000101442AE4246304626F084FE04F5847096
:1013C00031464FF4427265F07DF904F58478A7F157
:1013D00024002A4641461BF04BFC57F8246CB51CF0
:1013E00001D103200FE0404657E908A905F0D0F9E4
:1013F000701C07D0A7F1240047E9096A47F81C9C34
:1014000005F0ECFC012084F81404B5FA85F04009DD
:101410000DF5846D4AF0EFB868950600F0B503AF9E
:101420002DE9000F95B0D0E90149834608468A4668
:10143000A4EB090548F08EF9854201D200200BE2A9
:101440005046DBF8005048F085F9DFF81C142A46B6
:10145000009100EB0901484623462DF0D5F89AF893
:101460000020FF2A1FD19AF80420FF2A3ED14AF01B
:10147000BBFEBAF8080001280AA814BF1B211D21D1
:1014800045F042FFC0B2022840F0DD81BAF80A10F0
:101490000AA845F059FFC0B2022840F0D481DAE929
:1014A00003120AA84EE1B2F10A044FF0000398BFFC
:1014B0001C46002C35D0012C48D14AF095FE0AA8D4
:1014C000522145F021FFC0B2022840F0BC81BAF899
:1014D0000C100AA845F038FFC0B2022840F0B381D2
:1014E000DAE901120AA847F039F835E0CDE903013D
:1014F00000200590DFE812F00900C5005E00A200A0
:101500003200EF001B01C200290103A8032145F0AE
:10151000FBFEC0B2022840F09681BAF8061003A87C
:101520008BE10AAC0A2A0BC400F29981DFE812F0C1
:101530000B00150132013501690147017301970163
:101540009701970112010AA8102108E14AF04CFE08
:101550000AA81E2145F0D8FEC0B274E103A80921F3
:1015600045F0D2FEC0B2022840F06D81DAF8144096
:1015700003A8214645F0C8FEC0B2022840F06381AE
:101580000AF1080213944AF00EF80AA8294647F017
:101590007BFF9DF82800FF2840F0548149F046FF6A
:1015A000C0B2022840F04F814AF033FCC0B202289A
:1015B000EBD048E103A8052145F0A6FEC0B2022801
:1015C00040F041819AF8144003A8214645F09CFE62
:1015D000C0B2022840F037810AF108028DF8244099
:1015E0000DF1400807CA06AB07C30AA804300290F1
:1015F00003AC0AA806A947F09DFFBDF82800002803
:1016000040F02081029AA446BDF82A10404678CACC
:1016100078C0644612780270604645F095FEC0B20C
:10162000022840F01081404645F03EFE49F03AFB6A
:1016300046F094FFC0B20228DBD004E103A80121E8
:1016400045F062FEC0B2022840F0FD809AF8051015
:1016500003A845F059FEC0B2022840F0F480BAF861
:10166000081003A845F070FEC0B2022840F0EB80DD
:101670009AF8061003A845F0F7FDE0E003A80D2155
:1016800057E003A8072145F03FFEC0B2022840F012
:10169000DA800AF108020DF1280849F084FF40467B
:1016A000294647F049FC9DF82800FF2840F0CA80F1
:1016B000BDF82A103046BDF82C4045F045FEC0B2BA
:1016C000022840F0C0803046214645F03DFEC0B2C1
:1016D0000228E4D0B7E003A8112145F015FEC0B2FE
:1016E000022840F0B080DAF8144003A8214645F003
:1016F0000BFEC0B2022840F0A6800AF10802139443
:1017000049F051FF0AA8294647F0BEFE9DF828007F
:10171000FF2840F0978049F089FEC0B2022840F0CF
:1017200092804AF076FBC0B20228EBD08BE003A88F
:101730000B2145F0E9FDC0B2022840F08480DAE9CF
:10174000021203A846F00AFF79E003A8132145F02E
:10175000DBFD74E00AA80C215FE00AA8082145F02F
:10176000D3FDC0B202286ED1BAF812100AA845F013
:10177000EBFDC0B2022866D1BAF814100AA845F0F1
:10178000E3FDC0B202285ED10AF101010AA847F0C8
:10179000FDFB54E00AA80A2135E00AA8122145F011
:1017A000B3FDC0B202284ED1BAF802100AA845F023
:1017B000CBFDC0B2022846D1DAE9011271E60AA8CF
:1017C000062145F0A1FDC0B202283CD1BAF80210B2
:1017D0000AA845F0B9FDC0B2022834D1BAF8041005
:1017E0000AA845F0B1FDC0B202282CD1BAF8061003
:1017F0000AA845F0A9FDC0B2022824D1DAE90212F4
:101800004FE60AA8022145F07FFDC0B202281AD196
:10181000BAF8021010E00AA8042145F075FDC0B224
:10182000022810D1BAF802100AA845F08DFDC0B206
:10183000022808D1BAF804100AA845F085FDC0B204
:10184000022800D10220022806D1504647F082FF2C
:101850004844CBF80800022015B049F04ABA0348C2
:101860000F21034A3DF0ADFCE0060700CC0F070056
:10187000EC0F0700F0B503AF4DF804BD84B004468B
:10188000D0E901300D46191A04290CD32268061D2F
:10189000084948F0E3FFCDE9020102A829460422E5
:1018A0002CF0BEFE08B1002001E00220A66049F045
:1018B00007BA00BFD896060080B56F4600210173B5
:1018C00001490131016080BDE80E012080B56F46FD
:1018D00045F2E812815010440021C17380BDD4D478
:1018E000E0B502AFDFF880C0044600254DF20820C5
:1018F00040F2011285422FD02B18654405F11806DD
:1019000056E8001F21B946E800210029F8D103E07C
:10191000BFF32F8F1D46EDE71448686205F12800DC
:101920002146FFF7D3FF204629463EF0D1FC002593
:10193000BFF35F8F54E8000F44E800510029F9D14C
:10194000BFF35F8F30B1C669C5614576416A88478C
:101950003046F7E720BFEBE705487A1E00902B21C1
:101960000448054B3EF05FF9E8220020B57D0200F7
:1019700040A5060029080700D8BF0600F0B503AF50
:101980002DE9000B94B00446F8680DF13C0849F0CD
:101990005BFD9DF83C00FF2803D040F6032020802B
:1019A0001DE0A7F14E0008F10401851C48F052FF2C
:1019B00002A82946861C48F01EFE0BAD314648F0B1
:1019C00049FF4AF044FA2078FF2808D04AF0B0FBDB
:1019D00004483EF07DFA49F0A6FC3EF0E1FB14B06D
:1019E00049F0C1B9A1000000F0B503AF2DE9000F27
:1019F000CDB0FE68D7F80880CDE91D2056F870AF4D
:101A0000D8F84400C346CDF8AB00C1465BF8410F9F
:101A1000D6F808E02A90D8F83D0012931691726823
:101A2000F568D6F810C07369B169F469CDF8CB00D8
:101A300059F83A0F2192CDF870E01B95CDF868C0A7
:101A4000199320911F94329032A88DE812045446C5
:101A50000DF1F80ACDE9032E624605952AA9CDE9D4
:101A60000610A6F13001504628F080FC22A89AE822
:101A70002E002EC0429811904398109044980F90D9
:101A800045980E90306A1890706A179008F14E00D1
:101A9000D6E90AA548F0BBFA20F07F40CDE90A0B51
:101AA000209800901F98CDE90104219803901C987C
:101AB000CDE908A5049005461B98CDF854B00590D3
:101AC0008346189806901798CDF84C90CDF8309032
:101AD0001494079026A822A91A9A199B9146984611
:101AE00028F068FB1D98102804D126A816992EF01E
:101AF000A4FA30B11E99FF20087040F603308880A8
:101B00005EE0D6E90C40D7F808A01D90B06B1890A5
:101B10000AF14800F66B48F07AFA20F07F400A900C
:101B200013980B9015980C90209804901F98189972
:101B3000CDE905041D98CDE90816CDE9005BCDE996
:101B4000029807902AA822A9149A219B28F032FB18
:101B5000DDE92C01DDE92A23CDE900013EAC204678
:101B600006F0C2F89DF8F850FF2D0AD0611C32AC87
:101B700048F068FE1E9E214649F088F83571FF2026
:101B80001DE00DF1C809211D09F1030548F062FEB1
:101B90002EAE294648F02FFD129C0DF1F808324672
:101BA000404621462CF054FE9DF8F850FF2D0AD0F7
:101BB0001E9E08F1010149F069F8FF20357130706F
:101BC0004DB048F099BF9AF8380002239AF84A10AD
:101BD0000DF1F8089AF85020022801F0030008BF20
:101BE000012302F0030180F0010081F001010843AC
:101BF0000F990091B0FA80F00E994009CDE90113D8
:101C00002146DDE91032039040462CF054FE9DF849
:101C10002161022E09D198E86E0048466EC01E9ED2
:101C200099E83E00301D3EC0A9E732AC3EA929220A
:101C300048F0AAFFBDF826012146ADF8300129225F
:101C4000DDF822014B903EAD48F0DCFF50462946BE
:101C50004AF03DFA4B981E99CAF82A00BDF83001A7
:101C6000AAF82E000A208AF829600870A8E7D4D4C0
:101C7000102B7DD1F0B503AF2DE9000F9DB0099079
:101C80008846F868137800F16006D2F80100D2F8AF
:101C90000540D2F8095043EA002C39692B0243EA87
:101CA0001463240244EA1060D47BB2F80D20C6E924
:101CB00000C042EA0442120242EA1562C6E9023258
:101CC00018A803F085F806F1300A189806F11003F9
:101CD000F66B1A9A08F07F041999DDF86CB0069239
:101CE00083E80708A4F140020791314608909AE87A
:101CF0002006504664F09CFDCDF8148080462846AE
:101D00004946224664F094FDC4F1400281465046A3
:101D10003146D7F80CA064F0FBFE0AF120010391D4
:101D20000699402CCDE901BA009138BF49EA000874
:101D30002948002C08BFA8464AF0BFF90AA8DDE9E7
:101D4000073228F09BFADDE90C01DDE90A23CDE931
:101D5000000118AC204605F003FF9DF86050FF2DF0
:101D60000CD0611C0FAC48F06DFD099E21461FE0B0
:101D7000FF21017040F6032181807047DDF8149047
:101D80000FA8C61C211D1022D7F8088048F041FF7B
:101D900014AD314648F05EFD18AC41462A46204657
:101DA0002CF056FD9DF86050FF2D09D0099E611C56
:101DB00048F06CFFFF20357130701DB048F09CBEBC
:101DC000099C5146B02204F1080064F07BFC062017
:101DD000C4F804902070F0E7C0FFFF7FF0B503AFB8
:101DE0002DE9000B94B00446F8680DF13C0849F069
:101DF0002BFB9DF83C00FF2803D040F603202080F9
:101E00001DE0A7F14E0008F10401851C48F022FDF9
:101E100002A82946861C48F0EEFB0BAD314648F07F
:101E200019FD4AF014F82078FF2808D04AF080F90C
:101E300004483EF04DF849F076FA3EF0B1F914B09E
:101E400048F091BFA0000000F0B503AF2DE9000FEE
:101E50009FB08246880701D411206BE0D56B934672
:101E600005F108030FCB49F07CFB11BF8DE80F0093
:101E70000020CDE90200CDE9000016AE69463046EB
:101E800005F062FF9DF85840FF2C3DD111A8311D8F
:101E900000F10308102249F004FB0AAE414648F065
:101EA000AAFB0DF15809594632464AF0ACF99DF8A3
:101EB0005840FF2C2FD12868C10740D06968000A1C
:101EC0000A0E8DF83E200A0A40EA0160ADF83C2077
:101ED0000E9016AE0EA9304605F080FF9DF85840D2
:101EE000FF2C11D1311D404648F040FF1BAE41464A
:101EF00048F081FB05A8594632462CF0A9FC9DF814
:101F00001440FF2CA8D00CE011AD711C48F0A8FDC6
:101F100005A8294602E005A809F10101013048F0B1
:101F200036FE05A90AF10500013148F030FEFF2018
:101F30008AF804408AF800001FB048F0DDBD05248F
:101F4000EFE7F0B503AF2DE9000F8BB0044602A810
:101F50000E460021924605F0D9FD9DF80800FF28A5
:101F60001DD09DF80B10E170BDF809109DF81B20E5
:101F7000DDE903C5A4F80110BDF81910059E9DF810
:101F80001830ADF81C108DF81E202374C4E901C56B
:101F9000E660A4F81110E274207048F04FBC9DF880
:101FA00018B0059DBDF81900ADF8040059469DF81C
:101FB0001B008DF806002846DDE9038926F09CF910
:101FC00002460B4606F1480011461A4648F0D8F87A
:101FD000C0B202281CD1BDF804005146ADF829005A
:101FE0009DF806008DF828B00995CDE907898DF890
:101FF0002B0002AD07AA28462CF02AFC9DF80860A9
:10200000FF2E10D0601C691C48F0C1FD2670C4E78B
:1020100005204946207040460BB0BDE8000FBDE8E2
:10202000F04048F083B8FF20B6E7D4D4F0B503AF52
:102030002DE9000F9FB00D46B968069314460B902A
:102040001AA802F0C5FE1A9804F170061C9A05F051
:102050007F0504F1900B1B991D9B0FC60892A5F1FB
:1020600040020A909BE8400E50460991594607935A
:1020700064F0DEFB8046304649462A4664F0D8FBD1
:10208000C5F1400281465046594664F041FD04F1D5
:102090002001402DCDE90241079901910899009155
:1020A00038BF49EA00082448002D08BFB0464AF06E
:1020B00004F80CA8DDE9093228F0E0F8DDE90E01AA
:1020C000DDE90C23CDE900011AAC204605F048FDFE
:1020D0009DF86850FF2D0BD0611C11AC48F0B2FB8D
:1020E0000B9E21461322701C64F0B8FB35701FE074
:1020F000DDF82C8011A8C51C211D48F0ABFB16AEE5
:10210000294648F078FA1AAC0699324620462CF057
:102110009FFB9DF86850FF2D07D008F10100611C5E
:1021200048F035FD88F8005002E0FF2088F80000F4
:102130001FB048F0E1BC00BFC0FFFF7FF0B503AFA8
:102140002DE9000FB5B016461D46CDE91210B04678
:10215000D6F83D000DF1A00C55F8702FCDF8A30076
:1021600058F83A0F289056F8410FD5F808906B6848
:10217000D5F80CA0D5F810E0D5F814B0AC69E96931
:102180002C90D6F8030014921593CDF86C90CDF8EE
:1021900068A0CDF864E0CDF860B017941691CDF842
:1021A000B3002CA88DE800460DF18009CDE9051C8F
:1021B000A5F1300107904846CDE903B428F0D6F8E0
:1021C0001CA899E81E0005F1300B1EC02498119040
:1021D0002598109026980F9027980E90F01D9BE858
:1021E000100AD5F83CA047F012FF20F07F40CDE95F
:1021F0000A08DDE91A10CDE908BA0C96CDE900010C
:10220000199802901898039017980490169805A9A9
:1022100081E8110228A81CA9DDE9142327F0CAFFD0
:10222000DDE928230DF18009DDE92A01CDE900016E
:10223000484605F059FD9DF88060FF2E0ED02CAC6D
:1022400009F1010148F0FEFA139D21461322681D91
:1022500064F004FBFF202E71287051E0DDF84C8003
:102260002CA8C61C09F1040148F0C5F931AC31466F
:1022700048F0ECFA0DF180091299224649F0C3FFAB
:102280009DF88040FF2C0BD008F1050009F10101F9
:1022900048F07DFCFF2088F8044088F800002FE01B
:1022A00005F1200B464608F11804ED6A9BE8000D85
:1022B00009F107001CA948F059FD0B20494606F812
:1022C000010B172248F0A5FC199804F12C0120629B
:1022D000189860621798A0621698E56381E8010D6E
:1022E00011982060109860600F98A0600E98E060D0
:1022F00014982061159860611B98A0611A98E0619C
:1023000035B048F0F9BBD4D4F0B503AF2DE9000FD8
:102310008BB004460220ADF80A0001208DF80800B9
:102320001E462C4888468DF80920039007A847F0E0
:10233000B3FE079DEDB3DDE9089BFB20D7F808A0AD
:10234000CDE904B00020069004A803A9FFF792FA93
:10235000C0B202281CD104A802A9FFF78BFAC0B2B0
:10236000022815D1DDE90530191A02290ED3049A85
:1023700019490091811C01912CF046F9CDE9070122
:1023800007A8314602222CF04BF9B0B1042004E03A
:10239000C0074FF0040018BF0D20012120706170AC
:1023A000284649460BB0BDE8000FBDE8F04047F0B5
:1023B000BDBE1620207048F041BA019851460A90DF
:1023C00007A880E8200A07AB2046424627F0B2FA69
:1023D000F1E700BF06000500D8960600DCB504AFA3
:1023E00010CBB831009440F049F9DCBD91F8673367
:1023F00001F51472012B12BF91F8561202F58C727E
:102400000121A0B1D0B502AF9388B0F81541126890
:102410006340D0F8114162401A4390F81731594097
:10242000C90718BF0020002A18BF0020D0BD002017
:102430007047D4D4F0B503AF2DE9000794B002ADD6
:1024400088468146482148F0B5FED8F80C40482619
:10245000334B2946482C38BF2646304648222CF0BC
:10246000E0F90546D8F808008A46214629F026FEFC
:102470008E4251D803462B4800901A4628465146B2
:10248000334647F0B2FE022C09D22D483DF020FD24
:1024900030463DF00FFD3DF083FE0A2019E09DF827
:1024A0000800441EE5B20E2D12D22046A6F1010A04
:1024B00026F092F980B282451BD109F1010002A9F0
:1024C000482264F0CBF9C9F84C6089F8004008E074
:1024D000072089F80500032089F80400FF2089F807
:1024E0000000D8E9000147F021FE14B0BDE8000764
:1024F000F0BD0D483DF0ECFC0C480D4CA0470D48DC
:10250000A0470D480D4950F8250051F825103BF023
:102510002BFC0020A047BEE70A4B0A4649F0A4FA6C
:102520002898060048980600960000001100000058
:102530008FFE0300C001000014150700DC14070023
:102540009700000038980600F0B503AF2DE9000FA2
:1025500095B01C788046FF2C15D045481D46164680
:102560008A4693F801B03DF0B3FC42483DF08FFC41
:10257000284645F04DFE032C18BF4FF0080B3DF0E8
:102580000FFE192C05D1FF2088F8000015B048F087
:10259000B3BAB6F858430FA847F07EFD0F9800284D
:1025A00047D0A7F143000094C51C0FA90C2248F0A6
:1025B00029FBA7F152002946C61C0C2248F029FB32
:1025C00012AD31460C2248F01DFB02A82946042218
:1025D00025F0A4FE9DF80800DDE903549DF818607D
:1025E000FF28DDF8149025D14846314625F084FEB9
:1025F000D9B380F800B0304625F077FECDE90490DD
:102600004046CDE9025402AD009A51462B4627F0D0
:1026100091F998F80000FF28B5D098E85E002846A8
:102620005EC015483DF054FC48F035FF3DF0B8FD64
:10263000ACE716209DF80B1088F80310BDF80910C0
:102640009DF81B20A8F80110BDF81910ADF8041072
:102650008DF8062088F81060C8E90154C8F80C907D
:10266000A8F8111088F813208EE7044A47F04DFFB0
:102670008F000000AC010000940000006898060084
:10268000F0B503AF2DE9000F95B00DF12C08CDE9A1
:10269000012008F1080000240E22039464F0DEF803
:1026A000A7F12A061C4D06F10109A7F1230A0DF135
:1026B0000C0B18E0D1F80920B1F80D10A9F804109E
:1026C000294607F82A0C3046C9F800203AF018FCD1
:1026D00040B150465946324627F01AFB17F8230CF2
:1026E000FF2807D107340E2C1EBF08EB0401087A1F
:1026F000FF28DFD103A9029C47F0ABFF019900201E
:1027000084F827000868D1F803102062C4F8231069
:1027100015B0BDE8000FF0BDCC980600F0B503AFD2
:102720004DF8048D92B00DF104080D460646114691
:10273000404644221C4664F00BF9B86829460090D4
:1027400030464246234600F005F812B05DF8048B8F
:10275000F0BDD4D4F0B503AF2DE9000FADF29C6D00
:102760000D46014605F1D0001690DCAE95F8C84044
:1027700006F1600B05F1780A99469046022CCDE9E6
:1027800018155DD11AAE2946C82249F020F9152046
:102790009DF8681028710E2028700C2998F8000008
:1027A00000F23483DCAA02F17004DFE811F00D00BE
:1027B000AA0163014B01F2003101FC012F039702D2
:1027C000E7022F03CC02CD00FF2804BF98F80C10BD
:1027D000002900F00D87411E0329C0F0D98200288E
:1027E00040F0108398F80100002801F03F800DF5BB
:1027F0009F68494640462CF054F99DF82165FF2E0C
:1028000001F03D87DCAC0DF59F61292248F0BCF951
:10281000DDF82205214688902922BDF82605ADF86D
:10282000240205F1D00064F019F88898C5F8FA0080
:10283000BDF8240285F8F960A5F8FE0000F023BF7A
:10284000CDF85C900DF50C792946C822484663F016
:1028500039FF15209DF830122871122028700F2999
:1028600098F8000000F28C851AAA02F16003DFE8F4
:1028700011F01000A103F6027204A50487056F038E
:10288000BF03FD0387058005090587058705D90274
:102890007A03FF2804BF98F80C200A2A40F07085BC
:1028A000D8F80800002802F04B8295F819010C2294
:1028B000D8F8041005F1D006032808BF0822DDF877
:1028C0005CB0DBF8383093F8700393F8713302444E
:1028D00085F81A210C7813B1012185F818110DF52E
:1028E0009F6858B195F81C0195F81D1140F0030040
:1028F00085F81C0141F0030185F81D111AA85946FD
:102900002CF021F9DDF860A09DF89100022807D095
:10291000600741F15E829DF89000022801F0598223
:10292000DCAC31465A462046FFF70BFB9DF870633E
:10293000FF2E01F0A58108F10500611C48F027F980
:102940008DF8FC6401F05BBAFF2804BF98F80C20F6
:10295000082A40F01A82D8F80820002A02F0EE81F6
:10296000D8F804000478DCAE022C80F09A870DF5CC
:102970009F68062A42F2D48150F8011FC5F8111150
:10298000818849F0CDF801D048F07EFE0D2002F09C
:102990006FB8FF2804BF98F80C10022900F01286C7
:1029A000042800F23682DFE810F07B06F301F30121
:1029B00005007B0605F118010DF59F650DF59F607B
:1029C000902200F19004284663F07CFE0DF55C7ABD
:1029D000711C112248F097FC0026D8F80400C4E9C5
:1029E0000006C4E904069DF87003C4E90266C00746
:1029F000C4E9066601F01584B8680AF10102CDE960
:102A00000095002102908CA81023FFF731F9C3E153
:102A1000FF2804BF98F80C20022A40F0B6810DF57B
:102A20009F6405F10801B02249F015F9D8E90123A6
:102A3000A046B8681B99CDE9009402908CA8FFF7D6
:102A400017F9ABE1042800F27987DFE810F02906D6
:102A500005005107A10129069DF86900002801F031
:102A6000118106F1180016991022CDE90010B11C51
:102A700000F0D9BEFF2804BF98F80C20032A40F0CC
:102A80008481CDF85C9005F108014CA8702263F0B8
:102A900019FE9AE8400A05F198012022DAF80CA004
:102AA000C6A863F0DBFE48F0BAFB40F02887D8F8F0
:102AB00004000DF59F6532464B46D0F8091015917C
:102AC000D0F805101491D0F80110139101781291EB
:102AD000C17B11911799B0F80D0010902846CDE9EF
:102AE00000BAFEF74BFF9DF8F884B8F1FF0F01F034
:102AF000DD818CA8691C47F095FF8DF8348200F0C9
:102B000002BFFF2804BF98F80C200B2A40F03D813B
:102B1000D8E901120DF54678404647F0E5F9D9F8B5
:102B20002C10BEAC47F095FDD9F830104CAE4022C9
:102B3000CA4648F06EF80DF59F6921464246334675
:102B4000484647F003F99DF8F804C00700F0DE8618
:102B50009DF8FB0409F106018DF806021222BDF86A
:102B6000F9049DF8FC449DF8FD64ADF804027CA8CE
:102B700063F074FE09F1180079A90DF59F650CC882
:102B80000CC1007808704CA9284605F035F89DF86E
:102B9000F804FF2801F0D7810A204FF003088DF8D0
:102BA000710301F0FBB9FF2804BF98F80C20032A39
:102BB00040F0EB8005F10801DCA848F01CFB48F070
:102BC0002EFB40F0AC86D8F804001B9DCDF85C903D
:102BD000D0F801100278DBE90E9842EA0122CBF826
:102BE00020201592D0F80930D0F805201C0211954C
:102BF00005F07F0544EA1264120242EA1161CBF843
:102C00002840CBF82410C5F140021491C17BB0F8E4
:102C10000D00139440EA01404146000240EA136A65
:102C20004846CBF82CA0DBE90C6463F071FF1290EE
:102C3000304621462A4663F0FBFDA5F140020446DA
:102C40004846414663F0F4FD1299402D38BF44EAEE
:102C50000100E649002D08BF3046DCAA61F35F00A1
:102C6000139B02F12001CDE9003ACDE90212049054
:102C7000BEA8DDE9143227F001FBDBE900ACDDE999
:102C8000BE648CEA0401DBE90289DDE9C03589EA2A
:102C9000050008438AEA060288EA03011143084353
:102CA00041F00280DBE904230DF59F64DBE90601B6
:102CB000CDE90001204604F079FF9DF8F864FF2E6D
:102CC00001F0B183611C4CAC47F0BCFD8CA82146DF
:102CD00047F0A8FE8DF8346200F015BEFF2804BF4F
:102CE00098F80C20032A50D105F10801DCA848F01F
:102CF00082FA48F094FA40F01A86D8F8040004F1F9
:102D0000100548F01CF80EC5B968E061204602F0D5
:102D10005FF8D4E90201D4E900230DF59F64CDE901
:102D2000000149462046FEF729FE9DF8F864FF2E73
:102D300001F044818CA8611C47F074FE8DF8346268
:102D4000FF2001F076BAFF2804BF98F80C20072A6C
:102D50001BD148F064FA40F0128695F8F900DCAE19
:102D6000022808D0D8F804000AF1680447F0E7FF09
:102D70000EC4CAF874000C2000F006BEFF2804BF81
:102D800098F80C200C2A00F04785421E032A36D200
:102D90008CA81AA949F050F90DF59F68DCAE9DF892
:102DA0003002FF2800F07F840DF50C7A0DF59F604E
:102DB000C822514663F086FC9DF8F8040E2800F006
:102DC0007D84199D0D2840F09C84C84695F8F990A3
:102DD000B9F1020F00F0958495F81A0100F0030094
:102DE000012802BF95F8200100F00300012800F03F
:102DF000BE8495F8F8E04FF0020900F0E5BC002829
:102E000000F03A84042804D100F04ABCFF2840F0C6
:102E1000298498F80C00042800F0C4830D28B7D04A
:102E200000F03EBCFF2804BF98F80C20072A40F0B1
:102E3000A78248F0F4F940F03686DDF85CB095F8EA
:102E4000F900022808D0D8F804000AF1680447F015
:102E500076FF0EC4CAF874000F2000F026BEFF28CB
:102E600004BF98F80C200B2A40F08A82BEAE09F10C
:102E7000040120229A4647F0CCFE05F1240B0DF503
:102E8000467940224846594663F0E8FCD8E90112E9
:102E90004CAC204647F028F80DF55C7831462246C8
:102EA0004B46404646F052FF9DF87003C00700F0C5
:102EB000FF859DF8730308F106018DF8AA00122220
:102EC000BDF87103ADF8A800BDF874431AAE06F161
:102ED000450063F0C3FC06F1570008F11801092210
:102EE00063F0BCFC06F120004CA947F04AFE3046D6
:102EF000594647F046FE50465021ADF8AB4063F0CE
:102F00008AFB95F80801811E38BF0221DDF85CB00C
:102F1000C9B2022901F0EC80DDF860A0032941F07C
:102F20000B810F200DF55C788DF8700348F0EDFAF9
:102F3000D6AE48F0ADFA9DF85843FF2C41F06083BF
:102F400008F107001AA947F077FF092001F0BBBB81
:102F500098F80C10FF2808BF022900F0EA83FF2828
:102F600000F012824AE2FF2804BF98F80C20082AD9
:102F700040F00682D8F80820002A01F0E386D8F84D
:102F80000400DDF85CB00478022C80F0D0850DF5EB
:102F90009F68062A41F2C68650F8011FC5F8111134
:102FA0008188DDF860A048F0BBFD00F0DA8248F0CF
:102FB0006BFBD6E2FF2840F0E08298F80C100A295B
:102FC00000F07E85012940F0DF81D8E90112DCA8FC
:102FD00047F0E6F89DF87003022840F082860A2048
:102FE000DDE917BA0DF59F6801F058B9C0FFFF7F02
:102FF000FF2804BF98F80C20022A40F0C18105F197
:103000000801DCA8602263F05DFB9AE8500605F138
:1030100088011AA8302263F021FC48F000F940F042
:103020005885D8F804000DF598788D9922461591A9
:103030003346016814914168139181681291179980
:10304000C06811904046CDE9009AFEF7C7FE9DF892
:1030500030B1BBF1FF0F01F021800DF59F6249F007
:103060003EF847F094FD8DF8FCB4F6E1FF2804BF6C
:1030700098F80C20032A40F0838105F10801DCA8B0
:1030800048F0B9F848F0CBF840F02C858D985D46B3
:10309000DBF830A0DBF8341000F07F04DBF838B048
:1030A000A4F14002D5F83C9014911390584649463B
:1030B000D8F80460CDF854A063F0BAFB14998046A8
:1030C0005046224663F0B4FBC4F1400282465846A3
:1030D000494663F01DFDF368D6F800907268D6F893
:1030E00008B0DCA9039120310291402C1493CDE962
:1030F00000B338BF4AEA00081598002C08BF804684
:10310000DA4848F0DAFF90461AA84A46434627F0C4
:10311000B5F8D5E902E3DDE91A42D5E900C1DDE9F8
:103120001C605140584084EA0C02084386EA0E01B4
:103130001143084340F0E08514981399C5E90898B5
:10314000C5F828B01329E862199D41F0AC800DF54F
:103150009F60DCAB8CE0FF2804BF98F80C20022AAB
:1031600040F00E8105F108011AA8B0221C4663F058
:10317000A9FA48F054F840F07383D8F8040047F0F7
:10318000DEFD84E80E00B968E06004F1100001F093
:103190001FFED4E90601D4E90423CDE90001DCAC2B
:1031A00047F04AFC9DF87063FF2E40F06186E01DF9
:1031B0001AA947F041FE042000F06ABEFF2804BFB0
:1031C00098F80C20032A40F0DB800DF1680B05F124
:1031D0000801B0221C46584663F074FA48F01FF804
:1031E00040F03E83D8F804000BF120028168D0F84B
:1031F0000CA0D0F80490D0F800800020CDE9001A8F
:10320000CDE914214B46CDE9022B42460490C6A8D5
:1032100027F034F8D4E902E3DDE9C652D4E900C16D
:10322000DDE9C860514058408CEA050208438EEA47
:1032300006011143084340F0708504F11003159D09
:10324000C4E908890FCBC4E90A5A149CCDF800B030
:1032500001AE86E81003CDE9045A27F04FF8199D16
:1032600095F80811022941F03C800DF59F601AABDA
:10327000DDF85CB0169A5946FEF760FFDDF860A0F5
:1032800000F02CBCFF2804BF98F80C200C2A77D142
:1032900005F10801DCA8502206F1100463F012FACF
:1032A000D8E9010104F1280A0D90206912906069A3
:1032B0001190A0691090E0690F90206A1390606AE5
:1032C0001490606B0E9005F58F709AE800071591C9
:1032D000D4E90E6B46F09BFED5F8142120F07F4018
:1032E000D5F81111CDF833214C91D5F80D21D5F831
:1032F0000A11CDF86B201A91CDE9086B0A904CA801
:103300000B901AAD129802901198039010980490A7
:103310000F98CDE9050A0E980C95CDE90089079024
:10332000D6A8DCA9DDE9132326F044FF1598102860
:1033300006D1D6A90D982CF080FE002800F0F78465
:103340004FF00B080326199DDDE917BA0DF59F60B4
:10335000BEA90630122263F081FAFF208DF8FD84A9
:103360008DF8FC64DCAE8DF8F8040DF59F6801F073
:10337000B7B9FF2804BF98F80C20032A00F059823F
:10338000FF2809D198F80C10042922D048F045FEF6
:103390000D2900F0F780FEE00539082900F2ED80E4
:1033A000DFE801F0052CEBEB80EBEBD0E8000DF54E
:1033B0009F68012800F09382DDF85CB0022840F09D
:1033C000EA8040F60340DDF860A0ADF8FC0401F0AF
:1033D00089B9DDF85CB0D8F80800002801F0AA84AB
:1033E00048F00AFE8DF8FC14411E102928BF082061
:1033F0008DF8FD04DDF860A001F074B9032840F0F9
:10340000BC800DF55C7A05F118019022504663F0FE
:1034100059F90020D8F804100DF16808179BCBE982
:103420000C105246CBE910100021CBE90E00CBE97D
:103430001200B868009040469DF83162FEF7F6FD34
:103440009DF86840FF2C00F051830DF59F6248F015
:1034500046FE47F09CFB8DF8FC44FF20DDF860A0A1
:103460008DF8F804DDF85CB001F037B9C0FFFF7FDC
:1034700068C90600990000009D000000A40000003B
:103480009B0000008D000000950000004D8A0400A4
:103490008C0B0700A6000000900000009A000000BE
:1034A0008B000000042868D10DF1680905F10801BE
:1034B000B022484663F006F9D8F8010008F121046B
:1034C00014902022D8F8050021461590D8F809005C
:1034D0001290D8F80D0013904CAE47F09AFB5FF8AD
:1034E000701020462CF0A9FD40B95FF87C1006F161
:1034F00010002CF0A2FD002800F087844946DDF87A
:103500003C91DDE94DA82031DDF830B10020CDE956
:103510000089CDE9021153460490DCAC5A4620469E
:1035200026F0ACFE06F1100120462CF086FD0028A6
:1035300000F06F84FF208DF8F80440F20340ADF8EE
:10354000FC04C9E2C8B998F80100002800F04F83D4
:10355000DDE917BA0DF59F6895F82301800700F1A2
:10356000BF8595F822110DF59F605A46FEF76CFC59
:1035700001F0B4B8002800F0AB8148F04EFD0138EE
:10358000022808D20DF59F608CA948F055FDDDF8A2
:1035900060A001F0A3B81520DDF860A08DF8FC0450
:1035A00001F0A0B8D8F80800002801F0C58348F061
:1035B00023FD8DF83412411E102928BF08208DF8F4
:1035C000350270E047F02BFE40F05981D8F8041026
:1035D0008CACA01C47F0CAFB0DF59F6805F11801E3
:1035E00008F1060047F028FC47F01AFC04204AE1E5
:1035F0000DF59F604946D8E901A917912BF0A3FA70
:103600009DF8210502281ED00D200DF59F688DF82C
:10361000F8040DF55C7B17984346816A826B584627
:103620002BF0BCF99DF87003FF280BD09BE85E00DF
:1036300040465EC05FF8C4013CF04AFC47F073FEB0
:103640003CF0AEFD199D0DF59F6051464A4646F08F
:10365000A7FD9DF8F844022C40F01A81DDF85C903B
:103660000A2089E2072908BF042800F09081421E41
:10367000032AFFF48DAB98B90A2911D198F80100FB
:10368000002800F0F38095F81D01800700F16182A9
:1036900095F82201DCAE80074CBF0B200D2073E1B2
:1036A000152048F0B5FC8CA808F10401043090E81E
:1036B0007C000E207CC1DCAE8DF8F804301D08F1D2
:1036C000040130F0B1FE0C20D9F828108DF87003F9
:1036D0003346D9F838204CAC20462BF05FF948F03F
:1036E000D5FA0DD0304694E86E006EC0DCAE5FF8BF
:1036F00078023CF0EDFB304644F07CFD3CF050FDA0
:10370000199D0DF59F61284648F096FC8CAC294622
:10371000204645F002FAFF208DF870039DF8300234
:10372000FE2818BF2646189D96E81F001FC501F009
:1037300017B847F074FD40F0C480D8F804100DF5B8
:103740009F6808F1020047F011FBB01D05F1180158
:1037500047F072FB012031468DF8F90408F11200A0
:10376000B62263F07BF8DDF85CB00620ADE04CAE2D
:10377000169A414630462BF03AF948F087FA0DD0B8
:103780000DF55C7B96E83E0058463EC05FF814039A
:1037900048F0F6FB48F032FA3CF002FD169805F1CD
:1037A000E00EAC4654460168179141681491816857
:1037B0001591D0F80CB09EE86F006FC4DDE91421BC
:1037C00017989CF8F8E0DCAECDE9E01B06F1180193
:1037D000CDE9DE028DF871E39AE87D007DC10B2012
:1037E000DCAE8DF8A1938DF8A0E333468DF870031D
:1037F000D8F82810D8F838204CAC20462BF0CEF85A
:1038000048F044FA3FF47CAF304694E86E006EC056
:10381000DCAE5FF894036CE706F10800169BD8E96C
:103820000112CDE900308CA84B46FEF7DDF8FFF71A
:10383000B3BA05F10801DCA847F0DDFC47F0EFFC66
:103840000ED1D8F8040047F07AFAFF90FCA80EC019
:10385000DCAB0DF59F60DDF85CB048F049FA72E131
:10386000FF20DDE917BA47F044FE6EE15FF8EC0394
:103870003CF03AFB48F088F940F6037053E005202D
:1038800048F0C6FBFF20DCAE8DF83002FFF789BAA6
:103890009DF8FA64DDF85C90300700F16681032042
:1038A0006AE15FF81C043CF013FB20463AF0F8FB99
:1038B0003CF076FC05200DF59F688DF8340201F090
:1038C000D6B848F0ECFB0DF59F68DDF860A098E2F3
:1038D00098F80100002800F098811120F1E0DDF84F
:1038E0005CB009F108030DF59F6048F001FA4EE65F
:1038F00040F603400DF59F68ADF83402D3E640F67C
:103900000320ADF8340248F03FF918E340F60330E5
:10391000ADF8340248F038F9D146FFF73DBA48F027
:1039200033F940F60320ADF83402FFF735BA48F01A
:103930002BF905208DF83402FFF72EBA9DF86900A7
:1039400000287FF466AA98F80C000C287FF461AA7E
:1039500047F065FC40F0DA85D8F804108CACA01C68
:1039600047F004FA0DF59F6805F1180108F106000B
:1039700047F062FA47F054FA032000F0CBBD05206F
:103980008DF83402FF20DCAE8DF8300212E3CDF862
:103990005C9005F108014CA847F02DFC08F12106C8
:1039A0000DF546792022484648F04FFC5FF8401557
:1039B000D8F80D0015903046D8F80140D8F805B079
:1039C000D8F809A095F81E5145F038F840B95FF8CD
:1039D000601509F1100045F031F8002800F02D8441
:1039E000CDE913BA0DF55C7ACDE91154C6AB0DF5EE
:1039F0003E780FCB109048F07BF80F914146BE9077
:103A000050460E920D933AF009F80DF59F6400268A
:103A100051464FF4B8722046CDF8DC64CDF8D86436
:103A2000CDF8D464CDF8D064CDF86866CDF86C6676
:103A3000CDF87066CDF8746662F08AFF0DF55C7A99
:103A400021464FF4C072504662F082FF8DF8F06458
:103A50004CA800F120045FF8CC9550462022214666
:103A6000C847504621462022C8470DF59F6B504657
:103A700001228DF8F8645946C847584651464FF41C
:103A8000C27262F065FF9DF878A60BF5B8715FF819
:103A90000036102250462BF081F8002970D000F833
:103AA000016B0139F9E748F0FAFA8DF8F8044AE0B9
:103AB00040F60330ADF8FC04FF208DF8F8040BE06D
:103AC0000120DDF860A048F0A8FA8DF8F80400F0B5
:103AD0004BBEFF2047F00DFDDDE917BA0DF59F68DD
:103AE00000F0FBBD05200DF59F680AE1DDF860A040
:103AF000F00700F0618109F1020047F020F98BE83E
:103B00000E00CBF80C00DBE90601DBE90423CDE96C
:103B100000011AAC46F090FF9DF868600DF59F68B3
:103B2000FF2E00F0A18408F10500611CD3E35FF8CB
:103B30009C063CF0CDF920463AF0B2FA3CF030FB5E
:103B4000FF2047F0D6FCDDF860A00DF59F6800F07F
:103B5000C5BDD9F83CA00AF108030FCB47F001FD21
:103B600000F0F18282AC0FC4F2E29DF8FB84B8F160
:103B7000100F80F0328206208DF83502032090E588
:103B8000A7F13C060024584647F83C4C31468DF8D6
:103B9000784647E90E4447F8304C39F0AAF9A7F1C6
:103BA0002C093146484630F0CBFC0BF5B076102C92
:103BB0000AD00BEB0400013490F8601190F87021EA
:103BC000514080F86011F2E7BAF1100F40F02E82F8
:103BD000DDF850A00DF59F68DDE9124B002010289C
:103BE00000F03D8219F8001047F031FAF7E75FF86E
:103BF00058073CF079F940F60370DDE917BAADF8E3
:103C0000FC040DF59F6800F06DBD0D200DF55C788E
:103C10008DF870030DF1680917984346816A826B2D
:103C200048462AF0BBFE9DF86800FF280CD099E8B2
:103C30006E0040466EC0DCAE5FF8A00748F0A0F909
:103C400047F071FB3CF0ACFADDF860A0E00700F053
:103C50004982DCACDDE9161B5A462046FEF771F9B5
:103C60009DF870630DF59F68FF2E00F0588408F1F1
:103C70000500611C46F08BFF8DF8FC6400F0B0BFBE
:103C80000120BDE00DF59F6805F1180108F107005E
:103C900047F0D2F8092041468DF830028CA847F051
:103CA00017F8DCAEFFF780B85FF80C089B46159557
:103CB000354666463CF00CF95046314642464B4686
:103CC00044F0CAF9159B284621465A4644F0C4F9E7
:103CD0003CF066FA47F058FF40F20340ADF834027A
:103CE0002DE19DF872130DF59F68DDE917BA0A07FB
:103CF00000F1CE820320D1E2199D0DF59F68DCAE64
:103D0000032004218DF8FC04FF208DF8FD148DF8AC
:103D1000F804DDE917BA00F0E1BC199D0DF59F68C4
:103D2000DDE917BA40F60340ADF8FC04F4E2DDF833
:103D300064B0AC4602269BF81A119BF820519BF800
:103D4000080101F0030105F0030581F001010228DB
:103D500085F0010508BF01262943B1FA81F1D4E9B4
:103D600000234909D4E902040391654617998DE8B7
:103D7000510060462AF09FFD0DF5467AA91C1222DB
:103D80009DF8686050469DF869809DF8914062F00A
:103D900065FD022C40F0C582BEA8BAE82E00FF2EB9
:103DA0002EC05D46BAF80010DDF860A0DDF85CB00A
:103DB00001807FF4CBAAF1E20DF59F68DCA908F140
:103DC000080047F018FA0020CDF8FC040720FFF7A0
:103DD00047BBDCAC594620462AF063FE9DF8996348
:103DE000FF2E40F0DE820DF5987C94E86E00604670
:103DF0006EC008F104009CE83E003EC0199DFF2003
:103E0000DCAE8DF8F80400F06BBCDDE94CBADDE9FE
:103E10004E891AA8129E00F1700495F81E01002820
:103E200008BF0646159908BF0146149A08BF024606
:103E3000139B08BF0346C4E90821B968C4E90A63B3
:103E4000C4E90CBAC4E90E89DCA800F0C1FFDDE9C1
:103E5000DE01DDE9DC23C4E90023C4E90201CDE988
:103E60000001DCAC46F0E8FD9DF87063FF2E0AD03F
:103E70000DF59F68611C46F030FDFF208DF8FC6455
:103E80008DF8F8040EE0E01D1AA946F0D5FF0A20CF
:103E90000DF59F688DF8F80408F101002146B7225E
:103EA00062F0DCFCDDF860A000F017BCDDE910106A
:103EB000702241EA00484CA9DCA862F003FC149A85
:103EC0001399100284E8400A40EA1165129840EA0A
:103ED000012315991393080240EA12624FEA082061
:103EE00040EA11681492C4E905522022C4E903A3F0
:103EF000C4F81C80DCAC04F19000C6A962F0AEFCF2
:103F000004F12000149A8DE8510A2946434613987B
:103F1000CDF814A026F0F2F9199991F808110229A8
:103F200040F063820DF59F64DCA9E01D46F084FF3C
:103F3000092021468DF830028CA846F0C9FEDDF834
:103F40005C90FEF729BF1794D6A800F10208291D3E
:103F5000102247F0A6FA82A84146841C46F076FC5F
:103F60000DF508782146102247F09BFA0DF55C7993
:103F70005146424648F047F99DF87083B8F1FF0F6B
:103F800000F07C8299E85E0028465EC0DFF8000EF3
:103F90003BF09EFF47F07FFA3CF002F98CA8DCAEC4
:103FA0000530711C46F0F3FDFF208DF834828DF84A
:103FB0003002D1460DF59F68FEF7F1BEE01DDCA989
:103FC00046F03AFF092021468DF830028CA80130D6
:103FD000B72262F043FCFEF7DFBEBDF8FCA49DF8FB
:103FE000F9945FEA8A7042BF95F81C0140F0020024
:103FF00085F81C015FEA8A5040F17A841798C36BF8
:10400000D3E902E1D3E9042341EA030C4EEA0200BA
:1040100050EA0C0000F05684CDF8F8E4CDF8FC141A
:10402000CDF80025CDF8043500F055BC16F80A008F
:10403000A7F12C0180F0800006F80A00404630F01D
:104040007FFADDF850A00020DDE9124B102804D0E3
:1040500018F8001046F0FBFFF8E70DF59F680DF526
:104060009F60314638F045FF0FCE47F041FDBE90CE
:10407000C6A800F11001BEA844F0E0FCDCAE119D22
:10408000DDE90F9C0028DDE90D3E00F0DD8047F002
:104090007BFD40F20340ADF83402F5E00DF59F687A
:1040A000DCA908F10800602208F1680562F00AFB4B
:1040B000149805F10C01286030221398686012985A
:1040C000A8601198199D81E8510608F188001AA985
:1040D00062F0C4FB1598CDF8FC040820FFF7BEB9C8
:1040E0000E20F2E4DFF8840C3BF0FEFE1020EAE440
:1040F000DDF860A0002800F016820A200DF55C783B
:104100008DF8700347F001FAD6AE47F0C1F99DF87B
:104110005843FF2C40F0748208F106001AA946F0BB
:104120008BFE0DF59F620620ADF8F804414602F1C2
:1041300012009046B622CEE208F107001AA946F016
:104140007BFE0320BFE20020CDE98400CDE98200A0
:104150000DF59F6882A9404603F0F6FD9DF8F844EE
:10416000FF2C52D14CA84E4600F1030908F104017E
:10417000102247F0C5F8D6AC494646F067FB0DF56E
:104180009F6831462246179640462AF061FB9DF80B
:10419000F844FF2C40F02381DAF80000C10700F05A
:1041A0006C82DAF80410000A0DF59F660A0E8DF88D
:1041B000F6210A0A40EA01607C90ADF8F4217CA95E
:1041C000304603F00BFE9DF8F844FF2C40F0398494
:1041D000311D484646F0CAFDBEAE494646F00BFAD0
:1041E000DDF85C900DF59F683246404649462AF05E
:1041F0002FFB9DF8F844FF2C3FF44AAA08F1010177
:10420000C6A846F0C4FC00F027BC4CAD08F1010183
:1042100046F026FCC6A84ECD4EC047F035FE00F055
:104220001BBC8CA80DF59F61083046F0E4FF8D960D
:1042300005208DF83002FEF7AFBDDDE9C6C90DF5EA
:104240009F68DDE9C8E3DCAE4CA8903015F00101B1
:1042500002BF8A468B460C46159A08BF0A46C0E93B
:1042600002A2C0E9004BB022C0E904C9C0E906E3DC
:1042700008F107004CA962F0F1FA082041468DF8D8
:1042800030028CA846F024FDDDF85C90FEF787BD77
:104290009DF873230F2A00F2BC8106208DF8FD04DF
:1042A0000320FFF77BB9B8684C1C0090DCAADDF84E
:1042B0005CB00DF16808214640465B46FDF7B6FE4E
:1042C0009DF86860DDF860A0FF2E00F0E9810DF533
:1042D0009F6247F004FF46F05AFC8DF8FC64FF2013
:1042E000E8E1DDF85CB009218DF870130DF55C781C
:1042F000DD9047F00AF94CAE47F0CAF89DF830411E
:10430000DDF860A0FF2C00F0D8810DF59F68711CCE
:1043100046F0E3FA8DF8FC44FF20DCAE8DF8F8049B
:10432000DCE105F1140C15940DF598792946BCE8EB
:104330003D00CE46AEE83D009CF800008EF800003F
:10434000BDF89600ADF80C02DDF8920082900846A8
:10435000BAE83C003CC0BAF8002002800BF1D20061
:1043600012228BF8D1808BF8D06062F077FAB9E82E
:104370003E000BF1E4003EC05D4615998BF8F91044
:1043800099F8001001708298CBF8FA00BDF80C0281
:10439000ABF8FE00DDF860A0DDF85CB00C20FEF7A5
:1043A000E1BF4CA8DCA947F092FEDDF89A03022E8B
:1043B000C690BDF89E03ADF81C0300F0B8844CA96C
:1043C00005F1D00047F083FEC698C5F8FA00BDF8A5
:1043D0001C03A5F8FE000D2085F8F96010E508F132
:1043E0000101C6A846F0D3FB34E3DDF85C90092157
:1043F0008DF8F8140DF59F68CDF8FC04D9F8281055
:104400004346D9F83820BEAE47F042F89DF8F8424E
:10441000FF2C00F034828CA8711C46F003FB8DF851
:104420003442FEF78DBC4CA8211DC61C46F0E3F8B3
:10443000C6AC314646F00AFADDF85C900DF59F6691
:104440002246304649462AF003FA9DF8F8440DF515
:104450009F68FF2C00F021828CA8711C46F0E2FAC4
:10446000FF208DF83442CBE308F10800DCA946F0C8
:10447000C2FE0020CDF8FC0408201BE14CA94846F0
:1044800046F07FFB09F12004C6A946F0E2F8179830
:1044900012228DF8B303BDF80402ADF8B0039DF805
:1044A00006028DF8B20309F145008DF8B4637CA9CA
:1044B00062F0D4F909F1570079A9092262F0CEF926
:1044C0005846502162F0A7F8199890F80801023870
:1044D00038BF0220C0B2022800F0CE82032840F08C
:1044E000FF820F200DF59F6847F0B3F8D6AE46F077
:1044F000CFFF9DF85853FF2D40F0748308F107005B
:10450000DCA946F099FC072041465DE5052047F00F
:104510007FFDFF208DF83002DCAEFEF742BCDCAE42
:104520000120FFF7D2BA1AA8D7F80880903015906A
:1045300010301490E14840F2FF1B4FF0FF398246E3
:10454000404638F006FB044640460E4638F001FB74
:10455000DB4D0023A0FB0502E1FB0523A4FB054185
:10456000A6FB05566D184FF00001464152F10002BE
:1045700053F1000024EA0B0341F10001BAEB0303FD
:1045800079EB050379EB060379EB0202D8D3149B90
:104590000022DDF85CB083E80700DA60159BDD904F
:1045A00083E807000821DA608DF87013DBF8281023
:1045B000DBF83820D6AEDCAB46F06AFF9DF85843F6
:1045C000DDF860A0FF2C40F03582B8680021009033
:1045D000DCAE1AAA5B4630464FF00008FDF726FD18
:1045E0009DF87043199DFF2C0AD10DF59F641AA9FF
:1045F00004F1080046F0FFFDCDF8FC84A04658E029
:104600000DF59F68711C46F068F9FF208DF8FC4499
:1046100050E085F8201105F58F7185F81E0105F52C
:104620008C70BDF874339DF87143A5F8223185F87C
:10463000212185F81F4145F0F5FC85F8091120225C
:10464000DBF82C1085F808014CA862F007F9DBF8BC
:104650003010DCAE402246F0DCFA0DF1680831463D
:10466000404603F0C9FA9DF86800FF2800F08482F4
:104670000A2003248DF81903A8E20524EAE1DCAD41
:1046800098E85E0028465EC029468CA800F1040C1C
:1046900091E85D008CE85D002E46FF20FFF774B9BD
:1046A0000DF59F68DCA908F1080046F0A4FDCDF8DF
:1046B000FC4407208DF8F8040FE008F107001AA960
:1046C00046F0BAFB05200DF59F628DF8F804501CEA
:1046D00041469046B72262F0C1F8DCAE9DF8F8047E
:1046E000FF2841D108F10400311D90E87C00122020
:1046F0007CC1DCAE199D8DF8700308F10400311DFA
:104700002FF092FE0C20DBF828108DF8F8044346B9
:10471000DBF838204CAC20462AF040F947F0B6FAD6
:1047200009D047F005FDDFF85C0647F029FC46F0AC
:10473000FAFD3BF035FDDCA9284647F07DFC1AACBC
:104740002946204644F0FAF9FF208DF8F8049DF838
:104750006800FE2818BFA04698E81F008AE81F00DE
:104760000DF29C6D46F0C8B90DF59F69DCA8C82212
:10477000494661F0A7FF9DF870031228BDD01128AB
:10478000D9D195F8F910022904D1DFF8F0053BF0F2
:10479000ABFBD0E795F81A0100F00300012802BF37
:1047A00095F8200100F00300012806D095F8F8E004
:1047B0000DF1680B4FF0020A30E015910DF5987875
:1047C000DDE91661404632462AF011F947F05EFAFB
:1047D0000CD098E83E0048463EC0DFF8980547F008
:1047E000CFFB484643F006FD3BF0DAFC306805F1AC
:1047F000E00E14900DF1680B7068A84613905C46AB
:10480000D6E902AC9EE86F006FC4514698F8F8E014
:104810000DF59F68139A1498DDF854A0CDF80CC5D7
:1048200009F1180CCDF80425CDF800058DF8F9E450
:10483000CDF808159BE87B008CE87B000B204B46ED
:104840008DF8F80417988DF829A58DF828E5816A68
:10485000826B4CAE46F01CFE47F018FA0CD096E87E
:104860003E0048463EC0DFF810053BF031FB4846AD
:1048700043F0C0FC3BF094FCDDE918A55BE708F1D0
:104880000600DCA946F0D8FA0320ADF830028CA867
:1048900012304146B622FFF79CBB119C132C40F00E
:1048A000A781F01DDCA946F0C7FA092031468DF832
:1048B00030028CA846F00CFAFEF770BAFFC5FCFF78
:1048C00040420F000020CDF80405CDF80005CDF8DA
:1048D000FC04CDF8F804DFF898140DF59F602BF078
:1048E000ACFB28B195F81D0140F0020085F81D01D0
:1048F00095F819010C21A5F822A105F58C7B85F806
:104900002181032885F8206185F81F9185F81E41D3
:1049100008BF0821DDF85C90D9F8380090F87023C2
:1049200090F87133881885F81A0105F58F7013B166
:1049300001218BF80010594645F074FB199A82F852
:1049400008010DF59F6082F80911012103F0DEF8DE
:104950009DF8F8A4BAF1FF0F43D19DF80865DDF882
:104960000445BDF80905ADF8180331469DF80B055F
:104970008DF81A032046DDF8FC84DDF8009523F05D
:10498000BBFC46F078FD58461A4645F0F9FBC0B22C
:10499000022848D1CDF8FC940DF55C79CDF8F88467
:1049A0000DF59F68BDF8180317994246ADF8050547
:1049B0009DF81A038DF8070548468DF80465CDF873
:1049C000004529F045FF9DF870A3BAF1FF0F6DD1A6
:1049D000DDF85C900DF59F6801208DF83002FFF73F
:1049E00060B99DF808259DF8FB048DF88023DDF85B
:1049F00004258DF87303BDF8F904DF92DDF8002576
:104A00009DF80B15ADF87103BDF80905DE92DDF8D0
:104A1000FC24ADF830018DF83211DD928DF883134E
:104A2000ADF881034FE04046494645F07FFB4FF02B
:104A3000050A46E00DF59F68711C45F04EFF199D73
:104A4000E3E54CAD711C46F00BF8C6A84ECD4EC048
:104A500047F01AFADDF85C90DCAE8DF834428CA891
:104A6000C6A9053013220DF59F6861F0F7FEFF20FF
:104A70008DF83002FEF793B9199890F809010028D3
:104A800000F0CE800A200DF59F6846F0E2FDD6AE1C
:104A900046F0FEFC9DF85853FF2D40F0A38008F12E
:104AA0000600DCA946F0C8F90420EEE699E85E00AD
:104AB00040465EC0BA483BF00BFA46F034FC3BF08F
:104AC0006FFBDDF85C90DCA98CA805300131132266
:104AD0000DF59F6861F0C2FE8DF834A2FEF7E3BDCC
:104AE000B9680BF1100000F073F9DBE9060100254D
:104AF000DBE904238DE803020DF59F60CDE9034552
:104B000025F0BCFBDDF804150DF59F68DDF8F824F1
:104B1000DDF8FC34DDF80005CBE90201CDE9000148
:104B20004046CBE9002303F01BF89DF8F854FF2D15
:104B30006AD182A808F10401C61C45F05CFD88AC6E
:104B4000314645F083FE0DF556795146224647F031
:104B50005AFB9DF85853FF2D40F0808008F1070064
:104B6000DCA946F069F9022041468DF830028CA894
:104B700046F0AEF8FEF7D0BEBEA808F10401861CD0
:104B800045F039FDD6A83146841C45F05FFE0DF591
:104B90000279214610225E4646F0B2FB0DF5467BB7
:104BA00031464A46584629F053FE9DF81843FF2CDB
:104BB0003DD09BE86E0040466EC069483BF088F9E6
:104BC00046F0B1FB3BF0ECFADDF85CB0C6A90DF5A0
:104BD0009F6808F10500013145F0D9FF8DF8FC44CC
:104BE000DCAE7FE58CA8711C053045F0D0FF46E0B7
:104BF0008CA8DCA9083046F0FEFA601C8D900520D8
:104C00008DF83002FEF7CAB882AE08F10101132216
:104C100045F0FFFFD6AC3146601C45F0B8FF29E0F7
:104C2000DAF80000D146A0B3D9F804104EE008F13C
:104C300003004CA945F0A5FF0DF59F64DCA904F124
:104C4000240046F01CFC022041468DF8F804601C4C
:104C50002322A04661F002FEFEF704BC99E85E0044
:104C600040465EC04D483BF033F946F05CFB3BF0FC
:104C700097FAD6AC8CA8611C45F0D4FED146FF2033
:104C8000DCAE0DF59F688DF830028DF83452FEF7DA
:104C900086B8BD68314B404CD5F8000140280BD395
:104CA0002846002126461C4624F034F9D5F8000198
:104CB00040284AD223463446421C55F82000C5F805
:104CC0000021A0FB0301A0421046E7D80BF14000F1
:104CD0000BF130020026CDF8FC14C0E900160DF5EA
:104CE0005678C2E900160DF59F63C2E90266D9F84D
:104CF0002810D9F83820C0E9026608208DF8F80499
:104D0000404629F04BFE9DF858538CA8FF2D03D147
:104D10000830DCA9FFF789BA053008F1010164E722
:104D2000194B00E00B4B012007213AF00BFA0D481C
:104D30003AF020FF124A06E01A4A04E0134A02E061
:104D4000094A00E0044A45F0E0FB124A40213AF0EB
:104D50003FFA00BF589706004897060040420F00F0
:104D6000A300000038970600289706009100000075
:104D700068C90600A50000009C000000A700000014
:104D8000189706009E000000A80907009809070070
:104D9000A200000040C706007F3DF1FF9F00000019
:104DA00098000000F8960600D0B502AF92B0BC683B
:104DB0008DF81020FF228DF80420CDE902343A69E5
:104DC000FB68009201AAFDF7C5FC12B0D0BDD4D497
:104DD000F0B503AF2DE9FF07DFF8949000260D46EC
:104DE0008046EA46CDE90266CDE900660F2E1ED860
:104DF000D5F80041402C07D32846002124F08AF83A
:104E0000D5F80041412C2AD23046514610224B465B
:104E100029F0C4FE02460B4605EB8400C4F14001B4
:104E20003CF046FF2044C5F800010E44DEE704A82C
:104E30009AE81E001EC004AB45F0D6FF1FBFA8E8CD
:104E40000F0008B0BDE80007F0BD08483BF040F88F
:104E500004A843F0FDFA3BF0A3F93BF0EFF8054B53
:104E60002046402140223AF06DF900BFAD0000001D
:104E7000EC10070030C70600F0B503AF4DF804BDD5
:104E8000856804686DB14268C66804F10800531B68
:104E900000EB4211B21A00EB4310520161F059FBD2
:104EA00000E0C668701B206045F0B9BE80B56F4653
:104EB00090F81414032918BF80BD00F58470BDE874
:104EC000804001F065BC80B56F4618B1BDE88040F8
:104ED00045F02CB980BD80B56F46818A022908BF94
:104EE00080BDD0E9003182681846BDE8804000F0FE
:104EF000F1BE80B56F46016939B1D0E900318268F1
:104F00001846BDE8804000F067BD80BD80B56F46A3
:104F1000D0E90012114308D090F88C10032904D175
:104F20000830BDE8804001F012BD80BD80B56F46FD
:104F3000016819B1BDE8804000F0D3BB80BD80B5E9
:104F40006F46C24312061CBFBDE8804001F059BE47
:104F500080BDD4D480B56F46054800210122016090
:104F60000449425001680029FCD00021016080BD45
:104F700014710040F4FEFFFF80B56F46017B0529E8
:104F800018BF032904D11430BDE8804001F07DB87A
:104F900080BD80B56F4690F8441031B1032918BF29
:104FA00080BDBDE8804000F0E9BA3830F9E7D4D4DC
:104FB000D0B502AF0446006820B946F00DF945F0BF
:104FC0009BFED0BD04483AF083FF42F029FA3BF043
:104FD000E7F83BF033F800BF3E000000D0B502AF69
:104FE0000446103024F0D1FE41F27C00204441F010
:104FF00013F841F288002044BDE8D04041F00CB8DD
:1050000080B56F460168012918BF80BDD0E9011045
:10501000C968BDE88040084780B56F4690F87510B4
:10502000032918BF80BDD0E90010C968BDE88040E1
:105030000847D0B502AF0446D0E90001084304BFD9
:10504000207B032808D0D4E93201084304BF94F838
:10505000D40003280AD0D0BD207E06280ED0042814
:10506000F1D104F12000FFF787FFECE794F8E800A6
:10507000062808D00428EED1282005E004F12000FD
:1050800001F003F8DFE7182004F1D8010844BDE877
:10509000D04000F0FABFB0B502AF04460025902D15
:1050A00008D06019017D032904BF043001F0CCFB56
:1050B0001835F4E7B0BDD4D4F0B503AF2DE9000F37
:1050C0008BB0044690F83C0F032805D040B904F695
:1050D0009800FFF7AEFF03E004F6182000F0EEF9A9
:1050E000D4F8A80704F59D6538B994F8BC070428DE
:1050F00004BF04F5F86001F033FDD4E90C01084366
:1051000001BF94F84400032804F1500000F0D2FEDF
:10511000D5E90001084307D194F8FC04042804BF32
:1051200094F8A007032801D045F088BBD4F8000705
:1051300038B994F82607042804BF04F5E56000F0A8
:1051400098FFD5E93E01D4F8E82500F045FCD5E903
:105150003A01D4F8D82500F0BDFDD5E93601D4F8E0
:10516000C82500F09FFCD5E932A09D490190D4F8F4
:10517000B8050968C90540F02E819B4925F091F9D1
:105180000646D0E9005B806B06F1400900910138CA
:10519000B063484621F08CFCB5EB00086BF10000D1
:1051A000BAEB0801019971EB000039D30DF1080B3E
:1051B0004946584624F0F0FEBAEB0800069004D0A9
:1051C000411E02A837F011FE60B10DF11C089BE8EA
:1051D0002E0040462EC0404629F09DFA10B146F000
:1051E00003F8F8E702AD0020D6E91012891A18BFBB
:1051F000012196F848201143C9070BD0316D49B9F8
:10520000284649463DF018F90298002800F0E08051
:105210000120E9E7C0071CBF06F12C003DF0F6F8BD
:10522000009904F59D6545F0F0FCD5E92E01D4F810
:10523000A82500F097FCD5E92AB069490190D4F877
:1052400098050968C90540F0C680674925F029F925
:105250000646D0E9005AC06F06F1080900910138EE
:10526000F067484621F0ECFBB5EB00086AF100005E
:10527000BBEB0801019971EB000033D30DF1080A73
:105280004946504624F0FAFDBBEB0800069004D0D6
:10529000411E02A837F0A9FD40B146F0BFFF4046CD
:1052A00029F039FA10B145F09FFFF8E702AD002070
:1052B000D6E90212914202D1327CD2070CD006EB21
:1052C000C101896941B9284649463CF0FFFF02986F
:1052D00000287DD00120EBE7C0071CBF06F170005D
:1052E0003DF094F8009945F090FC3D4904F59D602F
:1052F000D0E926BAD4F888050968C9056BD13A49BE
:1053000025F0CFF80646D0E90058D0F8FC0006F1A9
:10531000080901910138C6F8FC00484621F0D6FB87
:105320002D1A68F10000BBEB05017AEB000037D3C2
:105330000DF1080A4946504624F07FFEBBEB0500FC
:10534000069004D0411E02A837F084FD48B146F013
:1053500065FF404629F041FA18B181680139816042
:10536000F7E702AD0020D6E90212914202D1327C69
:10537000D2070FD001EB410106EB8101C96949B9A0
:10538000284649463DF0CCF89DF8080002281FD079
:105390000120E8E7C0071CBF06F1F0003DF036F839
:1053A000019945F032FCD4F8701519B1D4F87405A0
:1053B000C9688847D4F8781500293FF4B5AED4F809
:1053C0007C05C9680BB0BDE8000FBDE8F040084798
:1053D00006483AF0CFFB03483AF086FD3AF02EFE3D
:1053E00004ED00E03D000000A4B9060044C306003F
:1053F00080B56F46017B032918BF80BD1030BDE822
:10540000804001F0CCBBD0B502AF044690F83B0021
:1054100003280FD0042805D005280ED1D4E91101A6
:10542000FFF751FD94F83A00012804BFD4E90801C0
:1054300044F07CFE002084F83A00D0BDD0B502AF25
:10544000044690F86804032804BF04F58260FFF75F
:10545000DAFF94F82701033804281AD8DFE800F0AF
:1054600003150D10080004F5A07001F0D0FA10E04B
:1054700004F5947000F0D8FF0BE004F5947006E09A
:1054800004F5A47000F058FE03E004F5A07000F0ED
:1054900034FE94F87203042809D0032818BFD0BD45
:1054A00094F8B603032824BF002084F8B50304F55C
:1054B000547207CABDE8D04000F0F4BAD0B502AFCC
:1054C000044690F8B602042805D005280DD104F54D
:1054D0002E7001F071FA94F8B50218B104F5E0707D
:1054E00000F04CF9002084F8B50294F8BA030428BF
:1054F00004BF04F5707000F02AFE2046BDE8D040DD
:10550000FFF797BD80B56F46C0B2BDE880405EF042
:105510006FB8D4D4F0B503AF4DF804BD0A460646C3
:1055200046F074FA0C461349054606F5767041F0CC
:1055300089FF0E4695F85E13B1B1013985F85E1307
:10554000090604BF95F85C13042905D045F00DFD4C
:1055500045F0D2FB45F063BB103041F20131A5F8B4
:105560005C133BF0FFF9F1E703483AF0BDFC3AF079
:1055700065FD00BF20C60600B500000080B56F467F
:10558000014640684A7A00F5B7601AB1BDE880402C
:1055900021F0EDB9097ABDE8804021F0CCB980B5A1
:1055A0006F4680BDB0B502AF456875B1028900682D
:1055B000D0E9000124F0E4FA38B10C46D0F84013E9
:1055C000294446F0C8F945F097FBB0BDF0B503AFEC
:1055D0004DF8048D044601790068FFF79BFF41F206
:1055E00090102618215875688D4208D1307AC0076E
:1055F00005D100214FF00408042000250FE041F2FE
:105600009C1004EB000801EB81008D4208EB800048
:1056100091BFC1F10101691A00254FF0040801F0A2
:1056200024FB4046294601F020FB316A11B1706A23
:10563000C9688847B16A11B1F06AC968884704F13E
:1056400008005DF8048BBDE8F040FFF7C7BCB0B5BB
:1056500002AF88B00446D0E90620436900200090DC
:1056600002AD2146284601F08BFE2846FFF75EFC7E
:10567000204608B0BDE8B04000F072B8F0B503AF06
:105680004DF804BD066804460579D6E900012A46AE
:1056900024F087FDD4E902010A692146904730468B
:1056A00029465DF804BBBDE8F040FFF733BFB0B555
:1056B00002AF88B00446D0E906204369012194F87E
:1056C0002000CDE9001002AD2146284601F058FE29
:1056D0002846FFF72BFC204608B0BDE8B04000F09C
:1056E0003FB8F0B503AF2DE900078AB0D0F800A0AD
:1056F000044686680020A0601EB304F10C000DF182
:10570000140808F1080190E82C002CC194F80490CA
:10571000DAE900014A463FF0BBF90A68B0F85803DD
:10572000013A0A600AF57E71ADF8140068464246F7
:10573000069623F0C3FB019828B1029944F0F6FCC9
:1057400001E094F8049050464946FFF7E3FEE16813
:1057500000200AB0BDE80007BDE8F040FFF7B3BB8A
:10576000D0B502AF0446D0E90201FFF7ACFB2179C6
:105770002068BDE8D040FFF7CDBED4D480B56F46D9
:1057800002C8DFE801F002020206BDE88040FFF730
:105790005EBFBDE88040FFF78ABFD0B502AF24F0FE
:1057A000EFF968B10C4690F86F130022012980F8D8
:1057B0006F2304BF00F51E703BF0D4F845F09CFA4F
:1057C000D0BD80B56F4600F5B7600021BDE88040D0
:1057D00021F0B1B880B56F4600F5BD600021BDE88D
:1057E000804021F0A8B880B56F4600F5BA6000216E
:1057F000BDE8804021F09FB80168426C8A429EBF9C
:1058000000210160704780B56F46024B10460A4682
:1058100039F098FC7CCD06000168426B8A429EBF3D
:1058200000210160704780B56F46024B10460A4662
:1058300039F088FC7CCD0600D0B502AF0446026882
:105840008068211D024B29F0A9F900202060D0BDFD
:105850007CCD0600F0B503AF2DE9000F89B082467C
:1058600029480068C0054AD18946294945F0DBFC32
:105870000546D0E90046406E46F055FC686658463D
:1058800021F0C2F845F004F932D3E94659464846BA
:1058900024F0B3FA46F084F904D0411E684637F08C
:1058A000A4FA40B105AC45F058F845F0B5FC10B18C
:1058B00045F09AFCF9E700206C46D5E902129142C6
:1058C00002D12A7CD2070DD005EBC101896949B903
:1058D000204659463CF0C2FC9DF8000002280BD03F
:1058E0000120EAE7C0071CBF05F150003CF084FD31
:1058F00044F0BFFD44F00DBE06483AF03BF90348C2
:105900003AF0F2FA3AF09AFB04ED00E03D000000B4
:10591000A4B9060044C30600F0B503AF2DE9000F9B
:1059200089B0824628480068C00547D18946284981
:1059300045F079FC0546D0E9004B806A05F1300856
:105940000E460138A862404621F096F844F014FE55
:1059500032D3E9464146484624F0DCFA46F020F9C5
:1059600004D0411E684637F063FA48B144F0E1FEC6
:10597000204628F01BFF10B145F043FCF8E75646DF
:105980000021D5E90C02801A18BF012095F83820B3
:105990001043C0070AD0E86B40B9404624F0D1FA62
:1059A00001210028EDD10B483AF0E4F8C8071CBFEC
:1059B00005F11C003CF02AFD44F093BD03483AF089
:1059C00093FA3AF03BFB00BF04ED00E03D0000001D
:1059D000A4B9060044C30600F0B503AF2DE9000FDB
:1059E00089B082462B480068C0054ED189462B49B4
:1059F00045F019FC0546D0E90046C06C46F093FB23
:105A0000E864584621F046F845F042F836D3E946B6
:105A10005946484624F0A7FA46F0C2F804D0411E81
:105A2000684637F017FA50B105AC44F096FF2046AF
:105A300028F0D3FE18B1816801398160F7E70020B2
:105A40006C46D5E90212914202D12A7CD2070FD0CE
:105A500001EB410105EB8101C96949B9204659466D
:105A60003CF0B5FC9DF80400FF280BD00120E8E7CE
:105A7000C0071CBF05F140003CF0C8FC44F0F9FC35
:105A800044F047BD06483AF075F803483AF02CFA5E
:105A90003AF0D4FA04ED00E03D000000A4B906009D
:105AA00044C30600F0B503AF2DE9000F89B082466C
:105AB00028480068C00547D18946284945F0B3FB0E
:105AC0000546D0E9004B806D05F160080E460138AF
:105AD000A865404620F0ECFF44F04EFD32D3E94685
:105AE0004146484624F06DFA46F05AF804D0411E6B
:105AF000684637F07AF940B144F01BFE45F08CFB64
:105B000010B145F071FBF9E756460020D5E91812AF
:105B1000891A18BF012195F868201143C9070BD0D5
:105B2000296F49B940463CF0ABFCC1B201200229C3
:105B3000ECD10B483AF01EF8C0071CBF05F14C0031
:105B40003CF064FC44F0CDBC03483AF0CDF93AF0A7
:105B500075FA00BF04ED00E03D000000A4B90600A6
:105B600044C30600F0B503AF2DE9000F89B08246AB
:105B700024480068C0053FD18946244945F053FBBD
:105B800044F07AFF44F0F8FC31D3E94641464846F8
:105B900024F017FA46F004F804D0411E684637F0A6
:105BA00024F940B144F0C5FD45F036FB10B145F095
:105BB0001BFBF9E7564600206C46D5E91412891AFA
:105BC00018BF012195F858201143C90709D0296E43
:105BD00039B9204641463CF07FFC009848B101208D
:105BE000EBE7C0071CBF05F134003CF005FC44F0B6
:105BF00078BC074839F0BEFF03483AF075F93AF02F
:105C00001DFA00BF04ED00E03D000000A4B906004D
:105C100044C30600F0B503AF2DE9000F89B08246FA
:105C200028480068C00548D18946284945F0FBFA54
:105C30000546D0E90046C06F46F075FAE867584659
:105C400020F0E2FE44F024FF30D3E94659464846AE
:105C500024F0CCF945F0A4FF04D0411E684637F08B
:105C6000C4F840B105AC44F078FE45F0D5FA10B167
:105C700045F0BAFAF9E700206C46D5E902129142E4
:105C800002D12A7CD2070BD005EBC101896939B951
:105C90002046594624F0BFF9009858B10120ECE79E
:105CA000C0071CBF05F168003CF0A6FB44F0E1FB17
:105CB00044F02FBC064839F05DFF03483AF014F970
:105CC0003AF0BCF904ED00E03D000000A4B9060084
:105CD00044C30600F0B503AF2DE9000F89B082463A
:105CE00025480068C00541D18946254945F09BFA01
:105CF00044F0C2FE44F040FC33D3E94641464846F6
:105D000024F0B4F945F04CFF04D0411E684637F04A
:105D10006CF840B144F00DFD45F07EFA10B145F04D
:105D200063FAF9E7564600206C46D5E91412891A41
:105D300018BF012195F858201143C9070BD0296ECF
:105D400049B9204641463CF00DFC9DF80000FF2873
:105D500009D00120E9E7C0071CBF05F13C003CF079
:105D600055FB44F0BEBB074839F004FF03483AF046
:105D7000BBF83AF063F900BF04ED00E03D0000001D
:105D8000A4B9060044C3060080B56F4609490968F6
:105D9000C9050AD1094924F084FBD0F8F020013A62
:105DA000C0F8F02044F031FF80BD03483AF09CF881
:105DB0003AF044F904ED00E03D00000094B906001B
:105DC00080B56F4609490968C9050AD1094924F017
:105DD00068FBD0F80021013AC0F8002144F015FF1B
:105DE00080BD03483AF080F83AF028F904ED00E06D
:105DF0003D00000094B9060080B56F460849096867
:105E0000C90508D1084924F04CFB026C013A026430
:105E100044F0FBFE80BD03483AF066F83AF00EF914
:105E200004ED00E03D00000094B9060080B56F4627
:105E300090F88810032918BF80BD2C30BDE8804041
:105E400000F081BE80B56F4690F8C910032918BFD5
:105E500080BDBDE8804000F018B980B56F4690F86D
:105E6000C810032918BF80BDBDE8804000F00DB9FF
:105E700080B56F4690F8C210032918BF80BDBDE8F9
:105E8000804000F002B980B56F4690F8C110032938
:105E900018BF80BDBDE8804000F0F7B880B56F4600
:105EA00090F89913032918BF80BD4830BDE88040A1
:105EB00000F0E2BD80B56F4690F89414032918BF36
:105EC00080BD2030BDE8804000F0B4B880B56F469A
:105ED00090F8EC10032918BF80BD1830BDE8804051
:105EE00000F00CB880B56F4690F8F810032918BF81
:105EF00080BD2430BDE8804000F000B880B56F461A
:105F000090F84410032908D0042918BF052909D1A5
:105F10004830BDE8804000F016BE4830BDE8804003
:105F2000FFF784BF80BD80B56F4690F8A6100329A7
:105F300018BF80BD1C30BDE8804000F00CB880B5B3
:105F40006F46817F0339012988BF80BD2430BDE8B9
:105F5000804000F000B8D0B502AF044690F82700AA
:105F6000042818BFD0BD04F13C0000F006FDE06A33
:105F7000228ED0E90001BDE8D040FFF70EBC80B50D
:105F80006F46417C042918BF80BD4068BDE8804051
:105F9000FFF70EB8D0B502AF044690F835000328DD
:105FA00009D0042803D0052818BFD0BD03E004F1B0
:105FB000380000F06DFC002084F83400D0BDD0B56E
:105FC00002AF044690F83500032804D0042807D017
:105FD000052818BFD0BD04F1380000F009F803E02F
:105FE00004F1380000F054FC002084F83400D0BDE7
:105FF00080B56F4690F85010063907290AD8DFE8B7
:1060000001F00A0F0904091409045430BDE8804066
:1060100000F03DB980BD5430BDE88040FFF762BF5D
:106020005430BDE8804000F020B95430BDE88040D5
:1060300000F04FBC80B56F4690F87810042907D067
:10604000052918BF80BD7C30BDE8804000F0CABD86
:106050008030BDE8804000F05DB980B56F4690F8B3
:106060002210052918BF80BD2C30BDE8804000F00B
:10607000C0BB80B56F4690F82010042918BF80BDC2
:106080002430BDE8804000F084BC80B56F4690F8B5
:106090007C10032918BF80BDBDE88040FFF7E9BF31
:1060A00080B56F4690F8FC10032918BF80BD1030F2
:1060B000BDE8804000F00BB880B56F4690F8E01066
:1060C000032918BF80BDBDE8804000F00BB880B543
:1060D0006F4690F8DE10032918BF80BDBDE88040F0
:1060E00000F074BD80B56F4690F8D610032918BF34
:1060F00080BDBDE8804000F069BD80B56F4690F876
:106100002010032907D0042918BF80BD2830BDE81E
:10611000804000F088BC3830BDE88040FFF7C0BF49
:1061200080B56F4690F8C010032918BF80BD1030AD
:10613000BDE8804000F03EBD80B56F4690F8E210AB
:10614000032918BF80BDBDE8804000F054BC80B575
:106150006F4690F83410032918BF80BD3830BDE871
:106160008040FFF77ABFD0B502AF0446007A03281B
:1061700004D0042804D16068FFF706FE0020607296
:10618000D0BDD0B502AF0446807C032804D00428DB
:1061900004D12068FFF714FE0020E074D0BDD0B514
:1061A00002AF0446C07A032804D0042804D1206832
:1061B000FFF706FE00202073D0BDD0B502AF044625
:1061C000C079032804D0042804D12068FFF714FE06
:1061D0000020A071D0BDD0B502AF0446407A011FA7
:1061E000022903D220683FF023FF02E0032818BFF2
:1061F000D0BD00202072D0BDD0B502AF044690F8CB
:106200000D01011F022904D2D4F808013FF010FF4C
:1062100001E0032802D1002084F80C01D0BDD4D4C1
:10622000D0B502AF04464FF48F50205C03380328EA
:106230001AD8DFE800F00214090F41F2E8102044F8
:10624000BDE8D04000F0FABB41F2E8102044FFF76F
:106250007EFF04E041F2E8102044FFF7EFF820460B
:10626000BDE8D040FFF7B2B9D0BD80B56F46017C24
:10627000032907D0042918BF80BD1830BDE880402D
:1062800000F061BC1430BDE8804000F000B880B57B
:106290006F46017C042918BF80BD1830BDE88040DE
:1062A00000F051BC80B56F46017F042918BF80BD46
:1062B0002030BDE8804000F00CB880B56F4690F803
:1062C0005810032918BF80BD0430BDE8804000F09D
:1062D0002EBC80B56F4690F85C10032918BF80BDB6
:1062E0000830BDE8804000F022BCD0B502AF0446C3
:1062F00090F85C00011F042906D3032818BFD0BD05
:1063000004F16000FFF73BFEE06B4068BDE8D04061
:10631000FFF757BA80B56F46017C0339052909D8C4
:10632000DFE801F0030E080910151830BDE88040C1
:1063300000F028B880BD1830BDE8804000F02DB8CE
:10634000203000E03030BDE8804000F005B8183063
:10635000BDE8804000F09EBB80B56F4690F84613C4
:10636000032918BF80BDBDE8804000F085BB80B523
:106370006F4690F83E13032918BF80BDBDE88040EA
:1063800000F07ABB80B56F4690F84013032918BF20
:1063900080BDBDE8804000F06FBB80B56F4690F8CF
:1063A0004813032918BF80BD0830BDE8804000F0C5
:1063B00063BB80B56F4690F84513032918BF80BDB5
:1063C000BDE8804000F058BB80B56F4690F844139C
:1063D000032918BF80BD0830BDE8804000F04CBBE9
:1063E000D0B502AF044690F89703032804D145F0D6
:1063F00059FF002084F89603D0BD80B56F46017E1A
:10640000032918BF80BD1C30BDE8804000F074BA7D
:1064100080B56F4690F82410032938BF80BD28301E
:10642000BDE88040FFF79FBEB0B502AF90F8D02026
:10643000062A0ED80446082004212546DFE802F08B
:106440002B0909040E0A040004F1D80000F02CF80E
:1064500004E0B0BD04F1D800FFF7DAFF04F1C00298
:1064600007CAFFF71FFB04F1B00207CAFFF754FA8F
:1064700004F1A00207CAFFF7EDF904F1900207CA80
:10648000FFF770FB04F1800207CAFFF7C3FB04F1BA
:106490004005482044212258204443686058816ABE
:1064A0002868BDE8B040084780B56F4690F8F41002
:1064B000032918BF80BD0C30BDE8804000F013BB3D
:1064C00080B56F46017C03290ED0042907D0052929
:1064D00018BF80BD1830BDE8804000F00AB8183001
:1064E000BDE8804000F0A5B82030BDE8804000F055
:1064F000C7B880B56F4690F82810032907D0042943
:1065000018BF80BD3030BDE8804000F092B8303018
:10651000BDE8804000F0B4B880B56F4690F84910EF
:106520000339072988BF80BDDFE801F00D04081298
:106530000408060650300CE0503005E05030BDE84D
:106540008040FFF7D6BF6030BDE8804000F098B8CB
:106550005830BDE8804000F06CB8D4D4D0B502AF5C
:10656000044690F807010338082820D8DFE800F037
:10657000050B050B100808051A0004F58C7009E0DE
:1065800004F5887001E004F58C7000F052F803E027
:1065900004F5887000F074F804F16000BDE8D040A4
:1065A000FFF72AB904F58C7000F050F8F4E7D0BD7D
:1065B00080B56F46017C032907D0042918BF80BD30
:1065C0001830BDE8804000F005B81830BDE88040C4
:1065D00000F023B880B56F4690F8301003390529D4
:1065E00088BF80BDDFE801F00A030F0305144030C7
:1065F00000E03830BDE8804000F028B83830BDE811
:106600008040FFF7ABBF3830BDE88040FFF784BF64
:106610004030BDE8804000F033B880B56F4690F858
:10662000DF13032918BF80BD4830BDE88040FFF765
:10663000D1BF80B56F46017C052918BF032904D15D
:106640001830BDE8804000F01BB880BD80B56F46B3
:1066500090F8231003290ED0042907D0052918BF6C
:1066600080BD2830BDE88040FFF756BF2830BDE828
:106670008040FFF7DEBF3030BDE8804000F000B85A
:1066800080B56F46017C032918BF80BD1830BDE876
:106690008040FFF784BDD4D480B56F4690F8801059
:1066A0000439062988BF80BDDFE801F00404040432
:1066B00004090E008830BDE88040FFF758BE8830DE
:1066C000BDE8804000F005B88830BDE8804000F0AB
:1066D0000CB880B56F4690F82C14032918BF80BD04
:1066E0007830BDE8804000F0C7B9D0B502AF0446AD
:1066F00090F8CE03032806D104F1080000F0BCF99D
:10670000002084F8CD03D0BD80B56F46C0B2032809
:1067100018BF80BDBDE88040FEF71CBCD0B502AFFD
:10672000044690F82000042806D1E0690078FEF7BE
:10673000E9FE002084F82200D0BD80B56F4690F8B5
:106740004010032918BF80BD0C30BDE88040FFF722
:10675000E5BF80B56F4690F84410032918BF80BD8F
:106760001030BDE88040FFF7D9BFD4D480B56F4664
:10677000017E0339C9B2082988BF80BD034A52F897
:1067800021100844BDE88040FEF790BB4C1507007F
:1067900080B56F4690F80013032918BF80BD00F53F
:1067A0008470BDE88040FFF70ABC80B56F4690F862
:1067B000D811032918BF80BD0C30BDE88040FFF719
:1067C000E9BB80B56F46017B042918BF80BD806896
:1067D000BDE88040FEF7ECBB80B56F4690F8A8108E
:1067E000032998BF80BDD0F89000BDE88040FEF737
:1067F000DFBB80B56F4690F8B210032918BF80BD8B
:106800000830BDE88040FFF78EBBD4D480B56F461A
:10681000817C0E390B2911D8DFE801F00610101128
:1068200010101010060B100B1830BDE88040FFF759
:10683000D3BF1430BDE88040FFF7C3BF80BD143024
:10684000BDE88040FFF77BBB80B56F46017B032925
:1068500018BF80BD0430BDE8804000F083B8D0B5DB
:1068600002AF044690F83100052809D006280ED161
:1068700004F1480000F081F8A06BA28F43F0EDFE18
:10688000D4E9000143F052FC002084F83000D0BD70
:1068900080B56F4690F82C100339052918D8DFE829
:1068A00001F00317170D08123030BDE88040FFF7E4
:1068B000F9BC3030BDE88040FFF7E9BC3030BDE8BE
:1068C0008040FFF706BD3030BDE8804000F001B8E1
:1068D00080BD80B56F4690F86010052907D0062965
:1068E00018BF80BD6430BDE88040FFF7F2BC743053
:1068F000BDE88040FFF7EABAD0B502AF044690F891
:106900003D00092807D80121814011F46E7F03D092
:10691000002084F83C00D0BD0628FCD104F14000E2
:10692000FFF7B6FFF4E780B56F4690F82D1041B140
:10693000032918BF80BDD0E90601BDE88040FEF7FD
:10694000C2BAD0E90001BDE8804043F0EFBB80B59A
:106950006F46017A052918BF80BD1030BDE8804020
:10696000FEF746BD80B56F464179032918BF80BD4B
:106970000430BDE8804039F04BBF80B56F4690F8D9
:106980002510042918BF80BD2830BDE88040FEF7DF
:1069900009BE80B56F4690F8441039B1032918BF7D
:1069A00080BD1430BDE88040FFF7BDBFD0E90101D4
:1069B000BDE8804043F0BABBD0B502AF044690F8C2
:1069C0008800032801D028B1D0BD04F14000FFF7B2
:1069D000E0FF18342046BDE8D040FEF782BE80B507
:1069E0006F4690F89810032918BF80BD5030BDE85D
:1069F0008040FFF7CEBF80B56F4690F8CE100329D8
:106A000018BF80BD0830BDE8804000F0DFB880B519
:106A10006F4690F8B011032918BF80BDE030BDE883
:106A2000804000F0D3B880B56F4690F8F01003298D
:106A300018BF80BDBDE88040FFF73EBBD0B502AFB8
:106A4000044690F82900032803D0042818BFD0BDBD
:106A500003E004F12C00FFF79CFF002084F82800DD
:106A6000D0BD80B56F4690F83011032918BF80BDA6
:106A7000BDE88040FFF7AFBB80B56F4690F830139C
:106A8000032918BF80BD00F58470BDE88040FFF782
:106A9000B3BBD4D480B56F46417B03390C2988BF82
:106AA00080BDDFE801F0070C0707070C0C0C0C0792
:106AB0001B1116001030BDE88040FFF758BC1030A5
:106AC000BDE88040FFF780BC1030BDE88040FFF794
:106AD00087BC2030BDE88040FFF76BBC3030BDE89C
