:1010000008FC03200111000065040200DDBA0300A2
:10101000650402006504020065040200000000008F
:101020000000000000000000000000006504020055
:10103000650402000000000065040200650402006F
:1010400059110000C111000065040200650402008E
:1010500065040200650402003D090200451200001B
:1010600091120000650402006504020039120000BC
:1010700065040200CD110000650402006504020051
:1010800065040200150A02006504020065040200FE
:10109000AD11000065040200650402006504020051
:1010A0006504020065040200650402006504020094
:1010B000650402006504020000000000000000005A
:1010C0006504020065040200650402006504020074
:1010D0006504020065040200650402009D12000020
:1010E00065040200650402006504020000000000BF
:1010F000000000006504020000000000650402001A
:101100001FF0B3F90E480F490022814201D004C0FC
:10111000FBE70D480D490E4A814202D008CA08C0BB
:10112000FAE70C484FF47001026842EA01020260DB
:10113000BFF34F8FBFF36F8F1CF040FB00DE00004A
:10114000E0210020807B002008000020DC2100201E
:10115000C02E040088ED00E0B0B502AF35F0A6FF68
:10116000104C206828B1002020600F481C301FF070
:1011700015FE606850B10C4D0020606005F11C0048
:101180001FF00CFE05F114001FF008FEA06838B136
:101190000020A06004481430BDE8B0401FF0FEBD40
:1011A000B0BD00BF1C010040706A002080B56F46D2
:1011B0000248BDE880401FF0F1BD00BFCC5E0020BA
:1011C00080B56F46BDE8804037F002BBF0B503AF95
:1011D0004DF804BD154E0020306020F003FC144D86
:1011E0000446E86BF0B94FF0FF30E863A86C78B1C3
:1011F000E96C88420CD0D6F808140170D5E91201C8
:101200000130A864884204BF05F140001FF09AFD38
:10121000E86B0130E86320465DF804BBBDE8F040B0
:1012200020F016BC03481FF005F800BF00D10040B5
:10123000706A0020F40F040080B56F46BDE880405E
:1012400038F062B9D0B502AF0F4C206930B1102030
:10125000C4F808020D482C301FF0A0FD606830B1C2
:101260000220C4F8080209482C301FF097FD2068BE
:1012700040B10120C4F8080204482C30BDE8D04039
:101280001FF08CBDD0BD00BF00710040706A00200F
:1012900080B56F46BDE8804037F08EBAF0B503AF39
:1012A0002DE9800F3A4D286858B13A4C0120C5F815
:1012B000080204F11C001FF071FD04F124001FF06E
:1012C0006DFDE86D38B14FF40000C5F808023148F3
:1012D00024301FF063FDA86A38B14FF48060C5F870
:1012E00008022C4824301FF059FDA86D28B10020B9
:1012F000A86528481C301FF051FD286EE8B3002077
:101300002866D5F86CA32348C5F86CA3BFF35F8F9C
:1013100050E8031F41EA0A0140E80312002AF7D10E
:10132000DFF880804FF0000BDFF870900126BFF3EC
:101330005F8F5FEACB7020D13546072E1DD82E4631
:101340002AFA05F418BF0136E00707D0681E0828FE
:1013500015D209EBC00038301FF020FDE81FB0FAAD
:1013600080F04FEA501BE003E3D5681E082808D23E
:1013700008EBC0001FF012FDDBE724F0C2BF064AF5
:1013800000E0074A4FF0FF3008211EF0D1FA00BFFD
:1013900000710240706A00208CEE0300D86A0020C1
:1013A0009CEE0300CC5C002080B56F468A689301F8
:1013B00005D4520108D4BDE880401EF072BC00681C
:1013C000BDE880401EF0A3BF0068BDE880401FF06C
:1013D00023B8D0B502AF0446083019F066FD0128E5
:1013E00008D1D4E900021144B1FBF0F202FB101164
:1013F0000120D0BD0020D0BDB0B502AF24F056FD15
:10140000C0B2102805D120462946BDE8B0401CF0E6
:10141000EDB80220B0BDB0B502AF24F047FDC0B2B8
:10142000102805D1D5E90101884201D024F0D4BCAF
:101430000220B0BDB0B502AF24F038FDC0B2102814
:1014400005D120462946BDE8B0401CF0A3B90220D2
:10145000B0BDB0B502AF24F029FDC0B2102808D14C
:10146000284621461BF078FAC0B2102818BF022087
:10147000B0BD0220B0BDB0B502AF24F017FDC0B2C0
:10148000102805D1D5E90101884201D024F0A4BC7F
:101490000220B0BDE0B502AF4FF0FF300190002058
:1014A0000090684613F00AFEF0B503AF2DE9000F77
:1014B000ADF5C75D81B006AA00F5935A02F58A52D0
:1014C000894642F2E0212F92421843F2604100EB3C
:1014D000010B34909AF87E03CC4CCDF8C0A0329228
:1014E000CDE9359BDFE810F0060035068A1A970033
:1014F0007A0068000020CAF87A03DAF87003CAF8A4
:10150000180020F06FFADFF808A39AF80610C90750
:1015100040F0228601218AF8061020F099FABD4D8C
:10152000BD49BE4ED5F8A4030860D5F8A8034860AD
:10153000D5F8AC038860D5F8B003C860D5F8B4031B
:101540000861D5F8B8034861D5F8BC030862D5F83E
:10155000C0034862D5F8C4038862D5F8C803C862DE
:10156000D5F8CC030863D5F8D0034863D5F8D40385
:101570000864D5F8D8034864D5F8DC038864D5F846
:10158000E003C864D5F8E4030865D5F8A400A44CCA
:10159000DDF8D0B0C0F30720452856D9301D5A21B8
:1015A0004FF05A081FF014FBC0B2C4F84080B0FAE4
:1015B00080F04FEA50184AE0594651F8100F2A912E
:1015C000496880F003020A430AF57A722E922FD1FD
:1015D0004FF001080AF57A7001F059BF0AF5607002
:1015E0002E909AF8140B0AF6143638B3032840F0FC
:1015F000EE859AF8F6070AF2F6713191DFE810F0FD
:101600000600EA05FE190F0378032804DAF8EC97C0
:10161000DAF8F017B9E29AF884030AF5617600283F
:1016200000F05D82032800F062827E481EF09FFE7B
:10163000084300F0F683012000F0B1BFDAF8089B00
:10164000DAF80C1BDAF8100B8FE24FF0000805F502
:101650008D5012211FF0BCFA054630461221B146CA
:101660001FF0B6FAE9B231B1C0B2B0FA80F0400969
:1016700048EA000600E0012609F1080000210122E5
:101680001FF0AEFA054609F58070052107221FF00C
:10169000A7FA002E40F06385E9B2002900F05F85CB
:1016A000C0B2002800F05B850BF59350002100F2DA
:1016B0007A395D482160012221505C4962502158ED
:1016C0000029FCD05A4A012000214FF0FF33A066C8
:1016D0002066082906D054580431C4F82405C4F8FB
:1016E0002035F6E753494FF0000C534B4FF0010EF5
:1016F0004FF000480024082C15D00D192D7905F065
:101700001F02C5F340160EFA02F203EB8600C0F882
:101710008021581980F800C343F82620085908345E
:10172000C0F80483E7E745484FF40001444A816468
:101730004449C1F8042301228A600A600168002933
:10174000FCD1414E00203C4C4FF4003130742160FC
:1017500001218DF8E2004FF4FA70ADF8E0000220AC
:101760008DF8DE004FF48050ADF8DC003748603073
:10177000D0E84F2F002A40F0DC84C0E8421F002A46
:10178000F6D180254FF48010314ABFF35F8FF57496
:101790001421C4F8800137A838F0F6FA002800F1C7
:1017A000E084002001213070B072F071274884F885
:1017B0000053012538F019F9002800F1D484DAE843
:1017C0004F0F002840F0B584CAE8405F0028F6D1EA
:1017D0000BF59351BFF35F8F0AF1010040F2011244
:1017E000C86100201B49382800F0C2840C1838302A
:1017F00004F1180353E8005F25B943E80025002DE4
:10180000F8D12BE0BFF32F8FEDE700BF047300404A
:10181000706A00206000001020C500400412001013
:1018200018050040D0D80300ECFBFFFFF0FAFFFFE3
:10183000B0EB0300D0EB030000E100E00415014031
:10184000020008000010014001E400E0685C002094
:10185000A5170200D86A00205D5001005FF808005B
:10186000606204F1280013F01FFC0BF59350214631
:1018700080691FF03CF8F3480124F3490460C0F884
:1018800004434FF40050C1F8800108600AF13C01A4
:10189000EE4800F52E60CBE90010ED4826F096FEEC
:1018A000B0F1FF3F40F36D8426F0EEFF26F0F8FF25
:1018B00027F002F827F004F827F000F80DF5CF61C3
:1018C00002208DF8784620F00BF9002840F02F8494
:1018D00040F203300DF5CF61ADF87C064FF0FB1000
:1018E000CDF87806032020F0FBF8002840F01F8494
:1018F00000200021002226F0B1FE0446002800F15D
:101900005E8441F25920844280F03E840BF1080845
:10191000BFF35F8F5AE8040F002840F040844AE884
:1019200004B00028F6D101200028CDF8CC9000F0BA
:101930003B840DF5CF69C748CDF87806484628F0B6
:10194000CBF8B0F1FF3F40F3F283C348414626F0A5
:1019500059FFB0F1FF3F40F32A840BF59350022169
:1019600000254FF001080171BC490575058105602E
:101970008A4680F87D834FF4004008602F20DFF80E
:10198000E0B28DF878064846D847B64E4FF08070E2
:10199000706018208DF878060DF5CF60D8474FF4A9
:1019A00080000DF5CF64706016208DF87806204613
:1019B000D8474020CAF8000026208DF8F80B0DF615
:1019C000F830D847A848CDF8780602208DF8F80BF3
:1019D0000DF6F830DFF894A2D0471D208DF8F80BF3
:1019E0000DF6F830D04709208DF8F80B0DF6F830D9
:1019F000D04720208DF8F80B0DF6F830D0470B209B
:101A00008DF8F80B0DF6F830D04724208DF8F80B40
:101A10000DF6F830D047914A042D0BD019F8050087
:101A2000114624F005FE38BF311D013508FA00F0DB
:101A30000860F1E7349942F20302DDF8780601F517
:101A4000935A8B49CAF8200040F20110AAF87B0390
:101A500042F20B40AAF878038648CAF87403602063
:101A600088710120844908600220C1F8F00000203C
:101A7000C1F8F4001031DDF8D490ADF87C264FF4B5
:101A80000032CDF87826062818D022185379157917
:101A90000D60202B1ABF4B604FF480130023255C90
:101AA0000630967843EA05335578D27843EA022225
:101AB00042EA06422A438A601031E4E76F4C0AF595
:101AC000617661496E4860608020C1F880010860DD
:101AD00000203399CAE9E01001208AF87A036948A6
:101AE0000021215010202060012167482150D9F8A1
:101AF0000000D0E900125FF8E8022C301FF06CF90A
:101B000060482158002900F002814F4D4FF0000835
:101B100044F8008001244FF480768AF88443DAF890
:101B20001C90C5F88060BFF34F8FBFF36F8F1FF01D
:101B300003FC564890F84010012900F00783016823
:101B40000AF5607280F840400131016006204FF4D0
:101B500020212E608AF8148B0AF61436CAF8089BE6
:101B6000CAF80C1BCAF8100B2E920022CAF8001BF0
:101B7000CAF8040B0AF530610AF2F6708AF8F62703
:101B8000CAF8EC97CAF8F01731900020CAF8909480
:101B9000CAF89414AAF8F4070A79012A40F2D0820C
:101BA00008683396002808BF4FF4C020030540F0B2
:101BB000CA825446C4F8981400EB0231CAE9E00125
:101BC00013F0FEFC8346D4F898040D460DF5CF685B
:101BD0000179404616F040FC0120414684F8F507A3
:101BE00041F2FC60349C4FF40772261824F004FD87
:101BF00041F6241040F221112044CAF8B896CAF8E0
:101C0000BCB6CAF8C05639F0FCFCCAF8FC67002024
:101C1000DDF8D490339E8AF8D009CAF8F807D9F8CD
:101C2000002006A80AF5FF6400F58A50214616F048
:101C300087FE0DF5805090F85801112828D1032017
:101C4000C2E000BF04D0004000E100E020C5004039
:101C5000F51A020075BA01009D1A02000C08005026
:101C60007D790000080500502F18162659790000CC
:101C700001E400E0021D09200075004004730040EB
:101C8000FFFF3F000CFEFFFF08FDFFFF5800002094
:101C900006A80AF5627500F58A514FF48472284649
:101CA00039F086FB204618F02BFCDAF894044179D1
:101CB00051B9297841B9DAF88C13C84A914203D155
:101CC000807940F264418BE001200AF5FD62AAF8B8
:101CD000F40700208AF84808DAF8B806CAF8E807D6
:101CE000DAE9E001CAF8F827CAF8FC07CAF80018D0
:101CF000DDF8D0B041F65820D9F800100BEB000405
:101D000020461AF0C7FA042803D104205CE003201F
:101D10005DE0204618F007FC0020DAF8E8978AF822
:101D2000F407DAE9E00113F04BFC82460BF593501F
:101D300033960E46D0F898040DF5CF6801794046E9
:101D400016F08AFB0BF5935101204FF4077281F8CE
:101D5000F50741F2FC600BEB00054146284638F0E0
:101D6000D5FD0BF593500DF6F8322946C0F8B8961C
:101D70000BF59350DDF8D490C0F8BCA60BF5935A40
:101D80000020CAF8C0660DF5CF668DF8F80B9348B1
:101D9000CDF8FC0B304616F08DFB314620464FF453
:101DA0004272339E39F004FB41F658200BEB0004DD
:101DB000D9F800200DF6F830214616F08FFCDDF83A
:101DC000F80B092806D10520319908700420032159
:101DD000317008E2204618F073FB002040F2744195
:101DE0002E9D4FF4527268543498DAF89C4400F5F2
:101DF000B85139A838F08AFD4FF48070022CAAF847
:101E0000F507E3D095F8761405F58F6005293CD0E9
:101E1000DDF8D8B0042935D0032940D118F070FB83
:101E20003AE0594611F8200F2791002800F0588118
:101E3000032810D1584610F8381F2D901038DFE8CD
:101E400011F00500CC01DD150E0255010068D1E14D
:101E5000DDF8D0B0A8E7594611F8300F3391DFE82C
:101E600010F054041305CD15F00505009BF844004F
:101E7000002800F05681032840F00E85DBF83C6016
:101E800000F027BD18F04FFB03E018F019FBDDF858
:101E9000D8B0002085F87404002085F875045146F8
:101EA000012041F8244F4FF45272339181F8F00A27
:101EB00041F288203499084439A938F027FD0DF5FE
:101EC000CF6900200021302906D009EB010249F832
:101ED000010008315060F6E70DF22C4049463022EF
:101EE00039F089FBDAF8200000210022AAF87B13E0
:101EF000062A03D049F822100132F9E7349C41F256
:101F0000D45141F23463CAF89803E018625821446E
:101F1000E25030228988818041F2FC5020440DF249
:101F20002C4139F068FBCC462E999CE87D007DC1A0
:101F3000002000218AF8DA03CAE9F3008AF87A035C
:101F4000022903D029F811000131F9E700204FF4EC
:101F5000C021CBF8C005CBF8C4058BF8EA05ABF877
:101F6000E805CBF8D405CBF8D805CBF8DC05022082
:101F7000CBF8D0154FF4FA618AF8E40340F6F62066
:101F8000CAE9F7101649DDF87826164BCBF8E0259C
:101F9000CBF8E435D1F8FC00C007134809D1012281
:101FA0004FF4A02382600A600360104B4260CA5065
:101FB00024E0816801F00901012906D10168B1F529
:101FC000A02F04BF4168012918D00948A7F12102B8
:101FD000009012210748084B1EF07BF970E4072A95
:101FE000040301400100000104050140FCFCFFFF67
:101FF00008130400F4120400281304000BF5BE6E4D
:10200000DD4C0BF5B8613191C0F8FC4000204FF475
:1020100020348BF8F805CEE900400AF57773D74CE9
:102020008AF87D03D4F804A0D4F80090DDF8D080BD
:1020300008F5935108F59356C1F8700408F59351CB
:10204000C1F8740408F59351C1F8E80308F59351F9
:10205000C1F8EC0308F5935181F86C0408F593512D
:10206000C1F8683441F2D86308EB030B96E83E10E0
:102070008BE83E104AF4404108F5935ADDF8D8B099
:10208000ABF808103399CBF878123199CBF8E810F7
:102090002E99CBF80490CBF818105946DDF8D4905F
:1020A00001F8200F2791594641F8100FCBF89805F9
:1020B000CBF89C05CBE95800CBF814008BF8B80599
:1020C000CBF8B0E58BF880028BF8F000CBE9380054
:1020D0008BF80A00CBF800000AF57A702A912E904E
:1020E000DBF81800CBF81C0000F04ABC594611F888
:1020F000DC0FA1F1A006289188B1032870D15946C0
:1021000011F8D80FA1F194042C9170B129940328EF
:10211000349C2B9600F0A48199481EF028F9306871
:1021200023E1DBF8380000F0D0BB20686AE1044608
:1021300045E094487921944ABFF32F8F1CF086FD27
:10214000924800F02DBC924800F02ABC914800F063
:1021500027BC91481EF00BF9904800F021BC1EF0FE
:102160006DFD044602E0044637F09EFD8C4827E0F2
:102170008C48A7F1210200902B218B488B4B1EF03D
:10218000A8F800EAE0741AE089481EF00DFA20462B
:102190001EF0FCF91EF0F0FA6FF015040FE00020BD
:1021A000BFF32F8FFFF7C0BB824800F0F9BB044696
:1021B00026F058FB0020BFF35F8FCAF810007E485E
:1021C0001EF0F2F920461FF021FA00F0EDBB7B482B
:1021D0001EF0CDF87A481EF0CAF87A481EF0C7F80B
:1021E00079481EF0C4F88AF87E030DF5C75D01B08A
:1021F00023F02CBECBF82C00C16C0422CBF830109D
:10220000006DCBE91012CBF83400349943F2A040B2
:10221000084418F04AFE012840F098800329CBF8C2
:102220003C1011D8DBF82C00012208446749007EDD
:1022300001F5407124F0FCF93CBF40F20851C5F2B1
:10224000000102FA00F008600DF5CF60012224F0D1
:10225000CEF823F016FDCBE912128BF8500034991A
:1022600043F2A84023F0A9FD002840F0A982574876
:10227000594600254FF07D0982465548804651F861
:10228000300F3391C968814208BFDBF834501C20FD
:1022900000EBC50B052D3FD8369B08F10402D86A28
:1022A000411991F85410202938BF0AF10802126828
:1022B000DC6B042C80F0B98200EB4406204401F072
:1022C0001F0110F8250022FA01F101F001018142FD
:1022D00012D01EF019FCA0FB090201FB0921000B22
:1022E00040EA015001040AD036F80B1029B1401A17
:1022F00080B2132803D9CBE1002026F80B003698D2
:10230000C06A011911F8251011B1012180F85A1085
:1023100001350BF1080BBDE7DDF8D8B0DBF83C0068
:1023200003280DD8DBF82C100844007E24F080F937
:1023300038BF0AF10408012101FA00F0C8F80000D2
:102340003498DDF8D49000F5935A5EE7DBF82C0062
:1023500090F85A10002940F091815E46002146F81D
:102360003C0F324602F8A01F2892184A0021CBF8F1
:1023700040001830012339E03546526E60000010ED
:10238000A0D8030010D903004CD903003D00000081
:102390003E0000001A00000088D70300150000006E
:1023A0001100000098D703002422040060EB030012
:1023B0001B0000001C00000010000000C4EA030025
:1023C000D4EA0300A8D7030090D803000805005002
:1023D0000C080050445C1546202C04F01F0428BF54
:1023E00005F54075013103FA04F42C600429F1D19C
:1023F000DBF840005C4644F8440F0021224602F816
:10240000941F2C920DF6F83100220023062B03D0E6
:1024100041F823200133F9E754300022062A04D082
:10242000831841F822300132F8E70DF6F8300DF547
:10243000CF620021002329942B96242B07D010C8AB
:1024400042F8234002EB830406332175F5E7349C00
:1024500043F2A8400DF5CF619022204438F056FA9F
:1024600043F2B44004EB000E43F2A840002620449F
:1024700000243190902E00F083800EEB060AAAF122
:102480000C019AF80800D8B1032840F0D88131989F
:10249000D3461BF8042FAAF108013044CAB1032A1D
:1024A00040F0D0815446AAF1040914F8012F002A03
:1024B0005DD0032A40F0E4811EF8068033912BE0C2
:1024C000D346086851460BF8044F41F8080D339184
:1024D00004E0021D00F1100B08683392D1464EF85B
:1024E00006400AF1010449F8040DD8490278A1F523
:1024F0000271202A02F01F0238BF4FF0A0410225CE
:1025000001EB8201D1F8002765F31142C1F80027E1
:1025100090F800800EF80680B8F1300F80F08A81C4
:1025200035997546CA48096800EBC800D1E9001220
:102530001EF052FCC54808F01F01B8F1200FA0F5AD
:10254000027038BF4FF0A04000EB8100D0F80007C8
:1025500010F4403F50D0032018362070AE468BF860
:10256000000000248AF80800DDF8D8B082E700F106
:10257000080200F10D04D9F8000091463391B4E748
:102580002C9903200870289908700420349901F5CB
:10259000935A2D99087003202799087000202D90D8
:1025A000DBE93801084318BF01202C9040F0048279
:1025B0009BF8F000002800F0BB80032840F0BD80AD
:1025C0009BF81C010BF1F8090BF58E76002800F042
:1025D000CD80032840F05C819BF800010BF58078EA
:1025E000DFE810F0070062010C1275021D0468029A
:1025F000C002D9F8000043E2AAF10C000C301EF032
:102600003FFB01264846267017F024FF33988BF8CD
:10261000006017F02AFF31988AF8086018F049F92D
:10262000DDF8D8B029988BF8D86018F076FADBF886
:1026300040000021349B874A1830DDF8D49003F520
:10264000935A824D04290BD0435C1446202B03F08F
:102650001F0338BF2C1D013106FA03F32360F1E795
:102660002899012008702B9991F8A000032804BF35
:1026700001F1080018F051FADBF82C00002180F875
:102680005A10DBF82C00C0E91311DBF82C00B3E57D
:10269000002026F80B00DDF8D8B0DBF82C1001EB99
:1026A00085010A5D82F001020A55DBF82C10DBF887
:1026B0003C20C1E913250121DBF82C2082F85A10B7
:1026C000DBF83C20032A0DD8DBF82C301A44127EAC
:1026D000202A02F01F0238BF0AF1040801FA02F2B0
:1026E000C8F80020DBF82C20DDF8D49002EB85023E
:1026F000125D8BF83000200440EA05608BF838103A
:102700001044CBF8280023F08BFF01208BF8310018
:10271000DBF82800CBF834000BF1380020F03CFA4D
:102720009BF83800012800F08181DBF83C00BFE015
:10273000DBF8E800CBF8EC0092E19BF806010BF522
:102740008374DDF8D490349DDFE810F0DC029E0045
:1027500058110500130043F27850D9F800102844AE
:102760001EF054FC00282DD0032021E1DBF81801D5
:102770007FE143F268502B942B189BF81A010BF55C
:102780008D720BF59078DFE810F0E4028B003911C0
:1027900005001F009BF832010BF5997129913193C7
:1027A0003392349CDFE810F0150370002A11730394
:1027B00005009BF85A01A0B3032800F0A3836BE047
:1027C0000320E6E6349DA6E25846319390F82701AF
:1027D0000BF2271B3392DFE810F0050057001111B0
:1027E00066040900369CB4F82401C4E2369C94F8CF
:1027F000360180B103284FD1369A0021B2F82C015E
:10280000A2F82C11012840F02684B2F82E51D2F8FB
:10281000300100F06FBCB4F83451D4F8280100F056
:1028200062BCDBF83401349D60E30B4A204604218E
:102830001DF07EF8094A404630211DF079F808481D
:102840001DF095FD07481DF092FD00BF08050050E2
:102850000C5D00200C080050B8D703005410040091
:1028600000D90300F0D80300E0D80300E8E9030032
:1028700060F30300B0D8030078D7030048E90300F1
:102880005FF81C001DF073FD5FF820001DF06FFD68
:102890005FF824001DF06BFD5FF828001DF067FD58
:1028A0005FF82C001DF063FD5FF830001DF05FFD48
:1028B000CBF82C00002034998BF844008BF83100C1
:1028C00043F28C400844CBF83800DBF83460CBE9A5
:1028D0000F6002208BF83C00F0B2022800F0BB83AE
:1028E000DBF84000DF4D00682968C90541F0DD8252
:1028F000DD4918F077FAD0F8EC200C4602211AB323
:10290000017C41B1D9F80010C830D1E9001205F0BE
:1029100089FB314618E0D0E90213A84600EBC30555
:10292000C5E905625A1CB2F1100318BF1346C36013
:10293000994204BF0121017423F0C4FCE0E8251290
:102940001FF033FB0221454623F007FCC8B20228E2
:102950001FD10124DBF82C008BF844402968C905FD
:1029600041F0A382C14918F03DFAD0F8F020013AB5
:10297000C0F8F02023F0C8FAABF83040DBF81C00B8
:102980005A46002142F8280F02F8101F2D92FFF737
:1029900031BC0320CBF83C108BF84400042058E0F5
:1029A0001DF00EFE1DF034FE1DF0E6FE1DF030FEA3
:1029B000207004208BF8F000DBE9580150EA010890
:1029C00018BF4FF0010840F015859BF880120720D2
:1029D000DDF8D490DFE811F00800121012100D009D
:1029E0001B00460410000C05DBF87802CBF87C02D3
:1029F000D9E3DBF88842D9E39BF8E0020BF53875A0
:102A000040B1032800F0E68499481DF0B0FC349CE6
:102A100000F066BCDBF8880200F0D2BC0DF5CF6098
:102A200020F0BAF89DF87806012816D10DF5CF6090
:102A3000212223F0DCFC23F024F9CBE910128BF8DF
:102A40004800349943F2A04023F0B7F90028E5D0BC
:102A500003203399087004209EE5DDF87C0627E703
:102A60000021CBF818018BF81C110BF1F8090BF5BC
:102A70008E760021CBF8F8008BF800110BF58078EA
:102A8000CBF8FC00D0E90612114318D00168C90741
:102A90001CBF90F82710002940F0B581D0E904232D
:102AA0000DF5CF601EF0F0F923F0EBF8CBE9421200
:102AB0008BF8100123F0FAFAC0B10520B9E100212A
:102AC0008BF80C1100F122012830CBE9410123F0F1
:102AD000F5FA002840F0AA819BF80C0118F05DF986
:102AE0001EF012F8DBF8FC20C2E90601DBF8FC005E
:102AF000D0E906541EF008F8421B71EB0402C0F046
:102B0000A681401B49F6BA13A1410022181A72EBA4
:102B100001003EBFDBF8FC00012180F8271023F004
:102B2000A6FE012847D191F82A00012804D0514877
:102B30001DF046FDDBF8FC1091F826000022222350
:102B400080F0010081F82600DBF8FC0090F82610E8
:102B50008BF80C2100F12802002918BF202318440B
:102B6000CBE9412023F0AAFA002840F061819BF8CC
:102B70000C0118F012F9DBF8FC00418C028C511AA0
:102B800009B2002948BF494209B296290ADD00214D
:102B900080F827101DF0B8FFDBF8FC20C2E9060121
:102BA000DBF8FC00002180F82A10DBF8FC0080F83C
:102BB000291023F05CFE91F826302222002B18BF4A
:102BC0002022002840F04A8191F8240060B191F859
:102BD0002A00002840F0458101208E5A81F82A0001
:102BE000022423F0C6FC66E0002091F82530CDF8E1
:102BF000F80BADF8FC0B0220ADF8020C0120032B02
:102C0000CDF8FE0B26D82BB3032B0DF6F83E08BFEC
:102C10000223002447F6FF7C4FF0010AA34239D07B
:102C2000DBF8FC6096F82A00002840F00B818D5EEE
:102C3000A5F58040002D00B209D44000032C00F01F
:102C4000FD802EF82400013486F82AA0E6E78CEAFD
:102C5000E030F3E708481DF0B3FC23F08AFCDBF812
:102C6000FC000FE704ED00E024E6030034E6030077
:102C700014E70300340000003200000088E903007C
:102C800078E903001700000058E9030098E9030001
:102C900068E9030023F0EBFD002840F0E58091F89F
:102CA00028B00120DDF8FC5B0024DDF800ACBDF8A5
:102CB000F86B81F82900012088F8000099F80800D5
:102CC000062812BF032899F8140018F066F8369900
:102CD0000020DDF8D490C1F8FC50349D81F8FB4011
:102CE00001F58374C1F800A105F5935A81F804B188
:102CF0008B4681F8060181F8FA000120A1F8F860FE
:102D000081F81C0143F26A5043F258512844294487
:102D10000E2238F070FC2B94002443F26A508BF89A
:102D20000741291806A800F58A560E2223F09FF8BD
:102D30000BF20710CBF8080143F26C5028442CCE5C
:102D40002CC00BF58D720BF5847331888BF81A410A
:102D500001809BF80F11BBF80C01022933923193CB
:102D60001CD10021ABF824018BF827110BF59078CA
:102D70005C460BF2271BA4F82801012084F82601E9
:102D800004F596701FF0D6FF94F82C01012800F08E
:102D90007A81D4F83001C4F8200198E1ABF824011D
:102DA0000BF590789BF80E01349C8BF8260143F2CA
:102DB000705020448BF8271143F288510CC82144ED
:102DC0000CC10022008808800BF599708BF8322125
:102DD0002990012043F294518BF8330143F284503F
:102DE000204421441CC81CC1008808800BF5A27037
:102DF0001FF0F8FE9BF84401012838D0DBF84801A9
:102E0000CBF8200159E0D0E902230DF5CF601EF088
:102E10003BF822F036FFCBE942128BF8100123F089
:102E200045F900283FF462AE042002E0032000E0F0
:102E3000062088F8000003203070BBE55FF8C4214D
:102E400023F044F95FF8C82101211CF071FD5FF8FF
:102E5000CC011DF0A9FB1EF02BF8A5E55FF8D821E9
:102E6000F2E75FF8D821EFE75FF8DC21ECE70DF639
:102E7000F830212223F0BBFA349CDDF8FC2B9DF8BE
:102E8000000CDDF8F81BCBE954128BF8580143F223
:102E9000B050D9F8001020441EF0B8F8002840F0D7
:102EA0009E800DF6F8301FF09DFE9DF8F80B01286E
:102EB000DDD0DDF8FC0BC8F8000000240BF59A709B
:102EC0008BF833410DF5CF6168C801F1140268C277
:102ED0000088349D108043F2985028442222CBF879
:102EE000348138F088FB8BF85A414046CBF83801E2
:102EF00043F2AC50284443F29C5129441CC81CC1E5
:102F0000008808809BF83F5102208BF83F01022D7A
:102F100000F0A180349943F29C505C460DF6F839DC
:102F200001EB000BBBF80000ADF85C049BF802005D
:102F30008DF85E0443F2A050084449460CC80CC109
:102F400000880880D4F83801D44900680968C905A8
:102F500040F0AB875FF8F01217F044FF8A46D0F8D4
:102F6000FC1039B3027CE2BBC268BDF85C6402EBC2
:102F7000820300EB83039E829DF85E64DD7503F19E
:102F800018059E75B9E8500050C55962511CB1F141
:102F9000080218BF0A46B9F8001029808168C2608B
:102FA000914204BF0121017423F08CF9E0E82D1255
:102FB0001FF03AF8DAF800000124DDF8D8B023F069
:102FC00089FADBF820018BF85A4117F0A5FB40463F
:102FD000ABF8324117F016FA23F022FB3EE0032053
:102FE00035E09DF85E140DF5B6568DF86A15D830AB
:102FF000BDF85C14ADF868153146B9E80C000CC199
:10300000B9F800200A8035990968D1E9001205F065
:1030100009F8DAF80000349B23F05CFA9DF86A05A1
:1030200003F5935A8BF80200BDF86805ABF8000071
:1030300043F2A050DDF8D8B018448BF83F5106CECB
:1030400006C03188018003208BF85A010420299999
:1030500008700320A1E092481CF05AFC339901202B
:1030600008703198817C1830042904D0032904D1D8
:1030700017F0C8F901E017F0DFF90120ABF80601FD
:10308000DBF8EC00ECE40DF5CF60212223F0AFF982
:10309000DDF87C26369B9DF88006DDF87816C3E9BE
:1030A0004E1283F84001349943F2985022F085FE85
:1030B000002857D10DF5CF601FF03CFE9DF8780633
:1030C0000128E0D0DDF87C06C8F80000369C00201E
:1030D000B4F8285184F8260184F836014046C4F833
:1030E0002881A4F8345129040131C4E94B1000218E
:1030F000A4F82C11694900680968C90540F0D58613
:103100005FF89C1417F06EFE0C46C16BB1B1027CE7
:1031100052BBD0E9022300EBC306B161591C8B1EE0
:10312000B58218BF0B46C3609A4204BF01210174E7
:1031300023F0C8F8E0E809121EF018FF2068DDF857
:10314000D8B00130206001208BF83601DBF8200177
:1031500017F06EFB4FF48070ABF82601404617F075
:103160006BF97BE7032013E0D9F800103030D1E988
:10317000001204F029FF20683699013020600120F8
:10318000A1F82C01032081F836010420A1F82E516A
:103190008BF800000420DDF8D8B033992B9C087020
:1031A0000420FFF705BC3F4CCBF888423B48006841
:1031B000C00540F07A862068002841F017844FF05F
:1031C000FF3000212060207C012804D104F58C60B0
:1031D0001DF0B8FD217CD4E90202904201D1C9075B
:1031E0000ED000212174411C00EB00100A1F18BFF3
:1031F0000A46A26004EB001010F8185F032D09D1F5
:10320000D9F80000D0E9001204F58B601DF0A7FD8D
:10321000032506E0411C0DF6F83040F20F1238F09D
:10322000EAF922F09AFF032D00F0C0800DF6F83481
:103230000BF2691040F20F128BF86851214638F0FA
:10324000DAF98DB30020012D40F0B2808BF86404D0
:103250009BF869018BF88802DBF87C02DBF86A11C5
:10326000CBE9A310349943F2EC60D9F800200DF5B6
:10327000CF650C182846214615F062FB9DF878664C
:10328000112E00F08C80691C0DF5AD6023F0E6F87E
:10329000204617F035F99BF8889261E004ED00E0D4
:1032A000E8D7030008660020E11D0DF5B6544FF481
:1032B000847222F00CFEDBF87C120DF5CF65BBF8B2
:1032C00069012246ABF88802284615F0F3F8349CD1
:1032D00043F2F06029464FF44272204438F068F817
:1032E00043F2F0600444D9F80020A7F1A800214679
:1032F00015F0F4F957F8A85C092D52D0204657E98B
:10330000299A17F0DDF8082D0BD106A840F2071214
:1033100000F58A50411C0DF58C6038F06CF90F26D1
:103320000DE00DF58050102680F8586106A800F5D4
:103330008A50011D043081E8200615F027F89BF81B
:1033400088020128349800F5935A25D10DF5AD6017
:103350000DF58C6140F207129BF8899237F0D6FA8E
:10336000C1480068C00540F0A085C0480DF5AD61BA
:1033700040F20712057A0672D0E9006480F80090E6
:10338000093038F038F9DDF8D490122D7FF40BAF06
:1033900071682046884706E7DDF8D49003E70520EA
:1033A00026E03499042001F5935A21E003201FE020
:1033B0008BF8E0020BF53875DBF87C02CBF888025D
:1033C0000023D0E988128BF8DC3200F507700BF58A
:1033D000237307C3349943F2EC600C18D9F800103A
:1033E000204618F057FF04281FD10320287006201C
:1033F0008BF88002DDE92C100840DBF89C1508EA08
:103400000008DBF8980550EA010918BF4FF00109E0
:1034100033D1974D0BF5B464964E9BF8B80500BBBD
:10342000DBF8B005CBF8B40506E0204617F07BF8D2
:10343000012028701FF0FCF8007A00F0070005EB6F
:103440008000C0F8FC62DBF8B405D0E900230DF57C
:10345000CF601DF019FD22F014FCC4E900128BF8B6
:10346000A8053598016820461DF0D0FD10B9DBF89D
:10347000B405E1E703208BF8B80508EA0900012844
:1034800000F07C80DDF8D4904FF000082E98D0E951
:10349000000150EA010518BF012540F0BD80CDF8BC
:1034A000C4800AF57C789AF86C04339580B19AF858
:1034B0001804042814D0032820D19AF864040028A2
:1034C00040D003286CD1DAF85C24DAF8601470E09C
:1034D00000208AF81804DAF86804CAF810040FE02B
:1034E0009AF828040AF58569DFE810F005005A000B
:1034F000880A3F002F00DAF82444E8E0DAF81004E4
:10350000CAF8140458480068C00540F0CE845A48F0
:103510001EF0C4FC594C606C98BB0120D4E90256E3
:10352000606422F01AFE0DF5CF601EF07DFC0DF5F3
:10353000CF620AF58063CAE9FC5607CACAF8F843A5
:1035400007C31BE1DAF820041EE19AF83004C00733
:1035500029D1DAF82C440AF586659AF83104002856
:1035600040F0C98000200121CEE09AF83204C00763
:103570001CD1BAF83024DAF82C44D6E02A980EF0A0
:10358000EBFC20680DF5CF623D4BB7210130206088
:1035900000208DF878063B4800903B481CF099FECF
:1035A0003A481CF0E4FE3A481CF0E1FE39481CF0B1
:1035B000DEFE06A8CDF8F81B00F58A533648CDF894
:1035C00084060DF6F830CDF88006002433480DF55A
:1035D000CF651A600026CDF87C06CDF87836102C21
:1035E0000DD02919285949680A6949469047C1B23E
:1035F00008340329F3D0022952D10126EFE7F0075E
:1036000000F02283DDF8C4800320339D8AF86C0427
:103610008AF818048AF86404DAF87004DAF8741482
:1036200050EA010318BF012341F02C869BF80A00E1
:10363000CDF8C480002833952E9300F0BD80329AD7
:10364000032840F00C8392F8CB0502F5B66ADFE858
:1036500010F005000A03D509B002A102D2F8B8158E
:10366000D2F8C05524E200BF04ED00E0A000002025
:10367000040301403546526E5C12040030630020A2
:1036800018130400C41504000C150400F8D7030037
:10369000B8E90300A8E903001CD8030008D8030018
:1036A000B0D00121DAF814448AF8641400218AF8B1
:1036B0002814C1075E490AF585691CBF40F2011153
:1036C000CFF6FF710840CAF82004CAF824449AF8DB
:1036D0002004C00723D09AF821040AF58665012149
:1036E000CAF82C4410F001004FEA0020CAF8300458
:1036F0004FF0000008D0207A002102281CBF627A17
:10370000014601F001000021D2B240EA022040EA65
:10371000014120461EF02CFF012028702AE0BAF853
:103720002224CAF82C44CAF83024267A022E08D162
:10373000D4E900011EF0D4FEC0B23E4941EA0021A6
:103740000FE0A57A85B1D4E9000194F809A01EF034
:10375000C7FEC0B20EB1824506D0000240EA054065
:10376000411C20461EF004FF3499012001F5935AB4
:103770008AF8320489F80000DDF8D4900020CAF8F5
:1037800020848AF864044046002101228AF85814F3
:103790008AF83C140AF58861CAF84024CAF824243F
:1037A0000AF22442CAF828041030CAF85C24CAF885
:1037B0006014CAF84404FCE6349941F2D86001EB85
:1037C000000CDBF800008B460DF58C612D902C91E0
:1037D0009CE87D007DC143F264400BEB00015BF887
:1037E00000000DF5CF648988CDF87006201DADF876
:1037F00074164FF45E7137F004FF41F674500026E2
:10380000584421464FF45F72CAF8106B37F07EF8C7
:10381000094D0AF531602B90B6F5B06F20D0A01994
:1038200029464FF4B07237F071F806F5B076F3E739
:103830000100FFFF0100020028E20300706A00207F
:1038400030D803007100000080EA0300A0EA030002
:1038500004EB0300D8E9030024EB03000CE40300AD
:10386000329C42F2EC2058440DF5CF614FF4B06227
:103870004FF00008A14649F8088F37F047F80DF5DA
:103880008050C4E90088CAF8988E0DF6F83BCAF853
:10389000908E202180F85C8506A800F58A54584651
:1038A000C4E9FE88C4F8008437F0ABFE0DF5B655C8
:1038B0005946284621F004F80DF5AD6629463046F4
:1038C00021F04CF804F52E70314621F065F80BF12B
:1038D000090029464FF49C7237F08DFE04F52670DE
:1038E000314622F03EFC0DF58051022040F241129B
:1038F000C4E90A8881F8AE020DF580505946C4E942
:103900000C8880F8788104F25710C4F81880C4F845
:10391000108037F070FE0DF58051032001232B9AA3
:1039200081F858040DF580500AF56961C4E9002357
:1039300080F870840A20C4E902100BF107002146C8
:103940004FF4AB62C4F8F882C4F8D083C4F8C883DB
:10395000C4E9C488C4F80883C4F8F483C4F8EC83C9
:10396000C4F8E483C4E9F688C4F85085C4F84885EF
:10397000C4F87785C4F87385C4F86F85C4F86B857F
:1039800037F039FE349841F2F164594640F25F5203
:103990000519349E22F0B5FA04202821CAF8F4094A
:1039A00041F658403044CAF8F09937F0B1FD41F67D
:1039B00095400DF5B651304413228AF8348ACAF87E
:1039C0002C8ACAF8248A37F016FE03200121CAF88F
:1039D000B80A4FF0E170CAF8A00A02208AF88C0AEF
:1039E0008AF8740A8AF85C0A41F648503044DDF8D7
:1039F000C890CAF8E41A1521CAF8BC8ACAF8E09A35
:103A0000CAF8D88ACAF8A48ACAF8A88ACAF8AC8AB6
:103A1000CAF8B08A8AF89C8ACAF8908ACAF8948A46
:103A2000CAF8848ACAF8788ACAF87C8ACAF86C8A82
:103A3000CAF8608ACAF8648ACAF8548ACAF8488AF6
:103A4000CAF84C8A37F064FDDDF870060121305168
:103A5000CDF87806BDF874068DF87E16ADF87C06B4
:103A6000DDF87B068AF890140DF5CF61C5F80300E8
:103A700006F5B850CAF8008B1FF020FFDDF8B0C083
:103A800042F6740030449CE87E007EC009F5B265C1
:103A90000AF592602D9909F5B66A4A4689F8CB85F0
:103AA000C9F8C055C9F8B81589F8AC85C9F89005AA
:103AB0000020C2F8BC150026144614F03DFA29680F
:103AC000281DC4F8B0050122C4F8B415297F2A774F
:103AD000012900F0C080C4F8DC0504F5E369C4F8EE
:103AE000D4052246C4F8CC050B20296884F8186751
:103AF00004F5BD66C4F81007C4F8E015C4F8D8157D
:103B0000C4F8D015DDF8D8B0DDF8C480339D0021AD
:103B1000C2F8140782F8F11502F21471C2F8EC151C
:103B200002F2F1540120C2F8F41582F8F0055FF8B2
:103B3000F4025030C2F8F805359909681FF078F89A
:103B400028B3329B5FF8A428C3F8E805017C013153
:103B500001740020D3F8F41583F8F005D3F8E805D4
:103B60000968007C83F8F9050120C3F80827C3F829
:103B7000FA1583F8F805349942F6D80008443599C7
:103B80001FF0FCF8002800F09680042000E00320DD
:103B9000329A95E002F5BA602690D2F8D005D2F8B4
:103BA000D415084321D03499012501F5935A01F029
:103BB00057BB92F8180702F5BD6602F5E36988B1B4
:103BC000032854D192F8F10502F2F154DFE810F025
:103BD000070057001607340006003100CBE7D2F883
:103BE000EC159FE7D2F8100791E702F5C461279121
:103BF000349992F8200601F5935ADFE810F0050099
:103C00003C00FF060A004E0AD2F8F0C5DDF8D0905D
:103C1000CEE002F6B410249092F8B40902F5C56122
:103C200068B1032828912ED1D2F8A809D0F80090C5
:103C30000EE1D2F8F4152EE0D2F8F8057CE7D2F8C0
:103C400000E9D2F804C9D4E05FF80C04A1215FF8C0
:103C5000C4251AF0FBFF5FF81404FEF7A1BE5FF85D
:103C600018041CF084FB5FF81C041CF080FB5FF858
:103C700020041CF07CFB5FF824041CF078FB5FF848
:103C800028041CF074FB5FF82C041CF070FB5FF838
:103C90002416C0F8F415359802680DF5CF601EF0B3
:103CA000EFFF9DF88056112D07D031689DF87806FA
:103CB000097C88420DD03298E9E7DDE932250520FC
:103CC00003212E9B89F800102070DDF8C0A001F0C0
:103CD000D4BA329CDDF88586DDF881B6D4F8E805E3
:103CE0001EF038FF4FF48070A4F8F005707A011FC1
:103CF000022904D230681EF02DFF329A02E02246DB
:103D0000032801D10020307201200B2D89F800001A
:103D100010D15FEACB700DD0012082F8C4054FEAC4
:103D20001840A2F8C9054FEA1B4040EA0840C2F813
:103D3000C50502E0002082F8C405DDF8D09042F607
:103D4000AC000DF5AD6E904609EB000C72469CE898
:103D50007B004FF0000C7BC242F6B8014944C8F822
:103D6000D0C5C8F8D4C59EE87D007DC142F6A40048
:103D7000484442F69C01C8F8380E08F5C460C8F8FB
:103D8000B8C9C8F8BCC9494488F847CE88F820C6E5
:103D90004FF0010CC8F83CAE09F5935A279008F58E
:103DA000BA60C8F8341EC8F8F0C52690DDF8D8B05F
:103DB00042F6B80109EB010842F6D40109EB010E05
:103DC00098E87700734677C3DA480068C0056CD17D
:103DD0005FF898050121329A0172002082F8B40937
:103DE00002F6B410C2F800E902F5C561C2F804C9D0
:103DF0002490329B002082F83A0603F51169329B29
:103E000082F8410982F8C2080EF10800C2F82C06B7
:103E100002F60810C3F8A4992891C2F8081902F60E
:103E20000C11C2F898E7C2F89CC7329A329B02F68E
:103E3000A412C3F8A829329AC2F8B0090EF11000F2
:103E4000C2F83C0902F5F360C2F8AC19C2F80C09DB
:103E500099F83100DFE810F007002C00D2051200BD
:103E60001C0090002500002089F83000D9F82C00B3
:103E7000C9F8280022F09FFAC9F83400359909F1F1
:103E8000340018F0EBFA002840F0F580032008E138
:103E90004E4616F83C0F28B103280CD1D9F83850FB
:103EA00010E0ADE0D9F8340008E0A348FEF778BD93
:103EB000A2481CF05CFAA2481CF059FA00F57E7585
:103EC000C9F838502868002840F090854FF0FF303E
:103ED00000212860287B012804D105F5AC701CF076
:103EE00031FF297BD5E90102904201D1C90718D0E1
:103EF00000212973411C00EB8000B1F1100218BFB2
:103F00000A466A6005EB8001486950B101F1100C66
:103F10000DF6F8325CF8081B2D919CE81A001AC2C5
:103F200007E0359822F043FA05F5A8701CF017FF5A
:103F300000202968013129600121002808BF0321E0
:103F4000317000F0AD800DF6F8310DF5B65291E804
:103F50007000134670C3C9F8000009F1040092E82C
:103F60001A001AC0002089F844002D98A9F84000D2
:103F7000D9F82800C9F8340009F1340A0DF5CF6BDF
:103F8000359A584651460AF083F9DDF8780602283A
:103F90007CD00120594689F8300009F1100C91E8D5
:103FA0007D008CE87D00D9F81000012817D199F820
:103FB000141041F008001C28349800F5935A53D08F
:103FC00000202B9189F830000BF10C009DF87D86C4
:103FD000BDF87EB6DDF880A621F0D6FF0EE10BF12C
:103FE0000400514690E87C007CC1D9E9020118F038
:103FF00091FD0022C9F868A089F86D20C9E9140173
:10400000359809F148040DF6F8352146026828462E
:104010000DF008F89DF8F86B232E39D005F1080053
:10402000DDF8FCABBDF8FABB9DF8F98B06A990E86A
:104030002C0001F58A5120462CC116F0B8FCA6F1DF
:1040400014000E2800F2CC80012101FA00F044F2A5
:104050000111084200F0C480D9F83800B9F83C20BA
:1040600021F097FE22F0DCFA22F024FADDF8D8B035
:10407000002089F83000D9F8280000214E46406819
:1040800006F83C1F083046F8080C17E7052000E04A
:1040900006203499329A01F5935ADDF8D8B001E040
:1040A0000420329A89F831000DF5CF64D2F8AC09BA
:1040B0001546DDF8D490016820464A460AF052F9C8
:1040C0009DF87806232840F07D80D5F8B0090023BC
:1040D000D0F8008008F108001A9098F81200CDF886
:1040E000BC800022DFE810F01A003E028A04DA00E9
:1040F000D100960513010B011B01B00096002301AE
:10410000FC0041010208B8004A012C016601A10F20
:10411000BF0050016E0FEC0E9E00B409D8F80400E9
:104120004146C8F80000006841F8140F0A7249605F
:10413000BAE000BF04ED00E02500000014E5030034
:10414000D8E10300C0EF030060F0030050EF03006C
:1041500080F0030090F00300F0EE0300C4E40300DD
:1041600000EF030030EF030010EF030090EF0300B7
:1041700020EF030044E5030048E1030078DC03007E
:10418000F0EF0300B0EF0300E0EF030044E40300AE
:1041900054E4030000F0030030F00300F8E00300F3
:1041A00008E10300DCDA0300ECDA030064E4030056
:1041B000FCDA03003F000000A4E4030054E5030020
:1041C000881B04002B9004F10800DDF87CA6BDF8E4
:1041D0007A569DF879B621F0D7FE2C4600F0CCBE79
:1041E0002B9605A82F9C00F5B55094E80E000EC044
:1041F000D9F83800B9F83C2021F0CBFD22F05AF96B
:104200004FF480705C46A9F83000C346DDF8D490C6
:1042100000F0B2BE22F014FA00F084855FF8DC00F2
:104220001CF0A5F8414611F8580F2B91DFE810F06B
:1042300005009E01E603EA00D400D8E91450259059
:1042400022F066FB01F0C1B922F0FAF900F04085D6
:104250005FF80C011CF08BF80020D8F85050179034
:1042600000201690A6E14446002114F8280F16916C
:1042700021F0DCFDDFE810F005005E01C2035D0EF9
:10428000DC0022F0DEFA01F046BE98F82800C007F4
:1042900000F0D4835FF84C011CF069F822F0D0F9EB
:1042A00040F04C81D8F814000168002940F03E81AC
:1042B0000221017124F080F90121002888F81C10E6
:1042C00040F04B8608F134042021202622F0FCFA2D
:1042D0000820C8E90546C8F81C0022F0A1F992E3BD
:1042E000444614F81C0FA4F10806DFE810F005009E
:1042F00023018703A105AE00306800F093BD22F0D2
:104300009FF940F01F81D8F8180000F0C4BC22F0DB
:1043100097F940F01B81D8F8180000F0AFBC22F0EC
:104320008FF940F01781D8F8180000F0C0BC98F859
:104330002400C00740F01281D8F8204000F04EBDA4
:10434000424612F8320FA2F11E03CDE92A32DFE80D
:1043500010F0050011015503A3008500D8E90540C0
:10436000159022F0D5FA01F095B998F82000C00711
:1043700000F0E9855FF828021BF0F9FF0020179094
:104380000020169001F003B84446002114F81E0FD7
:10439000169121F04BFDDFE810F00500CD00310350
:1043A000D90E9D000021D8F8180016910021179110
:1043B00001F0C2BE4446002114F81C0F169121F0F2
:1043C00035FDDFE810F00500B7001B0393089300EC
:1043D00022F037FA01F084B84546002115F8A40F01
:1043E000169121F023FDDFE810F00500D900090344
:1043F000860C89000020D8F8649016900020179051
:1044000001F066BC4646002116F88C0F169121F08B
:104410000DFDDFE810F005008F00F3020D0D7F00A9
:104420000020D8F8604016900020179001F0EEBCF4
:1044300098F83400C00740F0A1800021D8E90B04AF
:1044400016910021179101F085BD98F82800C0074A
:1044500000F0F8845FF804031BF089FF21F059FF96
:1044600021F0E4FCDFE810F005009600CA02CA095A
:10447000200AD8E915154446159100211691D8E96E
:104480000E6098F85E20B8F85C8000211791299999
:10449000A1F1270901F06FB921F03BFF21F0C6FC23
:1044A000DFE810F005007800AC02C60A170BD8E967
:1044B00015191591B8F85C10129100211691D8E9E0
:1044C0000E3098F85E50002117912999A1F1270A22
:1044D00001F069BA98F82C00C00753D10021D8E93F
:1044E000090416910021179101F03FBE98F82800A9
:1044F000C0074BD122F00CFA01F006B898F8B000D2
:10450000C0074FD122F0A4F9D8F8AC0000211791D0
:1045100001F002BC98F89800C00747D122F098F942
:10452000D8F894000021179101F093BC5FF8D803EC
:104530001BF080FE5FF8DC031BF019FF5FF8E0035F
:104540001BF015FF5FF8E4031BF011FF5FF8E803B1
:104550001BF00DFF5FF8EC031BF009FF5FF8F003A1
:104560001BF005FF5FF8F4031BF001FF5FF8F80391
:104570001BF0FDFE5FF8FC031BF0F9FE5FF8000482
:104580001BF0F5FE5FF804041BF0F1FE5FF8080471
:104590001BF0EDFE5FF80C041BF0E9FE5FF8100461
:1045A0001BF0E5FE5FF814041BF0E1FE5FF8180451
:1045B0001BF0DDFE5FF81C1405F5787016F0F7FBB4
:1045C0000C46359910300E68D6E900121CF0C7FB76
:1045D00020685FF8343401302060D5E902120DF50F
:1045E000CF6016F03DFCDDF87C264FF45E70DDF800
:1045F00078164FF0FF3308F1180425945043A1F5C5
:104600005E7108F158022B92F8B101F55E7291F8D3
:10461000D4160133A0F55E7001291146F4D1D5E915
:1046200002C04FF006092C932D9092F85D0319906B
:10463000DDF88006B2F85823239201684FEA122E63
:104640001B9E0139016000F05BBEDDF8800621F0A1
:1046500009FED8F854505FF8B41405F5AD6B584610
:1046600016F0A5FB8846D6E9001230301CF077FB27
:10467000D5F860150DF5CF60D5F864255FF8D8340E
:10468000159016F000FCDDF87C164FF4B070DDF8E4
:10469000782641434FF0FF300C32C1B1134602F58A
:1046A000B07613F80C290130A1F5B071042A324616
:1046B000F3D91988002900F09581D5F864152C915B
:1046C0005988D5F860C5DDF880360A0A04E04FF055
:1046D000000BDDF8803600221D684FF007091B9E95
:1046E000013D1D60D8F800300133C8F80030BBF13F
:1046F000000F0BD0CDF8B4C0DC461990964623913C
:10470000DDF8D8B0DDF8BC8000F0FABD2B98359EFE
:1047100004683168656805F5BA6A50460DF0CEF850
:10472000DDF8BC80C0B2022822D105F5B769316836
:1047300048460DF0C3F8C0B202281BD105F5BD688C
:10474000316840460DF0BAF8C0B2052102282D911B
:1047500032D1606809F0D0F9B0B3606809F0D8FCD4
:1047600007212D9180B3DDF844E0DDF86CA028E04E
:10477000032100E00421DDF844E0DDF86CA02D9178
:1047800023900DF5B650DDF870C0A7F1D0014FF0C1
:10479000080990E87C0000207CC156462C900F98B8
:1047A00014903498CDF864A0CDF844E000F5935A05
:1047B000DDF8D8B000F0A4BDDDF844E0DDF86CA071
:1047C0002390DDF8BC80DCE750460DF09FF810B375
:1047D00048460DF09BF8F0B140460DF097F8D0B187
:1047E0005FF8381605F5C46016F0FCFA884635996E
:1047F00005462030096821F016FCD5E90030032178
:1048000000222D93C5E9001283F00301084340F014
:10481000D58021F0F5FA2F98D0F82880D8F8000339
:10482000002840F0E3804FF0FF300021C8F800037B
:1048300098F81003012805D108F572701CF082FA6F
:1048400098F81013D8E9C202904201D1C90711D0DB
:10485000002188F81013411CC0EBC000CA1E18BF0D
:104860000A46C8F8082308EBC000B0F81893B9F15D
:10487000050F09D1359821F09AFD08F570701CF0EC
:104880006EFA4FF0050926E000F5467E0DF5CF6281
:104890000EF1140C9EF8130001909EF81200079080
:1048A000DEF804000390DEF808000490DEF80C0047
:1048B0000590BEF802000290BEF810509CE85B0024
:1048C0005BC20EF12800A7F1480190E85C00280ABD
:1048D0005CC106951690D8F800030130C8F80003B3
:1048E000B9F1050F31D13598016825981CF08EFB80
:1048F00000284AD10DF6F83CA7F1D001B9F10B0F11
:104900009CE85D005DC1A7F15800A7F1E00190E8C7
:104910005C005CC108981490099810900C982C9039
:104920000B982D900D9823900E9819900A981C9032
:104930003498DDF85CE0DDF8D8B000F5935ADDF886
:10494000BC8040F0DF8401F063BC159D0DF6F830AB
:10495000B9F1060F95E85E005EC0A7F15801A7F116
:10496000480090E85C005CC10198089002980990AA
:1049700003980A9004980B9005980C9006980D9057
:104980001698179007980E90B4D12F9890F8381079
:10499000349B0420DDE9355B03F5935ADDF8BC80D8
:1049A0001B9EDFE811F005002C002B009104330C56
:1049B000D8F83000C8F8340000F074BC287A0DF53F
:1049C000B6512390E87A0F9005F10C0095F809E0B4
:1049D00095F80AA090E87C007CC1714621F010FA9D
:1049E0008E46EEE65FF838081AF092FF5FF83C0852
:1049F0001BF0DAFD1EF09EFCFDF7D6BFFEDE5FF871
:104A000048081BF0B4FC08F11405002E63D0D8F858
:104A10001C10D8F81400B14228BF3146721A43184E
:104A20000028C8E9053256D0C8E90B010021D8F8A2
:104A30000000006888F82810C8E9080506A80024C6
:104A400000F58A50C0F8D846C0F8DC46A7F1D0007F
:104A500028F03DFA002840F08E800DF5CF60A7F1D8
:104A6000D00108221AF02CF8DDF88006002800F0AA
:104A70007F83DDF88406002840F07C83DDF878062B
:104A8000DDF87C16CDF8F80B0DF6F830CDF8FC1BF0
:104A90000DF5B65121F022FB06A80CC900F5BF5058
:104AA0000CC008230A8889780280817006A800F566
:104AB0008A515FF8F828D1F8A006D1F8A41647E982
:104AC0001201D8E90B010092A7F148021DF0E2F8AB
:104AD000D8F8186097E7D8F8000008F134010DF60F
:104AE000F8382022446821F0AFFC5FF82C1904F15B
:104AF000180016F077F90DF5CF6406468946414651
:104B000020461FF0DDFE06F5A47821464FF49C7286
:104B100021F05FFE0DF5CF64414620461FF01EFFD9
:104B200006F520782146202221F08EFC0DF5CF6479
:104B30004146DDF8BC8020461FF02EFF06F52870A8
:104B40002146402236F057FD21F0A6F921F074FDF0
:104B50000168CA072BD04268090A0126130A27F800
:104B6000F63C41EA026106AADDF8D49002F58A54C7
:104B7000C4F8AE1621E00002CDF8FF4BCDF8FB0BD8
:104B80000DF6F8300DF5B65121F0A8FA06A80CC9BB
:104B900000F5BF500CC00A8889780280817006A891
:104BA00000F58A51D1F8A306D1F8A726CDE2DDF8A9
:104BB000D49006A9002601F58A5400F110010DF5E4
:104BC000CF6007F8FB6C1EF08DFE9DF87816A7F1FC
:104BD000FB000DF5CF62002918BF1046D0F8012068
:104BE000B0F8050027F8F00C51EA0600C4F8B42626
:104BF00034D037F8F00CA88006A800F58A50D0F819
:104C0000B4062860D8F800000068C8E9070500204D
:104C100088F8240008F11C010DF5CF6016F050FF54
:104C20009DF87806032801D105200EE3DDF878060B
:104C3000C1B2022940F0878221F0FEFC08F05CFF3F
:104C400060B1D8F8000044681BF05EFFD8F800207F
:104C500021F0E8FAC4F81806C4F81C16E94848F22E
:104C60009C01C8F82400404640F8201F0022D8F8D4
:104C70000010096888F81C20C8E9051023F0ACFF73
:104C800001210022002888F81C1040F066814FF0B6
:104C9000007121F024F923F0B1FF01210022012845
:104CA00088F81C1000F25981D74921F018F923F037
:104CB000AFFF01210022002888F81C1040F04D8130
:104CC000D8F800004146006841F8140F0A724960A4
:104CD00000208DF8F80B0DF6F83028F08DF858BB51
:104CE0000DF5CF600DF6F831012219F043FE9DF865
:104CF0007806DDF87C16002900F04982DDF8801680
:104D00000024002940F0368288F80E00012088F83F
:104D10001C0008F11401D8F80000006888F81C4055
:104D2000C8E9050100208DF87A06ADF878060DF582
:104D3000CF6028F0D3F820B12C90012088F81C0017
:104D40000CE1BDF87806012188F81C1008F1140464
:104D5000C1B200023FFA80F01A9A40EA01209DF8A1
:104D60007A56000AA949A2F80700D8F8000055723F
:104D7000466806F5787016F01AF885610868A44B45
:104D800001300860D6E902120DF5CF6016F039F84F
:104D9000DDF87C264FF45E71DDF878065143349AD5
:104DA00002F5935A31B1C0F84053A1F55E7100F598
:104DB0005E70F7E7DDF8800621F01DF9FF21012084
:104DC000A8F81410D8F80010C8F81700002088F8C8
:104DD0001600096888F82400C8E90714204627F05F
:104DE000F1FF0120B8F80F5088F82400D8F800002F
:104DF00098F8116044681CF0F5FD94F86C1631B910
:104E00000121C4F86456C4F8686684F86C161CF076
:104E10001FFED8F80000464646F8140F002134461D
:104E200004F8081FC8F8180021F0C5FAC8F82000D7
:104E300008F1200021F09EF9D0B1D8F81800002127
:104E400021F09FFB0DF580510020A1F8C40606A9B2
:104E500001F58A51C1F868050DF5B65028F048F8FB
:104E600050B12C90012088F81C0088F8280075E0CB
:104E7000032020700C20E8E10DF5CF600DF5B65150
:104E8000062219F091FD9DF87846DDF8800600288D
:104E900000F07081DDF88406002840F06E819DF8F6
:104EA0007D060122DDF87916000288F8282088F8AE
:104EB0001C2044EA0122CDF8F82B40EA1160ADF83D
:104EC000FC0BDDF8FB0B1A9AA8F80910010C88F806
:104ED00008405171A2F80300908811680843D8F87F
:104EE000000014D041680A788AB91A9A00208DF817
:104EF0007E069088ADF87C061068CDF8780601F142
:104F000010000DF5CF611EF0D9FCD8F80000406804
:104F1000D0F81426D0F81016D30BC80B01F00041BE
:104F200040EA42406FF3DF328918C8E90A0340F0D3
:104F30002681A8F814000021D8F80000006888F83D
:104F40002010C8E90606D8F81C0027F099FF0121B7
:104F5000002888F8201000F0AA802C9000202B90C8
:104F600000202D90012088F81200A7F1640021F0A4
:104F70000BF8259CDDE92CBA349E42F6F030304423
:104F800015F0FCFCDDF8A080404615F01DFD329DBB
:104F90000120DDF8ACC085F8B40942F6F400C5F88C
:104FA00010A63044A5F80E4685F80DB685F80CC657
:104FB00005A901F5B55191E81C00294605F20C65DB
:104FC0001CC098F88C0303280AD1289C04F53A7079
:104FD00015F0D4FC204615F0F7FC329995F800C086
:104FE000DDF8D8B006F5935ABCF1220F1ED12798F0
:104FF00001252699DDF8C48005700020C1E9005024
:105000002DE100BF00800020571A0300A8E0030034
:10501000B8E003003C0000004501000064E5030027
:105020002300000040000000081B040001F2246877
:10503000894695E85E0040465EC05FF828001BF098
:10504000B3FA5FF82C001BF071FA99F824062128B6
:1050500006D121F053FA289800681CF0D7FA03E033
:1050600021F004F921F08CF8DDF8D4901BF084FBDA
:105070000DF5CF6040F6CD4221F0B9F9DDF8C480DE
:10508000329B9DF88006DDF87816DDF87C26C3F8A3
:105090003816C3F83C2683F84006349942F61810B7
:1050A00020F08BFE002861D027990420D5E021F064
:1050B000C3FA08F021FD00210028179140D0D8F84C
:1050C00000005FF8A81021F0BFFA03220023C0E916
:1050D000002320F019FFD8F80000C8F8A000349889
:1050E000C8E9063300F5935A88F8C03008F118046F
:1050F0000DF5CF65D9F800202846214608F00CFDB3
:105100009DF87816232901D10E209EE0DDF87C263B
:1051100005F108062D92A7F1EC0ABDF87A26204683
:1051200025920C469DF8792651462C9296E82C0043
:105130002CC115F087FC222C2B9411D10020179044
:105140000020169026E0DDF87C26010A2D9210F052
:10515000010041EA02612C9118BF21202B9001E748
:105160009AE80E00A7F164000EC0FBE61DF060FA9D
:105170009DF878465FF8580160E00024FAE75FF890
:105180005C011BF011FA1EF085F9FDF70DBC00F073
:105190000104EFE7D8F800605FF87411746804F157
:1051A000180015F04BFEC14690F83E8104F1100B3B
:1051B00005468A46B8F1020F2AD11BF0A5FC21F062
:1051C00031F9DAF800202546013ACAF800202C9A75
:1051D000B8F1020F18BF11462D9A18BF1046C9E941
:1051E00006010020C9F828B089F83800C84689F8B7
:1051F0002000D9F80000C9F830003498DDF8D8B0A4
:1052000000F5935AC9E91444C9F85860FFF7D2B9B8
:1052100005F120010DF5CF601EF004FB9DF8780626
:10522000222802D1D5E9480103E01BF06DFC21F0F2
:10523000F9F8DDF8BC90CDE92C10BEE71BF0B4F90D
:1052400020461DF0E5FFFDF7AFBB2799249A88F8AB
:10525000120003201070DDF8C48008700025349916
:1052600042F698400C18494620460CF0A7FE05B1BE
:1052700090B9DDE9322504212E9B032082F8CB155D
:105280008BF80A0008EA05001840012802D0052022
:10529000FCF7A9BF0CF088FE26980CF071FE2046A2
:1052A0000CF05AFE1BF030FC0246D8F8340040687F
:1052B000D0F81836D0F81C46D21AA1410ED20020E0
:1052C000C8E9103488F84800296808F140001BF04C
:1052D0009DFE0028E6D0032000F098BF08F018FFDC
:1052E000002800F092870120DDF860E0DDF870C052
:1052F0004FF00A0988F8380029982D902A982C90A8
:10530000CDE91B6CA7F1D001A7F1A80C91E87900B9
:105310006246A7F1B80179C2A7F1E0000A4690E819
:1053200078000320B9F1050F78C288BFA9F1060003
:1053300082B2CDF860E0DFE812F005008C01B70022
:10534000F4007E00149888F83F00239888F83C0009
:105350001C981A99C8F83000002088F83DE088F8B9
:105360002200B8F83C00199A2D9BDDF8B0B0A1F8E6
:105370001700D8F8000088F83E20C8F83430C8F884
:1053800038B04A76C8F818002993DDF8D4900DF5A6
:10539000CF6408F114014A46204608F0E7FE9DF864
:1053A0007866232ECDE92AB600F0838604F1080141
:1053B0000DF6F830DDF87CE6BDF87AC602469DF8B9
:1053C00079A691E83800A6F114010E2938C206D852
:1053D000012202FA01F144F20112114207D12B9984
:1053E000002940F01A87BAF1020F40F0168708F141
:1053F0003004DFF8AC3E0DF5CF6098F83E5016CC87
:1054000015F0FFFCDDF87C168C4280F01F87DDF87C
:1054100078064FF45E7104FB010090F85C130129DB
:1054200002BF80F85D53022180F85C13DDF880062E
:1054300020F0E1FDAEE60020DDF8D49088F82000F1
:10544000D8F80000DDE91623C8F8140020F05CFF4E
:10545000CDE916230DF5CF65D9F8002008F1140920
:105460002846494608F0C6F99DF87846232C00F0F6
:105470002286DDF87C1605F108002D91A7F1700653
:10548000BDF87AB69DF879A6314690E82C004846DA
:105490002CC115F0B7FA222C3FF47CAECDF894B0B5
:1054A000CDE92B4A00F0AFBD2D9B03210020D3F1A5
:1054B00002022C9A904138BFD91EDDF8D490DFE863
:1054C00011F00500AB051A056205F404D8F80000D8
:1054D00000214446C8F8140004F81C1FDDE92C65BF
:1054E000C8F8180020F067FFC8F8200008F1200075
:1054F00020F040FE002800F0CE85D8F818000021EA
:10550000CDE9295621F03DF827F0A4FE012088F8C6
:10551000280088F81C0021F08FF800F5BA6000F030
:1055200039BE0DF58052149882F86B010DF580524A
:10553000199882F86A010DF580500DF5805280F8B7
:1055400069E1239882F868010DF580521098A2F85D
:105550005A0106A800F58A5E1C98DDF8B4B0CEF8B2
:1055600004000DF58050DDF8B0A0A0F858910EF1C0
:105570001400CEF808B0CEF80CA09CE87C007CC0EB
:105580000EF1280091E83C000DF6F8313CC00DF515
:10559000CF640220B9F1050FADF8F80B18BF7146C2
:1055A0002046382236F027F8D8F8006021462598A2
:1055B0003822756836F01FF80020083588F8580042
:1055C0002596C8E91456CDE929BA1A994046D8E972
:1055D0000CB2D1E90696D1E90848418B008B2D9198
:1055E000DDF8ACA0DFE810F005004B03A5035A047A
:1055F000110321F03DF8002800F0508400F5107CE4
:105600000DF5B65EA9469CE87501734683E8750101
:105610000868DDF8BC800138086008F1A0039EE846
:105620007610184680E876100DF6F8304C46D9E929
:1056300002121FF007F9DDF8D4909DF8210C022822
:1056400040F0C9832D992046052207F087FD00F020
:1056500025BC1498444688F8CF00239888F8CC00DD
:10566000DDE92C10199D88F8CE50C8E931010020E1
:10567000D8F800101591C8F81810414601F8320FFB
:105680001C9888F8CDE044F8C00F48F8144F2B91CF
:10569000CDF8A880D4E901120DF5CF60DFF8E03B2A
:1056A00015F0F1FBA07BDDF87C1629948142199559
:1056B00040F2C285DDF878164FF4B07210FB02108C
:1056C0000121047BA14011F0590F04BF417B1391CC
:1056D000B0F854A1B0F84CB1B0F80290B0F8008026
:1056E000DDF880062F9D20F0BDFD25F81C8F1221CE
:1056F000281D2590A5F8029035F00AFF052C00F032
:105700002781062C40F05A82299EDFF87C1B3068E6
:1057100015F04DFB90F838200123012A98BF1A4656
:10572000541C80F8384008682F9C01300860B6F897
:105730000C802888ADF87836ADF87A86012804BF49
:10574000E08B804540F084852546259E25F834AFC2
:1057500012201599A946C5E9081549F8046F0021DA
:105760002B4685F82A2003F82B1FA5F82880A8606F
:10577000A5F802B029930621052304F8401F002153
:10578000A246C4E903014AF8086F211DE380E74BF4
:105790005046C4F8023062700CF06EF8C0B20228B5
:1057A00063D1504621460CF067F8C0B202285CD1A4
:1057B0002F980426D0E91330191A042956D3DAF8A1
:1057C0000020041DDFF8C81A20F00DFECDF8780681
:1057D0000DF5CF60CDF87C162946042202F01AF9A7
:1057E000002843D12F990020CDF8949081F87000C3
:1057F000A1F86C808846159808660C6508F1600869
:105800000DF5CF6A359A5046414608F041FDDDF866
:105810007856022D00F048840AF10C06A7F1D00456
:10582000DDF880E6BDF87EB623469DF87C969DF8AF
:105830007DC696E8070007C3E8071CD094E80E0071
:105840000DF6F8300EC001202999B9F1230F087028
:1058500000F02D844E46CDF878B0F346CDF884C0E4
:10586000DDF8BC80DDF8949064E0061DDDF8BC80B6
:10587000DDF888B05BE02F9D05F16800C5F864E0B5
:10588000A5F862B085F861C085F8609094E80E00D4
:105890000EC0514605F1480090E81C0050461CC15E
:1058A0001FF0D6FE20F03EFD359808F174090DF585
:1058B000CF664946026830460BF0B4FB9DF8784647
:1058C000232C00F0ED8306F108000DF5B655DDF848
:1058D0007C86BDF87AA629469DF879B690E84C00FA
:1058E00048464CC115F063F8222C0BD1DDF8BC8082
:1058F000D8F86400B8F8682020F04BFADDF888B0DA
:10590000222612E095E80E000DF6F83026460EC06D
:105910002F9C606EB4F8682020F03BFA4046CDF82A
:1059200084B0CDF878A0A0468346DDF894902999FC
:1059300001200870484615F0DCF81E990DF6F83085
:10594000DDF88490222ECDF888B040F0118137E147
:105950000120ADF87806B8F1000F29988089ADF8DC
:105960007A0600F077844946484540F07384DDF8B4
:10597000BC801220139D259BC146129129F834BF8B
:10598000A9F802A0CA46A9F828104A4615994AF86B
:10599000043FC9E90819002102F82B1F89F82A5091
:1059A000C9F8080029920721444604F8401F002145
:1059B00005226570254645F8083FC4E90301211D0D
:1059C000E2802846594AC4F802200BF055FFC0B2C5
:1059D000022863D1284621460BF04EFFC0B20228B0
:1059E0005CD1D8E913300426191A0429C0F0B38019
:1059F0002A68041DDFF8981820F0F5FCCDF8780629
:105A00000DF5CF60CDF87C164946042202F002F86D
:105A1000002840F0A0800020CDF894A088F8700005
:105A20001298A8F86C001598C8F86000C8F85040A3
:105A300008F160080DF5CF69359A4846414608F0EF
:105A400027FCDDF87856022D00F02C8309F10C06B6
:105A5000A7F1D004DDF880E6BDF87EB623469DF8B8
:105A60007CA69DF87DC696E8070007C3E80717D017
:105A700094E80E00A7F148000EC001202999BAF160
:105A8000230F087000F01C835646CDF874B0CDE9A2
:105A90001FCEDDF8BC80DDF894A05FE0061D5AE063
:105AA0002F9D05F16800C5F864E0A5F862B085F89F
:105AB00061C085F860A094E80E000EC0494605F16B
:105AC000480090E81C0048461CC11FF0C1FD20F0B2
:105AD00029FC359808F1740A0DF5CF655146026826
:105AE00028460BF09FFA9DF87846232C00F0E582BB
:105AF00005F108000DF5B655DDF87C86BDF87A96FF
:105B000029469DF879B690E84C0050464CC114F0F7
:105B10004EFF222C0CD1DDF8BC80D8F86400B8F818
:105B2000682020F036F9222613E000BF04000800A8
:105B300095E80E00A7F1480026460EC02F9C606E27
:105B4000B4F8682020F025F9CDE91FB8A046CDF8BB
:105B50007490DDF894A0299901200870504614F043
:105B6000C8FF1D99A7F14800DDE91F9B222E27D011
:105B70002591A7F1340490E82C0021462CC135462C
:105B800001262B9806702A9814F08EFFA5F11400B8
:105B90002B950E2805D806FA00F044F201110842B0
:105BA00014D12B9818B95FFA89F002280ED0CDE9EC
:105BB0002C9BA7F1640094E80E0028E2DDF8BC807D
:105BC0002B99012008702A9814F06EFFD8E9311241
:105BD0000DF5CF60DFF8C03698F8CE401FF008FD15
:105BE000DDF87C16A14240F22383DDF878064FF4FD
:105BF000B072DDF8801614FB02000022027320F060
:105C000083F920F081FBFFF7C5BA2598DFF85C1611
:105C1000CDF8ACA0924620F017FD4246A8460D46AE
:105C2000CDF8B0A0C0F81CA09246C0E90442002301
:105C3000D0E90012C0F818B081F00301C0E9029663
:105C400011434360B1FA81F1490940F8201B1BF070
:105C500079F828682D9A01302860D8E9000107F00A
:105C60005BFA002862D000F51272C0E9909682E8D3
:105C7000100C2C9AC0F8542220F046F956E020F07F
:105C8000F7FC002800F00A810A684346DDF8BC8072
:105C900090F86E03013A0A60002888F8600040F02E
:105CA000FD80002045461A9905F8A40F2D9A25F885
:105CB0003C2C4A46DDF89490C1F86600C1F86200B9
:105CC00045F8409C25F8320CC1E91B26C1E91D436B
:105CD00008F1880008F168011C22C8F8849035F0AA
:105CE0008AFCD9F80400DDE9359B00F26460C8F84D
:105CF000A80020F095FC08F1A80020F03BFA00284D
:105D000000F0BF81D8F884000168002088F8B00056
:105D100008F18800C8E92A1027F050FB012100286B
:105D200088F8B01088F8A41040F0A681DDF8ACA087
:105D3000B4E005F11008DFF838152E46404615F09E
:105D40007DF8044690F83E010D4602283FD004F14C
:105D500020010DF5B6501DF065FD0DF5805090F851
:105D6000C006222806A800F58A5930D1D4F834118B
:105D7000D4F8310147F8251C47F8280C2868DFF8CB
:105D8000F43401382860D6E900120DF5B65015F04C
:105D900038F8D9F86C154FF45E70D9F86845A7F15A
:105DA000280501FB00F6002E00F0088294F85C0341
:105DB000042807D104F5107029461FF077FC00284D
:105DC00040F0F98104F55E74A6F55E76EBE728688D
:105DD00001382860F6E11A9C4646DDF8F80BDDF83C
:105DE000FC1BDDF8002CDDF8043CC4F86200002048
:105DF00006F88C0F2D98C4F86E30C4F86A20C4F8E9
:105E00006610259C26F8240C46F82C4C08F17A00E4
:105E100008F168011222C8F8644035F0ECFB6068B4
:105E2000DDF8D8B000F26460C8F8900020F0F8FB0C
:105E300008F1900020F09EF9002800F01F81D8F8AA
:105E400064000168002088F8980008F17A00C8E929
:105E5000241006A901F58A54002127F8481CA7F14F
:105E6000480127F07EFC002840F04D81A7F1D000CA
:105E7000A7F14801022218F0EBFDD4F8DC06002857
:105E800000F0DF81DDF8ACA0D4F8E006002840F097
:105E9000D681012088F88C0088F898000120DDF870
:105EA000BC808AF80000FFF775B90020DDE91623F1
:105EB00088F82000D8F80000C8F8140020F024FA70
:105EC000CDE9162308F114040DF5CF65D9F80020AB
:105ED0002146284607F08EFC9DF878B6BBF1230FCB
:105EE00000F00A8120F0FCFCA7F17C0620F045FAC6
:105EF00014F088FD7FE0D8F800002399C90700F06E
:105F000014810021444604F8281F44F8140C44F876
:105F10000C1C24F8081CD8F81C10C8F82210B8F87B
:105F20002010C8F81800A8F8261020F044FAC8F885
:105F30002C0008F12C0020F01DF9002800F0CF8083
:105F4000D8F8180008F122040021006888F83410FD
:105F5000C8E90B04012101261BF0AAFDC0B258B903
:105F6000204627F05BF938B90121012088F8281074
:105F7000239088F8341007E12C9088F8286088F87E
:105F80003460FEF7EBBF149808F1240188F8230071
:105F9000199888F82200239888F82000DDE92CA0C1
:105FA00088F821E0D8F800E0C8E9060A9CE87C00FF
:105FB0007CC10021DDE9162388F8C010C8F8A0E0F4
:105FC000CDE9290ACDE9162308F118040DF5CF65AE
:105FD000D9F800202146284607F09EFD9DF878B6A6
:105FE000BBF1230F55D020F07BFCA7F1880620F0F1
:105FF000C4F914F027FDBBF1220F3FF4CBA8CDF874
:10600000B4A0CDE92BB9A7F1640096E80E000EC04C
:10601000DDF8D490FEF7A6BFDDE916230020A8F82E
:106020001D00D8F80000C8F818000DF5CF6408F17D
:106030001401CDE916234A46204608F0DBF89DF806
:1060400078C6BCF1230F4FD004F10801A7F19400EA
:10605000DDF87CE6BCF1220FBDF87AA602469DF879
:10606000796691E8380038C258D120F0E5FA00F599
:10607000B7600BF058FCC4E52C904AE00320307068
:1060800002E00320287004202B9908701820FFF7E5
:10609000DCB8162031E0032020701220FFF7D5B8BD
:1060A000042002E0032009E003202999087004205D
:1060B00007E0102019E019201FE00420299908703A
:1060C00003202B9B3499DDE9359B01F5935A187019
:1060D00027991120249ADDF8BC80FFF7B8B8032077
:1060E00020701420FFF7B1B813203499DDF8D8B030
:1060F00001F5935AFFF7A9B817203499DDF8D8B005
:1061000001F5935A85E02C90012088F88C0088F8DE
:1061100098002B9901200870FEF720BFCDF8B4E05D
:10612000CDF894A0CDE92BC67BE00021444624F8AD
:106130001E1FA17044F8060CB8F81F10C8F8140010
:10614000A8F81C1020F037F9C8F8240008F1240042
:1061500020F010F850B3D8F8140008F11C04002106
:10616000006888F82C10C8E9090420F067FBC0B269
:10617000A0B9204627F05CF880B9012088F81E00FD
:1061800088F82C000020239020F0BEF820F054FA6C
:1061900000F5BD600BF0C7FBFEF7FCBF2C900120A3
:1061A00088F81E0088F82C00FEF7D8BE0320207067
:1061B0001520FFF74AB8012084F87303D9F8700559
:1061C0001FF019FF2C49404614F00CFE0C4690F8C5
:1061D0003E11022916D090F8202090F8E8100229EC
:1061E00003D10E210C2A04D908E0013A12210E2A0B
:1061F00004D8192280F8201080F8242000F5387087
:106200001AF0A0FD1FF0A9FF48E6042088F8380026
:106210000F20DDF8D490FFF718B8CDE92CAECDF8FB
:1062200094C090E81C00A7F164011CC1FEF79ABE5F
:106230001A4A204619F07CFB124A19F079FB002417
:1062400001E017F8D04C0D48FEF7F8BF154AF0E70B
:106250000E4800E00F481AF0A7F90DF5CF6015F0D1
:10626000AFFA284615F0ACFAFCF79EBB38E1030004
:10627000181B040028E10300381B04002200000062
:1062800048DC030058DC030068DC03006700000002
:10629000C4E503006600000088DC030098DC03000E
:1062A00008E2030018E20300DCB504AF04466846C8
:1062B00016F0BCFA1FF085FF04D19DF80100607054
:1062C000012002E00198606000202070DCBDF0B584
:1062D00003AF2DE9C00704460620CDE9001068464B
:1062E00000F0D7F8C0F30725C1B2022901D101207F
:1062F0003DE0C0074FD0684600F0CBF8C0F307265A
:10630000C1B2022902D10120354630E0C00742D097
:10631000684600F0BEF8C0F30728C1B2022902D1D6
:106320000120454623E0C00735D0684600F0B1F8AB
:10633000C0F30729C1B2022902D101204D4616E05F
:10634000C00728D0684600F0A4F8C0F3072AC1B2FD
:10635000022902D10120554609E0C0071BD068463A
:1063600000F097F81FF0FFFF07D10120154601212B
:1063700025542170BDE80C07F0BDC0070BD0657037
:1063800000210620154684F805A084F8049084F8BE
:106390000380A670ECE701200E25E8E7416871B1A3
:1063A00080B56F4620F0C5FA15F09CFCC1B21529E6
:1063B000BDE8804004BF00F47F40163070471520D0
:1063C0007047416859B3F0B503AF4DF804BD82B0D2
:1063D000046801394160684620F05AFA1FF0F1FE66
:1063E00008D0019D012D52D8684620F051FA1FF0C7
:1063F000E8FE17D19DF801004FF00071C0B20843CC
:1064000001F04071B1F1007F02B05DF804BBBDE85E
:10641000F04004BF4FF4403161F31F2070474FF04C
:1064200000707047019E042E31D8204616F0D4F932
:10643000C10703D04FF60171084005E0C0F30041E9
:10644000494281EA504000040122014662F30F01F3
:106450004FF4702202EA0022C00718BF911C01F01D
:106460000300022818BF01F07F4001F47F021044AE
:106470004FEA1040C0D0C90709D0ADF800008DF830
:106480000260BDF80110090241EA0561B6E70E207D
:10649000B2E7416869B180B56F4620F04AFA15F05D
:1064A000D5FAC0074FF0010018BF0220BDE88040B8
:1064B00000E0002040EA01207047416899B1F0B542
:1064C00003AF4DF8048D82B020F033FA0321CDE9FB
:1064D00000016846FFF7DDFF0546C0B2022804D17F
:1064E000A8B2040A11E000207047E8071CBF019E13
:1064F000002E09D0DDF80080404615F0A7FA0C46C2
:10650000C00702D1012E05D10E24E0B200020230F4
:106510001FF0BABF404615F099FAC00701D00C46EB
:10652000F3E7E0B2090641EA004005F47F41084480
:106530000130EDE7DCB504AF0446486870B10138BE
:1065400048600968A7F10F0015F0EAFC17F80F1C66
:1065500017F80E0C1B2904D11C2109E01B20207008
:10656000DCBD17F8092CA27157F80D2CC4F80220D5
:1065700060702170DCBDF0B503AF2DE9800F80465F
:10658000486878B3D1F8009000264FF0FF3400251A
:106590004FF0000B01384860092C1AD0484615F01E
:1065A00055FA8A46C00716D10AF07F00002132460C
:1065B00035F00BF805434BEA010B073601344FFA6F
:1065C0008AF00028E8D4092C10D15FFA8AF002285A
:1065D0000CD34FF0050A00200221C8E9001088F80A
:1065E00008A009E00020C8E9000005E00020012122
:1065F000C8E90010C8E9025B1FF083BE416871B1B1
:1066000080B56F4620F095F91CF028FCC007BDE866
:10661000804012BF012001F00101002070470020DE
:10662000022170474168A9B180B56F4620F081F919
:1066300016F0D2F8C1070C4918BF4FF60171084097
:106640000106BDE8804008D04FF4702101EA002027
:10665000022106E00020002103E04FF6FF7188438D
:1066600001210843704700BF0000FFFFF0B503AFF2
:106670004DF804BD82B00C46014600208AB28DF868
:106680000600ADF8040001A9032809D0D3090A5473
:1066900009D0D2B242F080020A5401301A46F3E720
:1066A000032501AA06E0094B01A9032201F048F9DC
:1066B00002460D461FF04DFE01D9022004E01FF0F6
:1066C00086FB7019606010201FF04FBBE0F20300E2
:1066D000F0B503AF2DE9F80FE8460D4606464046F3
:1066E00013219B46914634F08CFFD7F808A0002078
:1066F00013281BD0F1094FEAD91241EA4561ED098F
:1067000042EA4B6245EA496541EA020345EADB1485
:10671000234308F800600CD046F0800308F80030EE
:106720004FEADB1B01300E469146E1E713246A462F
:1067300006E00D4B6946132201F002F902460C46B1
:10674000DAE90150401B844201D9022008E01146D9
:106750002846224634F04FFF2819CAF804001020BA
:1067600005B01FF079BC00BF10F30300F0B503AF14
:106770004DF804BDD1E901320024062C08D01D19C2
:10678000954207D0065D013405F8016B4D60F4E7D2
:10679000102000E002201FF016BC824221BF0B181F
:1067A000111A1846704780B56F46114619F071F8F6
:1067B000D0E901239A4204BF02207047B0B502AF6E
:1067C0000C78154605F8014B9D4245600BD04C787E
:1067D0005470941C9C42446005D089789170D11CFF
:1067E00041601020B0BD0220B0BDD4D4F0B503AFDD
:1067F0004DF804BD84B004460020ADF80C00CDE98E
:10680000010001A90A280DD0D5090A5445EA4365BB
:1068100055EAD31609D042F080020A54DB09013050
:106820002A46EFE70A2501AA06E00A4B01A90A2237
:1068300001F086F802460D461FF08BFD01D90220BB
:1068400004E01FF0C4FA70196060102004B01FF05B
:10685000BABB00BF00F30300F0B503AF2DE9000F92
:10686000ADF5137D054691F8A40093460E4618B386
:10687000032840F00F87B14619F8A00FA9F17C0852
:10688000002849D0032840F00887334613F8440F06
:10689000DFE810F00500060715074F004D00CDF8A2
:1068A0005480169596F845A0D6E90B01D6E90F85D8
:1068B000CDF848B0CB468DE10DF5DC79D6E9008402
:1068C00011214846B46034F09CFE207809F1110291
:1068D0003792CDE935991496DFE800F00592767A83
:1068E00058A5AA8EB068A27800206178012A8DF898
:1068F000B8018DF8B91140F02D81012021798DF872
:10690000BA01E0788DF8BB1109F104018DF8BC01E2
:1069100009F10500369189E0CDE9158596F8A1A029
:10692000D6E92585D6F89C00CDF848B045E113930B
:1069300067E2B2461AF8900F002800F0ED800328B5
:1069400040F0B186344614F8880F002800F0DD814D
:10695000032840F0AB863146139311F8860F0B9154
:10696000002800F0E0810328169540F0A286354605
:10697000CDF8548015F87E0F0A94002800F0C982E3
:10698000032840F09986706E00F0E0BC04200121DD
:106990001FF03AFF072905D0625C013009F8012099
:1069A0000131F7E7494416953690DCE009201FF0E5
:1069B0002BFF36906078022840F0B580002109F165
:1069C00002008DF8B91131E0627835A8022138E073
:1069D0000320A1788DF8B8016078E27823798DF8EA
:1069E000BB1109F104018DF8B9318DF8BA21369146
:1069F00035A91BF0A2FA26E0627835A807211AE033
:106A00000120CDF848B08DF8B80109F10201A07B52
:106A10004FF0000B8DF8B901A01C1590DDE9360A86
:106A2000169520AE4EE005201FF0EEFE36900EE0EB
:106A3000627835A806211BF06FFA04E0627835A869
:106A400008211BF058FA0646C0B210284DD1DDF8D7
:106A5000D4C0BCF1000F08D0CC4508D0DFF8840CBE
:106A600019F0AEFD86A903204DE002263DE0169503
:106A700036997AE04B700BF1040BB2F9003000222A
:106A80008DF882205C00ADF8802084EAE3338C1C12
:106A9000032A0AD0C3F3C811551CB35431B143F0D3
:106AA0008003B3542A460B46F2E70325AAEB040100
:106AB0008D4217D8204631462A4634F09CFD601995
:106AC00052460146BBF10C0F00F069828A421FBF9B
:106AD000159A5A449378D4781EBF0D4605F8014B99
