:1010000008FC032001110000B72802002903040096
:10101000B7280200B7280200B7280200000000002D
:10102000000000000000000000000000B7280200DF
:10103000B728020000000000B7280200B72802000D
:1010400059110000C1110000B7280200B7280200A2
:10105000B7280200B72802005D2D0200B728020061
:1010600045120000B7280200B7280200391200001C
:10107000B7280200CD110000B7280200B7280200EF
:10108000B7280200352E0200B7280200B728020058
:10109000AD110000B7280200B7280200B7280200EF
:1010A000B7280200B7280200B7280200B7280200BC
:1010B000B7280200B728020000000000000000006E
:1010C000B7280200B7280200B7280200B72802009C
:1010D000B7280200B7280200B7280200511200000A
:1010E000B7280200B7280200B7280200000000005D
:1010F00000000000B728020000000000B72802002E
:1011000021F0DCFB0E480F490022814201D004C0CF
:10111000FBE70D480D490E4A814202D008CA08C0BB
:10112000FAE70C484FF47001026842EA01020260DB
:10113000BFF34F8FBFF36F8F1FF02DFC00DE000059
:10114000D8210020D8A9002008000020D4210020A8
:10115000C05F040088ED00E0B0B502AF3AF05CFC7F
:10116000104C206828B1002020600F48183022F071
:10117000A1F8606850B10C4D0020606005F11800C6
:1011800022F098F805F1280022F094F8A06838B110
:101190000020A06004482830BDE8B04022F08AB8A2
:1011A000B0BD00BF1C010040B095002080B56F4667
:1011B0000248BDE8804022F07DB800BF10860020C4
:1011C00080B56F46BDE880403BF0B8BFF0B503AFD7
:1011D0004DF804BD154E0020306022F053FF144D31
:1011E0000446286DF0B94FF0FF302865E86D78B1FE
:1011F000296E88420CD0D6F808140170D5E9170181
:101200000130E865884204BF05F1540022F026F859
:10121000286D0130286520465DF804BBBDE8F0402C
:1012200022F066BF034821F0AFFA00BF00D10040B2
:10123000B0950020F440040080B56F46BDE88040C2
:101240003CF018BE80B56F46BDE880403BF06ABFF9
:10125000F0B503AF4DF8048D84B0344C206858B11C
:10126000334D0120C4F8080205F1180022F022F8DD
:1012700005F1200022F01EF8E06D38B14FF40000B7
:10128000C4F808022A48203022F014F8A06A38B1C5
:101290004FF48060C4F808022548203022F00AF894
:1012A000A06D28B10020A0652148183022F002F876
:1012B000206EB8B300202066D4F86C631C48C4F8D4
:1012C0006C63BFF35F8F50E8041F314340E80412A2
:1012D000002AF8D10020BFF35F8F8DF80C000720A3
:1012E0000DF1040802900120019040461DF098FA8B
:1012F000012817D101F01F040D4626FA04F0C0079B
:1013000004D028461CF064FA21F0D4FF84F01000C9
:1013100026FA00F0C007E8D028461CF0B1FA21F008
:10132000C9FFE2E704B026F065BC00BF00710240CF
:10133000B0950020F0B503AF2DE9000F95B0D0E9CE
:101340000149834608468A46A4EB090525F034FD89
:10135000854201D200200EE25046DBF8005025F015
:101360002BFD00EB0901DFF8386448462A46234686
:1013700000961CF03FFA9AF80020FF2A1FD19AF835
:101380000420FF2A3ED127F009F8BAF80800012806
:101390000AA814BF1B211D2123F0DEFEC0B20228C3
:1013A00040F0E081BAF80A100AA823F0F5FEC0B2B6
:1013B000022840F0D781DAE903120AA851E1B2F11C
:1013C0000A044FF0000398BF1C46002C35D0012CB6
:1013D00048D126F0E3FF0AA8522123F0BDFEC0B297
:1013E000022840F0BF81BAF80C100AA823F0D4FEFE
:1013F000C0B2022840F0B681DAE901120AA824F04E
:10140000C7FE35E0CDE9030100200590DFE812F0CA
:101410000900C8005E00A4003200F2001E01C500F1
:101420002C0103A8032123F097FEC0B2022840F04C
:101430009981BAF8061003A88EE10AAC0A2A0BC4F7
:1014400000F2A681DFE812F00B0018013501380127
:101450006C014A017601A401A401A40115010AA8A6
:1014600010210BE126F09AFF0AA81E2123F074FE3A
:10147000C0B277E103A8092123F06EFEC0B20228B2
:1014800040F07081DAF8144003A8214623F064FE8E
:10149000C0B2022840F066810AF10802139426F0D7
:1014A000ECFC0AA8294625F04FFB9DF82800FF28F0
:1014B00040F0578126F0B7FCC0B2022840F05281BC
:1014C00026F09FFEC0B20228EBD04BE103A8052115
:1014D00023F042FEC0B2022840F044819AF8144042
:1014E00003A8214623F038FEC0B2022840F03A811A
:1014F0000AF108028DF824400DF1400807CA06AB36
:1015000007C30AA80430029003AC0AA806A925F074
:1015100071FBBDF82800002840F023810298A44602
:10152000BDF82A10424678C878C264460078107028
:10153000604623F031FEC0B2022840F013814046DD
:1015400023F000FE26F01EFE20461A4624F020FE60
:10155000C0B20228D9D005E103A8012123F0FCFD87
:10156000C0B2022840F0FE809AF8051003A823F0CC
:10157000F3FDC0B2022840F0F580BAF8081003A8C5
:1015800023F00AFEC0B2022840F0EC80DDE904300E
:10159000834240F0F3800020E4E003A80D2157E0EF
:1015A00003A8072123F0D8FDC0B2022840F0DA805A
:1015B0000AF108020DF1280826F05FFC4046294692
:1015C00025F012F89DF82800FF2840F0CA80BDF8E9
:1015D0002A103046BDF82C4023F0DEFDC0B20228B0
:1015E00040F0C0803046214623F0D6FDC0B202282C
:1015F000E4D0B7E003A8112123F0AEFDC0B2022869
:1016000040F0B080DAF8144003A8214623F0A4FD8E
:10161000C0B2022840F0A6800AF10802139426F016
:101620002CFC0AA8294625F08FFA9DF82800FF28EF
:1016300040F0978026F0F7FBC0B2022840F092807D
:1016400026F0DFFDC0B20228EBD08BE003A80B210F
:1016500023F082FDC0B2022840F08480DAE9021251
:1016600003A824F095FD79E003A8132123F074FD6D
:1016700074E00AA80C215FE00AA8082123F06CFDA1
:10168000C0B202286ED1BAF812100AA823F084FD65
:10169000C0B2022866D1BAF814100AA823F07CFD63
:1016A000C0B202285ED10AF101010AA824F0C6FFE7
:1016B00054E00AA80A2135E00AA8122123F04CFDC3
:1016C000C0B202284ED1BAF802100AA823F064FD75
:1016D000C0B2022846D1DAE901126EE60AA8062154
:1016E00023F03AFDC0B202283CD1BAF802100AA891
:1016F00023F052FDC0B2022834D1BAF804100AA86F
:1017000023F04AFDC0B202282CD1BAF806100AA86C
:1017100023F042FDC0B2022824D1DAE902124CE6DD
:101720000AA8022123F018FDC0B202281AD1BAF883
:10173000021010E00AA8042123F00EFDC0B2022816
:1017400010D1BAF802100AA823F026FDC0B2022870
:1017500008D1BAF804100AA823F01EFDC0B202286E
:1017600000D10220022806D1504625F025FB48442E
:10177000CBF80800022015B026F04DBC039A411C9E
:101780009AF8064000961CF035F831B10470E8E78D
:1017900004480F21044A20F0FAFE044A26F0DCF83F
:1017A000AC480400684E0400884E0400384F040022
:1017B000F0B503AF4DF804BD84B026F072FB0429E8
:1017C0000CD32268061D094926F067F9CDE902010C
:1017D00002A8294604221CF01DF808B1002001E0EF
:1017E0000220A66004B026F0F2B900BF601E04001B
:1017F000F0B503AF4DF804BD84B026F052FB0229CA
:101800000CD32268861C094926F047F9CDE902016C
:1018100002A8294602221BF0FDFF08B1002001E0CA
:101820000220A66004B026F0D2B900BF601E0400FA
:1018300080B56F460021017301490131016080BD0F
:10184000B095002080B56F4641F6D43281501044E7
:101850000021417180BDD4D4E0B502AFDFF880C073
:101860000446002546F2901040F2011285422FD026
:101870002B18654405F1180656E8001F21B946E803
:1018800000210029F8D103E0BFF32F8F1D46EDE7BB
:101890001448686205F128002146FFF7D3FF20466F
:1018A000294621F011FA0025BFF35F8F54E8000F9D
:1018B00044E800510029F9D1BFF35F8F30B1C66908
:1018C000C5614576416A88473046F7E720BFEBE7B8
:1018D00005487A1E00902B210448054B20F0A3FFF9
:1018E00040220020A9A8010060260400F549040058
:1018F00014320400F0B503AF4DF8048D94B026F017
:1019000058FD0BAE304604F0CBFA9DF82C00FF28B2
:1019100003D040F6032020801BE0A7F14600311DD4
:10192000851C26F060F802A82946861C26F010F8CF
:1019300010AD314626F057F826F07CFC2078FF28C1
:1019400007D0054820F0E2FF204624F0DFFA21F01E
:1019500023F914B026F04EB968000000F0B503AFCB
:101960002DE9000FCDB0FE68D7F80880CDE91D2025
:1019700056F870AFD8F84400C346CDF8AB00C14666
:101980005BF8410FD6F808E02A90D8F83D00129392
:1019900016917268F568D6F810C07369B169F46978
:1019A000CDF8CB0059F83A0F2192CDF870E01B9595
:1019B000CDF868C0199320911F94329032A88DE819
:1019C000120454460DF1F80ACDE9032E624605953E
:1019D0002AA9CDE90610A6F1300150461AF0E6FF1B
:1019E00022A89AE82E002EC0429811904398109099
:1019F00044980F9045980E90306A1890706A17902E
:101A000008F14E00D6E90AA525F0E8FD20F07F4058
:101A1000CDE90A0B209800901F98CDE90104219888
:101A200003901C98CDE908A5049005461B98CDF8B5
:101A300054B005908346189806901798CDF84C90AE
:101A4000CDF830901494079026A822A91A9A199BD1
:101A5000914698461AF0D0FE1D98102804D126A869
:101A600016991CF092FC30B11E99FF20087040F6C8
:101A7000033088805EE0D6E90C40D7F808A01D90BE
:101A8000B06B18900AF14800F66B25F0A7FD20F026
:101A90007F400A9013980B9015980C902098049012
:101AA0001F981899CDE905041D98CDE90816CDE9D0
:101AB000005BCDE9029807902AA822A9149A219BDD
:101AC0001AF09AFEDDE92C01DDE92A23CDE90001B7
:101AD0003EAC204604F082FA9DF8F850FF2D0AD063
:101AE000611C32AC25F0D1FF1E9E214626F085FAFE
:101AF0003571FF201DE00DF1C809211D09F1030515
:101B000025F071FF2EAE294625F022FF129C0DF123
:101B1000F8083246404621461BF032FF9DF8F85047
:101B2000FF2D0AD01E9E08F1010126F066FAFF2063
:101B3000357130704DB025F0D0BF9AF838000223CF
:101B40009AF84A100DF1F8089AF85020022801F08E
:101B5000030008BF012302F0030180F0010081F0BF
:101B6000010108430F990091B0FA80F00E994009E5
:101B7000CDE901132146DDE91032039040461BF008
:101B800032FF9DF82161022E09D198E86E00484687
:101B90006EC01E9E99E83E00301D3EC0A9E732ACE3
:101BA0003EA9292225F0BDFFBDF826012146ADF84A
:101BB00030012922DDF822014B903EAD25F0A4FF33
:101BC0005046294629223EF00FF94B981E99CAF833
:101BD0002A00BDF83001AAF82E000A208AF82960F0
:101BE0000870A7E7102B40F08080F0B503AF2DE917
:101BF000000F9DB009908846F868137800F16006E0
:101C0000D2F80100D2F80540D2F8095043EA002C7E
:101C100039692B0243EA1463240244EA1060D47B3E
:101C2000B2F80D20C6E900C042EA0442120242EABC
:101C30001562C6E9023218A802F044FF06F1300A24
:101C4000189806F11003F66B1A9A08F07F04199998
:101C5000DDF86CB0069283E80708A4F14002079112
:101C6000314608909AE8200650463EF0A7F8CDF895
:101C7000148080462846494622463EF09FF8C4F12B
:101C80004002814650463146D7F80CA03EF063F939
:101C90000AF1200103910699402CCDE901BA009187
:101CA00038BF49EA00082B48002C08BFA84660F35B
:101CB0005F08CDF810800AA8DDE907321AF000FEAF
:101CC000DDE90C01DDE90A23CDE9000118AC20466D
:101CD00004F0C0F89DF86050FF2D0CD0611C0FACD3
:101CE00025F0D3FE099E21461FE0FF21017040F63A
:101CF000032181807047DDF814900FA8C61C211DB8
:101D00001022D7F8088025F0FCFE14AD314625F0EE
:101D10006AFE18AC41462A4620461BF031FE9DF86B
:101D20006050FF2D09D0099E611C26F066F9FF2046
:101D3000357130701DB025F0D0BE099C5146B022DF
:101D400004F108003DF084FF0620C4F804902070E0
:101D5000F0E700BFC0FFFF7FF0B503AF4DF8048D83
:101D600094B026F026FB0BAE304604F099F89DF8AF
:101D70002C00FF2803D040F6032020801BE0A7F1B1
:101D80004600311D851C25F02EFE02A82946861C22
:101D900025F0DEFD10AD314625F025FE26F04AFA8D
:101DA0002078FF2807D0054820F0B0FD204624F019
:101DB000ADF820F0F1FE14B025F01CBF6700000064
:101DC000F0B503AF2DE9000F9FB08246880701D41C
:101DD00011206DE0D56B934605F108030FCB26F07B
:101DE00040F811BF8DE80F000020CDE90200CDE9D9
:101DF000000016AE6946304604F020F99DF85840C0
:101E0000FF2C3ED111A8311D00F10308102226F04D
:101E10009BF90AAE414625F09BFD0DF15809594644
:101E2000324648461BF0ACFD9DF85840FF2C30D19F
:101E30002868C10741D06968000A0A0E8DF83E2063
:101E40000A0A40EA0160ADF83C200E9016AE0EA9D9
:101E5000304604F041F99DF85840FF2C11D1311D56
:101E6000404625F085FE1BAE414625F071FD05A8D4
:101E7000594632461BF084FD9DF81440FF2CA7D034
:101E80000DE011AD711C132225F03EFE05A8294678
:101E900002E005A809F10101013025F02FFE05A996
:101EA0000AF10500013125F029FEFF208AF80440DF
:101EB0008AF800001FB025F010BE0524EFE7F0B54A
:101EC00003AF2DE9000F8BB0044602A80E46002197
:101ED000924603F095FF9DF80800FF281ED09DF85C
:101EE0000B10E170BDF809109DF81B20DDE903C55A
:101EF000A4F80110BDF81910059E9DF81830ADF832
:101F00001C108DF81E202374C4E901C5E660A4F8F6
:101F10001110E27420700BB025F0DFBD9DF818B0F1
:101F2000059DBDF81900ADF8040059469DF81B0049
:101F30008DF806002846DDE9038918F015FE0246F3
:101F40000B4606F1480011461A4625F05DFCC0B26A
:101F500002281CD1BDF804005146ADF829009DF8B7
:101F600006008DF828B00995CDE907898DF82B007A
:101F700002AD07AA28461BF003FD9DF80860FF2E5E
:101F800010D0601C691C25F0B9FD2670C3E7052040
:101F90004946207040460BB0BDE8000FBDE8F04058
:101FA00025F008BCFF20B5E7F0B503AF2DE9000F21
:101FB0009FB00D46B968069314460B901AA802F01C
:101FC00081FD1A9804F170061C9A05F07F0504F152
:101FD000900B1B991D9B0FC60892A5F140020A9019
:101FE0009BE8400E50460991594607933DF0E6FEA6
:101FF0008046304649462A463DF0E0FEC5F14002A3
:102000008146504659463DF0A6FF04F12001402D7F
:10201000CDE90241079901910899009138BF49EA39
:1020200000082548002D08BFB04660F35F08CDF8D2
:1020300010800CA8DDE909321AF042FCDDE90E013E
:10204000DDE90C23CDE900011AAC204603F002FFC4
:102050009DF86850FF2D0BD0611C11AC25F015FDCB
:102060000B9E21461322701C3DF0BEFE35701FE012
:10207000DDF82C8011A8C51C211D25F0B4FC16AE7E
:10208000294625F065FC1AAC0699324620461BF01D
:1020900077FC9DF86850FF2D07D008F10100611C06
:1020A00025F02CFD88F8005002E0FF2088F80000A1
:1020B0001FB025F012BD00BFC0FFFF7FF0B503AF1A
:1020C0002DE9000FB5B016461D46CDE91210B046F9
:1020D000D6F83D000DF1A00C55F8702FCDF8A300F7
:1020E00058F83A0F289056F8410FD5F808906B68C9
:1020F000D5F80CA0D5F810E0D5F814B0AC69E969B2
:102100002C90D6F8030014921593CDF86C90CDF86E
:1021100068A0CDF864E0CDF860B017941691CDF8C2
:10212000B3002CA88DE800460DF18009CDE9051C0F
:10213000A5F1300107904846CDE903B41AF036FC0A
:102140001CA899E81E0005F1300B1EC024981190C0
:102150002598109026980F9027980E90F01D9BE8D8
:10216000100AD5F83CA025F039FA20F07F40CDE9DF
:102170000A08DDE91A10CDE908BA0C96CDE900018C
:10218000199802901898039017980490169805A92A
:1021900081E8110228A81CA9DDE914231AF02CFB00
:1021A000DDE928230DF18009DDE92A01CDE90001EF
:1021B000484603F013FF9DF88060FF2E0ED02CAC34
:1021C00009F1010125F061FC139D21461322681DD0
:1021D0003DF00AFEFF202E71287052E0DDF84C80A1
:1021E0002CA8C61C09F1040125F0B2FB31AC314624
:1021F00025F04FFC0DF180091299224648461BF04C
:10220000BFFB9DF88040FF2C0BD008F1050009F1C1
:10221000010125F073FCFF2088F8044088F80000D5
:102220002FE005F1200B464608F11804ED6A9BE803
:10223000000D09F107001CA925F09AFC0B20494666
:1022400006F8010B172225F05CFC199804F12C010B
:102250002062189860621798A0621698E56381E87A
:10226000010D11982060109860600F98A0600E9882
:10227000E06014982061159860611B98A0611A981D
:10228000E06135B025F029BCF0B503AF2DE9000FB2
:102290008BB004460220ADF80A0001208DF808003A
:1022A0001E462C4888468DF80920039007A825F083
:1022B00037FA079DEDB3DDE9089BFB20D7F808A0AE
:1022C000CDE904B00020069004A803A9FFF770FA36
:1022D000C0B202281CD104A802A9FFF769FAC0B253
:1022E000022815D1DDE90530191A02290ED3049A06
:1022F00019490091811C01911BF07CFACDE907017D
:1023000007A8314602221BF085FAB8B1042004E088
:10231000C0074FF0040018BF0D200121207061702C
:10232000284649460BB0BDE8000FBDE8F04025F057
:1023300041BA162020700BB025F0CFBB0198514652
:102340000A9007A880E8200A07AB2046424619F009
:1023500043FDF0E706000500601E040091F86733B6
:1023600001F51472012B12BF91F8561202F58C720E
:102370000121A0B1D0B502AF9388B0F81541126821
:102380006340D0F8114162401A4390F81731594028
:10239000C90718BF0020002A18BF0020D0BD0020A8
:1023A0007047D4D4F0B503AF2DE9000794B002AD67
:1023B00088468146482125F089FDD8F80C404826FA
:1023C000334B2946482C38BF2646304648221BF05E
:1023D000C0FA0546D8F808008A4621461BF05AF98B
:1023E0008E424FD803462B4800901A462846514645
:1023F000334625F03EFA022C09D22D4820F086FA09
:10240000304620F075FA20F0C7FB0A2019E09DF84D
:102410000800441EE5B20E2D12D22046A6F1010A94
:1024200018F004FD80B2824519D109F1010002A91A
:1024300048223DF0D9FCC9F84C6089F8004008E01A
:10244000072089F80500032089F80400FF2089F897
:10245000000025F0AAFD14B0BDE80007F0BD0E484D
:1024600020F054FA0D480E4CA0470E48A0470E48E5
:102470000E4950F8250051F825101FF0ADF9002045
:10248000A047C0E70B4B0A460020314620F040F839
:10249000901F0400B01F04005D0000000B0000004E
:1024A000C328020052010000D45204009C520400D0
:1024B0005E000000A01F0400F0B503AF2DE9000F7F
:1024C00095B01C788046FF2C15D043481D46164613
:1024D0008A4693F801B020F019FA404820F0F1F94B
:1024E000284623F021FD032C18BF4FF0080B20F0E5
:1024F00053FB192C05D1FF2088F8000015B025F0FA
:10250000ECBAB6F858430FA825F00AF90F9800283E
:1025100043D0A7F143000094C51C0FA90C2225F05D
:10252000F3FAA7F152002946C61C0C2225F0E9FA5D
:1025300012AD31460C2225F0E7FA02A82946042202
:1025400018F024FB9DF80800DDE903549DF818609D
:10255000FF28DDF8149021D14846314618F004FBDD
:10256000B9B380F800B0304618F0F7FACDE904901E
:102570004046CDE9025402AB009A514619F02CFCBA
:1025800098F80000FF28B6D0154820F0BFF9404663
:1025900023F0BCFC20F000FBB0E716209DF80B10E8
:1025A00088F80310BDF809109DF81B20A8F8011049
:1025B000BDF81910ADF804108DF8062088F81060E9
:1025C000C8E90154C8F80C90A8F8111088F8132035
:1025D00092E7044A25F0C0F95600000047010000C8
:1025E0005B000000D01F0400F0B503AF4DF8048D70
:1025F00092B00DF104080D460646114640464422AD
:102600001C463DF0FDFBB868294600903046424626
:10261000234600F005F812B05DF8048BF0BDD4D469
:10262000F0B503AF2DE9000FADF27C7D89460DF5C5
:102630008A6199F8C86001F1600509F1780A9B4642
:102640009046022E199063D11AAE4946C8223046F0
:102650003DF0FEFA15209DF8681089F804000E2060
:1026600089F800000C2998F8000000F204830DF5A9
:102670008A6202F17004DFE811F00D00A701600129
:102680004401E9002801FA01FE029502E602FE0279
:10269000CB02C600FF2804BF98F80C10002900F0F8
:1026A000D286411E5D460329C0F0D882002840F042
:1026B000DE8298F80100002800F056870DF5BB680F
:1026C000294640461BF085FA9DF80166FF2E01F071
:1026D00002870DF58A640DF5BB61292225F021FAE8
:1026E000DDF80206214683902922BDF80606ADF8E2
:1026F000100209F1D0003DF077FB8398C9F8FA0089
:10270000BDF8100289F8F960A9F8FE0000F0DABE01
:10271000AAAC4946C82220463DF09AFA15209DF8F9
:10272000A81289F80400122089F800000F2998F8EF
:10273000000000F268851AAA02F16003DFE811F0D8
:1027400010006B03C3025604880463053403890335
:10275000CC0363055C05E30463056305A8023F033E
:10276000FF2804BF98F80C200A2A40F04C85D8F8BE
:102770000800002802F0598199F819010C22D8F8B4
:102780000410032808BF0822DBF8383093F87003E0
:1027900093F87133024489F81A210C7813B101219E
:1027A00089F8181158B199F81C0199F81D1140F0D9
:1027B000030089F81C0141F0030189F81D111AA8D2
:1027C00059461BF058FADDF864809DF89100022804
:1027D00007D0600741F14B819DF89000022801F07D
:1027E00046810DF58A6425F0DAFB9DF85064FF2ED2
:1027F00001F0A5800DF5BB60611C25F0ECF88DF8AB
:10280000DC6501F04BB9FF2804BF98F80C20082ABA
:1028100040F02082D8F80820002A02F00481D8F87D
:1028200004005D460478022C80F0B086062A42F24D
:10283000EC8050F8011FC9F81111818825F04CFC7B
:1028400000F04A8625F051FB00F046BEFF2804BF89
:1028500098F80C10022900F0E2855D46042800F289
:102860000E82DFE810F03C06FB01FB0105003C0690
:102870000DF5BB6A0DF5BB6009F1180100F190047C
:10288000504690223DF0E4F90DF58A6B711C11223F
:1028900058463DF0A9FA0026D8F80400C4E900061D
:1028A000C4E904069DF85004C4E90266C007C4E9FF
:1028B000066601F0B583B8680BF10102CDE9005A54
:1028C00000210290AAA8102317E0FF2804BF98F85F
:1028D0000C20022A40F0BE810DF5BB6409F108010D
:1028E000B02220463DF0B4F9B8685D46D8E901232E
:1028F0001B99CDE900B40290AAA8FFF773F901F083
:102900009FBD042800F28F865D46DFE810F0E805E1
:1029100005006806A701E8059DF86900002801F098
:10292000108006F1180009F1D00110222B46CDE9E4
:102930000010B11CAAA800F0FBBDFF2804BF98F846
:102940000C20032A40F08681CDF860B009F108011F
:102950004CA870223DF07CF9DAE9006B09F198018E
:10296000DAE9025AE4A825F000F925F021FA40F04E
:102970003C86D8F80400324617955B46D0F809101B
:102980001691D0F805101591D0F801101491017826
:102990001391C17BB0F80D001291CDE9005A0DF5ED
:1029A000BB65189911902846FEF7A4FF9DF8D885BD
:1029B000B8F1FF0F01F0A081AAA8691C25F00BF85F
:1029C0008DF8AC8201F027BCFF2804BF98F80C20DA
:1029D0000B2A40F03F81D8E901120DF5647840469A
:1029E00024F0B8FDDBF82C10DCAC202225F099F89F
:1029F000DBF830104CAE402225F083F80DF5BB6AB1
:102A0000214642463346504624F0D2FC9DF8D80574
:102A1000C00700F0F0859DF8DB050AF106018DF88E
:102A20002E021222BDF8D905CDF860B09DF8DCB5B4
:102A30009DF8DD85ADF82C0286A83DF0D5F90AF1A8
:102A4000180083A90DF5BB640CC80CC10078087090
:102A50004CA9204603F04AFA9DF8D805FF2801F05A
:102A600099810A2003248DF8310201F0B6B9FF28BC
:102A700004BF98F80C20032A40F0EC8009F108010B
:102A80000DF58A6025F068F925F092F940F0BA85D5
:102A9000D8F804001B9E1296D0F8011006F07F06AD
:102AA0000278CDF860B042EA01222A621792D0F88B
:102AB0000930D0F805201C02D5E90CAB44EA1264B9
:102AC000120242EA1161AC626962C6F140021691DB
:102AD000C17BB0F80D00159440EA0140D5E90E84A1
:102AE0000002214640EA13601490E86240463DF03F
:102AF00032FA13905046594632463DF05FF9A6F13E
:102B000040028346404621463DF058F91399402E35
:102B100038BF4BEA0100EF49002E08BF50460DF5C3
:102B20008A6261F35F00159B02F120010093149B00
:102B3000CDE90131CDE90320DCA8DDE9163219F039
:102B4000BFFED5E900AEDDE9DCC38EEA0301D5E9BD
:102B5000028BDDE9DE468BEA060008438AEA0C02B6
:102B600088EA04011143084340F0FD86D5E90423B7
:102B70000DF5BB64D5E90601CDE90001204603F05F
:102B80008FF99DF8D865FF2E01F02A83611C4CACAB
:102B900024F07BFFAAA8214624F01DFF8DF8AC622B
:102BA00001F039BBFF2804BF98F80C20032A51D14B
:102BB00009F108010DF58A6025F0CEF825F0F8F846
:102BC00040F02885D8F8040004F1100524F0BBFF7C
:102BD0000EC5B968E061204601F074FFD4E9020136
:102BE0005D46D4E900230DF5BB64CDE900015946EB
:102BF0002046FEF77FFE9DF8D865FF2E01F0F2809B
:102C0000AAA8611C24F0E7FE8DF8AC6201F015BCA7
:102C1000FF2804BF98F80C20072A1BD125F0C8F81C
:102C200040F0258599F8F9005D46022808D0D8F8CB
:102C300004000AF1680424F086FF0EC4CAF8740088
:102C40000C2001F0FBBBFF2804BF98F80C200C2AD5
:102C500000F06384421E5D46032A05D2AAA81AA981
:102C600025F045FB01F0ECBB002800F0258404288A
:102C700005D100F034BC5D46FF2840F0138498F87D
:102C80000C00042800F0B8830D28E7D000F027BC22
:102C9000FF2804BF98F80C20072A40F0B48225F0E2
:102CA00087F840F0718599F8F900022808D0D8F823
:102CB00004000AF1680424F046FF0EC4CAF8740048
:102CC0000F2000F034BFFF2804BF98F80C200B2A17
:102CD00040F099821793DCAE211D202224F011FFD1
:102CE0000DF5647A09F12401402225F02AFAD8E989
:102CF00001124CAC204624F02DFC0DF58A653146BE
:102D000022465346284624F053FB9DF85004C00742
:102D100000F03E859DF85304A91D8DF8AA001222EB
:102D2000BDF85104ADF8A800BDF854441AAE06F140
:102D300045003DF059F806F1570005F11801092248
:102D40003DF052F806F120004CA924F00EFF09F1E5
:102D50002401304624F009FF17985021ADF8AB400C
:102D60003CF01FFF99F80801811E38BF0221C9B24B
:102D7000022901F0CC80DDF86480032941F0E6806F
:102D80000F200DF58A6525F08FF9FAAE25F098F839
:102D90009DF8E843FF2C41F00883E81D1AA924F0B0
:102DA00003FF092001F0B7BB98F80C10FF2808BFFB
:102DB000022900F09983FF2800F029825DE2FF28B4
:102DC00004BF98F80C20082A40F01D82D8F808208B
:102DD000002A01F02C86D8F804000478022C80F038
:102DE0000F85062A41F2138650F8011F0DF58A66F9
:102DF000C9F811118188DDF8648025F06DF901D0E2
:102E000025F073F899F822110DF5BB605A46FEF7CC
:102E1000D7FF00F092BEFF2840F0D88298F80C103F
:102E20000A2900F0BA84012940F0F181D8E90112A1
:102E30000DF58A6024F0F8FC9DF85004022840F05B
:102E4000AC85DA460A20DDF864800DF58A6601F06B
:102E500019B9FF2804BF98F80C20022A40F0D3814A
:102E600009F108010DF58A6060223CF0F1FEDAE913
:102E7000004609F18801DAE9025A1AA830223CF02A
:102E8000B3FF24F095FF40F0C484D8F80400224634
:102E9000AB99334617910168169141681591816885
:102EA000C068149159461390CDE9005A4CA8FEF71A
:102EB00053FF9DF83081B8F1FF0F00F0F7870DF553
:102EC000BB604CA90530013124F018FE8DF8DC857B
:102ED00000F02CBEC0FFFF7FFF2804BF98F80C2035
:102EE000032A40F0908109F108010DF58A6024F071
:102EF00033FF24F05DFF40F05B84D5E90CA1AB9873
:102F0000CDF860B0179100F07F04D5E90EB1A4F1BF
:102F10004002CDE91501D8F8046058463CF04EFF58
:102F200017998046504622463CF048FF1699C4F156
:102F30004002179058463DF00EF8F3680DF58A618F
:102F4000B268D6F800B0D6F804C0039120310291DF
:102F5000402C1693CDE90023634614925A461799E4
:102F600038BF41EA0008DB48002C08BFD04660F3B8
:102F70005F08CDF810801AA8E04619F0A1FCD5E949
:102F800002E3DDE91A42D5E900C1DDE91C605140E8
:102F9000584084EA0C02084386EA0E0111430843B4
:102FA00040F00785C5E908B81599DDF860B01498B8
:102FB0001329A8621698E86200F0D182B8684C1C08
:102FC00000901AAD0DF58A62214628465B46FEF751
:102FD000EBFF9DF868600DF5BB60DDF86480FF2EA7
:102FE00001F088820530691C00F004BCFF2804BF92
:102FF00098F80C20022A40F0068109F108011AA86D
:10300000B0221C463CF024FE24F0D2FE40F00184A5
:10301000D8F8040024F097FD84E80E00B968E06059
:1030200004F1100001F04EFDD4E90601D4E90423B7
:103030000DF58A6424F0E5FF9DF85064FF2E40F002
:103040006E85E01D1AA924F0AFFD042000F048BEF3
:10305000FF2804BF98F80C20032A40F0D4801AAD52
:1030600009F10801B0221C4624F0E4FF24F0A0FE80
:1030700040F0CF83D8F8040005F12003CDF860B00C
:10308000C2688168D0F800A0D0F804800020CDE9A3
:1030900016328B468DE82E00524643460490E4A833
:1030A00019F00EFCD4E902E3DDE9E452D4E900C1F1
:1030B000DDE9E660514058408CEA050208438EEA9B
:1030C00006011143084340F07D8404F11003179D6D
:1030D000C4E908A80FCBC4F828B0E5621AAC009484
:1030E000169CCDE9014ACDE9038B059519F026FC24
:1030F000DDF860B099F80811022940F0CA870DF593
:10310000BB601AAB65E2FF2804BF98F80C200C2ABC
:1031100079D10DF58A6009F1080100F110040DF56F
:103120008A605022DA463CF093FDD8E901010E9006
:103130002069149060691390A0691290E069119061
:10314000206A1590606A1690206B1090606B0F904B
:1031500009F58F701791D4E90A8BD4E90E5624F043
:103160003DFAD9F8142120F07F40D9F81111CDF89B
:1031700033214C91D9F80D21D9F80A11CDF86B20E3
:103180001A910DF58A61CDE908560A904CA80B906A
:103190001AA80C9014980290139803901298049017
:1031A00011980590109806900F98CDE9008B079024
:1031B000FAA8DDE9152319F01FFB1798102806D18E
:1031C000FAA90E981BF0E1F8002800F002840B2405
:1031D0000326DDF864800DF5BB65DCA9A81D25F08C
:1031E00083F8FF208DF8DD458DF8DC650DF58A66E6
:1031F0008DF8D80500F0A6BCFF2804BF98F80C2075
:10320000032A00F09981FF2809D198F80C100429AD
:103210001ED00DF58A660D2900F0DD80E3E005394A
:10322000082900F2D380DFE801F00528D1D16BD165
:10323000D1B9CE00012800F0C8810DF58A660228B8
:1032400040F0D18040F60340DA46ADF8DC05CEE030
:10325000D8F808000DF58A66002801F0E083D8F858
:1032600004000321DA4600788DF8DC15411E102990
:1032700028BF08208DF8DD05B9E0032840F0A680BE
:103280000DF58A6609F11801902230463CF0E0FC09
:103290000020D8F804100DF16808C5E90C10C5E944
:1032A00010100021C5E90E003246C5E912005B4648
:1032B000B868009040469DF8A9A2FEF775FE9DF8FB
:1032C0006860FF2E00F076820DF5BB6008F1010109
:1032D00000F028BCC0FFFF7F98450400600000009C
:1032E000540000005C00000069620200C84A04004B
:1032F0006D00000057000000610000005200000057
:10330000042863D11AAD09F10801B02224F092FE1D
:10331000D8F8010008F1210415902022D8F8050002
:1033200021461690D8F809001790D8F80D0014908F
:103330004CAE24F0E6FB5FF8601020461BF025F849
:1033400040B95FF86C1006F110001BF01EF8002861
:1033500000F0AB830DF5987A29460DF58A640020BC
:103360009AE8600520313346049020462A46CDE98C
:10337000008ACDE9021119F0A3FA4CA800F110015E
:1033800020461BF002F8002800F09383FF208DF800
:10339000D80540F20340ADF8DC05CAE3B0B998F8AF
:1033A0000100002800F08A82DDF8648099F823018A
:1033B000800700F1A28599F822110DF5BB605A46ED
:1033C000FEF7FEFCB7E3002800F0F7800DF58A66F3
:1033D0000138022807D20DF5BB60AAA924F087FFA7
:1033E000DDF86480A9E3DA4615208DF8DC05DDF808
:1033F00064800DF5BB65A7E3D8F80800002801F04C
:103400001083D8F80400032100788DF8AC12411E17
:10341000102928BF08208DF8AD0201F016B8D8F8A1
:1034200008005D46102840F01A81D8F80410AAACB4
:10343000A01C24F09DFB0DF5BB6624F016FB24F0C8
:10344000D0FB04200FE10DF5BB605946D8E90164BB
:103450005D461AF010FC9DF80106022816D00D20DA
:10346000A96AAA6B0DF5BB638DF8D80579A81AF087
:103470002DFB9DF8E401FF2808D05FF8A0011FF0A4
:1034800045FA79A822F042FD1FF086FB0DF5BB60DE
:103490003146224624F0C8F99DF8D845022C6ED159
:1034A0000A20D1E1072908BF042800F0E680421E67
:1034B000032AFFF4D3AB90B90A2910D198F8010080
:1034C000002851D099F81D01800700F1A98199F8D1
:1034D0002201800700F10E840D2000F0AFBF1520FF
:1034E0008DF8AC0200F0B1BF24F062FC59D10DF5AB
:1034F000BB64D8F80410A01C24F03AFB0DF58A66D2
:1035000024F0B3FA012031468DF8D90504F11200F8
:10351000B6223CF069FC062049E006F10800D8E933
:10352000011209F1D0035D46CDE90030AAA85B463F
:10353000FEF714FA00F084BF09F108010DF58A6066
:1035400024F00AFC24F034FC40F06381D8F8040035
:1035500024F0F9FACDF8DC040DF59A600EC00DF5F3
:10356000BB600DF58A6334E05FF88C021FF0DAF976
:10357000FF208DF8A80240F6037000F094BC9DF87F
:10358000DA65300700F1598103205DE15FF8AC0294
:103590001FF0BCF920461EF0AFFA1FF0FDFA05201F
:1035A00067E005200DF58A668DF8DC05FF20DA4618
:1035B0008DF8D805DDF86480C2E298F80100002893
:1035C00000F08A81DA461120E9E004F108030DF5E4
:1035D000BB6009F1D0025946FEF770FDA9E240F642
:1035E0000340ADF8AC0200F030BF40F60320ADF868
:1035F000AC0200F010BE40F603305D46ADF8AC0200
:1036000000F01BBFFF205D468DF8A80240F60320A6
:1036100000F049BCFF205D468DF8A80205208DF81A
:10362000AC0200F00DBF9DF869005D4600287FF4F4
:1036300026AB98F80C000C287FF421AB24F0B8FBE3
:103640000DD1D8F80410AAACA01C24F091FA0DF505
:10365000BB6624F00AFA24F0C4FA032003E0052034
:103660008DF8AC02FF208DF8A80200F0EBBE05201B
:103670005D468DF8AC0200F0E0BE09F108014CA8EF
:1036800024F06AFB08F12104E4A8202221463CF042
:10369000ABFB5FF8BC1399F81E0117902046D8F8D1
:1036A0000160D8F805A0D8F809B0D8F80D8022F04C
:1036B000D3FD40B9E4A85FF8E013103022F0CCFD50
:1036C000002800F0B684CDE913860DF58A64CDE9B3
:1036D00015AB1895E4AB0FCB0F9024F0FDFB204603
:1036E000129111921093DCA91DF0D0FE0DF5BB6B69
:1036F000002621464FF4B8725846CDF8BC65CDF887
:10370000B865CDF8B465CDF8B065CDF84867CDF8AB
:103710004C67CDF85067CDF854673CF071FB0DF560
:103720008A6A59464FF4C07250463CF069FB8DF8E6
:10373000D0654CA800F120045FF854B45046202214
:103740002146D847504621462022D8470DF5BB6870
:10375000504601228DF8D8654146D847404651462B
:103760004FF4C2723CF04CFB9DF8580708F5B87155
:103770005FF888341022054622F054FB002967D0F8
:1037800000F8016B0139F9E705208DF8DC05CDE182
:1037900040F60330ADF8DC05C8E1DA460120DDF87B
:1037A00064800DF58A660DF5BB658DF8D8050DE2D0
:1037B000052001E15FEACA7000F04D81A01C24F0F1
:1037C000C2F985E80E00E860D5E90601CDE90001FF
:1037D0005946D5E904231AAC2046FEF7BDFA9DF8F8
:1037E00068600DF5BB60DDF86480FF2E00F0188581
:1037F0000530611C24F082F98DF8DC6500F064BCB2
:103800005FF814051FF082F820461EF075F91FF0CE
:10381000C3F9FF208DF8D80505208DF8DC0588E177
:10382000D5F83CB018950BF108030FCB24F019FB29
:1038300000F0928386AC0FC493E39DF8DB85B8F16A
:10384000100F80F0D68206208DF8AD02032047E6E7
:10385000A7F13C060024404647F83C4C31468DF821
:10386000584747E90E4447F8304C1DF080F8A7F15F
:103870002C0B314658461AF039FEDDF854A008F5F5
:10388000B076102C0AD008EB0400013490F86011D7
:1038900090F87021514080F86011F2E7102D40F04F
:1038A000CF82DDF84C8000200F9BE4AC102800F0A4
:1038B000DC821BF8001024F0F6F9F7E75FF8CC057E
:1038C000DA461FF02FF840F60370DDF86480ADF89B
:1038D000DC050DF5BB652FE00D2024F0E8FC0DF5AF
:1038E0008A638DF850040DF580601AF0EFF89DF8AA
:1038F0000004FF2809D05FF800061FF007F80DF557
:10390000806022F003FB1FF047F9DDF86480F007C8
:1039100000F0F6820DF58A6424F041FB9DF85064B6
:10392000DA46FF2E00F0D3840DF5BB65611C681DDF
:1039300024F0E4F88DF8DC650DF58A6604E10120D9
:10394000ADE00DF5BB6409F11801E01D24F02CF980
:10395000092021468DF8A802AAA80130B7223CF020
:1039600043FA00F071BE5FF86C061D46169464467B
:10397000179676461EF0CAFF5046314642465B46D1
:1039800022F09EFADDE916232046294622F098FA15
:103990001FF002F9FF20189D81E29DF852140DF5E9
:1039A0008A66DDF864800A0700F16583DA46032041
:1039B00068E3DDF860B0032004218DF8DC058DF8A4
:1039C000DD15B3E0DDE918B840F60340ADF8DC05DD
:1039D0007AE399F81A11022699F820510DF1680836
:1039E00099F8080101F0030105F0030581F00101D8
:1039F000022885F0010508BF01262943B1FA81F1AB
:103A0000D4E90023D4E902044909039151468DE821
:103A10005100404619F0E7FFC34608F102010DF5D9
:103A2000647812229DF8686040469DF869409DF8D0
:103A300091503CF0D9F9022D40F04883DCA8B8E859
:103A40002E00FF2E2EC0B8F80010DDF86480018033
:103A50007FF4C1AB76E30DF5BB600DF58A610830EC
:103A600024F07AF90020CDF8DC0507205FE00DF5A1
:103A70008A64594620461AF0ACF89DF87964FF2E06
:103A800040F065830DF5987E94E86E0070466EC038
:103A90000DF5BB609EE83E0004303EC0FF200DF5F2
:103AA0008A66DA468DF8D8054AE00DF5987A9AE8E4
:103AB00060051AA8179900F1700499F81E01B44620
:103AC0002E46002808BF0146169A08BF0246159BDD
:103AD00008BF0346149D08BF054604F1280080E88E
:103AE00062100DF58A60B968C4E90832C4E90E8A2B
:103AF00000F0E8FFDDF85434DDF85C14DDF858041C
:103B0000DDF85024C4E90023C4E902010DF58A64FC
:103B100024F077FA9DF85064FF2E00F0DC800DF55C
:103B2000BB60611C23F057FF8DF8DC65FF208DF82A
:103B3000D805DDF864800DF58A669DF8D805DA466B
:103B40000DF5BB65FF2841D1281D311D90E87C0093
:103B500012207CC10DF58A660DF5BB658DF8500409
:103B6000281D311D1AF06EFC0C20DAF82810DAF846
:103B700038202B468DF8D8050DF2144019F0A6FF19
:103B80009DF81404FF2809D0DFF8E00E1EF0BEFEF9
:103B90000DF2144022F0BAF91EF0FEFF0DF58A6115
:103BA000484624F0A4FB1AAC4946204622F0D8FB34
:103BB000FF208DF8D8059DF86800FE2818BF25461F
:103BC00095E81F0088E81F0000F081BC0DF5BB647C
:103BD0000DF58A60C82221463CF03AF89DF8500461
:103BE0001228BDD01128D9D1514699F8F9A0BAF1BF
:103BF000020F04D1DFF86C0E1EF094FECEE799F8A8
:103C00001A01189100F00300012802BF99F8200161
:103C100000F00300012806D099F8F8E00DF1680BD8
:103C20004FF0020A28E009F1D0040DF58560224624
:103C300019F075FF9DF82804FF2809D0DFF81C0E45
:103C40001EF064FE0DF5856022F060F91EF0A4FF01
:103C5000206809F1E00E17900DF1680B606816906E
:103C6000D4E9028C5C469EE86F006FC40DF5BB641E
:103C7000DDE9161099F8F8E0CDF8ECC504F1180C60
:103C8000CDF8E00523468DF8D9E5CDF8E415CDF85B
:103C9000E8859BE873018CE873010B208DF8D8054B
:103CA00018988DF809A68DF808E6816A826B0DF2E6
:103CB0003C4019F00BFFDDF864800DF5BB659DF805
:103CC0003C04FF283FF46AAFDFF8940D1EF01EFE9F
:103CD0000DF23C405EE7E01D1AA923F065FF0A20C3
:103CE0008DF8D8050DF5BB6001302146B7223CF0B8
:103CF0007BF81EE70B20A1E3DDE91110702241EAF9
:103D000000484CA90DF58A603BF0A2FF159A149962
:103D10001002C4E9006B40EA11631398129340EA61
:103D200001251699C4E90453080240EA12624FEAD9
:103D30000820DDF85C8040EA1160C4E9028AA261D3
:103D4000E06104460DF58A6014959030E4A91546AB
:103D500023F00BFF0DF58A612A4601F1200023466E
:103D60008DE8430814981299CDE9048A18F0E6FD0D
:103D700099F80811022940F011820DF5BB640DF588
:103D80008A61E01D23F010FF0920214624F085FA06
:103D9000B72222E20DF58A6A211D0AF1020623F0FC
:103DA000D7FDFAA83146841C23F073FE96AE214657
:103DB00023F0CEFD8CA81899324619F0E1FD9DF84C
:103DC0003042FF2C00F03682DFF8AC0C1EF09EFD76
:103DD0008CA822F09BF81EF0DFFEAAA88CA9053063
:103DE000013114E2E01D0DF58A6123F0DDFE0920AA
:103DF0003AE1BDF8DCB59DF8D9A55FEA8B7042BF0A
:103E000099F81C0140F0020089F81C015FEA8B5010
:103E100040F1AE83EB6BD3E902E1D3E9042341EA3D
:103E2000030C4EEA020050EA0C0000F08B83CDF840
:103E3000D8E5CDF8DC15CDF8E025CDF8E4358AE3FA
:103E4000705DA7F12C0180F080007055DCAD284634
:103E50001AF04CFBDDF84C8000200F9BE4AC1028DE
:103E600003D0295C23F01FFFF9E70DF5BB60314655
:103E70001D461CF07CFD0FCE24F02EF804F110013D
:103E8000DCA822F0E9F9AC46189DDDF858B000280E
:103E9000149E129ADDE9104300F0CF80FF208DF8C8
:103EA000A80240F20340ADF8AC02C9E20DF5BB60D8
:103EB000D84600F1680B08300DF58A6160223BF0AE
:103EC000C7FE16980BF10C01CBF8000030221598B4
:103ED000CBF804001498CBF808001398CBE9065AE5
:103EE000C34651C10DF5BB6088301AA93BF07CFF79
:103EF0001798CDF8DC05082019E6DA460E2050E4C4
:103F0000DFF8500BDA461EF00DFD102049E4DDF815
:103F10006480002800F0DE810A200DF58A6524F017
:103F2000C3F8FAAE23F0CCFF9DF8E843FF2C40F035
:103F30003C82A81D1AA923F037FE06202946ADF8B9
:103F4000D8050DF5BB601230B622EBE2E81D1AA9C8
:103F500023F02AFE0320DEE20020CDE98800CDE92F
:103F600086000DF5BB6886A9404602F067F824F08C
:103F7000F9F847D14CA808F1040100F1030A102216
:103F800024F0DFF8FAAC514623F083FD0DF5BB6851
:103F900018992246404619F0F3FC24F0E3F840F06B
:103FA000F780DBF80000C10700F03D82DBF8041069
:103FB000000A0DF5BB660A0E8DF85E220A0A40EA79
:103FC00001609690ADF85C2296A9304602F084F824
:103FD00024F0C8F840F0DD83311D504623F0C8FDC1
:103FE000DCAE514623F0B4FC0DF5BB68189932469F
:103FF000404619F0C5FC24F0B5F840F0C980189D82
:10400000FFF765BA08F101014CAD132223F07CFDE6
:10401000E4A84ECD4EC029880180A978817003E2C2
:10402000AAA80DF5BB61083023F096FEAB960520DB
:1040300004E2DDE9E4C2DDE9E6344CA817999030EA
:1040400011F0010101BF8B468A460E46884680E882
:10405000400CC0E9038C14301CC00DF5BB64E01D9E
:104060004CA923F0A1FD082024F017F92146B7221E
:104070003BF0BAFEE4E19DF853240F2A00F29E8142
:10408000DA4606208DF8DD0503208DF8DC05FFF704
:10409000B0B909210DF58A658DF85014CDF8540496
:1040A0002B4624F004F94CAE23F00AFF9DF8304172
:1040B000DDF86480FF2C00F029820DF5BB60711CD7
:1040C00023F089FC8DF8DC45FF201BE20BF1140C7A
:1040D00017950DF5987BBCE82F00DE46AEE82F0063
:1040E0009CF800008EF80000BDF89600ADF81C02A8
:1040F000DDF8920086901AA9B8E82D008C46ACE84D
:104100002D001222B8F80000ACF8000009F1D2002E
:1041100089F8D14089F8D0603BF066FEBBE83E00EC
:1041200009F1E4003EC0179989F8F9109BF80010D6
:10413000DDF8648001708698C9F8FA00BDF81C02A9
:10414000A9F8FE000C200DF5BB65FFF74FB84CA891
:104150000DF58A6129223BF047FEDDF87A04022E34
:10416000E490BDF87E04ADF8940300F055844CA9AA
:1041700009F1D00029223BF037FEE498C9F8FA0093
:10418000BDF89403A9F8FE000D2089F8F96086E4D3
:1041900008F10101E4A823F0B1FC45E1CDF8DC050C
:1041A000092118980DF5BB688DF8D8154346816A2A
:1041B000826BDCAE23F084FE9DF87043FF2C23D18C
:1041C00008F106000DF58A6123F0EEFC032041465C
:1041D000ADF8A802AAA81230B6223BF005FE1DE0F9
:1041E0004CA8211DC61C23F0B3FBE4AC314623F0E0
:1041F00050FC0DF5BB6618992246304619F0C0FBFD
:1042000023F0B0FF00F09281AAA8711C053023F0C2
:1042100075FC8DF8AC42FF208DF8A802189D0FE1C7
:1042200008300DF58A6123F097FD0020CDF8DC05FC
:10423000082067E14CA9504623F097FC0AF12004BE
:10424000E4A9202223F06DFCBDF82C021222ADF867
:1042500090049DF82E028DF892040AF145008DF825
:1042600094848DF893B486A93BF0BEFD0AF1570003
:1042700083A909223BF0B8FD28465021AA463BF00D
:1042800090FC99F80801023838BF0220C0B2022819
:1042900000F08182B968032840F0B282189D0F2097
:1042A0000DF5BB688DF8D805A96A4346AA6BFAAE2E
:1042B00023F006FE9DF8E843FF2C40F0198308F137
:1042C00007000DF58A6123F06FFC0720DDE2012075
:1042D000FFF767BA06F19000179010301690F0487B
:1042E0004FF0FF38CDF860B0D7F808B08246584696
:1042F0001CF069FA044658460E461CF064FAE94D73
:104300000023A0FB0502E1FB0523A4FB0541A6FB5E
:1043100005566D184FF00001464152F1000253F16D
:10432000000040F2FF1324EA030341F10001BAEB5D
:10433000030378EB050378EB060378EB0202D6D390
:10434000169B0022DDF860B083E80700DA60179B57
:10435000CDF8540483E807000821DA600DF58A637C
:104360008DF8501423F0A3FFFAAE23F0A9FD9DF8B9
:10437000E843DDF86480FF2C17D1B8680DF58A6634
:1043800000901AAA304600215B460025FDF70CFE7E
:104390009DF85044FF2C08D10DF5BB601AA90830D8
:1043A00023F0DAFCCDF8DC55ABE00DF5BB60711CF9
:1043B00023F011FBFF208DF8DC45A3E089F82011E4
:1043C00009F58F7189F81E0109F58C70BDF8543418
:1043D0009DF85144A9F8223189F8212189F81F411B
:1043E00023F006F989F809112022DBF82C1089F84E
:1043F00008014CA83BF0F8FC0DF58A66DBF830109C
:10440000402223F07EFB1AAD3146284601F06EFDB6
:104410009DF86800FF2800F03D820A20DA468DF8FA
:10442000D503032456E20524189D13228DF8AC42CF
:10443000AAA80530E4A93BF0D7FCFF208DF8A8021C
:104440009DF8A802FF2840F0FF80AAA8AC460430DF
:104450000DF5BB6E0EF1040190E87C000E207CC1CE
:1044600065468DF8D8050DF58A660EF10401301DFC
:1044700019F0E8FF0C20A96A8DF850043346AA6BA6
:104480009BAC204619F022FB9DF86C02FF2808D057
:10449000DFF804061EF03AFA204621F037FD1EF040
:1044A0007BFB0DF5BB61484623F021FFAAAC4946D2
:1044B000204621F044FFFF208DF850049DF8A8020B
:1044C000FE2818BF2646199D96E81F001FC50DF24D
:1044D0007C7D23F002BB0DF58A6E98E85E00704685
:1044E0005EC07146AAA800F1040C91E85D008CE85A
:1044F0005D00A2E708300DF58A6123F02DFCCDF8B0
:10450000DC4507208DF8D805FFF715BBE81D1AA973
:1045100023F04AFB05208DF8D8050DF5BB6001306E
:104520002946B7223BF060FCFFF705BB129C132C19
:1045300040F0E281F01D0DF58A6123F035FB092082
:10454000314623E40020CDF8E405CDF8E005CDF8B0
:10455000DC05CDF8D805DFF800150DF5BB6019F0C6
:1045600014FF28B199F81D0140F0020089F81D01DF
:1045700099F819010C21A9F822B109F58C7B89F869
:104580002181032889F8206189F81FA189F81E413B
:1045900008BF0821A86B90F8702390F87133881831
:1045A00089F81A0109F58F7013B101218BF80010F9
:1045B000594623F01DF889F808010DF5BB6089F80C
:1045C0000911012101F01CFC23F0CCFD40F0B98061
:1045D0009DF8E865DDF8E445BDF8E905ADF8300182
:1045E00031469DF8EB058DF832012046DDF8DC857B
:1045F000DDF8E0A516F0B8FA23F0C4FD58461A46D7
:1046000023F002F9C0B2022840F0BD80BDF83001AD
:104610000DF5BB62ADF8E50529469DF832018DF830
:10462000E465CDF8E045CDF8DCA5CDF8D8858DF86A
:10463000E7057EA819F0A4F99DF8F841FF2C40F099
:10464000CE8001208DF8A8020DF52A7A0DF5BB6009
:10465000C82251463BF0FCFA9DF8D8050DF5BB6E1B
:104660000E283FF400AF0DF58A660D287FF419AFD0
:1046700099F8F980B8F1020F3FF413AF99F81A01D5
:10468000189500F00300012802BF99F8200100F0FE
:104690000300012808D099F8F8E04FF0020829E05B
:1046A000FFC5FCFF40420F0009F1D004A0A8294635
:1046B000224619F034FA9DF88002FF2808D0DFF86E
:1046C000CC031EF023F9A0A821F020FC1EF064FA10
:1046D000206809F1E00E179060681690D4E902BCDA
:1046E00054469EE86F006FC40DF58A66DDE916102A
:1046F00099F8F8E0CDF85C1406F11801CDF85804EB
:104700008DF851E4CDF860B4CDF864C49AE87D002A
:104710007DC10B200DF58A668DF85004189833463C
:104720008DF881848DF880E4816A826BA5AC204687
:1047300019F0CCF99DF89402FF283FF4B2AED448AA
:10474000A8E69DF8E8259DF8DB058DF80822DDF840
:10475000E4258DF8FB01BDF8D9058192DDF8E0254F
:104760009DF8EB15ADF8F901BDF8E9058092DDF88B
:10477000DC25ADF850048DF852147F928DF80B12A1
:10478000ADF8090233E04046514623F013F8052402
:104790002DE0711C38E499F80901002800F0C2806E
:1047A000189D0A200DF5BB688DF8D805A96A434607
:1047B000AA6BFAAE23F084FB9DF8E843FF2C40F08F
:1047C000978008F106000DF58A6123F0EDF90420C9
:1047D0004146ADF8A802AAA81230B62248E4AA4879
:1047E0001EF094F87EA821F091FB1EF0D5F9AAA83E
:1047F0007EA90530013123F081F98DF8AC4224E621
:104800000AF1100000F05EF9DAE906010025CDE9B1
:1048100000010DF58A60DAE9042302A931C10DF522
:10482000BB6018F04DF8DDF8E4150DF5BB68DDF858
:10483000D825DDF8DC35DDF8E005CAE90201CDE96F
:1048400000014046CAE9002301F004FB9DF8D84569
:10485000189DFF2C5AD1FAA808F10401C61C23F0B8
:1048600077F896AC314623F014F991A829462246F0
:1048700019F086F89DF84442FF2C6CD108F107002E
:104880000DF58A6123F090F9022023F006FD4146E0
:10489000FFF7EDBBE4A8291D861C23F059F8DCA81E
:1048A0003146841C23F0F5F8FAAE214623F050F887
:1048B000F5A85946324619F063F89DF8D443FF2C09
:1048C00035D06148DA461EF021F8F5A821F01EFB2C
:1048D0001EF062F9F5A90DF5BB65681D01311322C3
:1048E0000DF58A663BF080FA8DF8DC45FFF72CB9B0
:1048F000AAA8711C05303AE0AAA80DF58A61083013
:1049000023F02AFA601CAB90052085E4FAAE08F18A
:104910000101132223F0F5F891A83146013023F06C
:10492000EDF820E0189D286838B3696844E0E81C79
:104930004CA923F01AF90DF5BB640DF58A6104F159
:10494000240040223BF050FA022029468DF8D80579
:10495000601C2322E6E54B481DF0D8FF91A821F00A
:10496000D5FA1EF019F9AAA891A90530013123F052
:10497000C5F8FF208DF8AC4260E5BC68A846314B15
:104980003F4DD4F8000140280BD3204600212E468D
:104990001D4616F011FDD4F8000140284AD22B46DE
:1049A0003546421C54F82000C4F80021A0FB030146
:1049B000A8421046E7D845460AF140000AF1300205
:1049C0000026CDF8DC15C0E900160DF57A78C2E9AD
:1049D00000160DF5BB63C2E90266A96AAA6BC0E9BD
:1049E000026608208DF8D805404619F06FF89DF84A
:1049F000E843AAA8FF2C04D108300DF58A61FFF71F
:104A000013BB053008F10101B1E7194B00E00B4B76
:104A1000012007211DF07CFD0C481DF0ABFE124A61
:104A200006E01C4A04E0134A02E0094A00E0044A96
:104A300022F092FF114A40211DF0B0FDE01E04005B
:104A4000D01E040040420F006A000000C01E040097
:104A5000B01E040058000000984504006C000000DF
:104A6000630000006E000000A01E0400650000004E
:104A7000744A0400644A040069000000D438040049
:104A80007F3DF1FF660000005F0000006B0000004A
:104A900062000000801E040064000000D0B502AF78
:104AA00092B0BC688DF81020FF228DF80420CDE96B
:104AB00002343A69FB68009201AAFDF7B1FD12B019
:104AC000D0BDD4D4F0B503AF2DE9FF07DFF8949043
:104AD00000260D468046EA46CDE90266CDE900662D
:104AE0000F2E1ED8D5F80041402C07D328460021B0
:104AF00016F062FCD5F80041412C2AD230465146CE
:104B000010224B4619F0E2F802460B4605EB8400F2
:104B1000C4F140011FF0E8FB2044C5F800010E4439
:104B2000DEE704A89AE81E001EC004AB23F035F8A7
:104B30001FBFA8E80F0008B0BDE80007F0BD084897
:104B40001DF0E4FE04A821F0BDFA1EF025F81DF0CA
:104B500071FF054B2046402140221DF0D9FC00BFCB
:104B600070000000284F0400C438040080B56F4670
:104B700018B1BDE8804022F01DBE80BD80B56F46F3
:104B8000016819B1BDE8804000F07AB980BD80B5F8
:104B90006F46D0E9001281F00201114301D0017E7D
:104BA00001B180BD0069BDE8804014F00CBE80B545
:104BB0006F46C24312061CBFBDE8804000F064BED1
:104BC00080BDD0B502AF044690F82D00011F032927
:104BD00005D303280AD104F1300000F0CBFA206A93
:104BE000406800F0AAF9002084F82C00D0BDD4D48D
:104BF000D0B502AF0446006820B923F0A5F822F032
:104C0000FCFFD0BD04481DF081FE20F02FFB1DF0FD
:104C1000C3FF1DF00FFF00BF38000000D0B502AF8A
:104C20000446103017F04CFD41F27C0020441FF088
:104C300047FF41F288002044BDE8D0401FF040BF4C
:104C4000F0B503AF2DE9000F8BB0044690F85B0779
:104C5000032813D0042807D0052812D1D4F86407FC
:104C6000D4F86817FFF782FF94F85A07012805D196
:104C7000D4F84007D4F8441722F09CFD002084F8B3
:104C80005A0794F8C807042804BF04F5FA6000F036
:104C900041FC94F8E000052815D004280AD0032828
:104CA0005BD104F1E8000BB0BDE8000FBDE8F040B7
:104CB00000F002BA04F1E8000BB0BDE8000FBDE857
:104CC000F04000F024BA94F8300503286ED194F82F
:104CD0005803032805D0042860D104F5597000F06A
:104CE000FCFA3B49D4E9D0BAD4F848030968C905AD
:104CF00069D1394917F031FF0646D0E90058C06F35
:104D000006F1080901910138F067484614F095FD55
:104D10002D1A68F10000BBEB05017AEB00003AD3D5
:104D20000DF1080A4946504617F003FDBBEB05009C
:104D3000069004D0411E02A81BF0CAFD80B10DF1FF
:104D40001C089AE82E0040462EC0404618F0DDFDB3
:104D500030B1416801394160F7E70BB022F0BDBEC8
:104D600002AD0020D6E90212914202D1327CD20774
:104D70000BD006EBC101896939B92846494617F0BD
:104D8000F9FC0298E0B10120ECE7C0071CBF06F176
:104D900068001FF039FB019922F0F0FE94F85404EA
:104DA000042804BF04F58B6000F097FA04F1E803CF
:104DB0000FCB896A0BB0BDE8000FBDE8F040084793
:104DC00006481DF0D7FC03481DF0ACFD1DF032FE77
:104DD00004ED00E037000000202E040050350400F0
:104DE00080B56F46C0B2BDE8804039F00DBBD4D469
:104DF000F0B503AF4DF804BD0A46064623F038F976
:104E00000C461349054606F5767020F041FA0E4629
:104E100095F85E13B1B1013985F85E13090604BF38
:104E200095F85C13042905D023F031F822F0E5FE53
:104E300022F0A1BE103041F20131A5F85C131EF042
:104E40000DFAF1E703481DF06DFD1DF0F3FD00BF05
:104E5000FC37040076000000B0B502AF456875B1BC
:104E600002890068D0E9000117F072FB38B10C46E6
:104E7000D0F84013294423F0EBF822F0BEFEB0BD79
:104E8000F0B503AF4DF8048D044601790068FFF7D3
:104E9000AFFF41F20C102618215875688D4208D1D9
:104EA000307AC00705D100214FF004080420002506
:104EB0000FE041F2181004EB000801EB81008D4275
:104EC00008EB800091BFC1F10101691A00254FF084
:104ED000040800F00DFD4046294600F009FD316A46
:104EE00011B1706AC9688847B16A11B1F06AC968BE
:104EF000884704F168005DF8048BBDE8F040FFF7D7
:104F00008DBED0B502AF17F023FB68B10C4690F808
:104F10006F130022012980F86F2304BF00F51E7073
:104F20001EF09CF922F069FED0BD80B56F4600F5F9
:104F3000BD60BDE8804014F046BC80B56F4600F50A
:104F4000BA60BDE8804014F03EBCD4D40168C26DA4
:104F50008A429EBF00210160704780B56F46024BB8
:104F600010460A461DF0D4FA743A04000168426BF8
:104F70008A429EBF00210160704780B56F46024B98
:104F800010460A461DF0C4FA743A040080B56F4614
:104F900090F88810032918BF80BD2C30BDE88040F0
:104FA00000F04BBC80B56F4690F8EC10032918BF99
:104FB00080BD1830BDE8804000F00CB880B56F4669
:104FC00090F8F810032918BF80BD2430BDE8804058
:104FD00000F000B880B56F4690F84410032908D05F
:104FE000042918BF052909D14830BDE8804000F0E8
:104FF00024BC4830BDE88040FFF7C8BF80BD80B505
:105000006F4690F8A610032918BF80BD1C30BDE87C
:10501000804000F09BB880B56F46817F033901293D
:1050200088BF80BD2430BDE8804000F08FB8D4D464
:10503000D0B502AF044690F89A00062826D8DFE8DB
:1050400000F00425250A180F140094F87200BDE83A
:10505000D04022F0A3BB04F1A00000F018F80BE050
:1050600004F1A40000F0C8FA03E004F1B80000F075
:105070000EF8002084F8980094F8990018B194F87C
:10508000320022F08BFB002084F89900D0BDD0B50F
:1050900002AF044690F83201032801D028B1D0BDF8
:1050A00004F17C0000F0A8FA383494F83200BDE82E
:1050B000D04022F073BBD4D4D0B502AF044690F8F0
:1050C0008D020338042821D8DFE800F0110303170C
:1050D000080004F52A7000F026F812E004F52E709E
:1050E00000F0E8F804F57C70FFF730FF09E004F504
:1050F0002A70BDE8D04000F053BB04F5247000F0E6
:105100004FFB2046BDE8D040FFF720BFD0BD80B5A3
:105110006F4690F80C11032918BF80BD3030BDE8F0
:10512000804000F031BB80B56F46017C032908D078
:10513000042918BF80BD00F52C70BDE8804000F048
:1051400075B81830BDE8804000F07CB8D0B502AF2B
:10515000044690F82700042818BFD0BD04F13C0095
:1051600000F0E7FAE06A228ED0E90001BDE8D04005
:10517000FFF7C7BE80B56F46417C042918BF80BDCC
:105180004068BDE88040FFF733BDD0B502AF0446AC
:1051900090F83500032809D0042803D0052818BF4B
:1051A000D0BD03E004F1380000F06AFA002084F872
:1051B0003400D0BDD0B502AF044690F835000328C6
:1051C00004D0042807D0052818BFD0BD04F138004A
:1051D00000F00AF803E004F1380000F051FA002072
:1051E00084F83400D0BDD4D480B56F4690F8501008
:1051F000063907290AD8DFE801F00A0F0904091463
:1052000009045430BDE8804000F0BEB880BD543081
:10521000BDE88040FFF7D2BE5430BDE8804000F0CA
:10522000A1B85430BDE8804000F04BBA80B56F465D
:1052300090F8FC10032918BF80BD1030BDE88040F5
:1052400000F022B8D0B502AF044690F8C901032897
:1052500007D0042818BFD0BD04F5E87000F0ABFA01
:1052600003E004F5F070FFF7E1FF002084F8C801C7
:10527000D0BD80B56F4690F8E010032918BF80BDFF
:10528000BDE8804000F00BB880B56F4690F8DE10A6
:10529000032918BF80BDBDE8804000F0E6BA80B5A4
:1052A0006F4690F8D610032918BF80BDBDE8804036
:1052B00000F0DBBA80B56F4690F82010032907D0C4
:1052C000042918BF80BD2830BDE8804000F073BAC3
:1052D0003830BDE88040FFF7A9BF80B56F4690F831
:1052E000C010032918BF80BD1030BDE8804000F019
:1052F000B0BAD0B502AF0446407A011F022903D2EA
:1053000020681FF0E9FB02E0032818BFD0BD002091
:105310002072D0BDD0B502AF044690F80D01011F38
:10532000022904D2D4F808011FF0D6FB01E00328BB
:1053300002D1002084F80C01D0BD80B56F4690F8F2
:105340006C10032909D0042906D123F01DF803D1DC
:10535000BDE88040FFF71BBC80BD7030BDE88040D9
:1053600000F034B880B56F46017C032907D00429CA
:1053700018BF80BD1830BDE8804000F05EBA143020
:10538000BDE8804000F000B880B56F46017C04297C
:1053900018BF80BD1830BDE8804000F04EBA80B51F
:1053A0006F46017F042918BF80BD2030BDE88040D2
:1053B00000F000B880B56F4690F85C10032918BF64
:1053C00080BD0830BDE8804000F02BBAD0B502AFF8
:1053D0000446007F011F032906D3032818BFD0BD50
:1053E00004F12000FFF7C6FEA0694068BDE8D04088
:1053F000FFF79BBD80B56F4690F83E13032918BF99
:1054000080BDBDE8804000F0FFB980B56F4690F8E0
:105410002C14032918BF80BD7830BDE8804000F00F
:10542000F3B9D0B502AF044690F82000042806D1A5
:10543000E0690078FFF7D4FC002084F82200D0BD9A
:1054400080B56F4690F84010032918BF80BD0C301E
:10545000BDE88040FFF7E5BF80B56F4690F8441087
:10546000032918BF80BD1030BDE88040FFF7D9BFC9
:10547000D0B502AF044642F29820205C06280DD831
:1054800042F28821DFE800F0210A0A040B1116001D
:1054900042F2A020204400F01FF814E0D0BD42F2F8
:1054A000A020204400F092F90DE042F2A020204418
:1054B000FFF7C6FB04F58A50FFF7E2FC206810B93D
:1054C0002046FFF75BFB4FF40A51605821440979ED
:1054D000BDE8D040FFF78CBCD0B502AF044690F8D1
:1054E00052000338032814D8DFE800F01002070C3C
:1054F00004F15800FFF789FF08E004F16000FFF7AE
:1055000079FF03E004F1580000F004F8002084F86B
:105510005100D0BD80B56F4690F82C1231B10329EF
:1055200018BF80BDBDE88040FFF782BD90F8220221
:10553000BDE8804022F032B9D0B502AF044690F801
:105540003200032814D0042806D0052818BFD0BD87
:1055500004F1400000F0DCF894F8300020B1207E27
:1055600010B9206914F02FF9002084F8300003E00E
:1055700004F16800FFF7E1FE002084F83100D0BD9F
:1055800080B56F4690F8F210032918BF80BDBDE8C2
:105590008040FFF716BB80B56F4690F800130329D3
:1055A00018BF80BD00F58470BDE88040FFF702BEE3
:1055B00080B56F4690F8D811032918BF80BD0C3014
:1055C000BDE88040FFF7E1BD80B56F46017B04294F
:1055D00018BF80BD8068BDE88040FFF709BB80B57B
:1055E0006F4690F8A810032998BF80BDD0F89000AE
:1055F000BDE88040FFF7FCBA80B56F4690F8B21066
:10560000032918BF80BD0830BDE88040FFF7F7BC14
:1056100080B56F46817C0E390B2911D8DFE801F087
:105620000610101110101010060B100B1830BDE8EA
:105630008040FFF7D4BF1430BDE88040FFF7C4BFFF
:1056400080BD1430BDE88040FFF7E5BCD0B502AFA7
:10565000044690F83100052809D006280ED104F13F
:10566000480000F066F8A06BA28F22F07FF9D4E921
:10567000000122F09FF8002084F83000D0BDD4D47F
:1056800080B56F4690F82C100339052918D8DFE84B
:1056900001F00317170D08123030BDE88040FFF706
:1056A0007EBE3030BDE88040FFF76EBE3030BDE8D2
:1056B0008040FFF77FBE3030BDE8804000F001B889
:1056C00080BD80B56F4690F86010052907D0062987
:1056D00018BF80BD6430BDE88040FFF76BBE7430FA
:1056E000BDE88040FFF75EBC80B56F4690F82D1096
:1056F00041B1032918BF80BDD0E90601BDE8804053
:10570000FFF734BAD0E90001BDE8804022F052B87A
:1057100080B56F4690F84C10032901D009B102E022
:105720002030017E01B180BD0069BDE8804014F0E9
:105730004AB880B56F4690F82510042918BF80BD7F
:105740002830BDE88040FFF787BB80B56F4690F8F2
:10575000441039B1032918BF80BD1430BDE8804022
:10576000FFF7C2BFD0E90101BDE8804022F022B8B6
:1057700080B56F4690F89810032918BF80BD50304F
:10578000BDE88040FFF7E1BF80B56F4690F8CE10CE
:10579000032918BF80BD0830BDE8804000F065B81F
:1057A00080B56F4690F82C11032918BF80BDBDE865
:1057B000804000F05AB880B56F4690F8F010032989
:1057C00018BF80BDBDE88040FFF753BDD0B502AF24
:1057D000044690F82900032803D0042818BFD0BD40
:1057E00003E004F12C00FFF7B0FF002084F828004C
:1057F000D0BD80B56F4690F83011032918BF80BD29
:10580000BDE88040FFF775BD80B56F4690F8301356
:10581000032918BF80BD00F58470BDE88040FFF704
:1058200079BD80B56F4690F85010032918BF80BD30
:105830000C30BDE88040FFF703BE80B56F4690F89E
:105840005810032918BF80BD1030BDE88040FFF715
:1058500003BE80B56F4690F8AC10032918BF80BD19
:105860001030BDE88040FFF783BF80B56F4690F8E9
:105870002010032918BF80BD2430BDE88040FFF709
:1058800077BF80B56F4680BD80B56F46C0B2072830
:1058900018BF80BD0846BDE8804021F07FBFB0B58D
:1058A00002AF051D0C4634B155E90101FFF75EF961
:1058B000013C1035F7E7B0BDB0B502AF051D0C4691
:1058C00034B155E9010121F075FF013C1035F7E7CE
:1058D000B0BDB0B502AF00F13A050C463CB115F8C9
:1058E0003A0C15F8401BFFF7CFFF013CF6E7B0BDBF
:1058F000B0B502AF051D0C462CB1F5E8050121F04D
:1059000059FF013CF8E7B0BDE0B502AFCDE90001B9
:1059100001A968461CF0FEF9B0B502AF88B0016875
:10592000DFE801F0042E282A26343C2CD0E90101BE
:10593000CDE900016846029030481CF0E7FF30488E
:105940001CF0BFFF2F48049002A803902E48069039
:1059500003A82E490590A7F1090005AA1DF002F839
:105960002B4801211DF046F91DF016F908B0B0BD15
:105970001F4806E01F4804E0184802E0184800E00D
:105980001D4808B0BDE8B0401CF0CCBF44681748C3
:105990001CF0BCFF20461CF0ABFF19E0D0E901541D
:1059A00010481CF0B3FF10481CF08BFFDFE805F037
:1059B000020D0406002009E0022007E003201CF08D
:1059C000BFFF20461DF024F802E001201CF0B8FFC4
:1059D00008B0BDE8B0401DF0DFB800BF4A000000CD
:1059E0004400000045000000440100003B000000AE
:1059F0003A0000004600000047000000430000009D
:105A000009000000143A0400532902006E0E04003D
:105A10005B3F0400D0B502AF044610481CF051FFB4
:105A20002068023838BF0020DFE800F00210090BC0
:105A300022F0CDFC2046BDE8D0401EF045BE02203D
:105A400000E00320BDE8D0401CF07ABF22F07FFBCD
:105A50002079BDE8D0401EF029BE00BF4201000001
:105A6000F0B503AF2DE9E00F04464548DFF814A177
:105A7000D04794F874001CF063FF94F875001CF094
:105A80005FFF414D2846D0474048D0472846D04781
:105A90003F48D0472846D04794F82000029094F819
:105AA000210001903B4894F8228094F823B094F8A8
:105AB000245094F82560D047DFF8DC903046C84782
:105AC0002846C8475846C8474046C8470198C8476F
:105AD0000298C8470020D0473048D04704F1100949
:105AE0002F4899E86003D04746EA090045EA0801D3
:105AF000084316D022F02BFBDFF88CB05846D04775
:105B00002848D0475846D0472748D04728463146EE
:105B100042464B461CF084FF0020D0470020D0476F
:105B200001E022F054FC0020D047DFF85CB094E89C
:105B300060035846D0471D48D04728463146424664
:105B40004B4620F0BDF90020D0470020D0475846F2
:105B5000D0471748256BD04728461CF059FF1548F9
:105B6000D04734342DB114F8010B1CF0E9FE013D8F
:105B7000F8E70020BDE80E0FBDE8F0401CF0A1BE24
:105B800040010000C32802000B0000004C0100008F
:105B90004B01000050010000F91A02004D01000005
:105BA000070000004E010000D10000004F0100007E
:105BB000430100000C000000D0B502AF04460A48C3
:105BC0001CF07FFE2088012809D122F0C0FA074886
:105BD0001CF077FE6088BDE8D0401BF0EFBD0020D0
:105BE000BDE8D0401CF0ACBE0700000085000000FE
:105BF000D0B502AF044604481CF063FE2088BDE81F
:105C0000D0401BF0DBBD00BF85000000D0B502AF67
:105C1000044604481CF055FE2078BDE8D0401CF036
:105C20008FBE00BF0C000000D0B502AF0F4A526912
:105C3000BFF35F8FA2B152680123014413600023B8
:105C400088420AD0D2F80041002CFBD0C2F80031C3
:105C5000D2F8084500F8014BF2E701205060D0BDB2
:105C600003481CF05FFE1CF0E5FE00BFB09500206D
:105C700033000000F0B503AF2DE9000F97B093F8A3
:105C800014900DF11C0A06901546D3E902049846BB
:105C9000DE7C0322039050464B460096059116F099
:105CA000C1FC0DF12C0B5146584614F00FFE9DF827
:105CB000300059460290032200960DA84B4614F07E
:105CC000B5FF200A04948DF84D4001908DF84E00E8
:105CD00022200D9C8DF84C004148129012A92046BC
:105CE00015F09AF804F1F00098F812B0B8F8109096
:105CF0001DF0D6F9012863D003200DF13C0A8DF880
:105D00004400D4F8EC000F9041F080000AF1040147
:105D10008DF842002046BE688DF843B0ADF8409043
:105D20001DF014FCD6B104F1F2001DF0B9F9012800
:105D30004DD003208DF84FB08DF850008346D4F835
:105D4000EC00ADF84C908DF84E10129012A8011D89
:105D500020461DF0FBFBDDE9129401E04FF0FF0B44
:105D6000099840301DF0C2FC019805F120066877C3
:105D70002220E8764FF48070A5F819001948C5F87C
:105D800015000298049A2875D8E90001039B2A7728
:105D9000C5E90032C5E90260134A05982961294620
:105DA00016F024FC069DC5E90394284685F814B036
:105DB0009AE80E000EC0AE6117B0BDE8000FF0BD4E
:105DC0000D48A7F11D02009018210C4805E0074876
:105DD000A7F11D02009019210548064B1CF023FD78
:105DE000100100010921100168200400543604004C
:105DF000383604000432040028360400103604004B
:105E0000F0B503AF4DF8048D8EB0054608A888465E
:105E100021F086FC0898C0B1A7F1370008A9C61C7C
:105E20000C2221F06EFEA7F146003146C41C0C2264
:105E300021F077FE0BAE21460C2221F062FE2846AF
:105E40003146424614F0A2FE01E0162028700EB042
:105E500021F0D0BEF0B503AF2DE9000F89B00446A4
:105E600004A8022122F0A9F822F07CFA02D021F045
:105E70000DFD0FE021F026FDFA6810230792BA68A5
:105E80000692064ACDE904A6009204AA21F0F1FC8C
:105E900021F089FD84F800B021F0F3BD9C200400BE
:105EA000F0B503AF2DE9000F89B0044604A8032123
:105EB00022F083F822F056FA02D021F0E7FC0FE03E
:105EC00021F000FDFA6810230792BA680692064A8C
:105ED000CDE904A6009204AA21F0CBFC21F063FDD9
:105EE00084F800B021F0CDBDAC200400F0B503AFC4
:105EF0002DE9000F99B003AE044620220D4621F093
:105F000000FE05F120010BAD202221F0FDFD304601
:105F100013F0D8FB284613F0D5FB14A80B21FFF78C
:105F20006FFF9DF850B0BBF1FF0F16D09DF85300E6
:105F3000E070BDF851009DF86310DDE91565A4F827
:105F40000100BDF86100179A9DF86030ADF84C0073
:105F50008DF84E1021F0DDFC33E09DF86080DDF817
:105F60005C90BDF861009DF86310DDE91552ADF855
:105F70004C00A4F8110048468DF84E10E1744146DB
:105F8000029214F0F1FD114B82460E46202051463C
:105F9000324617F0DEFC0E4A2023009203AA21F0BD
:105FA00068FC0C484021009020205246334617F0F0
:105FB00021FC094A202300920BAA21F05AFC21F06F
:105FC000F2FC84F800B019B021F087BDBC200400B9
:105FD000CC200400DC200400EC200400F0B503AF6A
:105FE0002DE9000F89B0044604A80C2121F0E5FF3B
:105FF00022F0B8F902D021F049FC17E021F062FC50
:106000000246F8680B4B8C4607901146B86862460A
:1060100006901020CDE904A617F09BFC064A102339
:10602000009204AA21F025FC21F0BDFC84F800B008
:1060300021F027BDFC2004000C210400F0B503AFC3
:106040002DE9FE0F044602A888460721FFF7D8FE77
:106050009DF808A0BAF1FF0F16D09DF80B00E07074
:10606000BDF809009DF81B10DDE90365A4F80100E7
:10607000BDF81900059A9DF81830ADF804008DF8A8
:10608000061021F046FC1FE09DF81860DDF8149022
:10609000BDF819009DF81B10ADF80400A4F811001C
:1060A00048468DF80610E1743146DDE9035B14F0D3
:1060B0005BFD084A10230092424621F0DAFB267469
:1060C000C4E9015BC4F80C9084F800A007B021F08B
:1060D00004BD00BF1C210400F0B503AF2DE9FF078C
:1060E000044603A80D460821FFF78AFE9DF80C0020
:1060F000FF281ED09DF80F10E170BDF80D109DF81F
:106100001F20DDE90463A4F80110BDF81D10DDF8BF
:1061100018C09DF81C50ADF808108DF80A202574A1
:10612000C4E90163C4F80CC0A4F81110E274207033
:1061300032E09DF81C80069EBDF81D00ADF80400FD
:1061400041469DF81F008DF806003046DDE9049AAF
:1061500014F00AFD19B30246A8790B46002818BFAF
:106160000120107007210F480090012017F042FB1A
:106170000D4A062300922A4621F07BFBFF2084F87B
:1061800010802070BDF80400A4F811009DF80600EE
:10619000C4E9019AE660E07408B021F011BE034A38
:1061A00021F0DAFB3C2104004C2104002C210400E6
:1061B000F0B503AF4DF804BD054600780C46DFE8A6
:1061C00000F00B512436186E7B4D9A208D151C77EC
:1061D000112D0E677F9E6A002046002180E0204638
:1061E00010216FE06A7820460E2111E020460B2135
:1061F00076E06A782046042184E06A7820460C2103
:1062000080E06A78204609217CE06A7820460221F5
:106210005DF804BBBDE8F04000F087BD6A78204619
:106220000F215DF804BBBDE8F04000F08DBD2046B5
:10623000032113F043FBC043000637D1A878214661
:1062400000F0E4F80646C043000651D1D4E901014C
:1062500088422BD0697800F8011B65E06A782046F7
:1062600007214FE02046012113F028FBC043000620
:106270001CD1687802285AD001286CD1204601210F
:1062800013F01CFBC0430226000631D1A97820E0A0
:106290002046112116E06A782046142132E020467B
:1062A000052113F00BFBC043000631D002261FE08E
:1062B0006A7820460D2125E06A782046062121E0F3
:1062C0002046122113F0FAFAC043022600060FD12D
:1062D0006978204613F0F2FAC04305E020460A210F
:1062E00013F0ECFAC0430226000608BF4FF0FF3659
:1062F000304621F06CBC6A782046082102E06A78BA
:10630000204613215DF804BBBDE8F04000F02BBD32
:10631000D4E901018842C9D06A7821F0F4FD6360B4
:10632000C4D0A978417002306060FF26E0E72046C3
:106330000221022613F0C2FAC0430006D8D1A97880
:106340000029C6D081290AD082290AD0832914BF06
:1063500004210321BDE7AA782046002161E701213D
:10636000B7E70221B5E7D4D4B0B502AF054600784F
:106370000C460421142888BFA0F11501C8B2DFE83B
:1063800000F0031A0F1306262046002115E02046D0
:10639000042113F093FAC04300061FD00220B0BDC1
:1063A0006A1C2046022102E06A1C20460321BDE847
:1063B000B04000F0ABBC2046012113F07FFAC0438F
:1063C00000064FF0020008BF4FF0FF30B0BD6A7802
:1063D00020460521BDE8B04000F0C5BC2846214656
:1063E000FFF7E6FEC14309060FD1E81C2146FFF77F
:1063F000DFFEC143090608D1D4E901018842CDD0AE
:10640000A97900F8011B6060FF20B0BD80B56F4620
:1064100080F080000A460749C0B251F820101046AB
:1064200013F04CFAC04300064FF0020008BF4FF0D3
:10643000FF3080BD0C530400F0B503AF2DE9C00759
:1064400004460620CDE90010684600F056FDC0F372
:106450000725C1B2022901D1012039E0C0074BD084
:10646000684600F04AFD21F075FF02D10120354653
:106470002EE0C00740D0684600F03FFDC0F307287B
:10648000C1B2022902D10120454621E0C00733D024
:10649000684600F032FDC0F30729C1B2022902D1DB
:1064A00001204D4614E0C00726D0684600F025FDC7
:1064B00021F04BFF02D10120554609E0C0071BD057
:1064C000684600F01AFD21F028FD07D1012015468D
:1064D000012125542170BDE80C07F0BDC0070BD089
:1064E000657000210620154684F805A084F8049004
:1064F00084F80380A670ECE701200E25E8E7D4D4E9
:10650000BCB504AF0546684621F0DDFC21F054FC23
:1065100003D19DF80140FF20CBE00198142800F240
:106520000A81DFE800F0C60B3A849D57B548AE33C8
:10653000C6C641962C4F1F71A4BC7D00684621F051
:10654000C2FC21F039FC40F0BB809DF80110FF2413
:10655000E0B2FF284FF0010008BF0C4608BF4FF023
:10656000FF30A6E0684621F0AEFC21F025FC00F0EB
:106570008480019C1B2C00F2DB80102098E021F02D
:1065800075FBC0070C464FF00E008EE021F06EFB4D
:10659000C0070C464FF0090087E021F067FBC007F9
:1065A0000C464FF0020080E021F060FBC0070C4673
:1065B0004FF00C0079E021F059FBC0070C464FF07A
:1065C000070072E0284600F089F9C0070C464FF03A
:1065D0000F006AE00220CDE90050684600F08DFC13
:1065E000C0F30724C1B2022949D0C00700F0A0803F
:1065F000684600F082FC21F090FC27D0C00700F034
:1066000097800520114654E0684621F05CFC21F09B
:10661000D3FB32D0019C062C00F28A80112047E087
:1066200021F024FBC0070C464FF014003DE0012090
:10663000CDE90050284600F051F90C46C0071ED1A4
:10664000684600F05AFC21F068FC52D1FF2000217E
:1066500053E021F00BFBC0070C464FF00D0024E087
:1066600021F004FBC0070C464FF004001DE0684613
:1066700021F029FC21F0A0FB34D19DF80140FF203E
:1066800016E021F0F3FAC0070C464FF008000CE0CA
:1066900021F0ECFAC0070C464FF0060005E021F0AF
:1066A000E5FAC0070C464FF0130018BF4FF0FF305B
:1066B0000021E2B2C0B2120242EA01410844BCBD6C
:1066C000019802283AD81ED001282AD1684621F024
:1066D000FAFB21F071FB3FF438AF019933292DD833
:1066E000012435E7019850B1012821D1122001245D
:1066F000DEE7C0071CD0214603201446D9E712204C
:1067000000210024D5E7684621F0DDFB21F054FB91
:106710003FF41BAF0198042810D80A490224095CF1
:1067200016E7284600F0DAF800F0010044420FE7CF
:10673000FF200E24BCE7FF200E24EDE6FF240E21EF
:1067400006E700BF0C570400BCB504AF044668461A
:1067500021461EF06DFB21F02FFB03D19DF80110A7
:10676000FF201FE0019858B1012826D16846214634
:106770001EF05EFB21F020FB04D19DF801100FE01C
:1067800002200FE0019D022D02D9FF200E2108E01A
:1067900020461EF075FBC0F30721C0B2022809D1C4
:1067A000FF200025C9B2FF2818BF40EA054040EA93
:1067B0000120BCBD00F00100F4E7FF200E21D0E76E
:1067C000F0B503AF2DE9E00F044601A80D4613F024
:1067D0003FFF9DF80400012805D19DF80500FF2129
:1067E0006070217061E00298052871D8DFE800F040
:1067F000032F17230531152056E00320CDE9015062
:1068000001A800F069FB20F07F460546C0B24FEAC0
:106810001628FE282BD1FF2084F8018044E028466A
:10682000FFF76EFEC14309061DD0A4F80100000C5D
:10683000E070172038E02846FFF762FEC1430906E2
:1068400011D0A4F80100000CE07018202CE01620F4
:106850002AE021F00BFAC00761704FF01A0018BF50
:106860004FF0FF3020E0000A6070FF201CE0FF289E
:1068700030D001A800F030FB20F07F4B8146C0B241
:106880004FEA1B2AFE2803D1FF2084F801A00BE069
:10689000FF281FD001A800F030FB81B2C2B2090A64
:1068A000022A05D1FF2061702070BDE80E0FF0BDF7
:1068B000C0070FD0300C4FEA1B42A171627184F8FF
:1068C00004A084F80390A07084F801802570ECE7A0
:1068D0000E2084E740F6FF602080E6E7E0B502AFD7
:1068E0000146684613F0B4FE21F066FA03D19DF824
:1068F000011001208CBD0199DD2900F218810020D2
:10690000DFE811F0DE00DE00DE00DE00DE00DE008B
:10691000DE00DE00DE00DE00DE00DE00DE00DE0087
:10692000DE00DE00DE00DE00DE00DE00DE00DE0077
:10693000DE00DE00DE00DE00DE00DE00DE00DE0067
:10694000DE00DE00DE00DE00DE00DE00DE00DE0057
:10695000DE00DE00DE00DE00DE00DE00DE00DE0047
:10696000DE00DE00DE00DE00DE00DE00DE00DE0037
:10697000DE00DE00DE00DE00DE00DE00DE00DE0027
:10698000DE00DE00DE00DE00DE00DE00DE00DE0017
:10699000DE00DE00DE00DE00DE00DE00DE00DE0007
:1069A000DE00DE00DE00DE00DE00DE00DE00DE00F7
:1069B000DE00DE00DE00DE00DE00DE00DE00DE00E7
:1069C000DE00DE00DE00DE00DE00DE00DE00DE00D7
:1069D000DE00DE00DE00DE00DE00DE00DE00DE00C7
:1069E000DE00DE00DE00DE00DE00DE00DE00DE00B7
:1069F000DE00DE00DE00DE00DE00DE00DE00DE00A7
:106A0000DE00DE00DE00DE00DE00DE00DE00DE0096
:106A1000DE00DE00DE00DE00DE00DE00DE00DE0086
:106A2000DE00DE00DE00DE00DE00DE00DE00DE0076
:106A3000DE00DE00DE00DE00DE00DE00DE00DE0066
:106A4000DE00DE00DE00DE00DE00DE00DE00DE0056
:106A5000DE00DE00DE00DE00DE00DE00DE00DE0046
:106A6000DE00DE00DE00DE00DE00DE00DE00DE0036
:106A7000DE00DE00DE00DE00DE00DE00DE00DE0026
:106A8000DE00DE00DE00DE00DE000F01110103018A
:106A900007011301E1000B010D01F300FF00FB00F2
:106AA0000901F100E700ED00EF00F700F900E30055
:106AB0000501FD000101E900E500DF00EB00F50044
:106AC0008CBDE5218CBDD2218CBDDF218CBDE421A4
:106AD0008CBDDA218CBDE3218CBDE6218CBDDB2190
