:1010000008FC032001110000BBCE0300F92E0600EE
:10101000BBCE0300BBCE0300BBCE0300000000002C
:10102000000000000000000000000000BBCE030034
:10103000BBCE030000000000BBCE0300BBCE03000C
:1010400059110000C1110000BBCE0300BBCE03004C
:10105000BBCE0300BBCE0300B9D303004512000092
:1010600091120000BBCE0300BBCE0300391200007A
:10107000BBCE0300CD110000BBCE0300BBCE0300EE
:10108000BBCE030091D40300BBCE0300BBCE030054
:10109000AD110000BBCE0300BBCE0300BBCE0300EE
:1010A000BBCE0300BBCE0300BBCE0300BBCE030010
:1010B000BBCE0300BBCE0300000000000000000018
:1010C000BBCE0300BBCE0300BBCE0300BBCE0300F0
:1010D000BBCE0300BBCE0300BBCE03009D120000BD
:1010E000BBCE0300BBCE0300BBCE0300000000005C
:1010F00000000000BBCE030000000000BBCE0300D8
:101100003BF0DEFE0E480F490022814201D004C0B0
:10111000FBE70D480D490E4A814202D008CA08C0BB
:10112000FAE70C484FF47001026842EA01020260DB
:10113000BFF34F8FBFF36F8F38F095FF00DE0000D5
:1011400080220020781F0120080000207C2200203F
:10115000A0E4060088ED00E0B0B502AF5BF04CFD06
:10116000104C206828B1002020600F481C303CF053
:1011700041FC606850B10C4D0020606005F11C001E
:101180003CF038FC05F134003CF034FCA06838B188
:101190000020A06004483430BDE8B0403CF02ABCD8
:1011A000B0BD00BF1C010040180A012080B56F4689
:1011B0000248BDE880403CF01DBC00BFD0F50020D7
:1011C00080B56F46BDE880405DF0A8B8F0B503AFCC
:1011D0004DF804BD154E002030603DF0AFFB144DBE
:1011E0000446A869F0B94FF0FF30A861686A78B189
:1011F000A96A88420CD0D6F808140170D5E9090113
:1012000001306862884204BF05F11C003CF0C6FB57
:10121000A8690130A86120465DF804BBBDE8F04034
:101220003DF0C2BB03483BF0CBFC00BF00D1004007
:10123000940A0120F8A4060080B56F46BDE88040FE
:101240005DF008BFD0B502AF0F4C206930B110205F
:10125000C4F808020D482C303CF0CCFB606830B17B
:101260000220C4F8080209482C303CF0C3FB206877
:1012700040B10120C4F8080204482C30BDE8D04039
:101280003CF0B8BBD0BD00BF00710040180A01207F
:1012900080B56F46BDE880405DF034B8F0B503AF6F
:1012A0004DF8048D84B0344C206858B1334D012082
:1012B000C4F8080205F11C003CF09CFB05F1240079
:1012C0003CF098FBE06D38B14FF40000C4F8080220
:1012D0002A4824303CF08EFBA06A38B14FF480607D
:1012E000C4F80802254824303CF084FBA06D28B1E6
:1012F0000020A06521481C303CF07CFB206EB8B378
:1013000000202066D4F86C631C48C4F86C63BFF3FB
:101310005F8F50E8051F314340E80512002AF8D1DD
:101320000020BFF35F8F8DF80C0007200DF104083B
:10133000029001200190404638F058FC012817D156
:1013400001F01F040D4626FA04F0C00704D0284619
:1013500028F0D6FD3CF04EFB84F0100026FA00F099
:10136000C007E8D0284628F02BFE3CF043FBE2E71C
:1013700004B046F0E3B800BF00710240180A012033
:10138000F0B503AF2DE90007ADF5846D044690F884
:1013900014040D4620B1032815D01E483BF0B7FCBD
:1013A000E846214640464FF4847261F087F9D4F84C
:1013B000101442AE4246304622F0D6FB04F584704B
:1013C000314646F0A4FE04F58478A7F124002A46AD
:1013D000414618F099FF57F8246CB51C01D1032041
:1013E0000FE0404657E908A905F06EF9701C07D0D8
:1013F000A7F1240047E9096A47F81C9C06F088F920
:10140000012084F81404B5FA85F040090DF5846DC7
:1014100046F0B3BC9C540600F0B503AF2DE9000FB5
:1014200095B0D0E90149834608468A46A4EB0905F0
:1014300044F094FD854201D200200BE25046DBF8D7
:10144000005044F08BFDDFF81C142A46009100EB9D
:1014500009014846234628F070FD9AF80020FF2A2B
:101460001FD19AF80420FF2A3ED147F061FABAF85A
:10147000080001280AA814BF1B211D2142F048FBC7
:10148000C0B2022840F0DD81BAF80A100AA842F082
:101490005FFBC0B2022840F0D481DAE903120AA847
:1014A0004EE1B2F10A044FF0000398BF1C46002C35
:1014B00035D0012C48D147F03BFA0AA8522142F01E
:1014C00027FBC0B2022840F0BC81BAF80C100AA871
:1014D00042F03EFBC0B2022840F0B381DAE90112CB
:1014E0000AA843F03FFC35E0CDE903010020059058
:1014F000DFE812F00900C5005E00A2003200EF0034
:101500001B01C200290103A8032142F001FBC0B264
:10151000022840F09681BAF8061003A88BE10AACC5
:101520000A2A0BC400F29981DFE812F00B001501C2
:101530003201350169014701730197019701970154
:1015400012010AA8102108E147F0F2F90AA81E21A9
:1015500042F0DEFAC0B274E103A8092142F0D8FAE1
:10156000C0B2022840F06D81DAF8144003A8214689
:1015700042F0CEFAC0B2022840F063810AF10802BC
:10158000139446F0CCFB0AA8294644F081FB9DF851
:101590002800FF2840F0548146F00BFBC0B202281F
:1015A00040F04F8146F0E0FFC0B20228EBD048E1A6
:1015B00003A8052142F0ACFAC0B2022840F04181F4
:1015C0009AF8144003A8214642F0A2FAC0B20228B9
:1015D00040F037810AF108028DF824400DF14008EF
:1015E00007CA06AB07C30AA80430029003AC0AA8D6
:1015F00006A944F0A3FBBDF82800002840F0208194
:10160000029AA446BDF82A10404678CA78C06446BB
:1016100012780270604642F09BFAC0B2022840F095
:101620001081404642F044FA45F006FD43F09AFB33
:10163000C0B20228DBD004E103A8012142F068FA1D
:10164000C0B2022840F0FD809AF8051003A842F0CD
:101650005FFAC0B2022840F0F480BAF8081003A87C
:1016600042F076FAC0B2022840F0EB809AF80610F9
:1016700003A842F0FDF9E0E003A80D2157E003A81C
:10168000072142F045FAC0B2022840F0DA800AF1A0
:1016900008020DF1280846F042FB4046294644F076
:1016A0004FF89DF82800FF2840F0CA80BDF82A10A6
:1016B0003046BDF82C4042F04BFAC0B2022840F050
:1016C000C0803046214642F043FAC0B20228E4D03E
:1016D000B7E003A8112142F01BFAC0B2022840F083
:1016E000B080DAF8144003A8214642F011FAC0B2E3
:1016F000022840F0A6800AF10802139446F00FFB7E
:101700000AA8294644F0C4FA9DF82800FF2840F0B2
:10171000978046F04EFAC0B2022840F0928046F020
:1017200023FFC0B20228EBD08BE003A80B2142F0CC
:10173000EFF9C0B2022840F08480DAE9021203A86F
:1017400043F010FB79E003A8132142F0E1F974E0C3
:101750000AA80C215FE00AA8082142F0D9F9C0B21A
:1017600002286ED1BAF812100AA842F0F1F9C0B2FC
:10177000022866D1BAF814100AA842F0E9F9C0B2FA
:1017800002285ED10AF101010AA844F003F854E0EE
:101790000AA80A2135E00AA8122142F0B9F9C0B21C
:1017A00002284ED1BAF802100AA842F0D1F9C0B20C
:1017B000022846D1DAE9011271E60AA8062142F0B0
:1017C000A7F9C0B202283CD1BAF802100AA842F028
:1017D000BFF9C0B2022834D1BAF804100AA842F006
:1017E000B7F9C0B202282CD1BAF806100AA842F004
:1017F000AFF9C0B2022824D1DAE902124FE60AA8F2
:10180000022142F085F9C0B202281AD1BAF80210BA
:1018100010E00AA8042142F07BF9C0B2022810D1DE
:10182000BAF802100AA842F093F9C0B2022808D10F
:10183000BAF804100AA842F08BF9C0B2022800D10D
:101840000220022806D1504644F088FB4844CBF8D9
:101850000800022015B045F020BE03480F21034ABE
:101860003AF04DFDF8C10600E4CA060004CB0600BC
:10187000F0B503AF4DF804BD84B00446D0E90130A3
:101880000D46191A04290CD32268061D084945F093
:1018900001FCCDE9020102A82946042228F05AFBE6
:1018A00008B1002001E00220A66045F0E8BD00BFBD
:1018B0000C56060080B56F460021017301490131C5
:1018C000016080BD180A012080B56F4645F2C8123C
:1018D000815010440021C17380BDD4D4E0B502AF63
:1018E000DFF880C0044600254DF2A80040F2011246
:1018F00085422FD02B18654405F1180656E8001FC5
:1019000021B946E800210029F8D103E0BFF32F8F69
:101910001D46EDE71448686205F128002146FFF7EF
:10192000D3FF204629463BF0EFFC0025BFF35F8F35
:1019300054E8000F44E800510029F9D1BFF35F8F4C
:1019400030B1C669C5614576416A88473046F7E7D8
:1019500020BFEBE705487A1E00902B210448054B79
:101960003BF07DF9E8220020CD360200306406000D
:1019700041C30600387E0600F0B503AF2DE9000B29
:1019800094B00446F8680DF13C0846F027F99DF83C
:101990003C00FF2803D040F6032020801DE0A7F183
:1019A0004E0008F10401851C45F0D4FA02A829462E
:1019B000861C45F006FA0BAD314645F0CBFA46F0F1
:1019C000ECFD2078FF2808D046F053FF04483BF098
:1019D0009BFA46F083F83BF0FFFB14B045F0A0BD46
:1019E0009F000000F0B503AF2DE9000FCDB0FE68F9
:1019F000D7F80880CDE91D2056F870AFD8F844001C
:101A0000C346CDF8AB00C1465BF8410FD6F808E0FD
:101A10002A90D8F83D00129316917268F568D6F8AE
:101A200010C07369B169F469CDF8CB0059F83A0F69
:101A30002192CDF870E01B95CDF868C019932091E4
:101A40001F94329032A88DE8120454460DF1F80A22
:101A5000CDE9032E624605952AA9CDE90610A6F127
:101A60003001504624F014F922A89AE82E002EC026
:101A7000429811904398109044980F9045980E907A
:101A8000306A1890706A179008F14E00D6E90AA5DE
:101A900044F0C1FE20F07F40CDE90A0B2098009071
:101AA0001F98CDE90104219803901C98CDE908A561
:101AB000049005461B98CDF854B0059083461898BD
:101AC00006901798CDF84C90CDF83090149407906C
:101AD00026A822A91A9A199B9146984623F0FCFF42
:101AE0001D98102804D126A8169929F03EFF30B180
:101AF0001E99FF20087040F6033088805EE0D6E92A
:101B00000C40D7F808A01D90B06B18900AF148005F
:101B1000F66B44F080FE20F07F400A9013980B9003
:101B200015980C90209804901F981899CDE90504F9
:101B30001D98CDE90816CDE9005BCDE90298079024
:101B40002AA822A9149A219B23F0C6FFDDE92C01C3
:101B5000DDE92A23CDE900013EAC204606F064F819
:101B60009DF8F850FF2D0AD0611C32AC45F086FA82
:101B70001E9E214645F071FC3571FF201DE00DF1E0
:101B8000C809211D09F1030545F0E4F92EAE2946E7
:101B900045F017F9129C0DF1F808324640462146EF
:101BA00028F0E3FA9DF8F850FF2D0AD01E9E08F1A8
:101BB000010145F052FCFF20357130704DB045F009
:101BC000A0BB9AF8380002239AF84A100DF1F808E1
:101BD0009AF85020022801F0030008BF012302F008
:101BE000030180F0010081F0010108430F99009189
:101BF000B0FA80F00E994009CDE901132146DDE9E4
:101C000010320390404628F0E3FA9DF82161022E3D
:101C100009D198E86E0048466EC01E9E99E83E00C5
:101C2000301D3EC0A9E732AC3EA9292245F0B7FBE2
:101C3000BDF826012146ADF830012922DDF8220148
:101C40004B903EAD45F0A5FB5046294646F0E2FDDF
:101C50004B981E99CAF82A00BDF83001AAF82E0048
:101C60000A208AF829600870A8E7D4D4102B7DD107
:101C7000F0B503AF2DE9000F9DB009908846F868D4
:101C8000137800F16006D2F80100D2F80540D2F8CE
:101C9000095043EA002C39692B0243EA14632402F9
:101CA00044EA1060D47BB2F80D20C6E900C042EAD5
:101CB0000442120242EA1562C6E9023218A803F091
:101CC00037F806F1300A189806F11003F66B1A9AE5
:101CD00008F07F041999DDF86CB0069283E80708D4
:101CE000A4F140020791314608909AE82006504638
:101CF00060F09AFDCDF81480804628464946224679
:101D000060F092FDC4F14002814650463146D7F85A
:101D10000CA060F0C4FE0AF1200103910699402C4A
:101D2000CDE901BA009138BF49EA00082948002CE2
:101D300008BFA84646F058FD0AA8DDE9073223F09F
:101D40002FFFDDE90C01DDE90A23CDE9000118AC24
:101D5000204605F0A5FE9DF86050FF2D0CD0611CBB
:101D60000FAC45F08BF9099E21461FE0FF21017061
:101D700040F6032181807047DDF814900FA8C61C3F
:101D8000211D1022D7F8088045F036FB14AD3146EE
:101D900045F0E0F818AC41462A46204628F0E5F91F
:101DA0009DF86050FF2D09D0099E611C45F055FB40
:101DB000FF20357130701DB045F0A3BA099C514623
:101DC000B02204F1080060F079FC0620C4F8049009
:101DD0002070F0E7C0FFFF7FF0B503AF2DE9000BE7
:101DE00094B00446F8680DF13C0845F0F7FE9DF804
:101DF0003C00FF2803D040F6032020801DE0A7F11F
:101E00004E0008F10401851C45F0A4F802A82946FB
:101E1000861C44F0D6FF0BAD314645F09BF846F0EA
:101E2000BCFB2078FF2808D046F023FD04483BF097
:101E30006BF845F053FE3BF0CFF914B045F070BBA2
:101E40009E000000F0B503AF2DE9000F9FB0824661
:101E5000880701D411206BE0D56B934605F1080388
:101E60000FCB45F024FF11BF8DE80F000020CDE916
:101E70000200CDE9000016AE6946304605F004FFC9
:101E80009DF85840FF2C3DD111A8311D00F10308E9
:101E9000102245F026FE0AAE414644F092FF0DF1B5
:101EA00058095946324646F04EFD9DF85840FF2CE1
:101EB0002FD12868C10740D06968000A0A0E8DF842
:101EC0003E200A0A40EA0160ADF83C200E9016AEB2
:101ED0000EA9304605F022FF9DF85840FF2C11D185
:101EE000311D404645F01FFB1BAE414644F069FFE3
:101EF00005A85946324628F038F99DF81440FF2CC1
:101F0000A8D00CE011AD711C45F09FF905A8294639
:101F100002E005A809F10101013045F03DFA05A9EB
:101F20000AF10500013145F037FAFF208AF8044034
:101F30008AF800001FB045F0E4B90524EFE7F0B5DA
:101F400003AF2DE9000F8BB0044602A80E46002116
:101F5000924605F07BFD9DF80800FF281DD09DF8F6
:101F60000B10E170BDF809109DF81B20DDE903C5D9
:101F7000A4F80110BDF81910059E9DF81830ADF8B1
:101F80001C108DF81E202374C4E901C5E660A4F876
:101F90001110E274207045F069B89DF818B0059DE5
:101FA000BDF81900ADF8040059469DF81B008DF8E6
:101FB00006002846DDE9038921F018FD02460B469C
:101FC00006F1480011461A4644F0DEFCC0B2022871
:101FD0001CD1BDF804005146ADF829009DF806005B
:101FE0008DF828B00995CDE907898DF82B0002AD51
:101FF00007AA284628F0B9F89DF80860FF2E10D0EF
:10200000601C691C45F0C8F92670C4E705204946E4
:10201000207040460BB0BDE8000FBDE8F04044F032
:1020200089BCFF20B6E7D4D4F0B503AF2DE9000F8B
:102030009FB00D46B968069314460B901AA802F09B
:1020400077FE1A9804F170061C9A05F07F0504F1DA
:10205000900B1B991D9B0FC60892A5F140020A9098
:102060009BE8400E504609915946079360F0DCFB0F
:102070008046304649462A4660F0D6FBC5F140020C
:1020800081465046594660F00AFD04F12001402D7A
:10209000CDE90241079901910899009138BF49EAB9
:1020A00000082448002D08BFB04646F09DFB0CA850
:1020B000DDE9093223F074FDDDE90E01DDE90C23D1
:1020C000CDE900011AAC204605F0EAFC9DF8685005
:1020D000FF2D0BD0611C11AC44F0D0FF0B9E2146AC
:1020E0001322701C60F0B6FB35701FE0DDF82C8009
:1020F00011A8C51C211D44F02DFF16AE294644F041
:1021000060FE1AAC06993246204628F02EF89DF85B
:102110006850FF2D07D008F10100611C45F03CF923
:1021200088F8005002E0FF2088F800001FB045F05A
:10213000E8B800BFC0FFFF7FF0B503AF2DE9000F87
:10214000B5B016461D46CDE91210B046D6F83D0092
:102150000DF1A00C55F8702FCDF8A30058F83A0FE8
:10216000289056F8410FD5F808906B68D5F80CA068
:10217000D5F810E0D5F814B0AC69E9692C90D6F820
:10218000030014921593CDF86C90CDF868A0CDF8AB
:1021900064E0CDF860B017941691CDF8B3002CA888
:1021A0008DE800460DF18009CDE9051CA5F130014F
:1021B00007904846CDE903B423F06AFD1CA899E8CE
:1021C0001E0005F1300B1EC0249811902598109028
:1021D00026980F9027980E90F01D9BE8100AD5F8CE
:1021E0003CA044F018FB20F07F40CDE90A08DDE96F
:1021F0001A10CDE908BA0C96CDE9000119980290A1
:102200001898039017980490169805A981E8110270
:1022100028A81CA9DDE9142323F05EFCDDE92823AE
:102220000DF18009DDE92A01CDE90001484605F0FC
:10223000FBFC9DF88060FF2E0ED02CAC09F1010153
:1022400044F01CFF139D21461322681D60F002FB21
:10225000FF202E71287051E0DDF84C802CA8C61CA0
:1022600009F1040144F0ADFD31AC314644F00AFF00
:102270000DF180091299224646F065FB9DF88040D9
:10228000FF2C0BD008F1050009F1010145F084F89D
:10229000FF2088F8044088F800002FE005F1200BAB
:1022A000464608F11804ED6A9BE8000D09F10700A5
:1022B0001CA945F038F90B20494606F8010B1722F6
:1022C00045F09AF8199804F12C0120621898606280
:1022D0001798A0621698E56381E8010D11982060B7
:1022E000109860600F98A0600E98E06014982061CC
:1022F000159860611B98A0611A98E06135B045F0AF
:1023000000B8D4D4F0B503AF2DE9000F8BB004466C
:102310000220ADF80A0001208DF808001E462C4866
:1023200088468DF80920039007A844F0B9FA079D64
:10233000EDB3DDE9089BFB20D7F808A0CDE904B098
:102340000020069004A803A9FFF792FAC0B2022861
:102350001CD104A802A9FFF78BFAC0B2022815D13C
:10236000DDE90530191A02290ED3049A19490091A2
:10237000811C019127F0E1FDCDE9070107A8314655
:10238000022227F0E7FDB0B1042004E0C0074FF0BF
:10239000040018BF0D2001212070617028464946B5
:1023A0000BB0BDE8000FBDE8F04044F0C3BA162002
:1023B000207044F05BBE019851460A9007A880E85F
:1023C000200A07AB2046424622F046FFF1E700BF55
:1023D000060005000C560600DCB504AF10CBB83182
:1023E00000943DF0B1F8DCBD91F8673301F514724B
:1023F000012B12BF91F8561202F58C720121A0B187
:10240000D0B502AF9388B0F8154112686340D0F898
:10241000114162401A4390F817315940C90718BF5B
:102420000020002A18BF0020D0BD00207047D4D45F
:10243000F0B503AF2DE9000794B002AD88468146A0
:10244000482145F085F9D8F80C404826334B2946F9
:10245000482C38BF26463046482227F07CFE0546E9
:10246000D8F808008A46214625F0C0FA8E4251D895
:1024700003462B4800901A4628465146334644F0FE
:10248000B8FA022C09D22D483AF03EFD30463AF017
:102490002DFD3AF0A1FE0A2019E09DF80800441E27
:1024A000E5B20E2D12D22046A6F1010A21F026FE39
:1024B00080B282451BD109F1010002A9482260F0D7
:1024C000C9F9C9F84C6089F8004008E0072089F88C
:1024D0000500032089F80400FF2089F80000D8E9EE
:1024E000000144F027FA14B0BDE80007F0BD0D4824
:1024F0003AF00AFD0C480D4CA0470D48A0470D4886
:102500000D4950F8250051F8251038F0CBFC00207B
:10251000A047BEE70A4B0A4645F029FA5C57060079
:102520007C5706009400000011000000C7CE030095
:10253000C00100002CD00600F4CF0600950000007A
:102540006C570600F0B503AF2DE9000F95B01C786D
:102550008046FF2C15D045481D4616468A4693F8FE
:1025600001B03AF0D1FC42483AF0ADFC284642F0C6
:1025700053FA032C18BF4FF0080B3AF02DFE192C1C
:1025800005D1FF2088F8000015B044F0BABEB6F8B7
:1025900058430FA844F084F90F98002847D0A7F1BA
:1025A00043000094C51C0FA90C2244F0F2FEA7F1D1
:1025B00052002946C61C0C2244F01EFF12AD3146C3
:1025C0000C2244F0E6FE02A82946042221F020FA5B
:1025D0009DF80800DDE903549DF81860FF28DDF838
:1025E000149025D14846314621F000FAD9B380F83D
:1025F00000B0304621F0F2F9CDE904904046CDE933
:10260000025402AD009A51462B4622F025FE98F85E
:102610000000FF28B5D098E85E0028465EC0154847
:102620003AF072FC45F0F3FA3AF0D6FDACE716202A
:102630009DF80B1088F80310BDF809109DF81B20B9
:10264000A8F80110BDF81910ADF804108DF8062097
:1026500088F81060C8E90154C8F80C90A8F8111067
:1026600088F813208EE7044A44F044FB8D000000F4
:10267000AC010000920000009C570600F0B503AFCB
:102680004DF8048D92B00DF104080D460646114632
:10269000404644221C4660F057F9B868294600902D
:1026A00030464246234600F005F812B05DF8048B30
:1026B000F0BDD4D4F0B503AF2DE9000FADF29C6DA1
:1026C0000D46014605F1D0001690DCAE95F8C840E5
:1026D00006F1600B05F1780A99469046022CCDE987
:1026E00018155DD11AAE2946C82245F049FB1520C0
:1026F0009DF8681028710E2028700C2998F80000A9
:1027000000F23483DCAA02F17004DFE811F00D005E
:10271000AA0163014B01F2003001FC012F03970273
:10272000E7022F03CC02CD00FF2804BF98F80C105D
:10273000002900F00D87411E0329C0F0D98200282E
:1027400040F0108398F80100002801F03F800DF55B
:102750009F684946404627F030FE9DF82165FF2ED0
:1027600001F03E87DCAC0DF59F61292244F017FE95
:10277000DDF82205214688902922BDF82605ADF80E
:10278000240205F1D00060F065F88898C5F8FA00D9
:10279000BDF8240285F8F960A5F8FE0000F023BF1B
:1027A000CDF85C900DF50C792946C82248465FF0BB
:1027B00085FF15209DF830122871122028700F29EE
:1027C00098F8000000F28B851AAA02F16003DFE896
:1027D00011F01000A103F6027104A40486056F0332
:1027E000BF03FC0386057F05080586058605D9021B
:1027F0007A03FF2804BF98F80C200A2A40F06F855E
:10280000D8F80800002802F04B8295F819010C2234
:10281000D8F8041005F1D006032808BF0822DDF817
:102820005CB0DBF8383093F8700393F871330244EE
:1028300085F81A210C7813B1012185F818110DF5CE
:102840009F6858B195F81C0195F81D1140F00300E0
:1028500085F81C0141F0030185F81D111AA859469D
:1028600027F0FDFDDDF860A09DF89100022807D05B
:10287000600741F15F829DF89000022801F05A82C2
:10288000DCAC31465A462046FFF759FB9DF8706391
:10289000FF2E01F0A68108F10500611C44F07CFDCB
:1028A0008DF8FC6401F05CBAFF2804BF98F80C2096
:1028B000082A40F01A82D8F80820002A02F0EE8197
:1028C000D8F804000478DCAE022C80F09A870DF56D
:1028D0009F68062A42F2D48150F8011FC5F81111F1
:1028E000818845F0C8FC01D045F08AFA0D2002F03D
:1028F0006FB8FF2804BF98F80C10022900F0128668
:10290000042800F23682DFE810F07B06F301F301C1
:1029100005007B0605F118010DF59F650DF59F601B
:10292000902200F1900446F04BF80DF55C7A711C92
:10293000112245F02AF80026D8F80400C4E9000660
:10294000C4E904069DF87003C4E90266C007C4E93F
:10295000066601F01784B8680AF10102CDE9009516
:10296000002102908CA81023FFF780F9C4E1FF2812
:1029700004BF98F80C20022A40F0B7810DF59F643F
:1029800005F10801B02220465FF098FED8E9012346
:10299000A046B8681B99CDE9009402908CA8FFF777
:1029A00065F9ABE1042800F27987DFE810F0290629
:1029B00005005107A10129069DF86900002801F0D2
:1029C000128106F1180016991022CDE90010B11CF1
:1029D00000F0D9BEFF2804BF98F80C20032A40F06D
:1029E0008481CDF85C9005F108014CA870225FF05D
:1029F00065FE9AE8400A05F198012022DAF80CA059
:102A0000C6A85FF027FF44F0D8FF40F02887D8F829
:102A100004000DF59F6532464B46D0F8091015911C
:102A2000D0F805101491D0F801101391017812918B
:102A3000C17B11911799B0F80D0010902846CDE98F
:102A400000BAFEF799FF9DF8F884B8F1FF0F01F086
:102A5000DE818CA8691C44F0D4FB8DF8348200F030
:102A600002BFFF2804BF98F80C200B2A40F03D81DC
:102A7000D8E901120DF54678404643F039FED9F801
:102A80002C10BEAC44F0EEFAD9F830104CAE402217
:102A9000CA4644F0B1FC0DF59F69214642463346D3
:102AA000484643F057FD9DF8F804C00700F0DE8665
:102AB0009DF8FB0409F106018DF806021222BDF80B
:102AC000F9049DF8FC449DF8FD64ADF804027CA86F
:102AD0005FF0C0FE09F1180079A90DF59F650CC8DB
:102AE0000CC1007808704CA9284605F025F89DF81F
:102AF000F804FF2801F0D8810A204FF003088DF870
:102B0000710301F0FCB9FF2804BF98F80C20032AD8
:102B100040F0EB8005F10801DCA844F033FF44F0FD
:102B20004CFF40F0AC86D8F804001B9DCDF85C90BB
:102B3000D0F801100278DBE90E9842EA0122CBF8C6
:102B400020201592D0F80930D0F805201C021195EC
:102B500005F07F0544EA1264120242EA1161CBF8E3
:102B60002840CBF82410C5F140021491C17BB0F885
:102B70000D00139440EA01404146000240EA136A06
:102B80004846CBF82CA0DBE90C645FF088FF12907C
:102B9000304621462A465FF047FEA5F14002044632
:102BA000484641465FF040FE1299402D38BF44EA46
:102BB0000100E649002D08BF3046DCAA61F35F0042
:102BC000139B02F12001CDE9003ACDE902120490F5
:102BD000BEA8DDE9143222F0E3FFDBE900ACDDE959
:102BE000BE648CEA0401DBE90289DDE9C03589EACB
:102BF000050008438AEA060288EA030111430843F4
:102C000041F00380DBE904230DF59F64DBE9060155
:102C1000CDE90001204604F069FF9DF8F864FF2E1D
:102C200001F0B283611C4CAC44F028FA8CA8214618
:102C300044F0E7FA8DF8346200F015BEFF2804BFB7
:102C400098F80C20032A50D105F10801DCA844F0C3
:102C500099FE44F0B2FE40F01A86D8F8040004F160
:102C6000100544F032FC0EC5B968E061204602F060
:102C70005FF8D4E90201D4E900230DF59F64CDE9A2
:102C8000000149462046FEF777FE9DF8F864FF2EC6
:102C900001F045818CA8611C44F0B3FA8DF83462D0
:102CA000FF2001F077BAFF2804BF98F80C20072A0C
:102CB0001BD144F082FE40F0128695F8F900DCAE9C
:102CC000022808D0D8F804000AF1680444F0FDFB9B
:102CD0000EC4CAF874000C2000F006BEFF2804BF22
:102CE00098F80C200C2A00F04785421E032A36D2A1
:102CF0008CA81AA945F02DFD0DF59F68DCAE9DF856
:102D00003002FF2800F07F840DF50C7A0DF59F60EE
:102D1000C82251465FF0D2FC9DF8F8040E2800F05E
:102D20007D84199D0D2840F09C84C84695F8F99043
:102D3000B9F1020F00F0958495F81A0100F0030034
:102D4000012802BF95F8200100F00300012800F0DF
:102D5000BE8495F8F8E04FF0020900F0E5BC0028C9
:102D600000F03A84042804D100F04ABCFF2840F067
:102D7000298498F80C00042800F0C4830D28B7D0EB
:102D800000F03EBCFF2804BF98F80C20072A40F052
:102D9000A68244F012FE40F03786DDF85CB095F86C
:102DA000F900022808D0D8F804000AF1680444F0B9
:102DB0008CFB0EC4CAF874000F2000F027BEFF2859
:102DC00004BF98F80C200B2A40F08982BEAE09F1AE
:102DD000040120229A4644F00FFB05F1240B0DF567
:102DE00046794022484659465FF034FDD8E9011241
:102DF0004CAC204643F07CFC0DF55C783146224615
:102E00004B46404643F0A6FB9DF87003C00700F018
:102E100000869DF8730308F106018DF8AA001222BE
:102E2000BDF87103ADF8A800BDF874431AAE06F101
:102E300045005FF00FFD06F1570008F11801092267
:102E40005FF008FD06F120004CA944F09FFA3046DF
:102E5000594644F09BFA50465021ADF8AB405FF024
:102E6000D6FB95F80801811E38BF0221DDF85CB061
:102E7000C9B2022901F0ED80DDF860A0032941F01C
:102E80000C810F200DF55C788DF8700344F0E3FEA3
:102E9000D6AE44F0B9FE9DF85843FF2C41F0618353
:102EA00008F107001AA944F0AAFB092001F0BCBBF5
:102EB00098F80C10FF2808BF022900F0EA83FF28C9
:102EC00000F0118249E2FF2804BF98F80C20082A7C
:102ED00040F00582D8F80820002A01F0E386D8F8EF
:102EE0000400DDF85CB00478022C80F0D1850DF58B
:102EF0009F68062A41F2C68650F8011FC5F81111D5
:102F00008188DDF860A045F0B6F900F0DA8244F07F
:102F100077FFD6E2FF2840F0E08298F80C100A29EB
:102F200000F07F85012940F0DE81D8E90112DCA89C
:102F300043F03AFD9DF87003022840F083860A2092
:102F4000DDE917BA0DF59F6801F059B9C0FFFF7FA1
:102F5000FF2804BF98F80C20022A40F0C08105F138
:102F60000801DCA860225FF0A9FB9AE8500605F191
:102F700088011AA845F09FFB44F01FFD40F05A85D8
:102F8000D8F804000DF598788D99224615913346AE
:102F90000168149141681391816812911799C06872
:102FA00011904046CDE9009AFEF716FF9DF830B12A
:102FB000BBF1FF0F01F023800DF59F6245F039FC56
:102FC00044F0EAF98DF8FCB4F6E1FF2804BF98F864
:102FD0000C20032A40F0838105F10801DCA844F0AD
:102FE000D1FC44F0EAFC40F02E858D985D46DBF87C
:102FF00030A0DBF8341000F07F04DBF838B0A4F127
:103000004002D5F83C901491139058464946D8F8A0
:103010000460CDF854A05FF007FC14998046504638
:1030200022465FF001FCC4F1400282465846494600
:103030005FF035FDF368D6F800907268D6F808B0F6
:10304000DCA9039120310291402C1493CDE900B307
:1030500038BF4AEA00081598002C08BF8046DB48B4
:1030600045F0C2FB90461AA84A46434622F098FD16
:10307000D5E902E3DDE91A42D5E900C1DDE91C60CA
:103080005140584084EA0C02084386EA0E0111437D
:10309000084340F0E28514981399C5E90898C5F8EB
:1030A00028B01329E862199D41F0AE800DF59F60AC
:1030B000DCAB8CE0FF2804BF98F80C20022A40F01B
:1030C0000E8105F108011AA8B0221C465FF0F6FA3D
:1030D00044F073FC40F07483D8F8040044F0F5F930
:1030E00084E80E00B968E06004F1100001F020FEF1
:1030F000D4E90601D4E90423CDE90001DCAC44F0B5
:1031000088F89DF87063FF2E40F06386E01D1AA9D1
:1031100044F075FA042000F06CBEFF2804BF98F854
:103120000C20032A40F0DB800DF1680B05F108014B
:10313000B0221C4658465FF0C1FA44F03EFC40F015
:103140003F83D8F804000BF120028168D0F80CA06E
:10315000D0F80490D0F800800020CDE9001ACDE925
:1031600014214B46CDE9022B42460490C6A822F01A
:1031700017FDD4E902E3DDE9C652D4E900C1DDE977
:10318000C860514058408CEA050208438EEA0601A7
:103190001143084340F0728504F11003159DC4E902
:1031A00008890FCBC4E90A5A149CCDF800B001AECF
:1031B00086E81003CDE9045A22F032FD199D95F8F6
:1031C0000811022941F03E800DF59F601AABDDF831
:1031D0005CB0169A5946FEF7AFFFDDF860A000F02C
:1031E0002EBCFF2804BF98F80C200C2A77D105F1DB
:1031F0000801DCA8502206F110045FF05FFAD8E95C
:10320000010104F1280A0D90206912906069119063
:10321000A0691090E0690F90206A1390606A149082
:10322000606B0E9005F58F709AE800071591D4E950
:103230000E6B43F0F0FAD5F8142120F07F40D5F85A
:103240001111CDF833214C91D5F80D21D5F80A1183
:10325000CDF86B201A91CDE9086B0A904CA80B9021
:103260001AAD1298029011980390109804900F983C
:10327000CDE9050A0E980C95CDE900890790D6A8EE
:10328000DCA9DDE9132322F027FC1598102806D1CC
:10329000D6A90D9828F069FB002800F0F9844FF0BA
:1032A0000B080326199DDDE917BA0DF59F60BEA92D
:1032B000063012225FF0CEFAFF208DF8FD848DF8E3
:1032C000FC64DCAE8DF8F8040DF59F6801F0B9B927
:1032D000FF2804BF98F80C20032A00F05A82FF2828
:1032E00009D198F80C10042922D045F02DFA0D29A7
:1032F00000F0F880FFE00539082900F2EE80DFE8F1
:1033000001F0052CECEC81ECECD1E9000DF59F68A7
:10331000012800F09482DDF85CB0022840F0EB80D8
:1033200040F60340DDF860A0ADF8FC0401F08BB975
:10333000DDF85CB0D8F80800002801F0AB8445F057
:10334000F7F98DF8FC14411E102928BF08208DF8CC
:10335000FD04DDF860A001F076B9032840F0BD80DF
:103360000DF55C7A05F11801902250465FF0A6F940
:103370000020D8F804100DF16808179BCBE90C1059
:103380005246CBE910100021CBE90E00CBE9120028
:10339000B868009040469DF83162FEF745FE9DF802
:1033A0006840FF2C00F053830DF59F6245F041FA11
:1033B00043F0F2FF8DF8FC44FF20DDF860A08DF8AB
:1033C000F804DDF85CB001F039B900BFC0FFFF7F41
:1033D000B0870600970000009B000000A2000000DC
:1033E000990000008B00000093000000515204007F
:1033F000A4C60600A40000008E0000009800000093
:1034000089000000042868D10DF1680905F1080160
:10341000B02248465FF052F9D8F8010008F12104C3
:1034200014902022D8F8050021461590D8F80900FC
:103430001290D8F80D0013904CAE43F0DDFF5FF80A
:103440007010204628F091FA40B95FF87C1006F120
:10345000100028F08AFA002800F088844946DDF838
:103460003C91DDE94DA82031DDF830B10020CDE9F7
:103470000089CDE9021153460490DCAC5A4620463F
:1034800022F08EFB06F11001204628F06EFA00288B
:1034900000F07084FF208DF8F80440F20340ADF88E
:1034A000FC04CAE2C8B998F80100002800F0508373
:1034B000DDE917BA0DF59F6895F82301800700F143
:1034C000C08595F822110DF59F605A46FEF7BAFCAB
:1034D00001F0B5B8002800F0AB8145F035F90138AE
:1034E000022808D20DF59F608CA945F032F9DDF86D
:1034F00060A001F0A4B81520DDF860A08DF8FC04F0
:1035000001F0A1B8D8F80800002801F0C58345F003
:103510000FF98DF83412411E102928BF08208DF8AC
:10352000350270E044F049FA40F05981D8F80410AF
:103530008CACA01C43F0F7FF0DF59F6805F1180156
:1035400008F1060044F05BF844F049F804204AE131
:103550000DF59F604946D8E901A9179126F07FFF34
:103560009DF8210502281ED00D200DF59F688DF8CD
:10357000F8040DF55C7B17984346816A826B5846C8
:1035800026F098FE9DF87003FF280BD09BE85E00A4
:1035900040465EC05FF8C40139F0B6FC44F09EFAC4
:1035A00039F01AFE199D0DF59F6051464A4643F0C9
:1035B000FBF99DF8F844022C40F01A81DDF85C908C
:1035C0000A208AE2072908BF042800F09081421EE1
:1035D000032AFFF48DAB98B90A2911D198F801009C
:1035E000002800F0F38095F81D01800700F1628249
:1035F00095F82201DCAE80074CBF0B200D2073E153
:10360000152045F09CF88CA808F10401043090E8DE
:103610007C000E207CC1DCAE8DF8F804301D08F172
:10362000040134F019FA0C20D9F828108DF8700331
:103630003346D9F838204CAC204626F03BFE44F007
:10364000C5FE0DD0304694E86E006EC0DCAE5FF86B
:10365000780239F059FC304641F0D0F939F0BCFD20
:10366000199D0DF59F61284645F073F88CAC2946ED
:10367000204641F054FEFF208DF870039DF8300283
:10368000FE2818BF2646189D96E81F001FC501F0AA
:1036900018B844F092F940F0C480D8F804100DF541
:1036A0009F6808F1020043F03EFFB01D05F11801CC
:1036B00043F0A5FF012031468DF8F90408F112000E
:1036C000B6225FF0C7F8DDF85CB00620ADE04CAE86
:1036D000169A4146304626F016FE44F077FE0DD08D
:1036E0000DF55C7B96E83E0058463EC05FF814033B
:1036F00044F0EBFF44F036FE39F06EFD169805F10C
:10370000E00EAC46544601681791416814918168F7
:103710001591D0F80CB09EE86F006FC4DDE914215C
:1037200017989CF8F8E0DCAECDE9E01B06F1180133
:10373000CDE9DE028DF871E39AE87D007DC10B20B2
:10374000DCAE8DF8A1938DF8A0E333468DF87003BD
:10375000D8F82810D8F838204CAC204626F0AAFD1E
:1037600044F034FE3FF47CAF304694E86E006EC007
:10377000DCAE5FF894036CE706F10800169BD8E90D
:103780000112CDE900308CA84B46FEF72BF9FFF76C
:10379000B3BA05F10801DCA844F0F4F844F00DF9DF
:1037A0000ED1D8F8040043F090FEFF90FCA80EC0A4
:1037B000DCAB0DF59F60DDF85CB044F049FE73E1D1
:1037C000FF20DDE917BA44F040FA6FE15FF8EC033F
:1037D00039F0A6FB44F08BFD40F6037053E0052062
:1037E00044F0ADFFFF20DCAE8DF83002FFF789BA60
:1037F0009DF8FA64DDF85C90300700F167810320E2
:103800006BE15FF81C0439F07FFB204637F0E6FCE3
:1038100039F0E2FC05200DF59F688DF8340201F0C7
:10382000D6B844F0D0FF0DF59F68DDF860A099E2AE
:1038300098F80100002800F099811120F2E0DDF8ED
:103840005CB009F108030DF59F6044F001FE4EE6FF
:1038500040F603400DF59F68ADF83402D3E640F61C
:103860000320ADF8340244F042FD19E340F6033082
:10387000ADF8340244F03BFDD146FFF73DBA44F0C9
:1038800036FD40F60320ADF83402FFF735BA44F0B8
:103890002EFD05208DF83402FFF72EBA9DF8690041
:1038A00000287FF466AA98F80C000C287FF461AA1F
:1038B00044F083F840F0DB85D8F804108CACA01CF1
:1038C00043F031FE0DF59F6805F1180108F106007F
:1038D00043F095FE43F083FE032000F0CCBD0520AD
:1038E0008DF83402FF20DCAE8DF8300213E3CDF802
:1038F0005C9005F108014CA844F044F808F1210659
:103900000DF546792022484631465EF0A3FF5FF868
:103910004015D8F80D0015903046D8F80140D8F879
:1039200005B0D8F809A095F81E5141F089FC40B9BE
:103930005FF8641509F1100041F082FC002800F0E6
:103940002D84CDE913BA0DF55C7ACDE91154C6ABDF
:103950000DF53E780FCB109044F071FC0F9141466D
:10396000BE9050460E920D9337F0F8F80DF59F6417
:10397000002651464FF4B8722046CDF8DC64CDF8ED
:10398000D864CDF8D464CDF8D064CDF86866CDF8AD
:103990006C66CDF87066CDF874665EF0D5FF0DF5F7
:1039A0005C7A21464FF4C07250465EF0CDFF8DF830
:1039B000F0644CA800F120045FF8D0955046202216
:1039C0002146C847504621462022C8470DF59F6B27
:1039D000504601228DF8F8645946C847584651466A
:1039E0004FF4C2725EF0B0FF9DF878A60BF5B87187
:1039F0005FF804361022504626F069FD002970D089
:103A000000F8016B0139F9E744F0DDFE8DF8F804A8
:103A10004AE040F60330ADF8FC04FF208DF8F804CE
:103A20000BE00120DDF860A044F08EFE8DF8F80474
:103A300000F04BBEFF2044F008F9DDE917BA0DF5A0
:103A40009F6800F0FBBD05200DF59F680AE1DDF8D9
:103A500060A0F00700F0618109F1020043F035FD3C
:103A60008BE80E00CBF80C00DBE90601DBE9042350
:103A7000CDE900011AAC43F0CCFB9DF868600DF570
:103A80009F68FF2E00F0A18408F10500611CD3E3BC
:103A90005FF8A00639F038FA204637F09FFB39F07E
:103AA0009BFBFF2044F0D1F8DDF860A00DF59F6886
:103AB00000F0C5BDD9F83CA00AF108030FCB44F0D3
:103AC000F6F800F0F18282AC0FC4F2E29DF8FB84BC
:103AD000B8F1100F80F0328206208DF835020320F5
:103AE0008FE5A7F13C060024584647F83C4C314688
:103AF0008DF8784647E90E4447F8304C36F09FFA87
:103B0000A7F12C093146484634F032F80BF5B0766F
:103B1000102C0AD00BEB0400013490F8601190F8DF
:103B20007021514080F86011F2E7BAF1100F40F0B7
:103B30002E82DDF850A00DF59F68DDE9124B0020C4
:103B4000102800F03D8219F8001043F037FEF7E727
:103B50005FF85C0739F0E4F940F60370DDE917BA65
:103B6000ADF8FC040DF59F6800F06DBD0D200DF55E
:103B70005C788DF870030DF1680917984346816AE7
:103B8000826B484626F096FB9DF86800FF280CD013
:103B900099E86E0040466EC0DCAE5FF8A00744F0C6
:103BA00094FD43F09BFF39F017FBDDF860A0E007C0
:103BB00000F04982DCACDDE9161B5A462046FEF7D0
:103BC000BEF99DF870630DF59F68FF2E00F05884D4
:103BD00008F10500611C43F0DFFB8DF8FC6400F088
:103BE000AFBF0120BDE00DF59F6805F1180108F198
:103BF000070043F004FD092041468DF830028CA8EF
:103C000043F041FCDCAEFFF77FB85FF80C089B4641
:103C100015953546664639F077F9504631464246A5
:103C20004B4640F01DFE159B284621465A4640F063
:103C300017FE39F0D1FA44F05AFB40F20340ADF8D8
:103C400034022DE19DF872130DF59F68DDE917BA76
:103C50000A0700F1CE820320D1E2199D0DF59F687D
:103C6000DCAE032004218DF8FC04FF208DF8FD1448
:103C70008DF8F804DDE917BA00F0E1BC199D0DF5E7
:103C80009F68DDE917BA40F60340ADF8FC04F4E2A2
:103C9000DDF864B0AC4602269BF81A119BF820515F
:103CA0009BF8080101F0030105F0030581F0010113
:103CB000022885F0010508BF01262943B1FA81F1E8
:103CC000D4E900234909D4E9020403916546179910
:103CD0008DE85100604626F07BFA0DF5467AA91C66
:103CE00012229DF8686050469DF869809DF89140C9
:103CF0005EF0B0FD022C40F0C582BEA8BAE82E00EE
:103D0000FF2E2EC05D46BAF80010DDF860A0DDF889
:103D10005CB001807FF4C9AAF1E20DF59F68DCA9CF
:103D200008F1080043F02EFE0020CDF8FC04072027
:103D3000FFF745BBDCAC5946204626F03EFB9DF81C
:103D40009963FF2E40F0DE820DF5987C94E86E00BA
:103D500060466EC008F104009CE83E003EC0199D1C
:103D6000FF20DCAE8DF8F80400F06BBCDDE94CBA46
:103D7000DDE94E891AA8129E00F1700495F81E0123
:103D8000002808BF0646159908BF0146149A08BFC7
:103D90000246139B08BF0346C4E90821B968C4E979
:103DA0000A63C4E90CBAC4E90E89DCA800F0C0FFBC
:103DB000DDE9DE01DDE9DC23C4E90023C4E9020119
:103DC000CDE90001DCAC43F024FA9DF87063FF2ECE
:103DD0000AD00DF59F68611C43F092F9FF208DF821
:103DE000FC648DF8F8040EE0E01D1AA943F007FC0E
:103DF0000A200DF59F688DF8F80408F101002146AE
:103E0000B7225EF027FDDDF860A000F017BCDDE909
:103E10001010702241EA00484CA9DCA85EF04EFC6C
:103E2000149A1399100284E8400A40EA1165129826
:103E300040EA012315991393080240EA12624FEAFF
:103E4000082040EA11681492C4E905522022C4E90E
:103E500003A3C4F81C80DCAC04F19000C6A95EF09A
:103E6000F9FC04F12000149A8DE8510A29464346D2
:103E70001398CDF814A021F0D3FE199991F80811E8
:103E8000022940F063820DF59F64DCA9E01D43F038
:103E9000B6FB092021468DF830028CA843F0F3FAD6
:103EA000DDF85C90FEF728BF1794D6A800F1020851
:103EB000291D102243F015FE82A84146841C43F0C0
:103EC000E1F80DF508782146102243F00AFE0DF5C1
:103ED0005C795146424644F036FD9DF87083B8F156
:103EE000FF0F00F07C8299E85E0028465EC0DFF894
:103EF000000E39F009F843F08AFE39F06DF98CA80C
:103F0000DCAE0530711C43F047FAFF208DF8348297
:103F10008DF83002D1460DF59F68FEF7F0BEE01D2A
:103F2000DCA943F06CFB092021468DF830028CA8F7
:103F30000130B7225EF08EFCFEF7DEBEBDF8FCA4B9
:103F40009DF8F9945FEA8A7042BF95F81C0140F031
:103F5000020085F81C015FEA8A5040F179841798C5
:103F6000C36BD3E902E1D3E9042341EA030C4EEA2F
:103F7000020050EA0C0000F05584CDF8F8E4CDF8CA
:103F8000FC14CDF80025CDF8043500F054BC16F82B
:103F90000A00A7F12C0180F0800006F80A004046D4
:103FA00033F0E6FDDDF850A00020DDE9124B1028CB
:103FB00004D018F8001043F001FCF8E70DF59F68F5
:103FC0000DF59F60314636F03AF80FCE44F037F9E0
:103FD000BE90C6A800F11001BEA841F031F9DCAED8
:103FE000119DDDE90F9C0028DDE90D3E00F0DD802C
:103FF00044F07DF940F20340ADF83402F5E00DF5F0
:104000009F68DCA908F10800602208F168055EF0ED
:1040100055FB149805F10C01286030221398686054
:104020001298A8601198199D81E8510608F188003E
:104030001AA95EF00FFC1598CDF8FC040820FFF7D4
:10404000BCB90E20F2E4DFF8840C38F069FF1020D0
:10405000EAE4DDF860A0002800F016820A200DF5E1
:104060005C788DF8700343F0F6FDD6AE43F0CCFDDE
:104070009DF85843FF2C40F0748208F106001AA9FD
:1040800043F0BDFA0DF59F620620ADF8F8044146F5
:1040900002F112009046B622CEE208F107001AA9FA
:1040A00043F0ADFA0320BFE20020CDE98400CDE962
:1040B00082000DF59F6882A9404603F0E5FD9DF85A
:1040C000F844FF2C52D14CA84E4600F1030908F1E8
:1040D0000401102243F04EFED6AC494642F0D2FF16
:1040E0000DF59F68314622461796404626F03DF86A
:1040F0009DF8F844FF2C40F02381DAF80000C10756
:1041000000F06C82DAF80410000A0DF59F660A0EC2
:104110008DF8F6210A0A40EA01607C90ADF8F4219E
:104120007CA9304603F0FAFD9DF8F844FF2C40F0DE
:104130003884311D484643F0F6F9BEAE494642F098
:1041400040FEDDF85C900DF59F68324640464946DA
:1041500026F00BF89DF8F844FF2C3FF449AA08F12B
:104160000101C6A843F018F900F026BC4CAD08F1D7
:10417000010143F06AF8C6A84ECD4EC044F044FA9F
:1041800000F01ABC8CA80DF59F61083043F0FAFBD3
:104190008D9605208DF83002FEF7AEBDDDE9C6C96B
:1041A0000DF59F68DDE9C8E3DCAE4CA8903015F052
:1041B000010102BF8A468B460C46159A08BF0A4683
:1041C000C0E902A2C0E9004BB022C0E904C9C0E9BD
:1041D00006E308F107004CA95EF03CFB08204146CD
:1041E0008DF830028CA843F04EF9DDF85C90FEF7B4
:1041F00086BD9DF873230F2A00F2BC8106208DF83E
:10420000FD040320FFF77AB9B8684C1C0090DCAAC3
:10421000DDF85CB00DF16808214640465B46FDF7CD
:1042200003FF9DF86860DDF860A0FF2E00F0E981D3
:104230000DF59F6244F0FDFA43F0AEF88DF8FC6492
:10424000FF20E8E1DDF85CB009218DF870130DF571
:104250005C78DD9043F0FFFC4CAE43F0D5FC9DF85C
:104260003041DDF860A0FF2C00F0D8810DF59F688B
:10427000711C42F045FF8DF8FC44FF20DCAE8DF848
:10428000F804DCE105F1140C15940DF59879294634
:10429000BCE83D00CE46AEE83D009CF800008EF83C
:1042A0000000BDF89600ADF80C02DDF89200829097
:1042B0000846BAE83C003CC0BAF8002002800BF186
:1042C000D20012228BF8D1808BF8D0605EF0C2FA57
:1042D000B9E83E000BF1E4003EC05D4615998BF84D
:1042E000F91099F8001001708298CBF8FA00BDF827
:1042F0000C02ABF8FE00DDF860A0DDF85CB00C202D
:10430000FEF7DFBF4CA8DCA944F084FADDF89A037D
:10431000022EC690BDF89E03ADF81C0300F0B784D2
:104320004CA905F1D00044F075FAC698C5F8FA001A
:10433000BDF81C03A5F8FE000D2085F8F96010E516
:1043400008F10101C6A843F027F833E3DDF85C90DB
:1043500009218DF8F8140DF59F68CDF8FC04D9F803
:1043600028104346D9F83820BEAE43F04DFC9DF8E6
:10437000F842FF2C00F032828CA8711C42F041FF01
:104380008DF83442FEF78CBC4CA8211DC61C42F0AF
:1043900018FDC6AC314642F075FEDDF85C900DF5B7
:1043A0009F6622463046494625F0DFFE9DF8F844D8
:1043B0000DF59F68FF2C00F01F828CA8711C42F045
:1043C00020FFFF208DF83442CAE308F10800DCA981
:1043D00043F0D8FA0020CDF8FC0408201BE14CA9DA
:1043E000484642F0D3FF09F12004C6A942F03AFE44
:1043F000179812228DF8B303BDF80402ADF8B0038C
:104400009DF806028DF8B20309F145008DF8B463FA
:104410007CA95EF01FFA09F1570079A909225EF024
:1044200019FA584650215EF0F2F8199890F80801F0
:10443000023838BF0220C0B2022800F0CD82032823
:1044400040F0FE820F200DF59F6843F0C7FCD6AE0A
:1044500043F0DAFB9DF85853FF2D40F0738308F1C9
:104460000700DCA943F0CBF8072041465DE50520B5
:1044700044F065F9FF208DF83002DCAEFEF741BC58
:10448000DCAE0120FFF7D2BA1AA8D7F80880903026
:10449000159010301490E14840F2FF1B4FF0FF39A7
:1044A0008246404635F026FC044640460E4635F02E
:1044B00021FCDB4D0023A0FB0502E1FB0523A4FB4F
:1044C0000541A6FB05566D184FF00001464152F11B
:1044D000000253F1000024EA0B0341F10001BAEBA2
:1044E000030379EB050379EB060379EB0202D8D3DA
:1044F000149B0022DDF85CB083E80700DA60159BAE
:10450000DD9083E807000821DA608DF87013DBF88E
:104510002810DBF83820D6AEDCAB43F075FB9DF8F5
:104520005843DDF860A0FF2C40F03482B8680021C9
:104530000090DCAE1AAA5B4630464FF00008FDF74B
:1045400073FD9DF87043199DFF2C0AD10DF59F64F2
:104550001AA904F1080043F015FACDF8FC84A0462E
:1045600058E00DF59F68711C42F0CAFDFF208DF8E0
:10457000FC4450E085F8201105F58F7185F81E0187
:1045800005F58C70BDF874339DF87143A5F82231A0
:1045900085F8212185F81F4142F048F985F8091175
:1045A0002022DBF82C1085F808014CA85EF052F9A7
:1045B000DBF83010DCAE402242F01EFF0DF168083F
:1045C0003146404603F0B8FA9DF86800FF2800F035
:1045D00083820A2003248DF81903A7E20524E9E168
:1045E000DCAD98E85E0028465EC029468CA800F144
:1045F000040C91E85D008CE85D002E46FF20FFF77B
:1046000073B90DF59F68DCA908F1080043F0BAF909
:10461000CDF8FC4407208DF8F8040FE008F10700FE
:104620001AA942F0ECFF05200DF59F628DF8F80401
:10463000501C41469046B7225EF00CF9DCAE9DF866
:10464000F804FF2841D108F10400311D90E87C00F6
:1046500012207CC1DCAE199D8DF8700308F10400B6
:10466000311D33F0F9F90C20DBF828108DF8F8042F
:104670004346DBF838204CAC204625F01BFE43F0C7
:10468000A5FE09D044F0F5F8DFF8580644F01DF80F
:1046900043F024FA38F0A0FDDCA9284644F059F88C
:1046A0001AAC2946204640F04BFEFF208DF8F80456
:1046B0009DF86800FE2818BFA04698E81F008AE809
:1046C0001F000DF29C6D42F01CBE0DF59F69DCA829
:1046D000C82249465DF0F2FF9DF870031228BDD054
:1046E0001128D9D195F8F910022904D1DFF8EC0589
:1046F00038F016FCD0E795F81A0100F00300012805
:1047000002BF95F8200100F00300012806D095F8BB
:10471000F8E00DF1680B4FF0020A2FE015910DF54E
:104720009878DDE916614046324625F0ECFD43F00D
:104730004DFE0BD098E83E0048463EC0DFF8940599
:1047400043F0C3FF44F0F9F838F046FD306805F156
:10475000E00E14900DF1680B7068A84613905C464B
:10476000D6E902AC9EE86F006FC4514698F8F8E0B5
:104770000DF59F68139A1498DDF854A0CDF80CC578
:1047800009F1180CCDF80425CDF800058DF8F9E4F1
:10479000CDF808159BE87B008CE87B000B204B468E
:1047A0008DF8F80417988DF829A58DF828E5816A09
:1047B000826B4CAE43F028FA43F008FE0BD096E82B
:1047C0003E0048463EC0DFF8100538F09DFB44F03F
:1047D000B4F838F001FDDDE918A55DE708F1060041
:1047E000DCA942F00CFF0320ADF830028CA8123097
:1047F0004146B622FFF79EBB119C132C40F0A881C6
:10480000F01DDCA942F0FBFE092031468DF8300294
:104810008CA842F038FEFEF771BA00BFFFC5FCFF5E
:1048200040420F000020CDF80405CDF80005CDF87A
:10483000FC04CDF8F804DFF898140DF59F6027F01C
:1048400094F828B195F81D0140F0020085F81D018B
:1048500095F819010C21A5F822A105F58C7B85F8A6
:104860002181032885F8206185F81F9185F81E4174
:1048700008BF0821DDF85C90D9F8380090F8702363
:1048800090F87133881885F81A0105F58F7013B107
:1048900001218BF80010594641F0C8FF199A82F89F
:1048A00008010DF59F6082F80911012103F0CEF88F
:1048B0009DF8F8A4BAF1FF0F43D19DF80865DDF823
:1048C0000445BDF80905ADF8180331469DF80B0500
:1048D0008DF81A032046DDF8FC84DDF800951FF002
:1048E00085F843F060F858461A4642F04DF8C0B2D9
:1048F000022848D1CDF8FC940DF55C79CDF8F88408
:104900000DF59F68BDF8180317994246ADF80505E7
:104910009DF81A038DF8070548468DF80465CDF813
:10492000004525F022FC9DF870A3BAF1FF0F6DD170
:10493000DDF85C900DF59F6801208DF83002FFF7DF
:1049400061B99DF808259DF8FB048DF88023DDF8FA
:1049500004258DF87303BDF8F904DF92DDF8002516
:104960009DF80B15ADF87103BDF80905DE92DDF871
:10497000FC24ADF830018DF83211DD928DF88313EF
:10498000ADF881034FE04046494641F0D3FF4FF078
:10499000050A46E00DF59F68711C42F0B1FB199DB8
:1049A000E4E54CAD711C42F050FCC6A84ECD4EC0A3
:1049B00043F02AFEDDF85C90DCAE8DF834428CA822
:1049C000C6A9053013220DF59F685DF043FFFF2057
:1049D0008DF83002FEF793B9199890F80901002874
:1049E00000F0CE800A200DF59F6843F0F7F9D6AEAF
:1049F00043F00AF99DF85853FF2D40F0A38008F1C9
:104A00000600DCA942F0FBFD0420EDE699E85E001B
:104A100040465EC0BA4838F077FA43F05FF838F0A5
:104A2000DBFBDDF85C90DCA98CA80530013113229A
:104A30000DF59F685DF00EFF8DF834A2FEF7E3BD23
:104A4000B9680BF1100000F073F9DBE906010025ED
:104A5000DBE904238DE803020DF59F60CDE90345F2
:104A600021F09EF8DDF804150DF59F68DDF8F824B7
:104A7000DDF8FC34DDF80005CBE90201CDE90001E9
:104A80004046CBE9002303F00BF89DF8F854FF2DC6
:104A90006AD182A808F10401C61C42F092F988ACE0
:104AA000314642F0EFFA0DF556795146224643F071
:104AB0004AFF9DF85853FF2D40F0808008F1070011
:104AC000DCA942F09CFD022041468DF830028CA802
:104AD00042F0D9FCFEF7D0BEBEA808F10401861C46
:104AE00042F06FF9D6A83146841C42F0CBFA0DF59E
:104AF0000279214610225E4643F03CF90DF5467BD3
:104B000031464A46584625F030FB9DF81843FF2CA5
:104B10003DD09BE86E0040466EC0694838F0F4F91D
:104B200042F0DCFF38F058FBDDF85CB0C6A90DF5AB
:104B30009F6808F10500013142F02EFC8DF8FC441D
:104B4000DCAE80E58CA8711C053042F025FC46E007
:104B50008CA8DCA9083042F015FF601C8D90052060
:104B60008DF83002FEF7CAB882AE08F101011322B7
:104B700042F042FCD6AC3146601C42F00DFC29E00C
:104B8000DAF80000D146A0B3D9F804104EE008F1DD
:104B900003004CA942F0FAFB0DF59F64DCA904F177
:104BA000240042F039FF022041468DF8F804601CD1
:104BB0002322A0465DF04EFEFEF703BC99E85E009E
:104BC00040465EC04D4838F09FF942F087FF38F00C
:104BD00003FBD6AC8CA8611C42F013FBD146FF202E
:104BE000DCAE0DF59F688DF830028DF83452FEF77B
:104BF00086B8BD68314B404CD5F8000140280BD336
:104C00002846002126461C461FF016FED5F8000156
:104C100040284AD223463446421C55F82000C5F8A5
:104C20000021A0FB0301A0421046E7D80BF1400091
:104C30000BF130020026CDF8FC14C0E900160DF58A
:104C40005678C2E900160DF59F63C2E90266D9F8ED
:104C50002810D9F83820C0E9026608208DF8F80439
:104C6000404625F027FB9DF858538CA8FF2D03D113
:104C70000830DCA9FFF78ABA053008F1010164E7C2
:104C8000194B00E00B4B0120072137F0F9FA0D48D2
:104C900037F08CFF124A06E01A4A04E0134A02E099
:104CA000094A00E0044A42F025F8124A402137F050
:104CB0002DFB00BF8C5606007C56060040420F00BC
:104CC000A10000006C5606005C5606008F00000034
:104CD000B0870600A30000009A000000A5000000B5
:104CE0004C5606009C000000C0C40600B0C406007C
:104CF000A0000000988506007F3DF1FF9D000000A8
:104D0000960000002C560600D0B502AF92B0BC68E9
:104D10008DF81020FF228DF80420CDE902343A6985
:104D2000FB68009201AAFDF7C5FC12B0D0BDD4D437
:104D3000F0B503AF2DE9FF07DFF8949000260D468C
:104D40008046EA46CDE90266CDE900660F2E1ED800
:104D5000D5F80041402C07D3284600211FF06CFDF8
:104D6000D5F80041412C2AD23046514610224B46FC
:104D700025F0ADFB02460B4605EB8400C4F1400173
:104D800039F01AFF2044C5F800010E44DEE704A8FC
:104D90009AE81E001EC004AB42F0FEFB1FBFA8E84D
:104DA0000F0008B0BDE80007F0BD084838F0ACF8C7
:104DB00004A83FF051FF38F00FFA38F05BF9054BCB
:104DC00020464021402237F05BFA00BFAB000000D4
:104DD00004CC060088850600F0B503AF4DF804BD8D
:104DE000856804686DB14268C66804F10800531B09
:104DF00000EB4211B21A00EB431052015DF0A5FB2B
:104E000000E0C668701B206042F000BB80B56F46B2
:104E100090F81414032918BF80BD00F58470BDE814
:104E2000804001F051BC80B56F4618B1BDE88040AC
:104E300041F080BD80BD80B56F46818A022908BFE0
:104E400080BDD0E9003182681846BDE8804000F09E
:104E5000DDBE80B56F46016939B1D0E900318268A5
:104E60001846BDE8804000F053BD80BD80B56F4658
:104E7000D0E90012114308D090F88C10032904D116
:104E80000830BDE8804001F0FEBC80BD80B56F46B3
:104E9000016819B1BDE8804000F0CDBB80BD80B590
:104EA0006F46C24312061CBFBDE8804001F042BEFF
:104EB00080BDD4D480B56F46054800210122016031
:104EC0000449425001680029FCD00021016080BDE6
:104ED00014710040F4FEFFFF80B56F46017B052989
:104EE00018BF032904D11430BDE8804001F069B82F
:104EF00080BD80B56F4690F8441031B1032918BFCA
:104F000080BDBDE8804000F0E3BA3830F9E7D4D482
:104F1000D0B502AF0446006820B942F020FD42F04F
:104F200005FBD0BD044837F0EFFF3EF07DFE38F0C2
:104F300053F938F09FF800BF3E000000D0B502AF33
:104F40000446103020F0B3FB41F27C0020443DF0D9
:104F5000DDFD41F288002044BDE8D0403DF0D6BDE3
:104F600080B56F460168012918BF80BDD0E90110E6
:104F7000C968BDE88040084780B56F4690F8751055
:104F8000032918BF80BDD0E90010C968BDE8804082
:104F90000847D0B502AF0446D0E90001084304BF7A
:104FA000207B032808D0D4E93201084304BF94F8D9
:104FB000D40003280AD0D0BD207E06280ED00428B5
:104FC000F1D104F12000FFF787FFECE794F8E80047
:104FD000062808D00428EED1282005E004F120009E
:104FE00000F0EFFFDFE7182004F1D8010844BDE826
:104FF000D04000F0E6BFB0B502AF04460025902DCA
:1050000008D06019017D032904BF043001F0B8FB0A
:105010001835F4E7B0BDD4D4F0B503AF2DE9000FD7
:105020008BB0044690F83C0F032805D040B904F635
:105030009800FFF7AEFF03E004F6182000F0E9F94E
:10504000D4F8A80704F59D6538B994F8BC0704287E
:1050500004BF04F5F86001F01FFDD4E90C0108431A
:1050600001BF94F84400032804F1500000F0BEFE94
:10507000D5E90001084307D194F8FC04042804BFD3
:1050800094F8A007032801D041F0F0BFD4F800073E
:1050900038B994F82607042804BF04F5E56000F049
:1050A00084FFD5E93E01D4F8E82500F031FCD5E9CC
:1050B0003A01D4F8D82500F0A9FDD5E93601D4F895
:1050C000C82500F08BFCD5E932A09D490190D4F8A9
:1050D000B8050968C90540F02E819B4920F073FE90
:1050E0000646D0E9005B806B06F14009009101386B
:1050F000B06348461DF058F9B5EB00086BF10000AD
:10510000BAEB0801019971EB000039D30DF1080BDE
:105110004946584620F0D2FBBAEB0800069004D06E
:10512000411E02A834F007FF60B10DF11C089BE896
:105130002E0040462EC0404624F087FF10B142F0BA
:105140001AFCF8E702AD0020D6E91012891A18BF40
:10515000012196F848201143C9070BD0316D49B998
:10516000284649463AF0CEF80298002800F0E08040
:105170000120E9E7C0071CBF06F12C003AF0ACF8AB
:10518000009904F59D6542F03AF9D5E92E01D4F86D
:10519000A82500F083FCD5E92AB069490190D4F82C
:1051A00098050968C90540F0C680674920F00BFEE4
:1051B0000646D0E9005AC06F06F10809009101388F
:1051C000F06748461DF0B8F8B5EB00086AF100003A
:1051D000BBEB0801019971EB000033D30DF1080A14
:1051E0004946504620F0DCFABBEB0800069004D09C
:1051F000411E02A834F09FFE40B143F0BEFB404682
:1052000024F023FF10B142F0B6FBF8E702AD002016
:10521000D6E90212914202D1327CD2070CD006EBC1
:10522000C101896941B92846494639F0B5FF02985C
:1052300000287DD00120EBE7C0071CBF06F17000FD
:105240003AF04AF8009942F0DAF83D4904F59D60D9
:10525000D0E926BAD4F888050968C9056BD13A495E
:1052600020F0B1FD0646D0E90058D0F8EC0006F178
:10527000080901910138C6F8EC0048461DF0A2F873
:105280002D1A68F10000BBEB05017AEB000037D363
:105290000DF1080A4946504620F061FBBBEB0500C2
:1052A000069004D0411E02A834F07AFE48B143F0C3
:1052B00064FB404624F02BFF18B1816801398160FE
:1052C000F7E702AD0020D6E90212914202D1327C0A
:1052D000D2070FD001EB410106EB8101C96949B941
:1052E000284649463AF082F89DF8080002281FD067
:1052F0000120E8E7C0071CBF06F1E00039F0ECFF31
:10530000019942F07CF8D4F8701519B1D4F87405FD
:10531000C9688847D4F8781500293FF4B5AED4F8A9
:105320007C05C9680BB0BDE8000FBDE8F040084738
:10533000064837F03BFC034837F0F2FD37F09AFEA1
:1053400004ED00E03D00000014780600A481060092
:1053500080B56F46017B032918BF80BD1030BDE8C2
:10536000804001F0B8BBD0B502AF044690F83B00D6
:1053700003280FD0042805D005280ED1D4E9110147
:10538000FFF751FD94F83A00012804BFD4E9080161
:1053900041F0D0FA002084F83A00D0BDD0B502AF79
:1053A000044690F83005032804BF04F59B60FFF71E
:1053B000DAFF94F8A702033804281AD8DFE800F0CF
:1053C00003150D10080004F5307001F0BCFA10E070
:1053D00004F52A7000F0C4FF0BE004F52A7006E023
:1053E00004F5327000F044FE03E004F5307000F084
:1053F00020FE94F82200042806D0032818BFD0BD50
:1054000004F1280000F03FFE07CCBDE8D04000F0DA
:10541000E5BAD0B502AF044690F8B602042805D02C
:1054200005280DD104F52E7001F062FA94F8B5024A
:1054300018B104F5E07000F04BF9002084F8B502D3
:1054400094F8BA03042804BF04F5707000F01BFE42
:105450002046BDE8D040FFF79CBD80B56F46C0B286
:10546000BDE880405AF0C0B8F0B503AF4DF804BDB8
:105470000A46064642F073FE0C461349054606F5F9
:1054800076703EF0E3FB0E4695F85E13B1B101393C
:1054900085F85E13090604BF95F85C13042905D04E
:1054A00042F0D4F842F042F841F0B0BF103041F27F
:1054B0000131A5F85C1338F071FAF1E7034837F0D1
:1054C0002FFD37F0D7FD00BF80840600B300000039
:1054D00080B56F46014640684A7A00F5B7601AB158
:1054E000BDE880401CF0BFBE097ABDE880401CF0DA
:1054F0009EBE80B56F4680BDB0B502AF456875B140
:1055000002890068D0E900011FF0CCFF38B10C46D9
:10551000D0F84013294442F0D4FD42F007F8B0BD62
:10552000F0B503AF4DF8048D044601790068FFF72C
:105530009BFF41F290102618215875688D4208D1C2
:10554000307AC00705D100214FF00408042000255F
:105550000FE041F29C1004EB000801EB81008D424A
:1055600008EB800091BFC1F10101691A00254FF0DD
:10557000040801F016FB4046294601F012FB316A8F
:1055800011B1706AC9688847B16A11B1F06AC96817
:10559000884704F108005DF8048BBDE8F040FFF790
:1055A000CDBCB0B502AF88B00446D0E9062043694F
:1055B0000020009002AD2146284601F075FD2846E6
:1055C000FFF764FC204608B0BDE8B04000F072B8B8
:1055D000F0B503AF4DF804BD066804460579D6E979
:1055E00000012A4620F06FFAD4E902010A69214637
:1055F0009047304629465DF804BBBDE8F040FFF710
:1056000033BFB0B502AF88B00446D0E90620436985
:10561000012194F82000CDE9001002AD2146284672
:1056200001F042FD2846FFF731FC204608B0BDE8F6
:10563000B04000F03FB8F0B503AF2DE900078AB0E5
:10564000D0F800A0044686680020A0601EB304F1D4
:105650000C000DF1140808F1080190E82C002CC191
:1056600094F80490DAE900014A463CF0C1F80A686F
:10567000B0F85803013A0A600AF57E71ADF81400DB
:105680006846424606961FF0ABF8019828B1029989
:1056900041F050F901E094F8049050464946FFF774
:1056A000E3FEE16800200AB0BDE80007BDE8F04075
:1056B000FFF7B9BBD0B502AF0446D0E90201FFF74E
:1056C000B2FB21792068BDE8D040FFF7CDBED4D42D
:1056D00080B56F4602C8DFE801F002020206BDE8AD
:1056E0008040FFF75EBFBDE88040FFF78ABFD0B5BE
:1056F00002AF1FF0D7FE68B10C4690F86F1300227E
:10570000012980F86F2304BF00F51E7038F046F9B8
:1057100041F00CFFD0BD80B56F4600F5B7600021A9
:10572000BDE880401CF083BD80B56F4600F5BD60CC
:105730000021BDE880401CF07ABD80B56F4600F5C1
:10574000BA600021BDE880401CF071BD0168426C68
:105750008A429EBF00210160704780B56F46024BB0
:1057600010460A4636F08CFDC48B06000168426B79
:105770008A429EBF00210160704780B56F46024B90
:1057800010460A4636F07CFDC48B0600F0B503AF28
:105790002DE9000F89B0824629480068C0054AD12A
:1057A0008946294942F00DF90546D0E90046406E88
:1057B00043F064F8686658461CF0A2FD41F055FDC0
:1057C00032D3E946594648461FF0A9FF42F093FDFF
:1057D00004D0411E684634F0AEFB40B105AC41F048
:1057E000D9FC42F0E7F810B142F0C5F8F9E7002023
:1057F0006C46D5E90212914202D12A7CD2070DD023
:1058000005EBC101896949B92046594639F08CFC3C
:105810009DF8000002280BD00120EAE7C0071CBF5A
:1058200005F1500039F04EFD41F003FA41F066BA3F
:10583000064837F0BBF9034837F072FB37F01AFC23
:1058400004ED00E03D00000014780600A48106008D
:10585000F0B503AF2DE9000F89B0824628480068F3
:10586000C00547D18946284942F0ABF80546D0E942
:10587000004B806A05F130080E460138A8624046A8
:105880001CF076FD41F062FA32D3E94641464846C3
:105890001FF0D2FF42F02FFD04D0411E684634F0C5
:1058A0006DFB48B141F04FFB204624F019FC10B1CC
:1058B00042F071F8F8E756460021D5E90C02801A4B
:1058C00018BF012095F838201043C0070AD0E86BB4
:1058D00040B940461FF0C7FF01210028EDD10B4819
:1058E00037F064F9C8071CBF05F11C0039F0F4FC5F
:1058F00041F0ECB9034837F013FB37F0BBFB00BFB6
:1059000004ED00E03D00000014780600A4810600CC
:10591000F0B503AF2DE9000F89B082462B4800682F
:10592000C0054ED189462B4942F04BF80546D0E9D7
:105930000046C06C42F0A2FFE86458461CF026FD09
:1059400041F093FC36D3E946594648461FF09DFF87
:1059500042F0D1FC04D0411E684634F021FB50B126
:1059600005AC41F017FC204624F0D1FB18B181684A
:1059700001398160F7E700206C46D5E902129142B7
:1059800002D12A7CD2070FD001EB410105EB810146
:10599000C96949B92046594639F07FFC9DF8040091
:1059A000FF280BD00120E8E7C0071CBF05F140002D
:1059B00039F092FC41F03DF941F0A0B9064837F0CA
:1059C000F5F8034837F0ACFA37F054FB04ED00E08B
:1059D0003D00000014780600A4810600F0B503AF76
:1059E0002DE9000F89B0824628480068C00547D1DC
:1059F0008946284941F0E5FF0546D0E9004B806D16
:105A000005F160080E460138A86540461CF0CCFC44
:105A100041F09CF932D3E946414648461FF063FF06
:105A200042F069FC04D0411E684634F084FA40B16B
:105A300041F089FA41F0BEFF10B141F09CFFF9E757
:105A400056460020D5E91812891A18BF012195F889
:105A500068201143C9070BD0296F49B9404639F076
:105A600075FCC1B201200229ECD10B4837F09EF839
:105A7000C0071CBF05F14C0039F02EFC41F026B9DF
:105A8000034837F04DFA37F0F5FA00BF04ED00E0B7
:105A90003D00000014780600A4810600F0B503AFB5
:105AA0002DE9000F89B0824624480068C0053FD127
:105AB0008946244941F085FF41F0CBFB41F046F98E
:105AC00031D3E946414648461FF00DFF42F013FC32
:105AD00004D0411E684634F02EFA40B141F033FA4A
:105AE00041F068FF10B141F046FFF9E7564600204B
:105AF0006C46D5E91412891A18BF012195F858206F
:105B00001143C90709D0296E39B92046414639F0F9
:105B100049FC009848B10120EBE7C0071CBF05F124
:105B2000340039F0CFFB41F0D1B8074837F03EF8E8
:105B3000034837F0F5F937F09DFA00BF04ED00E0B7
:105B40003D00000014780600A4810600F0B503AF04
:105B50002DE9000F89B0824628480068C00548D169
:105B60008946284941F02DFF0546D0E90046C06F1F
:105B700042F084FEE86758461CF0C2FB41F075FB1A
:105B800030D3E946594648461FF0C2FE42F0B3FB07
:105B900004D0411E684634F0CEF940B105AC41F066
:105BA000F9FA41F007FF10B141F0E5FEF9E70020F6
:105BB0006C46D5E90212914202D12A7CD2070BD061
:105BC00005EBC101896939B9204659461FF0B5FE78
:105BD000009858B10120ECE7C0071CBF05F1680030
:105BE00039F070FB41F025F841F088B8064836F0EE
:105BF000DDFF034837F094F937F03CFA04ED00E09C
:105C00003D00000014780600A4810600F0B503AF43
:105C10002DE9000F89B0824625480068C00541D1B2
:105C20008946254941F0CDFE41F013FB41F08EF845
:105C300033D3E946414648461FF0AAFE42F05BFBDB
:105C400004D0411E684634F076F940B141F07BF94A
:105C500041F0B0FE10B141F08EFEF9E7564600204B
:105C60006C46D5E91412891A18BF012195F85820FD
:105C70001143C9070BD0296E49B92046414639F076
:105C8000D7FB9DF80000FF2809D00120E9E7C007F5
:105C90001CBF05F13C0039F01FFB41F017B8074865
:105CA00036F084FF034837F03BF937F0E3F900BFE3
:105CB00004ED00E03D00000014780600A481060019
:105CC00080B56F4609490968C9050AD1094920F01C
:105CD0007AF8D0F8F020013AC0F8F02041F08FFBBC
:105CE00080BD034837F01CF937F0C4F904ED00E03B
:105CF0003D0000000478060080B56F460949096838
:105D0000C9050AD1094920F05EF8D0F80021013A0E
:105D1000C0F8002141F073FB80BD034837F000F963
:105D200037F0A8F904ED00E03D000000047806001B
:105D300080B56F4608490968C90508D1084920F0AF
:105D400042F8026C013A026441F059FB80BD0348FD
:105D500037F0E6F837F08EF904ED00E03D00000082
:105D60000478060080B56F4690F88810032918BFA4
:105D700080BD2C30BDE8804000F081BE80B56F460C
:105D800090F8C910032918BF80BDBDE8804000F01D
:105D900018B980B56F4690F8C810032918BF80BDA8
:105DA000BDE8804000F00DB980B56F4690F8C21094
:105DB000032918BF80BDBDE8804000F002B980B55E
:105DC0006F4690F8C110032918BF80BDBDE8804020
:105DD00000F0F7B880B56F4690F89913032918BF03
:105DE00080BD4830BDE8804000F0E2BD80B56F4620
:105DF00090F89414032918BF80BD2030BDE880407E
:105E000000F0B4B880B56F4690F8EC10032918BFC5
:105E100080BD1830BDE8804000F00CB880B56F46FA
:105E200090F8F810032918BF80BD2430BDE88040E9
:105E300000F000B880B56F4690F84410032908D0F0
:105E4000042918BF052909D14830BDE8804000F079
:105E500016BE4830BDE88040FFF784BF80BD80B5E6
:105E60006F4690F8A610032918BF80BD1C30BDE80E
:105E7000804000F00CB880B56F46817F033901295E
:105E800088BF80BD2430BDE8804000F000B8D0B5A8
:105E900002AF044690F82700042818BFD0BD04F1D3
:105EA0003C0000F006FDE06A228ED0E90001BDE86A
:105EB000D040FFF71CBC80B56F46417C042918BF59
:105EC00080BD4068BDE88040FFF722B8D0B502AF82
:105ED000044690F83500032809D0042803D005288B
:105EE00018BFD0BD03E004F1380000F06DFC0020C5
:105EF00084F83400D0BDD0B502AF044690F8350028
:105F0000032804D0042807D0052818BFD0BD04F109
:105F1000380000F009F803E004F1380000F054FC08
:105F2000002084F83400D0BD80B56F4690F8501042
:105F3000063907290AD8DFE801F00A0F0904091415
:105F400009045430BDE8804000F03DB980BD5430B4
:105F5000BDE88040FFF762BF5430BDE8804000F0EC
:105F600020B95430BDE8804000F04FBC80B56F468A
:105F700090F87810042907D0052918BF80BD7C301F
:105F8000BDE8804000F0CABD8030BDE8804000F030
:105F90005DB980B56F4690F82210052918BF80BD05
:105FA0002C30BDE8804000F0C0BB80B56F4690F853
:105FB0002010042918BF80BD2430BDE8804000F0C7
:105FC00084BC80B56F4690F87C10032918BF80BD53
:105FD000BDE88040FFF7E9BF80B56F4690F8FC1040
:105FE000032918BF80BD1030BDE8804000F00BB819
:105FF00080B56F4690F8E010032918BF80BDBDE85A
:10600000804000F00BB880B56F4690F8DE10032991
:1060100018BF80BDBDE8804000F074BD80B56F46FC
:1060200090F8D610032918BF80BDBDE8804000F06D
:1060300069BD80B56F4690F82010032907D0042968
:1060400018BF80BD2830BDE8804000F088BC3830E3
:10605000BDE88040FFF7C0BF80B56F4690F8C01024
:10606000032918BF80BD1030BDE8804000F03EBD60
:1060700080B56F4690F8E210032918BF80BDBDE8D7
:10608000804000F054BC80B56F4690F8341003296E
:1060900018BF80BD3830BDE88040FFF77ABFD0B56B
:1060A00002AF0446007A032804D0042804D16068B3
:1060B000FFF706FE00206072D0BDD0B502AF0446E7
:1060C000807C032804D0042804D12068FFF714FE44
:1060D0000020E074D0BDD0B502AF0446C07A0328DA
:1060E00004D0042804D12068FFF7EAFD00202073C3
:1060F000D0BDD0B502AF0446C079032804D004282F
:1061000004D12068FFF714FE0020A071D0BDD0B5E7
:1061100002AF0446407A011F022903D220683CF0F6
:1061200001FD02E0032818BFD0BD00202072D0BDC1
:10613000D0B502AF044690F80D01011F022904D228
:10614000D4F808013CF0EEFC01E0032802D1002065
:1061500084F80C01D0BDD4D4D0B502AF04464FF4BE
:106160008F50205C033803281AD8DFE800F00214AF
:10617000090F41F2E8102044BDE8D04000F0FABB1E
:1061800041F2E8102044FFF77EFF04E041F2E810FE
:106190002044FFF703F92046BDE8D040FFF7C0B91F
:1061A000D0BD80B56F46017C032907D0042918BFF4
:1061B00080BD1830BDE8804000F061BC1430BDE8FF
:1061C000804000F000B880B56F46017C042918BFFC
:1061D00080BD1830BDE8804000F051BC80B56F46EE
:1061E000017F042918BF80BD2030BDE8804000F049
:1061F0000CB880B56F4690F85810032918BF80BDC1
:106200000430BDE8804000F02EBC80B56F4690F8A9
:106210005C10032918BF80BD0830BDE8804000F045
:1062200022BCD0B502AF044690F85C00011F0429DF
:1062300006D3032818BFD0BD04F16000FFF73BFE72
:10624000E06B4068BDE8D040FFF765BA80B56F46A7
:10625000017C0339052909D8DFE801F0030E08099C
:1062600010151830BDE8804000F028B880BD183007
:10627000BDE8804000F02DB8203000E03030BDE8AF
:10628000804000F005B81830BDE8804000F09EBBAB
:1062900080B56F4690F84613032918BF80BDBDE84E
:1062A000804000F085BB80B56F4690F83E1303290F
:1062B00018BF80BDBDE8804000F07ABB80B56F4656
:1062C00090F84013032918BF80BDBDE8804000F05E
:1062D0006FBB80B56F4690F84813032918BF80BD87
:1062E0000830BDE8804000F063BB80B56F4690F891
:1062F0004513032918BF80BDBDE8804000F058BB9E
:1063000080B56F4690F84413032918BF80BD08304C
:10631000BDE8804000F04CBBD0B502AF044690F819
:106320009703032804D142F05AFB002084F8960317
:10633000D0BD80B56F46017E032918BF80BD1C30DB
:10634000BDE8804000F074BA80B56F4690F8241024
:10635000032938BF80BD2830BDE88040FFF79FBECD
:10636000B0B502AF90F8D020062A0ED80446082017
:1063700004212546DFE802F02B0909040E0A040077
:1063800004F1D80000F02CF804E0B0BD04F1D8000E
:10639000FFF7DAFF04F1C00207CAFFF71FFB04F1A1
:1063A000B00207CAFFF754FA04F1A00207CAFFF7C8
:1063B000EDF904F1900207CAFFF770FB04F18002C7
:1063C00007CAFFF7C3FB04F14005482044212258C7
:1063D000204443686058816A2868BDE8B040084797
:1063E00080B56F4690F8F410032918BF80BD0C30BB
:1063F000BDE8804000F013BB80B56F46017C0329E7
:106400000ED0042907D0052918BF80BD1830BDE87B
:10641000804000F00AB81830BDE8804000F0A5B810
:106420002030BDE8804000F0C7B880B56F4690F8D6
:106430002810032907D0042918BF80BD3030BDE8DB
:10644000804000F092B83030BDE8804000F0B4B831
:1064500080B56F4690F849100339072988BF80BD81
:10646000DFE801F00D0408120408060650300CE0C5
:10647000503005E05030BDE88040FFF7D6BF6030B7
:10648000BDE8804000F098B85830BDE8804000F08A
:106490006CB8D4D4D0B502AF044690F807010338E5
:1064A000082820D8DFE800F0050B050B10080805C8
:1064B0001A0004F58C7009E004F5887001E004F519
:1064C0008C7000F052F803E004F5887000F074F866
:1064D00004F16000BDE8D040FFF738B904F58C70D6
:1064E00000F050F8F4E7D0BD80B56F46017C032979
:1064F00007D0042918BF80BD1830BDE8804000F0E7
:1065000005B81830BDE8804000F023B880B56F466C
:1065100090F830100339052988BF80BDDFE801F00D
:106520000A030F030514403000E03830BDE8804016
:1065300000F028B83830BDE88040FFF7ABBF3830F6
:10654000BDE88040FFF784BF4030BDE8804000F0E8
:1065500033B880B56F4690F8D713032918BF80BDB4
:106560004830BDE88040FFF7D1BF80B56F46017C61
:10657000052918BF032904D11830BDE8804000F078
:106580001BB880BD80B56F4690F8231003290ED04C
:10659000042907D0052918BF80BD2830BDE88040F8
:1065A000FFF756BF2830BDE88040FFF7DEBF303030
:1065B000BDE8804000F000B880B56F46017C03293B
:1065C00018BF80BD1830BDE88040FFF784BDD4D42B
:1065D00080B56F4690F880100439062988BF80BDC9
:1065E000DFE801F00404040404090E008830BDE86B
:1065F0008040FFF758BE8830BDE8804000F005B805
:106600008830BDE8804000F00CB880B56F4690F847
:106610002C14032918BF80BD7830BDE8804000F0FD
:10662000C7B9D0B502AF044690F8CE03032806D10F
:1066300004F1080000F0BCF9002084F8CD03D0BDBF
:1066400080B56F46C0B2032818BF80BDBDE880404A
:10665000FEF730BCD0B502AF044690F82000042805
:1066600006D1E0690078FEF7F8FE002084F82200E9
:10667000D0BD80B56F4690F84010032918BF80BD8B
:106680000C30BDE88040FFF7E5BF80B56F4690F85D
:106690004410032918BF80BD1030BDE88040FFF7CB
:1066A000D9BFD4D480B56F46017E0339C9B2082959
:1066B00088BF80BD034A52F821100844BDE88040DD
:1066C000FEF7A4BB64D0060080B56F4690F80013B7
:1066D000032918BF80BD00F58470BDE88040FFF736
:1066E0000ABC80B56F4690F8D811032918BF80BD49
:1066F0000C30BDE88040FFF7E9BB80B56F46017BF9
:10670000042918BF80BD8068BDE88040FEF700BC4A
:1067100080B56F4690F8A810032998BF80BDD0F8C7
:106720009000BDE88040FEF7F3BB80B56F4690F85F
:10673000B210032918BF80BD0830BDE88040FFF7C4
:106740008EBBD4D480B56F46817C0E390B2911D80D
:10675000DFE801F00610101110101010060B100BDE
:106760001830BDE88040FFF7D3BF1430BDE880404B
:10677000FFF7C3BF80BD1430BDE88040FFF77BBB8F
:1067800080B56F46017B032918BF80BD0430BDE88A
:10679000804000F083B8D0B502AF044690F83100D5
:1067A000052809D006280ED104F1480000F081F830
:1067B000A06BA28F40F03BFBD4E9000140F0BAF897
:1067C000002084F83000D0BD80B56F4690F82C10C2
:1067D0000339052918D8DFE801F00317170D08124F
:1067E0003030BDE88040FFF7F9BC3030BDE8804074
:1067F000FFF7E9BC3030BDE88040FFF706BD303020
:10680000BDE8804000F001B880BD80B56F4690F8CB
:106810006010052907D0062918BF80BD6430BDE887
:106820008040FFF7F2BC7430BDE88040FFF7EABA61
:10683000D0B502AF044690F83D00092807D80121E1
:10684000814011F46E7F03D0002084F83C00D0BD5D
:106850000628FCD104F14000FFF7B6FFF4E780B54D
:106860006F4690F82D1041B1032918BF80BDD0E9C3
:106870000601BDE88040FEF7D6BAD0E90001BDE8C8
:10688000804040F057B880B56F46017A052918BF9F
:1068900080BD1030BDE88040FEF75ABD80B56F4620
:1068A0004179032918BF80BD0430BDE8804036F02F
:1068B000CBBF80B56F4690F82510042918BF80BD66
:1068C0002830BDE88040FEF717BE80B56F4690F8CF
:1068D000441039B1032918BF80BD1430BDE8804091
:1068E000FFF7BDBFD0E90101BDE8804040F022B80C
:1068F000D0B502AF044690F88800032801D028B133
:10690000D0BD04F14000FFF7E0FF18342046BDE899
:10691000D040FEF790BE80B56F4690F898100329DE
:1069200018BF80BD5030BDE88040FFF7CEBF80B5B6
:106930006F4690F8CE10032918BF80BD0830BDE81F
:10694000804000F0DFB880B56F4690F8B0110329A1
:1069500018BF80BDE030BDE8804000F0D3B880B5FE
:106960006F4690F8F010032918BF80BDBDE8804045
:10697000FFF73EBBD0B502AF044690F829000328CC
:1069800003D0042818BFD0BD03E004F12C00FFF7AA
:106990009CFF002084F82800D0BD80B56F4690F899
:1069A0003011032918BF80BDBDE88040FFF7AFBBA1
:1069B00080B56F4690F83013032918BF80BD00F5ED
:1069C0008470BDE88040FFF7B3BBD4D480B56F4678
:1069D000417B03390C2988BF80BDDFE801F0070C3B
:1069E0000707070C0C0C0C071B1116001030BDE834
:1069F0008040FFF758BC1030BDE88040FFF780BCF6
:106A00001030BDE88040FFF787BC2030BDE88040F3
:106A1000FFF76BBC3030BDE88040FFF7DBB980B5D5
:106A20006F4690F8E410032918BF80BD2030BDE800
:106A30008040FFF711BB80B56F4690F89410032992
:106A400018BF80BD1430BDE88040FFF7BABA80B5EA
:106A50006F4690F89410032918BF80BD0430BDE83C
:106A60008040FEF7C8BA80B56F4690F850100329F1
:106A700018BF80BD0C30BDE88040FFF7FABD80B57F
:106A80006F4690F85810032918BF80BD1030BDE83C
:106A90008040FFF7FABDD4D480B56F46017A033940
:106AA000032988BF80BDDFE801F00211070C0C301C
:106AB000BDE88040FFF76DB90C30BDE88040FFF7BE
:106AC00073B90C30BDE88040FFF779B90C30BDE8F0
:106AD0008040FFF753B980B56F46017D032918BF89
