:1010000008FC032001110000BBEF0300ED5F0600A8
:10101000BBEF0300BBEF0300BBEF030000000000C9
:10102000000000000000000000000000BBEF030013
:10103000BBEF030000000000BBEF0300BBEF0300A9
:1010400059110000C1110000BBEF0300BBEF03000A
:10105000BBEF0300BBEF0300B9F40300451200002F
:1010600091120000BBEF0300BBEF03003912000038
:10107000BBEF0300CD110000BBEF0300BBEF03008B
:10108000BBEF030091F50300BBEF0300BBEF0300D0
:10109000AD110000BBEF0300BBEF0300BBEF03008B
:1010A000BBEF0300BBEF0300BBEF0300BBEF03008C
:1010B000BBEF0300BBEF03000000000000000000D6
:1010C000BBEF0300BBEF0300BBEF0300BBEF03006C
:1010D000BBEF0300BBEF0300BBEF03009D1200005A
:1010E000BBEF0300BBEF0300BBEF030000000000F9
:1010F00000000000BBEF030000000000BBEF030096
:101100003DF05EFF0E480F490022814201D004C02D
:10111000FBE70D480D490E4A814202D008CA08C0BB
:10112000FAE70C484FF47001026842EA01020260DB
:10113000BFF34F8FBFF36F8F3AF092FF00DE0000D6
:101140008022002028230120080000207C2200208B
:10115000F018070088ED00E0B0B502AF5EF092FD38
:10116000104C206828B1002020600F481C303EF051
:10117000C1FC606850B10C4D0020606005F11C009E
:101180003EF0B8FC05F134003EF0B4FCA06838B184
:101190000020A06004483430BDE8B0403EF0AABC56
:1011A000B0BD00BF1C010040C80D012080B56F46D6
:1011B0000248BDE880403EF09DBC00BF10F6002014
:1011C00080B56F46BDE8804060F0EEB8F0B503AF83
:1011D0004DF804BD154E002030603FF0C7FC144DA3
:1011E0000446A869F0B94FF0FF30A861686A78B189
:1011F000A96A88420CD0D6F808140170D5E9090113
:1012000001306862884204BF05F11C003EF046FCD4
:10121000A8690130A86120465DF804BBBDE8F04034
:101220003FF0DABC03483DF04BFD00BF00D1004069
:10123000440E012078D6060080B56F46BDE8804098
:1012400060F04EBFD0B502AF0F4C206930B1102016
:10125000C4F808020D482C303EF04CFC606830B1F8
:101260000220C4F8080209482C303EF043FC2068F4
:1012700040B10120C4F8080204482C30BDE8D04039
:101280003EF038BCD0BD00BF00710040C80D012049
:1012900080B56F46BDE8804060F07AB8F0B503AF26
:1012A0004DF8048D84B0344C206858B1334D012082
:1012B000C4F8080205F11C003EF01CFC05F12400F6
:1012C0003EF018FCE06D38B14FF40000C4F808029D
:1012D0002A4824303EF00EFCA06A38B14FF48060FA
:1012E000C4F80802254824303EF004FCA06D28B163
:1012F0000020A06521481C303EF0FCFB206EB8B3F6
:1013000000202066D4F86C631C48C4F86C63BFF3FB
:101310005F8F50E8051F314340E80512002AF8D1DD
:101320000020BFF35F8F8DF80C0007200DF104083B
:10133000029001200190404634F0D7FB012817D1DC
:1013400001F01F040D4626FA04F0C00704D0284619
:101350002CF0AAFB3EF0CEFB84F0100026FA00F041
:10136000C007E8D028462CF0F3FB3EF0C3FBE2E7D1
:1013700004B048F04ABD00BF00710240C80D012012
:10138000F0B503AF2DE90007ADF5846D044690F884
:1013900014040D4620B1032815D01E483DF037FD3A
:1013A000E846214640464FF4847264F0CDF9D4F803
:1013B000101442AE4246304626F0E8F804F5847038
:1013C000314649F02AFB04F58478A7F124002A4627
:1013D00041461BF08FFB57F8246CB51C01D103204C
:1013E0000FE0404657E908A905F0BEF9701C07D088
:1013F000A7F1240047E9096A47F81C9C05F0DAFCCC
:10140000012084F81404B5FA85F040090DF5846DC7
:1014100049F010B9BC850600F0B503AF2DE9000F07
:1014200095B0D0E90149834608468A46A4EB0905F0
:1014300047F0B8F9854201D200200BE25046DBF8B4
:10144000005047F0AFF9DFF81C142A46009100EB7A
:101450000901484623462CF039FB9AF80020FF2A60
:101460001FD19AF80420FF2A3ED149F0ECFEBAF8C9
:10147000080001280AA814BF1B211D2144F06CFF9D
:10148000C0B2022840F0DD81BAF80A100AA844F080
:1014900083FFC0B2022840F0D481DAE903120AA81F
:1014A0004EE1B2F10A044FF0000398BF1C46002C35
:1014B00035D0012C48D149F0C6FE0AA8522144F08B
:1014C0004BFFC0B2022840F0BC81BAF80C100AA849
:1014D00044F062FFC0B2022840F0B381DAE90112A1
:1014E0000AA846F063F835E0CDE903010020059035
:1014F000DFE812F00900C5005E00A2003200EF0034
:101500001B01C200290103A8032144F025FFC0B23A
:10151000022840F09681BAF8061003A88BE10AACC5
:101520000A2A0BC400F29981DFE812F00B001501C2
:101530003201350169014701730197019701970154
:1015400012010AA8102108E149F07DFE0AA81E2117
:1015500044F002FFC0B274E103A8092144F0FCFE8C
:10156000C0B2022840F06D81DAF8144003A8214689
:1015700044F0F2FEC0B2022840F063810AF1080292
:10158000139449F026F80AA8294646F0A5FF9DF8CD
:101590002800FF2840F0548148F06BFFC0B20228B9
:1015A00040F04F8149F040FCC0B20228EBD048E146
:1015B00003A8052144F0D0FEC0B2022840F04181CA
:1015C0009AF8144003A8214644F0C6FEC0B202288F
:1015D00040F037810AF108028DF824400DF14008EF
:1015E00007CA06AB07C30AA80430029003AC0AA8D6
:1015F00006A946F0C7FFBDF82800002840F020816A
:10160000029AA446BDF82A10404678CA78C06446BB
:1016100012780270604644F0BFFEC0B2022840F06B
:101620001081404644F068FE48F087FB45F0BEFF5D
:10163000C0B20228DBD004E103A8012144F08CFEF3
:10164000C0B2022840F0FD809AF8051003A844F0CB
:1016500083FEC0B2022840F0F480BAF8081003A854
:1016600044F09AFEC0B2022840F0EB809AF80610CF
:1016700003A844F021FEE0E003A80D2157E003A8F1
:10168000072144F069FEC0B2022840F0DA800AF176
:1016900008020DF1280848F09CFF4046294646F014
:1016A00073FC9DF82800FF2840F0CA80BDF82A107E
:1016B0003046BDF82C4044F06FFEC0B2022840F026
:1016C000C0803046214644F067FEC0B20228E4D014
:1016D000B7E003A8112144F03FFEC0B2022840F059
:1016E000B080DAF8144003A8214644F035FEC0B2B9
:1016F000022840F0A6800AF10802139448F069FF1E
:101700000AA8294646F0E8FE9DF82800FF2840F088
:10171000978048F0AEFEC0B2022840F0928049F0B7
:1017200083FBC0B20228EBD08BE003A80B2144F06E
:1017300013FEC0B2022840F08480DAE9021203A846
:1017400045F034FF79E003A8132144F005FE74E06E
:101750000AA80C215FE00AA8082144F0FDFDC0B2F0
:1017600002286ED1BAF812100AA844F015FEC0B2D1
:10177000022866D1BAF814100AA844F00DFEC0B2CF
:1017800002285ED10AF101010AA846F027FC54E0C4
:101790000AA80A2135E00AA8122144F0DDFDC0B2F2
:1017A00002284ED1BAF802100AA844F0F5FDC0B2E2
:1017B000022846D1DAE9011271E60AA8062144F0AE
:1017C000CBFDC0B202283CD1BAF802100AA844F0FE
:1017D000E3FDC0B2022834D1BAF804100AA844F0DC
:1017E000DBFDC0B202282CD1BAF806100AA844F0DA
:1017F000D3FDC0B2022824D1DAE902124FE60AA8CA
:10180000022144F0A9FDC0B202281AD1BAF8021090
:1018100010E00AA8042144F09FFDC0B2022810D1B4
:10182000BAF802100AA844F0B7FDC0B2022808D1E5
:10183000BAF804100AA844F0AFFDC0B2022800D1E3
:101840000220022806D1504646F0ACFF4844CBF8AF
:101850000800022015B048F08FBA03480F21034A50
:101860003CF04BFD48F6060034FF060054FF06002E
:10187000F0B503AF4DF804BD84B00446D0E90130A3
:101880000D46191A04290CD32268061D084948F090
:1018900033F8CDE9020102A8294604222CF022F9EE
:1018A00008B1002001E00220A66048F050BA00BF55
:1018B0002C87060080B56F46002101730149013174
:1018C000016080BDC80D012080B56F4645F2D01281
:1018D000815010440021C17380BDD4D4E0B502AF63
:1018E000DFF880C0044600254DF2E80040F2011206
:1018F00085422FD02B18654405F1180656E8001FC5
:1019000021B946E800210029F8D103E0BFF32F8F69
:101910001D46EDE71448686205F128002146FFF7EF
:10192000D3FF204629463DF06FFD0025BFF35F8FB2
:1019300054E8000F44E800510029F9D1BFF35F8F4C
:1019400030B1C669C5614576416A88473046F7E7D8
:1019500020BFEBE705487A1E00902B210448054B79
:101960003DF0FDF9E82200207D7202004C95060052
:1019700091F70600A4AF0600F0B503AF2DE9000B08
:1019800094B00446F8680DF13C0848F080FD9DF8DD
:101990003C00FF2803D040F6032020801DE0A7F183
:1019A0004E0008F10401851C47F0A2FF02A8294659
:1019B000861C47F044FE0BAD314647F099FF49F0D5
:1019C00056FA2078FF2808D048F0C1FE04483DF0C0
:1019D0001BFB48F0DCFC3DF07FFC14B048F00BBA78
:1019E000A1000000F0B503AF2DE9000FCDB0FE68F7
:1019F000D7F80880CDE91D2056F870AFD8F844001C
:101A0000C346CDF8AB00C1465BF8410FD6F808E0FD
:101A10002A90D8F83D00129316917268F568D6F8AE
:101A200010C07369B169F469CDF8CB0059F83A0F69
:101A30002192CDF870E01B95CDF868C019932091E4
:101A40001F94329032A88DE8120454460DF1F80A22
:101A5000CDE9032E624605952AA9CDE90610A6F127
:101A60003001504627F0E8FE22A89AE82E002EC04A
:101A7000429811904398109044980F9045980E907A
:101A8000306A1890706A179008F14E00D6E90AA5DE
:101A900047F0E5FA20F07F40CDE90A0B209800904E
:101AA0001F98CDE90104219803901C98CDE908A561
:101AB000049005461B98CDF854B0059083461898BD
:101AC00006901798CDF84C90CDF83090149407906C
:101AD00026A822A91A9A199B9146984627F0D2FD6A
:101AE0001D98102804D126A816992DF008FD30B1B4
:101AF0001E99FF20087040F6033088805EE0D6E92A
:101B00000C40D7F808A01D90B06B18900AF148005F
:101B1000F66B47F0A4FA20F07F400A9013980B90E0
:101B200015980C90209804901F981899CDE90504F9
:101B30001D98CDE90816CDE9005BCDE90298079024
:101B40002AA822A9149A219B27F09CFDDDE92C01EB
:101B5000DDE92A23CDE900013EAC204606F0B4F8C9
:101B60009DF8F850FF2D0AD0611C32AC47F0B8FE4A
:101B70001E9E214648F0D5F83571FF201DE00DF17D
:101B8000C809211D09F1030547F0B2FE2EAE294612
:101B900047F055FD129C0DF1F808324640462146AB
:101BA0002CF0B8F89DF8F850FF2D0AD01E9E08F1D1
:101BB000010148F0B6F8FF20357130704DB047F0A4
:101BC000ECBF9AF8380002239AF84A100DF1F80891
:101BD0009AF85020022801F0030008BF012302F008
:101BE000030180F0010081F0010108430F99009189
:101BF000B0FA80F00E994009CDE901132146DDE9E4
:101C00001032039040462CF0B8F89DF82161022E66
:101C100009D198E86E0048466EC01E9E99E83E00C5
:101C2000301D3EC0A9E732AC3EA9292247F0FDFF96
:101C3000BDF826012146ADF830012922DDF8220148
:101C40004B903EAD47F0FAFF5046294649F091FAD5
:101C50004B981E99CAF82A00BDF83001AAF82E0048
:101C60000A208AF829600870A8E7D4D4102B7DD107
:101C7000F0B503AF2DE9000F9DB009908846F868D4
:101C8000137800F16006D2F80100D2F80540D2F8CE
:101C9000095043EA002C39692B0243EA14632402F9
:101CA00044EA1060D47BB2F80D20C6E900C042EAD5
:101CB0000442120242EA1562C6E9023218A803F091
:101CC00081F806F1300A189806F11003F66B1A9A9B
:101CD00008F07F041999DDF86CB0069283E80708D4
:101CE000A4F140020791314608909AE82006504638
:101CF00063F0E0FDCDF81480804628464946224630
:101D000063F0D8FDC4F14002814650463146D7F811
:101D10000CA063F03FFF0AF1200103910699402CCB
:101D2000CDE901BA009138BF49EA00082948002CE2
:101D300008BFA84649F00EFA0AA8DDE9073227F0E5
:101D400005FDDDE90C01DDE90A23CDE9000118AC50
:101D5000204605F0F5FE9DF86050FF2D0CD0611C6B
:101D60000FAC47F0BDFD099E21461FE0FF21017029
:101D700040F6032181807047DDF814900FA8C61C3F
:101D8000211D1022D7F8088047F055FF14AD3146C9
:101D900047F0AEFD18AC41462A4620462BF0BAFF6C
:101DA0009DF86050FF2D09D0099E611C47F0B9FFD6
:101DB000FF20357130701DB047F0EFBE099C5146D1
:101DC000B02204F1080063F0BFFC0620C4F80490C0
:101DD0002070F0E7C0FFFF7FF0B503AF2DE9000BE7
:101DE00094B00446F8680DF13C0848F050FB9DF8AB
:101DF0003C00FF2803D040F6032020801DE0A7F11F
:101E00004E0008F10401851C47F072FD02A8294626
:101E1000861C47F014FC0BAD314647F069FD49F0D4
:101E200026F82078FF2808D048F091FC04483DF0BF
:101E3000EBF848F0ACFA3DF04FFA14B047F0DBBFD6
:101E4000A0000000F0B503AF2DE9000F9FB082465F
:101E5000880701D411206BE0D56B934605F1080388
:101E60000FCB48F08CFB11BF8DE80F000020CDE9AF
:101E70000200CDE9000016AE6946304605F054FF79
:101E80009DF85840FF2C3DD111A8311D00F10308E9
:101E9000102248F029FB0AAE414647F0D0FB0DF175
:101EA00058095946324649F0E5F99DF85840FF2C4B
:101EB0002FD12868C10740D06968000A0A0E8DF842
:101EC0003E200A0A40EA0160ADF83C200E9016AEB2
:101ED0000EA9304605F072FF9DF85840FF2C11D135
:101EE000311D404647F08AFF1BAE414647F0A7FB35
:101EF00005A8594632462BF00DFF9DF81440FF2CE3
:101F0000A8D00CE011AD711C47F003FE05A82946CE
:101F100002E005A809F10101013047F089FE05A999
:101F20000AF10500013147F083FEFF208AF80440E2
:101F30008AF800001FB047F030BE0524EFE7F0B587
:101F400003AF2DE9000F8BB0044602A80E46002116
:101F5000924605F0CBFD9DF80800FF281DD09DF8A6
:101F60000B10E170BDF809109DF81B20DDE903C5D9
:101F7000A4F80110BDF81910059E9DF81830ADF8B1
:101F80001C108DF81E202374C4E901C5E660A4F876
:101F90001110E274207047F098BB9DF818B0059DB1
:101FA000BDF81900ADF8040059469DF81B008DF8E6
:101FB00006002846DDE9038925F002FC02460B46AF
:101FC00006F1480011461A4647F002F9C0B202284D
:101FD0001CD1BDF804005146ADF829009DF806005B
:101FE0008DF828B00995CDE907898DF82B0002AD51
:101FF00007AA28462BF08EFE9DF80860FF2E10D011
:10200000601C691C47F014FE2670C4E70520494691
:10201000207040460BB0BDE8000FBDE8F04047F02F
:10202000ADB8FF20B6E7D4D4F0B503AF2DE9000F6B
:102030009FB00D46B968069314460B901AA802F09B
:10204000C1FE1A9804F170061C9A05F07F0504F190
:10205000900B1B991D9B0FC60892A5F140020A9098
:102060009BE8400E504609915946079363F022FCC5
:102070008046304649462A4663F01CFCC5F14002C2
:1020800081465046594663F085FD04F12001402DFC
:10209000CDE90241079901910899009138BF49EAB9
:1020A00000082448002D08BFB04649F053F80CA89A
:1020B000DDE9093227F04AFBDDE90E01DDE90C23F9
:1020C000CDE900011AAC204605F03AFD9DF86850B4
:1020D000FF2D0BD0611C11AC47F002FC0B9E21467A
:1020E0001322701C63F0FCFB35701FE0DDF82C80C0
:1020F00011A8C51C211D47F0FBFB16AE294647F071
:102100009EFA1AAC0699324620462BF003FE9DF843
:102110006850FF2D07D008F10100611C47F088FDD1
:1021200088F8005002E0FF2088F800001FB047F058
:1021300034BD00BFC0FFFF7FF0B503AF2DE9000F36
:10214000B5B016461D46CDE91210B046D6F83D0092
:102150000DF1A00C55F8702FCDF8A30058F83A0FE8
:10216000289056F8410FD5F808906B68D5F80CA068
:10217000D5F810E0D5F814B0AC69E9692C90D6F820
:10218000030014921593CDF86C90CDF868A0CDF8AB
:1021900064E0CDF860B017941691CDF8B3002CA888
:1021A0008DE800460DF18009CDE9051CA5F130014F
:1021B00007904846CDE903B427F03EFB1CA899E8F8
:1021C0001E0005F1300B1EC0249811902598109028
:1021D00026980F9027980E90F01D9BE8100AD5F8CE
:1021E0003CA046F03CFF20F07F40CDE90A08DDE945
:1021F0001A10CDE908BA0C96CDE9000119980290A1
:102200001898039017980490169805A981E8110270
:1022100028A81CA9DDE9142327F034FADDE92823D6
:102220000DF18009DDE92A01CDE90001484605F0FC
:102230004BFD9DF88060FF2E0ED02CAC09F1010102
:1022400047F04EFB139D21461322681D63F048FBA7
:10225000FF202E71287051E0DDF84C802CA8C61CA0
:1022600009F1040147F0EBF931AC314647F03CFB92
:102270000DF180091299224648F0FCFF9DF880403C
:10228000FF2C0BD008F1050009F1010147F0D0FC4B
:10229000FF2088F8044088F800002FE005F1200BAB
:1022A000464608F11804ED6A9BE8000D09F10700A5
:1022B0001CA947F0A3FD0B20494606F8010B172285
:1022C00047F0B9FC199804F12C012062189860625B
:1022D0001798A0621698E56381E8010D11982060B7
:1022E000109860600F98A0600E98E06014982061CC
:1022F000159860611B98A0611A98E06135B047F0AD
:102300004CBCD4D4F0B503AF2DE9000F8BB004461C
:102310000220ADF80A0001208DF808001E462C4866
:1023200088468DF80920039007A846F0DDFE079D3A
:10233000EDB3DDE9089BFB20D7F808A0CDE904B098
:102340000020069004A803A9FFF792FAC0B2022861
:102350001CD104A802A9FFF78BFAC0B2022815D13C
:10236000DDE90530191A02290ED3049A19490091A2
:10237000811C01912BF0AAFBCDE9070107A831468A
:1023800002222BF0AFFBB0B1042004E0C0074FF0F5
:10239000040018BF0D2001212070617028464946B5
:1023A0000BB0BDE8000FBDE8F04046F0E7BE1620D8
:1023B000207047F08AB9019851460A9007A880E832
:1023C000200A07AB2046424626F01CFDF1E700BF7D
:1023D000060005002C870600DCB504AF10CBB83131
:1023E00000943FF0E3F9DCBD91F8673301F5147216
:1023F000012B12BF91F8561202F58C720121A0B187
:10240000D0B502AF9388B0F8154112686340D0F898
:10241000114162401A4390F817315940C90718BF5B
:102420000020002A18BF0020D0BD00207047D4D45F
:10243000F0B503AF2DE9000794B002AD88468146A0
:10244000482147F0E0FDD8F80C404826334B294698
:10245000482C38BF2646304648222BF044FC05461F
:10246000D8F808008A46214629F08CF88E4251D8C7
:1024700003462B4800901A4628465146334646F0FC
:10248000DCFE022C09D22D483CF0BEFD30463CF06B
:10249000ADFD3CF021FF0A2019E09DF80800441E24
:1024A000E5B20E2D12D22046A6F1010A25F0FCFB62
:1024B00080B282451BD109F1010002A9482263F0D4
:1024C0000FFAC9F84C6089F8004008E0072089F845
:1024D0000500032089F80400FF2089F80000D8E9EE
:1024E000000146F04BFE14B0BDE80007F0BD0D48FA
:1024F0003CF08AFD0C480D4CA0470D48A0470D4804
:102500000D4950F8250051F825103AF0C9FC00207B
:10251000A047BEE70A4B0A4648F0DEFA7C88060070
:102520009C8806009600000011000000C7EF030021
:10253000C00100007C04070044040700970000006D
:102540008C880600F0B503AF2DE9000F95B01C781C
:102550008046FF2C15D045481D4616468A4693F8FE
:1025600001B03CF051FD42483CF02DFD284644F0BE
:1025700077FE032C18BF4FF0080B3CF0ADFE192C72
:1025800005D1FF2088F8000015B047F006BBB6F86B
:1025900058430FA846F0A8FD0F98002847D0A7F190
:1025A00043000094C51C0FA90C2247F047FBA7F17C
:1025B00052002946C61C0C2247F03DFB12AD3146A5
:1025C0000C2247F03BFB02A82946042225F00AF919
:1025D0009DF80800DDE903549DF81860FF28DDF838
:1025E000149025D14846314625F0EAF8D9B380F851
:1025F00000B0304625F0DDF8CDE904904046CDE945
:10260000025402AD009A51462B4626F0FBFB98F887
:102610000000FF28B5D098E85E0028465EC0154847
:102620003CF0F2FC47F05AFF3CF056FEACE71620B7
:102630009DF80B1088F80310BDF809109DF81B20B9
:10264000A8F80110BDF81910ADF804108DF8062097
:1026500088F81060C8E90154C8F80C90A8F8111067
:1026600088F813208EE7044A46F078FF8F000000B8
:10267000AC01000094000000BC880600F0B503AF78
:102680002DE9000F95B00DF12C08CDE9012008F1DE
:10269000080000240E22039463F022F9A7F12A0611
:1026A0001C4D06F10109A7F1230A0DF10C0B18E0EE
:1026B000D1F80920B1F80D10A9F80410294607F83F
:1026C0002A0C3046C9F8002039F0B6FC40B150461B
:1026D0005946324626F084FD17F8230CFF2807D10F
:1026E00007340E2C1EBF08EB0401087AFF28DFD147
:1026F00003A9029C46F0E5FF0199002084F8270019
:102700000868D1F803102062C4F8231015B0BDE8A2
:10271000000FF0BD20890600F0B503AF4DF8048D21
:1027200092B00DF104080D4606461146404644227B
:102730001C4663F04FF9B86829460090304642467F
:10274000234600F005F812B05DF8048BF0BDD4D438
:10275000F0B503AF2DE9000FADF29C6D0D460146BB
:1027600005F1D0001690DCAE95F8C84006F1600B7C
:1027700005F1780A99469046022CCDE918155DD1ED
:102780001AAE2946C82247F058FF15209DF8681058
:1027900028710E2028700C2998F8000000F234836C
:1027A000DCAA02F17004DFE811F00D00AA01630158
:1027B0004B01F2003101FC012F039702E7022F03C6
:1027C000CC02CD00FF2804BF98F80C10002900F0BF
:1027D0000D87411E0329C0F0D982002840F01083E4
:1027E00098F80100002801F03F800DF59F684946E8
:1027F00040462BF0B7FB9DF82165FF2E01F03D8789
:10280000DCAC0DF59F61292247F00FFADDF82205B7
:10281000214688902922BDF82605ADF8240205F14D
:10282000D00063F05DF88898C5F8FA00BDF824027E
:1028300085F8F960A5F8FE0000F023BFCDF85C90A4
:102840000DF50C792946C822484662F07DFF152017
:102850009DF830122871122028700F2998F8000076
:1028600000F28B851AAA02F16003DFE811F0100074
:10287000A103F6027104A40486056F03BF03FC03E1
:1028800086057F05080586058605D9027A03FF2897
:1028900004BF98F80C200A2A40F06F85D8F8080089
:1028A000002802F0478295F819010C22D8F804108C
:1028B00005F1D006032808BF0822DDF85CB0DBF87C
:1028C000383093F8700393F87133024485F81A2175
:1028D0000C7813B1012185F818110DF59F6858B1D6
:1028E00095F81C0195F81D1140F0030085F81C01B6
:1028F00041F0030185F81D111AA859462BF084FBFD
:10290000DDF860A09DF89100022807D0600741F132
:102910005E829DF89000022801F05982DCAC3146BD
:102920005A462046FFF70BFB9DF87063FF2E01F01F
:10293000A58108F10500611C47F07AF98DF8FC6467
:1029400001F05BBAFF2804BF98F80C20082A40F079
:102950001A82D8F80820002A02F0EA81D8F8040088
:102960000478DCAE022C80F09A870DF59F68062A69
:1029700042F2D08150F8011FC5F81111818848F04A
:1029800007F901D047F0A1FE0D2002F06BB8FF2837
:1029900004BF98F80C10022900F01286042800F2F7
:1029A0003682DFE810F07B06F301F30105007B06B9
:1029B00005F118010DF59F650DF59F60902200F15E
:1029C0009004284662F0C0FE0DF55C7A711C11225D
:1029D00047F0CAFC0026D8F80400C4E90006C4E9A0
:1029E00004069DF87003C4E90266C007C4E90666E0
:1029F00001F01584B8680AF10102CDE900950021C3
:102A000002908CA81023FFF731F9C3E1FF2804BF1F
:102A100098F80C20022A40F0B6810DF59F6405F16C
:102A20000801B02248F06EFCD8E90123A046B8683E
:102A30001B99CDE9009402908CA8FFF717F9ABE140
:102A4000042800F27987DFE810F029060500510715
:102A5000A10129069DF86900002801F0118106F105
:102A6000180016991022CDE90010B11C00F0D9BE53
:102A7000FF2804BF98F80C20032A40F08481CDF889
:102A80005C9005F108014CA8702262F05DFE9AE8A6
:102A9000400A05F198012022DAF80CA0C6A862F0DD
:102AA0001FFF47F0D5FB40F02887D8F804000DF54C
:102AB0009F6532464B46D0F809101591D0F80510A5
:102AC0001491D0F80110139101781291C17B1191EA
:102AD0001799B0F80D0010902846CDE900BAFEF71E
:102AE0004BFF9DF8F884B8F1FF0F01F0DD818CA851
:102AF000691C46F0EEFF8DF8348200F002BFFF281B
:102B000004BF98F80C200B2A40F03D81D8E901124F
:102B10000DF54678404646F00FFAD9F82C10BEACB9
:102B200046F0CFFDD9F830104CAE4022CA4647F0EF
:102B300082F80DF59F69214642463346484646F0E5
:102B40002DF99DF8F804C00700F0DE869DF8FB041F
:102B500009F106018DF806021222BDF8F9049DF86C
:102B6000FC449DF8FD64ADF804027CA862F0B8FE58
:102B700009F1180079A90DF59F650CC80CC1007802
:102B800008704CA9284605F027F89DF8F804FF289E
:102B900001F0D7810A204FF003088DF8710301F08E
:102BA000FBB9FF2804BF98F80C20032A40F0EB8003
:102BB00005F10801DCA847F037FB47F049FB40F07E
:102BC000AC86D8F804001B9DCDF85C90D0F80110BD
:102BD0000278DBE90E9842EA0122CBF82020159218
:102BE000D0F80930D0F805201C02119505F07F05BA
:102BF00044EA1264120242EA1161CBF82840CBF891
:102C00002410C5F140021491C17BB0F80D0013945B
:102C100040EA01404146000240EA136A4846CBF8C8
:102C20002CA0DBE90C6462F0B5FF1290304621461F
:102C30002A4662F03FFEA5F140020446484641465E
:102C400062F038FE1299402D38BF44EA0100E6498F
:102C5000002D08BF3046DCAA61F35F00139B02F130
:102C60002001CDE9003ACDE902120490BEA8DDE9C9
:102C7000143226F06BFDDBE900ACDDE9BE648CEAC2
:102C80000401DBE90289DDE9C03589EA0500084372
:102C90008AEA060288EA03011143084341F00280F0
:102CA000DBE904230DF59F64DBE90601CDE90001B2
:102CB000204604F06BFF9DF8F864FF2E01F0B1830D
:102CC000611C4CAC46F00CFE8CA8214646F001FF7E
:102CD0008DF8346200F015BEFF2804BF98F80C2070
:102CE000032A50D105F10801DCA847F09DFA47F00E
:102CF000AFFA40F01A86D8F8040004F1100547F046
:102D000066F80EC5B968E061204602F05BF8D4E9C8
:102D10000201D4E900230DF59F64CDE90001494685
:102D20002046FEF729FE9DF8F864FF2E01F044814D
:102D30008CA8611C46F0CDFE8DF83462FF2001F0B6
:102D400076BAFF2804BF98F80C20072A1BD147F059
:102D50007FFA40F0128695F8F900DCAE022808D020
:102D6000D8F804000AF1680447F031F80EC4CAF834
:102D700074000C2000F006BEFF2804BF98F80C2059
:102D80000C2A00F04785421E032A36D28CA81AA9C5
:102D900048F08FF90DF59F68DCAE9DF83002FF28F2
:102DA00000F07F840DF50C7A0DF59F60C822514626
:102DB00062F0CAFC9DF8F8040E2800F07D84199D8D
:102DC0000D2840F09C84C84695F8F990B9F1020F9F
:102DD00000F0958495F81A0100F00300012802BF65
:102DE00095F8200100F00300012800F0BE8495F85A
:102DF000F8E04FF0020900F0E5BC002800F03A844A
:102E0000042804D100F04ABCFF2840F0298498F837
:102E10000C00042800F0C4830D28B7D000F03EBC9D
:102E2000FF2804BF98F80C20072A40F0A68247F03C
:102E30000FFA40F03686DDF85CB095F8F90002280C
:102E400008D0D8F804000AF1680446F0C0FF0EC4A8
:102E5000CAF874000F2000F026BEFF2804BF98F8BF
:102E60000C200B2A40F08982BEAE09F10401202219
:102E70009A4646F0E0FE05F1240B0DF54679402216
:102E80004846594662F02CFDD8E901124CAC204668
:102E900046F052F80DF55C78314622464B464046E6
:102EA00045F07CFF9DF87003C00700F0FF859DF89A
:102EB000730308F106018DF8AA001222BDF8710310
:102EC000ADF8A800BDF874431AAE06F1450062F0F3
:102ED00007FD06F1570008F11801092262F000FD14
:102EE00006F120004CA946F09DFE3046594646F0BA
:102EF00099FE50465021ADF8AB4062F0CEFB95F8FC
:102F00000801811E38BF0221DDF85CB0C9B2022978
:102F100001F0EC80DDF860A0032941F00B810F2067
:102F20000DF55C788DF8700347F007FBD6AE47F0DF
:102F3000D2FA9DF85843FF2C41F0608308F1070056
:102F40001AA946F0C1FF092001F0BBBB98F80C108C
:102F5000FF2808BF022900F0EA83FF2800F0118251
:102F600049E2FF2804BF98F80C20082A40F00582A7
:102F7000D8F80820002A01F0DF86D8F80400DDF830
:102F80005CB00478022C80F0D0850DF59F68062A8D
:102F900041F2C28650F8011FC5F811118188DDF891
:102FA00060A047F0F5FD00F0DA8247F08EFBD6E234
:102FB000FF2840F0E08298F80C100A2900F07E8586
:102FC000012940F0DE81D8E90112DCA846F010F9B1
:102FD0009DF87003022840F082860A20DDE917BAC6
:102FE0000DF59F6801F058B9C0FFFF7FFF2804BFAF
:102FF00098F80C20022A40F0C08105F10801DCA8F5
:10300000602262F0A1FB9AE8500605F188011AA837
:1030100047F014FE47F01CF940F05985D8F8040039
:103020000DF598788D9922461591334601681491D3
:1030300041681391816812911799C06811904046B8
:10304000CDE9009AFEF7C8FE9DF830B1BBF1FF0F45
:1030500001F022800DF59F6248F093F846F0E8FDFC
:103060008DF8FCB4F6E1FF2804BF98F80C20032A81
:1030700040F0838105F10801DCA847F0D5F847F05E
:10308000E7F840F02D858D985D46DBF830A0DBF841
:10309000341000F07F04DBF838B0A4F14002D5F81A
:1030A0003C901491139058464946D8F80460CDF8E6
:1030B00054A062F0FFFB149980465046224662F00D
:1030C000F9FBC4F1400282465846494662F062FD6F
:1030D000F368D6F800907268D6F808B0DCA90391BE
:1030E00020310291402C1493CDE900B338BF4AEA55
:1030F00000081598002C08BF8046DB4848F02AF8E5
:1031000090461AA84A46434626F020FBD5E902E33A
:10311000DDE91A42D5E900C1DDE91C6051405840A3
:1031200084EA0C02084386EA0E011143084340F08A
:10313000E18514981399C5E90898C5F828B01329B2
:10314000E862199D41F0AD800DF59F60DCAB8CE02D
:10315000FF2804BF98F80C20022A40F00E8105F1E8
:1031600008011AA8B0221C4662F0EEFA47F070F887
:1031700040F07483D8F8040046F029FE84E80E007D
:10318000B968E06004F1100001F01CFED4E906010A
:10319000D4E90423CDE90001DCAC46F0ACFC9DF899
:1031A0007063FF2E40F06286E01D1AA946F08CFE87
:1031B000042000F06BBEFF2804BF98F80C20032AFF
:1031C00040F0DB800DF1680B05F10801B0221C46D0
:1031D000584662F0B9FA47F03BF840F03F83D8F820
:1031E00004000BF120028168D0F80CA0D0F8049004
:1031F000D0F800800020CDE9001ACDE914214B461B
:10320000CDE9022B42460490C6A826F09FFAD4E9E5
:1032100002E3DDE9C652D4E900C1DDE9C8605140EE
:1032200058408CEA050208438EEA06011143084320
:1032300040F0718504F11003159DC4E908890FCB96
:10324000C4E90A5A149CCDF800B001AE86E8100318
:10325000CDE9045A26F0B8FA199D95F8081102290B
:1032600041F03D800DF59F601AABDDF85CB0169A19
:103270005946FEF761FFDDF860A000F02DBCFF2885
:1032800004BF98F80C200C2A77D105F10801DCA8BE
:10329000502206F1100462F057FAD8E9010104F156
:1032A000280A0D902069129060691190A069109011
:1032B000E0690F90206A1390606A1490606B0E9022
:1032C00005F58F709AE800071591D4E90E6B45F06B
:1032D000C6FED5F8142120F07F40D5F81111CDF8A5
:1032E00033214C91D5F80D21D5F80A11CDF86B207A
:1032F0001A91CDE9086B0A904CA80B901AAD129860
:10330000029011980390109804900F98CDE9050A47
:103310000E980C95CDE900890790D6A8DCA9DDE9C7
:10332000132326F0AFF91598102806D1D6A90D98C9
:103330002CF0E5F8002800F0F8844FF00B08032685
:10334000199DDDE917BA0DF59F60BEA9063012225E
:1033500062F0C6FAFF208DF8FD848DF8FC64DCAEC7
:103360008DF8F8040DF59F6801F0B8B9FF2804BF87
:1033700098F80C20032A00F05A82FF2809D198F807
:103380000C10042922D047F077FE0D2900F0F880B8
:10339000FFE00539082900F2EE80DFE801F0052C96
:1033A000ECEC81ECECD1E9000DF59F68012800F010
:1033B0009482DDF85CB0022840F0EB8040F60340D8
:1033C000DDF860A0ADF8FC0401F08AB9DDF85CB06E
:1033D000D8F80800002801F0A78447F030FE8DF8E7
:1033E000FC14411E102928BF08208DF8FD04DDF8CB
:1033F00060A001F075B9032840F0BD800DF55C7A3E
:1034000005F118019022504662F09EF90020D8F88C
:1034100004100DF16808179BCBE90C105246CBE95C
:1034200010100021CBE90E00CBE91200B868009023
:1034300040469DF83162FEF7F7FD9DF86840FF2C8D
:1034400000F052830DF59F6247F09BFE46F0F0FBC3
:103450008DF8FC44FF20DDF860A08DF8F804DDF85D
:103460005CB001F038B900BFC0FFFF7F30B9060083
:10347000990000009D000000A40000009B000000D7
:103480008D000000950000009D7A0400F4FA06000B
:10349000A6000000900000009A0000008B000000D1
:1034A000042868D10DF1680905F10801B0224846E9
:1034B00062F04AF9D8F8010008F1210414902022A2
:1034C000D8F8050021461590D8F809001290D8F8D0
:1034D0000D0013904CAE46F0AEFB5FF87010204626
:1034E0002CF00DF840B95FF87C1006F110002CF0BC
:1034F00006F8002800F087844946DDF83C91DDE9B4
:103500004DA82031DDF830B10020CDE90089CDE9AA
:10351000021153460490DCAC5A46204626F016F9B8
:1035200006F1100120462BF0EAFF002800F06F841E
:10353000FF208DF8F80440F20340ADF8FC04C9E226
:10354000C8B998F80100002800F04F83DDE917BAE8
:103550000DF59F6895F82301800700F1BF8595F868
:1035600022110DF59F605A46FEF76CFC01F0B4B8CD
:10357000002800F0AB8147F07FFD0138022808D217
:103580000DF59F608CA947F094FDDDF860A001F077
:10359000A3B81520DDF860A08DF8FC0401F0A0B8F8
:1035A000D8F80800002801F0C18347F048FD8DF8E5
:1035B0003412411E102928BF08208DF8350270E012
:1035C00046F046FE40F05981D8F804108CACA01C9F
:1035D00046F014FC0DF59F6805F1180108F106008E
:1035E00046F072FC46F05BFC04204AE10DF59F605A
:1035F0004946D8E901A917912AF006FD9DF8210551
:1036000002281ED00D200DF59F688DF8F8040DF5E9
:103610005C7B17984346816A826B58462AF01FFCF0
:103620009DF87003FF280BD09BE85E0040465EC00B
:103630005FF8C4013BF0E8FC46F0A9FE3BF04CFE0D
:10364000199D0DF59F6051464A4645F0D1FD9DF804
:10365000F844022C40F01A81DDF85C900A2089E2DF
:10366000072908BF042800F09081421E032AFFF4B6
:103670008DAB98B90A2911D198F80100002800F003
:10368000F38095F81D01800700F1618295F8220111
:10369000DCAE80074CBF0B200D2073E1152047F0F6
:1036A000E6FC8CA808F10401043090E87C000E20B0
:1036B0007CC1DCAE8DF8F804301D08F1040130F057
:1036C00047F90C20D9F828108DF870033346D9F843
:1036D00038204CAC20462AF0C2FB47F0F0FA0DD05F
:1036E000304694E86E006EC0DCAE5FF878023BF0C6
:1036F0008BFC304643F0A6FD3BF0EEFD199D0DF529
:103700009F61284647F0D5FC8CAC2946204644F002
:103710002CFAFF208DF870039DF83002FE2818BFA8
:103720002646189D96E81F001FC501F017B846F001
:103730008FFD40F0C480D8F804100DF59F6808F1A3
:10374000020046F05BFBB01D05F1180146F0BCFB22
:10375000012031468DF8F90408F11200B62262F01A
:10376000BFF8DDF85CB00620ADE04CAE169A4146DD
:1037700030462AF09DFB47F0A2FA0DD00DF55C7B98
:1037800096E83E0058463EC05FF8140347F020FC20
:1037900047F051FA3BF0A0FD169805F1E00EAC465B
:1037A0005446016817914168149181681591D0F8C9
:1037B0000CB09EE86F006FC4DDE9142117989CF8E7
:1037C000F8E0DCAECDE9E01B06F11801CDE9DE0240
:1037D0008DF871E39AE87D007DC10B20DCAE8DF899
:1037E000A1938DF8A0E333468DF87003D8F8281024
:1037F000D8F838204CAC20462AF031FB47F05FFA6D
:103800003FF47CAF304694E86E006EC0DCAE5FF8EB
:1038100094036CE706F10800169BD8E90112CDE984
:1038200000308CA84B46FEF7DDF8FFF7B3BA05F180
:103830000801DCA846F0F8FC46F00AFD0ED1D8F8E5
:10384000040046F0C4FAFF90FCA80EC0DCAB0DF5F6
:103850009F60DDF85CB047F060FA72E1FF20DDE9BF
:1038600017BA46F05EFE6EE15FF8EC033BF0D8FB62
:1038700047F0A6F940F6037053E0052047F0F7FB48
:10388000FF20DCAE8DF83002FFF789BA9DF8FA64AC
:10389000DDF85C90300700F1668103206AE15FF893
:1038A0001C043BF0B1FB204639F096FC3BF014FDC4
:1038B00005200DF59F688DF8340201F0D2B847F06D
:1038C0002FFC0DF59F68DDF860A098E298F80100E4
:1038D000002800F098811120F1E0DDF85CB009F1DA
:1038E00008030DF59F6047F018FA4EE640F60340D6
:1038F0000DF59F68ADF83402D3E640F60320ADF82D
:10390000340247F05DF918E340F60330ADF83402B5
:1039100047F056F9D146FFF73DBA47F051F940F666
:103920000320ADF83402FFF735BA47F049F9052016
:103930008DF83402FFF72EBA9DF8690000287FF455
:1039400066AA98F80C000C287FF461AA46F080FC67
:1039500040F0DA85D8F804108CACA01C46F04EFA82
:103960000DF59F6805F1180108F1060046F0ACFA64
:1039700046F095FA032000F0CBBD05208DF8340207
:10398000FF20DCAE8DF8300212E3CDF85C9005F13B
:1039900008014CA846F048FC08F121060DF54679CF
:1039A0002022484647F068F95FF84015D8F80D0026
:1039B00015903046D8F80140D8F805B0D8F809A0DD
:1039C00095F81E5144F062F840B95FF8601509F1AE
:1039D000100044F05BF8002800F02D84CDE913BA04
:1039E0000DF55C7ACDE91154C6AB0DF53E780FCBE1
:1039F000109047F0BDF80F914146BE9050460E9290
:103A00000D9339F0A7F80DF59F64002651464FF449
:103A1000B8722046CDF8DC64CDF8D864CDF8D46413
:103A2000CDF8D064CDF86866CDF86C66CDF87066D8
:103A3000CDF8746661F0CEFF0DF55C7A21464FF447
:103A4000C072504661F0C6FF8DF8F0644CA800F1DA
:103A500020045FF8CC95504620222146C8475046A6
:103A600021462022C8470DF59F6B504601228DF854
:103A7000F8645946C847584651464FF4C27261F03F
:103A8000A9FF9DF878A60BF5B8715FF800361022F3
:103A900050462AF0E4FA002970D000F8016B013991
:103AA000F9E747F03DFB8DF8F8044AE040F60330B3
:103AB000ADF8FC04FF208DF8F8040BE00120DDF8E0
:103AC00060A047F0D9FA8DF8F80400F04BBEFF2053
:103AD00046F027FDDDE917BA0DF59F6800F0FBBD44
:103AE00005200DF59F680AE1DDF860A0F00700F001
:103AF000618109F1020046F06AF98BE80E00CBF80B
:103B00000C00DBE90601DBE90423CDE900011AAC76
:103B100045F0F1FF9DF868600DF59F68FF2E00F0FD
:103B2000A18408F10500611CD3E35FF89C063BF01B
:103B30006BFA204639F050FB3BF0CEFBFF2046F0FD
:103B4000F0FCDDF860A00DF59F6800F0C5BDD9F868
:103B50003CA00AF108030FCB46F011FD00F0F18202
:103B600082AC0FC4F2E29DF8FB84B8F1100F80F034
:103B7000328206208DF83502032090E5A7F13C063D
:103B80000024584647F83C4C31468DF8784647E9C2
:103B90000E4447F8304C38F048FAA7F12C0931466A
:103BA00048462FF061FF0BF5B076102C0AD00BEBD6
:103BB0000400013490F8601190F87021514080F8B1
:103BC0006011F2E7BAF1100F40F02E82DDF850A03C
:103BD0000DF59F68DDE9124B0020102800F03D82B2
:103BE00019F8001046F062FAF7E75FF858073BF063
:103BF00017FA40F60370DDE917BAADF8FC040DF5CD
:103C00009F6800F06DBD0D200DF55C788DF8700398
:103C10000DF1680917984346816A826B48462AF07D
:103C20001EF99DF86800FF280CD099E86E00404608
:103C30006EC0DCAE5FF8A00747F0CAF946F0A7FBFC
:103C40003BF04AFBDDF860A0E00700F04982DCAC05
:103C5000DDE9161B5A462046FEF771F99DF87063A0
:103C60000DF59F68FF2E00F0588408F10500611CD7
:103C700045F0DEFF8DF8FC6400F0ACBF0120BDE034
:103C80000DF59F6805F1180108F1070046F01CF9D1
:103C9000092041468DF830028CA846F060F8DCAE71
:103CA000FFF780B85FF80C089B46159535466646C9
:103CB0003BF0AAF95046314642464B4643F0F4F9F0
:103CC000159B284621465A4643F0EEF93BF004FB8B
:103CD00046F076FF40F20340ADF834022DE19DF846
:103CE00072130DF59F68DDE917BA0A0700F1CE825D
:103CF0000320D1E2199D0DF59F68DCAE032004215D
:103D00008DF8FC04FF208DF8FD148DF8F804DDE932
:103D100017BA00F0E1BC199D0DF59F68DDE917BAEF
:103D200040F60340ADF8FC04F4E2DDF864B0AC46C4
:103D300002269BF81A119BF820519BF8080101F00C
:103D4000030105F0030581F00101022885F001055A
:103D500008BF01262943B1FA81F1D4E900234909BA
:103D6000D4E902040391654617998DE85100604635
:103D70002AF003F80DF5467AA91C12229DF8686016
:103D800050469DF869809DF8914061F0A9FD022C94
:103D900040F0C582BEA8BAE82E00FF2E2EC05D46B8
:103DA000BAF80010DDF860A0DDF85CB001807FF4A7
:103DB000CAAAF1E20DF59F68DCA908F1080046F0F7
:103DC00033FA0020CDF8FC040720FFF746BBDCAC3B
:103DD000594620462AF0C6F89DF89963FF2E40F018
:103DE000DE820DF5987C94E86E0060466EC008F1A6
:103DF00004009CE83E003EC0199DFF20DCAE8DF81B
:103E0000F80400F06BBCDDE94CBADDE94E891AA874
:103E1000129E00F1700495F81E01002808BF0646A6
:103E2000159908BF0146149A08BF0246139B08BFA4
:103E30000346C4E90821B968C4E90A63C4E90CBAB5
:103E4000C4E90E89DCA800F0BDFFDDE9DE01DDE993
:103E5000DC23C4E90023C4E90201CDE90001DCACA4
:103E600045F049FE9DF87063FF2E0AD00DF59F685E
:103E7000611C45F069FDFF208DF8FC648DF8F804A5
:103E80000EE0E01D1AA946F01FF80A200DF59F6804
:103E90008DF8F80408F101002146B72261F020FDF9
:103EA000DDF860A000F017BCDDE91010702241EAD7
:103EB00000484CA9DCA861F047FC149A1399100241
:103EC00084E8400A40EA1165129840EA01231599F6
:103ED0001393080240EA12624FEA082040EA116890
:103EE0001492C4E905522022C4E903A3C4F81C803B
:103EF000DCAC04F19000C6A961F0F2FC04F12000F2
:103F0000149A8DE8510A294643461398CDF814A017
:103F100025F05AFC199991F80811022940F06382A2
:103F20000DF59F64DCA9E01D45F0CEFF0920214678
:103F30008DF830028CA845F012FFDDF85C90FEF79A
:103F400029BF1794D6A800F10208291D102246F0B7
:103F5000CBFA82A84146841C45F0C6FC0DF50878D2
:103F60002146102246F0C0FA0DF55C7951464246D2
:103F700047F080F99DF87083B8F1FF0F00F07C8264
:103F800099E85E0028465EC0DFF8F80D3BF03CF88B
:103F900046F0A4FA3BF0A0F98CA8DCAE0530711C09
:103FA00045F046FEFF208DF834828DF83002D14670
:103FB0000DF59F68FEF7F1BEE01DDCA945F084FF1A
:103FC000092021468DF830028CA80130B72261F01B
:103FD00087FCFEF7DFBEBDF8FCA49DF8F9945FEA0C
:103FE0008A7042BF95F81C0140F0020085F81C0160
:103FF0005FEA8A5040F176841798C36BD3E902E1F7
:10400000D3E9042341EA030C4EEA020050EA0C0013
:1040100000F05284CDF8F8E4CDF8FC14CDF800257A
:10402000CDF8043500F051BC16F80A00A7F12C01B8
:1040300080F0800006F80A0040462FF015FDDDF8FC
:1040400050A00020DDE9124B102804D018F8001011
:1040500046F02CF8F8E70DF59F680DF59F603146A6
:1040600037F0E3FF0FCE46F083FDBE90C6A800F107
:104070001001BEA843F00AFDDCAE119DDDE90F9CE6
:104080000028DDE90D3E00F0DD8046F099FD40F2AC
:104090000340ADF83402F5E00DF59F68DCA908F1A6
:1040A0000800602208F1680561F04EFB149805F1E4
:1040B0000C0128603022139868601298A86011984B
:1040C000199D81E8510608F188001AA961F008FCE1
:1040D0001598CDF8FC040820FFF7BDB90E20F2E4D6
:1040E000DFF87C0C3AF09CFF1020EAE4DDF860A0D9
:1040F000002800F016820A200DF55C788DF8700318
:1041000046F01BFAD6AE46F0E6F99DF85843FF2C70
:1041100040F0748208F106001AA945F0D5FE0DF5AD
:104120009F620620ADF8F804414602F11200904665
:10413000B622CEE208F107001AA945F0C5FE032019
:10414000BFE20020CDE98400CDE982000DF59F6833
:1041500082A9404603F0E8FD9DF8F844FF2C52D1B7
:104160004CA84E4600F1030908F10401102246F064
:104170005BFAD6AC494645F0B7FB0DF59F68314672
:1041800022461796404629F0C5FD9DF8F844FF2CBD
:1041900040F02381DAF80000C10700F06C82DAF801
:1041A0000410000A0DF59F660A0E8DF8F6210A0A22
:1041B00040EA01607C90ADF8F4217CA9304603F020
:1041C000FDFD9DF8F844FF2C40F03584311D484634
:1041D00045F014FEBEAE494645F031FADDF85C907C
:1041E0000DF59F6832464046494629F093FD9DF8FB
:1041F000F844FF2C3FF44AAA08F10101C6A845F093
:1042000017FD00F023BC4CAD08F1010145F081FC25
:10421000C6A84ECD4EC046F058FE00F017BC8CA884
:104220000DF59F61083045F0FFFF8D9605208DF854
:104230003002FEF7AFBDDDE9C6C90DF59F68DDE9C7
:10424000C8E3DCAE4CA8903015F0010102BF8A46ED
:104250008B460C46159A08BF0A46C0E902A2C0E97F
:10426000004BB022C0E904C9C0E906E308F1070029
:104270004CA961F035FB082041468DF830028CA82E
:1042800045F06DFDDDF85C90FEF787BD9DF873236A
:104290000F2A00F2BC8106208DF8FD040320FFF7F1
:1042A0007BB9B8684C1C0090DCAADDF85CB00DF15D
:1042B0006808214640465B46FDF7B6FE9DF86860FB
:1042C000DDF860A0FF2E00F0E9810DF59F6246F059
:1042D00058FF45F0ADFC8DF8FC64FF20E8E1DDF807
:1042E0005CB009218DF870130DF55C78DD9046F017
:1042F00024F94CAE46F0EFF89DF83041DDF860A0AF
:10430000FF2C00F0D8810DF59F68711C45F01CFB57
:104310008DF8FC44FF20DCAE8DF8F804DCE105F1FB
:10432000140C15940DF598792946BCE83D00CE464D
:10433000AEE83D009CF800008EF80000BDF8960045
:10434000ADF80C02DDF8920082900846BAE83C0015
:104350003CC0BAF8002002800BF1D20012228BF888
:10436000D1808BF8D06061F0BBFAB9E83E000BF168
:10437000E4003EC05D4615998BF8F91099F80010DD
:1043800001708298CBF8FA00BDF80C02ABF8FE0081
:10439000DDF860A0DDF85CB00C20FEF7E0BF4CA8B3
:1043A000DCA946F0E6FEDDF89A03022EC690BDF8C1
:1043B0009E03ADF81C0300F0B4844CA905F1D000B5
:1043C00046F0D7FEC698C5F8FA00BDF81C03A5F85C
:1043D000FE000D2085F8F96010E508F10101C6A87E
:1043E00045F026FC30E3DDF85C9009218DF8F814E7
:1043F0000DF59F68CDF8FC04D9F828104346D9F88C
:104400003820BEAE46F067F89DF8F842FF2C00F069
:1044100030828CA8711C45F05CFB8DF83442FEF7AD
:104420008DBC4CA8211DC61C45F009F9C6AC31460F
:1044300045F05AFADDF85C900DF59F66224630464D
:10444000494629F067FC9DF8F8440DF59F68FF2C5C
:1044500000F01D828CA8711C45F03BFBFF208DF8FD
:104460003442C7E308F10800DCA945F0DDFE002076
:10447000CDF8FC0408201BE14CA9484645F0D2FBCE
:1044800009F12004C6A945F01CF9179812228DF8ED
:10449000B303BDF80402ADF8B0039DF806028DF831
:1044A000B20309F145008DF8B4637CA961F018FAF4
:1044B00009F1570079A9092261F012FA58465021F2
:1044C00061F0EBF8199890F80801023838BF022023
:1044D000C0B2022800F0CA82032840F0FB820F20FD
:1044E0000DF59F6846F0D1F8D6AE45F0F4FF9DF883
:1044F0005853FF2D40F0708308F10700DCA945F008
:10450000E3FC072041465DE5052046F0B0FDFF20B5
:104510008DF83002DCAEFEF742BCDCAE0120FFF7C6
:10452000D2BA1AA8D7F8088090301590103014909D
:10453000DF4840F2FF1B4FF0FF398246404637F01C
:10454000D0FB044640460E4637F0CBFBD94D002346
:10455000A0FB0502E1FB0523A4FB0541A6FB0556D4
:104560006D184FF00001464152F1000253F1000076
:1045700024EA0B0341F10001BAEB030379EB0503D5
:1045800079EB060379EB0202D8D3149B0022DDF805
:104590005CB083E80700DA60159BDD9083E80700D4
:1045A0000821DA608DF87013DBF82810DBF838206A
:1045B000D6AEDCAB45F08FFF9DF85843DDF860A028
:1045C000FF2C40F03182B86800210090DCAE1AAABE
:1045D0005B4630464FF00008FDF726FD9DF870431E
:1045E000199DFF2C0AD10DF59F641AA904F108004A
:1045F00045F01AFECDF8FC84A04658E00DF59F6802
:10460000711C45F0A1F9FF208DF8FC4450E085F8BD
:10461000201105F58F7185F81E0105F58C70BDF828
:1046200074339DF87143A5F8223185F8212185F86E
:104630001F4144F01FFD85F809112022DBF82C10E2
:1046400085F808014CA861F04BF9DBF83010DCAEBE
:10465000402245F0F0FA0DF168083146404603F07B
:10466000BBFA9DF86800FF2800F080820A2003242E
:104670008DF81903A4E20524E6E1DCAD98E85E00BC
:1046800028465EC029468CA800F1040C91E85D0024
:104690008CE85D002E46FF20FFF774B90DF59F688A
:1046A000DCA908F1080045F0BFFDCDF8FC44072067
:1046B0008DF8F8040FE008F107001AA945F004FC92
:1046C00005200DF59F628DF8F804501C4146904678
:1046D000B72261F005F9DCAE9DF8F804FF2841D15E
:1046E00008F10400311D90E87C0012207CC1DCAE92
:1046F000199D8DF8700308F10400311D2FF028F981
:104700000C20DBF828108DF8F8044346DBF838203D
:104710004CAC204629F0A3FB46F0D1FA09D046F074
:1047200016F8DFF8540646F053FC45F030FE3AF038
:10473000D3FDDCA9284646F0BCFC1AAC294620462D
:1047400043F024FAFF208DF8F8049DF86800FE2855
:1047500018BFA04698E81F008AE81F000DF29C6D64
:1047600045F01BBA0DF59F69DCA8C822494660F0E8
:10477000EBFF9DF870031228BDD01128D9D195F810
:10478000F910022904D1DFF8E8053AF049FCD0E736
:1047900095F81A0100F00300012802BF95F82001E6
:1047A00000F00300012806D095F8F8E00DF1680B41
:1047B0004FF0020A2FE015910DF59878DDE91661AA
:1047C0004046324629F074FB46F079FA0BD098E85F
:1047D0003E0048463EC0DFF8900546F0F9FB46F043
:1047E00043FD3AF079FD306805F1E00E14900DF1CB
:1047F000680B7068A84613905C46D6E902AC9EE848
:104800006F006FC4514698F8F8E00DF59F68139A51
:104810001498DDF854A0CDF80CC509F1180CCDF8AA
:104820000425CDF800058DF8F9E4CDF808159BE8CE
:104830007B008CE87B000B204B468DF8F804179822
:104840008DF829A58DF828E5816A826B4CAE45F07C
:1048500042FE46F034FA09D046F087FBDFF80C053B
:104860003AF0D2FB46F000FD3AF036FDDDE918A53E
:104870005FE708F10600DCA945F026FB0320ADF850
:1048800030028CA812304146B622FFF7A0BB119C23
:10489000132C40F0A781F01DDCA945F015FB092081
:1048A00031468DF830028CA845F059FAFEF774BAFB
:1048B000FFC5FCFF40420F000020CDF80405CDF8F5
:1048C0000005CDF8FC04CDF8F804DFF898140DF5D8
:1048D0009F602AF014FE28B195F81D0140F00200F7
:1048E00085F81D0195F819010C21A5F822A105F5FF
:1048F0008C7B85F82181032885F8206185F81F913C
:1049000085F81E4108BF0821DDF85C90D9F8380011
:1049100090F8702390F87133881885F81A0105F51E
:104920008F7013B101218BF80010594644F0A2FB9F
:10493000199A82F808010DF59F6082F8091101218A
:1049400003F0D4F89DF8F8A4BAF1FF0F43D19DF815
:104950000865DDF80445BDF80905ADF818033146D2
:104960009DF80B058DF81A032046DDF8FC84DDF870
:10497000009522F025FF45F0E6FC58461A4644F023
:1049800027FCC0B2022848D1CDF8FC940DF55C7923
:10499000CDF8F8840DF59F68BDF8180317994246C5
:1049A000ADF805059DF81A038DF8070548468DF802
:1049B0000465CDF8004529F0ADF99DF870A3BAF172
:1049C000FF0F6DD1DDF85C900DF59F6801208DF82B
:1049D0003002FFF764B99DF808259DF8FB048DF8B7
:1049E0008023DDF804258DF87303BDF8F904DF9208
:1049F000DDF800259DF80B15ADF87103BDF809052C
:104A0000DE92DDF8FC24ADF830018DF83211DD9234
:104A10008DF88313ADF881034FE04046494644F0DA
:104A2000ADFB4FF0050A46E00DF59F68711C44F0A0
:104A30008BFF199DE7E54CAD711C45F06AF8C6A8DF
:104A40004ECD4EC046F041FADDF85C90DCAE8DF8FC
:104A500034428CA8C6A9053013220DF59F6860F07A
:104A60003FFFFF208DF83002FEF797B9199890F8B4
:104A70000901002800F0CE800A200DF59F6845F05E
:104A800004FED6AE45F027FD9DF85853FF2D40F0AB
:104A9000A38008F10600DCA945F016FA0420EEE632
:104AA00099E85E0040465EC0BA483AF0ADFA45F07B
:104AB0006EFC3AF011FCDDF85C90DCA98CA80530A6
:104AC000013113220DF59F6860F00AFF8DF834A2C2
:104AD000FEF7E7BDB9680BF1100000F073F9DBE9F0
:104AE00006010025DBE904238DE803020DF59F6034
:104AF000CDE9034524F02AFEDDF804150DF59F6885
:104B0000DDF8F824DDF8FC34DDF80005CBE902011E
:104B1000CDE900014046CBE9002303F011F89DF8F0
:104B2000F854FF2D6AD182A808F10401C61C44F094
:104B300086FD88AC314644F0D7FE0DF556795146D6
:104B4000224646F097FB9DF85853FF2D40F0808099
:104B500008F10700DCA945F0B7F9022041468DF8BD
:104B600030028CA845F0FBF8FEF7D4BEBEA808F1D1
:104B70000401861C44F063FDD6A83146841C44F031
:104B8000B3FE0DF50279214610225E4645F04CFD3C
:104B90000DF5467B31464A46584629F0BBF89DF84C
:104BA0001843FF2C3DD09BE86E0040466EC069481C
:104BB0003AF02AFA45F0EBFB3AF08EFBDDF85CB0F8
:104BC000C6A90DF59F6808F10500013145F030F8E0
:104BD0008DF8FC44DCAE83E58CA8711C053045F0F3
:104BE00027F846E08CA8DCA9083045F01DFB601CC6
:104BF0008D9005208DF83002FEF7CEB882AE08F118
:104C00000101132245F017F8D6AC3146601C45F07F
:104C10000FF829E0DAF80000D146A0B3D9F8041063
:104C20004EE008F103004CA944F0FCFF0DF59F6431
:104C3000DCA904F1240045F058FB022041468DF820
:104C4000F804601C2322A04660F04AFEFEF707BC71
:104C500099E85E0040465EC04D483AF0D5F945F00F
:104C600096FB3AF039FBD6AC8CA8611C44F031FFBE
:104C7000D146FF20DCAE0DF59F688DF830028DF82F
:104C80003452FEF78AB8BD68314B404CD5F800016C
:104C900040280BD32846002126461C4623F0A2FBC1
:104CA000D5F8000140284AD223463446421C55F824
:104CB0002000C5F80021A0FB0301A0421046E7D860
:104CC0000BF140000BF130020026CDF8FC14C0E9D6
:104CD00000160DF55678C2E900160DF59F63C2E97E
:104CE0000266D9F82810D9F83820C0E902660820F1
:104CF0008DF8F804404629F0B2F89DF858538CA876
:104D0000FF2D03D10830DCA9FFF78DBA053008F17B
:104D1000010164E7194B00E00B4B0120072139F03A
:104D2000ADFA0D4839F0C2FF124A06E01A4A04E013
:104D3000134A02E0094A00E0044A44F00FFC124A18
:104D4000402139F0E1FA00BFAC8706009C870600DD
:104D500040420F00A30000008C8706007C870600FD
:104D60009100000030B90600A50000009C00000082
:104D7000A70000006C8706009E00000010F90600E6
:104D800000F90600A20000000CB706007F3DF1FF0D
:104D90009F000000980000004C870600D0B502AFCD
:104DA00092B0BC688DF81020FF228DF80420CDE968
:104DB00002343A69FB68009201AAFDF7C9FC12B0FF
:104DC000D0BDD4D4F0B503AF2DE9FF07DFF8949040
:104DD00000260D468046EA46CDE90266CDE900662A
:104DE0000F2E1ED8D5F80041402C07D328460021AD
:104DF00023F0F8FAD5F80041412C2AD2304651462A
:104E000010224B4629F02BF902460B4605EB840095
:104E1000C4F140013BF0E8FF2044C5F800010E4416
:104E2000DEE704A89AE81E001EC004AB45F01BF89C
:104E30001FBFA8E80F0008B0BDE80007F0BD084894
:104E40003AF0E2F804A842F02BFB3AF045FA3AF0C7
:104E500091F9054B20464021402239F00FFA00BF5E
:104E6000AD00000054000700FCB60600F0B503AF2B
:104E70004DF804BD856804686DB14268C66804F1E8
:104E80000800531B00EB4211B21A00EB4310520111
:104E900060F0A1FB00E0C668701B206044F010BF0A
:104EA00080B56F4690F81414032918BF80BD00F533
:104EB0008470BDE8804001F057BC80B56F4618B1E2
:104EC000BDE8804044F05AB980BD80B56F46818A04
:104ED000022908BF80BDD0E9003182681846BDE8CC
:104EE000804000F0E3BE80B56F46016939B1D0E97A
:104EF000003182681846BDE8804000F059BD80BD91
:104F000080B56F46D0E90012114308D090F88C109C
:104F1000032904D10830BDE8804001F004BD80BD04
:104F200080B56F46016819B1BDE8804000F0D3BB81
:104F300080BD80B56F46C24312061CBFBDE88040ED
:104F400001F04BBE80BDD4D480B56F46054800212A
:104F5000012201600449425001680029FCD000216F
:104F6000016080BD14710040F4FEFFFF80B56F4604
:104F7000017B052918BF032904D11430BDE8804006
:104F800001F06FB880BD80B56F4690F8441031B124
:104F9000032918BF80BDBDE8804000F0E9BA383071
:104FA000F9E7D4D4D0B502AF0446006820B945F083
:104FB0002CF944F0E4FED0BD04483AF025F841F065
:104FC00057FA3AF089F93AF0D5F800BF3E000000F0
:104FD000D0B502AF0446103024F03FF941F27C0016
:104FE000204440F041F841F288002044BDE8D04020
:104FF00040F03AB880B56F460168012918BF80BDFE
:10500000D0E90110C968BDE88040084780B56F4607
:1050100090F87510032918BF80BDD0E90010C96849
:10502000BDE880400847D0B502AF0446D0E9000192
:10503000084304BF207B032808D0D4E93201084389
:1050400004BF94F8D40003280AD0D0BD207E0628DF
:105050000ED00428F1D104F12000FFF787FFECE720
:1050600094F8E800062808D00428EED1282005E0AE
:1050700004F1200000F0F5FFDFE7182004F1D8016B
:105080000844BDE8D04000F0ECBFB0B502AF044624
:105090000025902D08D06019017D032904BF04303C
:1050A00001F0BEFB1835F4E7B0BDD4D4F0B503AFC2
:1050B0002DE9000F8BB0044690F83C0F032805D073
:1050C00040B904F69800FFF7AEFF03E004F618209D
:1050D00000F0EEF9D4F8A80704F59D6538B994F806
:1050E000BC07042804BF04F5F86001F025FDD4E9ED
:1050F0000C01084301BF94F84400032804F1500058
:1051000000F0C4FED5E90001084307D194F8FC047F
:10511000042804BF94F8A007032801D044F0D5BAAE
:10512000D4F8000738B994F82607042804BF04F51A
:10513000E56000F08AFFD5E93E01D4F8E82500F0EB
:1051400037FCD5E93A01D4F8D82500F0AFFDD5E910
:105150003601D4F8C82500F091FCD5E932A09D496C
:105160000190D4F8B8050968C90540F02E819B4923
:1051700024F0FDFB0646D0E9005B806B06F1400998
:1051800000910138B063484620F0F6FEB5EB000808
:105190006BF10000BAEB0801019971EB000039D303
:1051A0000DF1080B4946584624F05EF9BAEB0800A9
:1051B000069004D0411E02A836F0B3FE60B10DF196
:1051C0001C089BE82E0040462EC0404628F005FDF6
:1051D00010B145F022F8F8E702AD0020D6E9101230
:1051E000891A18BF012196F848201143C9070BD02E
:1051F000316D49B9284649463CF0B6F90298002875
:1052000000F0E0800120E9E7C0071CBF06F12C0098
:105210003CF094F9009904F59D6544F04DFDD5E905
:105220002E01D4F8A82500F089FCD5E92AB06949F7
:105230000190D4F898050968C90540F0C68067490F
:1052400024F095FB0646D0E9005AC06F06F1080924
:1052500000910138F067484620F056FEB5EB000893
:105260006AF10000BBEB0801019971EB000033D338
:105270000DF1080A4946504624F068F8BBEB0800D7
:10528000069004D0411E02A836F04BFE40B145F016
:10529000F4FF404628F0A1FC10B144F0BEFFF8E74F
:1052A00002AD0020D6E90212914202D1327CD2072F
:1052B0000CD006EBC101896941B9284649463CF04A
:1052C0009DF8029800287DD00120EBE7C0071CBFA5
:1052D00006F170003CF032F9009944F0EDFC3D49D4
:1052E00004F59D60D0E926BAD4F888050968C90597
:1052F0006BD13A4924F03BFB0646D0E90058D0F880
:10530000FC0006F1080901910138C6F8FC00484686
:1053100020F040FE2D1A68F10000BBEB05017AEB8E
:10532000000037D30DF1080A4946504624F0EDF845
:10533000BBEB0500069004D0411E02A836F026FE05
:1053400048B145F09AFF404628F0A9FC18B18168A1
:1053500001398160F7E702AD0020D6E902129142DF
:1053600002D1327CD2070FD001EB410106EB810163
:10537000C96949B9284649463CF06AF99DF80800D0
:1053800002281FD00120E8E7C0071CBF06F1F0008B
:105390003CF0D4F8019944F08FFCD4F8701519B1A1
:1053A000D4F87405C9688847D4F8781500293FF403
:1053B000B5AED4F87C05C9680BB0BDE8000FBDE8F8
:1053C000F0400847064839F071FC034839F028FEE0
:1053D00039F0D0FE04ED00E03D00000070A90600A9
:1053E00010B3060080B56F46017B032918BF80BD4E
:1053F0001030BDE8804001F0BEBBD0B502AF04461E
:1054000090F83B0003280FD0042805D005280ED1C2
:10541000D4E91101FFF751FD94F83A00012804BFC7
:10542000D4E9080143F0AAFE002084F83A00D0BD78
:10543000D0B502AF044690F86804032804BF04F511
:105440008260FFF7DAFF94F82701033804281AD89E
:10545000DFE800F003150D10080004F5A07001F05E
:10546000C2FA10E004F5947000F0CAFF0BE004F5F6
:10547000947006E004F5A47000F04AFE03E004F521
:10548000A07000F026FE94F87203042809D00328C7
:1054900018BFD0BD94F8B603032824BF002084F8B9
:1054A000B50304F5547207CABDE8D04000F0E6BA6F
:1054B000D0B502AF044690F8B602042805D00528FE
:1054C0000DD104F52E7001F063FA94F8B50218B10D
:1054D00004F5E07000F04CF9002084F8B50294F86F
:1054E000BA03042804BF04F5707000F01CFE2046C7
:1054F000BDE8D040FFF797BD80B56F46C0B2BDE8AC
:1055000080405DF0B7B8D4D4F0B503AF4DF804BD1A
:105510000A46064645F0A8FA0C461349054606F524
:10552000767040F0B7FF0E4695F85E13B1B10139C1
:1055300085F85E13090604BF95F85C13042905D0AD
:1055400044F00BFD44F01BFC44F0BABB103041F2B8
:105550000131A5F85C133AF0A1FAF1E7034839F0FC
:105560005FFD39F007FE00BFECB50600B500000096
:1055700080B56F46014640684A7A00F5B7601AB1B7
:10558000BDE8804020F057BC097ABDE8804020F09B
:1055900036BC80B56F4680BDB0B502AF456875B109
:1055A00002890068D0E9000123F052FD38B10C46B1
:1055B000D0F84013294445F004FA44F0E0FBB0BDB4
:1055C000F0B503AF4DF8048D044601790068FFF78C
:1055D0009BFF41F290102618215875688D4208D122
:1055E000307AC00705D100214FF0040804200025BF
:1055F0000FE041F29C1004EB000801EB81008D42AA
:1056000008EB800091BFC1F10101691A00254FF03C
:10561000040801F016FB4046294601F012FB316AEE
:1056200011B1706AC9688847B16A11B1F06AC96876
:10563000884704F108005DF8048BBDE8F040FFF7EF
:10564000C7BCB0B502AF88B00446D0E906204369B4
:105650000020009002AD2146284601F07DFE28463C
:10566000FFF75EFC204608B0BDE8B04000F072B81D
:10567000F0B503AF4DF804BD066804460579D6E9D8
:1056800000012A4623F0F5FFD4E902010A69214608
:105690009047304629465DF804BBBDE8F040FFF76F
:1056A00033BFB0B502AF88B00446D0E906204369E5
:1056B000012194F82000CDE9001002AD21462846D2
:1056C00001F04AFE2846FFF72BFC204608B0BDE853
:1056D000B04000F03FB8F0B503AF2DE900078AB045
:1056E000D0F800A0044686680020A0601EB304F134
:1056F0000C000DF1140808F1080190E82C002CC1F1
:1057000094F80490DAE900014A463EF055FA0A6836
:10571000B0F85803013A0A600AF57E71ADF814003A
:1057200068464246069622F031FE019828B1029959
:1057300043F024FD01E094F8049050464946FFF7F9
:10574000E3FEE16800200AB0BDE80007BDE8F040D4
:10575000FFF7B3BBD0B502AF0446D0E90201FFF7B3
:10576000ACFB21792068BDE8D040FFF7CDBED4D492
:1057700080B56F4602C8DFE801F002020206BDE80C
:105780008040FFF75EBFBDE88040FFF78ABFD0B51D
:1057900002AF23F05DFC68B10C4690F86F13002255
:1057A000012980F86F2304BF00F51E703AF076F9E6
:1057B00044F0E5FAD0BD80B56F4600F5B760002132
:1057C000BDE8804020F01BBB80B56F4600F5BD6092
:1057D0000021BDE8804020F012BB80B56F4600F587
:1057E000BA600021BDE8804020F009BB0168426C2E
:1057F0008A429EBF00210160704780B56F46024B10
:1058000010460A4638F03AFD44BD06000168426B76
:105810008A429EBF00210160704780B56F46024BEF
:1058200010460A4638F02AFD44BD0600F0B503AF25
:105830002DE9000F89B0824629480068C0054AD189
:105840008946294944F008FD0546D0E90046406EE6
:1058500045F0A4FC6866584620F03AFB44F069F92C
:1058600032D3E9465946484623F02FFD45F0C0F9AA
:1058700004D0411E684636F054FB40B105AC44F0FC
:10588000C3F844F0E2FC10B144F0C7FCF9E7002093
:105890006C46D5E90212914202D12A7CD2070DD082
:1058A00005EBC101896949B9204659463BF06EFDB7
:1058B0009DF8000002280BD00120EAE7C0071CBFBA
:1058C00005F150003BF030FE43F0F5FD43F04ABED9
:1058D000064839F0EBF9034839F0A2FB39F04AFCED
:1058E00004ED00E03D00000070A9060010B30600C2
:1058F000F0B503AF2DE9000F89B082462848006853
:10590000C00547D18946284944F0A6FC0546D0E9A0
:10591000004B806A05F130080E460138A862404607
:1059200020F00EFB43F04CFE32D3E9464146484698
:1059300023F058FD45F05CF904D0411E684636F06E
:1059400013FB48B143F03DFF204628F091F910B118
:1059500044F073FCF8E756460021D5E90C02801AA2
:1059600018BF012095F838201043C0070AD0E86B13
:1059700040B9404623F04DFD01210028EDD10B48F0
:1059800039F094F9C8071CBF05F11C003BF0D6FDA7
:1059900043F0D0BD034839F043FB39F0EBFB00BFC7
:1059A00004ED00E03D00000070A9060010B3060001
:1059B000F0B503AF2DE9000F89B082462B4800688F
:1059C000C0054ED189462B4944F046FC0546D0E936
:1059D0000046C06C45F0E2FBE864584620F0BEFA91
:1059E00044F0A7F836D3E9465946484623F023FD4C
:1059F00045F0FEF804D0411E684636F0C7FA50B1B3
:105A000005AC44F001F8204628F049F918B1816846
:105A100001398160F7E700206C46D5E90212914216
:105A200002D12A7CD2070FD001EB410105EB8101A5
:105A3000C96949B9204659463BF061FD9DF804000B
:105A4000FF280BD00120E8E7C0071CBF05F140008C
:105A50003BF074FD43F02FFD43F084BD064839F060
:105A600025F9034839F0DCFA39F084FB04ED00E055
:105A70003D00000070A9060010B30600F0B503AFAA
:105A80002DE9000F89B0824628480068C00547D13B
:105A90008946284944F0E0FB0546D0E9004B806D7B
:105AA00005F160080E460138A865404620F064FA0A
:105AB00043F086FD32D3E9464146484623F0E9FCEF
:105AC00045F096F804D0411E684636F02AFA40B1F7
:105AD00043F077FE44F0B9FB10B144F09EFBF9E7C8
:105AE00056460020D5E91812891A18BF012195F8E9
:105AF00068201143C9070BD0296F49B940463BF0D4
:105B000057FDC1B201200229ECD10B4839F0CEF883
:105B1000C0071CBF05F14C003BF010FD43F00ABD6F
:105B2000034839F07DFA39F025FB00BF04ED00E0B1
:105B30003D00000070A9060010B30600F0B503AFE9
:105B40002DE9000F89B0824624480068C0053FD186
:105B50008946244944F080FB43F0DFFF43F030FDE9
:105B600031D3E9464146484623F093FC45F040F8DE
:105B700004D0411E684636F0D4F940B143F021FE0E
:105B800044F063FB10B144F048FBF9E756460020AF
:105B90006C46D5E91412891A18BF012195F85820CE
:105BA0001143C90709D0296E39B9204641463BF057
:105BB0002BFD009848B10120EBE7C0071CBF05F1A1
:105BC00034003BF0B1FC43F0B5BC074839F06EF847
:105BD000034839F025FA39F0CDFA00BF04ED00E0B2
:105BE0003D00000070A9060010B30600F0B503AF39
:105BF0002DE9000F89B0824628480068C00548D1C9
:105C00008946284944F028FB0546D0E90046C06F84
:105C100045F0C4FAE867584620F05AF943F089FF86
:105C200030D3E9465946484623F048FC44F0E0FFAB
:105C300004D0411E684636F074F940B105AC43F01B
:105C4000E3FE44F002FB10B144F0E7FAF9E700206C
:105C50006C46D5E90212914202D12A7CD2070BD0C0
:105C600005EBC101896939B92046594623F03BFC4F
:105C7000009858B10120ECE7C0071CBF05F168008F
:105C80003BF052FC43F017FC43F06CBC064839F083
:105C90000DF8034839F0C4F939F06CFA04ED00E06E
:105CA0003D00000070A9060010B30600F0B503AF78
:105CB0002DE9000F89B0824625480068C00541D112
:105CC0008946254944F0C8FA43F027FF43F078FCA1
:105CD00033D3E9464146484623F030FC44F088FF80
:105CE00004D0411E684636F01CF940B143F069FD0E
:105CF00044F0ABFA10B144F090FAF9E756460020B0
:105D00006C46D5E91412891A18BF012195F858205C
:105D10001143C9070BD0296E49B9204641463BF0D3
:105D2000B9FC9DF80000FF2809D00120E9E7C00771
:105D30001CBF05F13C003BF001FC43F0FBBB0748F6
:105D400038F0B4FF034839F06BF939F013FA00BFAB
:105D500004ED00E03D00000070A9060010B306004D
:105D600080B56F4609490968C9050AD1094923F078
:105D7000FEFDD0F8F020013AC0F8F02043F09CFF7F
:105D800080BD034839F04CF939F0F4F904ED00E036
:105D90003D00000060A9060080B56F46094909680A
:105DA000C9050AD1094923F0E2FDD0F80021013AE2
:105DB000C0F8002143F080FF80BD034839F030F97E
:105DC00039F0D8F904ED00E03D00000060A90600BC
:105DD00080B56F4608490968C90508D1084923F00C
:105DE000C6FD026C013A026443F066FF80BD0348C1
:105DF00039F016F939F0BEF904ED00E03D0000007D
:105E000060A9060080B56F4690F88810032918BF76
:105E100080BD2C30BDE8804000F081BE80B56F466B
:105E200090F8C910032918BF80BDBDE8804000F07C
:105E300018B980B56F4690F8C810032918BF80BD07
:105E4000BDE8804000F00DB980B56F4690F8C210F3
:105E5000032918BF80BDBDE8804000F002B980B5BD
:105E60006F4690F8C110032918BF80BDBDE880407F
:105E700000F0F7B880B56F4690F89913032918BF62
:105E800080BD4830BDE8804000F0E2BD80B56F467F
:105E900090F89414032918BF80BD2030BDE88040DD
:105EA00000F0B4B880B56F4690F8EC10032918BF25
:105EB00080BD1830BDE8804000F00CB880B56F465A
:105EC00090F8F810032918BF80BD2430BDE8804049
:105ED00000F000B880B56F4690F84410032908D050
:105EE000042918BF052909D14830BDE8804000F0D9
:105EF00016BE4830BDE88040FFF784BF80BD80B546
:105F00006F4690F8A610032918BF80BD1C30BDE86D
:105F1000804000F00CB880B56F46817F03390129BD
:105F200088BF80BD2430BDE8804000F000B8D0B507
:105F300002AF044690F82700042818BFD0BD04F132
:105F40003C0000F006FDE06A228ED0E90001BDE8C9
:105F5000D040FFF71CBC80B56F46417C042918BFB8
:105F600080BD4068BDE88040FFF71CB8D0B502AFE7
:105F7000044690F83500032809D0042803D00528EA
:105F800018BFD0BD03E004F1380000F06DFC002024
:105F900084F83400D0BDD0B502AF044690F8350087
:105FA000032804D0042807D0052818BFD0BD04F169
:105FB000380000F009F803E004F1380000F054FC68
:105FC000002084F83400D0BD80B56F4690F85010A2
:105FD000063907290AD8DFE801F00A0F0904091475
:105FE00009045430BDE8804000F03DB980BD543014
:105FF000BDE88040FFF762BF5430BDE8804000F04C
:1060000020B95430BDE8804000F04FBC80B56F46E9
:1060100090F87810042907D0052918BF80BD7C307E
:10602000BDE8804000F0CABD8030BDE8804000F08F
:106030005DB980B56F4690F82210052918BF80BD64
:106040002C30BDE8804000F0C0BB80B56F4690F8B2
:106050002010042918BF80BD2430BDE8804000F026
:1060600084BC80B56F4690F87C10032918BF80BDB2
:10607000BDE88040FFF7E9BF80B56F4690F8FC109F
:10608000032918BF80BD1030BDE8804000F00BB878
:1060900080B56F4690F8E010032918BF80BDBDE8B9
:1060A000804000F00BB880B56F4690F8DE100329F1
:1060B00018BF80BDBDE8804000F074BD80B56F465C
:1060C00090F8D610032918BF80BDBDE8804000F0CD
:1060D00069BD80B56F4690F82010032907D00429C8
:1060E00018BF80BD2830BDE8804000F088BC383043
:1060F000BDE88040FFF7C0BF80B56F4690F8C01084
:10610000032918BF80BD1030BDE8804000F03EBDBF
:1061100080B56F4690F8E210032918BF80BDBDE836
:10612000804000F054BC80B56F4690F834100329CD
:1061300018BF80BD3830BDE88040FFF77ABFD0B5CA
:1061400002AF0446007A032804D0042804D1606812
:10615000FFF706FE00206072D0BDD0B502AF044646
:10616000807C032804D0042804D12068FFF714FEA3
:106170000020E074D0BDD0B502AF0446C07A032839
:1061800004D0042804D12068FFF706FE0020207305
:10619000D0BDD0B502AF0446C079032804D004288E
:1061A00004D12068FFF714FE0020A071D0BDD0B547
:1061B00002AF0446407A011F022903D220683EF054
:1061C0005FFF02E0032818BFD0BD00202072D0BDC1
:1061D000D0B502AF044690F80D01011F022904D288
:1061E000D4F808013EF04CFF01E0032802D1002062
:1061F00084F80C01D0BDD4D4D0B502AF04464FF41E
:106200008F50205C033803281AD8DFE800F002140E
:10621000090F41F2E8102044BDE8D04000F0FABB7D
:1062200041F2E8102044FFF77EFF04E041F2E8105D
:106230002044FFF7FDF82046BDE8D040FFF7C0B985
:10624000D0BD80B56F46017C032907D0042918BF53
:1062500080BD1830BDE8804000F061BC1430BDE85E
:10626000804000F000B880B56F46017C042918BF5B
:1062700080BD1830BDE8804000F051BC80B56F464D
:10628000017F042918BF80BD2030BDE8804000F0A8
:106290000CB880B56F4690F85810032918BF80BD20
:1062A0000430BDE8804000F02EBC80B56F4690F809
:1062B0005C10032918BF80BD0830BDE8804000F0A5
:1062C00022BCD0B502AF044690F85C00011F04293F
:1062D00006D3032818BFD0BD04F16000FFF73BFED2
:1062E000E06B4068BDE8D040FFF765BA80B56F4607
:1062F000017C0339052909D8DFE801F0030E0809FC
:1063000010151830BDE8804000F028B880BD183066
:10631000BDE8804000F02DB8203000E03030BDE80E
:10632000804000F005B81830BDE8804000F09EBB0A
:1063300080B56F4690F84613032918BF80BDBDE8AD
:10634000804000F085BB80B56F4690F83E1303296E
:1063500018BF80BDBDE8804000F07ABB80B56F46B5
:1063600090F84013032918BF80BDBDE8804000F0BD
:106370006FBB80B56F4690F84813032918BF80BDE6
:106380000830BDE8804000F063BB80B56F4690F8F0
:106390004513032918BF80BDBDE8804000F058BBFD
:1063A00080B56F4690F84413032918BF80BD0830AC
:1063B000BDE8804000F04CBBD0B502AF044690F879
:1063C0009703032804D144F097FF002084F8960334
:1063D000D0BD80B56F46017E032918BF80BD1C303B
:1063E000BDE8804000F074BA80B56F4690F8241084
:1063F000032938BF80BD2830BDE88040FFF79FBE2D
:10640000B0B502AF90F8D020062A0ED80446082076
:1064100004212546DFE802F02B0909040E0A0400D6
:1064200004F1D80000F02CF804E0B0BD04F1D8006D
:10643000FFF7DAFF04F1C00207CAFFF71FFB04F100
:10644000B00207CAFFF754FA04F1A00207CAFFF727
:10645000EDF904F1900207CAFFF770FB04F1800226
:1064600007CAFFF7C3FB04F1400548204421225826
:10647000204443686058816A2868BDE8B0400847F6
:1064800080B56F4690F8F410032918BF80BD0C301A
:10649000BDE8804000F013BB80B56F46017C032946
:1064A0000ED0042907D0052918BF80BD1830BDE8DB
:1064B000804000F00AB81830BDE8804000F0A5B870
:1064C0002030BDE8804000F0C7B880B56F4690F836
:1064D0002810032907D0042918BF80BD3030BDE83B
:1064E000804000F092B83030BDE8804000F0B4B891
:1064F00080B56F4690F849100339072988BF80BDE1
:10650000DFE801F00D0408120408060650300CE024
:10651000503005E05030BDE88040FFF7D6BF603016
:10652000BDE8804000F098B85830BDE8804000F0E9
:106530006CB8D4D4D0B502AF044690F80701033844
:10654000082820D8DFE800F0050B050B1008080527
:106550001A0004F58C7009E004F5887001E004F578
:106560008C7000F052F803E004F5887000F074F8C5
:1065700004F16000BDE8D040FFF738B904F58C7035
:1065800000F050F8F4E7D0BD80B56F46017C0329D8
:1065900007D0042918BF80BD1830BDE8804000F046
:1065A00005B81830BDE8804000F023B880B56F46CC
:1065B00090F830100339052988BF80BDDFE801F06D
:1065C0000A030F030514403000E03830BDE8804076
:1065D00000F028B83830BDE88040FFF7ABBF383056
:1065E000BDE88040FFF784BF4030BDE8804000F048
:1065F00033B880B56F4690F8DF13032918BF80BD0C
:106600004830BDE88040FFF7D1BF80B56F46017CC0
:10661000052918BF032904D11830BDE8804000F0D7
:106620001BB880BD80B56F4690F8231003290ED0AB
:10663000042907D0052918BF80BD2830BDE8804057
:10664000FFF756BF2830BDE88040FFF7DEBF30308F
:10665000BDE8804000F000B880B56F46017C03299A
:1066600018BF80BD1830BDE88040FFF784BDD4D48A
:1066700080B56F4690F880100439062988BF80BD28
:10668000DFE801F00404040404090E008830BDE8CA
:106690008040FFF758BE8830BDE8804000F005B864
:1066A0008830BDE8804000F00CB880B56F4690F8A7
:1066B0002C14032918BF80BD7830BDE8804000F05D
:1066C000C7B9D0B502AF044690F8CE03032806D16F
:1066D00004F1080000F0BCF9002084F8CD03D0BD1F
:1066E00080B56F46C0B2032818BF80BDBDE88040AA
:1066F000FEF72ABCD0B502AF044690F8200004286B
:1067000006D1E0690078FEF7F7FE002084F8220049
:10671000D0BD80B56F4690F84010032918BF80BDEA
:106720000C30BDE88040FFF7E5BF80B56F4690F8BC
:106730004410032918BF80BD1030BDE88040FFF72A
:10674000D9BFD4D480B56F46017E0339C9B20829B8
:1067500088BF80BD034A52F821100844BDE880403C
:10676000FEF79EBBB404070080B56F4690F8001397
:10677000032918BF80BD00F58470BDE88040FFF795
:106780000ABC80B56F4690F8D811032918BF80BDA8
:106790000C30BDE88040FFF7E9BB80B56F46017B58
:1067A000042918BF80BD8068BDE88040FEF7FABBB1
:1067B00080B56F4690F8A810032998BF80BDD0F827
:1067C0009000BDE88040FEF7EDBB80B56F4690F8C5
:1067D000B210032918BF80BD0830BDE88040FFF724
:1067E0008EBBD4D480B56F46817C0E390B2911D86D
:1067F000DFE801F00610101110101010060B100B3E
:106800001830BDE88040FFF7D3BF1430BDE88040AA
:10681000FFF7C3BF80BD1430BDE88040FFF77BBBEE
:1068200080B56F46017B032918BF80BD0430BDE8E9
:10683000804000F083B8D0B502AF044690F8310034
:10684000052809D006280ED104F1480000F081F88F
:10685000A06BA28F42F03DFFD4E9000142F08EFC14
:10686000002084F83000D0BD80B56F4690F82C1021
:106870000339052918D8DFE801F00317170D0812AE
:106880003030BDE88040FFF7F9BC3030BDE88040D3
:10689000FFF7E9BC3030BDE88040FFF706BD30307F
:1068A000BDE8804000F001B880BD80B56F4690F82B
:1068B0006010052907D0062918BF80BD6430BDE8E7
:1068C0008040FFF7F2BC7430BDE88040FFF7EABAC1
:1068D000D0B502AF044690F83D00092807D8012141
:1068E000814011F46E7F03D0002084F83C00D0BDBD
:1068F0000628FCD104F14000FFF7B6FFF4E780B5AD
:106900006F4690F82D1041B1032918BF80BDD0E922
:106910000601BDE88040FEF7D0BAD0E90001BDE82D
:10692000804042F02BBC80B56F46017A052918BF24
:1069300080BD1030BDE88040FEF754BD80B56F4685
:106940004179032918BF80BD0430BDE8804038F08C
:10695000FBBF80B56F4690F82510042918BF80BD95
:106960002830BDE88040FEF717BE80B56F4690F82E
:10697000441039B1032918BF80BD1430BDE88040F0
:10698000FFF7BDBFD0E90101BDE8804042F0F6BB92
:10699000D0B502AF044690F88800032801D028B192
:1069A000D0BD04F14000FFF7E0FF18342046BDE8F9
:1069B000D040FEF790BE80B56F4690F8981003293E
:1069C00018BF80BD5030BDE88040FFF7CEBF80B516
:1069D0006F4690F8CE10032918BF80BD0830BDE87F
:1069E000804000F0DFB880B56F4690F8B011032901
:1069F00018BF80BDE030BDE8804000F0D3B880B55E
:106A00006F4690F8F010032918BF80BDBDE88040A4
:106A1000FFF73EBBD0B502AF044690F8290003282B
:106A200003D0042818BFD0BD03E004F12C00FFF709
:106A30009CFF002084F82800D0BD80B56F4690F8F8
:106A40003011032918BF80BDBDE88040FFF7AFBB00
:106A500080B56F4690F83013032918BF80BD00F54C
:106A60008470BDE88040FFF7B3BBD4D480B56F46D7
:106A7000417B03390C2988BF80BDDFE801F0070C9A
:106A80000707070C0C0C0C071B1116001030BDE893
:106A90008040FFF758BC1030BDE88040FFF780BC55
:106AA0001030BDE88040FFF787BC2030BDE8804053
:106AB000FFF76BBC3030BDE88040FFF7DBB980B535
:106AC0006F4690F8E410032918BF80BD2030BDE860
:106AD0008040FFF711BB80B56F4690F894100329F2
