:1010000008FC03200111000073FD0300E56D0600DC
:1010100073FD030073FD030073FD03000000000077
:1010200000000000000000000000000073FD03004D
:1010300073FD03000000000073FD030073FD030057
:1010400059110000C111000073FD030073FD03007E
:1010500073FD030073FD03007102040045120000DC
:101060009112000073FD030073FD030039120000AC
:1010700073FD0300CD11000073FD030073FD030039
:1010800073FD03004903040073FD030073FD0300B7
:10109000AD11000073FD030073FD030073FD030039
:1010A00073FD030073FD030073FD030073FD030074
:1010B00073FD030073FD030000000000000000004A
:1010C00073FD030073FD030073FD030073FD030054
:1010D00073FD030073FD030073FD03009D12000008
:1010E00073FD030073FD030073FD030000000000A7
:1010F0000000000073FD03000000000073FD03000A
:101100003EF03AFE0E480F490022814201D004C051
:10111000FBE70D480D490E4A814202D008CA08C0BB
:10112000FAE70C484FF47001026842EA01020260DB
:10113000BFF34F8FBFF36F8F3BF06DFE00DE0000FB
:101140008022002040240120080000207C22002072
:101150000028070088ED00E0B0B502AF5FF08EFC1C
:10116000104C206828B1002020600F481C303FF050
:101170009DFB606850B10C4D0020606005F11C00C3
:101180003FF094FB05F134003FF090FBA06838B1CC
:101190000020A06004483430BDE8B0403FF086BB7A
:1011A000B0BD00BF1C010040E00E012080B56F46BD
:1011B0000248BDE880403FF079BB00BF28F700201F
:1011C00080B56F46BDE8804060F0EABFF0B503AF80
:1011D0004DF804BD154E0020306040F0A3FB144DC7
:1011E0000446A869F0B94FF0FF30A861686A78B189
:1011F000A96A88420CD0D6F808140170D5E9090113
:1012000001306862884204BF05F11C003FF022FBF8
:10121000A8690130A86120465DF804BBBDE8F04034
:1012200040F0B6BB03483EF027FC00BF00D10040B1
:101230005C0F012028E5060080B56F46BDE88040C0
:1012400061F04ABED0B502AF0F4C206930B110201A
:10125000C4F808020D482C303FF028FB606830B11C
:101260000220C4F8080209482C303FF01FFB206818
:1012700040B10120C4F8080204482C30BDE8D04039
:101280003FF014BBD0BD00BF00710040E00E012054
:1012900080B56F46BDE8804060F076BFF0B503AF23
:1012A0004DF8048D84B0344C206858B1334D012082
:1012B000C4F8080205F11C003FF0F8FA05F124001B
:1012C0003FF0F4FAE06D38B14FF40000C4F80802C2
:1012D0002A4824303FF0EAFAA06A38B14FF480601F
:1012E000C4F80802254824303FF0E0FAA06D28B188
:1012F0000020A06521481C303FF0D8FA206EB8B31A
:1013000000202066D4F86C631C48C4F86C63BFF3FB
:101310005F8F50E8051F314340E80512002AF8D1DD
:101320000020BFF35F8F8DF80C0007200DF104083B
:10133000029001200190404635F0C6F8012817D1EF
:1013400001F01F040D4626FA04F0C00704D0284619
:101350002DF012F93FF0AAFA84F0100026FA00F0FE
:10136000C007E8D028462DF05BF93FF09FFAE2E78E
:1013700004B049F053BC00BF00710240E00E0120F0
:10138000F0B503AF2DE90007ADF5846D044690F884
:1013900014040D4620B1032817D01F483EF013FC5B
:1013A000E846214640464FF4847265F0C9F8D4F807
:1013B000101442AE4246304626F048FE04F58470D2
:1013C00031464FF4427265F0BBF804F58478A7F11A
:1013D00024002A4641461BF0E7FB57F8246CB51C55
:1013E00001D103200FE0404657E908A905F0CEF9E6
:1013F000701C07D0A7F1240047E9096A47F81C9C34
:1014000005F0EAFC012084F81404B5FA85F04009DF
:101410000DF5846D4AF023B8E8930600F0B503AFEC
:101420002DE9000F95B0D0E90149834608468A4668
:10143000A4EB090548F0D4F8854201D200200BE264
:101440005046DBF8005048F0CBF8DFF81C142A4671
:10145000009100EB0901484623462DF09FF89AF8C9
:101460000020FF2A1FD19AF80420FF2A3ED14AF01B
:10147000F8FDBAF8080001280AA814BF1B211D2195
:1014800045F088FEC0B2022840F0DD81BAF80A10AB
:101490000AA845F09FFEC0B2022840F0D481DAE9E4
:1014A00003120AA84EE1B2F10A044FF0000398BFFC
:1014B0001C46002C35D0012C48D14AF0D2FD0AA898
:1014C000522145F067FEC0B2022840F0BC81BAF854
:1014D0000C100AA845F07EFEC0B2022840F0B3818D
:1014E000DAE901120AA846F07FFF35E0CDE90301F1
:1014F00000200590DFE812F00900C5005E00A200A0
:101500003200EF001B01C200290103A8032145F0AE
:1015100041FEC0B2022840F09681BAF8061003A836
:101520008BE10AAC0A2A0BC400F29981DFE812F0C1
:101530000B00150132013501690147017301970163
:101540009701970112010AA8102108E14AF089FDCC
:101550000AA81E2145F01EFEC0B274E103A80921AD
:1015600045F018FEC0B2022840F06D81DAF8144050
:1015700003A8214645F00EFEC0B2022840F0638168
:101580000AF10802139449F045FF0AA8294647F0DA
:10159000C1FE9DF82800FF2840F0548149F081FEEB
:1015A000C0B2022840F04F814AF066FBC0B2022868
:1015B000EBD048E103A8052145F0ECFDC0B20228BC
:1015C00040F041819AF8144003A8214645F0E2FD1D
:1015D000C0B2022840F037810AF108028DF8244099
:1015E0000DF1400807CA06AB07C30AA804300290F1
:1015F00003AC0AA806A947F0E3FEBDF828000028BE
:1016000040F02081029AA446BDF82A10404678CACC
:1016100078C0644612780270604645F0DBFDC0B2C7
:10162000022840F01081404645F084FD49F087FAD9
:1016300046F0DAFEC0B20228DBD004E103A80121A3
:1016400045F0A8FDC0B2022840F0FD809AF80510D0
:1016500003A845F09FFDC0B2022840F0F480BAF81C
:10166000081003A845F0B6FDC0B2022840F0EB8098
:101670009AF8061003A845F03DFDE0E003A80D210F
:1016800057E003A8072145F085FDC0B2022840F0CD
:10169000DA800AF108020DF1280849F0BBFE404645
:1016A000294647F08FFB9DF82800FF2840F0CA80AC
:1016B000BDF82A103046BDF82C4045F08BFDC0B275
:1016C000022840F0C0803046214645F083FDC0B27C
:1016D0000228E4D0B7E003A8112145F05BFDC0B2B9
:1016E000022840F0B080DAF8144003A8214645F003
:1016F00051FDC0B2022840F0A6800AF108021394FE
:1017000049F088FE0AA8294647F004FE9DF8280003
:10171000FF2840F0978049F0C4FDC0B2022840F095
:1017200092804AF0A9FAC0B20228EBD08BE003A85D
:101730000B2145F02FFDC0B2022840F08480DAE989
:10174000021203A846F050FE79E003A8132145F0E9
:1017500021FD74E00AA80C215FE00AA8082145F0E9
:1017600019FDC0B202286ED1BAF812100AA845F0CD
:1017700031FDC0B2022866D1BAF814100AA845F0AB
:1017800029FDC0B202285ED10AF101010AA847F082
:1017900043FB54E00AA80A2135E00AA8122145F0CB
:1017A000F9FCC0B202284ED1BAF802100AA845F0DE
:1017B00011FDC0B2022846D1DAE9011271E60AA889
:1017C000062145F0E7FCC0B202283CD1BAF802106D
:1017D0000AA845F0FFFCC0B2022834D1BAF80410C0
:1017E0000AA845F0F7FCC0B202282CD1BAF80610BE
:1017F0000AA845F0EFFCC0B2022824D1DAE90212AF
:101800004FE60AA8022145F0C5FCC0B202281AD151
:10181000BAF8021010E00AA8042145F0BBFCC0B2DF
:10182000022810D1BAF802100AA845F0D3FCC0B2C1
:10183000022808D1BAF804100AA845F0CBFCC0B2BF
:10184000022800D10220022806D1504647F0C8FEE7
:101850004844CBF80800022015B049F097B9034876
:101860000F21034A3DF025FC58050700440E0700F0
:10187000640E0700F0B503AF4DF804BD84B0044614
:10188000D0E901300D46191A04290CD32268061D2F
:10189000084948F03CFFCDE9020102A8294604228C
:1018A0002CF088FE08B1002001E00220A66049F07B
:1018B00054B900BF5895060080B56F4600210173EA
:1018C00001490131016080BDE00E012080B56F4605
:1018D00045F2E812815010440021C17380BDD4D478
:1018E000E0B502AF1F490446002040F20112B0F5F6
:1018F000524F2FD00D1800F5524005F1180353E850
:10190000006F26B943E80026002EF8D102E0BFF3AD
:101910002F8FECE71448686205F128002146FFF795
:10192000D5FF204629463EF04BFC0025BFF35F8FD4
:1019300054E8000F44E800510029F9D1BFF35F8F4C
:1019400030B1C669C5614576416A88473046F7E7D8
:1019500020BFEBE705487A1E00902B210448054B79
:101960003EF0D9F8E82200203D7D0200C0A3060029
:10197000A106070058BE0600F0B503AF2DE9000B25
:1019800094B00446F8680DF13C0849F098FC9DF8C5
:101990003C00FF2803D040F6032020801DE0A7F183
:1019A0004E0008F10401851C48F0A9FE02A8294652
:1019B000861C48F067FD0BAD314648F0A0FE4AF0AA
:1019C00079F92078FF2808D04AF0EFFA04483EF071
:1019D000F7F949F0EAFB3EF05BFB14B049F010B9AF
:1019E000A1000000F0B503AF2DE9000FCDB0FE68F7
:1019F000D7F80880CDE91D2056F870AFD8F844001C
:101A0000C346CDF8AB00C1465BF8410FD6F808E0FD
:101A10002A90D8F83D00129316917268F568D6F8AE
:101A200010C07369B169F469CDF8CB0059F83A0F69
:101A30002192CDF870E01B95CDF868C019932091E4
:101A40001F94329032A88DE8120454460DF1F80A22
:101A5000CDE9032E624605952AA9CDE90610A6F127
:101A60003001504628F046FC22A89AE82E002EC0ED
:101A7000429811904398109044980F9045980E907A
:101A8000306A1890706A179008F14E00D6E90AA5DE
:101A900048F003FA20F07F40CDE90A0B209800902F
:101AA0001F98CDE90104219803901C98CDE908A561
:101AB000049005461B98CDF854B0059083461898BD
:101AC00006901798CDF84C90CDF83090149407906C
:101AD00026A822A91A9A199B9146984628F02EFB0F
:101AE0001D98102804D126A816992EF070FA30B14E
:101AF0001E99FF20087040F6033088805EE0D6E92A
:101B00000C40D7F808A01D90B06B18900AF148005F
:101B1000F66B48F0C2F920F07F400A9013980B90C2
:101B200015980C90209804901F981899CDE90504F9
:101B30001D98CDE90816CDE9005BCDE90298079024
:101B40002AA822A9149A219B28F0F8FADDE92C0191
:101B5000DDE92A23CDE900013EAC204606F0C2F8BB
:101B60009DF8F850FF2D0AD0611C32AC48F0BFFD43
:101B70001E9E214648F0D7FF3571FF201DE00DF174
:101B8000C809211D09F1030548F0B9FD2EAE29460B
:101B900048F078FC129C0DF1F80832464046214688
:101BA0002CF020FE9DF8F850FF2D0AD01E9E08F163
:101BB000010148F0B8FFFF20357130704DB048F09A
:101BC000E8BE9AF8380002239AF84A100DF1F80896
:101BD0009AF85020022801F0030008BF012302F008
:101BE000030180F0010081F0010108430F99009189
:101BF000B0FA80F00E994009CDE901132146DDE9E4
:101C00001032039040462CF020FE9DF82161022EF8
:101C100009D198E86E0048466EC01E9E99E83E00C5
:101C2000301D3EC0A9E732AC3EA9292248F0F9FE9A
:101C3000BDF826012146ADF830012922DDF8220148
:101C40004B903EAD48F02BFF504629464AF079F9BB
:101C50004B981E99CAF82A00BDF83001AAF82E0048
:101C60000A208AF829600870A8E7D4D4102B7DD107
:101C7000F0B503AF2DE9000F9DB009908846F868D4
:101C8000137800F16006D2F80100D2F80540D2F8CE
:101C9000095043EA002C39692B0243EA14632402F9
:101CA00044EA1060D47BB2F80D20C6E900C042EAD5
:101CB0000442120242EA1562C6E9023218A803F091
:101CC00085F806F1300A189806F11003F66B1A9A97
:101CD00008F07F041999DDF86CB0069283E80708D4
:101CE000A4F140020791314608909AE82006504638
:101CF00064F0DCFCCDF81480804628464946224634
:101D000064F0D4FCC4F14002814650463146D7F815
:101D10000CA064F03BFE0AF1200103910699402CCF
:101D2000CDE901BA009138BF49EA00082948002CE2
:101D300008BFA8464AF0FBF80AA8DDE9073228F0F8
:101D400061FADDE90C01DDE90A23CDE9000118ACF7
:101D5000204605F003FF9DF86050FF2D0CD0611C5C
:101D60000FAC48F0C4FC099E21461FE0FF21017022
:101D700040F6032181807047DDF814900FA8C61C3F
:101D8000211D1022D7F8088048F090FE14AD31468E
:101D900048F0B5FC18AC41462A4620462CF022FDFE
:101DA0009DF86050FF2D09D0099E611C48F0BBFED4
:101DB000FF20357130701DB048F0EBBD099C5146D5
:101DC000B02204F1080064F0BBFB0620C4F80490C4
:101DD0002070F0E7C0FFFF7FF0B503AF2DE9000BE7
:101DE00094B00446F8680DF13C0849F068FA9DF893
:101DF0003C00FF2803D040F6032020801DE0A7F11F
:101E00004E0008F10401851C48F079FC02A829461F
:101E1000861C48F037FB0BAD314648F070FC49F0AA
:101E200049FF2078FF2808D04AF0BFF804483DF069
:101E3000C7FF49F0BAF93EF02BF914B048F0E0BE04
:101E4000A0000000F0B503AF2DE9000F9FB082465F
:101E5000880701D411206BE0D56B934605F1080388
:101E60000FCB49F0B5FA11BF8DE80F000020CDE986
:101E70000200CDE9000016AE6946304605F062FF6B
:101E80009DF85840FF2C3DD111A8311D00F10308E9
:101E9000102249F041FA0AAE414648F0F3FA0DF13A
:101EA0005809594632464AF0E1F89DF85840FF2C4F
:101EB0002FD12868C10740D06968000A0A0E8DF842
:101EC0003E200A0A40EA0160ADF83C200E9016AEB2
:101ED0000EA9304605F080FF9DF85840FF2C11D127
:101EE000311D404648F08FFE1BAE414648F0CAFA0D
:101EF00005A8594632462CF075FC9DF81440FF2C7D
:101F0000A8D00CE011AD711C48F0FFFC05A82946D3
:101F100002E005A809F10101013048F085FD05A99D
:101F20000AF10500013148F07FFDFF208AF80440E6
:101F30008AF800001FB048F02CBD0524EFE7F0B58B
:101F400003AF2DE9000F8BB0044602A80E46002116
:101F5000924605F0D9FD9DF80800FF281DD09DF898
:101F60000B10E170BDF809109DF81B20DDE903C5D9
:101F7000A4F80110BDF81910059E9DF81830ADF8B1
:101F80001C108DF81E202374C4E901C5E660A4F876
:101F90001110E274207048F0A6BB9DF818B0059DA2
:101FA000BDF81900ADF8040059469DF81B008DF8E6
:101FB00006002846DDE9038926F062F902460B4651
:101FC00006F1480011461A4648F020F8C0B202282F
:101FD0001CD1BDF804005146ADF829009DF806005B
:101FE0008DF828B00995CDE907898DF82B0002AD51
:101FF00007AA28462CF0F6FB9DF80860FF2E10D0AB
:10200000601C691C48F010FD2670C4E70520494695
:10201000207040460BB0BDE8000FBDE8F04047F02F
:10202000CBBFFF20B6E7D4D4F0B503AF2DE9000F46
:102030009FB00D46B968069314460B901AA802F09B
:10204000C5FE1A9804F170061C9A05F07F0504F18C
:10205000900B1B991D9B0FC60892A5F140020A9098
:102060009BE8400E504609915946079364F01EFBC9
:102070008046304649462A4664F018FBC5F14002C6
:1020800081465046594664F081FC04F12001402D00
:10209000CDE90241079901910899009138BF49EAB9
:1020A00000082448002D08BFB04649F040FF0CA8A6
:1020B000DDE9093228F0A6F8DDE90E01DDE90C239F
:1020C000CDE900011AAC204605F048FD9DF86850A6
:1020D000FF2D0BD0611C11AC48F009FB0B9E214673
:1020E0001322701C64F0F8FA35701FE0DDF82C80C4
:1020F00011A8C51C211D48F002FB16AE294648F068
:10210000C1F91AAC0699324620462CF06BFB9DF8BB
:102110006850FF2D07D008F10100611C48F084FCD5
:1021200088F8005002E0FF2088F800001FB048F057
:1021300030BC00BFC0FFFF7FF0B503AF2DE9000F3B
:10214000B5B016461D46CDE91210B046D6F83D0092
:102150000DF1A00C55F8702FCDF8A30058F83A0FE8
:10216000289056F8410FD5F808906B68D5F80CA068
:10217000D5F810E0D5F814B0AC69E9692C90D6F820
:10218000030014921593CDF86C90CDF868A0CDF8AB
:1021900064E0CDF860B017941691CDF8B3002CA888
:1021A0008DE800460DF18009CDE9051CA5F130014F
:1021B00007904846CDE903B428F09CF81CA899E89C
:1021C0001E0005F1300B1EC0249811902598109028
:1021D00026980F9027980E90F01D9BE8100AD5F8CE
:1021E0003CA047F05AFE20F07F40CDE90A08DDE927
:1021F0001A10CDE908BA0C96CDE9000119980290A1
:102200001898039017980490169805A981E8110270
:1022100028A81CA9DDE9142327F090FFDDE9282375
:102220000DF18009DDE92A01CDE90001484605F0FC
:1022300059FD9DF88060FF2E0ED02CAC09F10101F4
:1022400048F055FA139D21461322681D64F044FAA4
:10225000FF202E71287051E0DDF84C802CA8C61CA0
:1022600009F1040148F00EF931AC314648F043FA67
:102270000DF180091299224649F0F8FE9DF8804040
:10228000FF2C0BD008F1050009F1010148F0CCFB4F
:10229000FF2088F8044088F800002FE005F1200BAB
:1022A000464608F11804ED6A9BE8000D09F10700A5
:1022B0001CA948F0A8FC0B20494606F8010B172280
:1022C00048F0F4FB199804F12C0120621898606220
:1022D0001798A0621698E56381E8010D11982060B7
:1022E000109860600F98A0600E98E06014982061CC
:1022F000159860611B98A0611A98E06135B048F0AC
:1023000048BBD4D4F0B503AF2DE9000F8BB0044621
:102310000220ADF80A0001208DF808001E462C4866
:1023200088468DF80920039007A847F0FBFD079D1C
:10233000EDB3DDE9089BFB20D7F808A0CDE904B098
:102340000020069004A803A9FFF794FAC0B202285F
:102350001CD104A802A9FFF78DFAC0B2022815D13A
:10236000DDE90530191A02290ED3049A19490091A2
:10237000811C01912CF012F9CDE9070107A8314623
:1023800002222CF017F9B0B1042004E0C0074FF08E
:10239000040018BF0D2001212070617028464946B5
:1023A0000BB0BDE8000FBDE8F04047F005BE1620B9
:1023B000207048F098B9019851460A9007A880E823
:1023C000200A07AB2046424627F078FAF1E700BF23
:1023D0000600050058950600DCB504AF10CBB831F7
:1023E000009440F0C3F8DCBD91F8673301F5147236
:1023F000012B12BF91F8561202F58C720121A0B187
:10240000D0B502AF9388B0F8154112686340D0F898
:10241000114162401A4390F817315940C90718BF5B
:102420000020002A18BF0020D0BD00207047D4D45F
:10243000F0B503AF2DE9000794B002AD88468146A0
:10244000482148F0FAFDD8F80C404826334B29467D
:10245000482C38BF2646304648222CF0ACF90546B9
:10246000D8F808008A46214629F0F2FD8E4251D85C
:1024700003462B4800901A4628465146334647F0FB
:10248000FAFD022C09D22D483DF09AFC30463DF071
:1024900089FC3DF0FDFD0A2019E09DF80800441E6E
:1024A000E5B20E2D12D22046A6F1010A26F058F907
:1024B00080B282451BD109F1010002A9482264F0D3
:1024C0000BF9C9F84C6089F8004008E0072089F84A
:1024D0000500032089F80400FF2089F80000D8E9EE
:1024E000000147F069FD14B0BDE80007F0BD0D48DC
:1024F0003DF066FC0C480D4CA0470D48A0470D4828
:102500000D4950F8250051F825103BF0A5FB00209F
:10251000A047BEE70A4B0A4649F0D9F9A89606003B
:10252000C896060096000000110000007FFD030021
:10253000C00100008C13070054130700970000002F
:10254000B8960600F0B503AF2DE9000F95B01C78E2
:102550008046FF2C15D045481D4616468A4693F8FE
:1025600001B03DF02DFC42483DF009FC284645F005
:1025700095FD032C18BF4FF0080B3DF089FD192C79
:1025800005D1FF2088F8000015B048F002BAB6F86F
:1025900058430FA847F0C6FC0F98002847D0A7F172
:1025A00043000094C51C0FA90C2248F078FAA7F14B
:1025B00052002946C61C0C2248F078FA12AD31466A
:1025C0000C2248F06CFA02A82946042225F06AFE83
:1025D0009DF80800DDE903549DF81860FF28DDF838
:1025E000149025D14846314625F04AFED9B380F8EB
:1025F00000B0304625F03DFECDE904904046CDE9DF
:10260000025402AD009A51462B4627F057F998F82C
:102610000000FF28B5D098E85E0028465EC0154847
:102620003DF0CEFB48F075FE3DF032FDACE71620E4
:102630009DF80B1088F80310BDF809109DF81B20B9
:10264000A8F80110BDF81910ADF804108DF8062097
:1026500088F81060C8E90154C8F80C90A8F8111067
:1026600088F813208EE7044A47F096FE8F0000009A
:10267000AC01000094000000E8960600F0B503AF3E
:102680002DE9000F95B00DF12C08CDE9012008F1DE
:10269000080000240E22039464F01EF8A7F12A0615
:1026A0001C4D06F10109A7F1230A0DF10C0B18E0EE
:1026B000D1F80920B1F80D10A9F80410294607F83F
:1026C0002A0C3046C9F800203AF092FB40B150463F
:1026D0005946324627F0E0FA17F8230CFF2807D1B5
:1026E00007340E2C1EBF08EB0401087AFF28DFD147
:1026F00003A9029C47F0F4FE0199002084F827000A
:102700000868D1F803102062C4F8231015B0BDE8A2
:10271000000FF0BD4C970600F0B503AF4DF8048DE7
:1027200092B00DF104080D4606461146404644227B
:102730001C4664F04BF8B868294600903046424683
:10274000234600F005F812B05DF8048BF0BDD4D438
:10275000F0B503AF2DE9000FADF29C6D0D460146BB
:1027600005F1D0001690DCAE95F8C84006F1600B7C
:1027700005F1780A99469046022CCDE918155DD1ED
:102780001AAE2946C82249F051F815209DF8681064
:1027900028710E2028700C2998F8000000F234836C
:1027A000DCAA02F17004DFE811F00D00AA01630158
:1027B0004B01F2003101FC012F039702E7022F03C6
:1027C000CC02CD00FF2804BF98F80C10002900F0BF
:1027D0000D87411E0329C0F0D982002840F01083E4
:1027E00098F80100002801F03F800DF59F684946E8
:1027F00040462CF020F99DF82165FF2E01F03D8721
:10280000DCAC0DF59F61292248F00BF9DDF82205BB
:10281000214688902922BDF82605ADF8240205F14D
:10282000D00063F059FF8898C5F8FA00BDF824027B
:1028300085F8F960A5F8FE0000F023BFCDF85C90A4
:102840000DF50C792946C822484663F079FE15201B
:102850009DF830122871122028700F2998F8000076
:1028600000F28C851AAA02F16003DFE811F0100073
:10287000A103F6027204A50487056F03BF03FD03DD
:1028800087058005090587058705D9027A03FF2892
:1028900004BF98F80C200A2A40F07085D8F8080088
:1028A000002802F04B8295F819010C22D8F8041088
:1028B00005F1D006032808BF0822DDF85CB0DBF87C
:1028C000383093F8700393F87133024485F81A2175
:1028D0000C7813B1012185F818110DF59F6858B1D6
:1028E00095F81C0195F81D1140F0030085F81C01B6
:1028F00041F0030185F81D111AA859462CF0EDF896
:10290000DDF860A09DF89100022807D0600741F132
:102910005E829DF89000022801F05982DCAC3146BD
:102920005A462046FFF70BFB9DF87063FF2E01F01F
:10293000A58108F10500611C48F076F88DF8FC646B
:1029400001F05BBAFF2804BF98F80C20082A40F079
:102950001A82D8F80820002A02F0EE81D8F8040084
:102960000478DCAE022C80F09A870DF59F68062A69
:1029700042F2D48150F8011FC5F81111818849F045
:1029800002F801D048F0B4FD0D2002F06FB8FF2826
:1029900004BF98F80C10022900F01286042800F2F7
:1029A0003682DFE810F07B06F301F30105007B06B9
:1029B00005F118010DF59F650DF59F60902200F15E
:1029C0009004284663F0BCFD0DF55C7A711C112261
:1029D00048F061FB0026D8F80400C4E90006C4E909
:1029E00004069DF87003C4E90266C007C4E90666E0
:1029F00001F01584B8680AF10102CDE900950021C3
:102A000002908CA81023FFF731F9C3E1FF2804BF1F
:102A100098F80C20022A40F0B6810DF59F6405F16C
:102A20000801B02249F04AF8D8E90123A046B86865
:102A30001B99CDE9009402908CA8FFF717F9ABE140
:102A4000042800F27987DFE810F029060500510715
:102A5000A10129069DF86900002801F0118106F105
:102A6000180016991022CDE90010B11C00F0D9BE53
:102A7000FF2804BF98F80C20032A40F08481CDF889
:102A80005C9005F108014CA8702263F059FD9AE8AA
:102A9000400A05F198012022DAF80CA0C6A863F0DC
:102AA0001BFE48F001FB40F02887D8F804000DF524
:102AB0009F6532464B46D0F809101591D0F80510A5
:102AC0001491D0F80110139101781291C17B1191EA
:102AD0001799B0F80D0010902846CDE900BAFEF71E
:102AE0004BFF9DF8F884B8F1FF0F01F0DD818CA851
:102AF000691C47F0F0FE8DF8348200F002BFFF2819
:102B000004BF98F80C200B2A40F03D81D8E901124F
:102B10000DF54678404647F02DF9D9F82C10BEAC9B
:102B200047F0DEFCD9F830104CAE4022CA4647F0E0
:102B3000BDFF0DF59F69214642463346484647F0A2
:102B40004BF89DF8F804C00700F0DE869DF8FB0402
:102B500009F106018DF806021222BDF8F9049DF86C
:102B6000FC449DF8FD64ADF804027CA863F0B4FD5C
:102B700009F1180079A90DF59F650CC80CC1007802
:102B800008704CA9284605F035F89DF8F804FF2890
:102B900001F0D7810A204FF003088DF8710301F08E
:102BA000FBB9FF2804BF98F80C20032A40F0EB8003
:102BB00005F10801DCA848F060FA48F075FA40F029
:102BC000AC86D8F804001B9DCDF85C90D0F80110BD
:102BD0000278DBE90E9842EA0122CBF82020159218
:102BE000D0F80930D0F805201C02119505F07F05BA
:102BF00044EA1264120242EA1161CBF82840CBF891
:102C00002410C5F140021491C17BB0F80D0013945B
:102C100040EA01404146000240EA136A4846CBF8C8
:102C20002CA0DBE90C6463F0B1FE12903046214623
:102C30002A4663F03BFDA5F1400204464846414662
:102C400063F034FD1299402D38BF44EA0100E64993
:102C5000002D08BF3046DCAA61F35F00139B02F130
:102C60002001CDE9003ACDE902120490BEA8DDE9C9
:102C7000143227F0C7FADBE900ACDDE9BE648CEA68
:102C80000401DBE90289DDE9C03589EA0500084372
:102C90008AEA060288EA03011143084341F00280F0
:102CA000DBE904230DF59F64DBE90601CDE90001B2
:102CB000204604F079FF9DF8F864FF2E01F0B183FF
:102CC000611C4CAC47F013FD8CA8214647F003FE75
:102CD0008DF8346200F015BEFF2804BF98F80C2070
:102CE000032A50D105F10801DCA848F0C6F948F0E4
:102CF000DBF940F01A86D8F8040004F1100547F01B
:102D00006BFF0EC5B968E061204602F05FF8D4E9B8
:102D10000201D4E900230DF59F64CDE90001494685
:102D20002046FEF729FE9DF8F864FF2E01F044814D
:102D30008CA8611C47F0CFFD8DF83462FF2001F0B4
:102D400076BAFF2804BF98F80C20072A1BD148F058
:102D5000ABF940F0128695F8F900DCAE022808D0F5
:102D6000D8F804000AF1680447F036FF0EC4CAF828
:102D700074000C2000F006BEFF2804BF98F80C2059
:102D80000C2A00F04785421E032A36D28CA81AA9C5
:102D900049F087F80DF59F68DCAE9DF83002FF28FA
:102DA00000F07F840DF50C7A0DF59F60C822514626
:102DB00063F0C6FB9DF8F8040E2800F07D84199D91
:102DC0000D2840F09C84C84695F8F990B9F1020F9F
:102DD00000F0958495F81A0100F00300012802BF65
:102DE00095F8200100F00300012800F0BE8495F85A
:102DF000F8E04FF0020900F0E5BC002800F03A844A
:102E0000042804D100F04ABCFF2840F0298498F837
:102E10000C00042800F0C4830D28B7D000F03EBC9D
:102E2000FF2804BF98F80C20072A40F0A78248F03A
:102E30003BF940F03686DDF85CB095F8F9000228E1
:102E400008D0D8F804000AF1680447F0C5FE0EC4A3
:102E5000CAF874000F2000F026BEFF2804BF98F8BF
:102E60000C200B2A40F08A82BEAE09F10401202218
:102E70009A4647F01BFE05F1240B0DF546794022DA
:102E80004846594663F028FCD8E901124CAC20466C
:102E900046F070FF0DF55C78314622464B464046C1
:102EA00046F09AFE9DF87003C00700F0FF859DF87C
:102EB000730308F106018DF8AA001222BDF8710310
:102EC000ADF8A800BDF874431AAE06F1450063F0F2
:102ED00003FC06F1570008F11801092263F0FCFB1E
:102EE00006F120004CA947F099FD3046594647F0BD
:102EF00095FD50465021ADF8AB4063F0CAFA95F805
:102F00000801811E38BF0221DDF85CB0C9B2022978
:102F100001F0EC80DDF860A0032941F00B810F2067
:102F20000DF55C788DF8700348F02AFAD6AE48F0BB
:102F3000EAF99DF85843FF2C41F0608308F107003F
:102F40001AA947F0C6FE092001F0BBBB98F80C1087
:102F5000FF2808BF022900F0EA83FF2800F0128250
:102F60004AE2FF2804BF98F80C20082A40F00682A5
:102F7000D8F80820002A01F0E386D8F80400DDF82C
:102F80005CB00478022C80F0D0850DF59F68062A8D
:102F900041F2C68650F8011FC5F811118188DDF88D
:102FA00060A048F0F0FC00F0DA8248F0A1FAD6E226
:102FB000FF2840F0E08298F80C100A2900F07E8586
:102FC000012940F0DF81D8E90112DCA847F02EF892
:102FD0009DF87003022840F082860A20DDE917BAC6
:102FE0000DF59F6801F058B9C0FFFF7FFF2804BFAF
:102FF00098F80C20022A40F0C18105F10801DCA8F4
:10300000602263F09DFA9AE8500605F188011AA83B
:10301000302263F061FB48F047F840F05885D8F85B
:1030200004000DF598788D99224615913346016874
:10303000149141681391816812911799C068119099
:103040004046CDE9009AFEF7C7FE9DF830B1BBF1CE
:10305000FF0F01F021800DF59F6248F07DFF47F0E2
:10306000E3FC8DF8FCB4F6E1FF2804BF98F80C20CF
:10307000032A40F0838105F10801DCA847F0FDFF39
:1030800048F012F840F02C858D985D46DBF830A0B2
:10309000DBF8341000F07F04DBF838B0A4F1400214
:1030A000D5F83C901491139058464946D8F80460DE
:1030B000CDF854A063F0FAFA14998046504622469F
:1030C00063F0F4FAC4F1400282465846494663F080
:1030D0005DFCF368D6F800907268D6F808B0DCA9F9
:1030E000039120310291402C1493CDE900B338BFF5
:1030F0004AEA00081598002C08BF8046DA4848F0D4
:1031000016FF90461AA84A46434627F07BF8D5E9B1
:1031100002E3DDE91A42D5E900C1DDE91C60514056
:10312000584084EA0C02084386EA0E011143084322
:1031300040F0E08514981399C5E90898C5F828B0BF
:103140001329E862199D41F0AC800DF59F60DCAB5E
:103150008CE0FF2804BF98F80C20022A40F00E8172
:1031600005F108011AA8B0221C4663F0E9F947F0FE
:103170009BFF40F07383D8F8040047F02DFD84E8EE
:103180000E00B968E06004F1100001F01FFED4E900
:103190000601D4E90423CDE90001DCAC47F0A5FB2E
:1031A0009DF87063FF2E40F06186E01D1AA947F07C
:1031B00090FD042000F06ABEFF2804BF98F80C20A0
:1031C000032A40F0DB800DF1680B05F10801B02205
:1031D0001C46584663F0B4F947F066FF40F03E8362
:1031E000D8F804000BF120028168D0F80CA0D0F8C8
:1031F0000490D0F800800020CDE9001ACDE9142118
:103200004B46CDE9022B42460490C6A826F0FAFFB1
:10321000D4E902E3DDE9C652D4E900C1DDE9C860C2
:10322000514058408CEA050208438EEA06011143DA
:10323000084340F0708504F11003159DC4E9088926
:103240000FCBC4E90A5A149CCDF800B001AE86E851
:103250001003CDE9045A27F015F8199D95F80811C7
:10326000022941F03C800DF59F601AABDDF85CB09F
:10327000169A5946FEF760FFDDF860A000F02CBCFE
:10328000FF2804BF98F80C200C2A77D105F108011B
:10329000DCA8502206F1100463F052F9D8E90101CC
:1032A00004F1280A0D902069129060691190A069BC
:1032B0001090E0690F90206A1390606A1490606B20
:1032C0000E9005F58F709AE800071591D4E90E6B02
:1032D00046F0E3FDD5F8142120F07F40D5F8111118
:1032E000CDF833214C91D5F80D21D5F80A11CDF840
:1032F0006B201A91CDE9086B0A904CA80B901AAD7F
:103300001298029011980390109804900F98CDE9AC
:10331000050A0E980C95CDE900890790D6A8DCA97E
:10332000DDE9132326F00AFF1598102806D1D6A947
:103330000D982CF04CFE002800F0F7844FF00B089D
:103340000326199DDDE917BA0DF59F60BEA9063069
:10335000122263F0C1F9FF208DF8FD848DF8FC6422
:10336000DCAE8DF8F8040DF59F6801F0B7B9FF28C1
:1033700004BF98F80C20032A00F05982FF2809D1D5
:1033800098F80C10042922D048F07AFD0D2900F09D
:10339000F780FEE00539082900F2ED80DFE801F052
:1033A000052CEBEB80EBEBD0E8000DF59F680128D6
:1033B00000F09382DDF85CB0022840F0EA8040F62D
:1033C0000340DDF860A0ADF8FC0401F089B9DDF838
:1033D0005CB0D8F80800002801F0AA8448F03AFD53
:1033E0008DF8FC14411E102928BF08208DF8FD041B
:1033F000DDF860A001F074B9032840F0BC800DF541
:103400005C7A05F118019022504663F099F800208B
:10341000D8F804100DF16808179BCBE90C10524640
:10342000CBE910100021CBE90E00CBE91200B868FF
:10343000009040469DF83162FEF7F6FD9DF8684029
:10344000FF2C00F051830DF59F6248F085FD47F099
:10345000EBFA8DF8FC44FF20DDF860A08DF8F8044D
:10346000DDF85CB001F037B9C0FFFF7FE0C70600B0
:10347000990000009D000000A40000009B000000D7
:103480008D00000095000000D9880400040A0700A0
:10349000A6000000900000009A0000008B000000D1
:1034A000042868D10DF1680905F10801B0224846E9
:1034B00063F046F8D8F8010008F1210414902022A6
:1034C000D8F8050021461590D8F809001290D8F8D0
:1034D0000D0013904CAE47F0E9FA5FF870102046EB
:1034E0002CF075FD40B95FF87C1006F110002CF04F
:1034F0006EFD002800F087844946DDF83C91DDE947
:103500004DA82031DDF830B10020CDE90089CDE9AA
:10351000021153460490DCAC5A46204626F072FE57
:1035200006F1100120462CF052FD002800F06F84B7
:10353000FF208DF8F80440F20340ADF8FC04C9E226
:10354000C8B998F80100002800F04F83DDE917BAE8
:103550000DF59F6895F82301800700F1BF8595F868
:1035600022110DF59F605A46FEF76CFC01F0B4B8CD
:10357000002800F0AB8148F083FC0138022808D213
:103580000DF59F608CA948F08CFCDDF860A001F07F
:10359000A3B81520DDF860A08DF8FC0401F0A0B8F8
:1035A000D8F80800002801F0C58348F053FC8DF8D6
:1035B0003412411E102928BF08208DF8350270E012
:1035C00047F072FD40F05981D8F804108CACA01C73
:1035D00047F019FB0DF59F6805F1180108F1060089
:1035E00047F077FB47F069FB04204AE10DF59F6047
:1035F0004946D8E901A917912BF06FFA9DF82105EA
:1036000002281ED00D200DF59F688DF8F8040DF5E9
:103610005C7B17984346816A826B58462BF088F989
:103620009DF87003FF280BD09BE85E0040465EC00B
:103630005FF8C4013CF0C4FB47F0B7FD3CF028FD47
:10364000199D0DF59F6051464A4646F0EFFC9DF8E6
:10365000F844022C40F01A81DDF85C900A2089E2DF
:10366000072908BF042800F09081421E032AFFF4B6
:103670008DAB98B90A2911D198F80100002800F003
:10368000F38095F81D01800700F1618295F8220111
:10369000DCAE80074CBF0B200D2073E1152048F0F5
:1036A000EAFB8CA808F10401043090E87C000E20AD
:1036B0007CC1DCAE8DF8F804301D08F1040130F057
:1036C0002DFE0C20D9F828108DF870033346D9F858
:1036D00038204CAC20462BF02BF948F00AFA0DD0DC
:1036E000304694E86E006EC0DCAE5FF878023CF0C5
:1036F00067FB304644F0C4FC3CF0CAFC199D0DF554
:103700009F61284648F0CDFB8CAC2946204645F009
:103710004AF9FF208DF870039DF83002FE2818BF8B
:103720002646189D96E81F001FC501F017B847F000
:10373000BBFC40F0C480D8F804100DF59F6808F178
:10374000020047F060FAB01D05F1180147F0C1FA18
:10375000012031468DF8F90408F11200B62262F01A
:10376000BBFFDDF85CB00620ADE04CAE169A4146DA
:1037700030462BF006F948F0BCF90DD00DF55C7B16
:1037800096E83E0058463EC05FF8140348F032FB0E
:1037900048F067F93CF07CFC169805F1E00EAC4669
:1037A0005446016817914168149181681591D0F8C9
:1037B0000CB09EE86F006FC4DDE9142117989CF8E7
:1037C000F8E0DCAECDE9E01B06F11801CDE9DE0240
:1037D0008DF871E39AE87D007DC10B20DCAE8DF899
:1037E000A1938DF8A0E333468DF87003D8F8281024
:1037F000D8F838204CAC20462BF09AF848F079F9EC
:103800003FF47CAF304694E86E006EC0DCAE5FF8EB
:1038100094036CE706F10800169BD8E90112CDE984
:1038200000308CA84B46FEF7DDF8FFF7B3BA05F180
:103830000801DCA847F021FC47F036FC0ED1D8F88F
:10384000040047F0C9F9FF90FCA80EC0DCAB0DF5F1
:103850009F60DDF85CB048F07EF972E1FF20DDE9A1
:1038600017BA47F081FD6EE15FF8EC033CF0B4FA63
:1038700048F0BDF840F6037053E0052048F0FBFA2D
:10388000FF20DCAE8DF83002FFF789BA9DF8FA64AC
:10389000DDF85C90300700F1668103206AE15FF893
:1038A0001C043CF08DFA20463AF072FB3CF0F0FB31
:1038B00005200DF59F688DF8340201F0D6B848F068
:1038C00028FB0DF59F68DDF860A098E298F80100EC
:1038D000002800F098811120F1E0DDF85CB009F1DA
:1038E00008030DF59F6048F036F94EE640F60340B8
:1038F0000DF59F68ADF83402D3E640F60320ADF82D
:10390000340248F074F818E340F60330ADF834029E
:1039100048F06DF8D146FFF73DBA48F068F840F638
:103920000320ADF83402FFF735BA48F060F80520FF
:103930008DF83402FFF72EBA9DF8690000287FF455
:1039400066AA98F80C000C287FF461AA47F0ACFB3B
:1039500040F0DA85D8F804108CACA01C47F053F97D
:103960000DF59F6805F1180108F1060047F0B1F95F
:1039700047F0A3F9032000F0CBBD05208DF83402F9
:10398000FF20DCAE8DF8300212E3CDF85C9005F13B
:1039900008014CA847F071FB08F121060DF54679A6
:1039A0002022484648F08EFB5FF84015D8F80D00FD
:1039B00015903046D8F80140D8F805B0D8F809A0DD
:1039C00095F81E5144F080FF40B95FF8601509F189
:1039D000100044F079FF002800F02D84CDE913BADF
:1039E0000DF55C7ACDE91154C6AB0DF53E780FCBE1
:1039F000109047F0B0FF0F914146BE9050460E9296
:103A00000D9339F083FF0DF59F64002651464FF466
:103A1000B8722046CDF8DC64CDF8D864CDF8D46413
:103A2000CDF8D064CDF86866CDF86C66CDF87066D8
:103A3000CDF8746662F0CAFE0DF55C7A21464FF44B
:103A4000C072504662F0C2FE8DF8F0644CA800F1DE
:103A500020045FF8CC95504620222146C8475046A6
:103A600021462022C8470DF59F6B504601228DF854
:103A7000F8645946C847584651464FF4C27262F03E
:103A8000A5FE9DF878A60BF5B8715FF800361022F8
:103A900050462BF04DF8002970D000F8016B013929
:103AA000F9E748F036FA8DF8F8044AE040F60330BA
:103AB000ADF8FC04FF208DF8F8040BE00120DDF8E0
:103AC00060A048F0DDF98DF8F80400F04BBEFF204F
:103AD00047F04AFCDDE917BA0DF59F6800F0FBBD21
:103AE00005200DF59F680AE1DDF860A0F00700F001
:103AF000618109F1020047F06FF88BE80E00CBF806
:103B00000C00DBE90601DBE90423CDE900011AAC76
:103B100046F0EBFE9DF868600DF59F68FF2E00F003
:103B2000A18408F10500611CD3E35FF89C063CF01A
:103B300047F920463AF02CFA3CF0AAFAFF2047F069
:103B400013FCDDF860A00DF59F6800F0C5BDD9F845
:103B50003CA00AF108030FCB47F03AFC00F0F182D9
:103B600082AC0FC4F2E29DF8FB84B8F1100F80F034
:103B7000328206208DF83502032090E5A7F13C063D
:103B80000024584647F83C4C31468DF8784647E9C2
:103B90000E4447F8304C39F024F9A7F12C0931468E
:103BA000484630F047FC0BF5B076102C0AD00BEBF2
:103BB0000400013490F8601190F87021514080F8B1
:103BC0006011F2E7BAF1100F40F02E82DDF850A03C
:103BD0000DF59F68DDE9124B0020102800F03D82B2
:103BE00019F8001047F070F9F7E75FF858073CF054
:103BF000F3F840F60370DDE917BAADF8FC040DF5F3
:103C00009F6800F06DBD0D200DF55C788DF8700398
:103C10000DF1680917984346816A826B48462AF07D
:103C200087FE9DF86800FF280CD099E86E0040469A
:103C30006EC0DCAE5FF8A00748F0DCF847F0B5FADC
:103C40003CF026FADDF860A0E00700F04982DCAC29
:103C5000DDE9161B5A462046FEF771F99DF87063A0
:103C60000DF59F68FF2E00F0588408F10500611CD7
:103C700046F0DAFE8DF8FC6400F0B0BF0120BDE034
:103C80000DF59F6805F1180108F1070047F021F8CC
:103C9000092041468DF830028CA846F066FFDCAE64
:103CA000FFF780B85FF80C089B46159535466646C9
:103CB0003CF086F85046314642464B4644F012F9F5
:103CC000159B284621465A4644F00CF93CF0E0F991
:103CD00047F08DFE40F20340ADF834022DE19DF82F
:103CE00072130DF59F68DDE917BA0A0700F1CE825D
:103CF0000320D1E2199D0DF59F68DCAE032004215D
:103D00008DF8FC04FF208DF8FD148DF8F804DDE932
:103D100017BA00F0E1BC199D0DF59F68DDE917BAEF
:103D200040F60340ADF8FC04F4E2DDF864B0AC46C4
:103D300002269BF81A119BF820519BF8080101F00C
:103D4000030105F0030581F00101022885F001055A
:103D500008BF01262943B1FA81F1D4E900234909BA
:103D6000D4E902040391654617998DE85100604635
:103D70002AF06BFD0DF5467AA91C12229DF86860A9
:103D800050469DF869809DF8914062F0A5FC022C98
:103D900040F0C582BEA8BAE82E00FF2E2EC05D46B8
:103DA000BAF80010DDF860A0DDF85CB001807FF4A7
:103DB000CBAAF1E20DF59F68DCA908F1080047F0F5
:103DC0005CF90020CDF8FC040720FFF747BBDCAC12
:103DD000594620462AF02FFE9DF89963FF2E40F0A9
:103DE000DE820DF5987C94E86E0060466EC008F1A6
:103DF00004009CE83E003EC0199DFF20DCAE8DF81B
:103E0000F80400F06BBCDDE94CBADDE94E891AA874
:103E1000129E00F1700495F81E01002808BF0646A6
:103E2000159908BF0146149A08BF0246139B08BFA4
:103E30000346C4E90821B968C4E90A63C4E90CBAB5
:103E4000C4E90E89DCA800F0C1FFDDE9DE01DDE98F
:103E5000DC23C4E90023C4E90201CDE90001DCACA4
:103E600046F043FD9DF87063FF2E0AD00DF59F6864
:103E7000611C46F086FCFF208DF8FC648DF8F80488
:103E80000EE0E01D1AA946F024FF0A200DF59F68F8
:103E90008DF8F80408F101002146B72262F01CFCFD
:103EA000DDF860A000F017BCDDE91010702241EAD7
:103EB00000484CA9DCA862F043FB149A1399100245
:103EC00084E8400A40EA1165129840EA01231599F6
:103ED0001393080240EA12624FEA082040EA116890
:103EE0001492C4E905522022C4E903A3C4F81C803B
:103EF000DCAC04F19000C6A962F0EEFB04F12000F6
:103F0000149A8DE8510A294643461398CDF814A017
:103F100026F0B8F9199991F80811022940F0638246
:103F20000DF59F64DCA9E01D46F0D3FE0920214673
:103F30008DF830028CA846F018FEDDF85C90FEF794
:103F400029BF1794D6A800F10208291D102247F0B6
:103F5000E3F982A84146841C46F0CDFB0DF50878B4
:103F60002146102247F0D8F90DF55C7951464246BA
:103F700048F07CF89DF87083B8F1FF0F00F07C8268
:103F800099E85E0028465EC0DFF8000E3BF018FF9F
:103F900047F0BFF93CF07CF88CA8DCAE0530711C12
:103FA00046F042FDFF208DF834828DF83002D14674
:103FB0000DF59F68FEF7F1BEE01DDCA946F089FE15
:103FC000092021468DF830028CA80130B72262F01A
:103FD00083FBFEF7DFBEBDF8FCA49DF8F9945FEA11
:103FE0008A7042BF95F81C0140F0020085F81C0160
:103FF0005FEA8A5040F17A841798C36BD3E902E1F3
:10400000D3E9042341EA030C4EEA020050EA0C0013
:1040100000F05684CDF8F8E4CDF8FC14CDF8002576
:10402000CDF8043500F055BC16F80A00A7F12C01B4
:1040300080F0800006F80A00404630F0FBF9DDF819
:1040400050A00020DDE9124B102804D018F8001011
:1040500046F03AFFF8E70DF59F680DF59F60314691
:1040600038F0BFFE0FCE47F076FCBE90C6A800F138
:104070001001BEA844F028FCDCAE119DDDE90F9CC8
:104080000028DDE90D3E00F0DD8047F0B0FC40F295
:104090000340ADF83402F5E00DF59F68DCA908F1A6
:1040A0000800602208F1680562F04AFA149805F1E8
:1040B0000C0128603022139868601298A86011984B
:1040C000199D81E8510608F188001AA962F004FBE5
:1040D0001598CDF8FC040820FFF7BEB90E20F2E4D5
:1040E000DFF8840C3BF078FE1020EAE4DDF860A0F5
:1040F000002800F016820A200DF55C788DF8700318
:1041000047F03EF9D6AE47F0FEF89DF85843FF2C35
:1041100040F0748208F106001AA946F0DAFD0DF5A8
:104120009F620620ADF8F804414602F11200904665
:10413000B622CEE208F107001AA946F0CAFD032014
:10414000BFE20020CDE98400CDE982000DF59F6833
:1041500082A9404603F0F6FD9DF8F844FF2C52D1A9
:104160004CA84E4600F1030908F10401102247F063
:10417000C7F8D6AC494646F0BEFA0DF59F68314601
:104180002246179640462AF02DFB9DF8F844FF2C56
:1041900040F02381DAF80000C10700F06C82DAF801
:1041A0000410000A0DF59F660A0E8DF8F6210A0A22
:1041B00040EA01607C90ADF8F4217CA9304603F020
:1041C0000BFE9DF8F844FF2C40F03984311D484621
:1041D00046F019FDBEAE494646F054F9DDF85C9054
:1041E0000DF59F683246404649462AF0FBFA9DF895
:1041F000F844FF2C3FF44AAA08F10101C6A846F092
:1042000013FC00F027BC4CAD08F1010146F07DFB2A
:10421000C6A84ECD4EC047F071FD00F01BBC8CA867
:104220000DF59F61083046F028FF8D9605208DF82A
:104230003002FEF7AFBDDDE9C6C90DF59F68DDE9C7
:10424000C8E3DCAE4CA8903015F0010102BF8A46ED
:104250008B460C46159A08BF0A46C0E902A2C0E97F
:10426000004BB022C0E904C9C0E906E308F1070029
:104270004CA962F031FA082041468DF830028CA832
:1042800046F073FCDDF85C90FEF787BD9DF8732364
:104290000F2A00F2BC8106208DF8FD040320FFF7F1
:1042A0007BB9B8684C1C0090DCAADDF85CB00DF15D
:1042B0006808214640465B46FDF7B6FE9DF86860FB
:1042C000DDF860A0FF2E00F0E9810DF59F6247F058
:1042D00043FE46F0A9FB8DF8FC64FF20E8E1DDF821
:1042E0005CB009218DF870130DF55C78DD9047F016
:1042F00047F84CAE47F007F89DF83041DDF860A074
:10430000FF2C00F0D8810DF59F68711C46F039FA3A
:104310008DF8FC44FF20DCAE8DF8F804DCE105F1FB
:10432000140C15940DF598792946BCE83D00CE464D
:10433000AEE83D009CF800008EF80000BDF8960045
:10434000ADF80C02DDF8920082900846BAE83C0015
:104350003CC0BAF8002002800BF1D20012228BF888
:10436000D1808BF8D06062F0B7F9B9E83E000BF16C
:10437000E4003EC05D4615998BF8F91099F80010DD
:1043800001708298CBF8FA00BDF80C02ABF8FE0081
:10439000DDF860A0DDF85CB00C20FEF7E1BF4CA8B2
:1043A000DCA947F0CEFDDDF89A03022EC690BDF8D9
:1043B0009E03ADF81C0300F0B8844CA905F1D000B1
:1043C00047F0BFFDC698C5F8FA00BDF81C03A5F874
:1043D000FE000D2085F8F96010E508F10101C6A87E
:1043E00046F022FB34E3DDF85C9009218DF8F814E7
:1043F0000DF59F68CDF8FC04D9F828104346D9F88C
:104400003820BEAE46F07FFF9DF8F842FF2C00F04A
:1044100034828CA8711C46F05EFA8DF83442FEF7A7
:104420008DBC4CA8211DC61C46F02CF8C6AC3146EC
:1044300046F061F9DDF85C900DF59F662246304646
:1044400049462AF0CFF99DF8F8440DF59F68FF2CF6
:1044500000F021828CA8711C46F03DFAFF208DF8F7
:104460003442CBE308F10800DCA946F006FE002048
:10447000CDF8FC0408201BE14CA9484646F0CEFAD2
:1044800009F12004C6A946F02BF8179812228DF8DE
:10449000B303BDF80402ADF8B0039DF806028DF831
:1044A000B20309F145008DF8B4637CA962F014F9F8
:1044B00009F1570079A9092262F00EF958465021F6
:1044C00061F0E7FF199890F80801023838BF022020
:1044D000C0B2022800F0CE82032840F0FF820F20F5
:1044E0000DF59F6846F0E9FFD6AE46F00CFF9DF84B
:1044F0005853FF2D40F0748308F10700DCA946F003
:10450000E8FB072041465DE5052047F0B4FCFF20AD
:104510008DF83002DCAEFEF742BCDCAE0120FFF7C6
:10452000D2BA1AA8D7F8088090301590103014909D
:10453000E14840F2FF1B4FF0FF398246404638F019
:1045400080FA044640460E4638F07BFADB4D0023E5
:10455000A0FB0502E1FB0523A4FB0541A6FB0556D4
:104560006D184FF00001464152F1000253F1000076
:1045700024EA0B0341F10001BAEB030379EB0503D5
:1045800079EB060379EB0202D8D3149B0022DDF805
:104590005CB083E80700DA60159BDD9083E80700D4
:1045A0000821DA608DF87013DBF82810DBF838206A
:1045B000D6AEDCAB46F0A7FE9DF85843DDF860A010
:1045C000FF2C40F03582B86800210090DCAE1AAABA
:1045D0005B4630464FF00008FDF726FD9DF870431E
:1045E000199DFF2C0AD10DF59F641AA904F108004A
:1045F00046F043FDCDF8FC84A04658E00DF59F68D9
:10460000711C46F0BEF8FF208DF8FC4450E085F8A0
:10461000201105F58F7185F81E0105F58C70BDF828
:1046200074339DF87143A5F8223185F8212185F86E
:104630001F4145F03DFC85F809112022DBF82C10C4
:1046400085F808014CA862F047F8DBF83010DCAEC2
:10465000402246F02BFA0DF168083146404603F03F
:10466000C9FA9DF86800FF2800F084820A2003241C
:104670008DF81903A8E20524EAE1DCAD98E85E00B4
:1046800028465EC029468CA800F1040C91E85D0024
:104690008CE85D002E46FF20FFF774B90DF59F688A
:1046A000DCA908F1080046F0E8FCCDF8FC4407203E
:1046B0008DF8F8040FE008F107001AA946F009FB8D
:1046C00005200DF59F628DF8F804501C4146904678
:1046D000B72262F001F8DCAE9DF8F804FF2841D162
:1046E00008F10400311D90E87C0012207CC1DCAE92
:1046F000199D8DF8700308F10400311D2FF00EFE96
:104700000C20DBF828108DF8F8044346DBF838203D
:104710004CAC20462AF00CF947F0EBF909D047F0F1
:1047200044FCDFF85C0647F065FB46F03EFD3BF0DD
:10473000AFFCDCA9284647F0B4FB1AAC294620465A
:1047400044F042F9FF208DF8F8049DF86800FE2837
:1047500018BFA04698E81F008AE81F000DF29C6D64
:1047600046F017B90DF59F69DCA8C822494661F0EB
:10477000E7FE9DF870031228BDD01128D9D195F815
:10478000F910022904D1DFF8F0053BF025FBD0E752
:1047900095F81A0100F00300012802BF95F82001E6
:1047A00000F00300012806D095F8F8E00DF1680B41
:1047B0004FF0020A30E015910DF59878DDE91661A9
:1047C000404632462AF0DDF847F093F90CD098E8DD
:1047D0003E0048463EC0DFF8980547F00BFB4846D0
:1047E00043F04EFC3BF054FC306805F1E00E1490B1
:1047F0000DF1680B7068A84613905C46D6E902ACD0
:104800009EE86F006FC4514698F8F8E00DF59F6878
:10481000139A1498DDF854A0CDF80CC509F1180CC2
:10482000CDF80425CDF800058DF8F9E4CDF808158C
:104830009BE87B008CE87B000B204B468DF8F8044E
:1048400017988DF829A58DF828E5816A826B4CAE02
:1048500046F059FD47F04DF90CD096E83E00484629
:104860003EC0DFF810053BF0ABFA484643F008FCC9
:104870003BF00EFCDDE918A55BE708F10600DCA9BA
:1048800046F027FA0320ADF830028CA812304146DA
:10489000B622FFF79CBB119C132C40F0A781F01DA2
:1048A000DCA946F016FA092031468DF830028CA8B2
:1048B00046F05BF9FEF770BAFFC5FCFF40420F00FF
:1048C0000020CDF80405CDF80005CDF8FC04CDF8A6
:1048D000F804DFF898140DF59F602BF078FB28B1F1
:1048E00095F81D0140F0020085F81D0195F81901A9
:1048F0000C21A5F822A105F58C7B85F821810328E0
:1049000085F8206185F81F9185F81E4108BF0821B0
:10491000DDF85C90D9F8380090F8702390F8713386
:10492000881885F81A0105F58F7013B101218BF8ED
:104930000010594645F0BCFA199A82F808010DF5A5
:104940009F6082F80911012103F0DEF89DF8F8A4B8
:10495000BAF1FF0F43D19DF80865DDF80445BDF8B5
:104960000905ADF8180331469DF80B058DF81A03BB
:104970002046DDF8FC84DDF8009523F081FC46F04C
:10498000B5FC58461A4645F041FBC0B2022848D152
:10499000CDF8FC940DF55C79CDF8F8840DF59F68A1
:1049A000BDF8180317994246ADF805059DF81A039E
:1049B0008DF8070548468DF80465CDF8004529F0C7
:1049C00011FF9DF870A3BAF1FF0F6DD1DDF85C9077
:1049D0000DF59F6801208DF83002FFF760B99DF852
:1049E00008259DF8FB048DF88023DDF804258DF85B
:1049F0007303BDF8F904DF92DDF800259DF80B156F
:104A0000ADF87103BDF80905DE92DDF8FC24ADF8C0
:104A100030018DF83211DD928DF88313ADF88103EA
:104A20004FE04046494645F0C7FA4FF0050A46E0D8
:104A30000DF59F68711C45F0A4FE199DE3E54CAD92
:104A4000711C45F062FFC6A84ECD4EC047F056F926
:104A5000DDF85C90DCAE8DF834428CA8C6A9053038
:104A600013220DF59F6861F037FEFF208DF83002AC
:104A7000FEF793B9199890F80901002800F0CE804C
:104A80000A200DF59F6846F018FDD6AE46F03BFCB7
:104A90009DF85853FF2D40F0A38008F10600DCA9D3
:104AA00046F017F90420EEE699E85E0040465EC045
:104AB000BA483BF085F946F078FB3BF0E9FADDF8BF
:104AC0005C90DCA98CA80530013113220DF59F689C
:104AD00061F002FE8DF834A2FEF7E3BDB9680BF178
:104AE000100000F073F9DBE906010025DBE904237F
:104AF0008DE803020DF59F60CDE9034525F082FBAB
:104B0000DDF804150DF59F68DDF8F824DDF8FC34B8
:104B1000DDF80005CBE90201CDE900014046CBE913
:104B2000002303F01BF89DF8F854FF2D6AD182A8EA
:104B300008F10401C61C45F0A5FC88AC314645F0DF
:104B4000DAFD0DF556795146224647F08FFA9DF869
:104B50005853FF2D40F0808008F10700DCA946F093
:104B6000B8F8022041468DF830028CA845F0FDFFD0
:104B7000FEF7D0BEBEA808F10401861C45F082FCF9
:104B8000D6A83146841C45F0B6FD0DF502792146C4
:104B900010225E4646F0B4FB0DF5467B31464A4690
:104BA000584629F01FFE9DF81843FF2C3DD09BE886
:104BB0006E0040466EC069483BF002F946F0F5FAD7
:104BC0003BF066FADDF85CB0C6A90DF59F6808F108
:104BD0000500013145F028FF8DF8FC44DCAE7FE58F
:104BE0008CA8711C053045F01FFF46E08CA8DCA99D
:104BF000083046F042FA601C8D9005208DF8300296
:104C0000FEF7CAB882AE08F10101132245F04EFF4B
:104C1000D6AC3146601C45F007FF29E0DAF8000009
:104C2000D146A0B3D9F804104EE008F103004CA916
:104C300045F0F4FE0DF59F64DCA904F1240046F074
:104C400059FB022041468DF8F804601C2322A0463F
:104C500061F042FDFEF704BC99E85E0040465EC08C
:104C60004D483BF0ADF846F0A0FA3BF011FAD6AC57
:104C70008CA8611C45F02FFED146FF20DCAE0DF55F
:104C80009F688DF830028DF83452FEF786B8BD6803
:104C9000314B404CD5F8000140280BD32846002169
:104CA00026461C4624F0FAF8D5F8000140284AD2DE
:104CB00023463446421C55F82000C5F80021A0FBCD
:104CC0000301A0421046E7D80BF140000BF130027F
:104CD0000026CDF8FC14C0E900160DF55678C2E99F
:104CE00000160DF59F63C2E90266D9F82810D9F8BD
:104CF0003820C0E9026608208DF8F804404629F003
:104D000017FE9DF858538CA8FF2D03D10830DCA95D
:104D1000FFF789BA053008F1010164E7194B00E09B
:104D20000B4B012007213AF085F90D483AF09AFE25
:104D3000124A06E01A4A04E0134A02E0094A00E077
:104D4000044A45F029FB124A40213AF0B9F900BF64
:104D5000D8950600C895060040420F00A300000049
:104D6000B8950600A895060091000000E0C706006F
:104D7000A50000009C000000A70000009895060018
:104D80009E0000002008070010080700A200000095
:104D9000BCC506007F3DF1FF9F00000098000000A9
:104DA00078950600D0B502AF92B0BC688DF810209F
:104DB000FF228DF80420CDE902343A69FB680092A5
:104DC00001AAFDF7C5FC12B0D0BDD4D4F0B503AF35
:104DD0002DE9FF07DFF8949000260D468046EA464D
:104DE000CDE90266CDE900660F2E1ED8D5F8004148
:104DF000402C07D32846002124F050F8D5F8004174
:104E0000412C2AD23046514610224B4629F090FEC2
:104E100002460B4605EB8400C4F140013CF0C0FEA5
:104E20002044C5F800010E44DEE704A89AE81E00FD
:104E30001EC004AB45F025FF1FBFA8E80F0008B057
:104E4000BDE80007F0BD08483AF0BAFF04A843F0F7
:104E500045FA3BF01DF93BF069F8054B204640212F
:104E600040223AF0E7F800BFAD000000640F0700F1
:104E7000ACC50600F0B503AF4DF804BD8568046805
:104E80006DB14268C66804F10800531B00EB421183
:104E9000B21A00EB4310520161F099FA00E0C668C3
:104EA000701B206045F008BE80B56F4690F8141462
:104EB000032918BF80BD00F58470BDE8804001F073
:104EC00065BC80B56F4618B1BDE8804045F074B848
:104ED00080BD80B56F46818A022908BF80BDD0E9B8
:104EE000003182681846BDE8804000F0F1BE80B510
:104EF0006F46016939B1D0E9003182681846BDE8D2
:104F0000804000F067BD80BD80B56F46D0E90012DB
:104F1000114308D090F88C10032904D10830BDE863
:104F2000804001F012BD80BD80B56F46016819B1A7
:104F3000BDE8804000F0D3BB80BD80B56F46C24362
:104F400012061CBFBDE8804001F059BE80BDD4D41C
:104F500080B56F4605480021012201600449425096
:104F600001680029FCD00021016080BD147100405F
:104F7000F4FEFFFF80B56F46017B052918BF0329AA
:104F800004D11430BDE8804001F07DB880BD80B50B
:104F90006F4690F8441031B1032918BF80BDBDE8B9
:104FA000804000F0E9BA3830F9E7D4D4D0B502AF88
:104FB0000446006820B946F04EF845F0EAFDD0BD41
:104FC00004483AF0FDFE42F071F93BF061F83AF026
:104FD000ADFF00BF3E000000D0B502AF0446103068
:104FE00024F097FE41F27C00204440F05BFF41F248
:104FF00088002044BDE8D04040F054BF80B56F46E3
:105000000168012918BF80BDD0E90110C968BDE859
:105010008040084780B56F4690F87510032918BF87
:1050200080BDD0E90010C968BDE880400847D0B510
:1050300002AF0446D0E90001084304BF207B0328E7
:1050400008D0D4E93201084304BF94F8D4000328FF
:105050000AD0D0BD207E06280ED00428F1D104F15C
:105060002000FFF787FFECE794F8E800062808D057
:105070000428EED1282005E004F1200001F003F817
:10508000DFE7182004F1D8010844BDE8D04000F063
:10509000FABFB0B502AF04460025902D08D06019C4
:1050A000017D032904BF043001F0CCFB1835F4E77F
:1050B000B0BDD4D4F0B503AF2DE9000F8BB00446DA
:1050C00090F83C0F032805D040B904F69800FFF78C
:1050D000AEFF03E004F6182000F0EEF9D4F8A807BC
:1050E00004F59D6538B994F8BC07042804BF04F59D
:1050F000F86001F033FDD4E90C01084301BF94F8D6
:105100004400032804F1500000F0D2FED5E900016C
:10511000084307D194F8FC04042804BF94F8A007BE
:10512000032801D045F0DFBAD4F8000738B994F865
:105130002607042804BF04F5E56000F098FFD5E9D0
:105140003E01D4F8E82500F045FCD5E93A01D4F851
:10515000D82500F0BDFDD5E93601D4F8C82500F00A
:105160009FFCD5E932A09D490190D4F8B8050968A3
:10517000C90540F02E819B4925F057F90646D0E934
:10518000005B806B06F1400900910138B06348462E
:1051900021F052FCB5EB00086BF10000BAEB0801FE
:1051A000019971EB000039D30DF1080B49465846BF
:1051B00024F0B6FEBAEB0800069004D0411E02A807
:1051C00037F08BFD60B10DF11C089BE82E004046C6
:1051D0002EC0404629F069FA10B145F047FFF8E7C4
:1051E00002AD0020D6E91012891A18BF012196F8E5
:1051F00048201143C9070BD0316D49B928464946AB
:105200003DF092F80298002800F0E0800120E9E7E4
:10521000C0071CBF06F12C003DF070F8009904F5A2
:105220009D6545F03FFCD5E92E01D4F8A82500F096
:1052300097FCD5E92AB069490190D4F89805096826
:10524000C90540F0C680674925F0EFF80646D0E969
:10525000005AC06F06F1080900910138F06748460E
:1052600021F0B2FBB5EB00086AF10000BBEB0801CE
:10527000019971EB000033D30DF1080A49465046FD
:1052800024F0C0FDBBEB0800069004D0411E02A82C
:1052900037F023FD40B146F0F4FE404629F005FA10
:1052A00010B145F0E3FEF8E702AD0020D6E90212A6
:1052B000914202D1327CD2070CD006EBC101896940
:1052C00041B9284649463CF079FF029800287DD034
:1052D0000120EBE7C0071CBF06F170003DF00EF89F
:1052E000009945F0DFFB3D4904F59D60D0E926BA01
:1052F000D4F888050968C9056BD13A4925F095F8B5
:105300000646D0E90058D0F8FC0006F108090191E2
:105310000138C6F8FC00484621F09CFB2D1A68F1C4
:105320000000BBEB05017AEB000037D30DF1080A52
:105330004946504624F045FEBBEB0500069004D0DC
:10534000411E02A837F0FEFC48B146F09AFE4046E6
:1053500029F00DFA18B1816801398160F7E702ADD3
:105360000020D6E90212914202D1327CD2070FD03E
:1053700001EB410106EB8101C96949B9284649465B
:105380003DF046F89DF8080002281FD00120E8E70C
:10539000C0071CBF06F1F0003CF0B0FF019945F0DA
:1053A00081FBD4F8701519B1D4F87405C968884721
:1053B000D4F8781500293FF4B5AED4F87C05C96857
:1053C0000BB0BDE8000FBDE8F040084706483AF0D2
:1053D00049FB03483AF000FD3AF0A8FD04ED00E077
:1053E0003D00000024B80600C4C1060080B56F4629
:1053F000017B032918BF80BD1030BDE8804001F05B
:10540000CCBBD0B502AF044690F83B0003280FD0C8
:10541000042805D005280ED1D4E91101FFF751FD6C
:1054200094F83A00012804BFD4E9080144F0C4FD0F
:10543000002084F83A00D0BDD0B502AF044690F801
:105440006804032804BF04F58260FFF7DAFF94F8CC
:105450002701033804281AD8DFE800F003150D10DF
:10546000080004F5A07001F0D0FA10E004F5947083
:1054700000F0D8FF0BE004F5947006E004F5A4708A
:1054800000F058FE03E004F5A07000F034FE94F83C
:105490007203042809D0032818BFD0BD94F8B603BE
:1054A000032824BF002084F8B50304F5547207CA0A
:1054B000BDE8D04000F0F4BAD0B502AF044690F891
:1054C000B602042805D005280DD104F52E7001F090
:1054D00071FA94F8B50218B104F5E07000F04CF9D7
:1054E000002084F8B50294F8BA03042804BF04F538
:1054F000707000F02AFE2046BDE8D040FFF797BD4F
:1055000080B56F46C0B2BDE880405DF0AFBFD4D477
:10551000F0B503AF4DF804BD0A46064646F0A5F9BE
:105520000C461349054606F5767041F0D1FE0E464D
:1055300095F85E13B1B1013985F85E13090604BF11
:1055400095F85C13042905D045F05CFC45F021FB7F
:1055500045F0B2BA103041F20131A5F85C133BF0CE
:1055600079F9F1E703483AF037FC3AF0DFFC00BF85
:10557000A0C40600B500000080B56F460146406833
:105580004A7A00F5B7601AB1BDE8804021F0B3B99E
:10559000097ABDE8804021F092B980B56F4680BDA0
:1055A000B0B502AF456875B102890068D0E9000165
:1055B00024F0AAFA38B10C46D0F84013294446F03A
:1055C000F9F845F0E6FAB0BDF0B503AF4DF8048D3B
:1055D000044601790068FFF79BFF41F290102618FE
:1055E000215875688D4208D1307AC00705D1002155
:1055F0004FF00408042000250FE041F29C1004EB5A
:10560000000801EB81008D4208EB800091BFC1F1E1
:105610000101691A00254FF0040801F024FB4046FF
:10562000294601F020FB316A11B1706AC9688847C8
:10563000B16A11B1F06AC968884704F108005DF8E1
:10564000048BBDE8F040FFF7C7BCB0B502AF88B02F
:105650000446D0E9062043690020009002AD2146AF
:10566000284601F08BFE2846FFF75EFC204608B076
:10567000BDE8B04000F072B8F0B503AF4DF804BD1E
:10568000066804460579D6E900012A4624F04DFD56
:10569000D4E902010A6921469047304629465DF85F
:1056A00004BBBDE8F040FFF733BFB0B502AF88B030
:1056B0000446D0E906204369012194F82000CDE991
:1056C000001002AD2146284601F058FE2846FFF79B
:1056D0002BFC204608B0BDE8B04000F03FB8F0B564
:1056E00003AF2DE900078AB0D0F800A00446866811
:1056F0000020A0601EB304F10C000DF1140808F1A5
:10570000080190E82C002CC194F80490DAE900011B
:105710004A463FF017F90A68B0F85803013A0A60A0
:105720000AF57E71ADF8140068464246069623F0ED
:1057300089FB019828B1029944F03EFC01E094F8FD
:10574000049050464946FFF7E3FEE16800200AB0A6
:10575000BDE80007BDE8F040FFF7B3BBD0B502AF2E
:105760000446D0E90201FFF7ACFB21792068BDE8CF
:10577000D040FFF7CDBED4D480B56F4602C8DFE875
:1057800001F002020206BDE88040FFF75EBFBDE8FF
:105790008040FFF78ABFD0B502AF24F0B5F968B1F9
:1057A0000C4690F86F130022012980F86F2304BF84
:1057B00000F51E703BF04EF845F0EBF9D0BD80B51A
:1057C0006F4600F5B7600021BDE8804021F077B852
:1057D00080B56F4600F5BD600021BDE8804021F036
:1057E0006EB880B56F4600F5BA600021BDE8804014
:1057F00021F065B80168426C8A429EBF00210160B9
:10580000704780B56F46024B10460A4639F012FCCD
:10581000F4CB06000168426B8A429EBF0021016002
:10582000704780B56F46024B10460A4639F002FCBD
:10583000F4CB0600D0B502AF044602688068211D93
:10584000024B29F075F900202060D0BDF4CB060092
:10585000F0B503AF2DE9000F89B0824629480068F2
:10586000C0054AD18946294945F022FC0546D0E9C0
:105870000046406E46F094FB6866584621F088F872
:1058800045F053F832D3E9465946484624F079FAB0
:1058900046F0B9F804D0411E684637F01EFA40B110
:1058A00005AC44F0B3FF45F0F9FB10B145F0DEFB69
:1058B000F9E700206C46D5E90212914202D12A7C18
:1058C000D2070DD005EBC101896949B92046594677
:1058D0003CF03CFC9DF8000002280BD00120EAE7D8
:1058E000C0071CBF05F150003CF0FEFC44F008FD71
:1058F00044F056BD06483AF0B5F803483AF06CFA61
:105900003AF014FB04ED00E03D00000024B806006E
:10591000C4C10600F0B503AF2DE9000F89B082467F
:1059200028480068C00547D18946284945F0C0FB92
:105930000546D0E9004B806A05F130080E46013873
:10594000A862404621F05CF844F05DFD32D3E946A0
:105950004146484624F0A2FA46F055F804D0411ECC
:10596000684637F0DDF948B144F03CFE204628F0A7
:10597000E7FE10B145F087FBF8E756460021D5E970
:105980000C02801A18BF012095F838201043C00778
:105990000AD0E86B40B9404624F097FA012100286C
:1059A000EDD10B483AF05EF8C8071CBF05F11C00AA
:1059B0003CF0A4FC44F0DCBC03483AF00DFA3AF0A9
:1059C000B5FA00BF04ED00E03D00000024B8060079
:1059D000C4C10600F0B503AF2DE9000F89B08246BF
:1059E0002B480068C0054ED189462B4945F060FB25
:1059F0000546D0E90046C06C46F0D2FAE864584645
:105A000021F00CF844F091FF36D3E9465946484658
:105A100024F06DFA45F0F7FF04D0411E684637F0D8
:105A200091F950B105AC44F0F1FE204628F09FFEFC
:105A300018B1816801398160F7E700206C46D5E92B
:105A40000212914202D12A7CD2070FD001EB410110
:105A500005EB8101C96949B9204659463CF02FFC44
:105A60009DF80400FF280BD00120E8E7C0071CBF09
:105A700005F140003CF042FC44F042FC44F090BC94
:105A8000064839F0EFFF03483AF0A6F93AF04EFA2B
:105A900004ED00E03D00000024B80600C4C106008B
:105AA000F0B503AF2DE9000F89B0824628480068A1
:105AB000C00547D18946284945F0FAFA0546D0E99C
:105AC000004B806D05F160080E460138A865404620
:105AD00020F0B2FF44F097FC32D3E94641464846F5
:105AE00024F033FA45F08FFF04D0411E684637F0AA
:105AF000F4F840B144F076FD45F0D0FA10B145F02D
:105B0000B5FAF9E756460020D5E91812891A18BFE8
:105B1000012195F868201143C9070BD0296F49B9B5
:105B200040463CF025FCC1B201200229ECD10B48D3
:105B300039F098FFC0071CBF05F14C003CF0DEFBBC
:105B400044F016BC03483AF047F93AF0EFF900BFC9
:105B500004ED00E03D00000024B80600C4C10600CA
:105B6000F0B503AF2DE9000F89B0824624480068E4
:105B7000C0053FD18946244945F09AFA44F0C9FE50
:105B800044F041FC31D3E9464146484624F0DDF972
:105B900045F039FF04D0411E684637F09EF840B109
:105BA00044F020FD45F07AFA10B145F05FFAF9E7CC
:105BB000564600206C46D5E91412891A18BF0121F7
:105BC00095F858201143C90709D0296E39B92046E4
:105BD00041463CF0F9FB009848B10120EBE7C007D3
:105BE0001CBF05F134003CF07FFB44F0C1BB07480B
:105BF00039F038FF03483AF0EFF83AF097F900BF70
:105C000004ED00E03D00000024B80600C4C1060019
:105C1000F0B503AF2DE9000F89B08246284800682F
:105C2000C00548D18946284945F042FA0546D0E9E1
:105C30000046C06F46F0B4F9E867584620F0A8FE69
:105C400044F073FE30D3E9465946484624F092F9B1
:105C500045F0D9FE04D0411E684637F03EF840B109
:105C600005AC44F0D3FD45F019FA10B145F0FEF94A
:105C7000F9E700206C46D5E90212914202D12A7C54
:105C8000D2070BD005EBC101896939B920465946C5
:105C900024F085F9009858B10120ECE7C0071CBF3B
:105CA00005F168003CF020FB44F02AFB44F078BB8F
:105CB000064839F0D7FE03483AF08EF83AF036F944
:105CC00004ED00E03D00000024B80600C4C1060059
:105CD000F0B503AF2DE9000F89B082462548006872
:105CE000C00541D18946254945F0E2F944F011FE4D
:105CF00044F089FB33D3E9464146484624F07AF91B
:105D000045F081FE04D0411E684636F0E6FF40B102
:105D100044F068FC45F0C2F910B145F0A7F9F9E785
:105D2000564600206C46D5E91412891A18BF012185
:105D300095F858201143C9070BD0296E49B9204660
:105D400041463CF087FB9DF80000FF2809D0012068
:105D5000E9E7C0071CBF05F13C003CF0CFFA44F076
:105D600007BB074839F07EFE03483AF035F83AF0B1
:105D7000DDF800BF04ED00E03D00000024B806009F
:105D8000C4C1060080B56F4609490968C9050AD132
:105D9000094924F04AFBD0F8F020013AC0F8F0207D
:105DA00044F080FE80BD03483AF016F83AF0BEF8A1
:105DB00004ED00E03D00000014B8060080B56F4619
:105DC00009490968C9050AD1094924F02EFBD0F810
:105DD0000021013AC0F8002144F064FE80BD034870
:105DE00039F0FAFF3AF0A2F804ED00E03D000000BF
:105DF00014B8060080B56F4608490968C90508D17E
:105E0000084924F012FB026C013A026444F04AFE95
:105E100080BD034839F0E0FF3AF088F804ED00E077
:105E20003D00000014B8060080B56F4690F8881059
:105E3000032918BF80BD2C30BDE8804000F081BE32
:105E400080B56F4690F8C910032918BF80BDBDE822
:105E5000804000F018B980B56F4690F8C81003294B
:105E600018BF80BDBDE8804000F00DB980B56F4619
:105E700090F8C210032918BF80BDBDE8804000F033
:105E800002B980B56F4690F8C110032918BF80BDD4
:105E9000BDE8804000F0F7B880B56F4690F89913E0
:105EA000032918BF80BD4830BDE8804000F0E2BD46
:105EB00080B56F4690F89414032918BF80BD203038
:105EC000BDE8804000F0B4B880B56F4690F8EC10A3
:105ED000032918BF80BD1830BDE8804000F00CB821
:105EE00080B56F4690F8F810032918BF80BD2430A4
:105EF000BDE8804000F000B880B56F4690F84410CF
:105F0000032908D0042918BF052909D14830BDE864
:105F1000804000F016BE4830BDE88040FFF784BFE7
:105F200080BD80B56F4690F8A610032918BF80BDCC
:105F30001C30BDE8804000F00CB880B56F46817F12
:105F40000339012988BF80BD2430BDE8804000F0BE
:105F500000B8D0B502AF044690F82700042818BF57
:105F6000D0BD04F13C0000F006FDE06A228ED0E9CD
:105F70000001BDE8D040FFF70EBC80B56F46417C04
:105F8000042918BF80BD4068BDE88040FFF70EB807
:105F9000D0B502AF044690F83500032809D0042894
:105FA00003D0052818BFD0BD03E004F1380000F08D
:105FB0006DFC002084F83400D0BDD0B502AF04469B
:105FC00090F83500032804D0042807D0052818BF0E
:105FD000D0BD04F1380000F009F803E004F1380006
:105FE00000F054FC002084F83400D0BD80B56F462A
:105FF00090F85010063907290AD8DFE801F00A0F97
:106000000904091409045430BDE8804000F03DB98A
:1060100080BD5430BDE88040FFF762BF5430BDE81A
:10602000804000F020B95430BDE8804000F04FBC03
:1060300080B56F4690F87810042907D0052918BF5D
:1060400080BD7C30BDE8804000F0CABD8030BDE836
:10605000804000F05DB980B56F4690F822100529A8
:1060600018BF80BD2C30BDE8804000F0C0BB80B5BB
:106070006F4690F82010042918BF80BD2430BDE879
:10608000804000F084BC80B56F4690F87C100329F6
:1060900018BF80BDBDE88040FFF7E9BF80B56F46FF
:1060A00090F8FC10032918BF80BD1030BDE8804077
:1060B00000F00BB880B56F4690F8E010032918BFC8
:1060C00080BDBDE8804000F00BB880B56F4690F809
:1060D000DE10032918BF80BDBDE8804000F074BD0C
:1060E00080B56F4690F8D610032918BF80BDBDE873
:1060F000804000F069BD80B56F4690F820100329FC
:1061000007D0042918BF80BD2830BDE8804000F0CA
:1061100088BC3830BDE88040FFF7C0BF80B56F460F
:1061200090F8C010032918BF80BD1030BDE8804032
:1061300000F03EBD80B56F4690F8E210032918BF0D
:1061400080BDBDE8804000F054BC80B56F4690F83B
:106150003410032918BF80BD3830BDE88040FFF7F8
:106160007ABFD0B502AF0446007A032804D00428D1
:1061700004D16068FFF706FE00206072D0BDD0B584
:1061800002AF0446807C032804D0042804D1206890
:10619000FFF714FE0020E074D0BDD0B502AF044676
:1061A000C07A032804D0042804D12068FFF706FE33
:1061B00000202073D0BDD0B502AF0446C0790328BB
:1061C00004D0042804D12068FFF714FE0020A07139
:1061D000D0BDD0B502AF0446407A011F022903D2D8
:1061E00020683FF06BFE02E0032818BFD0BD0020FE
:1061F0002072D0BDD0B502AF044690F80D01011F4A
:10620000022904D2D4F808013FF058FE01E0032827
:1062100002D1002084F80C01D0BDD4D4D0B502AF97
:1062200004464FF48F50205C033803281AD8DFE867
:1062300000F00214090F41F2E8102044BDE8D040FC
:1062400000F0FABB41F2E8102044FFF77EFF04E0C3
:1062500041F2E8102044FFF7EFF82046BDE8D040B7
:10626000FFF7B2B9D0BD80B56F46017C032907D0D6
:10627000042918BF80BD1830BDE8804000F061BC23
:106280001430BDE8804000F000B880B56F46017C56
:10629000042918BF80BD1830BDE8804000F051BC13
:1062A00080B56F46017F042918BF80BD2030BDE84E
:1062B000804000F00CB880B56F4690F85810032964
:1062C00018BF80BD0430BDE8804000F02EBC80B512
:1062D0006F4690F85C10032918BF80BD0830BDE8F8
:1062E000804000F022BCD0B502AF044690F85C00BC
:1062F000011F042906D3032818BFD0BD04F1600094
:10630000FFF73BFEE06B4068BDE8D040FFF757BAAF
:1063100080B56F46017C0339052909D8DFE801F013
:10632000030E080910151830BDE8804000F028B8A9
:1063300080BD1830BDE8804000F02DB8203000E06E
:106340003030BDE8804000F005B81830BDE880402E
:1063500000F09EBB80B56F4690F84613032918BF26
:1063600080BDBDE8804000F085BB80B56F4690F8E9
:106370003E13032918BF80BDBDE8804000F07ABB02
:1063800080B56F4690F84013032918BF80BDBDE863
:10639000804000F06FBB80B56F4690F8481303292A
:1063A00018BF80BD0830BDE8804000F063BB80B5F9
:1063B0006F4690F84513032918BF80BDBDE88040A3
:1063C00000F058BB80B56F4690F84413032918BFFE
:1063D00080BD0830BDE8804000F04CBBD0B502AFB6
:1063E000044690F89703032804D145F08FFE00205F
:1063F00084F89603D0BD80B56F46017E032918BF8F
:1064000080BD1C30BDE8804000F074BA80B56F4696
:1064100090F82410032938BF80BD2830BDE88040A3
:10642000FFF79FBEB0B502AF90F8D020062A0ED875
:106430000446082004212546DFE802F02B09090460
:106440000E0A040004F1D80000F02CF804E0B0BDFE
:1064500004F1D800FFF7DAFF04F1C00207CAFFF722
:106460001FFB04F1B00207CAFFF754FA04F1A002BF
:1064700007CAFFF7EDF904F1900207CAFFF770FBB6
:1064800004F1800207CAFFF7C3FB04F1400548206E
:1064900044212258204443686058816A2868BDE836
:1064A000B040084780B56F4690F8F410032918BF34
:1064B00080BD0C30BDE8804000F013BB80B56F4656
:1064C000017C03290ED0042907D0052918BF80BDFF
:1064D0001830BDE8804000F00AB81830BDE88040B0
:1064E00000F0A5B82030BDE8804000F0C7B880B506
:1064F0006F4690F82810032907D0042918BF80BDE3
:106500003030BDE8804000F092B83030BDE88040C7
:1065100000F0B4B880B56F4690F8491003390729E8
:1065200088BF80BDDFE801F00D04081204080606EC
:1065300050300CE0503005E05030BDE88040FFF7AF
:10654000D6BF6030BDE8804000F098B85830BDE854
:10655000804000F06CB8D4D4D0B502AF044690F8B7
:1065600007010338082820D8DFE800F0050B050BE9
:10657000100808051A0004F58C7009E004F588700D
:1065800001E004F58C7000F052F803E004F5887027
:1065900000F074F804F16000BDE8D040FFF72AB9BC
:1065A00004F58C7000F050F8F4E7D0BD80B56F466C
:1065B000017C032907D0042918BF80BD1830BDE82D
:1065C000804000F005B81830BDE8804000F023B8E6
:1065D00080B56F4690F830100339052988BF80BD1B
:1065E000DFE801F00A030F030514403000E0383003
:1065F000BDE8804000F028B83830BDE88040FFF7A3
:10660000ABBF3830BDE88040FFF784BF4030BDE805
:10661000804000F033B880B56F4690F8D713032957
:1066200018BF80BD4830BDE88040FFF7D1BF80B5BE
:106630006F46017C052918BF032904D11830BDE835
:10664000804000F01BB880BD80B56F4690F82310E5
:1066500003290ED0042907D0052918BF80BD283092
:10666000BDE88040FFF756BF2830BDE88040FFF707
:10667000DEBF3030BDE8804000F000B880B56F4626
:10668000017C032918BF80BD1830BDE88040FFF7AA
:1066900084BDD4D480B56F4690F8801004390629A3
:1066A00088BF80BDDFE801F00404040404090E0083
:1066B0008830BDE88040FFF758BE8830BDE8804094
:1066C00000F005B88830BDE8804000F00CB880B517
:1066D0006F4690F82C14032918BF80BD7830BDE8B0
:1066E000804000F0C7B9D0B502AF044690F8CE03A1
:1066F000032806D104F1080000F0BCF9002084F85A
:10670000CD03D0BD80B56F46C0B2032818BF80BD91
:10671000BDE88040FEF71CBCD0B502AF044690F83F
:106720002000042806D1E0690078FEF7E9FE002089
:1067300084F82200D0BD80B56F4690F84010032940
:1067400018BF80BD0C30BDE88040FFF7E5BF80B5C5
:106750006F4690F84410032918BF80BD1030BDE883
:106760008040FFF7D9BFD4D480B56F46017E03398E
:10677000C9B2082988BF80BD034A52F821100844D5
:10678000BDE88040FEF790BBC413070080B56F469C
:1067900090F80013032918BF80BD00F58470BDE890
:1067A0008040FFF70ABC80B56F4690F8D8110329E6
:1067B00018BF80BD0C30BDE88040FFF7E9BB80B555
:1067C0006F46017B042918BF80BD8068BDE880400A
:1067D000FEF7ECBB80B56F4690F8A810032998BF70
:1067E00080BDD0F89000BDE88040FEF7DFBB80B5EB
:1067F0006F4690F8B210032918BF80BD0830BDE87D
:106800008040FFF78EBBD4D480B56F46817C0E39B3
:106810000B2911D8DFE801F006101011101010102C
:10682000060B100B1830BDE88040FFF7D3BF1430C3
:10683000BDE88040FFF7C3BF80BD1430BDE8804095
:10684000FFF77BBB80B56F46017B032918BF80BD76
:106850000430BDE8804000F083B8D0B502AF0446F4
:1068600090F83100052809D006280ED104F148001F
:1068700000F081F8A06BA28F43F036FED4E900014E
:1068800043F09AFB002084F83000D0BD80B56F46FD
:1068900090F82C100339052918D8DFE801F0031708
:1068A000170D08123030BDE88040FFF7F9BC3030DA
:1068B000BDE88040FFF7E9BC3030BDE88040FFF71D
:1068C00006BD3030BDE8804000F001B880BD80B525
:1068D0006F4690F86010052907D0062918BF80BDC3
:1068E0006430BDE88040FFF7F2BC7430BDE8804002
:1068F000FFF7EABAD0B502AF044690F83D00092888
:1069000007D80121814011F46E7F03D0002084F864
:106910003C00D0BD0628FCD104F14000FFF7B6FFD3
:10692000F4E780B56F4690F82D1041B1032918BFE8
:1069300080BDD0E90601BDE88040FEF7C2BAD0E9CB
:106940000001BDE8804043F037BB80B56F46017A57
:10695000052918BF80BD1030BDE88040FEF746BD58
:1069600080B56F464179032918BF80BD0430BDE86A
:10697000804039F0C5BE80B56F4690F825100429D7
:1069800018BF80BD2830BDE88040FEF709BE80B545
:106990006F4690F8441039B1032918BF80BD1430F8
:1069A000BDE88040FFF7BDBFD0E90101BDE88040F0
:1069B00043F002BBD0B502AF044690F8880003282C
:1069C00001D028B1D0BD04F14000FFF7E0FF18343A
:1069D0002046BDE8D040FEF782BE80B56F4690F8F5
:1069E0009810032918BF80BD5030BDE88040FFF7E4
:1069F000CEBF80B56F4690F8CE10032918BF80BD7A
:106A00000830BDE8804000F0DFB880B56F4690F8F0
:106A1000B011032918BF80BDE030BDE8804000F010
:106A2000D3B880B56F4690F8F010032918BF80BD29
:106A3000BDE88040FFF73EBBD0B502AF044690F8FA
:106A40002900032803D0042818BFD0BD03E004F1B7
:106A50002C00FFF79CFF002084F82800D0BD80B5F3
:106A60006F4690F83011032918BF80BDBDE8804003
:106A7000FFF7AFBB80B56F4690F83013032918BFFE
:106A800080BD00F58470BDE88040FFF7B3BBD4D46F
:106A900080B56F46417B03390C2988BF80BDDFE894
:106AA00001F0070C0707070C0C0C0C071B11160054
:106AB0001030BDE88040FFF758BC1030BDE8804082
:106AC000FFF780BC1030BDE88040FFF787BC203066
:106AD000BDE88040FFF76BBC3030BDE88040FFF779
