:1010000008FC0320011100006BDC030065420600B0
:101010006BDC03006BDC03006BDC030000000000F2
:101020000000000000000000000000006BDC030076
:101030006BDC0300000000006BDC03006BDC0300D2
:1010400059110000C11100006BDC03006BDC0300D0
:101050006BDC03006BDC03006DE103004512000054
:10106000911200006BDC03006BDC030039120000FE
:101070006BDC0300CD1100006BDC03006BDC0300B4
:101080006BDC030045E203006BDC03006BDC030058
:10109000AD1100006BDC03006BDC03006BDC0300B4
:1010A0006BDC03006BDC03006BDC03006BDC030018
:1010B0006BDC03006BDC030000000000000000009C
:1010C0006BDC03006BDC03006BDC03006BDC0300F8
:1010D0006BDC03006BDC03006BDC03009D12000083
:1010E0006BDC03006BDC03006BDC03000000000022
:1010F000000000006BDC0300000000006BDC03005C
:101100003CF0B6FD0E480F490022814201D004C0D8
:10111000FBE70D480D490E4A814202D008CA08C0BB
:10112000FAE70C484FF47001026842EA01020260DB
:10113000BFF34F8FBFF36F8F39F0CEFE00DE00009C
:1011400080220020781F0120080000207C2200203F
:1011500098F8060088ED00E0B0B502AF5CF0A4FEA0
:10116000104C206828B1002020600F4824303DF04A
:10117000FBFA606850B10C4D0020606005F124005E
:101180003DF0F2FA05F11C003DF0EEFAA06838B12E
:101190000020A06004481C30BDE8B0403DF0E4BA37
:1011A000B0BD00BF1C010040180A012080B56F4689
:1011B0000248BDE880403DF0D7BA00BFCCF5002022
:1011C00080B56F46BDE880405EF000BAF0B503AF71
:1011D0004DF804BD154E002030603EF089FB144DE3
:1011E0000446A869F0B94FF0FF30A861686A78B189
:1011F000A96A88420CD0D6F808140170D5E9090113
:1012000001306862884204BF05F11C003DF080FA9D
:10121000A8690130A86120465DF804BBBDE8F04034
:101220003EF09CBB03483CF0A3FB00BF00D1004054
:10123000940A012074BD060080B56F46BDE8804069
:101240005FF060B8D0B502AF0F4C206930B110200C
:10125000C4F808020D4834303DF086FA606830B1B9
:101260000220C4F80802094834303DF07DFA2068B5
:1012700040B10120C4F8080204483430BDE8D04031
:101280003DF072BAD0BD00BF00710040180A0120C5
:1012900080B56F46BDE880405EF08CB9F0B503AF15
:1012A0004DF8048D84B0344C206858B1334D012082
:1012B000C4F8080205F124003DF056FA05F12C00AF
:1012C0003DF052FAE06D38B14FF40000C4F8080266
:1012D0002A482C303DF048FAA06A38B14FF48060BB
:1012E000C4F8080225482C303DF03EFAA06D28B124
:1012F0000020A065214824303DF036FA206EB8B3B6
:1013000000202066D4F86C631C48C4F86C63BFF3FB
:101310005F8F50E8051F314340E80512002AF8D1DD
:101320000020BFF35F8F8DF80C0007200DF104083B
:1013300002900120019040462CF03AFE012817D17E
:1013400001F01F040D4626FA04F0C00704D0284619
:101350002FF01EFA3DF008FA84F0100026FA00F093
:10136000C007E8D028462FF039FA3DF0FDF9E2E752
:1013700004B047F05CBA00BF00710240180A0120B7
:1013800080B56F468A68930105D4520108D4BDE840
:1013900080403CF024B80068BDE880403CF055BB7C
:1013A0000068BDE880403CF03ABCD0B502AF0446CE
:1013B00008302CF0F2FD012808D1D4E900021144D4
:1013C000B1FBF0F202FB10110120D0BD0020D0BD16
:1013D000F0B503AF4DF8048D054625480068C005FB
:1013E00038D108680C46D0BB4FF0FF3090462060E3
:1013F000207B012805D104F1D8003DF089F9217B3B
:1014000000E00021D4E90102904201D1C9070FD0C8
:1014100000212173411C00EB4000B1F1100218BF04
:101420000A46626004EB800111F80E6F042E07D1AA
:10143000D8E9001204F1D0003DF077F9042603E06A
:10144000681C013148F008F920682E7001302060D6
:1014500047F0EDB907483CF0BDFC3CF0E3FC064822
:101460003CF0ACFC43F050FD3CF090FD3CF0DAFC6D
:1014700004ED00E03D00000087000000F0B503AF80
:101480002DE9000FADF5D85D85B08B460646D0E955
:101490000001CDE917B680F003020A430D9201F076
:1014A0000D83084318BF0120159040F08681307CE1
:1014B000CC4D80B1032840F04F82304610F8281FF1
:1014C00014901038DFE811F005002700A5215B001B
:1014D0000A0000682CE0B068F06022E0314611F8A4
:1014E000CC0FA1F1A00C109180B1032816D1354684
:1014F00015F8C80FA5F1940458B103281395CDE948
:10150000114C00F0E180B8483CF0D9FADCF800005A
:1015100094E02068ADE0B5483CF0D1FAB4483CF026
:10152000CEFA3246002142F8180F02F8101F14922A
:10153000F061C16C04223162006DC6E90C12706268
:1015400006F130002CF029FD012869D10329F16250
:101550000BD8F06908442946007E47F0E9FC28BF13
:1015600001F5407148F0A8F808600DF5176046F0E5
:10157000DEFF46F0E4FBC6E90E1286F84000DBF819
:10158000001006F138003DF041FA002840F02182B9
:10159000306A0025F16A4FF07D084FF00109814261
:1015A00008BF756A1C2000EBC50A052D32D8F0690A
:1015B000284454303CF0EAFFF46A042C80F01C828A
:1015C000F16901EB4406214411F82510884212D03C
:1015D0003CF0B2FEA0FB080201FB0821000B40EA30
:1015E000015001040AD036F80A1029B1401A80B21D
:1015F000132803D97CE1002026F80A00189EF06920
:10160000011911F8251009B180F85A9001350AF135
:10161000080ACAE7F06A032840F25D81714D8FE73E
:10162000F06990F85A10002940F04D81B44600212D
:101630004CF82C0F624602F8A01F1092306318304D
:10164000002101220BE0435C2C46202B03F01F03FA
:1016500028BF04F54074013102FA03F32360042922
:10166000F1D1306B344644F8340F0021254605F89B
:10167000941FA0A900220023062B03D041F82320A9
:101680000133F9E754300022062A04D0831841F8C8
:1016900022300132F8E713950DF51762CDE9114CB0
:1016A000A0A800210023242B07D010C842F8234013
:1016B00002EB830406332175F5E706F138000DF5DA
:1016C0001761902261F072FC4FF0000A4FF00009A0
:1016D00006F138001690B9F1900F64D04E4406F12F
:1016E000380196F84C00E8B1032840F08A8116983A
:1016F000344614F8482F4844A4F10C01D2B1032A0F
:1017000040F08281354615F8452FA5F1050B002ADA
:1017100040D0032A40F07B814FF0000A96F8440045
:10172000884627E00868B04648F83C0F444604F86D
:101730000CAF04E000F1040800F110040868B3469F
:101740004BF8400F0BF10505CBF804A025494FF0ED
:10175000000A48F022FA38BF4FF0A041022301EB03
:101760008201D1F8002763F31142C1F80027007805
:1017700086F84400179909683CF054FF002865D0AA
:10178000032009F118092870207086F84C00DDE963
:1017900017B6A0E700F1080200F10D05DBF8000024
:1017A00088469346D2E71399032008701099087071
:1017B00004201499087003203074D6E934010843DA
:1017C00018BF0120149040F0818196F8000106F1C5
:1017D000D808DFE810F00F001E201E20E100930261
:1017E000CF0000BF08050050606B0600E8690600E6
:1017F000186B0600D6F8F800C6F8FC00C64800686A
:10180000C00545F0BB84C54C2068002841F0E1814B
:10181000D4F88400022880F0FD800130C4F88400F0
:101820000DF5176000212160D4E902563EF092FCCC
:101830000DF51762189B07CA03F1E80CC3E9365689
:101840001E46ACE80700C3F8E040F6E006F13800B9
:101850000C303CF0D3FE4FF00109584685F800905B
:101860002AF0A6FC404684F800902AF0BAFC1698AC
:1018700086F84C902BF012FA189E119886F8C890B2
:101880002BF089FD306B0021DDF85CB0A44D1830E1
:1018900004290BD0425CA34B202A02F01F0238BF60
:1018A0002B1D013109FA02F21A60F1E710990120AB
:1018B0000870129991F8A000032804BF01F10800F4
:1018C0002BF069FDF069002180F85A10F069C0E939
:1018D0001311F0692DE6F169914D08449149007E9C
:1018E00047F026FB38BF291D47F0E6FE086027E6D3
:1018F0004FF0000C26F80AC0189EF16901EB850133
:101900000A5D82F001020A55F169F26AC1E9132504
:101910000121F26982F85A10F26A032A0CD8F3699D
:101920007F481A447F4B127E202A02F01F0238BFE4
:10193000031D01FA02F21A60F269280600EB044066
:1019400002EB8502764D125D86F82810104486F869
:1019500020C000F1C060B06106F11804DBF800108F
:10196000204625F019F9002835D120462AF0F8FB49
:10197000F068D6E596F8121106F5897906F5B47483
:1019800006F58C70DFE811F005005300451F1C00C0
:101990000B00D6F8081111E1D6E9551061E096F870
:1019A0006811D1B1032945D1189A02F5AE7592F8A4
:1019B0005C11F1B1032900F032815B483CF07FF803
:1019C00096F8681171B1032900F0598157483CF02D
:1019D00076F80320EDE60420EEE696F86921D6F8C5
:1019E0006411FEE096F85E31B6F85C21D6F8581125
:1019F00034E1D2F8581103E14D4A204604213BF06E
:101A000035FB4C483CF05BF84B483CF058F84B48F1
:101A10003CF055F800204A4B20600DF517628DF818
:101A20007009BB214748009047483BF0F0FF47480A
:101A30003CF045F846483CF042F800200121C6E958
:101A4000581086F8EC0186F85001D6F8FC00C6F86C
:101A5000E80106F58470C6E9421806F5B071C6E9DA
:101A600055105E9104A901F5A3510DF517640DF50C
:101A700020790025C1F860054FF0000A3548CDF8FF
:101A80007C0904A800F5CE50CDF878093248CDF88D
:101A900074095EA8CDF87009102D0FD06019615936
:101AA0005A4647F062FC9DF88362032E02D0042E52
:101AB00002D053E04FF0010A0835EDE7189E5FEAC7
:101AC000CA7000F09881032086F80001D6E97C01F5
:101AD000084318BF0120139040F0D98106F5FC7926
:101AE00096F8A402CDF85890002800F0D68096F819
:101AF0002002042800F00E81032840F0198196F896
:101B00006C0206F51B78002800F04081032840F0A5
:101B10008381D6E999208BE104ED00E0F0FC002000
:101B2000080500500C0800509C6F0600BC8406009D
:101B3000F8690600006C0600E06B0600C06B06004A
:101B4000B8CB060034D5060078D40600386A060003
:101B5000AC840600A4A0060090A006009DF88202B6
:101B60008DF86600BDF88002ADF86400A19804A964
:101B700001F5A3590DF58051189DC9F80000BDF875
:101B80008802A1F8740405F5B070DDF88A422BF0E4
:101B900027FC022E40F089800DF58051D9F8000015
:101BA00005F589792E46B1F87414A5F810110021B5
:101BB00085F81211D5F8FC10C5E9421096F80C0111
:101BC00006F5B474C0073AD00020C6F8641186F850
:101BD000680196F80D0100F0010286F8692106F50A
:101BE0008C70C6F8601191F83830022B21D186F83C
:101BF0005D21002286F85C2106F5AE75C6F8581105
:101C0000CA79012A13D1189B0022C3F81C1193F83A
:101C10005D1183F8222181F0010183F82311DBF8A3
:101C200000101EF0E3FEC0B2082800F0CB800120B7
:101C30002870189E0120207048F087F8FDE60020EB
:101C400096F81031B6F80E2186F8680106F58C700A
:101C5000C6F8581186F85E31A6F85C2186F8663120
:101C6000A6F86421C6F8601191F83A50AB42E0D171
:101C70000023A6F8202186F82431C6F81811DBF8D5
:101C800000100EF0B1FDC0B20121082808BF0321E9
:101C9000189E2170D0D1032099E0002086F8200200
:101CA000D6F8A002C6F8180244E09DF8661005F5C3
:101CB00084708DF87619BDF86410ADF87419DDF8EC
:101CC0007319CDF88312DDF87019A091DDF8832225
:101CD000A099C0F803200160002085F81A01D9F806
:101CE0000000C5F810010DF5805085F80F612E46F3
:101CF000B0F87404C5F81641A5F8140106F584740B
:101D00005946204624F066FE002859D120462AF084
:101D100035FA92E696F83C0206F50F75DFE810F00A
:101D200005007C00791D42003900D6F838B204E184
:101D3000D6F81802C6F81C020DF517603EF014FB29
:101D4000DC48DDF870C9DDF87419DDF8782903681E
:101D5000DB0545F01382D84B1C68002C40F0398716
:101D6000D3F8C440022C4CD2189800251D60D3E94A
:101D70000256C0E982560646C0F81032C0E97EC15C
:101D8000C0F80022601CC3F8C400C9E2D6F82812CB
:101D9000CEE296F85002C00741D1D6F84CB206F513
:101DA0001074DAE096F8600206F51878DFE810F0B3
:101DB00005003A00311D4A021300D6F840B2EDE0AA
:101DC000042081E6189E032020702870042089F8E2
:101DD0000000052078E696F8780206F51E74DFE824
:101DE00010F007002400181DC602D502DF02ED0224
:101DF00096F87902B0E2B148A1215FF8B0223AF03A
:101E0000C3FA00200DF517621860BE218DF8700925
:101E1000AB480090AB4800E3AB483BF050FEAB480A
:101E20003BF04DFEAA483BF04AFEAA483BF047FE75
:101E300019900DF5207AA8480DF517695B920025D9
:101E4000A39019A8A2900026A448A1905BA8A090F6
:101E5000102D10D00AEB05005AF805105A4647F02D
:101E600084FABDF87049022C02D0032C01D029E07D
:101E700001260835ECE7F00700F04382189E0320A6
:101E800088F80000032186F8200286F8A412D6E91B
:101E9000AA01084318BF0120129040F00283904D20
:101EA00006F52C7496F8EC02002800F0F58096F800
:101EB000C802042800F09281032800F0B782D6F807
:101EC000C002F0E004A809F1020100F5CE550E228F
:101ED00046F0F3FBE00704A800F5A35420461DBF1D
:101EE00095E80E000EC001200ECD01BF0EC029885E
:101EF000018000202346DDF858905EA970CB0A4689
:101F000070C20124189E1B881380524686F86C42CA
:101F100038C938C20988A6F8280206F22A2011809A
:101F200051460E22D6F81CB261F023FF0020C6F8FD
:101F300038B286F83C0206F50F75B6F8280206F2AC
:101F40002A21C0071ED006F510740C2246F06AFB49
:101F50000020C6F84CB286F850029BF80300FF2818
:101F60001EBF96F84A12FF29884205D10BF10C00DA
:101F700021460A2261F0E1FE0120DDF85CB086F81E
:101F800050023BE206F511700E22C6F840B261F035
:101F9000F0FE06F51878002086F8600206F252205E
:101FA00006F511710E2261F0E4FE9BF80300CDE905
:101FB0000F58FF281CBF96F85E12814240F09880AF
:101FC0003FF016FB0025122000241E2810D0011D12
:101FD0003044721890F8420230B101280846F4D11A
:101FE000B2F83C520846F0E7B2F83C420846ECE74B
:101FF000DBF804003B499BF800909BF801609BF8DC
:1020000002A03FF043FC90F8488046F019FD002EF6
:1020100018BF6D42B9F1000F18BF64422046BAF1F3
:10202000000F18BF284608BF2C4606B29BF81500C3
:1020300003210FFA84F9012888BF811EC8B20BF171
:102040000C01DFE800F002B058769BF80E009BF818
:102050000F1070439BF80D309BF80C2009FB01F129
:1020600004B284421CBF47F6FF7080EAE6300CB22F
:10207000DDE917B68C420F9D1CBF47F6FF7181EA60
:10208000E931DB07DDF8589018BF4942D20718BF85
:10209000404200220023C3E0002086F8C802D6F8A0
:1020A000E802C6F8C002C6F8C40220463EF0BCF9F9
:1020B000B7E100BF04ED00E080FD0020706A06007B
:1020C0009CD70600DCD60600286B06006C84060050
:1020D0005C840600EC8406004C6B0600386B06003E
:1020E00000000101E4C70600286A0600A89906005E
:1020F000DDF85CB080E19BF80E3031469BF80F00B4
:102100004A469BF80C409BF80D50CDE90003029025
:102110000BF108003FF020F940EA010212045AD006
:10212000EA0718BF4942E20718BF404200220023D5
:1021300072E0189D0A2205F2662A46F004FF95F81F
:102140006C020BF1080495F86D12012222EA0003DB
:10215000204622EA01011291009131464A462E465C
:1021600011933FF024F909B200B200290A46034650
:1021700048BF5242002848BF5B42B6F966829D18AC
:102180002DB2454538DD1DB20FFA82F900234D45C9
:1021900068DA0029C8BF012396F86F6202227340F3
:1021A00018BF032267E09BF80F009BF80E309BF8E6
:1021B0000C509BF80D409BF810109BF811208DE8F7
:1021C00007000BF1080031464A463FF0C5F80246C9
:1021D0000843000417D1DDE917B60FE096F8DD02D9
:1021E000D8B3032840F0948096F8D502C00740F099
:1021F000938096F8D4122DE1DDF85CB0DDF85890AC
:10220000DDE90F58F8E0E80718BF52420B46E00737
:1022100008BF5B4200210020189EDDE9169B0F9D40
:1022200086F86E820024DDF84080A6F86602012060
:1022300086F88442A6F86C22A6F86A32A6F86812DC
:1022400086F86402DBF8001006F5197025F0D0FC62
:10225000002800F0D1800320D9E096F8DC12D6F8EF
:10226000D802F4E00028C8BF012396F86E62042269
:10227000734018BF05221AF80220C8F1000A002690
:102280000E920AB200B2002A1146034648BF4942E4
:10229000002848BF5B42194409B2414519DD4D454C
:1022A00006DA0021002A42462180C8BF524606E0D5
:1022B00000224146ABF80A200028C8BF5146119BB6
:1022C0001298009020463FF072F80136FF2ED8D1C8
:1022D000FF264D45DDF840804FF00000ACBFABF865
:1022E0000A002080DDE9169B002E0F9D00F0838000
:1022F00018990E9A81F8716281F8700281F864224F
:1023000069E05FF84802A1215FF844223AF03CF806
:102310005FF82C023BF0D3FB5FF830023BF0CFFBC1
:102320000020C6F8289286F86C0206F51B7849460C
:1023300000200122C6E98B211031C6F8482206F59B
:102340000B7286F8600286F8440206F51270C6F831
:102350004C12C6E999206BE5002186F8800286F8C8
:102360009C12C6F87C12C6F8811286F8851247F0D6
:102370002CF8002848D10DF51760A42246F09AF9F0
:1023800045F0DDFCC6E9A01286F8880247F035F872
:10239000B0BB002086F89C02C6E99F00A6F8840224
:1023A00047F013F870BB0DF51760A42246F082F9D0
:1023B00045F0C5FCC6E9A01286F8880247F01DF872
:1023C0000121002818BF062186F878121ED196F840
:1023D000700296F87162B0420DD2189E0130002151
:1023E00006F51E7486F8700296F8640286F8781274
:1023F00086F87902B0E7189E46F09EFD28708FE7B8
:10240000042002E0052000E00320207004200321C6
:1024100088F800002970042034E55FF8DC383BF0D0
:10242000F6FA0020C6F8D04286F8E402DBF8001085
:1024300006F534700DF072FBC0072DD1002086F830
:10244000DC1286F8DD02D6F8C402C6F8D802CAB299
:10245000C6E9B402C8B206280AD007280DD140F256
:102460000130ADF87409D248CDF87009032007E0B7
:10247000D048CDF87009042002E00220CDF8705950
:10248000ADF879090DF5176024F000FA012086F8FF
:10249000DD0286F8D502C4E7032086F8EC0286F850
:1024A000C802D6E9BC0150EA010918BF4FF0010982
:1024B00040F0F88296F80003CDF85890E0B1032878
:1024C0001FD196F82C0306F5427A06F54B750028C5
:1024D0002DD0032840F0648096F8100306F5447868
:1024E000DFE810F0070067009719A4001F029700AB
:1024F000E800DAF8000072E0D6F8F802C6F8FC024C
:102500005DE096F8160306F2163BDFE810F09F0137
:102510004C008219050013001798016806F54A70EF
:102520003CF074FA002800F098810320B3E2D6F85A
:1025300028034DE096F82A0306F5467806F22A3A73
:10254000DFE810F0A40134006719D801050096F8FF
:10255000370306F54C7906F23734DFE810F0050052
:1025600024005A190C020800B6F834039DE196F8CD
:10257000460368B103281FD1B6F83C030021A6F832
:102580003C13012809D1B6F83E53D6F8400319E2AE
:10259000B6F84453D6F838030DE287483AF056FDB2
:1025A00086483BF08CFA86483BF089FA85483BF038
:1025B00086FA85483BF083FA84483BF080FA002194
:1025C000C6F8280386F82C1306F5427A06F54B75F3
:1025D0000021C6F8080386F8101306F54478C6F8FB
:1025E0000C03D0E90612114318D00168C9071CBFBB
:1025F00090F82710002940F08881D0E904230DF5D8
:1026000017603CF02FF945F09AFBC6E9C61286F830
:10261000200346F0E6FEC0B105208EE1002186F8D9
:102620001C1300F122012830C6E9C50146F0DFFE87
:10263000002840F07F8196F81C032BF0B4FB3BF0A0
:102640007BFED6F80C23C2E90601D6F80C03D0E9CC
:1026500006013CF025F9002249F6BA13181A72EB6C
:1026600001003EBFD6F80C03012180F8271047F087
:10267000DFF9012847D191F82A00012804D05448F5
:102680003BF0A8FBD6F80C1391F826000022222379
:1026900080F0010081F82600D6F80C0390F826108F
:1026A00086F81C2300F12802002918BF20231844B3
:1026B000C6E9C52046F09BFE002840F03D8196F813
:1026C0001C032BF070FBD6F80C03418C028C511AC2
:1026D00009B2002948BF494209B296290ADD002102
:1026E00080F827103BF028FED6F80C23C2E906013B
:1026F000D6F80C03002180F82A10D6F80C0380F8D5
:10270000291047F095F991F826302222002B18BFA6
:102710002022002840F01B8191F8240060B191F83C
:102720002A00002840F0168101208D5A81F82A00E5
:10273000022446F014FF66E0002091F82530A090B6
:10274000ADF884020220ADF88A020120032BCDF8F7
:10275000860224D81BB3022B0DF5207E28BF02234E
:10276000002447F6FF7C4FF00109A3423CD0D6F885
:102770000C6396F82A00002840F0E4808D5EA5F5F1
:102780008040002D00B207D440002EF82400013410
:1027900086F82A90189EE8E78CEAE030F5E70D48C5
:1027A0003BF018FB46F0DBFED6F80C0319E700BF40
:1027B0000000010300000106C06A060080A00600B8
:1027C000608D0600686906007C830600706B060059
:1027D0006400000061000000AC8306008C830600EA
:1027E000BC8306009C83060047F022F9002840F0D5
:1027F000B48091F828900120DDE9A16B0024BDF898
:10280000805281F8290046F097FB9AF808000628C4
:1028100012BF03289AF814002BF0C5FA1898C0F8D4
:102820000C63064686F814930020DDF85890C6F82D
:1028300010B306F2163B86F8160386F80A03012049
:1028400086F80B43A6F8085386F82C0306F21A30D4
:1028500006F542710E2261F08CFA002506F21A315B
:1028600086F81753A0AC0E2245F0DCFE06F21730B6
:10287000C6F818030ECC06F5477006F22A3A06F59C
:1028800046780EC0218886F82A53018096F81F13D7
:10289000B6F81C0302291AD10021A6F8340386F8E1
:1028A000371306F54C7906F23734A6F838030120C1
:1028B00086F8360306F54F7041F0B2FB96F83C03FC
:1028C00001284DD0D6F84003C6F8300367E0A6F8DB
:1028D000340396F81E0386F8360306F5487086F82A
:1028E000371306F54E710CC80CC10022008886F81B
:1028F0004223088006F54C741799204624F06AF8A4
:10290000B0B9204629F03AFC93E0D0E902230DF556
:1029100017603BF0A7FF45F012FAC6E9C61286F829
:10292000200346F05EFD00283FF48FAE042004E053
:102930000320ADE0032000E0062088F8000003201B
:102940002870ADE05FF8702101213AF08FFB5FF84D
:102950007421F9E75FF87821F6E75FF87821F3E76B
:102960000DF51760212245F0A5FE45F0E8F9C6E90E
:10297000D21286F850031798016806F552703CF0A1
:1029800045F800286DD10DF5176041F049FB9DF821
:1029900070090128E4D0DDF87409C9F800000020AE
:1029A000B6F8385386F8360386F846034846C6F824
:1029B0003893A6F8445329040131C6E9CF10002109
:1029C000A6F83C13DA4900680968C90544F0D683C3
:1029D000D8492BF067FA0E46C16BB9B1027C002AC8
:1029E00041D1D0E9022300EBC304A161591C8B1E25
:1029F000A58218BF0B46C3609A4204BF012101742F
:102A000046F0D7FAE0E809123DF056FD45F08BFF9D
:102A1000189E012086F84603D6F8300329F0AAFE56
:102A20004FF48070A6F83603484629F0CCFBDDF859
:102A300058900120DDF85CB08AF8000008F1180019
:102A400098F81210042904D0032904D129F096FB28
:102A500001E029F0B8FB0120A6F81603D6F8FC0225
:102A6000ADE5032010E017993030096846F0F8FB17
:102A700045F059FF189E0120A6F83C03032086F874
:102A800046030420A6F83E53DDF858902070042039
:102A90008AF8000004208BF800000420DDF85CB008
:102AA00086F80003DDE914100840139908401299D4
:102AB000084000EA0900012800F08E8047F2280053
:102AC0003518D6E9DC01169580F003020A430C9212
:102AD00002F09D85084318BF01200A9040F0D28083
:102AE00096F8F40306F55E7878B196F8A00304280A
:102AF00013D003281FD196F8EC0300284DD00328EB
:102B000040F08780D6E9F9208CE0002086F8A00309
:102B1000D6F8F003C6F898030FE096F8B00306F570
:102B20006C79DFE810F00500760076164D003D0068
:102B3000D6F8AC43D6E0D6F898037D4CC6F89C0393
:102B40002068C00544F01A837B483DF04BFB7B486E
:102B5000416C002943D10368012141640133D0E96C
:102B6000022C03602368DB0544F00883744B1C6867
:102B70007CBBDC6C022C40D2189900251D60D3E987
:102B80000256C1E9E2560E46C1F88003601CC1F846
:102B90009033C1E9DE2CD86413E1D6F8A81316E10E
:102BA00096F8B803C00737D1D6F8B44306F56E756A
:102BB00096F8B903002840F0A78000200121ACE07E
:102BC00096F8BA03C0072AD1B6F8B823D6F8B443AA
:102BD000D2E059483AF0CCFE30461AF055FF016871
:102BE0000DF51762574B46F0DFFAB7218DF87009E3
:102BF0005548009055483AF00AFF00200DF517623D
:102C00001860BA218DF87009514800905148FFF7BB
:102C100004BC51483AF053FF50483AF050FF504836
:102C20003AF04DFF04A9A09001F5A3514D48CDF80D
:102C30007C0900240A60A0A8CDF878090DF5176575
:102C400049480026CDF87409CDF87019102C0DD024
:102C50002919285949680A6959469047C1B2083468
:102C60000329F3D0022927D10126EFE7F00700F06E
:102C7000C580189E169D032086F8F40386F8A003ED
:102C800086F8EC03D6E9FE01084318BF012009903D
:102C900040F0C08196F818150720DFE811F0080011
:102CA000BA15BA15AC0048011301A901B801D6F84C
:102CB0001005C6F81405A8E0189EDBD00121D6F84F
:102CC0009C4386F8EC13002186F8B013C10727490E
:102CD00006F56C791CBF40F20111CFF6FF71084078
:102CE000C6E9EA0496F8A803C00741D096F8A903FC
:102CF00006F56E75012110F001004FEA0020C6E9CB
:102D0000ED404FF0000008D0207A002102281CBFBF
:102D1000627A014601F001000021D2B240EA0220AD
:102D200040EA014120463EF0B9FA0120287046E011
:102D300004ED00E0A87F060078C306002002012011
:102D4000E0020120B8CB06009CD30600E4D20600C6
:102D5000CCD6060010D60600D06A0600DC8306003A
:102D6000CC830600F46A0600E06A06000100FFFF5B
:102D7000B6F8AA23C6E9ED42267A022E08D1D4E994
:102D800000013EF043FAC0B2DC4941EA00210FE005
:102D9000A57A85B1D4E9000194F809A03EF036FA8D
:102DA000C0B20EB1824506D0000240EA0540411C87
:102DB00020463EF073FA189E012086F8BA0389F87F
:102DC00000000020C6F8A88386F8EC0341460020E6
:102DD0000122C6E9EB211031C6F8C82306F56B7253
:102DE00086F8E00386F8C40306F57270C6F8CC13C3
:102DF000C6E9F92016E7D6F820450AE05FF8440D49
:102E0000A1215FF8AC2039F0BFFABD4C189EC6F87E
:102E10002045BC480068C00544F0B0812068002807
:102E200044F0AF8146F054FC2060207C012804D19E
:102E300004F58C603BF06CFC217CD4E902029042EA
:102E400001D1C9070ED000212174411C00EB0010F4
:102E50000A1F18BF0A46A26004EB001010F8185FA2
:102E6000032D07D146F066F904F58B603BF05DFC5D
:102E7000032505E0411CA0A840F20F1260F079FF85
:102E800045F0D1FC032D00F0AB8086F80054A0ACD7
:102E900006F2014040F20F12214660F06AFF5DB376
:102EA0000020012D40F09E8086F8FC0696F8010473
:102EB00086F82005D6F81405D6F80214C6F82415AD
:102EC000C6F8280506F224540DF51768DBF8002033
:102ED0004046214625F034FA35469DF87069112E9A
:102EE00078D008F101015EA846F096F9204629F055
:102EF00011FA95F8208554E004A8E11D00F5CE54A0
:102F00004FF4847245F08EFBD6F814150DF5176555
:102F1000B6F801042246A6F82005284624F0CAFF88
:102F200006F5A56029464FF4427260F091FDDBF88A
:102F3000002006F5A5665BA8314625F0CFF85B9D1D
:102F4000092D4AD03046DDE95C4829F09AF9082D70
:102F50000AD104A840F2071200F5A350411C19A899
:102F600060F007FF0F260EE00DF58050102680F868
:102F7000706404A800F5A350C0E90154C0F80C80A7
:102F8000043024F0B5FE189991F8200501287FF44B
:102F90003CAF91F821855EA819A940F2071260F0B4
:102FA00005F858480068C00544F0E880564840F2EB
:102FB0000712057A0672D0E9006480F800800930B3
:102FC0005EA960F0D6FE122D7FF41FAF7168204617
:102FD00088471AE705202E4619E00420189E16E0BF
:102FE000032014E086F87805D6F81405C6F8200505
:102FF00006F5A464DBF800200DF5176021461BF0F0
:1030000047FFDDF87009092840F035810620169D3C
:1030100086F8180506F5036ADAE90001084318BFC7
:1030200001200890CDF83CA041F0418796F8D00EE1
:1030300048B10AF110000390D6F8180E00283FD0CE
:10304000012001F018B8D6F8C81E01F58070C6F846
:10305000CC0E01F1E80001F1DC02C6F8382801F5D8
:103060008872C6F83C0801F1F403D1F82001C6F8D3
:103070001C1E06F6CC61C6F8F41806F63801C6F830
:1030800080090020C6F84818514641F8100FC6F8CC
:103090007829C6F87C3986F89009C6F8180E86F8A3
:1030A000200E86F8C00EA6F8F90886F86808486071
:1030B000C1E94C00C1F8A8000391C1F8AC0001E0DF
:1030C00096F8200E06F624620792DFE810F0C5019C
:1030D000A213A21306004A00330006F62C600690E5
:1030E00096F82C0EDFE810F00600D400951362006D
:1030F00010025000079806990068B6E1010002002E
:10310000B005012004ED00E018010020389706000A
:103110006C9C06007C9C06002C9C0600806D0600C2
:10312000706D0600D06D0600906D0600C06D060043
:10313000006E060096F8380E06F63864002800F097
:10314000E980032840F09C8096F8340E06F634653A
:10315000002830D0032800F007815FF850003AF0D3
:10316000AEFC96F8300E06F56364DFE810F005005B
:103170008D0052130800B100D6F8280E8BE1D6F866
:10318000340ED6F8381E93E096F84E0E06F64E64CE
:10319000DFE810F0050082003F1325001400DAF884
:1031A0000406DAF80816D6F8309E0FE2D6F8300E8C
:1031B000D6F8341E90E1D6F82C0EC0E096F8800EBA
:1031C00006F56868DFE810F0080070002513AB060C
:1031D00028003400C104AB06D6F8689E38E206F633
:1031E00062600B9096F8620EDFE810F005005A005E
:1031F00013130900AF07D6F8509E0E94A2E296F87A
:10320000750E06F675690E94F0B1032801F0D080B2
:103210005FF804013AF053FC96F8BC0E06F6BC6564
:10322000E0B1032800F08C835FF818013AF047FC06
:1032300096F8911E0AF25460C9B1032900F0338454
:103240005FF82C013AF03BFC96F8770ED6F864AEA6
:10325000D6F8688ED6F8704E01F092B8C246A146F4
:10326000D6F8A84ED6F8AC8ED6F8B80E51E3D6F8FC
:103270008C1E00F015BC20462AF0EFF83EF0BFF996
:103280005FF868013AF01BFC5FF86C013AF017FC3C
:103290005FF870013AF013FC5FF874013AF00FFC2C
:1032A0005FF878013AF00BFC5FF87C013AF007FC1C
:1032B00045F0B6FFC0B2052801D1032012E000217D
:1032C00086F83C0ED6F82C0E86F83D1EC6F8380E51
:1032D000DBF8001006F634600CF07CFE002800F0ED
:1032E00082800420207007980468E9480068C005BF
:1032F00043F0448794E8610000210228216075D1E1
:10330000189E169D06F63864D6F81C0E86F8381EF0
:10331000C6F8240ED6F8240EC6F8280E90F8C4106D
:10332000012904BF90F8C510012940F093800021C5
:103330002C3086F8341E06F63465C6F82C0E01686B
:10334000D1F82C25D20735D0D24B1A6812B949F2E0
:1033500075321A60C0225A6149F275321A60002231
:10336000C1F82C25C6F8300E45F0E4FECA482430DA
:103370003BF018FAD6F8300E0068D0F80014D0F8F8
:10338000002101F400731A4309D149054FD54FF4C8
:103390008061C0F800140121C0F808158165BD499D
:1033A000086810B949F2753008600020486149F298
:1033B000753008600120002186F8340ED6F8280EFA
:1033C00080F8C410D6F8280E00F16805406EC600DB
:1033D00036B1F5E80201CA6900219047083EF7E7D7
:1033E000189E169D36E0D6F82C0E56E040B9DBF854
:1033F000000045F038F8CDF87819CDF874091FE0D1
:10340000DBF80000D0E90010864208BF8D4213D0DF
:1034100009688847CDF878190DF51761CDF874095A
:10342000012046F0F4F96968304688470DE0032032
:103430002070287005200AE0CDF87869CDF874591D
:1034400001200DF5176146F0E2F90420189E169D43
:1034500000F00EBE01202070002006F62C6186F8D8
:103460002C0ED6F81C0EC6F8240E0691C6F8280EAF
:1034700090F8C41009B30120874986F82C0E00206B
:1034800086F8300E6431D6F81C0E06F56364C6F873
:10349000241EC6F8280EC6F82C0E90F8C410002979
:1034A000D8D000F1310200F130012C30C6F8340ED2
:1034B000C6F8381EC6F83C2EFAE6002100F1D40208
:1034C00086F8481E00F1310300F130012C3006F57A
:1034D0006364C6F83C2E0BC445F0A2FEC0B20528BA
:1034E00009D196F8480E0AF20468C8B1032827D01B
:1034F0006A483AF0E4FA002186F8380ED6F8280E29
:1035000086F8391EC6F8340EDBF8001006F5636045
:103510000CF060FD002800F07387042000F06BBC05
:10352000D6F83C0E00220168C6F8401EC1F8002201
:103530004FF40002D6F8401EC1F80423C6F8440E2A
:1035400045F0F8FD54482C303BF02CF9D6F8440EE9
:103550000068D0F85C01002800F04984D6F8400EDD
:103560000021C0F85C11D6F8402ED2F88004D2F8C1
:103570008434D2F88854C0B2D2F88C64DBB23606F8
:1035800065F3174646EA03231844D2F89034D2F87C
:103590009454D2F89864D2F89C24189C1206C8F867
:1035A000000084F84E1E1899D1F8289E1899C1F889
:1035B000309ED9B2EBB241EA0321F3B2189E42EA3F
:1035C00003421144C8F8041006F64E64C0F34112D9
:1035D00086F84C2E020ACAF8101686F84A2E020CFB
:1035E000A6F8461E090CA6F8442EC2B2D209A6F8C7
:1035F000481E00F01F01CAF80C060E94042986F834
:103600004D2E28BF042186F84B1E06F6446140B2B9
:10361000B246B0F1FF3F79DD0DF517680A2208F1D7
:103620000A0060F0A6FBA0A898E87C000AF568688C
:1036300001467CC10AF66C61CAF8689E90E87C007D
:1036400000207CC156468AF8800E169DDDE90E4AA0
:1036500006F66C6006F676610A22C6F8589E60F09F
:1036600088FBB6F8700EC6F85C0EB9F8D810C6F82C
:10367000601E0021C6F8641ED9F8D020824211D203
:1036800009F1D400CAF85406CAF8581600F047BC2D
:1036900004ED00E000EC0640180A01203C9C060006
:1036A000E06D0600D9F8CC105FF80C3041F016FC44
:1036B000D6F8602E002A00F0DA850123C24686F88B
:1036C0009C3E06F5696307C3A1460020002101283E
:1036D000C6F8841E04D1D6F8884ED6F88C8E05E044
:1036E00006F5696033F0FEFD04468846002C6ED076
:1036F000189E002096F89C5E86F89C0ED6F8840EE4
:10370000012840F0E680D6F8880EEDE018C90DF5E6
:103710001760021D18C209881180A0A958C80A465E
:1037200058C25646008810800AF65460CAF8509E67
:103730001CC91CC00022098801800AF662608AF850
:10374000622E0B90B6F85C0EC6F8549E1590B6F833
:103750005A0E1490D9E933C2B6F8583E99F8C90008
:1037600096F860AE96F85E5E96F85FBEBAF1020F0C
:103770000490B9F8D800059096F8610E1390CDF832
:1037800048C0CDE9103228D0BAF1000F35D1BBF1D5
:10379000000F00F00182BBF1010F00F0DB81BBF1F3
:1037A000020F2AD1002D40F0C784149BD9F82C10A9
:1037B00003F00F005BB2B3F1FF3F40F3C48308286E
:1037C00080F0638501EB800000F24440C2E3189E64
:1037D0004C46D046D6F864CEF5E0BBF1000F0CD1D4
:1037E000D9F84880B8F1000F07D099F84C0085420D
:1037F00004BF1498072800F0A982D9F8640009F1E1
:1038000068084FEAC009B9F1000F00F09584D8E9C3
:1038100000100DF58054C66A139884F879040DF5EC
:1038200080502C46009280F878A40DF5805080F8E6
:1038300077B40DF5805080F876540DF580551598C5
:10384000A5F874040DF580551498A5F872040DF5CB
:103850008050A0F8703404AA0DF5176002F5A35249
:103860006346B047DDF8700950B9A9F1080908F1BD
:103870000808189E2546DDF848C0DDE91032C2E789
:10388000DDF874C9DDF87889189EBCF1000F00F0EE
:1038900053841599059C08468C4238BF2046049AEB
:1038A000002A18BF0846122C28BF0846404528BFEA
:1038B000404640F22581DDF85CB0002C00F0F38436
:1038C000B0FBF4F1169D01FB1401B1FA81F14A0934
:1038D0001CE106F5696033F005FD0122C6F8880E8B
:1038E000C6F8842EC6F88C1EB0FA80F0002140097C
:1038F00086F8BD5E86F8BE0E06F6BC65D6F8580E94
:1039000086F8BC1ED430C6F8A84EC6F8AC8EC6F8F1
:10391000B80EC6F8A04E0021C6F8A48ED046C6F850
:10392000B00E4C460068C0F828110121C164DD4981
:10393000C0F80413DDF83CA0D6F8B00EC6F8B40EFB
:1039400045F0F8FB5FF8B0022C303AF02BFFD6F8C8
:10395000B40E0068D0F8281169B1D6F8B01E002264
:10396000D6F8A03ED6F8A40E096800900DF51760B1
:103970003AF07CFD0BE0D0F8001121B9D0F85C01E1
:10398000002800F06A8340F20110ADF87009DDF8FC
:1039900070190122DDF87409C9B22A7021B1169D8F
:1039A000022940F0C0825BE3D6F8642ED6F8601E90
:1039B00002EB000CC6F864CE814204D8D6F85C0E47
:1039C000844540F0B580D6F858BEDBF8D020944549
:1039D00000F24784DBF8CC10CDF844800E9496F8C2
:1039E000749EB6F86C2E96F8728EB9F1000F96F8A8
:1039F000734E1491C6F8501EB6F8701E1391B6F8A7
:103A00006E1E96F8750EC6F854CE1591129055D0CC
:103A100058460BF1680B406EC500002D00F06F8218
:103A2000FBE802011646ADF870296346D1F828E09C
:103A3000E24612998DF879191399ADF87419159910
:103A4000149AADF872190DF517618DF878998DF803
:103A500077498DF87689F047083DC1B2D4463246A1
:103A60000229DAD0C00740F04A82189ED6F8580ED4
:103A700000F1D40190F8C720002A5ED0DDF83CA008
:103A8000002290F8C90086F8900E0AF2546086F879
:103A9000912EC6F88C1EDDE9165B0E9CDDF8448085
:103AA0000022C0E9001231F00FFF0120002186F84A
:103AB000910ED6F8580E80F8C71034E2002C00F0B2
:103AC000E1801598012CC3B279D0022CA0D1B8F1B5
:103AD000010F00F03E81B8F1030F08BF002A40F04B
:103AE0000E821599DBF82C00090707BF01214165FB
:103AF00003F0870101F5807118BFC0F81815B4E70D
:103B0000DDE9165B0022002C00F0B88301230021C0
:103B100086F89C3EC6F8783EC6F87C2EC6F8801E15
:103B2000C6F884CEC6F8880EC6F88C4E00F0E1BB0D
:103B3000C246A146D6F8840EC8E545F0FFFEDDF882
:103B40004480CAF85416CAF8580606F6846031F064
:103B5000BBFEE8E1D9F850001499884240F2EC82AB
:103B60000A2D00F0E381002D7FF447AE4E4B02207A
:103B7000614645F021FB00220223ADF870294B4A33
:103B800000920DF517623CF00BF8DDE9112C012ACB
:103B90003FF67FAE464BFCE1002D00F0FB80062D8A
:103BA00000F0E480082D40F0C782002A00F08783EF
:103BB00099F8C8000438B0FA80F04009BEE1DBF89B
:103BC0005000984240F29B81B8F10B0F40F0978172
:103BD0000BEB430000F1540AD0B29AF80110814275
:103BE00040F28D8190468AF8002045F0C2F999464E
:103BF0000024002645F07BFE04A90DF5176001F5B1
:103C0000CE513AF079FFDDF87009012840F0E280EA
:103C1000DDF87819A1B344F006FC20D0042811D0B7
:103C20000528E9D104A844F05BFDC00728D1F0B213
:103C30004845E1D19AF80020E0B2101A45F0F2F8B8
:103C4000159ED9E704A844F04BFDC00718D104A87D
:103C50000E4644F045FDC00712D10C46CCE704A83F
:103C600000F5A3503BF07EF880B248B904A844F0B8
:103C700037FDC00704D104A844F032FDC007BBD013
:103C80000C48D4E1A8F10100082800F23881DFE8EF
:103C900010F04D003601CE003601B4003601360179
:103CA0003601DD0001048000606C0600706C0600C7
:103CB000806C0600F06C0600206C0600306C06007C
:103CC000406C0600D06C0600A06C0600B06C0600CC
:103CD000C06C0600E06C0600E4E50600D492060025
:103CE000606D0600506D0600106E0600989206008A
:103CF000F06D0600B06D0600B1BD0600EC9906003F
:103D0000DC990600A06D06002A000000006D060088
:103D1000506C0600906C060029000000106D060033
:103D2000206D0600306D0600406D0600012A40F04F
:103D3000E680002045F0B7FB002D3FF496AEF4E896
:103D400002010A6A00219047083DF5E7D9F844C00E
:103D50009FE5002A40F0D380159800071EBFDBF8CE
:103D60002C0003F08701C0F818157EE64FF0FF30F5
:103D700000EB1320052800F21081DFE810F00600A8
:103D8000C2019901DD01DD01BC0109F1A80C4FF070
:103D900012087EE55FF8E0300220614699F8C550D0
:103DA00099F8C66045F008FA6A000223D2B232439D
:103DB000ADF870295FF8FC2000920DF51762189E8F
:103DC0003BF0EEFEDDE9112C012A3FF662AD5FF813
:103DD0001031DEE045F0C7F8002D3FF446AEF4E8C0
:103DE000020142464B6A15999847083DF4E70320C3
:103DF000169D86F8480E069938E1501E80B27F283D
:103E00007DD240F201300BF16804ABF8C700DBF85B
:103E100064008BF8C920C500002D3FF426AEF4E8FD
:103E200002029BF8C91052699047083DF4E7012A45
:103E300065D1012045F037FB002D3FF416AEF4E8C4
:103E400002010A6A01219047083DF5E7002A00F0C7
:103E5000AB80012A53D104204FF000088BF8C80032
:103E6000002445F086F8DBF850A045F040FD04A89A
:103E700000F5CE5904A800F5A3560DF51760494684
:103E80003AF03AFEDDF87009012840F0DA80DDF8FA
:103E9000781989B344F0C7FA21D0042813D0052833
:103EA000EBD145F0AFFEC00726D1E0B2824540F22B
:103EB00001820BF1540212F810005FFA88F2801AA6
:103EC00044F0B0FFD9E745F09DFEC00714D130465D
:103ED0000C463AF045FEC0070ED18846CDE7304685
:103EE0003AF040FF80B238B945F08CFEC00703D1EC
:103EF00045F088FEC007C0D05FF8380297E0189EF2
:103F00000020DDF83CA0DDE9165BD6F8581ECAF8A3
:103F10005806D431CAF854160E9CDDF8448006F6D3
:103F2000846031F0E3FC45F007F868E2002A00F015
:103F3000C981149909F1540010F811008CF800009F
:103F40004FF00108A5E4082880F0A68101EB80006D
:103F500000F584605FF8903261460568022045F004
:103F60002BF94FF0FF32022312FA85F2B2FA82F2F5
:103F70005209ADF870295FF8AC2200920DF5176276
:103F80003BF00EFEDDE9112C012A3FF682AC5FF812
:103F9000C0320020022139F01AF8180A0F2840F028
:103FA000CB80D9E90FC874E49BF8C80002283FF41D
:103FB0005CAD03200DF517688BF8C80044F0D9FFFD
:103FC00045F095FC04A800F5CE5604A800F5A354CE
:103FD000404631463AF090FDDDF87009012840F086
:103FE0009480DDF8781901B344F01DFA0ED004284E
:103FF00011D00528ECD120463AF0B2FDC00714D10B
:10400000DBF82C0000222CF039FCE1E720463AF0E6
:10401000A9FE80B248B920463AF0A2FDC00704D1FB
:1040200020463AF09DFDC007D2D05FF858030090BB
:10403000A7F121025FF860032B215FF8603339F0AC
:10404000E6FC44F090FF002D3FF40FADF4E80201D0
:104050008A6901219047083DF5E703202870169DE5
:104060000420069988F800002070052008700320BD
:1040700086F8200E002013900398D0E90001084331
:1040800018BF0120129040F0688296F86808DFE8B7
:1040900010F00700C00BC00B0C00F10129023B021D
:1040A000D6F84808C6F84C08BAE1D6F86C18BAE158
:1040B000D9B203294ED804204C46DFE801F002397A
:1040C0003236002A00F00581012A8CF8000000F049
:1040D00003810320022A8CF8010040F202810920AA
:1040E000032A8CF8020000F000814FF004088CF8DD
:1040F0000380FFF7CEBB09F1BA0C4FF00A08FFF7B7
:10410000C8BBD9E90DC8FFF7C4BB44F02CFF002D94
:104110003FF4ABACF4E802018A6900219047083D06
:10412000F5E709F108040C2002E009F1100414205D
:1041300059F80010206810BB45F000FCD6F8541E5A
:10414000CAF83806D431CAF8341606F6646031F07D
:10415000CDFB51E1D9F8640009F16804C500002DD8
:10416000EAD0F4E80201149AD1F830C01946E047C9
:10417000DDE91032083DDDF848C00028EFD0012A03
:1041800040F2A4805FF8A8440DF5176903224FF0B0
:104190000208002601448CF80120149126B14FF04A
:1041A000000B8246119B34E01499884254D0824619
:1041B000119B1AF9011BCEB2B1F1FF3F27DC427807
:1041C00006F01F01E02E02F03F0212D38578F02E98
:1041D00005F03F0545EA821210D3C57801F00701CA
:1041E00000F1040A05F03F0545EA821242EA814BDC
:1041F00008E042EA811600F1020A08E042EA013BC7
:1042000000F1030A0020B0EB1B4F1BD15E464FF0BC
:10421000000B08F102059D4249D25FF83805294696
:1042200000904046624640F063FE4A460223ADF8E5
:10423000706900943BF0B4FCDDF848C050465E461F
:10424000A846ABE70BF57F00372161F39F2B4FF4B6
:10425000584141EA9026DCE78CF80080189EFFF771
:1042600018BB5FF87C350020614638F0B0FE5FF87F
:10427000840537215FF8882538F086F85FF89405C3
:1042800037215FF8902538F07FF85FF894051C21FE
:104290005FF8982538F0E4FE5FF8A4051C215FF86C
:1042A000A02538F0DDFE5FF8A40539F0FEFB5FF8CD
:1042B000A805B1E05FF8AC25514638F0D7FE5FF8AD
:1042C000B02501E05FF8B42543F05DFE5FF8B80566
:1042D000A2E05FF8B825F7E75FF8BC250120FEF7FC
:1042E00033BB5FF8C02544F036F95FF8C42544F0CD
:1042F0002BFA0020C6F8900E304606F678660129A3
:1043000004D1D0F894AED0F8988E04E0304608F08E
:10431000B1FD82468846BAF1000F0CD0189C0020EF
:1043200094F89C5E84F89C0ED4F8900E012806D177
:10433000D4F8940E0DE0189EDDF83CA05BE030460A
:1043400008F098FD0122C4F8940EC4F8902EC4F829
:10435000981E0021B0FA80F084F8751E2646D4F825
:10436000541E400984F8765E06F67569C4F864AE9A
:10437000C4F8688E84F8770E01F1D404C6F8704E44
:1043800086F8740E00202568002152464346C5F881
:10439000280196F8740E8000C0B2C5F800022068AB
:1043A0003AF0B2F8D948C5F80403169DC6F86C4E29
:1043B000DBF80040D4E90010896888475FF8280DD1
:1043C000D4E900122C303AF0EDF9D6F86C0E006802
:1043D000D0F8281129B10120D6F8901E86F8750E64
:1043E00087E7D0F80011DDF83CA011B9D0F85C01E6
:1043F00050B145F0AAFC0E9C0B990120087020706A
:10440000D6F8280EFFF734B80B99032089F800007E
:104410000E9C0870069927E639F0DCFC39F002FDA5
:10442000BB49C6F86C18DBF80020A0AC2046FCF7AE
:10443000CFFF9DF88002042800F0868006F5056510
:1044400094E80E0028460EC03DF022FEC0B20328BC
:1044500006D15FF8BC0D64303CF082FA169DDFE7B0
:10446000C6F870580020169D86F87408D6F84C08D7
:10447000C6F86C08DBF8002006F66C010DF5176035
:1044800031F046FADDF8700907285FD00628C7D05A
:10449000C6F85C089F48DDF87829DDF87419CAE988
:1044A0000C1239F08BFC06F65C002BF0D9FD39F0CC
:1044B0006DFDD6F85C08032804BF9AF83000012887
:1044C000AED15FF82C0E64303CF04AFA0DF517605F
:1044D0004FF4804244F0EEF843F031FCCAE9101288
:1044E00086F87808DBF8001006F507603AF08EFAD7
:1044F00070BB0020D6F84C1886F8740806F50560E5
:10450000C6F86C18C6F87008DBF8002006F66C01D7
:104510000DF5176031F0FCF9DDF87009072819D0A6
:1045200006283FF47DAF0DF51763DDF87419DDF84B
:10453000782907C3784839F041FC0DF517602BF056
:104540008FFD39F023FD6BE7032004E0042002E037
:10455000052000E0062086F86808DAE92E01084305
:1045600018BF0120119040F0328196F8F90890B1FF
:10457000032826D196F8690906F66914A0B1032824
:104580001CD196F8600906F5166580B1032872D033
:10459000624839F094FAD6F8F40896F8FA18C6F892
:1045A000F00886F8F81815E0D6F8640919E0D6F88E
:1045B000FC08D6F80029D6F8041923E0584839F049
:1045C0007EFADBF8001006F608103AF01FFA70BB0E
:1045D000D6F8F0080021C6F8640986F8691906F6CD
:1045E0006914002106F6681286F8681906F5166542
:1045F000006886F860190121C6F8FC08C6F8002991
:10460000C6F804190029C6F80809C6F80C29C6F826
:10461000101900F0F4820189C6F8141900680068C6
:10462000BFF35F8FC6F81C09C6F8180901E0042023
:10463000CBE0D6F80C29D6F810393A49009101217F
:1046400040F056FCD6F81429002A00F0D18206F575
:10465000126307C306F5126032F044FE98B30022DD
:10466000C6F8300986F85C29D6F80829C6F8341946
:104670000432C6F82C29DBF8002006F62C110DF5C3
:10468000176008F00FFC9DF87009022800F099806F
:10469000C00704D0D6F8081944F072FB1CE0DDF81E
:1046A0007419D6F81C09D6F814290844C6F81C0950
:1046B000914201D301287DD1D6F808090021006874
:1046C000BFF35F8F0160D6F81C19D6F818090029CE
:1046D000AFD0002858D002220123C6F800090DF5FA
:1046E0001760C6F8FC2886F869394FF4004286F84E
:1046F00060390023169DC6F804193AF0B3F843F068
:104700001EFBCAE9361286F810095AE70104800038
:10471000180401205400000053000000546E0600ED
:104720001C980600646E0600180A0120846E0600BC
:1047300068890600F89D0600788906005880060002
:10474000388006004C9806003C980600B46E0600BF
:1047500027000000946E0600790000002C980600E7
:104760006F0000004880060098920600746E0600F4
:104770002500000076000000A46E06007000000016
:1047800090800600BC8E0600012096F8684986F8E5
:10479000600986F869093DF09FFA96F8F818C0B2EA
:1047A00088427FF415AF5FF880004472204622F003
:1047B000CBF80DE7D6F808190968BFF35F8F0860DA
:1047C00048E703202870169D207086F8F908DAE97A
:1047D0005001014318BF012140F0568396F890091B
:1047E0001091B0B1032821D196F8AC0906F69415C2
:1047F00000283AD0032840F0B180189991F8A80910
:1048000000283CD0032840F0B180189ED6F8A0497B
:10481000A4E2D6F87809D6F87C19D6F88029C6F82B
:104820008409C6F88819C6F88C297DE296F8140E1A
:1048300006F51A6906F61462D0B1032840F092809A
:1048400006F61820159096F8180A1492DFE810F072
:1048500006009200E107470059011A00D6F8A009A6
:10486000D6F8A459D6F8A819B8E22868189E62E2CA
:10487000D6F8080ED6F80C5ED6F8101EA1E2D1F8D4
:1048800098095EE296F8980A06F6982A00283DD024
:10489000032873D1314606F6942691F8940A00282D
:1048A00042D0032872D1189800F6512490F8510A8A
:1048B000189DDFE810F005007300AE07E9010A0259
:1048C000D5F8442AD5F84C1AD5F8400A212AC5F85B
:1048D000481A67D28988202A34D1189DAAE196F80F
:1048E000AC0A06F6AC2AC0B103284BD196F8A80A48
:1048F00006F6A828D8B103284CD196F8A40A06F6E3
:10490000A424B8B103287FF443AEC6E0D6F81C1A3D
:10491000D6F8200AD6F8244A0EE1D6F81C5AD6F862
:10492000200AD6F8244A44E0D1F83C4A6BE1D6F894
:104930003C4A51E03546D6F8406AD5F8440AD5F8E5
:10494000481A6CE089B3B2FBF1F3189D03FB112305
:10495000B3FA83F35B0985F8503A70E15FF83402EB
:1049600039F0ADF85FF8380239F0A9F85FF83C0289
:1049700039F0A5F85FF8400239F0A1F85FF8440279
:1049800039F09DF85FF8480239F099F85FF84C0269
:1049900039F095F85FF8500239F091F85FF8540259
:1049A00039F08DF85FF8580236E55FF8580239F0B3
:1049B0007CF8C6F8285A169DC6F82C0AC6F8304A64
:1049C000002C00F083800021C6F8380A86F8A81A67
:1049D00006F6A82845F00FF9202C09D25FF88802C6
:1049E00039F0ECF944F04AFE39F0D0FA0126D9E06A
:1049F000D6F8340A3546D6F8381A22465FF8A4327B
:104A00000668202040F06AFA0022C5F8406A85F85E
:104A1000A42A05F6A424C5F8440AC5F8481A1F2993
:104A2000C5F84C6AC5F8500AC5F8541A40F2E78038
:104A30003089C5F8580A30682E460168BFF35F8F89
:104A4000C5F8601AC5F85C1A169DD6F8502AD6F833
:104A5000543A5FF8300300900846202140F048FAAD
:104A6000D6F8582A002A00F0C380C6F8640AC6F8AF
:104A7000681AC6F86C2A06F6642032F033FC002867
:104A800075D00022C6F8740A86F8A02AD6F84C2AF7
:104A9000C6F8781A0432C6F8702ADBF8002006F54A
:104AA00027610DF5176008F0FDF99DF870090228DF
:104AB00005D10320022688F80000207075E0C007A9
:104AC00041D0D6F84C1A44F05BF959E006F6B81517
:104AD00006F6D8140120202286F8AC0A204645F0BC
:104AE00082F806F6F81029462022169D5FF041F95B
:104AF0000020C6F8244A86F8300AD6F8AC09C6F871
:104B0000200A06F522645946204620F063FA002860
:104B10006BD1204629F0F4F800202024D6F8B419EF
:104B200006F6982A86F8980A06F6D810C6F81C1ACF
:104B3000C6F8200AC6F8244AC6F8281AC6F82C0A6D
:104B4000C6F8304A6AE1DDF87419D6F8600AD6F87A
:104B5000582A0844C6F8600A914201D320283DD162
:104B6000D6F84C0A00210068BFF35F8F0160D6F8C9
:104B7000600AD6F85C1A00283FF467AF022249B3F6
:104B800001262670CDF878095FF82C04CDF8741949
:104B9000CDF8702939F012F90DF517603EF042FF9B
:104BA00039F0F4F9012188F8001026B1022E40F006
:104BB000A780032059E1189E5FF85834D6F82C1AC4
:104BC000D6F8302A08F091FD0C46C6F82C0AC6F833
:104BD000301AF5E6012100262170E3E7D6F84C1AD9
:104BE0000968BFF35F8F086045E70420159A41E12B
:104BF0005FF88C0437215FF88C2437F0C5FB5FF831
:104C00009004FFF709BC202C20D1189D002205F646
:104C10005124D5F8341AD5F8380A096885F8512A8C
:104C20002022C5F8400AC5F8442AC5F8481AC5F834
:104C30004C1A8988002285F8502A202269B1C5F8CB
:104C4000540AC5F8582AC5F85C1A0DE05FF8DC0470
:104C500039F0B4F844F012FD4EE05FF8F404372167
:104C60005FF8EC2437F090FB05F6542032F0A0FA00
:104C7000D0B10022C5F8640A85F8902AD5F8482AF0
:104C8000C5F8602AC5F8681ADBF8001005F526603B
:104C900007F0D6FFC0B2022804D0032823D1169D06
:104CA0000320DEE0189DDFE795F8500A012840F068
:104CB000A18000200121D5F8482A85F8840AC5F88A
:104CC000542AC5F8581AC5F85C0ADBF8001005F636
:104CD000542007F0B5FF169DC0B2022800F08A806C
:104CE000032800F0BD80012020705FF8700539F0C6
:104CF00065F801203EF088FE39F048F90120307057
:104D0000159801248AF80040189E047099F87800DC
:104D1000042804BF09F1800028F0F2FF86F8144E41
:104D2000D6F88409DDF83CA00021C6F8940986F87D
:104D3000AC1906F694150021043086F8A819C6F8B7
:104D40009809817911F07F0400F07283189E012187
:104D500086F8A419C6F89C09C6F8A04920462BF08D
:104D60003DFDDBF80010D1E9001239F01BFDD6F84B
:104D70009C09214600682BF01DFD96F8A41901221C
:104D8000484018BF032286F8AC2986F8A82964D1C8
:104D90000020D6F8841986F8140E06F51A69D6F89C
:104DA0008829D6F88C09C6F8941906F69811C6F821
:104DB000982906F61462C6F8080EC6F80C5EC6F806
:104DC000101E1492002286F8182A06F61822C6F839
:104DD000A009C6F8A459C6F8A8191592C6F8AC09D6
:104DE00006F6B810C6F8B4192021C6F8B0595EF01E
:104DF0004DFF23E0189E01205FF87C36D6F82C1A70
:104E0000D6F8302A86F8940A86F8510A202008F04D
:104E100062FC0C46C6F82C0AC6F8301A4CB10021C8
:104E2000C6F8380A86F8941A44F0E5FE06F6942689
:104E3000E9E60120D6F8B05986F8980A0020202427
:104E400086F8AC0A06F6B810C6F81C5A06F6AC2A64
:104E5000C6F8200AC6F8244AABE50320169D10E0E8
:104E600004200321207005203170159A0321189E1B
:104E70008AF80010149B0321DDF83CA01070042078
:104E80001970109986F8900996F8C00E0A46002805
:104E900018BF012013990840129908401199084041
:104EA0001040012800F0C882032086F8D00EDAF8FE
:104EB000A806DAF8AC1650EA010818BF4FF001084E
:104EC00040F0498296F8E80E78B1032840F03A8223
:104ED0009AF8F80706F56F660AF5FF6980B10328AE
:104EE00014D05FF8600738F0EAFD00200AF5FF698A
:104EF0008AF8F807D6F8E00EC6F8E40E06F56F66F5
:104F000000208AF8F0070420CAF8E8070DF5176BAF
:104F1000179A3146584623F071FB9DF87059112DB0
:104F200006D10320189E89F80000DDE9165B10E227
:104F30003046CDF850809DF871A928F0F4FB44F07C
:104F400004FF46480068C00542F018814449281F04
:104F5000B0FA80F0DDF83C8040098A6800EA0A0077
:104F6000D3B298422DD022F0FF052E188E60022B6E
:104F700027D002F47F430025B3F5807FA3F580732B
:104F80004FF00201B3FA83F308BF154608BF0121B1
:104F90005B094FF0000CBCEB526F0A461CBF03EAE2
:104FA00000022946C8B2022818BF022A40F0358202
:104FB000022803D001F001003CF070FF30463CF0C5
:104FC00077FD189C0022D4F8E40E01680260C9073E
:104FD00000F0278243F6983141F67863214413911B
:104FE000E11800F1040C159119A945F2986212918B
:104FF00004EB02099CE87D007DC1A0AE0025B5F55B
:10500000DE6F07D070194FF45E715EF03FFE05F55C
:105010005E75F4E70BF10400A0A94FF4DE625DF0C9
:10502000C5FF189941F28470002640F2F4620844EA
:105030005946C8F8506F5DF0B9FF0A4D08F5756024
:105040001190B6F5306F1DD00BEB060029464FF4DA
:10505000B0725DF0ABFF06F5B076F2E704ED00E06C
:10506000AC210020CC790600EC9706000C980600D5
:1050700019000000909F06006892060088920600C2
:10508000086B0600159C4FF0000ADDF860B00DF5C6
:1050900017614FF43062204640F808AF109041F697
:1050A000846058445DF082FF0DF58050C4E900AA89
:1050B000C8F868AD2021C8F860AD80F874A804A8CD
:1050C00000F5A354C4E9FEAAC4F800A4A0AE43F0BE
:1050D0008CFE04A8314600F5CE55284641F048FB29
:1050E0005EAE2946304641F091FB04F52E70314604
:1050F00041F0A9FBA0A8294609304FF49C725EF04C
:1051000038FE04F5267042F079FF0DF58050022537
:10511000C4E90AAA40F2411280F8C6550DF5805044
:10512000C4E90CAA80F890A404F25710C4F818A09F
:10513000C4F810A0A0A90E465EF01BFE0DF580512C
:105140000320119A81F870070DF5805008F556611B
:10515000C4E9002580F888A70A20C4E90210F01DE0
:1051600021464FF4AB62C4F8F8A2C4F8D0A3C4F847
:10517000C8A3C4E9C4AAC4F808A3C4F8F4A3C4F833
:10518000ECA3C4F8E4A3C4E9F6AAC4F850A5C4F893
:1051900048A5C4F86FA5C4F86BA5C4F867A5C4F802
:1051A00063A55EF0E6FD0BF61170314640F25F52EA
:1051B0008BF810AF5EF0DDFD08201099C8F8440CA4
:1051C00041F278405844C8F8401C28215EF05EFD4A
:1051D00041F2B54088F884ACC8F87CAC5844C8F8B3
:1051E00074AC04A901F5CE5143F05EFA0320159981
:1051F000C8F8080D4FF0E170C8F8F00C41F26850A3
:1052000058440126C8F8301D1521C8F80CADC8F85F
:10521000346DC8F828ADC8F8F4ACC8F8F8ACC8F8D4
:10522000FCACC8F800AD88F8ECACC8F8E0ACC8F845
:10523000E4AC88F8DC5CC8F8D4ACC8F8C8ACC8F8F2
:10524000CCAC88F8C45CC8F8BCACC8F8B0ACC8F842
:10525000B4AC88F8AC5CC8F8A4ACC8F898ACC8F892
:105260009CAC5EF013FDDBF8E40EC8F850AD8DF891
:105270007669B0F84410006CADF874190DF517613B
:10528000CDF87009CBF8110FDDF87309CBF8140FC6
:105290000BF572608BF8106F40F00AFADDF848C029
:1052A00047F22C0058449CE87E007EC00BF57161EB
:1052B00042F68810169D5E46159A4BF800A0584499
:1052C0002960DBF8E41E85F81CA0C0E901AA01F101
:1052D0001C0480F80CA0C2F830ABC2F828ABCBF8A5
:1052E0000CAF8BF808AFCBF800AFCBF804AFCBF81E
:1052F000F8AECBF8ECAECBF8F0AED1E90EC3463148
:10530000C2F838ABC2F83CAB139ADDF85080C9E95B
:105310008CAAC2E902130BF6EC61DDF85CB0C2E9BD
:10532000005482F820A009F51772C9E900AA89F88B
:1053300069A223C2C9E990AC89F8E2A0C9E9335057
:10534000C9F8D41042F6B0105946304401F038FF85
:10535000042086F8E80ED5E9080150EA010918BFD3
:105360004FF0010940F0478147F2500006EB000A78
:1053700095F87C0068B195F85400DFE810F006005D
:105380004A024A0238003C002700A86CDDF85CB0F5
:1053900004E0002085F85400A86FA864E864504633
:1053A0003EF0DCFA38F0C8FF4FF4004200234FF41F
:1053B0000044002539F042FA169A90631698C163AA
:1053C0001698046416984564169D45E0AB461BF894
:1053D0006C0FE0B1032833D195F86800C00733D1D2
:1053E00095F86000C00740F0B580686EAFE0AC6D26
:1053F000DDF85CB03CE0AB461BF8640F50B103280D
:105400001ED195F86000C00722D1ED6D7AE0D5E994
:10541000161095E02946AD6D71E090427FF4CAAD5B
:10542000CCE55FF8BC031E215FF8C02338F0DCFA3E
:105430005FF8C403FEF7F0BF06F6186018F038FBFB
:105440005FF8D00338F03BFB5FF8D40338F037FB4C
:105450005FF8D80338F033FB002005F1380485F8F5
:10546000740047F268003044C5F860A0C5E91640F2
:1054700038F062FF44F083F80CD2DBF8002039F0FA
:10548000F9F895F8740078B1032812D05FF8100489
:1054900038F015FBEA6DD2E9002339F0CFF9C4E901
:1054A00000010220022117E0002085F87000286E1C
:1054B000686647F28C0043F0D5FA0BF05FFAC1B290
:1054C0000122022908BF032285F8742008BF0320A7
:1054D000C1B2032900F08A80020E000AA5F851002B
:1054E0000020AB46022985F8501085F8532021D1C1
:1054F0000BF8640F29465BF8185C4BF80C5C002035
:10550000C1E91750E878A9780130C2B2052A28BF4E
:105510000522EA7011B3000600F05C812888531E52
:10552000DBB201EB4101434303EB810189B2B1FBE3
:10553000F2F416E00BF86C0F5BE908014BE905107B
:105540000022C5E91810C90785F8682002D18178C2
:1055500001318170012085F8680042E0288800242C
:10556000EC70844237D0AE482C800068C00541F012
:105570000586AC483BF0DAF8AB4E96F850000128AF
:1055800005D106F148010DF517603BF0DBF8306CF2
:10559000F0B196F85010002941F07C81D6E9121242
:1055A000002A06EBC2039865A3F8544018BF0132E5
:1055B000F264914204BF012086F85000D6E902014E
:1055C00043F08EFBC6E9020106F110003BF084F8BF
:1055D00043F0A9F9189E0020A8700120169D85F8B7
:1055E00060008BF80000DDF85CB035E7032085F83B
:1055F0007C0085F85400DDE909100840089908404E
:1056000000EA080000EA0900012800F0E6802946C7
:1056100051F8800F1491496880F0030252EA010AA0
:1056200001F0B082084318BF0120139041F06C8252
:1056300095F89000CDF854A0DFE810F00800EB00DA
:10564000EB00E201F8010D0040001E00D5F8886073
:10565000C5F88C6004E1294611F8B30F1291DFE818
:1056600010F00600C000D8003A000C0AB002D5F8CD
:10567000A800D5F8B410F1E1A94619F8B40FDFE895
:1056800010F01700C200C8004D0D640B270B330B40
:10569000410B730D640DFC0B0F0C1F0C560C630CAF
:1056A000720C7F0C8D0CA40CAC0C980BE50A070D4A
:1056B000D5E9261695F8B54001F07EBA294611F8CD
:1056C000A00F1091DFE800F00490A52C411C4800C9
:1056D000D5F89860B7E2294611F8DD0F1091253909
:1056E0001191DFE810F006008A0096000E02FF0814
:1056F0004A00D5E92E12D5E93509D5F8DEC0DCE13E
:1057000015F8AB0FDFE810F00700820085001A05DE
:105710002705830590051698D0F8A44000F0DEBC5C
:1057200047F2D0002C4606EB000914F8F00FDFE832
:1057300010F0060067007000D9034F003A00B04631
:10574000D5F8EC60DDF854A0EDE2A84618F8F80FA3
:1057500070B103284BD1B7E22C4614F8A80FDFE84C
:1057600010F077054900580005000A0000F03CBE23
:10577000D5F8F0607CE200F044BE15F8F80FA5F112
:1057800010010A950E91DDF854A0DFE810F0050035
:10579000430042000108A209169DD5E93A10D5F848
:1057A000F02000F0EABF05F58470119095F808012B
:1057B00005F1F8081294DDF854A0DFE810F00600B7
:1057C0002E002A003B0412036004D5E93EA2D1E278
:1057D00000F008BC154838F05EF906F55C7018F06A
:1057E00053F9134838F06BF9124838F068F9124849
:1057F00038F065F9114838F062F9114838F05FF96E
:10580000104838F05CF9104838F059F90F4838F072
:1058100056F9FEDE0E4838F052F90E4838F04FF9CE
:1058200004ED00E048C3060040FF00207892060027
:1058300008910600C8900600A8900600489106004E
:10584000F8900600F8910600E890060028910600FE
:10585000389106005890060074C9060024C8060056
:105860000DF5176406F1F00120463CF0F2FD9DF8BD
:105870008B0902283ED102210020CDF8B4090DF594
:10588000196CCDF8B019CDF8A409CDF8A019CDF850
:105890007C1996E82E00ACE82E002246F169CDF87E
:1058A0008C19B169CDF888197169CDF884193169FD
:1058B000CDF8801904F10801022826D0013052F8F1
:1058C000103FDB07F8D0CDF87809D2E90298A0ADF7
:1058D000282242F0F2FE022005F10801CDE9001075
:1058E00028464A4643463DF000FB4FF0010E0E901D
:1058F00010910CE0DDF878094FF0000E11904FF098
:105900000109DDF87C09129003E04FF0000E4FF022
:10591000000906F1500CF26DD6E90ABA306A9CE82B
:10592000221000F00108B36BD80714D07346D6E9F3
:10593000100EC9074FF000054FF0010108D0B0EB81
:105940000C017EEB02013CBF72468446012101E05E
:10595000844672469E46CDF8B0190E99CDF8881946
:105960000421CDF87C191299CDF898B9CDF8AC196D
:10597000CDF89CA91099DDF85CB0DDF854A0119821
:10598000CDF88C1904F10801CDF8A8090020CDF854
:10599000B8C9CDF8A409CDF8A099CDF89409CDF8EF
:1059A0009089CDF88409CDF880E9CDF8BC29CDF8EF
:1059B000B45906F1E005042830D0013054F8102F16
:1059C000D207F6D0CDF878094822D4E90248A0AE33
:1059D00043F032FB042006F10801CDE90010304607
:1059E000224643463DF081FA169A189EC2E92A01E2
:1059F0000020C2F89850154682F8B00082F8A40042
:105A0000DBF8001005F198000AF0B8FFC1B20229D6
:105A100000F00781032913D100F00BBF1699002075
:105A2000189EC1F894500D4681F8A00047F2BC00C2
:105A300043F018F80AF0A2FFC1B2022900F0108763
:105A400000222B4603F8B32F20F0FF0001441293ED
:105A500053F8270CC3F8011043F80B0C0024C5E9D8
:105A60002801C0E908443BF0C3FD38F065FCC5E9F6
:105A7000260147F2D40006EB0009D5E92802D0F848
:105A8000001348463CF01EFCD5E9280C2B46D5E90E
:105A9000261290F8126343F8B81F002E5A6000F0E7
:105AA000878011932B46189E03F8DD4F1093C3F89F
:105AB00001C043F8090C43F8059CA84648F8D0CF2C
:105AC00048E9041248E90209D0F800035FF87812A7
:105AD0003BF0DCFE0C463BF039FF216801392160C8
:105AE00088F80C0098F80000F0B905F1C802002011
:105AF00085F8BF0407CAC5F8C024C5F8B004C5F8C6
:105B0000B41447F2101059463418204624F0FAFB1A
:105B1000002840F09F86204628F0DAF8A84618F8BA
:105B2000D00F002800F08784D5E932095FF8D4123D
:105B300042F0B5FC046A8B46119B00264FF0000A28
:105B4000A6F57071189E169D01B3084630312218D3
:105B500092F8FE23022AF7D012B901F57076EFE72A
:105B6000214400F57C7601F56875494628463EF0EB
:105B7000DDFD119BC007E3D001F00F004FF0010ADB
:105B8000A98D0AFA00F00843A885D9E7DBF80000E0
:105B90004FF0010943F098FD5FEACA704FF01B0017
:105BA0001AD0DDF85CB08046DDF854A000F026BFC6
:105BB000189E85F8ED40C5F8E9C085F8E840C5E9CC
:105BC000360947F2E00042F021FFE04E002800F0E5
:105BD0005A87052000F06ABE98F80000002800F0FF
:105BE0002A84D5F8C800DA49D0F800033BF04EFE0D
:105BF000006A2B46D0E90254026842F021FFD00728
:105C000000F01184D3F8C800D0E9BE0138F048FE96
:105C1000401B71EB040080F00D8498F8000000F048
:105C2000E9BC47F2D00042F01DFF38F0EFFE00283B
:105C300040F0FF850020294601F8A00F109151F88F
:105C4000146C41F8086CC5F89C6004A806F1F001DA
:105C500000F5A3503CF0FDFB0DF5805090F88B044F
:105C6000022841D10020A84608F8F80F48F8086C2F
:105C7000C5F8F46038F060FBD5F8F420C5E92A01D6
:105C8000189E1369DB0700F0F380D2E90635C01ACD
:105C900071EB0500C0F0EB80169D0024C2E90444BE
:105CA0000321D5F8F40080F80613D5F8F400D0F8F5
:105CB00000033CF0F5FAC00700F0DA80D5F8F400F4
:105CC000A5F8B440C5F8B00047F2D80042F0CAFECB
:105CD00025F080FD002800F0CB800320109988F883
:105CE0000000042000F0D0BD04A90DF5176404F1F4
:105CF000200001F5A35142F092FCA0AD21464422C0
:105D000043F0B6FCDDF8608047F2D000294640221F
:105D100008EB0009169D43F03DF800202C4604F8DE
:105D2000F00F44F8046C47F2F00008EB000148461D
:105D30002022C5F8E8605EF01CF838F0FDFAD5E9DD
:105D40002C23801A71EB0300C0F0AD8195F8B800E8
:105D50004646002800F0B180D5F8E8A0A84648F8EB
:105D6000F8AF4A46002012944146C8F8049001F862
:105D7000100F1191C5E940A2114611F8140F43F01C
:105D8000F6FB80F08B85107C012854D0032815D0B9
:105D9000042840F087855AF8F00F02F11C0B0AF135
:105DA000080500264401002C40D005F11C0059468E
:105DB0002AF0D2FDA0BB43F0ACFFF4E7DAF8000311
:105DC000528A3CF061FDD5E94023010CD3F81B3029
:105DD000A5F82101002085F82311C5E9443285F892
:105DE000200147F2381059463418204624F0A0FB11
:105DF000002840F02585204627F0A4FFD5E940A0E3
:105E000000F11C0B00265AF8F00F0AF108044501B6
:105E100065B142F0E7FD18B9203D01362034F7E7BF
:105E20000DF517605146324630F05CFCDDE917B6DF
:105E3000DDE915A518E1508AA5F810014000421CC3
:105E4000A5F81221DAF800033CF0CCFDC1B2152907
:105E500040F0D88042F029FDDDF854A0002800F081
:105E60000381B5F81211418202210174FCE0169DF4
:105E7000D5F8F4000168C9071CD0D5E92A12D0E989
:105E80000235C91A72EB0501169D13D30021C0E932
:105E90000011D5F8F41091F80403012807D1D1F8C6
:105EA000000391F805133CF055F9D5F8F4100320E0
:105EB00081F8040343F040F809E10020D5F8E81028
:105EC00085F8CF0447F2E4003044C5F8C40495F8DF
:105ED000C600C5F8C014B5F8C41041EA004000027D
:105EE000C5F8D004129405F1F8045946204624F070
:105EF00009FA002840F0BC84204627F0E9FED5F8D6
:105F0000E88047F2EC0006EB000A002458F8F00F96
:105F100008F108064501ADB106F11C0051462AF012
:105F20001BFD08B1307C18B1203D01342036F2E76A
:105F30000DF517604146224630F0D4FB9DF88B09E1
:105F4000022809D1DDE915A5ACE000BF04ED00E0B1
:105F5000A4C90600100B0120169D0DF51761202223
:105F600005F58E6011905DF004FF189947F2AC4082
:105F70000C18D5F8E8005FF81C1742F090FA056A93
:105F80008A464FF0000B002605EB060898F83E0005
:105F900048B908F1100021463EF0E3FB18B188F83B
:105FA0003EB0A8F83CB03036B6F5707FECD1DAF8E8
:105FB0000000169D0130CAF800000020DDE917B688
:105FC00085F82D0185F828011198D0E90001C5E96F
:105FD0003E01D5F88B04C5F82901D5F8E800C5E9DC
:105FE0004604129C47F2201006445946304623F0DE
:105FF0001BFBDDF854A0002840F04984304627F010
:1060000037FE50E085F80C01000AA5F80D01D5E92E
:106010004001DDF854A095F80E21D1F81B1085F849
:106020002B21B5F80C21A5F82921002285F828217B
:10603000C5E9461047F2401059463418204624F06E
:1060400013FD002840F01884204625F0FBFF42F0A5
:106050002CFC48B147F2341106237218715A927819
:106060000374A0F81110C274D5F8004120463CF02A
:106070009FFC88B90020C5F8304185F8380147F207
:10608000381059463418204622F022FC002840F0EF
:10609000CE83204626F002F911990120087040466F
:1060A00026F0CAF8129C0120207009F1500099F8DE
:1060B0004810052909D0042904D0032907D127F065
:1060C00007FE04E027F0D4FD01E026F0B5F800203B
:1060D00005F8AB0F55F80F4C45F8074C26460DF563
:1060E000176256F8200FC00712D038F025F9D4E90E
:1060F0000A3C0DF51762C01A71EB0C0008D30020A2
:106100003246CDF874090120CDF8700994F83000BA
:106110000021C2E90011DDF87019C90700F08D8077
:10612000169AC1B2189E032982F8A8001FD209024C
:106130005FF8E00104311C30C2E92B0142F095FE0A
:10614000002840F08F8394F8A8105FF8F801090246
:106150001C30C4E92B0147F2D40042F083FC33F039
:1061600041F8002840F07A83169890F8A800C1B250
:10617000072939D1AD480068C00540F0FF87AC4819
:106180005FF8601927F08EFE064690F838000C463E
:10619000012804BF06F1300030F0D2FCB06AE0B153
:1061A00096F83810002940F07583D6E90C12002AC1
:1061B00006EB8203D86318BF01327263914204BFB9
:1061C000012086F83800D6E9000142F089FDC6E9D1
:1061D000000106F108003AF09EFA2068189E01308E
:1061E0002060169890F8A80000F0FE01082924D13C
:1061F000169B421F08385FF8A41283F8A900D0B29A
:1062000000021C31043083F8AA20C3E92B1042F0AD
:106210002CFE002840F01A8394F8AA105FF8CC02F4
:1062200009021C30C4E92B0147F2D40042F01AFCE9
:1062300032F0D8FF002840F00B83169D00202C463A
:1062400004F8A80F0120E07054F80C0C44F8040C7A
:10625000D5F8A4900DF51768129454464046D9F825
:1062600000133BF095FF04A800F5A350861D00F134
:10627000020A38F061F84D464FF0000B55F8382F00
:10628000D20713D0D9E91023CDF838A0821A11967D
:1062900071EB03020DD399F8493099F84820DBB22D
:1062A00052EA030B18BF4FF0010B02E0CDF838A003
:1062B00011964E46A24656F8502FD20724D0D6E962
:1062C0000223801A71EB03001ED399F8611099F82C
:1062D0006000C9B250EA010A18BF4FF0010ABBF1D1
:1062E000000F34D099F84A000028404618BF023009
:1062F00002889DF87A1928463CF059FCBAF1000F43
:10630000DDF854A011D027E0BBF1000F00F083802E
:1063100099F84A00002818BF08F10208B8F80020D0
:1063200028469DF87A193CF042FC0DF51761284685
:106330003CF066FC04A843F07EFA0DF58051002085
:10634000DDF85CB0A1F87404DDE9111424E0BAF1C1
:10635000000FDDF854A05ED099F8620006210028F5
:1063600008BF042138F8012030469DF87D193CF023
:106370001EFC284641463CF043FC04A843F05BFA6F
:10638000BBF1000FDDF85CB0129C06D10DF5805119
:106390000020A1F870040E99088004A804A901F552
:1063A000A35100F5CE550CC928460CC009880180C0
:1063B00099F87010D9F800033BF030FFA0AE2946E1
:1063C000701C43F070FB169D0120189A314685F829
:1063D000AC0047F2D5001044164643F03DF90020CA
:1063E000C5F8B89085F8E00005F1AC08DBF80010BE
:1063F000404622F0CFFE002840F01D82002088F8A1
:10640000000047F2D40042F02DFB37F0A1FE1099B6
:1064100028B1042011E2DDE9165B1099129C0120DD
:10642000024E207034E31D4605E000BF04ED00E09D
:1064300050FE0020169DD5E93204DFF8701D42F0B1
:106440002EF88A46016A47F204100DF5207B30448D
:10645000A49001F57470E04BA19001F110020BF1D2
:106460000800CDE9A2481D4693B34E1905F130034B
:1064700096F8FE63022E189EF5D0194405F57C733C
:1064800001F568711A44A09222F0A8FE81460DF52C
:10649000176C9BE85D0061465DC1DDF87069DDF851
:1064A00074198E4213D0881B30210CF1080BB0FBFD
:1064B000F1F496F82E00022806D05846314622F014
:1064C0008DFE814598BF81463036013CF1D1189E42
:1064D00042F00AF998F80000002D00F08B800028A7
:1064E00000F08880169DB9F1000F00F033811698F6
:1064F000D5F8C0401699D0F8C4501698D1F8D0807D
:10650000D0F8C8601698D0F8CC000168D0F8030025
:10651000CDF88419CDF88709D6F800033BF038FA96
:1065200002460B462046294638F088F9CDF88B897B
:106530000DF51768CDF8780906F1F000CDF87C1953
:106540004146CDF870490024CDF87459169DCDF818
:1065500080493BF0CBFFD5F8C800DFF8501C41F074
:106560009EFF066A08F101000E9008F1080045F24E
:10657000555A43F2333809910A90B4F5707F00F010
:10658000A680321992F83E00022815D002F11005BB
:10659000296881B1928F0AEA5203D21A08EA92035B
:1065A00002EA08021A4441F026FE914203D1C007D4
:1065B00008BF494502D0169D3034DEE70DF517605F
:1065C00029463CF086F80A9829461AF03FF99DF8CA
:1065D00070B9A0A80E9927225DF0CBFBBBF11B0F71
:1065E000E9D004A8A0A900F5A35027225DF0C1FBC3
:1065F000169D6EE0169D002840F0AC800020DFF86C
:10660000AC1B85F8E800C5F87004D5E9320441F008
:1066100046FF0E9147F29C4106EB010A066A4FF0D5
:10662000000BBBF5707F61D006EB0B0898F83E902D
:10663000B9F1020F47D008F11005214628463EF077
:1066400090F800283FD0169991F8E80040EA090038
:1066500081F8E800284621463EF068F8C0070DD0D2
:1066600001F00F00012101FA00F04FF6FF714840E0
:10667000B8F83C100840A8F83C0001E0B8F83C002D
:1066800008BB98F83E000021A8F83C10012888F8C3
:106690003E1018D11698D0F87004132813D8C0EB08
:1066A000C00298F8301001300AF802100AEB02011B
:1066B000D8F83120C1F80120B8F83520A1F805201C
:1066C0001699C1F870040BF1300B169DA9E74FF035
:1066D0001B0B099941F0E4FFBBF11B0F16D14FF0E2
:1066E00000094FF01B08DDE917B608E10E9941F0EB
:1066F000D7FF95F8E80060B3D5F87004DDE917B668
:10670000C0EBC0005044C5E93BA0D1E0CDF838B0A3
:1067100004A800F5A3500DF51766C11D202241F015
:1067200084FFD5F8C8A00024DDF85CB00AF1D805D4
:10673000D04658F8F09FC8F80040A14535D0203524
:106740003046294630F000F801340028F5D1012503
:106750002DE0189ED5F8D0102B4643F8E81F4FF0D7
:10676000000C53E90802C3E901020E9303F810CFAD
:106770000A93DDF85CB0DDF854A0C5F8D814002108
:1067800085F8D714C5F8C804C5F8CC24C5F8F400BA
:1067900047F2281059463518284623F0B3FD002843
:1067A0005AD1284627F094FAB1E000254C460AEB6E
:1067B00044100DF5176A00F1F806A1450ED042F01D
:1067C0009FFD20B1A6EB451041F018FC00E001351B
:1067D00020360134F1E700BF40FCFFFFCDE9A259AC
:1067E000CDE9A089A0A825F073FB169D0AF104014C
:1067F000DDF87029D5F8C800D0F800033CF008FC9B
:106800000DF580500DF580514FF00109B0F874047A
:10681000A1F8D40904A800F5A351189EDDF854A0EE
:10682000119BDDF838800868C1F86005E6E00520B6
:1068300023E0032066E1032010992070062023E066
:106840000420DDF85CB0DDF854A016E005200AE075
:10685000062008E0032057E0032049E1042002E07D
:1068600004204FE1032028700520169D10990BE0AD
:10687000DDF854A0032003E00320119908700520DF
:106880001099129C20700320087006203AE110999C
:106890000420F7E7DFF8080936F0D8FBDFF8040931
:1068A000FDF7BABDDFF80009FDF7B6BD129927E183
:1068B0004FF00109824520D005F1C002002085F883
:1068C000280107CAD5F8D030C5E93E010AF1070012
:1068D00085F82D91C5F81CA1C5F8EC00C5F8293143
:1068E000C5F8182147F2201042F090F858B9204618
:1068F00027F0BEF9D5E93BA0DAE74FF01B08DDF839
:1069000054A0119B7AE00420DDF854A0F4E016981E
:10691000D0F8F43003F58475194651F8F00F4601AC
:1069200003EB40124FF0FF3002F1F80CAEB32C46EF
:1069300005F1200214F8105B0130203E002D1546B1
:10694000F4D1644500F0A68052E90CEAA2F11003EC
:10695000169D4FEA561C002602461C7CC4B9D3E99A
:10696000005900EB060BBEEB05087AEB0904C8469C
:106970002C463CBFD0467446B5EB0E0579EB0A05B4
:10698000A646169D38BF0BF10102DDF85CB0C24689
:1069900020330136B445E0D17EE0D3F80003DFF8C0
:1069A0000C183EF01FFB006A0022189E0023C4183A
:1069B00094F83E5005B9A2873033B3F5707FF6D115
:1069C0000868169D01300860012085F8F8000E98CF
:1069D00027F03CF9D5F8CC004FF00009D0F80110B1
:1069E00004AA02F5A352119BC2F860150DF580525E
:1069F000B0F80510A2F8D41990F800801099012081
:106A0000087003F1300093F8251005290DD00429F2
:106A100005D01C4603290BD127F05AF908E003F1F1
:106A200040001C4627F024F902E01C4627F00EF92E
:106A3000B8F11B0F01D1E54E28E004A9C5F8E440E8
:106A400001F5A35147F2E10005F1980485F8B880FB
:106A5000D1F860153150002185F8F01030441ECC7B
:106A6000C5E930120DF5805185F8F590B1F8D419CB
:106A70008180C5F8F140C5F8E03047F2E80041F008
:106A8000C5FFD24E88BB204627F0F2F812990120AC
:106A90000870B0E20246169D05F58F602FF022FEC9
:106AA000D5F87C240020189ED5F87814DDF854A081
:106AB00085F8350185F8300147F2B440C5E9401248
:106AC0003044D5F89314C5F83111D5F8F410C5E960
:106AD000481047F2281059463518284622F0A4FDE0
